:10000000C9C100000C945D14E3C10000E1C100000F
:10001000DFC10000DDC10000DBC10000D9C100006C
:10002000D7C10000D5C10000D3C10000D1C100007C
:10003000CFC100000C94F613CBC10000C9C1000071
:10004000D4C30000C5C10000C3C10000C1C100008D
:100050000C94F2220C94BC22BBC10000B9C1000078
:10006000B7C10000B5C10000B3C10000B1C10000BC
:10007000AFC10000ADC10000ABC10000A9C10000CC
:10008000A7C10000A5C10000A3C100006D8B2242E2
:100090001707622327433D03461A09699A1841FE50
:1000A0000B5A540E471D094D55094BC30959CE1A19
:1000B00052880654011E567F0757C80658E80F6538
:1000C0003F0766C0216C060774590475E81678046A
:1000D00003000000202F2000203D2000072E050DEA
:1000E000D391FF080500000C0021656A2D3B132207
:1000F000F862073F181D1CC700B0876BF8B611EAFD
:100100002A001F41000D2E2D07D3913D043200001F
:10011000060021656A55E43023B900070018146C05
:10012000070090876BF85611E92A001F4100000371
:100130000F1E2627000000030F1E25363867000318
:100140000F256740605000030F275188838100030B
:100150000F2750C8C3C2002700000000000000673E
:1001600000000000000000500000000000000081BE
:1001700000000000000000C2000000000000504C21
:100180004C310D0A00504C4C300D0A005620312ED7
:1001900036362043534D38363800202F2000203D7E
:1001A00020004C4F56460D0A004552523A434341F7
:1001B0000D0A000B08105B11F81547191D1A1C1BBE
:1001C000C71C001DB221B623EA0007022E030D044E
:1001D000E905CA070C0B060D210E650F6A10C81140
:1001E00093120315341733181819161B432156257B
:1001F00000261129592C812D353EC34C454E4552C0
:10020000520D0A004C4F56460D0A004C454E4552C1
:10021000520D0A000007024604C605260B0610C848
:100220001193120313221534173F182819161B4374
:100230002156250026110D210E650F6A070C1607A1
:1002400020F81E871F6B29592C812D353EC3FF00D6
:10025000424F56460D0A000D2E2D07D3913D043214
:100260000000060010B07155E43023B900070018F3
:10027000146C070090876BF85611E92A001F4100A3
:100280000D2E2D07D3913D04320000060010ABA5C2
:10029000550A3023B900070018146C070090876BCB
:1002A000F85611E92A001F41004E2F4100454F42E8
:1002B0000D0A004E2F41004E2F41000053530054B1
:1002C0007D7DFFFF4B4B7E7E0020697320756E6B3A
:1002D0006E6F776E2920557365206F6E65206F668F
:1002E000003F2028004F4646004F464600544D4FE1
:1002F000444500534D4F4445000454053D1700004C
:100300000602000B080C000D210E6B0FD0105C11C3
:10031000041206132214F80A00154421B6221018FC
:1003200018192E1ABF1B431C091DB523EA242A25C0
:1003300000261F29592C812D352E09070408000994
:100340000006FF3EC2FF0476059617000006020075
:100350000B080C000D210E650F6A106A114A120677
:10036000132214F80A00154721B622101818192E66
:100370001A6D1B041C091DB223EA242A2500261F1E
:1003800029592C812D352E0907040800090006FF84
:100390003EC2FF0011241FBECFEFD0E4DEBFCDBFB1
:1003A00011E0A0E0B1E0E4E4F7E500E00BBF02C03B
:1003B00007900D92A838B107D9F728E0A8E8B1E076
:1003C00001C01D92A73FB207E1F703D00C94A02B08
:1003D00017CE88E10FB6F894809360001092600009
:1003E0000FBE089A109A099A119A0E94C12374D5D7
:1003F00089EF87BD84E085BD82E084BD80936E0077
:10040000109280008AE08093810090E080E80FB62F
:10041000F89480936100909361000FBE84B7877F4A
:1004200084BF2FE088E190E00FB6F894A895809300
:1004300060000FBE2093600089E190E80E942623AF
:100440000E94A11D0E94C20F80E893E290938C034A
:1004500080938B0381E080938B010E940C16809126
:100460008B01886080938B01119878940E944523BA
:100470000E94A21134D20E9406220E948A170E9472
:100480008A0A0E94DC0D0E942825F0CF8EBD0DB493
:1004900007FEFDCF8EB50895A1E0B0E0E2E5F2E001
:1004A0000C94382A482F8A3008F048E088E0489FAA
:1004B00070011124F701E25DFE4F7F018BE290E0B5
:1004C000F70164918C010F5F1F4F498303D4FFEF45
:1004D000EF1AFF0A49810333110511F0C801F0CF6B
:1004E0004550453010F461E101C067E184E290E0DD
:1004F000F1D32196E6E00C94542ACF93DF9382E067
:1005000090E0FC01ED5FFE4F6491EC012196E2D397
:10051000CB32D10511F0CE01F4CF87E390E0FC019E
:10052000EB55FF4F6491EC012196D4D3C036D10531
:1005300011F0CE01F4CF88E0AFDFDF91CF910895C5
:100540002C98806CA3DF80E0A1DF2C9A0895A1E0B5
:10055000B0E0EDEAF2E00C943C2A2C9880646983C8
:1005600095DF6981862F92DF2C9A2196E2E00C9428
:10057000582A2C988BDF2C9A0895EF92FF920F93B4
:100580001F93CF93DF93EC0110929301E898249A84
:100590002C9A8EE190E016D22C988EE190E012D247
:1005A0002C9A8DE290E00ED280E3E3DF84E690E0C7
:1005B00009D22C9880E46ADF7E0189E2E80EF11C02
:1005C0008E010F5F1F4FCE018AD360DF0E151F050E
:1005D00011F0E801F5CF2C9A2C988EE757DF8BE2CB
:1005E00090E0EC0121967BD351DFC333D10511F0AC
:1005F000CE01F7CF2C9A83E3BCDF81E0E8D1CDB701
:10060000DEB7E6E00C94542AA1E0B0E0EAE0F3E0C3
:100610000C943C2A22E0298341E0BE016F5F7F4FAA
:100620000196FDD2898138DF82E090E0A6DF219635
:10063000E2E00C94582ACF93E89886E39ADFCFEF54
:1006400085E397DFC1508077803229F08AE090E01F
:10065000B9D1C111F5CFCF910895CF93CFEF84E3F6
:1006600088DFC1508077803129F08AE090E0AAD1FC
:10067000C111F5CFE89ACF910895A2E0B0E0E3E48C
:10068000F3E00C943A2A8C01FC0181818737E9F46C
:1006900041E0BE016F5F7F4FC8010296C0D2892B37
:1006A000A1F041E0BE016E5F7F4FC8010496B7D252
:1006B000892B59F06A8189814ADF83E35ADFCDDFD4
:1006C0008981A9D28A81A7D22CC041E0BE016E5F88
:1006D0007F4FC8010196A3D2892B21F18A818939E4
:1006E00069F410E0812F2CDF96D2812F877087303C
:1006F00009F41DD21F5F1033A9F714C021DF182F92
:1007000083E4CAD18A8187D288ED90E003D2812F19
:1007100082D284ED90E0FED140E262E0812F90E051
:100720000AD205D22296E4E00C94562A86E321DF11
:1007300010928D031092910110929301089582E01E
:1007400090E01BDF81E080938D0310929101109265
:10075000930108950F931F93CF93DF93082F10E019
:10076000C62FD0E085E3ECDE801731F0CE012AD130
:100770001150C1F781E001C080E0DF91CF911F915E
:100780000F91089585E2DCDE8F3311F080E008954B
:1007900086E3EFDE80918801811104C085E891E055
:1007A000B9D102C08DE3E5DE83E3E3DE64E081E0FE
:1007B000D1DF85E2C5DE8F3349F780918801811151
:1007C00003C08EE791E0A6D181E0089585E3B8DE0D
:1007D0008D3051F485E2B4DE8F3331F4D3DF84E31E
:1007E000C8DE80778031D9F708951F920F920FB637
:1007F0000F9211240BB60F928F939F93AF93BF93D9
:10080000EF93FF9380918F0390919003A0919103B8
:10081000B09192030196A11DB11D80938F03909317
:100820009003A0939103B093920380918E038F5F06
:1008300080938E03E1E3F4E080819181181619061C
:100840001CF4019791838083369684E0E934F8079D
:1008500099F780914B0490914C04009729F00197EF
:1008600090934C0480934B0480915E048F3F19F069
:10087000815080935E04FF91EF91BF91AF919F9162
:100880008F910F900BBE0F900FBE0F901F90189579
:100890002FB7F89440918F0350919003609191038A
:1008A00070919203FC0140835183628373832FBF55
:1008B0000895A4E0B0E0EFE5F4E00C943C2ACE010A
:1008C0000196E6DF8C81A7D18B81A5D18A81A3D146
:1008D0008981A1D12CD12496E2E00C94582A1F934F
:1008E000CF93DF9380918F0390919003A091910318
:1008F000B091920320918A01281709F45FC080917A
:100900008F0390919003A0919103B09192038093F3
:100910008A01A895C1E3D4E010E028813981232B16
:1009200019F4812F0E9430201F5F26961430A9F7FA
:1009300080914B0490914C04892B11F40E948C20DF
:1009400080915E04811102C00E94EA2080912204FD
:10095000882339F0815080932204811102C00E94C3
:100960001E1880918E038D3748F110928E0380916E
:10097000000181FF04C082B192E0892782B9809191
:10098000930390919403843823E0920728F401960E
:100990009093940380939303809189018F5F809358
:1009A00089018C3359F410928901809130048F5F52
:1009B000809330048C3310F010923004DF91CF918B
:1009C0001F910895880F991F0197F1F7089520ED61
:1009D00037E0815020F0F9013197F1F7FACF08950F
:1009E000CF93DF93DC0113968C911397843509F034
:1009F00050C0CD010396CC91FD0170964DE04C178F
:100A000050F050E0D0E09E012F50310942175307BB
:100A100009F03FC005C021912B3399F34F5FEFCF11
:100A2000FE013E97E80FF91F2081243591F51496B9
:100A30003C911497218132132CC015963C91159747
:100A40002281321326C016963C91169723813213C9
:100A500020C017963C911797248132131AC06197D2
:100A6000C80FD91F858188838681898381858A8380
:100A700082858B8383858C8384858D8385858E8316
:100A80008C918A508C9312968C9112978A50129660
:100A90008C93DF91CF910895CF93C82F80918B01D4
:100AA00080FF0EC0809172048E3730F087FD08C041
:100AB000CD3011F0CA3021F46C2F80E794E028D2B9
:100AC00080912D048823C9F080918B0183FF15C08C
:100AD000CA3099F0CD3011F46BE301C06C2F8DE971
:100AE00093E016D2CD3019F48DE993E079DF83E0FD
:100AF0008093220482E080932804CF910895CF93BD
:100B0000DF93EC018991882311F0C6DFFBCFDF91E1
:100B1000CF910895CF93DF93EC01FE018491882358
:100B200019F0BADF2196F9CFDF91CF9108958DE0CA
:100B3000B3DF8AE0B1CFA6E0B0E0E1EAF5E00C94E3
:100B40003A2A062F1E8215E02AE030E01150E1E03B
:100B5000F0E0EC0FFD1FE10FF11DB9010E94052A25
:100B6000805D8083CB010150009769F01111EECFB9
:100B70000AC0112359F01150E1E0F0E0EC0FFD1F25
:100B8000E10FF11D4083015007FFF3CF81E090E0BA
:100B90008C0F9D1F810F911DB2DF2696E4E00C940F
:100BA000562AA5E0B0E0E7EDF5E00C943C2A1D8262
:100BB00024E0382F3F702150E22FF0E03A3010F45B
:100BC000305D01C0395CA1E0B0E0AC0FBD1FEA0FA1
:100BD000FB1F308334E0969587953A95E1F7615095
:100BE000009739F7615067FD0BC0222349F021506F
:100BF000E1E0F0E0EC0FFD1FE20FF11D4083F2CFCA
:100C000081E090E08C0F9D1F820F911D78DF25966B
:100C1000E2E00C94582A40E362E090E0C2CFDC01AD
:100C2000FB0130E090E08D918823A9F0813608F037
:100C3000805220ED280F2A3030F02FEB280F26307D
:100C400030F429EC280F292B332379F006C08032A9
:100C500051F38A3341F3CF0105C0CF0101962083C0
:100C6000415041F4861B970B0895922F9295907FE7
:100C700031E0D9CFFC01D5CF20E030E05AE0FC01D3
:100C80004191CF01442379F0E0EDE40FEA30B8F769
:100C9000F9015E9F90015F9F300D112420533109AF
:100CA000240F311DECCFFB01318320830895982F51
:100CB00092959F709A3010F4905D01C0995CFB0191
:100CC00090838F708A3010F4805D01C0895CFB01D5
:100CD000818308950E94922BF999FECF08950C9478
:100CE0008A2B08951F93CF93DF93162F11501F3F28
:100CF00059F0EC012196F3DF8EDF112311F08AE326
:100D0000CBDE1150CE01F3CFDF91CF911F9108952B
:100D1000A2E0B0E0EEE8F6E00C94392AFC01218173
:100D20002D3421F466E08AEF9FE005C0203529F4D8
:100D300060E18AED9FE0D6DF26C01A82198242E088
:100D4000BE016F5F7F4F01966ADF098110E082303C
:100D500021F4102F00278A81082BC801C0DFF82E4C
:100D600082E59ADE40E364E0C8011BDF8EE991E092
:100D7000D1DE8F2D50DF8AE991E0CCDE40E262E0E7
:100D80008F2D90E0D8DED3DE2296E5E00C94552A34
:100D9000A6E0B0E0EEECF6E00C94362A6C0143E0FD
:100DA000BE016F5F7F4F01963ADF823058F1E980D4
:100DB000F12C823021F0FE2CEE242A81E22A8C01D3
:100DC0001127FE01E00FF11F6081C70183DF000FD3
:100DD000111F0F5F1F4F0C0D1D1DF801808188230F
:100DE00089F041E0BE016F5F7F4FC80118DF892B9A
:100DF00049F08FEFE81AF80A6981C7016BDF0E5FCF
:100E00001F4FEBCF2696E8E00C94522A41E060E0B9
:100E100071E0019604DF8091000180FF02C0119A09
:100E200001C011986091000184E390E053CFA1E0EC
:100E3000B0E0EDE1F7E00C943C2A1982009731F024
:100E400041E0BE016F5F7F4F0196E9DE89818F3FF0
:100E500009F4FFCF882321F061E083E390E03ADFDB
:100E600010926E00F89428E088E190E00FB6F894B4
:100E7000A895809360000FBE20936000FFCFCF93B2
:100E8000DF93EC0161E080E090E024DF62E481E048
:100E900090E020DF32DB60E080E690E01BDF60E086
:100EA00081E690E017DF60E083E390E013DF62E02B
:100EB00084E390E00FDF60E080E690E00BDF60E02D
:100EC00081E690E007DF8981883719F080E090E0C3
:100ED000AEDFDF91CF91089580E090E000DF8130B8
:100EE00029F481E090E0FBDE823419F080E090E0AC
:100EF000C6DF84E390E0F3DE8093000108958CE880
:100F000091E008DE14CEFC01128210821182089555
:100F1000FC018FB7F894928197FD0EC09F5F92837A
:100F2000208191E0920F9083DF01A20FB11D1396F3
:100F30006C93903809F410828FBF0895FC019FB71D
:100F4000F8948281882371F081508283818121E02D
:100F5000280F2183DF01A80FB11D13968C91203833
:100F600009F411829FBF0895FA013081882369F046
:100F7000E1E0F0E0022E01C0EE0F0A94EAF7DB0197
:100F8000A30FB11D9C919E2B9C93222319F08FEFF0
:100F9000820F0BC081E0830F8C3010F4FA01808344
:100FA000FB01E80FF11D108287E090E00895CF93D8
:100FB000C82F299A882319F080918E0102C0809150
:100FC000900120E1829FC0011124FCDC2998CC23F0
:100FD00019F080918D0102C080918F0120E1829FE4
:100FE000C0011124EFDCCF910895A3E0B0E0EBEF56
:100FF000F7E00C942C2A5C01162F622E842F90E0CF
:101000009B838A8320919303309194030296089FD7
:10101000802D1124992787FD90952817390720F4F2
:1010200082EA91E077DD7CC0281B390B3093940372
:1010300020939303119A80919301882341F0109299
:10104000930185E891E0C4D7FF24F39401C0F12C0B
:1010500080918D03811101C072DBEDDA812E912C1C
:10106000CC24C394D12C712C512C852D992787FD2C
:1010700090958815990524F480E099DF5394F5CF75
:10108000112311F081E093DF20E0422E552447FC2C
:101090005094EA81FB814E165F062CF097E0392EC2
:1010A0004A0C5B1C1AC087E0282E312C4A0C5B1CB2
:1010B000C601022C01C0880F0A94EAF7F201908160
:1010C0008923298374DFF1E02F1A310829818FEFFA
:1010D0002816380669F72F5FD8CF832D992787FD0B
:1010E00090956816790664F4C601032C01C0880F38
:1010F0000A94EAF7F2019081892359DF3A94EDCFFF
:101100008E2D65DC015009F0AFCF809196038823C6
:1011100011F0A3DA02C086E32CDAF11087D311981C
:101120002396E2E10C94482AADE0B0E0EAE9F8E069
:101130000C942F2A7C01162F842F022F6701C60ED4
:10114000D11C462FB7015DD7D6018C931F5F1D863A
:1011500019825E2C670127E066246394712C8C2D24
:101160008519811788F547E0A42EB12C4701880E18
:10117000911CF3010A2C01C0EE0F0A94EAF7D40186
:101180008C91AE01435F5F4FBE016F5F7F4F8E2337
:10119000EBDE282FB1E0AB1AB10858F7D6018D91DC
:1011A0006D01082E82958025082E869586958025CE
:1011B0008F5F86958170AE01435F5F4FBE016F5FA9
:1011C0007F4FD2DE282FCBCF222311F0215004C035
:1011D0008D858F5F8D8727E089E180938F018093D4
:1011E000900185E280938D0180938E013AE0E32E99
:1011F0004D856CE0CE010196F8DE2D96EFE00C9463
:101200004B2AADE0B0E0E7E0F9E00C943B2A162F62
:10121000242F4BE0BE016F5F7F4F01962D87FFDCCF
:101220002D85412F682FCE0101967EDF2D96E3E0BC
:101230000C94572A43E066E0E4CFEF920F93CF93EC
:10124000DF93CDB7DEB760970FB6F894DEBF0FBE61
:10125000CDBF40E1BE016F5F7F4F0196E0DC698149
:101260004A810B818C81809390018D8180938F01C5
:101270008E8180938E018F8180938D01E02EE29488
:101280007FE0E7220F70242F2F7042954F70CE0120
:101290000896ABDE60960FB6F894DEBF0FBECDBFEA
:1012A000DF91CF910F91EF900895A9E1B0E0EBE5C8
:1012B000F9E00C94342A4BE0BE016F5F7F4F01963A
:1012C000AEDC182F893009F05AC099E190938F0154
:1012D0009093900190938E0182E380938D0169E059
:1012E000CE01019698D6E1E0F0E0EC0FFD1FE10F92
:1012F000F11D8083198E1D86CE0101967C016E0141
:101300009BE0C90ED11C27E0AA24A394B12CEC14B5
:10131000FD0429F100E010E0F501002E01C0EE0F00
:101320000A94EAF7D7018C91AE01475E5F4FBE0188
:10133000635F7F4F8E2318DE282F0F5F1F4F08300B
:10134000110551F7AE01475E5F4FBE01635F7F4FEE
:1013500081E00ADE282FBFEFEB1AFB0AD8CF222349
:1013600011F0215004C0898D8F5F898F27E0EAE05A
:10137000EE2E03E0498D6CE0CE010D9636DE6996C7
:10138000EAE00C94502AA9E1B0E0E9ECF9E00C9411
:10139000332A4BE09E012F5F3F4F7901B90101963F
:1013A0003EDC182F85E38093900196E190938F01A6
:1013B00090938E0180938D01612FC70138D6F7017C
:1013C000E10FF11D808399249394910E198E1D864F
:1013D000870127E0AA24A394B12C802F8E198915A8
:1013E00008F04AC0C12CD12CF5010C2C01C0EE0F25
:1013F0000A94EAF7D8018C91AE01475E5F4FBE01B7
:10140000635F7F4F8E23B0DD282FBFEFCB1ADB0A3F
:1014100034E0C316D10441F7AE01475E5F4FBE0111
:10142000635F7F4F81E0A0DD282FB4E0CB2ED12C6D
:10143000F5010C2C01C0EE0F0A94EAF7D8018C914B
:10144000AE01475E5F4FBE01635F7F4F8E238CDD31
:10145000282FBFEFCB1ADB0A38E0C316D10441F7BF
:10146000AE01475E5F4FBE01635F7F4F81E07CDD71
:10147000282F0F5F1F4FB1CFAAE0EA2E03E0498D5E
:101480006AE0CE010D96B1DD6996EBE00C944F2A2F
:10149000CF93DF93E898249A2C9A8EE190E092DA29
:1014A0002C988EE190E08EDA2C9A8DE290E08ADA28
:1014B00080E35FD884E690E085DAC9ECD1E0FE01F4
:1014C00031966491FE01849142D82296F1E0CB3F9F
:1014D000DF07A9F780919201811105C083E349D804
:1014E00084E075DA0EC0C3EBD1E0FE013196649161
:1014F000FE0184912CD82296F1E0C93CDF07A9F7C0
:10150000EDCF84E336D885E31BD88D30D1F7DF915A
:10151000CF910895A2E3B0E0E0E9FAE00C943A2A12
:1015200080919101882309F495C04A9B7FC08FE385
:1015300007D88F778983823348F08AE31AD886E305
:1015400018D88DE316D884E314D884C02C988FEF74
:101550000E94460210E08981181760F480E00E9422
:101560004602E2E0F0E0EC0FFD1FE10FF11D808389
:101570001F5FF1CF80E00E944602082F80E00E94AA
:1015800046022C9A84E30E94B90285E30E94A002DD
:101590008D30C1F72A8196E792279A8392E089815C
:1015A000E92FF0E0981768F441E050E04C0F5D1F20
:1015B000E40FF51F30812452232720839F5F232FC0
:1015C000EECF81E090E08C0F9D1FE80FF91F908116
:1015D0008B81982790838091960384FF10C081E6C9
:1015E0005BDA10E08981811708F1E1E0F0E0EC0FAF
:1015F000FD1FE10FF11D80814FDA1F5FF3CF81E402
:101600004BDA10E08981811750F0E1E0F0E0EC0F57
:10161000FD1FE10FF11D8081FEDA1F5FF3CF809186
:10162000960385FF02C0802FF6DA81DA85E30E94F7
:10163000A002813029F0813161F48AE30E94B9026D
:1016400086E30E94B9028DE30E94B90284E30E94FE
:10165000B902BCD8E296E4E00C94562A8F929F928D
:10166000AF92BF92DF92EF92FF920F931F93CF93AF
:10167000DF93CDB7DEB7EA970FB6F894DEBF0FBEA3
:10168000CDBF41E38E010F5F1F4FB8010196C7DA4E
:101690007C0199270197298130E08217930709F08F
:1016A0009BC080919101811103C0F2DE83E08FD94C
:1016B000DB808A8196E789278A8322E03981822F1D
:1016C00090E0F801E80FF91F231750F4DE01A80F8E
:1016D000B91F8C9184529081892780832F5FEECF30
:1016E00080818D258083CE01C796D2D885E30E9464
:1016F000B90285E30E94A002833171F1CE01C39645
:10170000C7D84BA95CA96DA97EA98FA998ADA9AD31
:10171000BAAD84179507A607B70760F44A015B01C5
:10172000881A990AAA0ABB0A2DEB82169104A10411
:10173000B10470F4481759076A077B0768F48454AA
:101740009F4FAF4FBF4F84179507A607B70720F4E9
:1017500089EA91E0DFD924C085E30E94A0028331A9
:1017600029F6D4FE06C088E732D988E730D988E761
:1017700001C08AE02CD92C988FE70E9446025801BC
:101780008A2D801B8E1530F4F50181915F010E9436
:101790004602F6CF2C9A85E30E94A0028331D9F34A
:1017A00085E30E94A002863149F48BE30E94B902CE
:1017B00086E30E94B9028DE30E94B90280919101F3
:1017C000882349F084E30E94B90285E30E94A002C5
:1017D0008D30C1F701C0EDD3EA960FB6F894DEBFA5
:1017E0000FBECDBFDF91CF911F910F91FF90EF9072
:1017F000DF90BF90AF909F908F900895FC01218162
:10180000223731F0223559F481E08093920102C0F1
:10181000109292013DDE81E080939101089523377B
:1018200011F401961BCF109291010895CF93DF938D
:10183000E898249A2C9A8EE190E0C4D82C988EE1F6
:1018400090E0C0D82C9A8DE290E0BCD880E30E9452
:10185000B90284E690E0B6D8C4E1D2E0FE018491FA
:10186000813438F083E30E94B90284E0B0D8CFEF2E
:101870000DC0FE0131966491FE0184910E94A70281
:101880002296F2E0C035DF0749F7ECCF84E30E94EF
:10189000B9028AE090E096D8C150C1F781E0809308
:1018A0009301DF91CF910895EF92FF920F931F93D1
:1018B000CF93DF93EC018B01F880F39461157105F0
:1018C00019F0E4E6F0E002C0E0E0F0E028E0F29E8B
:1018D000C00111246AE070E00E94192A9B012E0FBA
:1018E0003F1FC901AA2797FDA095BA2FE091930346
:1018F000F0919403AF0160E070E0481759076A0760
:101900007B0720F484E092E005D9C5C0E21BF30B0D
:10191000F0939403E093930380919301811101C0AC
:1019200085DF85E30E94A0028D3051F08AE5B4D8AE
:1019300085E4B2D882E5B0D882E5AED881E347C06D
:101940008091940190919501A0919601B091970199
:10195000892B8A2B8B2B29F50E941B0385E30E9480
:10196000A002833109F43BC08AE596D885E494D877
:1019700082E592D882E590D882E329C080918F03D6
:1019800090919003A0919103B09192034F5F5F4FAC
:101990006F4F7F4F84179507A607B707E9F681E0D9
:1019A00016D880918F0390919003A0919103B091EC
:1019B000920340919401509195016091960170912C
:1019C000970184179507A607B707C1F6E8CF64D833
:1019D00085E30E94A0021FD9AAD828DF5CC0012B92
:1019E00041F42C988FE70E944602EC2E0C2F1D2FFD
:1019F0000BC00AE010E084E60E94E70401501109E0
:101A000001151105C1F7EDCF802F8E198F1530F418
:101A1000F80181918F010E944602F6CF2C9AC8EC02
:101A200085E30E94A0028D30B1F485E30E94A002FC
:101A30008D30E1F08AE530D885E42ED882E52CD8C7
:101A400082E52AD883E328D885E30E94A002E3D860
:101A50006ED8ECDE0BC085E30E94A002833129F72B
:101A600081E00E94E704C150D9F6DFCF8091930155
:101A7000811101C09ED280918F0390919003A0911B
:101A80009103B09192038093940190939501A09358
:101A90009601B0939701CDB7DEB7E6E00C94542AD7
:101AA000ACE0B0E0E6E5FDE00C943B2AFC018BE005
:101AB000898381818A831B8282E08C8387818D83E5
:101AC00080858E8381858F838481888785818987BE
:101AD00086818A871B861C8684E10E94E70460E079
:101AE00070E0CE010196E0DE8AE50E944C0510E030
:101AF000812F90E0298130E02817390754F0E1E088
:101B0000F0E0EC0FFD1FE80FF91F808184D81F5F04
:101B1000EFCF8091960385FF02C080E07CD807D884
:101B20002C96E3E00C94572ACF93DF93EC0180913D
:101B30009B01811108C090919C01911104C090916A
:101B40009D019923A9F09B81903319F09F7E9034D9
:101B500079F49F8198130CC0988580919C0198130B
:101B600007C0998580919D01981302C0CE0198DF2E
:101B700080919801811108C090919901911104C040
:101B800090919A019923A9F098819B3091F49B81BF
:101B9000903479F49F8198130CC0988580919901B5
:101BA000981307C0998580919A01981302C0CE01BD
:101BB00077DFDF91CF910895AEE1B0E0E2EEFDE096
:101BC0000C943A2A80919301882309F469C04A9BB6
:101BD00059C08FE30E94A0028F778E3108F08DE10B
:101BE00089832C988FEF0E94460210E08981181794
:101BF00060F480E00E944602E2E0F0E0EC0FFD1F9E
:101C0000E10FF11D80831F5FF1CF80E00E9446024B
:101C1000082F80E00E9446022C9ACE01019684DFB4
:101C20008091960384FF12C08AE70E944C0510E061
:101C300089818117A8F1E1E0F0E0EC0FFD1FE10FD1
:101C4000F11D80810E944C051F5FF2CF8AE50E9442
:101C50004C0510E08981811758F0E1E0F0E0EC0FCD
:101C6000FD1FE10FF11D80810E940B061F5FF2CF67
:101C70008091960385FF03C0802F0E940B060E946F
:101C800097050EC085E30E94A002813149F48AE3E2
:101C90000E94B90286E30E94B90284E30E94B9025D
:101CA0006E96E4E00C94562AAEE1B0E0EAE5FEE080
:101CB0000C943A2A8C01FC018181823711F4B6DD43
:101CC00036C0833711F0863601F54DE1BE016F5FF6
:101CD0007F4FC80102960E940F069927019729811C
:101CE00030E08217930729F08BEF91E00E948A057C
:101CF0001EC061E070E0F8018181833711F060E07F
:101D000070E0CE010196D0DD12C0813621F443E0AF
:101D10006BE971E005C0873741F443E068E971E0A1
:101D2000C80102960E940F0602C0109293016E969F
:101D3000E4E00C94562A8F929F92AF92BF92DF926A
:101D4000EF92FF920F931F93CF93DF931092B901FD
:101D50001092CE01FC012181220F220F220F33812C
:101D6000231B57E0520F1092BA0110E070E038E0E8
:101D7000D32ED20EFF24F39447E007E0E12CC7E016
:101D8000D0E0A1E0B0E0FD1409F47FC0FC01EE0D4D
:101D9000F11D248130E0002E02C0359527950A946C
:101DA000E2F721703327E22F002311F0015002C027
:101DB000E39407E06B3471F4433009F04AC0111129
:101DC00007C0E1115FC01092B9017093CE0174C0D9
:101DD00010E041C04F3F31F56634A9F4E72FF0E041
:101DE000E654FE4FE0810E2EE295E0250E2EE6959C
:101DF000E695E025EF5FE1FB882480F8912C8216C0
:101E0000930641F004C0653429F4E11103C0109336
:101E1000B901DBCF7F5FE72FF0E0E654FE4F108281
:101E200047E031C0EE2361F1663471F4E72FF0E052
:101E3000E654FE4FA0809D01042E01C0220F0A949B
:101E4000EAF7A22AA0821CC0653439F06B34C1F4D1
:101E500004C04F3FD1F2EE2399F0E72FF0E0E654B3
:101E6000FE4F9E01241B310947FD33955D0102C0E1
:101E7000AA0CBB1C2A95E2F795013081322B3083E6
:101E8000415001C011E0F3947ECF1093B9017093DB
:101E9000CE015F1588F4653431F44F3F21F47F5F44
:101EA0007093CE0104C08091B9018111F8CF81E017
:101EB0009091CE01911101C080E0DF91CF911F91EF
:101EC0000F91FF90EF90DF90BF90AF909F908F9019
:101ED000089510926F00E091D1018CE1E89FF0012C
:101EE0001124EE52FE4F1082809195038D7F8093D6
:101EF00095030895FC012181243108F0EACF338154
:101F0000662381F081E090E0032E01C0880F0A94DF
:101F1000EAF7DF01A20FB11D14969C911497982B3C
:101F200014969C93332319F031503383089587E03E
:101F300083832F5F2183E20FF11D14820895DC015A
:101F40001196EC911197F0E050E02C91CF01841B99
:101F5000950B0B964797A0F430E070E0C901861B03
:101F6000970B0B96479760F42E0F3F1F640F751F5A
:101F7000261B370B255F3F4F81E02731310508F0E5
:101F800080E00895219A29985298E9E6F0E080814E
:101F90008160808382EC91E090939403809393031B
:101FA0001092EE0110920A021092260210928D03F6
:101FB00008958091870381110AC080919603882338
:101FC00021F00E949F030C942D030C949603089516
:101FD000FC01218121110EC0809196030E940B0605
:101FE00040E265E080919303909194030E949B05E9
:101FF0000C94970541E066E973E001960E940F0694
:10200000D8CF442339F04150FB01E40FF11D9081FA
:10201000890FF7CF089520E0662339F06150FC0165
:10202000E60FF11D30812327F7CF822F0895A0916D
:10203000B90140E035E020E0662399F06150FC01F1
:10204000E60FF11D5081752F72957F702727370F8E
:10205000AA2311F0442319F05F702527350F4F5F35
:10206000EBCF320F40E1349FC0011124822B089541
:10207000FC0132812381A081B181A30FB11D8C911C
:1020800090E0022E02C0959587950A94E2F7817040
:1020900099274FEF420F4383211104C03F5F3283E2
:1020A00027E023830895A2E0B0E0E9E5F0E10C9495
:1020B000342A7C01A12CB12CD12CCC24C394062F22
:1020C00010E001501109A616F0F4C7014A83698394
:1020D000CFDF4A816981882391F0442349F0980138
:1020E0002A193B098C2D01C0880F2A95EAF706C0F2
:1020F0008C2D0A2C01C0880F0A94EAF7D82A8FEF9A
:10210000A81AB80AE0CF8D2D2296EAE00C94502A46
:10211000A4E0B0E0EEE8F0E10C94332A1B8227E063
:102120002C839C012C5F3F4F3A8329831092CE0170
:10213000FC012181338187E090E0831B9109F8E065
:102140002F9F800D911D1124853491050CF44EC0F4
:10215000B12CA090CE01F5E0FA1558F10A2D10E04F
:1021600040E068E0CE0101969EDF06541E4FF80164
:102170008083982E092C92949024092C96949694FE
:102180009024CE01019674DF939491FACC24C0F888
:10219000D12C90E0C816D90649F5CE01019668DF2A
:1021A000811124C0F8018081B826A394A092CE01A9
:1021B000D0CF40E068E0CE01019675DF082F182FE0
:1021C000012E12951025012E169516951025CE017B
:1021D00001964EDF1F5F11FBEE24E0F8F12C282F53
:1021E00030E0E216F30611F481E0B01280E02496AC
:1021F000EBE00C944F2AA5E0B0E0E1E0F1E10C94B3
:10220000372AFC011B8287E08C83CF0104969A83D6
:1022100089838081853009F051C02181338187E035
:1022200090E0831B910938E0239F800D911D1124BC
:102230008039910509F042C01092CE010FE010EFF5
:1022400029E88091CE01E82EF12CDD24D394D80E1C
:1022500041E068E08F3088F4CE0101962D8323DFC2
:10226000080F111DF701E654FE4F2D81282720830A
:1022700024E2280FD092CE01E4CFCE01019613DFE5
:10228000080F111DD092CE01F701E654FE4F809544
:10229000808341E068E0CE01019605DF90E0982F51
:1022A0008827081B190B41E068E0CE010196FBDE90
:1022B000282F30E081E00217130709F080E025960F
:1022C000E7E00C94532ACF93DF93FC0181818330A4
:1022D000E9F483818730D1F480818830B9F4109299
:1022E000CE0120E0822F90E0DC01A654BE4FEF012A
:1022F000C80FD91F8C818C9381E0820F833010F43A
:10230000282FF0CF8093CE0181E001C080E0DF91E3
:10231000CF910895FC01908180919503993611F039
:10232000933751F4982F9370913011F4826006C066
:1023300080FF07C08B7F03C080FD03C08460809353
:1023400095030895A1E0B0E0E8EAF1E10C94382AA1
:10235000198280919E018823B9F18091960387FFAD
:1023600017C084E30E94A0028058803458F0803C5B
:1023700058F490E08055910953E0959587955A95CA
:10238000E1F703C080E001C08FE08F590E944C0547
:102390008091960383FF16C082E70E944C058091CE
:1023A000960384FF04C080919F010E944C0586E63D
:1023B0000E944C058091960384FF04C080919E0189
:1023C0000E944C0510929E018091CF01882309F450
:1023D00009C2119A0091D0012CE1029F80011124C1
:1023E0000E521E4F8981811106C0C8016CDF8823FF
:1023F00011F083E789838981811106C0C801FBDE62
:10240000882311F083E589838981811139C066E4CD
:10241000C80191DC8823A1F1F090CE01FA94F092EA
:10242000CE014F2D6AEB71E086E0EBDDEF2DF0E0A1
:10243000E654FE4FE0808E1105C093E09F1510F426
:1024400086E41BC0282F30E02F5F3F4F6E2D70E0D9
:102450002617370739F423E02F1520F496E49983E3
:1024600080830EC04F2D6AEB71E08CE0CADD8E11C7
:1024700006C083E08F1518F484E5898301C01982B2
:102480008981811116C065E4C80155DC882389F073
:102490008091CE0181508093CE01893051F469E062
:1024A0008AEB91E0B8DD9091C301891302C085E405
:1024B00089838981811106C0C8012ADE882311F031
:1024C00088E489838981811133C0F801438D60914B
:1024D0009F01C8014A9633DD682FC8010BDD6BE40C
:1024E000C80129DC8823B1F0F090CE01FA94F09273
:1024F000CE016F2D8AEB91E09ADDEF2DF0E0909107
:10250000B901E91BF109E654FE4F9081891302C01D
:102510008BE48983898181110BC0F801838191E06B
:10252000980F9383873021F41382818181508183B6
:102530003981332309F4CAC02091960320FFC6C015
:10254000809195038E7F8B7F8093950321FD64C0DE
:102550005091B801F090CE015F113DC040E04517A9
:10256000C0F4842F90E061E0640FFC01EC55FE4F55
:10257000DC01A654BE4F70818C91781741F04093D6
:10258000B801809195038D7F8093950304C0462FF9
:10259000E6CF4093B80145131EC040918F03509180
:1025A000900360919103709192038091A0019091AA
:1025B000A101A091A201B091A301481B590B6A0B84
:1025C0007B0B463251056105710528F48091950316
:1025D00081608093950340E04F1560F4842F90E074
:1025E000FC01EC55FE4FDC01A654BE4F8C9180835C
:1025F0004F5FF2CF4093B80180918F039091900389
:10260000A0919103B09192038093A0019093A101B6
:10261000A093A201B093A3013435E9F426FD1BC0B9
:102620008091CE018530B8F08091BC018B3471F07F
:10263000893661F09DEA980F923040F08D578230D4
:1026400028F08091BD018077803729F4809195032F
:10265000816080939503B801CE0101965BDE809185
:10266000950382FF33C089810E944C058091B90196
:10267000882329F08091CE0181508093CE01F12CE6
:10268000E091CE01FE1648F4EF2DF0E0E654FE4F47
:1026900080810E940B06F394F3CF8091B9018823C7
:1026A00051F0F0E0E654FE4F80818F7040E361E02E
:1026B00090E00E94D1058091960385FF05C084E3D8
:1026C0000E94A0020E940B060E949705809196032B
:1026D00082FF6FC080E70E944C05F801808140E2D4
:1026E00062E090E00E949B05F801808D40E265E089
:1026F000F0E18F9FC00111240E949B05F801818D9C
:1027000040E265E0F0E18F9FC00111240E949B052B
:10271000F801828D40E265E0F0E18F9FC001112455
:102720000E949B05F801838D40E265E0F0E18F9FF8
:10273000C00111240E949B05F801828140E263E000
:1027400090E00E949B05F801818140E263E090E007
:102750000E949B05F801238140E262E087E090E05F
:10276000821B91090E949B0580E20E944C0580918A
:10277000960385FF08C084E30E94A0020E940B0616
:1027800080E20E944C05F8018381873019F0818135
:102790008F5F8183F12CF8018181F81640F4F801F4
:1027A000EF0DF11D84810E940B06F394F4CF0E947B
:1027B0009705F80110828091CF0181508093CF015D
:1027C0008091D0018F5F843019F08093D00102C0D6
:1027D0001092D00111988981843521F48AEB91E01F
:1027E0000E94F9202196E6E00C94542A1F920F9241
:1027F0000FB60F9211240BB60F922F933F934F9366
:102800005F936F937F938F939F93AF93BF93EF9358
:10281000FF9310926F008091960383FF03C08EE2B6
:102820000E944C058091D1019CE1899FF001112407
:10283000EE52FE4F9081933018F09181923010F457
:1028400048DB18C09091CF01933049F480919603F2
:1028500082FFF6CF80E592E00E948A05F1CF9F5F6C
:102860009093CF018F5F843019F08093D10102C023
:102870001092D101FF91EF91BF91AF919F918F91F4
:102880007F916F915F914F913F912F910F900BBE70
:102890000F900FBE0F901F9018959BED980F9731DA
:1028A00050F496EF960F9D3130F491E0681708F0E0
:1028B00090E0892F089580E008951F920F920FB63F
:1028C0000F9211240BB60F92FF920F931F932F9329
:1028D0003F934F935F936F937F938F939F93AF93A8
:1028E000BF93CF93DF93EF93FF9380916F0488237F
:1028F00021F082E080936F0463C1809123048230D1
:1029000021F483E0809323045BC100918400109143
:10291000850064E0169507956A95E1F7C091D101AD
:102920009CE1C99FE0011124CE52DE4F9881943082
:1029300031F40E3208F444C10F3448F0B6C095307B
:1029400031F4073108F43CC1083208F0AEC04A99AE
:102950000DC09450923038F461E0CE01CBDA109281
:1029600085001092840000939F012AC180919F01ED
:10297000081B00939E01109285001092840098819C
:10298000983071F42A8121110BC021E02A83888FAD
:102990008A8F098F0B3B10F4000F01C006950B8F37
:1029A0009450923020F460E0CE01A4DA09C182E0B4
:1029B00086BBF880F11011C090919F01953608F008
:1029C000FFC080919E01853608F0FAC0988F898FEC
:1029D00081E08A8382E08883F3C010919E0182E0C7
:1029E000F81273C000919F01412F602FCE014896CD
:1029F000A6DA6A818823F9F0488D50E09A01220F07
:102A0000331F240F351F200F311D35952795359520
:102A10002795288F298D30E0C901880F991F820FD3
:102A2000931F810F911D9595879595958795898F12
:102A30006F5F6A83C5C0643008F445C020EA3FE098
:102A400030938900209388008A818C3050F0888DE3
:102A5000298D30E0280F311D2536310524F084E022
:102A600027C08A3088F0888D298D30E0280F311DED
:102A7000253231054CF485E0888328EE33E030932D
:102A800089002093880015C080919C03882379F0E9
:102A9000612F802F02DF882351F0688D898DFDDE44
:102AA000882329F081E08093230413DA89C083E02E
:102AB00088830A8F1B8F198287E08B831C8282E0B8
:102AC00080936F007DC0188277CF98E0F91225C0FF
:102AD00081E9810F8D3178F460E0CE010BDA288D29
:102AE00030E0C901880F991F820F931F20919F0129
:102AF000820F911D4EC0173E08F462C061E0CE0106
:102B0000F9D92A8D30E0C901880F991F820F931FD0
:102B100020919F01820F911D15C000919F01412FAF
:102B2000602FCE014A960BDA882301F161E0CE01D5
:102B3000E1D92A8D30E0C901880F991F820F931FB8
:102B4000800F911D95958795959587958A8F2B8DEB
:102B500030E0C901880F991F820F931F810F911DCB
:102B600095958795959587958B8F2AC0412F602FD6
:102B7000CE014896E4D9882301F160E0CE01BAD9AC
:102B8000288D30E0C901880F991F820F931F800F95
:102B9000911D9595879595958795888F298D30E01E
:102BA000C901880F991F820F931F810F911D959561
:102BB000879595958795898F03C087E0F81275CF23
:102BC000FF91EF91DF91CF91BF91AF919F918F9145
:102BD0007F916F915F914F913F912F911F910F9135
:102BE000FF900F900BBE0F900FBE0F901F90189587
:102BF000E091D1018CE1E89FF0011124EE52FE4FEB
:102C00008081811107C081E090915E049F3F19F49B
:102C100080E0089581E0089580E690E00E946F06CC
:102C200080939C0381E690E00E946F0680932D04C0
:102C3000882321F081E280939603BBC90895299AE5
:102C40000C94E20429980C94E204A7E0B0E0EBE2D3
:102C5000F6E10C94372A9091A503943559F420910C
:102C60002604309127042F5F3F4F30932704209391
:102C700026043EC0963459F4209124043091250452
:102C80002F5F3F4F309325042093240431C09534A7
:102C900059F42091990330919A032F5F3F4F30935D
:102CA0009A032093990324C09B3459F4209129045A
:102CB00030912A042F5F3F4F30932A042093290438
:102CC00017C0983459F420912B0430912C042F5FB5
:102CD0003F4F30932C0420932B040AC0209197037C
:102CE000309198032F5F3F4F3093980320939703C1
:102CF00095E79983882399F0BE016E5F7F4F80919D
:102D00002D040E945706BE016C5F7F4F80919C038B
:102D10000E94570685E58E8386E0D82E02C0DD240A
:102D2000D3940E949F030E941B0316E080E891E069
:102D300086DF80E093E086DF1150C1F780E093E00A
:102D40007EDF80E891E07EDF80E891E078DF2998FF
:102D500087E390E00E94BD0283E00E94E7042C9884
:102D60008FE70E94460280919F038D0D0E944602CC
:102D7000CE0101967C018C01F80181918F010E94A6
:102D80004602802F8E198D15B8F380919F038823FA
:102D900039F08DE993E00E949E070E944602F5CF2C
:102DA0002C9A0E941B038DE993E00E94830715E192
:102DB0008AE30E94A0028F7731F0115021F081E068
:102DC0000E94E704F5CFF5D82796E7E00C94532A44
:102DD000CF93DF93EC018981811107C080919C031F
:102DE0000E940B0680912D0413C08436A1F48091BB
:102DF0008F0390919003A0919103B091920340E3CF
:102E000064E00E94D1058EE20E944C05809122046C
:102E10000E940B064DC0833709F04DC040E361E0CE
:102E200080912604909127040E94D1058EE20E9491
:102E30004C0540E361E080912404909125040E94B8
:102E4000D1058EE20E944C0540E361E08091990338
:102E500090919A030E94D1058EE20E944C0540E3B6
:102E600061E08091290490912A040E94D1058EE2AC
:102E70000E944C0540E361E080912B0490912C046A
:102E80000E94D1058EE20E944C0540E361E08091F2
:102E90009703909198030E94D1058EE20E944C0501
:102EA00040E361E080912004909121040E94D105CB
:102EB0000E9497052CC08936D9F441E06CE973E093
:102EC000CE0102960E940F0660919C0380E690E07E
:102ED0000E946A0641E06DE274E0CE0104960E9411
:102EE0000F0660912D0481E690E00E946A060FC0F3
:102EF0008DE993E00E94830721966991662329F06A
:102F00008DE993E00E948807F8CF80E09EDEDF9194
:102F1000CF910895A1E0B0E0E0E9F7E10C94362A02
:102F200080912304882309F485C0C0908F03D0903A
:102F30009003E0909103F0909203833009F060C019
:102F40008FE30E94A002182F8630C8F083EF94E030
:102F50000E9483072C988FEF0E94460280E00E9417
:102F60004602082F115049F080E00E944602682F67
:102F700083EF94E00E948807F5CF2C9A01C000E00F
:102F800018D810922304053709F054C041E0BE015F
:102F90006F5F7F4F86EF94E00E940F06019759F50F
:102FA000998180919C03981326C08091FA048535FD
:102FB00071F48091F504882339F083EF94E00E9446
:102FC0009E070E944C05F5CF0E94970533C0809163
:102FD000F50484508093F50484E08093F4046AE05F
:102FE00083EF94E00E948807E0918B03F0918C03BB
:102FF00088E009951FC083EF94E00E9483071AC000
:10300000823059F480919B039C2D981B983090F04E
:103010000E94D90F109223040DC0813059F487E328
:1030200090E00E94BD020E942D0382E08093230461
:10303000C0929B032196E8E00C94522AD9DD8823A4
:1030400061F083E080932804809120049091210412
:10305000019690932104809320048091280481504C
:1030600080932804882321F083E08093220408952C
:1030700081E0EBCDCF93DF93E898249A2C9A8EE1F0
:1030800090E00E94E2042C988EE190E00E94E2041D
:103090002C9A8DE290E00E94E20480E30E94B90243
:1030A00084E690E00E94E2042C9880E40E944602AC
:1030B000C7E5D2E0FE0184910E9446022196F2E02B
:1030C000C436DF07B9F7809101010E944602809162
:1030D00002010E944602809103010E944602C0E064
:1030E000D0E0FE01E959FD4F84910E9446022196ED
:1030F000C931D105B1F72C9A2C988EE70E9446026F
:103100008BE290E0EC0121960E946F060E9446023D
:10311000C333D10511F0CE01F5CF2C9A83E30E9481
:10312000B90281E00E94E70481E080938D03DF9182
:10313000CF9108956F927F928F929F92AF92CF928C
:10314000EF92FF920F931F93CF93DF93EC0189814E
:10315000843769F468E071E0CE0102960E943C0673
:1031600040E260E0809108019091090112C083372C
:1031700009F092C18A81823789F464E071E0CE015E
:1031800003960E943C0640E260E080910401909129
:1031900005010E949B050E949705F3C1119A809139
:1031A0004402811116C080919101882329F081E0A9
:1031B000809343021092910180919301882329F01A
:1031C00081E0809342021092930154DF83E00E94D9
:1031D000E70486E30E94B9028AE30E94B9028BE306
:1031E0000E94B9020E941B03FE0101900020E9F732
:1031F0000E2F0C1B0250C12CFAE09F2E7E0132E0F4
:10320000E30EF11CA5E0AA2EB8E28B2E80910401FA
:10321000909105012C2D332727FD3095281739076C
:1032200008F0FBC00132A1F4299A80910801909125
:1032300009010E94E20429988091060190910701FA
:10324000FC019E9EC0019F9E900D11240E94E204ED
:10325000370111E010170CF0B7C0F30181913F0165
:10326000299A803309F046C0013201F580910601A8
:10327000909107010E94E2042998809106019091A3
:1032800007010E94E204299A8091060190910701AA
:103290000E94E204299880910601909107019C0107
:1032A000A29EC001A39E900D11248AC080910801A6
:1032B000909109010E94E20429988091080190915F
:1032C00009019C01220F331F820F931F0E94E20409
:1032D000299A80910801909109010E94E20429989D
:1032E00080910801909109019C01220F331F820FE8
:1032F000931F66C0813329F5013291F48091060154
:10330000909107010E94E204299880910601909112
:103310000701FC01AE9EC001AF9E900D11241EC09E
:1033200080910801909109019C01220F331F820FA7
:10333000931F0E94E204299880910801909109014D
:103340002CC00132D1F480910601909107010E94B6
:10335000E204299880910601909107010E94E204FD
:10336000299A80910601909107010E94E204299810
:10337000809106019091070123C0809108019091EE
:1033800009010E94E20429988091080190910901A5
:103390009C01220F331F820F931F0E94E204299A7F
:1033A00080910801909109019C01220F331F820F27
:1033B000931F0E94E20429988091080190910901CD
:1033C0000E94E2041F5F46CF299A0132A1F4809146
:1033D0000601909107010E94E2042998809106015C
:1033E000909107019C01829EC001839E900D112443
:1033F0000E94E20410C080910801909109010E948E
:10340000E20429981FE180910801909109010E942E
:10341000E2041150C1F7C394F9CE8091440288238D
:1034200041F08091960381110FC086E30E94B9029A
:1034300019C080914302882351F0109243020E94E8
:10344000480A81E0809391010E942D030BC0809176
:103450004202882329F0109242020E94160C02C0F8
:103460000E94D90F119889E60E944C0583E70E94BB
:103470004C0511E010170CF08ECEFE01E10FF11D8E
:1034800017FDFA958181803319F0813309F086E4C4
:103490000E944C051F5FEECF8237B9F480919101F5
:1034A000882329F081E0809343021092910180915A
:1034B0009301882329F081E08093420210929301C6
:1034C000D9DD81E0809344025CC0863651F58A8163
:1034D000803351F480E18093010180EB80930201FD
:1034E00081E78093030107C043E061E071E0CE0112
:1034F00002960E940F0689E60E944C0586E60E940D
:103500004C058AE30E944C05809101010E940B0644
:10351000809102010E940B06809103010E940B061C
:103520003ACE883731F580914302882341F01092DA
:1035300043020E94480A81E08093910111C080916A
:103540004202882329F0109242020E94160C0EC0FB
:1035500082E090E00E94BD0280919603882319F0DA
:103560000E942D0303C086E30E94B9021092440218
:1035700008C0833631F468E071E0CE0101960E9404
:103580003C06DF91CF911F910F91FF90EF90CF906C
:10359000AF909F908F907F906F900895A2E0B0E0E1
:1035A000E4EDFAE10C942F2A7C01FC018181833740
:1035B00009F09DC1198287E090E00E94632A8C0186
:1035C00041E0BE016F5F7F4FC70102960E940F0668
:1035D0008981F801808341E0BE016F5F7F4FC701A1
:1035E00004960E940F062981207FF801218341E083
:1035F000BE016F5F7F4FC70106962A830E940F06A8
:103600008981F801828341E0BE016F5F7F4FC7016E
:1036100008960E940F068981F801838341E0BE016C
:103620006F5F7F4FC7010A960E940F068981F801DC
:10363000868341E0BE016F5F7F4FC7010C960E94F9
:103640000F068981F801858341E0BE016F5F7F4FDE
:10365000C7010E960E940F068981F801848380E0DD
:1036600090E02A814191342F32953F70342783278F
:103670009F5F9730B9F78F70822BF801818387E0C5
:1036800090E00E94632A5C0187E0F801D501019077
:103690000D928A95E1F7D8011196C8010696F801B6
:1036A0003D91219123272083E817F907C9F7119A43
:1036B00080914702811160C080919101882329F097
:1036C00081E08093460210929101809193018823BA
:1036D00029F081E08093450210929301E898249AA2
:1036E0002C9A8EE190E00E94E2042C988EE190E00A
:1036F0000E94E2042C9A8DE290E00E94E20480E3B2
:103700000E94B90284E690E00E94E2042C9880E4D2
:103710000E94460260E8E62E62E0F62EF7018491F0
:103720000E944602FFEFEF1AFF0A29EAE21622E0A2
:10373000F206A1F72C9A2C988EE70E9446028BE2A3
:1037400090E07C01EFEFEE1AFE0A0E946F060E94E5
:103750004602F3E3EF16F10411F0C701F2CF2C9A01
:1037600083E30E94B90281E00E94E70481E0809334
:103770008D0383E00E94E70486E30E94B9028AE396
:103780000E94B9028BE30E94B9020E941B03299A8E
:1037900087EC94E20E94E204299889E50E94E704FC
:1037A00085E392E00E94E204712C80910E0190E08A
:1037B000272D332727FD3095281739070CF057C0E0
:1037C000711002C022E001C027E0F12C299A86EF97
:1037D00099E02A830E94E204299886EF99E00E94EA
:1037E000E204F3942A81F2168CF3299A8CEF92E189
:1037F0000E94E204299880910A0190910B010E9495
:10380000E2046801612CF60181906F0148E0542EBA
:1038100050E8E52EF12C912CC70188219921892BA4
:1038200049F4299A80910A0190910B010E94E204C7
:10383000299808C0299880910A0190910B010E9453
:10384000E204299A80910A0190910B010E94E204FE
:10385000F694E7945A9401F76394F7E06F12D3CF8C
:10386000299880E090E00E94E20473949ECF8091BA
:103870004702882341F08091960381110FC086E3AF
:103880000E94B90219C080914602882351F010921B
:1038900046020E94480A81E0809391010E942D0314
:1038A0000BC080914502882329F0109245020E94A6
:1038B000160C02C00E94D90F119889E50E944C0590
:1038C00083E70E944C057501D12CF70181917F019E
:1038D0000E940B06D394F7E0DF12F7CF0E94970502
:1038E000C5010E94FB2AC8010E94FB2A6FC08237D3
:1038F000A9F46EE071E0C70102960E943C0689E5DA
:103900000E944C0582E70E944C058AE30E944C0508
:1039100080910E0140E260E090E02CC0843779F5A0
:10392000F7018281803339F488ED94E090930D01A2
:1039300080930C0106C06CE071E0C70102960E9402
:103940003C0680910C0190910D019695879590937E
:103950000B0180930A0189E50E944C0584E70E94CF
:103960004C058AE30E944C0540E266E080910C0120
:1039700090910D010E949B050E94970527C08837F2
:1039800029F580914602882341F0109246020E9458
:10399000480A81E08093910111C0809145028823FB
:1039A00029F0109245020E94160C0EC082E090E0B1
:1039B0000E94BD0280919603882319F00E942D0376
:1039C00003C086E30E94B902109247022296EFE0FC
:1039D0000C944B2A109249041092030383E08093C5
:1039E0004D028FEF80935E040895EEE4F2E02081B3
:1039F000211105C0892BB1F080E090E00895B2E07C
:103A0000EC3FFB07B8F7009751F04181DC013C9196
:103A1000431305C0428111963C91431751F0E20FC8
:103A2000F11DE5CF32E0EC3FF30719F010F0ECEFB9
:103A3000F2E0CF01089594E0899FF0011124E15A4A
:103A4000FB4F80818F3F91F080934802818180936A
:103A50004902828180934A02838180934B0221E054
:103A60004CE064E088E492E00C94940808958DEFB3
:103A700092E0BBDF009799F020914D02FC0130816C
:103A8000231768F4E20FF11D80818093FF0289E71C
:103A90008093000381818093010381E0089580E099
:103AA0000895EF92FF921F93CF93DF931F92CDB7AC
:103AB000DEB7182F8091960386FF18C084E599839E
:103AC0000E944C05E12E9981F92E15E0F7018191B4
:103AD0007F010E940B061150C9F78091960385FF64
:103AE00003C08AEF0E940B060E9497050F90DF919A
:103AF000CF911F91FF90EF90089586E30E94B90245
:103B00008091FF02833511F48BE901C08BE40E94A0
:103B1000E70421E04CE065E08DEF92E00E9494081C
:103B20000E942D038DEF92E0BCCFE7DF8091FF0272
:103B3000893631F081E08093FC0289E280935E0453
:103B40000895CF9385E390E00E946F0680932F0441
:103B500086E390E00E946F0680935D04CFEFC093F0
:103B60004D04C0934F04C0935104C0935304C093B9
:103B70005504C0935704C0935904C0935B042ADFD3
:103B800010924E0281E080932E04C0935F048FEF69
:103B90009FEF90933204809331041092340410927A
:103BA00033041092360410923504C093630490934A
:103BB00038048093370410923A041092390410921A
:103BC0003C0410923B04C093670490933E0480939E
:103BD0003D041092400410923F041092420410924F
:103BE0004104C0936B049093440480934304109267
:103BF0004604109245041092480410924704CF9155
:103C00000895ACE0B0E0E7E0FEE10C94352A6C01E9
:103C10008C010F5F1F4F45E0BE016F5F7F4FC801F2
:103C20000E940F06843008F0F3C099819130A9F406
:103C3000833061F46A8185E390E00E946A066B81BB
:103C400086E390E00E946A067CDF06C280912F0422
:103C50000E940B0680915D049AC0923009F051C019
:103C6000813039F081E09A81913009F080E0F82EBE
:103C700002C0FF24F39480914E02811104C089EAAE
:103C800092E00E948A050EE412E0F8018081882308
:103C900009F4BBC0F2E00C3F1F0708F0B6C032E0E9
:103CA0000E34130719F080E20E944C05F80181815F
:103CB0000E940B06F80182810E940B06FF20E1F0B2
:103CC0008AE30E944C0593E0F80180819817A0F4E4
:103CD000943038F090FF05C08CE29C870E944C0520
:103CE0009C85EE24E394E90EF801E90FF11D808133
:103CF0000E940B069E2DE8CFF8018081080F111D50
:103D0000C4CF933049F480E090E06FDE8E5492404F
:103D10009EEA981B892F3BC0903171F50DE414E0A9
:103D20008EE4E82E84E0F82EC12CD12CF80180819D
:103D30008F3FA1F0DD2019F080E20E944C058C2D10
:103D40000E940B068AE30E944C05F80180810E94C4
:103D50000B06F70180810E940B06D3940E5F1F4F64
:103D6000C394F2E0EF0EF11C38E0C312DFCFD110A4
:103D70004CC087EB92E047C0913161F480914B04D5
:103D800090914C046DE770E00E94052A862F0E94F6
:103D90000B063BC09231C9F51FE5E12E14E0F12E70
:103DA00002E614E0C12CD12CF70180818F3FF1F0A5
:103DB000DD2019F080E20E944C058C2D0E940B063C
:103DC0008AE30E944C05F70180810E940B06F801EE
:103DD000329780810E940B06F801319780810E9402
:103DE0000B06F80180810E940B06D394F4E0EF0EDD
:103DF000F11CC3940C5F1F4F34E0C312D5CFD11018
:103E000004C083EB92E00E948A050E94970524C1BA
:103E100044E0BE01695F7F4FC8010E940F064F81D9
:103E2000493608F477C07A85588569857C3009F071
:103E30004BC020E030E080E090E0F901E15AFB4F18
:103E4000708174131CC0A181A51319C0A281A6138F
:103E500016C02CE023839C01220F331F280F391F2B
:103E6000F901EE0FFF1FEF5CFB4F11821082F90189
:103E7000EE0FFF1FED5CFB4F11821082CFC07F3F22
:103E8000D9F44083518362832CE023839C01220F69
:103E9000331F280F391FF901EE0FFF1FEF5CFB4F97
:103EA00011821082F901EE0FFF1FED5CFB4F1182B2
:103EB000108210922E04B2C001962C5F3F4F203129
:103EC000310509F0BACFC8C080E090E020E030E0D2
:103ED000FC01E15AFB4FA081A41315C0A181A513D9
:103EE00012C0A281A6130FC07383F901EE0FFF1F4A
:103EF000E20FF31FEE0FFF1FED5CFB4F81E090E040
:103F000091838083A9C02F5F3F4F04968031910534
:103F1000F9F6A2C0E98180912F04E817C0F190E082
:103F2000F0E09C01295F3F4F2E173F0784F13A8153
:103F300020915D0432132BC03C813F3231F442E0CA
:103F40006CE0C6010E94010987C02D813C32B1F4AA
:103F500020934A0481E090E090934C0480934B04BA
:103F60008091930390919403E4E02E9F800D911D26
:103F7000112490939403809393036EC0E81BF90B74
:103F8000EE0FF0E0E35BFB4F3083218365C080E000
:103F900090E02BDD7C01F80101900020E9F73197DA
:103FA000E01BF10BF695E795BB24B394BE0EC70159
:103FB0008B0D911D8E5492408F3A91050CF048C0A4
:103FC000F701B1928F0121E0822F880F81502B15CC
:103FD000D8F441E0B801F601E80FF11DCF012C87BC
:103FE0000E940F062C85233058F020FD09C0D8010F
:103FF00011978C91843621F4F801808180933004EC
:104000002F5F0F5F1F4FE0CFFCEFEF16F2E0FF06D0
:1040100018F5F701E20FF11D10821EC022E04CE0FE
:1040200064E0CE0107960E9494088FE08A8722E020
:104030004CE064E0CE0107960E94940882E08A87F3
:1040400022E04CE064E0CE0107960E94940804C090
:104050008DEA92E00E948A052C96E9E00C94512AA0
:104060000F931F93CF93DF9390912E0491114FC024
:1040700093E0899F80011124F801EE0FFF1FEF5C90
:10408000FB4F94E0899FD0011124A15ABB4F129697
:104090009C91977040E850E0491B51099AEF949F1A
:1040A0009001959F300D11243595279535952795CD
:1040B00031832083E801CC0FDD1FCB5CDB4F2881EF
:1040C00039812F5F3F4F39832883000F111F0D5C0B
:1040D0001B4FF801408151814115510529F42430CD
:1040E0003105A9F4A8DC11C04130510539F4A3DC35
:1040F00082E090E0F8019183808309C0423051054D
:1041000031F499DCF8011182108219821882DF9152
:10411000CF911F910F910895A6E0B0E0E2E9F0E29F
:104120000C94382A20915D042A831B8280914A04D2
:10413000882341F0833019F487E791E00FC08DE7C1
:1041400090E00CC0277030E02A513F4F4DE7429F6E
:10415000C001439F900D11249595879590934C0431
:1041600080934B040EE414E0F12C7CE2E72EF8017E
:10417000319790819F3FC1F080912F048F0D8983EB
:1041800080914A04882311F0EC8203C09C83F801DB
:1041900080818D8321E04CE065E0CE0101960E9494
:1041A0009408CE0101967DDCF3940E5F1F4FF8E07A
:1041B000FF12DDCF80914A04882341F0833019F447
:1041C00010924A0403C0825080934A042696E6E087
:1041D0000C94542A8091FC02882351F08EDC89E2F1
:1041E00080935E048091FC0281508093FC020895CC
:1041F000F1CBFF920F931F93CF93DF93FC01F080DD
:104200000181C281D38114818FE580935E04109275
:10421000FC0280912F04811105C080915D048823E8
:1042200009F4A9C08091FD028F1104C08091FE02A3
:10423000801729F0CFDBF092FD020093FE028091FF
:1042400049048F3F09F497C0C093FF02D093000345
:1042500010930103CC23F1F081111CC080912F0435
:10426000181761F0143651F08DEA8C0F823010F07F
:10427000CD3739F48FEF809349047DC0C43509F4FC
:104280007AC08D2F807F803609F075C0D067D093BB
:10429000000357C0ECDB811105C0809149048823DD
:1042A00009F469C080910303811107C0E0914904BA
:1042B000F0E0E554FD4FE49101C0E82FE33541F40F
:1042C000C43531F4909149049E5F9093490404C031
:1042D000EC1711F07FDB4FC0882369F080914D020D
:1042E0008E5F80934D02C3DB81110EC08091490423
:1042F0008E5F8093490480914904E82FF0E0E454F4
:10430000FD4F14911F3F59F48091FF0280930303E6
:104310008436B9F4809130048093010312C0109365
:10432000FF0297E79093000390912F04909301036D
:104330008E5F80934904109203038E3021F0112385
:10434000D1F0F3DB18C08DEF92E04FDBDC0100977A
:1043500081F02C9130E08CEF92E0821B930BA81738
:10436000B90730F4ED01C20FD31F48814D93F7CF49
:104370001C9230DBE4CFCDB7DEB7E5E00C94552AD4
:10438000FF920F931F93CF93DF938C01EC01099061
:104390000020E9F72197C81BD90BFC0181818237E6
:1043A00051F487E390E00E94BD020E942D0381E05A
:1043B00080936F0426C0833711F5FC2E2C988FE76D
:1043C0000E9446028C2F82500E944602E8012296EB
:1043D00012E01F1528F489910E9446021F5FF9CF51
:1043E0002C9A0E941B038AE30E94A0028F7721F07F
:1043F00081E00E94E704F7CF0E942D0302C01092D3
:104400006F04CDB7DEB7E5E00C94552AA0E8B0E024
:10441000ECE0F2E20C94362A80916F04882309F4D0
:1044200054C0813011F580918F0390919003A09139
:104430009103B091920320910403281709F445C019
:1044400085E30E94A002813129F48AE30E94B90227
:104450000E942D0380918F0390919003A09191036E
:10446000B09192038093040330C08FE30E94A002B6
:10447000D82E87FD27C02C988FEF0E9446028E0110
:104480000F5F1F4F7801C02E8E2D801B8D1538F4C5
:1044900080E00E944602F70181937F01F5CF2C9ABC
:1044A00081E080938B01802F8C198D1530F4F801F9
:1044B00081918F010E944C05F6CF0E9497058FEFE6
:1044C00080938B0181E080936F04C058DF4FE8E058
:1044D000E9C72091F3083091F4082115310521F442
:1044E000209111013091120180910F0190911001E2
:1044F000009741F48DB79EB740911301509114017C
:10450000841B950B2817390718F4821B930B089509
:1045100080E090E0089582E40E944C0540E265E06E
:104520008091F3089091F4080E949B050E949705E2
:1045300083E50E944C0540E265E080911101909175
:1045400012010E949B050E94970585E40E944C057C
:1045500040E265E080910F01909110010E949B055F
:104560000E94970586E40E944C05B3DF40E265E0B7
:104570000E949B050C9497051F920F920FB60F9205
:1045800011240BB60F922F933F934F935F936F932A
:104590007F938F939F93AF93BF93EF93FF938091FC
:1045A0007204882339F080E794E00E949E0780938C
:1045B000C60005C08091C1008F7D8093C100FF912E
:1045C000EF91BF91AF919F918F917F916F915F918B
:1045D0004F913F912F910F900BBE0F900FBE0F90F8
:1045E0001F9018951F920F920FB60F9211240BB6C1
:1045F0000F922F933F934F935F936F937F938F937C
:104600009F93AF93BF93EF93FF9382B192E089277B
:1046100082B96091C6008091C000887121F483EF57
:1046200094E00E948807FF91EF91BF91AF919F9115
:104630008F917F916F915F914F913F912F910F904B
:104640000BBE0F900FBE0F901F90189597FF04C0E0
:1046500022E02093C0009F779093C5008093C40010
:1046600088E98093C10086E08093C200089580911C
:10467000C10085FD09C080917204882329F08091D2
:10468000C10080628093C1000895E0918B03F09196
:104690008C0381E00995EBCF0F931F93CF93DF93AA
:1046A000EC0110E0212F30E0F901EE0FFF1FE20FC7
:1046B000F31FE457FF4F0491F901EE0FFF1FE20FC4
:1046C000F31FE357FF4F25913491002399F0209772
:1046D00039F480E20E944C05802F0E944C0508C0EE
:1046E0008881801305C0CE01F901099581E003C0DE
:1046F0001F5FD8CF80E0DF91CF911F910F91089578
:10470000CF93C0918B0180938B018091F504882316
:10471000A1F183EF94E00E949E07E09105038A30A7
:1047200011F08D30F9F4EE2381F3F0E0EA5FFC4FF5
:10473000108286E093E0B0DF811111C081EE92E03B
:104740000E948A0586E093E00E947F0589EC92E052
:104750000E948A0580E090E09FDF0E9497051092FA
:104760000503D3CFE7FDD1CF91E09E0F90930503D2
:10477000F0E0EA5FFC4F8083C8CFC0938B01CF91FC
:104780000895E4E6F0E080818B7F80832F9A84B1E6
:10479000806B84B9269880E58CBD8DB581608DBD18
:1047A00008958F929F92BF92CF92DF92EF92FF92E5
:1047B0000F931F93CF93DF931F92CDB7DEB7D82E01
:1047C000C62E7A0189012C988FEF99830E944602A8
:1047D000BD2C8D2C9981992E882D8B198C1538F430
:1047E00080E00E944602F40181934F01F5CFE1146D
:1047F000F10469F080E00E944602F7018083011510
:10480000110529F080E00E944602F80180832C9A6D
:104810000F90DF91CF911F910F91FF90EF90DF905C
:10482000CF90BF909F908F900895CF93882331F0C1
:104830001092810586E30E94B90207C085E30E94B9
:10484000A0028D30A9F780E039C085E30E94A00264
:10485000C82F8130D1F78BE30E94B9028AE30E940E
:10486000B902109276051092780510927705109291
:104870007A051092790525EA36E030937C0520937D
:104880007B0510927D05C0937E0510927F05809177
:1048900087038093800560E083E00E94A70262E0C6
:1048A00088E00E94A70284E30E94B90285E30E9487
:1048B000A0028D30D9F781E080938105CF910895D2
:1048C0000F931F93CF93DF93182F062F21985298A1
:1048D0001092870310928803E898249A2C9A8EE10C
:1048E00090E00E94E2042C988EE190E00E94E204A5
:1048F0002C9A8DE290E00E94E20480E30E94B902CB
:1049000084E690E00E94E204113031F0123009F0A8
:104910006DC0C9EFD2E022C0C6E4D3E0FE018491AD
:10492000813420F0013009F049C01DC0FE013196EC
:104930006491FE0184910E94A7022296F4E0CE3099
:10494000DF0761F7EFCF31966491FE0184910E94F9
:10495000A7022296F3E0C13CDF0721F3FE01849118
:10496000813488F3DFCF60E087E10E94A70267E02F
:1049700083E00E94A70264E584E0113029F40E94DC
:10498000A70266E785E010C00E94A7026DE385E0FC
:104990000E94A70260E585E10E94A7026BE580E125
:1049A0000E94A70268EF81E10E94A70262E082E014
:1049B0000E94A7026EE280E00E94A7021093870384
:1049C0000093880383E30E94B9028CE0E6E7F5E0F8
:1049D000DF011D928A95E9F786E0EDEEF8E0DF0150
:1049E0001D928A95E9F784E00E94E704DF91CF9158
:1049F0001F910F910895CF92DF92FF920F931F9313
:104A0000CF93DF931F92CDB7DEB7182F062F2C98C8
:104A10008FE799830E944602F12EC12E9981D92EEB
:104A20008C2D8F19801730F4F60181916F010E944F
:104A30004602F6CF2C9A81E00F90DF91CF911F9123
:104A40000F91FF90DF90CF9008958DE30C94B90201
:104A5000A4E0B0E0EDE2F5E20EC59091880392305B
:104A600009F009C180918703882309F404C180916A
:104A70008105813049F030F0823059F0833009F4FB
:104A800072C0A2C081E0F6C04A9B9EC0909381058F
:104A90009BC0199B99C020E030E040E050E063E00B
:104AA00080917B0590917C057CDE20918005809132
:104AB0007B0590917C05213071F4BE016F5F7F4FC3
:104AC00035D28111D3C089818093760510D3AC0192
:104AD00060E081E00EC040E0BE016F5F7F4FADD26D
:104AE0008111C4C089818093760501D3AC0160E057
:104AF00080E013D3909378058093770560917705D4
:104B000070917805693482E0780708F0AFC086E0DC
:104B10006F3F710509F050F40E94A70260E088E041
:104B20000E94A70281E080937D0502C00E94A70237
:104B300080917B0590917C05039690937C058093F2
:104B40007B058091770590917805039790937A057E
:104B50008093790510927E0583E08093810567E05C
:104B60000E94A70231C0199B2FC0809179059091B6
:104B70007A058F3F910509F058F480917D058111E8
:104B800007C060E088E00E94A70281E080937D0575
:104B900020E030E040E050E06FE180917B059091B3
:104BA0007C05FFDD8091790590917A054F97909370
:104BB0007A058093790580917B0590917C054F96CD
:104BC00090937C0580937B054A9953C08091810521
:104BD000823008F44EC01C821B829E012D5F3F4F25
:104BE000AE014C5F5F4F6091790580917B0590919C
:104BF0007C05D7DD81E080937F0580918005813041
:104C000051F48091760573D2AC0162E875E085EAD3
:104C100096E0EDD209C08091760569D2AC0162E8D8
:104C200075E085EA96E056D3892B01F582E60E946D
:104C30004C0510E0809182055AD2212F30E02817D0
:104C4000390740F4F901EE57FA4F80810E940B06B4
:104C50001F5FF0CF8091960385FF06C08B810E9475
:104C60000B068C810E940B060E949705109281050D
:104C700002C080E0DADD2496E3E019C4A0E0B0E0F1
:104C8000E3E4F6E2F3C37C018B01C42EFC018081D6
:104C90002ED2EC019C01215031092232314008F022
:104CA000C9C080918803823019F4D090870301C075
:104CB000D12C61E08C2D04DE81E0AE01B701C81279
:104CC00006C0C8013ED2AE0161E081E005C0C80166
:104CD0005ED2AE0161E080E020D29093EE08809336
:104CE000ED08B3DE807711F086E361C08BE30E94AC
:104CF000B9021093F0080093EF081092F208609147
:104D0000ED087091EE086F3F710509F058F486E0E8
:104D10000E94A70260E088E00E94A70281E08093E1
:104D2000F1080AC0772786E00E94A70262E088E0C7
:104D30000E94A7021092F108C091ED08D091EE08F0
:104D4000C134D10510F0C0E4D0E06C2F8091EF08A1
:104D50009091F00850DE8091EF089091F0088C0F50
:104D60009D1F9093F0088093EF082091ED083091FB
:104D7000EE082C1B3D0B3093EE082093ED08232BFF
:104D800019F481E08093F20885E30E94B90211E0F2
:104D900003C0203C3105C0F18091F20881113FC071
:104DA00019990AC052DE80778037B1F78BE30E94F1
:104DB000B90282E090E043C0C091ED08D091EE08C6
:104DC000C132D10510F0C0E2D0E06C2F8091EF0825
:104DD0009091F00810DE2091EF083091F0082C0F30
:104DE0003D1F3093F0082093EF082091ED0830919B
:104DF000EE082C1B3D0B3093EE082093ED08211597
:104E0000310539F61093F2088091F1088111C4CF71
:104E100060E088E00E94A7021093F108BDCF85E30F
:104E20000E94A0028130D9F7DD2039F062E08D2D9B
:104E300047DD03C081E090E002C080E090E0CDB7A4
:104E4000DEB7E8E02FC31F93CF93DF93EC01898196
:104E5000823789F48A818823C9F1833719F462E0A3
:104E600081E004C0843721F462E082E029DD2EC0B5
:104E700060E080E0FBCF833749F510E0612F70E000
:104E80009B01220F331FC90103968C0F9D1FFC014C
:104E90004081442369F0FE01E20FF31F24812223A5
:104EA00039F06E577A4F41E00E940F061F5FE6CF40
:104EB0008A81833711F441E003C0843701F542E071
:104EC00065EA76E082E895E0D9DE19C08091880332
:104ED000823079F480918703813029F0823031F477
:104EE0008DEE92E008C083EF92E005C089EE92E07B
:104EF00002C085EE92E00E948A050E949705DF912C
:104F0000CF911F910895DC01EC91AE2FA295AF7067
:104F1000B0E0AB5DBE4F8C91DB018C93EF70F0E0A5
:104F2000EB5DFE4F808111968C930895CF93DF93B4
:104F3000EC01A881E981CA2FC295CF70D0E0CB5E89
:104F4000DE4F4881AF70B0E0AB5EBE4F2C91AE2F0C
:104F5000A295AF70B0E0AB5EBE4F8C91EF70F0E009
:104F6000EB5EFE4F908151E02F3F09F050E031E0C1
:104F70004F3F09F030E0532B31E08F3F09F030E034
:104F8000352BA9F49F3F99F0D0E44D9FA001112447
:104F9000E0E12E9F90011124242B292BF4E08F9F18
:104FA000C0011124282BEB01288380E001C081E09F
:104FB000DF91CF9108951F93CF93DF93FB014111B0
:104FC0000FC0EC01A981CA2FCF70D0E0CB58DE4FC3
:104FD0001881A295AF70B0E0AB58BE4F5C9101C094
:104FE00054E1EC01A881CA2FCF70D0E0CB58DE4F3E
:104FF0002881A295AF70B0E0AB58BE4F6C91D4E061
:105000006D9FB0011124922F92959F70962B9083E3
:10501000952F9695969580E1289F90011124922BCB
:105020009183411106C0C0E45C9FC0011124812B13
:105030008283DF91CF911F910895DC0111969C919D
:105040001197411118C012968C911297E82FEF73A7
:10505000F0E0EB5CFE4F5081E92FEF7024E0E29F1F
:10506000F00111248295869586958370E82BEB5C80
:10507000FE4F808102C080E050E02C91E22FE3706F
:1050800030E1E39FF001112492959F70E92BEB5CD6
:10509000FE4F908126952695E22FF0E0EB5CFE4FC7
:1050A0002081E1E09F3F09F0E0E031E02F3F09F08F
:1050B00030E0E32B31E05F3F09F030E03E2B99F424
:1050C0008F3F89F0E0E12E9F90011124292BFB01F5
:1050D000208341110AC0F0E18F9FC0011124852B6C
:1050E000FB01818302C081E0089580E00895482F8C
:1050F00050E08A3150F09A012A51310984E0359507
:1051000027958A95E1F72D5F01C022E0CA0101963B
:10511000820F911D820F911D0895882331F0CA01DD
:1051200061110196880F991F0895CA01880F991F70
:10513000840F951F96958795611101C040FD0196DA
:105140000895A0E0B0E0E6EAF8E28EC16A018C01C1
:1051500086E9F80181938F01EB017F015B01A40EC9
:10516000B51ECA15DB0541F0B701CE01CCDE219694
:10517000F2E0EF0EF11CF5CFF601EE0FFF1FE00F8E
:10518000F11F85E58083CDB7DEB7EAE089C1A0E0F5
:10519000B0E0ECECF8E269C1EC017B018A0175E555
:1051A000B72E01151105F9F00130110529F441E080
:1051B000BE01C70100DF0CC0CE0103966C0140E0C8
:1051C000BE01C7010230110531F4F5DEBB82E601F4
:1051D00000E010E0E6CFEFDEE60192E0E90EF11C20
:1051E00002501109DECFCDB7DEB7E9E05AC1A0E029
:1051F000B0E0ECEFF8E232C14C01EB016A01A12C06
:10520000B12C00E010E0612C712CE12CF12CA2E11A
:105210004A2E512CC114D10409F450C0BE01C4015E
:1052200085DE81114EC082E0C816D10499F08AE073
:10523000E816F10458F0C7010A97B201E6D031E050
:1052400020E0892B09F030E0032F122FA114B104C4
:1052500099F005C0A114B10491F001E010E0609450
:1052600070947724888190E06816790669F5A12CFE
:10527000B12C612C712C17C00115110581F093011F
:1052800020953095232F3327888190E02817390700
:10529000D9F4AA24A394B12C00E010E004C06881E2
:1052A000C3019DD03C0181E0C81AD1088FEFE81AF4
:1052B000F80A82E0880E911C2196ACCF80E090E045
:1052C00005C081E090E002C082E090E0CDB7DEB79B
:1052D000E0E1E0C0A0E0B0E0EFE6F9E2C1C07C01AF
:1052E000EB013A0100E010E0C12CD12C92E1892EB3
:1052F000912C6114710409F46CC081E0681671048A
:10530000D1F441E0BE01C70198DE882319F081E0A5
:1053100090E061C056018FEFA81AB80AC8018095C5
:1053200090959927288130E08217930709F44DC0A2
:1053300082E090E050C040E0BE01C7017EDE8111F6
:10534000E6CF82E0681A7108560182E0A80EB11C0F
:105350006114710451F08BE0A816B104C8F0C601C5
:105360000A97B40152D0892B99F4009510959801B1
:105370003327898190E028173907D1F6012F1127AB
:10538000888190E00817190799F600E010E018C02E
:10539000688181E06816710471F4C80120D08C0125
:1053A0009C0120953095232F3327898190E0281781
:1053B000390731F0BDCFC80112D0698110D08C01FE
:1053C00083E0E80EF11C229602C0612C712C65016D
:1053D00090CF80E090E0CDB7DEB7EEE05DC078E042
:1053E000AC0144275078452F5527262F207830E0F0
:1053F000880F991F4217530721F025E682272DE3D6
:105400009227660F715061F70895AA1BBB1B51E1EB
:1054100007C0AA1FBB1FA617B70710F0A61BB70B24
:10542000881F991F5A95A9F780959095BC01CD01C9
:10543000089597FB072E16F4009406D077FD08D048
:10544000E4DF07FC05D03EF4909581959F4F0895C9
:10545000709561957F4F08952F923F924F925F9282
:105460006F927F928F929F92AF92BF92CF92DF9274
:10547000EF92FF920F931F93CF93DF93CDB7DEB7D9
:10548000CA1BDB0B0FB6F894DEBF0FBECDBF09946D
:105490002A88398848885F846E847D848C849B84C4
:1054A000AA84B984C884DF80EE80FD800C811B81D2
:1054B000AA81B981CE0FD11D0FB6F894DEBF0FBE01
:1054C000CDBFED010895CF93DF938230910510F4A5
:1054D00082E090E0E091F508F091F60820E030E0FD
:1054E000A0E0B0E0309739F1408151814817590769
:1054F000B8F04817590771F482819381109729F009
:1055000013969C938E9312972CC09093F6088093D9
:10551000F50827C02115310531F04217530718F05F
:10552000A901DB0101C0EF019A01BD01DF01028089
:10553000F381E02DD7CF21153105F9F0281B390B68
:105540002430310580F48A819B816115710521F039
:10555000FB019383828304C09093F6088093F5083F
:10556000FE01329644C0FE01E20FF31F8193919336
:1055700022503109398328833AC02091F3083091B1
:10558000F408232B41F42091110130911201309342
:10559000F4082093F30820910F0130911001211598
:1055A000310541F42DB73EB74091130150911401DC
:1055B000241B350BE091F308F091F408E217F30790
:1055C000A0F42E1B3F0B2817390778F0AC014E5F73
:1055D0005F4F2417350748F04E0F5F1F5093F408B4
:1055E0004093F3088193919302C0E0E0F0E0CF0193
:1055F000DF91CF910895CF93DF93009709F487C08F
:10560000FC01329713821282C091F508D091F608FE
:10561000209781F420813181280F391F8091F30870
:105620009091F4088217930779F5F093F408E093CA
:10563000F3086DC0DE0120E030E0AE17BF0750F484
:1056400012964D915C9113979D014115510509F1F9
:10565000DA01F3CFB383A28340815181840F951F78
:105660008A179B0771F48D919C911197840F951F58
:1056700002969183808312968D919C9113979383C8
:1056800082832115310529F4F093F608E093F5089B
:105690003EC0D9011396FC93EE9312974D915D9104
:1056A000A40FB51FEA17FB0779F480819181840F5D
:1056B000951F0296D90111969C938E9382819381B6
:1056C00013969C938E931297E0E0F0E08A819B8181
:1056D000009719F0FE01EC01F9CFCE010296288166
:1056E0003981820F931F2091F3083091F408281715
:1056F000390769F4309729F41092F6081092F508EA
:1057000002C013821282D093F408C093F308DF9191
:10571000CF910895F999FECF92BD81BDF89A99274E
:1057200080B50895262FF999FECF1FBA92BD81BD8D
:1057300020BD0FB6F894FA9AF99A0FBE0196089513
:04574000F894FFCF0B
:105744000210B07106000401A4016C02D804060022
:1057540000F7082000FFFFFFFFFF0302FFFF010027
:10576400FFFFFFFFFFAAA9A6A59A9996956A696605
:10577400655A595655FFFFFFFFFFFFFFFFFFFFFF6D
:1057840003FF0102FFFFFFFF07FFFF00FFFF050606
:10579400FF04FFFFFFFFFFFF0BFF090AFFFF0FFFDF
:1057A400FF08FFFFFFFF0D0EFF0CFFFFFFFFFFFFD2
:1057B400FFFFFFFFFF160D0E0B1C191A132C2526D5
:0857C400233431322932310097
:00000001FF
