:100000001CC2000038C2000036C200000C94C914A3
:1000100032C2000030C200002EC200002CC200001C
:100020002AC2000028C2000026C2000024C200002C
:1000300022C200000C9462141EC200001CC2000008
:100040004CC4000018C2000016C2000014C2000018
:100050000C945E260C9428260EC200000CC20000F0
:100060000AC2000008C2000006C2000004C200006C
:100070000C94462700C20000FEC10000FCC1000035
:10008000FAC10000F8C10000F6C100006DF725427A
:100090008F0762102B43B50346970969051C41EE93
:1000A0000B5A3E0E479A094DD20959391E52000784
:1000B000546C2156F70757400758D00F65B70766AD
:1000C0002B252A90276C7E0774D104755417787CF1
:1000D000037A521B000000202F2000203D20000743
:1000E0002E050DD391FF080500000C0021656A2D37
:1000F0003B1322F862073F181D1CC700B0876BF83E
:10010000B611EA2A001F41000D2E2D07D3913D04A0
:10011000320000060021656A55E43023B90007006B
:1001200018146C070090876BF85611E92A001F41DC
:100130000000030F1E2627000000030F1E2536387F
:100140006700030F256740605000030F2751888325
:100150008100030F2750C8C3C20027000000000021
:1001600000006700000000000000500000000000D8
:1001700000008100000000000000C200000000003C
:1001800000504C4C310D0A00504C4C300D0A0056BA
:1001900020312E36362043534D3836380056203124
:1001A0002E36362043534D34333300202F20002089
:1001B0003D20004C4F56460D0A004552523A4343EB
:1001C000410D0A000B08105B11F81547191D1A1C88
:1001D0001BC71C001DB221B623EA0007022E030D27
:1001E00004E905CA070C0B060D210E650F6A10C83D
:1001F0001193120315341733181819161B4321567F
:100200002500261129592C812D353EC34C454E45DC
:1002100052520D0A004C4F56460D0A004C454E45B1
:1002200052520D0A000007024604C605260B0610AE
:10023000C81193120313221534173F182819161BDF
:10024000432156250026110D210E650F6A070C1655
:100250000720F81E871F6B29592C812D353EC3FFBF
:1002600000424F56460D0A000001022E030104AA67
:10027000050F06FF070008000B060D210E740FADD9
:10028000104B11F8121613721541181819161B038A
:1002900023E9242A2500261F3E500001022E0301D7
:1002A00004AA050F06FF070008000B060D210E66C5
:1002B0000F6610CA11931206135215351818191625
:1002C0001B0323E9242A2500261F3E500001022E8D
:1002D0000301045505F006FF070008000B060D2179
:1002E0000E660F9910591183121E135215351818E6
:1002F00019161B0323E9242A2500261F3E500D2E24
:100300002D07D3913D04320000060010B07155E472
:100310003023B900070018146C070090876BF8565B
:1003200011E92A001F41000D2E2D07D3913D043203
:100330000000060010ABA5550A3023B900070018CD
:10034000146C070090876BF85611E92A001F4100D2
:100350004E2F4100454F420D0A004E2F41004E2FB7
:10036000410000535300547D7DFFFF4B4B7E7E00C8
:1003700020697320756E6B6E6F776E2920557365DB
:10038000206F6E65206F66003F2028004F464600B4
:100390004F464600544D4F444500534D4F44450091
:1003A0000454053D1700000602000B080C000D2147
:1003B0000E6B0FD0105C11041206132214F80A0001
:1003C000154421B622101818192E1ABF1B431C09F8
:1003D0001DB523EA242A2500261F29592C812D35F5
:1003E0002E0907040800090006FF3EC2FF04760537
:1003F000961700000602000B080C000D210E650F79
:100400006A106A114A1206132214F80A00154721CD
:10041000B622101818192E1A6D1B041C091DB223C0
:10042000EA242A2500261F29592C812D352E09075B
:10043000040800090006FF3EC2FF11241FBECFEFD3
:10044000D0E4DEBFCDBF11E0A0E0B1E0EEE1FFE51A
:1004500000E00BBF02C007900D92A838B107D9F792
:100460002AE0A8E8B1E001C01D92A634B207E1F786
:1004700003D00C948D2FC4CD88E10FB6F8948093EF
:100480006000109260000FBE3E9A469A179A169A24
:100490000E94AE2799D589EF87BD84E085BD82E0B3
:1004A00084BD80936E00109280008AE0809381006A
:1004B00090E080E80FB6F89480936100909361001B
:1004C0000FBE84B7877F84BF2FE088E190E00FB62E
:1004D000F894A895809360000FBE2093600089E196
:1004E00090E80E9492260E942F2787B18C7F87B9BF
:1004F00088B18C7F88B90E940C210E94AA0F8CEED3
:1005000096E29093900480938F0481E080938B0116
:100510000E94781680918B01886080938B014698A9
:1005200078940E94B1260E94D51151D20E94712563
:100530000E94F617E7D70E94C80D0E947C270E94F0
:1005400015290E94221AEDCF8EBD0DB407FEFDCFF6
:100550008EB50895A1E0B0E0E0EBF2E00C94252E1A
:10056000482F8A3008F048E088E0489F7001112445
:10057000F701EF5CFE4F7F018BE290E0F7016491A1
:100580008C010F5F1F4F49831DD4FFEFEF1AFF0A45
:1005900049810333110511F0C801F0CF45504530B2
:1005A00010F461E101C067E184E290E00BD4219690
:1005B000E6E00C94412ECF93DF9382E090E0FC01C3
:1005C000EA5FFE4F6491EC012196FCD3CB32D1055A
:1005D00011F0CE01F4CF87E390E0FC01E855FF4F26
:1005E0006491EC012196EED3C036D10511F0CE0115
:1005F000F4CF079918C060E18FE090E0E3D360EB9F
:1006000080E190E0DFD361E781E190E0DBD360E15E
:1006100084E490E0D7D360EB85E490E0D3D361E746
:1006200086E490E0CFD388E095DFDF91CF91089505
:100630002C98806C89DF80E087DF2C9A0895A1E0F8
:10064000B0E0E5E2F3E00C94292E2C9880646983F5
:100650007BDF6981862F78DF2C9A2196E2E00C946B
:10066000452E2C9871DF2C9A0895EF92FF920F93EC
:100670001F93CF93DF93EC0110929301EA98249A91
:100680002C9A8EE190E016D22C988EE190E012D256
:100690002C9A8DE290E00ED280E3E3DF84E690E0D6
:1006A00009D22C9880E450DF7E0189E2E80EF11C2B
:1006B0008E010F5F1F4FCE018AD346DF0E151F0537
:1006C00011F0E801F5CF2C9A2C988EE73DDF8BE2F4
:1006D00090E0EC0121967BD337DFC333D10511F0D5
:1006E000CE01F7CF2C9A83E3BCDF81E0E8D1CDB710
:1006F000DEB7E6E00C94412EA1E0B0E0E2E8F3E0E2
:100700000C94292E22E0298341E0BE016F5F7F4FC8
:100710000196FDD289811EDF82E090E0A6DF21965E
:10072000E2E00C94452ECF93EA9886E39ADFCFEF70
:1007300085E397DFC1508077803229F08AE090E02E
:10074000B9D1C111F5CFCF910895CF93CFEF84E305
:1007500088DFC1508077803129F08AE090E0AAD10B
:10076000C111F5CFEA9ACF910895A2E0B0E0EBEB8A
:10077000F3E00C94272E8C01FC0181818737E9F48A
:1007800041E0BE016F5F7F4FC8010296C0D2892B46
:10079000A1F041E0BE016E5F7F4FC8010496B7D261
:1007A000892B59F06A8189814ADF83E35ADFCDDFE3
:1007B0008981A9D28A81A7D22CC041E0BE016E5F97
:1007C0007F4FC8010196A3D2892B21F18A818939F3
:1007D00069F410E0812F2CDF96D2812F877087304B
:1007E00009F41DD21F5F1033A9F714C021DF182FA1
:1007F00083E4CAD18A8187D28BED90E003D2812F26
:1008000082D287ED90E0FED140E262E0812F90E05D
:100810000AD205D22296E4E00C94432E86E321DF2F
:10082000109291041092910110929301089582E028
:1008300090E01BDF81E0809391041092910110926F
:10084000930108950F931F93CF93DF93082F10E028
:10085000C62FD0E085E3ECDE801731F0CE012AD13F
:100860001150C1F781E001C080E0DF91CF911F916D
:100870000F91089585E2DCDE8F3311F080E008955A
:1008800086E3EFDE80918801811104C088E891E061
:10089000B9D102C08DE3E5DE83E3E3DE64E081E00D
:1008A000D1DF85E2C5DE8F3349F780918801811160
:1008B00003C081E891E0A6D181E0089585E3B8DE28
:1008C0008D3051F485E2B4DE8F3331F4D3DF84E32D
:1008D000C8DE80778031D9F708951F920F920FB646
:1008E0000F9211240BB60F928F939F93AF93BF93E8
:1008F000EF93FF938091930490919404A0919504B9
:10090000B09196040196A11DB11D8093930490931C
:100910009404A0939504B0939604809192048F5F01
:1009200080939204E0E8F5E0808191811816190621
:100930001CF4019791838083369685E0E839F807A7
:1009400099F780919A0590919B05009729F001975E
:1009500090939B0580939A058091AD058F3F19F088
:1009600081508093AD05FF91EF91BF91AF919F9121
:100970008F910F900BBE0F900FBE0F901F90189588
:100980002FB7F8944091930450919404609195048A
:1009900070919604FC0140835183628373832FBF5F
:1009A0000895A4E0B0E0E7EDF4E00C94292ECE0128
:1009B0000196E6DF8C81A7D18B81A5D18A81A3D155
:1009C0008981A1D12CD12496E2E00C94452E1F936D
:1009D000CF93DF938091930490919404A091950418
:1009E000B091960420918A01281709F45FC0809184
:1009F000930490919404A0919504B09196048093EF
:100A00008A01A895C0E8D5E010E028813981232B20
:100A100019F4812F0E949B231F5F26961430A9F79B
:100A200080919A0590919B05892B11F40E94F723E0
:100A30008091AD05811102C00E9455248091260548
:100A4000882339F0815080932605811102C00E94CD
:100A50008B18809192048D3748F110929204809106
:100A6000000181FF04C088B190E4892788B9809192
:100A7000970490919804843823E0920728F4019613
:100A80009093980480939704809189018F5F80935D
:100A900089018C3359F41092890180917F058F5F11
:100AA00080937F058C3310F010927F05DF91CF91FA
:100AB0001F910895880F991F0197F1F7089520ED70
:100AC00037E0815020F0F9013197F1F7FACF08951E
:100AD000CF93DF93DC0113968C911397843509F043
:100AE00050C0CD010396CC91FD0170964DE04C179E
:100AF00050F050E0D0E09E012F50310942175307CB
:100B000009F03FC005C021912B3399F34F5FEFCF20
:100B1000FE013E97E80FF91F2081243591F51496C8
:100B20003C911497218132132CC015963C91159756
:100B30002281321326C016963C91169723813213D8
:100B400020C017963C911797248132131AC06197E1
:100B5000C80FD91F858188838681898381858A838F
:100B600082858B8383858C8384858D8385858E8325
:100B70008C918A508C9312968C9112978A5012966F
:100B80008C93DF91CF910895CF93C82F80918B01E3
:100B900080FF0EC08091C1058E3730F087FD08C000
:100BA000CD3011F0CA3021F46C2F8FEB95E02DD2AF
:100BB000809131058823C9F080918B0183FF15C096
:100BC000CA3099F0CD3011F46BE301C06C2F81EA8B
:100BD00094E01BD2CD3019F481EA94E079DF83E010
:100BE0008093260582E080932C05CF910895CF93C2
:100BF000DF93EC018991882311F0C6DFFBCFDF91F1
:100C0000CF910895CF93DF93EC01FE018491882367
:100C100019F0BADF2196F9CFDF91CF9108958DE0D9
:100C2000B3DF8AE0B1CFA6E0B0E0E9E1F6E00C94F2
:100C3000272E062F1E8215E02AE030E01150E1E059
:100C4000F0E0EC0FFD1FE10FF11DB9010E94F22D44
:100C5000805D8083CB010150009769F01111EECFC8
:100C60000AC0112359F01150E1E0F0E0EC0FFD1F34
:100C7000E10FF11D4083015007FFF3CF81E090E0C9
:100C80008C0F9D1F810F911DB2DF2696E4E00C941E
:100C9000432EA5E0B0E0EFE4F6E00C94292E1D828F
:100CA00024E0382F3F702150E22FF0E03A3010F46A
:100CB000305D01C0395CA1E0B0E0AC0FBD1FEA0FB0
:100CC000FB1F308334E0969587953A95E1F76150A4
:100CD000009739F7615067FD0BC0222349F021507E
:100CE000E1E0F0E0EC0FFD1FE20FF11D4083F2CFD9
:100CF00081E090E08C0F9D1F820F911D78DF25967B
:100D0000E2E00C94452E40E362E090E0C2CFDC01CB
:100D1000FB0130E090E08D918823A9F0813608F046
:100D2000805220ED280F2A3030F02FEB280F26308C
:100D300030F429EC280F292B332379F006C08032B8
:100D400051F38A3341F3CF0105C0CF0101962083CF
:100D5000415041F4861B970B0895922F9295907FF6
:100D600031E0D9CFFC01D5CF20E030E05AE0FC01E2
:100D70004191CF01442379F0E0EDE40FEA30B8F778
:100D8000F9015E9F90015F9F300D112420533109BE
:100D9000240F311DECCFFB01318320830895982F60
:100DA00092959F709A3010F4905D01C0995CFB01A0
:100DB00090838F708A3010F4805D01C0895CFB01E4
:100DC000818308950E947F2FF999FECF08950C9496
:100DD000772F08951F93CF93DF93162F11501F3F46
:100DE00059F0EC012196F3DF8EDF112311F08AE335
:100DF000CBDE1150CE01F3CFDF91CF911F9108953B
:100E0000A2E0B0E0E6E0F7E00C94262EFC012181A0
:100E10002D3421F466E08AEF9FE005C0203529F4E7
:100E200060E18AED9FE0D6DF26C01A82198242E097
:100E3000BE016F5F7F4F01966ADF098110E082304B
:100E400021F4102F00278A81082BC801C0DFF82E5B
:100E500082E59ADE40E364E0C8011BDF8FEA91E09F
:100E6000D1DE8F2D50DF8BEA91E0CCDE40E262E0F4
:100E70008F2D90E0D8DED3DE2296E5E00C94422E52
:100E8000A6E0B0E0E6E4F7E00C94232E6C0143E02A
:100E9000BE016F5F7F4F01963ADF823058F1E980E3
:100EA000F12C823021F0FE2CEE242A81E22A8C01E2
:100EB0001127FE01E00FF11F6081C70183DF000FE2
:100EC000111F0F5F1F4F0C0D1D1DF801808188231E
:100ED00089F041E0BE016F5F7F4FC80118DF892BA9
:100EE00049F08FEFE81AF80A6981C7016BDF0E5FDE
:100EF0001F4FEBCF2696E8E00C943F2E41E060E0D8
:100F000071E0019604DF8091000180FF02C0469AE3
:100F100001C046986091000184E390E053CFA1E0C6
:100F2000B0E0E5E9F7E00C94292E1982009731F042
:100F300041E0BE016F5F7F4F0196E9DE89818F3FFF
:100F400009F4FFCF882321F061E083E390E03ADFEA
:100F500010926E00F89428E088E190E00FB6F894C3
:100F6000A895809360000FBE20936000FFCFCF93C1
:100F7000DF93EC0161E080E090E024DF62E481E057
:100F800090E020DF18DB60E080E690E01BDF60E0AF
:100F900081E690E017DF60E083E390E013DF62E03A
:100FA00084E390E00FDF60E080E690E00BDF60E03C
:100FB00081E690E007DF8981883719F080E090E0D2
:100FC000AEDFDF91CF91089580E090E000DF8130C7
:100FD00029F481E090E0FBDE823419F080E090E0BB
:100FE000C6DF84E390E0F3DE809300010895079963
:100FF00003C08DE991E002C08FE891E003DE0FCEDF
:10100000FC011282108211820895FC018FB7F894BE
:10101000928197FD0EC09F5F9283208191E0920F95
:101020009083DF01A20FB11D13966C93903809F4E1
:1010300010828FBF0895FC019FB7F89482818823A6
:1010400071F081508283818121E0280F2183DF01AB
:10105000A80FB11D13968C91203809F411829FBFFF
:101060000895FA013081882369F0E1E0F0E0022E72
:1010700001C0EE0F0A94EAF7DB01A30FB11D9C91AA
:101080009E2B9C93222319F08FEF820F0BC081E0DF
:10109000830F8C3010F4FA018083FB01E80FF11DFF
:1010A000108287E090E00895CF93C82F299A882373
:1010B00019F080918E0102C08091900120E1829F01
:1010C000C0011124F7DC2998CC2319F080918D01FF
:1010D00002C080918F0120E1829FC0011124EADCCF
:1010E000CF910895A3E0B0E0E8E7F8E00C94192E62
:1010F0005C01162F622E842F90E09B838A832091BF
:101100009704309198040296089F802D1124992706
:1011100087FD90952817390720F483EB91E072DD65
:101120007CC0281B390B3093980420939704469A6F
:1011300080919301882341F01092930185E891E01A
:101140002FD7FF24F39401C0F12C809191048111D9
:1011500001C06DDBE8DA812E912CCC24C394D12C14
:10116000712C512C852D992787FD9095881599050F
:1011700024F480E099DF5394F5CF112311F081E03E
:1011800093DF20E0422E552447FC5094EA81FB81F6
:101190004E165F062CF097E0392E4A0C5B1C1AC0E5
:1011A00087E0282E312C4A0C5B1CC601022C01C0A2
:1011B000880F0A94EAF7F20190818923298374DF6A
:1011C000F1E02F1A310829818FEF2816380669F7C8
:1011D0002F5FD8CF832D992787FD909568167906C4
:1011E00064F4C601032C01C0880F0A94EAF7F201E7
:1011F0009081892359DF3A94EDCF8E2D60DC015028
:1012000009F0AFCF80919A04882311F09EDA02C0D2
:1012100086E327DAF110FAD246982396E2E10C949D
:10122000352EADE0B0E0E7E1F9E00C941C2E7C0136
:10123000162F842F022F6701C60ED11C462FB7012F
:10124000C8D6D6018C931F5F1D8619825E2C67015C
:1012500027E066246394712C8C2D8519811788F5FD
:1012600047E0A42EB12C4701880E911CF3010A2CF3
:1012700001C0EE0F0A94EAF7D4018C91AE01435FEE
:101280005F4FBE016F5F7F4F8E23EBDE282FB1E0F3
:10129000AB1AB10858F7D6018D916D01082E8295D1
:1012A0008025082E8695869580258F5F869581708E
:1012B000AE01435F5F4FBE016F5F7F4FD2DE282FCD
:1012C000CBCF222311F0215004C08D858F5F8D87F5
:1012D00027E089E180938F018093900185E28093DC
:1012E0008D0180938E013AE0E32E4D856CE0CE01B6
:1012F0000196F8DE2D96EFE00C94382EADE0B0E0CC
:10130000E4E8F9E00C94282E162F242F4BE0BE01C0
:101310006F5F7F4F01962D87FADC2D85412F682F57
:10132000CE0101967EDF2D96E3E00C94442E43E03F
:1013300066E0E4CFEF920F93CF93DF93CDB7DEB7A4
:1013400060970FB6F894DEBF0FBECDBF40E1BE017F
:101350006F5F7F4F0196DBDC69814A810B818C8155
:10136000809390018D8180938F018E8180938E0177
:101370008F8180938D01E02EE2947FE0E7220F7051
:10138000242F2F7042954F70CE010896ABDE6096E9
:101390000FB6F894DEBF0FBECDBFDF91CF910F9196
:1013A000EF900895A9E1B0E0E8EDF9E00C94212E6A
:1013B0004BE0BE016F5F7F4F0196A9DC182F89308B
:1013C00009F05AC099E190938F0190939001909306
:1013D0008E0182E380938D0169E0CE01019603D6F0
:1013E000E1E0F0E0EC0FFD1FE10FF11D8083198EAD
:1013F0001D86CE0101967C016E019BE0C90ED11CB9
:1014000027E0AA24A394B12CEC14FD0429F100E0F8
:1014100010E0F501002E01C0EE0F0A94EAF7D701A3
:101420008C91AE01475E5F4FBE01635F7F4F8E239D
:1014300018DE282F0F5F1F4F0830110551F7AE013E
:10144000475E5F4FBE01635F7F4F81E00ADE282F5A
:10145000BFEFEB1AFB0AD8CF222311F0215004C0B2
:10146000898D8F5F898F27E0EAE0EE2E03E0498DBA
:101470006CE0CE010D9636DE6996EAE00C943D2EC6
:10148000CF93DF93EA98249A2C9A8EE190E012DBB6
:101490002C988EE190E00EDB2C9A8DE290E00ADB36
:1014A00080E3DFD884E690E005DBCAEDD1E0FE0101
:1014B00031966491FE018491C2D82296F2E0CC303C
:1014C000DF07A9F780919201811105C083E3C9D894
:1014D00084E0F5DA0EC0C4ECD1E0FE0131966491EF
:1014E000FE018491ACD82296F1E0CA3DDF07A9F74E
:1014F000EDCF84E3B6D885E39BD88D30D1F7DF916B
:10150000CF910895A2E3B0E0E8E8FAE00C94272E2A
:1015100080919101882309F48DC01A9B7CC08FE3D0
:1015200087D88F778983823348F08AE39AD886E315
:1015300098D88DE396D884E394D87CC02C988FEF0C
:1015400003D810E08981181760F480E00E94A4029B
:10155000E2E0F0E0EC0FFD1FE10FF11D80831F5F63
:10156000F1CF80E00E94A402082F80E00E94A40234
:101570002C9A84E376D885E35BD88D30D1F72A8125
:1015800096E792279A8392E08981E92FF0E09817F5
:1015900068F441E050E04C0F5D1FE40FF51F30810F
:1015A0002452232720839F5F232FEECF81E090E0FA
:1015B0008C0F9D1FE80FF91F90818B8198279083D6
:1015C00080919A0484FF10C081E6DEDA10E0898100
:1015D000811708F1E1E0F0E0EC0FFD1FE10FF11DD4
:1015E0008081D2DA1F5FF3CF81E4CEDA10E0898107
:1015F000811750F0E1E0F0E0EC0FFD1FE10FF11D6D
:10160000808181DB1F5FF3CF80919A0485FF02C048
:10161000802F79DB04DB85E30BD8813021F0813129
:1016200041F48AE31ED886E31CD88DE31AD884E3FC
:1016300018D844D9E296E4E00C94432E8F929F92FE
:10164000AF92BF92DF92EF92FF920F931F93CF93CF
:10165000DF93CDB7DEB7EA970FB6F894DEBF0FBEC3
:10166000CDBF41E38E010F5F1F4FB80101964FDBE5
:101670007C0199270197298130E08217930709F0AF
:101680009BC080919101811103C0FADE83E017DADB
:10169000DB808A8196E789278A8322E03981822F3D
:1016A00090E0F801E80FF91F231750F4DE01A80FAE
:1016B000B91F8C9184529081892780832F5FEECF50
:1016C00080818D258083CE01C7965AD985E30E94FB
:1016D000310385E30E941803833171F1CE01C39673
:1016E0004FD94BA95CA96DA97EA98FA998ADA9ADC9
:1016F000BAAD84179507A607B70760F44A015B01E6
:10170000881A990AAA0ABB0A2DEB82169104A10431
:10171000B10470F4481759076A077B0768F48454CA
:101720009F4FAF4FBF4F84179507A607B70720F409
:101730008AEB91E067DA24C085E30E9418038331C5
:1017400029F6D4FE06C088E7BAD988E7B8D988E771
:1017500001C08AE0B4D92C988FE70E94A4025801F6
:101760008A2D801B8E1530F4F50181915F010E9456
:10177000A402F6CF2C9A85E30E9418038331D9F393
:1017800085E30E941803863149F48BE30E943103FC
:1017900086E30E9431038DE30E9431038091910121
:1017A000882349F084E30E94310385E30E941803F3
:1017B0008D30C1F701C0E5D3EA960FB6F894DEBFCD
:1017C0000FBECDBFDF91CF911F910F91FF90EF9092
:1017D000DF90BF90AF909F908F900895FC01218182
:1017E000223731F0223559F481E08093920102C012
:1017F0001092920145DE81E0809391010895233794
:1018000011F401961BCF109291010895CF93DF93AD
:10181000EA98249A2C9A8EE190E04CD92C988EE18B
:1018200090E048D92C9A8DE290E044D980E30E9460
:10183000310384E690E03ED9C5E2D2E0FE01849116
:10184000813438F083E30E94310384E038D9CFEF4C
:101850000DC0FE0131966491FE0184910E941F0328
:101860002296F2E0C136DF0749F7ECCF84E30E940D
:1018700031038AE090E01ED9C150C1F781E0809326
:101880009301DF91CF910895EF92FF920F931F93F1
:10189000CF93DF93EC018B01F880F3946115710510
:1018A00019F0E4E6F0E002C0E0E0F0E028E0F29EAB
:1018B000C00111246AE070E00E94062E9B012E0FE9
:1018C0003F1FC901AA2797FDA095BA2FE091970461
:1018D000F0919804AF0160E070E0481759076A077B
:1018E0007B0720F485E192E08DD9C3C0E21BF30BA6
:1018F000F0939804E093970480919301811101C0C3
:1019000085DF85E30E9418038D3051F08AE53CD9CC
:1019100085E43AD982E538D982E536D981E347C0F2
:101920008091940190919501A0919601B0919701B9
:10193000892B8A2B8B2B29F50E94930385E30E9428
:101940001803833109F43BC08AE51ED985E41CD90C
:1019500082E51AD982E518D982E329C080919304DF
:1019600090919404A0919504B09196044F5F5F4FBD
:101970006F4F7F4F84179507A607B707E9F681E0F9
:101980009ED88091930490919404A0919504B09175
:101990009604409194015091950160919601709147
:1019A000970184179507A607B707C1F6E8CFECD8CB
:1019B00085E30E941803A7D932D928DF5AC0012B2A
:1019C00041F42C988FE70E94A402EC2E0C2F1D2FBF
:1019D0000AC00AE010E084E672D80150110901152E
:1019E0001105C9F7EECF802F8E198F1530F4F8014D
:1019F00081918F010E94A402F6CF2C9AC8EC85E356
:101A00000E9418038D30B1F485E30E9418038D30D5
:101A1000D9F08AE5B9D885E4B7D882E5B5D882E5AA
:101A2000B3D883E3B1D885E30E9418036CD9F7D803
:101A3000EDDE0AC085E30E941803833129F781E0B7
:101A40003ED8C150E1F6E0CF80919301811101C0F1
:101A500098D28091930490919404A0919504B091B0
:101A600096048093940190939501A0939601B0936E
:101A70009701CDB7DEB7E6E00C94412EACE0B0E0C4
:101A8000E4E4FDE00C94282EFC018BE08983818145
:101A90008A831B8282E08C8387818D8380858E83FD
:101AA00081858F83848188878581898786818A87DC
:101AB0001B861C8684E103D860E070E0CE010196AD
:101AC000E3DE8AE561D810E0812F90E0298130E0E3
:101AD0002817390754F0E1E0F0E0EC0FFD1FE80FA4
:101AE000F91F808110D91F5FEFCF80919A0485FF85
:101AF00002C080E008D993D82C96E3E00C94442EE1
:101B0000CF93DF93EC0180919B01811108C09091EC
:101B10009C01911104C090919D019923A9F09B8192
:101B2000903319F09F7E903479F49F8198130CC004
:101B3000988580919C01981307C0998580919D019B
:101B4000981302C0CE019ADF80919801811108C0DC
:101B500090919901911104C090919A019923A9F053
:101B600098819B3091F49B81903479F49F819813F4
:101B70000CC0988580919901981307C09985809130
:101B80009A01981302C0CE0179DFDF91CF910895B9
:101B9000AEE1B0E0EEECFDE00C94272E80919301D5
:101BA000882309F467C01A9B57C08FE30E9418036B
:101BB0008F778E3108F08DE189832C988FEF0E940A
:101BC000A40210E08981181760F480E00E94A4024A
:101BD000E2E0F0E0EC0FFD1FE10FF11D80831F5FDD
:101BE000F1CF80E00E94A402082F80E00E94A402AE
:101BF0002C9ACE01019684DF80919A0484FF12C052
:101C00008AE70E94C40510E08981811798F1E1E01C
:101C1000F0E0EC0FFD1FE10FF11D80810E94C40573
:101C20001F5FF2CF8AE50E94C40510E08981811709
:101C300050F0E1E0F0E0EC0FFD1FE10FF11D8081BD
:101C400062D81F5FF3CF80919A0485FF02C0802F76
:101C50005AD80E940F060EC085E30E9418038131F6
:101C600049F48AE30E94310386E30E94310384E34E
:101C70000E9431036E96E4E00C94432EAEE1B0E096
:101C8000E4E4FEE00C94272E8C01FC018181823774
:101C900011F4BCDD34C0833711F08636F9F44DE120
:101CA000BE016F5F7F4FC801029631D89927019717
:101CB000298130E08217930729F08CE092E00E949E
:101CC00002061DC061E070E0F8018181833711F0E8
:101CD00060E070E0CE010196D7DD11C0813621F4BD
:101CE00043E06BE971E005C0873739F443E068E908
:101CF00071E0C80102960BD802C0109293016E9653
:101D0000E4E00C94432E8F929F92AF92BF92DF92A9
:101D1000EF92FF920F931F93CF93DF931092B9012D
:101D20001092CE01FC012181220F220F220F33815C
:101D3000231B57E0520F1092BA0110E070E038E018
:101D4000D32ED20EFF24F39447E007E0E12CC7E046
:101D5000D0E0A1E0B0E0FD1409F47FC0FC01EE0D7D
:101D6000F11D248130E0002E02C0359527950A949C
:101D7000E2F721703327E22F002311F0015002C057
:101D8000E39407E06B3471F4433009F04AC0111159
:101D900007C0E1115FC01092B9017093CE0174C009
:101DA00010E041C04F3F31F56634A9F4E72FF0E071
:101DB000E654FE4FE0810E2EE295E0250E2EE695CC
:101DC000E695E025EF5FE1FB882480F8912C8216F0
:101DD000930641F004C0653429F4E11103C0109367
:101DE000B901DBCF7F5FE72FF0E0E654FE4F1082B2
:101DF00047E031C0EE2361F1663471F4E72FF0E083
:101E0000E654FE4FA0809D01042E01C0220F0A94CB
:101E1000EAF7A22AA0821CC0653439F06B34C1F401
:101E200004C04F3FD1F2EE2399F0E72FF0E0E654E3
:101E3000FE4F9E01241B310947FD33955D0102C011
:101E4000AA0CBB1C2A95E2F795013081322B308316
:101E5000415001C011E0F3947ECF1093B90170930B
:101E6000CE015F1588F4653431F44F3F21F47F5F74
:101E70007093CE0104C08091B9018111F8CF81E047
:101E80009091CE01911101C080E0DF91CF911F911F
:101E90000F91FF90EF90DF90BF90AF909F908F9049
:101EA000089510926F00E091D1018CE1E89FF0015C
:101EB0001124EE52FE4F1082809199048D7F809301
:101EC00099040895FC012181243108F0EACF33817F
:101ED000662381F081E090E0032E01C0880F0A9410
:101EE000EAF7DF01A20FB11D14969C911497982B6D
:101EF00014969C93332319F031503383089587E06F
:101F000083832F5F2183E20FF11D14820895DC018A
:101F10001196EC911197F0E050E02C91CF01841BC9
:101F2000950B0B964797A0F430E070E0C901861B33
:101F3000970B0B96479760F42E0F3F1F640F751F8A
:101F4000261B370B255F3F4F81E02731310508F015
:101F500080E00895219A29982298E9E6F0E08081AE
:101F60008061808382EC91E0909398048093970441
:101F70001092EE0110920A02109226021092910421
:101F8000089580918B0481110AC080919A0488235E
:101F900021F00E9417040C94A5030C940E040895DC
:101FA000FC01218121110EC080919A040E948306B8
:101FB00040E265E080919704909198040E94130696
:101FC0000C940F0641E06AE974E001960E948706CE
:101FD000D8CF442339F04150FB01E40FF11D90812B
:101FE000890FF7CF089520E0662339F06150FC0196
:101FF000E60FF11D30812327F7CF822F0895A0919E
:10200000B90140E035E020E0662399F06150FC0121
:10201000E60FF11D5081752F72957F702727370FBE
:10202000AA2311F0442319F05F702527350F4F5F65
:10203000EBCF320F40E1349FC0011124822B089571
:10204000FC0132812381A081B181A30FB11D8C914C
:1020500090E0022E02C0959587950A94E2F7817070
:1020600099274FEF420F4383211104C03F5F328312
:1020700027E023830895A2E0B0E0E1E4F0E10C94CE
:10208000212E7C01A12CB12CD12CCC24C394062F61
:1020900010E001501109A616F0F4C7014A836983C4
:1020A000CFDF4A816981882391F0442349F0980168
:1020B0002A193B098C2D01C0880F2A95EAF706C022
:1020C0008C2D0A2C01C0880F0A94EAF7D82A8FEFCA
:1020D000A81AB80AE0CF8D2D2296EAE00C943D2E86
:1020E000A4E0B0E0E6E7F0E10C94202E1B8227E0AC
:1020F0002C839C012C5F3F4F3A8329831092CE01A1
:10210000FC012181338187E090E0831B9109F8E095
:102110002F9F800D911D1124853491050CF44EC024
:10212000B12CA090CE01F5E0FA1558F10A2D10E07F
:1021300040E068E0CE0101969EDF06541E4FF80194
:102140008083982E092C92949024092C969496942E
:102150009024CE01019674DF939491FACC24C0F8B8
:10216000D12C90E0C816D90649F5CE01019668DF5A
:10217000811124C0F8018081B826A394A092CE01D9
:10218000D0CF40E068E0CE01019675DF082F182F10
:10219000012E12951025012E169516951025CE01AB
:1021A00001964EDF1F5F11FBEE24E0F8F12C282F83
:1021B00030E0E216F30611F481E0B01280E02496DC
:1021C000EBE00C943C2EA5E0B0E0E9EEF0E10C94DD
:1021D000242EFC011B8287E08C83CF0104969A8316
:1021E00089838081853009F051C02181338187E066
:1021F00090E0831B910938E0239F800D911D1124ED
:102200008039910509F042C01092CE010FE010EF25
:1022100029E88091CE01E82EF12CDD24D394D80E4C
:1022200041E068E08F3088F4CE0101962D8323DFF2
:10223000080F111DF701E654FE4F2D81282720833A
:1022400024E2280FD092CE01E4CFCE01019613DF15
:10225000080F111DD092CE01F701E654FE4F809574
:10226000808341E068E0CE01019605DF90E0982F81
:102270008827081B190B41E068E0CE010196FBDEC0
:10228000282F30E081E00217130709F080E025963F
:10229000E7E00C94402EA4E0B0E0E1E5F1E10C941D
:1022A000262E1B8227E02C839C012C5F3F4F3A8314
:1022B0002983FC0121812430A1F58381813089F5B6
:1022C0001092CE018091CE01082F10E0FF24F394EC
:1022D000F80E41E0843098F4811106C067E0CE0129
:1022E0000196C9DE806804C068E0CE010196C3DEB5
:1022F000F801E654FE4F8083F092CE01E3CF67E011
:10230000CE010196B8DEF801E654FE4F880F8083B7
:10231000F092CE019091BA0192959F7081E09A302F
:1023200009F080E02496E5E00C94422ECF93DF93F1
:10233000FC0181818330E9F483818730D1F480818D
:102340008830B9F41092CE0120E0822F90E0DC01B9
:10235000A654BE4FEF01C80FD91F8C818C9381E02A
:10236000820F833010F4282FF0CF8093CE0181E0CC
:1023700001C080E0DF91CF910895FC0190818091B0
:102380009904993611F0933751F4982F9370913046
:1023900011F4826006C080FF07C08B7F03C080FD00
:1023A00003C08460809399040895A1E0B0E0EBED50
:1023B000F1E10C94252E198280919E018823B9F1B8
:1023C00080919A0487FF17C084E30E941803805805
:1023D000803458F0803C58F490E08055910953E0E7
:1023E000959587955A95E1F703C080E001C08FE08D
:1023F0008F590E94C40580919A0483FF16C082E71A
:102400000E94C40580919A0484FF04C080919F01BA
:102410000E94C40586E60E94C40580919A0484FF48
:1024200004C080919E010E94C40510929E0180917B
:10243000CF01882309F442C2469A0091D0012CE1D1
:10244000029F800111240E521E4F8981811106C006
:10245000C8016CDF882311F083E7898389818111AA
:1024600006C0C801B0DE882311F083E58983898125
:10247000811139C066E4C80146DC8823A1F1F090DF
:10248000CE01FA94F092CE014F2D6AEB71E086E016
:10249000A0DDEF2DF0E0E654FE4FE0808E1105C088
:1024A00093E09F1510F486E41BC0282F30E02F5FC7
:1024B0003F4F6E2D70E02617370739F423E02F15B4
:1024C00020F496E4998380830EC04F2D6AEB71E06F
:1024D0008CE07FDD8E1106C083E08F1518F484E553
:1024E000898301C019828981811116C065E4C80100
:1024F0000ADC882389F08091CE0181508093CE013F
:10250000893051F469E08AEB91E06DDD9091C3016F
:10251000891302C085E489838981811106C0C801BD
:10252000DFDD882311F088E489838981811106C069
:10253000C801B1DE882311F084E789838981811184
:1025400033C0F801438D60919F01C8014A96DFDCDA
:10255000682FC801B7DC6BE4C801D5DB8823B1F074
:10256000F090CE01FA94F092CE016F2D8AEB91E0BB
:1025700046DDEF2DF0E09091B901E91BF109E65439
:10258000FE4F9081891302C08BE489838981811178
:102590000BC0F801838191E0980F9383873021F479
:1025A0001382818181508183898181112DC0F8013D
:1025B0008181843049F58381843031F54EE16CE3CB
:1025C000C8014896A4DC8823F9F04EE160919F0190
:1025D000C8014A969CDC682FC80174DC20E0822F79
:1025E00090E0FC01E654FE4FD801A80FB91F1496E5
:1025F0008C91808381E0820F853010F4282FEFCFFB
:102600008093CE0182E589833981332309F4CAC0DE
:1026100020919A0420FFC6C0809199048E7F8B7F01
:102620008093990421FD64C05091B801F090CE01CF
:102630005F113DC040E04517C0F4842F90E061E099
:10264000640FFC01EC55FE4FDC01A654BE4F7081B7
:102650008C91781741F04093B801809199048D7F57
:102660008093990404C0462FE6CF4093B8014513E8
:102670001EC0409193045091940460919504709110
:1026800096048091A0019091A101A091A201B09126
:10269000A301481B590B6A0B7B0B463251056105A0
:1026A000710528F48091990481608093990440E039
:1026B0004F1560F4842F90E0FC01EC55FE4FDC01D7
:1026C000A654BE4F8C9180834F5FF2CF4093B801E8
:1026D0008091930490919404A0919504B0919604F4
:1026E0008093A0019093A101A093A201B093A301B4
:1026F0003435E9F426FD1BC08091CE018530B8F059
:102700008091BC018B3471F0893661F09DEA980F9D
:10271000923040F08D57823028F08091BD01807753
:10272000803729F480919904816080939904B801DD
:10273000CE01019622DE8091990482FF33C0898107
:102740000E94C4058091B901882329F08091CE01AF
:1027500081508093CE01F12CE091CE01FE1648F419
:10276000EF2DF0E0E654FE4F80810E948306F39443
:10277000F3CF8091B901882351F0F0E0E654FE4F89
:1027800080818F7040E361E090E00E944906809173
:102790009A0485FF05C084E30E9418030E94830603
:1027A0000E940F0680919A0482FF6FC080E70E940A
:1027B000C405F801808140E262E090E00E941306C7
:1027C000F801808D40E265E0F0E18F9FC0011124A7
:1027D0000E941306F801818D40E265E0F0E18F9FD1
:1027E000C00111240E941306F801828D40E265E0C9
:1027F000F0E18F9FC00111240E941306F801838D20
:1028000040E265E0F0E18F9FC00111240E941306B1
:10281000F801828140E263E090E00E941306F80133
:10282000818140E263E090E00E941306F801238179
:1028300040E262E087E090E0821B91090E9413066B
:1028400080E20E94C40580919A0485FF08C084E359
:102850000E9418030E94830680E20E94C405F801CA
:102860008381873019F081818F5F8183F12CF8019A
:102870008181F81640F4F801EF0DF11D84810E946A
:102880008306F394F4CF0E940F06F8011082809122
:10289000CF0181508093CF018091D0018F5F843030
:1028A00019F08093D00102C01092D001469889811E
:1028B000843521F48AEB91E00E9464242196E6E0BD
:1028C0000C94412E1F920F920FB60F9211240BB64B
:1028D0000F922F933F934F935F936F937F938F93B9
:1028E0009F93AF93BF93EF93FF9310926F008091EC
:1028F0009A0483FF03C08EE20E94C4058091D10137
:102900009CE1899FF0011124EE52FE4F908193309B
:1029100018F09181923010F4C4DA18C09091CF0170
:10292000933049F480919A0482FFF6CF81E692E0D9
:102930000E940206F1CF9F5F9093CF018F5F84309A
:1029400019F08093D10102C01092D101FF91EF9153
:10295000BF91AF919F918F917F916F915F914F91B7
:102960003F912F910F900BBE0F900FBE0F901F90B5
:1029700018959BED980F973150F496EF960F9D3177
:1029800030F491E0681708F090E0892F089580E016
:1029900008951F920F920FB60F9211240BB60F924B
:1029A000FF920F931F932F933F934F935F936F93D8
:1029B0007F938F939F93AF93BF93CF93DF93EF93C7
:1029C000FF938091BE05882321F082E08093BE05AD
:1029D00063C180912705823021F483E0809327052D
:1029E0005BC1009184001091850064E01695079505
:1029F0006A95E1F7C091D1019CE1C99FE0011124E2
:102A0000CE52DE4F9881943031F40E3208F444C136
:102A10000F3448F0B6C0953031F4073108F43CC1AA
:102A2000083208F0AEC01A990DC09450923038F4B4
:102A300061E0CE0147DA1092850010928400009385
:102A40009F012AC180919F01081B00939E01109253
:102A50008500109284009881983071F42A812111A8
:102A60000BC021E02A83888F8A8F098F0B3B10F4DB
:102A7000000F01C006950B8F9450923020F460E057
:102A8000CE0120DA09C182E086BBF880F11011C0C6
:102A900090919F01953608F0FFC080919E01853688
:102AA00008F0FAC0988F898F81E08A8382E088835A
:102AB000F3C010919E0182E0F81273C000919F0153
:102AC000412F602FCE01489622DA6A818823F9F0DF
:102AD000488D50E09A01220F331F240F351F200F1D
:102AE000311D3595279535952795288F298D30E00F
:102AF000C901880F991F820F931F810F911D959512
:102B0000879595958795898F6F5F6A83C5C0643077
:102B100008F445C020EA3FE0309389002093880004
:102B20008A818C3050F0888D298D30E0280F311D3E
:102B30002536310524F084E027C08A3088F0888D5E
:102B4000298D30E0280F311D253231054CF485E008
:102B5000888328EE33E0309389002093880015C0E5
:102B60008091A004882379F0612F802F02DF8823D1
:102B700051F0688D898DFDDE882329F081E08093F6
:102B800027058FD989C083E088830A8F1B8F19821C
:102B900087E08B831C8282E080936F007DC0188267
:102BA00077CF98E0F91225C081E9810F8D3178F453
:102BB00060E0CE0187D9288D30E0C901880F991FC8
:102BC000820F931F20919F01820F911D4EC0173ECF
:102BD00008F462C061E0CE0175D92A8D30E0C901E8
:102BE000880F991F820F931F20919F01820F911DC3
:102BF00015C000919F01412F602FCE014A9687D9C1
:102C0000882301F161E0CE015DD92A8D30E0C90150
:102C1000880F991F820F931F800F911D959587959F
:102C2000959587958A8F2B8D30E0C901880F991F64
:102C3000820F931F810F911D959587959595879587
:102C40008B8F2AC0412F602FCE01489660D98823F0
:102C500001F160E0CE0136D9288D30E0C901880F3E
:102C6000991F820F931F800F911D959587959595BC
:102C70008795888F298D30E0C901880F991F820FB1
:102C8000931F810F911D9595879595958795898FB0
:102C900003C087E0F81275CFFF91EF91DF91CF91DC
:102CA000BF91AF919F918F917F916F915F914F9164
:102CB0003F912F911F910F91FF900F900BBE0F909E
:102CC0000FBE0F901F901895E091D1018CE1E89F05
:102CD000F0011124EE52FE4F8081811107C081E086
:102CE0009091AD059F3F19F480E0089581E008952B
:102CF00080E690E00E94E7068093A00481E690E0E1
:102D00000E94E70680933105882321F081E28093B9
:102D10009A0437C90895299A0C945A0529980C9455
:102D20005A05A7E0B0E0E7E9F6E10C94242E909173
:102D3000A904943559F420912A0530912B052F5F71
:102D40003F4F30932B0520932A053EC0963459F40B
:102D500020912805309129052F5F3F4F3093290599
:102D60002093280531C0953459F420919D04309169
:102D70009E042F5F3F4F30939E0420939D0424C0F8
:102D80009B3459F420912D0530912E052F5F3F4F34
:102D900030932E0520932D0517C0983459F42091B7
:102DA0002F05309130052F5F3F4F30933005209332
:102DB0002F050AC020919B0430919C042F5F3F4F48
:102DC00030939C0420939B0495E79983882399F082
:102DD000BE016E5F7F4F809131050E94CF06BE011C
:102DE0006C5F7F4F8091A0040E94CF0685E58E83A3
:102DF00086E0D82E02C0DD24D3940E9417040E94DE
:102E0000930316E080E891E086DF80E093E086DFC0
:102E10001150C1F780E093E07EDF80E891E07EDF33
:102E200080E891E078DF299887E390E00E943503FD
:102E300083E00E945F052C988FE70E94A402809196
:102E4000A3048D0D0E94A402CE0101967C018C0189
:102E5000F80181918F010E94A402802F8E198D1597
:102E6000B8F38091A304882339F081EA94E00E94AA
:102E70001B080E94A402F5CF2C9A0E94930381EABA
:102E800094E00E94000815E18AE30E9418038F77FE
:102E900031F0115021F081E00E945F05F5CF71D82B
:102EA0002796E7E00C94402ECF93DF93EC018981C5
:102EB000811107C08091A0040E9483068091310592
:102EC00013C08436A1F48091930490919404A0914E
:102ED0009504B091960440E364E00E9449068EE2B6
:102EE0000E94C405809126050E9483064DC0833749
:102EF00009F04DC040E361E080912A0590912B05D7
:102F00000E9449068EE20E94C40540E361E0809180
:102F10002805909129050E9449068EE20E94C40569
:102F200040E361E080919D0490919E040E944906D7
:102F30008EE20E94C40540E361E080912D059091EE
:102F40002E050E9449068EE20E94C40540E361E01E
:102F500080912F05909130050E9449068EE20E94D3
:102F6000C40540E361E080919B0490919C040E9421
:102F700049068EE20E94C40540E361E08091240589
:102F8000909125050E9449060E940F062CC08936A3
:102F9000D9F441E060EA74E0CE0102960E9487060F
:102FA0006091A00480E690E00E94E20641E061E3C7
:102FB00075E0CE0104960E9487066091310581E696
:102FC00090E00E94E2060FC081EA94E00E940008AF
:102FD00021966991662329F081EA94E00E94050810
:102FE000F8CF80E09EDEDF91CF910895A1E0B0E0C0
:102FF000ECEFF7E10C94232E80912705882309F448
:1030000086C0C0909304D0909404E0909504F09012
:103010009604833009F061C08FE30E941803182FD3
:103020008630C8F082E496E00E9400082C988FEF6A
:103030000E94A40280E00E94A402082F115049F0CF
:1030400080E00E94A402682F82E496E00E940508B6
:10305000F5CF2C9A01C000E00E94C10F1092270505
:10306000053709F054C041E0BE016F5F7F4F85E432
:1030700096E00E948706019759F599818091A004F6
:10308000981326C080914906853571F480914406D5
:10309000882339F082E496E00E941B080E94C40550
:1030A000F5CF0E940F0633C0809144068450809370
:1030B000440684E0809343066AE082E496E00E943E
:1030C0000508E0918F04F091900488E009951FC0F5
:1030D00082E496E00E9400081AC0823059F4809180
:1030E0009F049C2D981B983090F00E94C10F109265
:1030F00027050DC0813059F487E390E00E94350325
:103100000E94A50382E080932705C0929F04219628
:10311000E8E00C943F2ED8DD882361F083E08093B3
:103120002C05809124059091250501969093250505
:103130008093240580912C05815080932C05882351
:1031400021F083E080932605089581E0EACD0E9476
:10315000A503EA980895CF93DF93249A2C9A8EE1E1
:1031600090E00E945A052C988EE190E00E945A054A
:103170002C9A8DE290E00E945A0580E30E94310370
:1031800084E690E00E945A05809173058933C1F46A
:10319000CCECD2E0FE0131966491FE0184910E9454
:1031A0001F032296F2E0CE3FDF07A1F783E30E94E0
:1031B000310384E00E945F05CADFDF91CF9108955B
:1031C000843379F4CAE9D2E0FE0131966491FE01BC
:1031D00084910E941F032296F2E0CC3CDF07A1F706
:1031E000E5CF813319F7C8E6D2E0FE01319664914C
:1031F000FE0184910E941F032296F2E0CA39DF0784
:10320000A1F7D4CFFC01908180917805981318C064
:10321000918180917905981313C0928180917A05EC
:1032200098130EC0938180917B05981309C0808507
:1032300090917C05891302C081E008958F3FE1F3EE
:1032400080E008952FEF662339F06150FC01E60F0E
:10325000F11D30812327F7CF822F0895DC01FC0177
:103260008FE09DE170E09F012A1B3B0B261737077B
:1032700004F52191492F552742279A01329522952D
:103280002F7023273F70232724273527982F88273F
:1032900082279327A901542F44275295507F8427D2
:1032A000952745E0220F331F4A95E1F782279327A0
:1032B000DACF0895A0E0B0E0E0E6F9E10C94242E26
:1032C000EC01E62E469A80917305893339F464E166
:1032D00082E10E941F036E2D660F6D5E86E00E94E4
:1032E0001F030E9493032C988FE70E94A4028091F1
:1032F0007305893321F0FC2E0C2F1D2F50C01FE0C9
:1033000086E60E94A4021150D9F78AEA0E94A4021C
:1033100085E50E94A402DC2E0C2F1D2F802F8D1915
:103320008E15B0F5F801F1908F01F7FE02C080E82C
:1033300001C080E4F6FE02C090E201C090E1980F67
:10334000F5FE02C088E001C084E0890FF4FE02C0EF
:1033500092E001C091E0890F0E94A402F3FE02C036
:1033600080E801C080E4F2FE02C090E201C090E17A
:10337000980FF1FE02C088E001C084E0890FF0FEE2
:1033800002C092E001C091E0890F0E94A402C6CF62
:1033900080E00E94A40280E00E94A4020BC0802F63
:1033A0008F198E1538F4F80181918F0180950E9454
:1033B000A402F5CF2C9A85E30E9418038331D9F338
:1033C0006FEF86E00E941F0380917305893321F41B
:1033D0006EE182E10E941F03BADE46988D8186FF6E
:1033E0002CC08091930490919404A0919504B09185
:1033F00096040696A11DB11D8093740590937505E2
:10340000A0937605B0937705809142028F5F8093F9
:103410004202823060F08AE70E94C40582E70E947F
:10342000C405809142020E9483060E940F0680918B
:103430004202833010F010924202CDB7DEB7E7E0CF
:103440000C94402EA1E4B0E0E8E2FAE10C941F2EC7
:1034500080914302882309F420C18091420288238D
:10346000D9F0409193045091940460919504709127
:1034700096048091740590917505A0917605B091A0
:10348000770584179507A607B70730F46091720592
:1034900082E395E00FDF01C11A9BFFC0469A2C988A
:1034A0008FEF0E94A4028E010F5F1F4F6E0189E013
:1034B000C80ED11C780180E00E94A402F70180832D
:1034C00090917305993311F080958083FFEFEF1A87
:1034D000FF0AEC14FD0479F72C9AB88487EF8B0D62
:1034E000883310F038DED9C06B2D86E00E941F03B0
:1034F00080917305813331F0843341F4ACEDEA2ED1
:10350000F12C08C0FAE5EF2EF12C04C0E8E9EE2E0C
:10351000E3E0FE2E68E3962E78E0A72ECB2CD12C8C
:10352000C7010E945A058BE30E941803882E882346
:1035300031F1282F30E02A0D311DC216D30694F246
:103540002C988FEF0E94A4028A0CA81471F080E0DE
:103550000E94A40290917305993309F08095F801B7
:10356000EA0DF11D8083A394F0CF2C9AAB1438F0B0
:1035700080917305EB2CF12C8133D9F403C09A941C
:1035800079F6F6CFFE013197EE0DFF1DC080D12CEC
:10359000DC2CCC24FE01EE0DFF1D8081C80ED11C59
:1035A0006EEF6B0DC8015ADE21E08C159D0559F4B4
:1035B0000BC06FEF6B0DC80145DEFE01EE0DFF1D68
:1035C00021E09081891320E080914302823751F4F9
:1035D000C80122962FAF229715DE22962FAD229793
:1035E000882399F0222391F08AE70E94C40578018C
:1035F000F70181917F010E9483068E2D801B8B1520
:10360000B8F30E940F0621E001C020E08091430240
:10361000823781F4222371F08E81982F937093303A
:1036200029F49091420291111092420286FF02C049
:1036300087FF07C06FEF86E00E941F0388DD469872
:103640002CC08AE00E945F058D81898780917C056E
:103650008D8383E08E8380917305813349F48BE001
:10366000888769E0C801FADD9A878B876BE007C01D
:103670008AE0888769E0C801E5DD8A876AE0C801D9
:1036800019DE8AE70E94C40581E60E94C405898587
:103690000E9483060E940F06D2CFCF5BDF4FECE083
:1036A0000C943B2EFC012181223711F02D3651F470
:1036B000FC018281811101C084E380937305209312
:1036C000430249CD233771F41092420240E462E391
:1036D00075E002960E94870680937205682F82E348
:1036E00095E0E8CD293671F5FC012281222331F0E5
:1036F00045E068E775E002960C94870680914302E6
:103700000E94C405809173050E94C40580E20E9456
:10371000C405809178050E948306809179050E94F6
:10372000830680917A050E94830680917B050E9422
:10373000830680E20E94C40580917C050E94830676
:103740000C940F06109243020895CF93DF93EA98EA
:10375000249A2C9A8EE190E00E945A052C988EE1D2
:1037600090E00E945A052C9A8DE290E00E945A0542
:1037700080E30E94310384E690E00E945A052C9871
:1037800080E40E94A402CEEFD2E0FE0184910E9468
:10379000A4022196F3E0CB30DF07B9F78091010155
:1037A0000E94A402809102010E94A4028091030160
:1037B0000E94A402C0E0D0E0FE01E25FFC4F8491D1
:1037C0000E94A4022196C931D105B1F72C9A2C98F8
:1037D0008EE70E94A4028BE290E0EC0121960E9409
:1037E000E7060E94A402C333D10511F0CE01F5CF44
:1037F0002C9A83E30E94310381E00E945F0581E0FF
:1038000080939104DF91CF9108956F927F928F9270
:103810009F92AF92CF92EF92FF920F931F93CF930D
:10382000DF93EC018981843769F468E071E0CE01AF
:1038300002960E94B40640E260E0809108019091F7
:10384000090112C0833709F092C18A81823789F455
:1038500064E071E0CE0103960E94B40640E260E0AD
:1038600080910401909105010E9413060E940F06A9
:10387000F3C1469A80914602811116C08091910150
:10388000882329F081E08093450210929101809174
:103890009301882329F081E08093440210929301E0
:1038A00054DF83E00E945F0586E30E9431038AE3D0
:1038B0000E9431038BE30E9431030E949303FE01B7
:1038C00001900020E9F70E2F0C1B0250C12CFAE0EA
:1038D0009F2E7E0132E0E30EF11CA5E0AA2EB8E295
:1038E0008B2E80910401909105012C2D332727FD0B
:1038F00030952817390708F0FBC00132A1F4299A46
:1039000080910801909109010E945A05299880919F
:10391000060190910701FC019E9EC0019F9E900DA3
:1039200011240E945A05370111E010170CF0B7C09E
:10393000F30181913F01299A803309F046C0013299
:1039400001F580910601909107010E945A0529987E
:1039500080910601909107010E945A05299A809151
:103960000601909107010E945A052998809106014D
:10397000909107019C01A29EC001A39E900D11246D
:103980008AC080910801909109010E945A052998E6
:1039900080910801909109019C01220F331F820F31
:1039A000931F0E945A05299A80910801909109015C
:1039B0000E945A05299880910801909109019C0163
:1039C000220F331F820F931F66C0813329F5013206
:1039D00091F480910601909107010E945A0529985F
:1039E0008091060190910701FC01AE9EC001AF9E3F
:1039F000900D11241EC080910801909109019C0135
:103A0000220F331F820F931F0E945A05299880911D
:103A10000801909109012CC00132D1F48091060176
:103A2000909107010E945A05299880910601909172
:103A300007010E945A05299A809106019091070179
:103A40000E945A052998809106019091070123C090
:103A500080910801909109010E945A05299880914E
:103A60000801909109019C01220F331F820F931FBF
:103A70000E945A05299A80910801909109019C01A0
:103A8000220F331F820F931F0E945A05299880919D
:103A90000801909109010E945A051F5F46CF299A9B
:103AA0000132A1F480910601909107010E945A050C
:103AB000299880910601909107019C01829EC00186
:103AC000839E900D11240E945A0510C08091080118
:103AD000909109010E945A0529981FE180910801DF
:103AE000909109010E945A051150C1F7C394F9CE73
:103AF00080914602882341F080919A0481110FC081
:103B000086E30E94310319C080914502882351F059
:103B1000109245020E94400A81E0809391010E9428
:103B2000A5030BC080914402882329F0109244021F
:103B30000E94060C02C00E94C10F469889E60E94AE
:103B4000C40583E70E94C40511E010170CF08ECE67
:103B5000FE01E10FF11D17FDFA958181803319F007
:103B6000813309F086E40E94C4051F5FEECF8237DF
:103B7000B9F480919101882329F081E08093450276
:103B80001092910180919301882329F081E0809324
:103B9000440210929301D9DD81E0809346025CC01B
:103BA000863651F58A81803351F480E1809301019A
:103BB00080EB8093020181E78093030107C043E01B
:103BC00061E071E0CE0102960E94870689E60E94BC
:103BD000C40586E60E94C4058AE30E94C40580915C
:103BE00001010E948306809102010E948306809158
:103BF00003010E9483063ACE883731F58091450251
:103C0000882341F0109245020E94400A81E080938F
:103C1000910111C080914402882329F0109244023E
:103C20000E94060C0EC082E090E00E943503809155
:103C30009A04882319F00E94A50303C086E30E941A
:103C400031031092460208C0833631F468E071E017
:103C5000CE0101960E94B406DF91CF911F910F9182
:103C6000FF90EF90CF90AF909F908F907F906F904C
:103C70000895A2E0B0E0EFE3FEE10C941C2E7C017D
:103C8000FC018181833709F09DC1198287E090E0B2
:103C90000E94502E8C0141E0BE016F5F7F4FC70133
:103CA00002960E9487068981F801808341E0BE0167
:103CB0006F5F7F4FC70104960E9487062981207F8E
:103CC000F801218341E0BE016F5F7F4FC701069677
:103CD0002A830E9487068981F801828341E0BE0120
:103CE0006F5F7F4FC70108960E9487068981F801A0
:103CF000838341E0BE016F5F7F4FC7010A960E9438
:103D000087068981F801868341E0BE016F5F7F4F9E
:103D1000C7010C960E9487068981F801858341E0DE
:103D2000BE016F5F7F4FC7010E960E948706898193
:103D3000F801848380E090E02A814191342F32950C
:103D40003F70342783279F5F9730B9F78F70822B9E
:103D5000F801818387E090E00E94502E5C0187E0AB
:103D6000F801D50101900D928A95E1F7D8011196DD
:103D7000C8010696F8013D91219123272083E81779
:103D8000F907C9F7469A80914902811160C0809174
:103D90009101882329F081E08093480210929101DB
:103DA00080919301882329F081E08093470210924B
:103DB0009301EA98249A2C9A8EE190E00E945A0589
:103DC0002C988EE190E00E945A052C9A8DE290E0AA
:103DD0000E945A0580E30E94310384E690E00E942D
:103DE0005A052C9880E40E94A40267E2E62E63E064
:103DF000F62EF70184910E94A402FFEFEF1AFF0A4A
:103E000020E5E21623E0F206A1F72C9A2C988EE723
:103E10000E94A4028BE290E07C01EFEFEE1AFE0A12
:103E20000E94E7060E94A402F3E3EF16F10411F0EA
:103E3000C701F2CF2C9A83E30E94310381E00E94F4
:103E40005F0581E08093910483E00E945F0586E333
:103E50000E9431038AE30E9431038BE30E94310305
:103E60000E949303299A87EC94E20E945A052998AC
:103E700089E50E945F0585E392E00E945A05712C56
:103E800080910E0190E0272D332727FD30952817CC
:103E900039070CF057C0711002C022E001C027E0C2
:103EA000F12C299A86EF99E02A830E945A052998D5
:103EB00086EF99E00E945A05F3942A81F2168CF35A
:103EC000299A8CEF92E10E945A05299880910A0163
:103ED00090910B010E945A056801612CF6018190B6
:103EE0006F0148E0542E50E8E52EF12C912CC701CB
:103EF00088219921892B49F4299A80910A0190916E
:103F00000B010E945A05299808C0299880910A013E
:103F100090910B010E945A05299A80910A01909173
:103F20000B010E945A05F694E7945A9401F76394A2
:103F3000F7E06F12D3CF299880E090E00E945A05F5
:103F400073949ECF80914902882341F080919A0416
:103F500081110FC086E30E94310319C0809148028D
:103F6000882351F0109248020E94400A81E0809319
:103F700091010E94A5030BC080914702882329F07C
:103F8000109247020E94060C02C00E94C10F469880
:103F900089E50E94C40583E70E94C4057501D12C00
:103FA000F70181917F010E948306D394F7E0DF122D
:103FB000F7CF0E940F06C5010E94E82EC8010E949B
:103FC000E82E6FC08237A9F46EE071E0C701029657
:103FD0000E94B40689E50E94C40582E70E94C405D8
:103FE0008AE30E94C40580910E0140E260E090E007
:103FF0002CC0843779F5F7018281803339F488ED5C
:1040000094E090930D0180930C0106C06CE071E088
:10401000C70102960E94B40680910C0190910D0197
:104020009695879590930B0180930A0189E50E94EC
:10403000C40584E70E94C4058AE30E94C40540E2E7
:1040400066E080910C0190910D010E9413060E9480
:104050000F0627C0883729F580914802882341F050
:10406000109248020E94400A81E08093910111C0A1
:1040700080914702882329F0109247020E94060C83
:104080000EC082E090E00E94350380919A0488235C
:1040900019F00E94A50303C086E30E943103109229
:1040A00049022296EFE00C94382E10929805109257
:1040B000050383E080934F028FEF8093AD05089551
:1040C000E0E5F2E02081211105C0892BB1F080E00C
:1040D00090E00895B2E0EE3FFB07B8F7009751F08B
:1040E0004181DC013C91431305C0428111963C9112
:1040F000431751F0E20FF11DE5CF32E0EE3FF30739
:1041000019F010F0EEEFF2E0CF01089594E0899FEE
:10411000F0011124E255FA4F80818F3F91F0809396
:104120004A02818180934B02828180934C02838179
:1041300080934D0221E04CE064E08AE492E00C942C
:10414000110908958FEF92E0BBDF009799F020915D
:104150004F02FC013081231768F4E20FF11D8081CA
:104160008093010389E78093020381818093030395
:1041700081E0089580E00895EF92FF921F93CF931E
:10418000DF931F92CDB7DEB7182F80919A0486FF78
:1041900018C084E599830E94C405E12E9981F92E07
:1041A00015E0F70181917F010E9483061150C9F744
:1041B00080919A0485FF03C08AEF0E9483060E94C3
:1041C0000F060F90DF91CF911F91FF90EF90089510
:1041D00086E30E94310380910103833511F48BE95A
:1041E00001C08BE40E945F0521E04CE065E08FEFA9
:1041F00092E00E9411090E94A5038FEF92E0BCCFCC
:10420000E7DF80910103893631F081E08093FE027F
:1042100089E28093AD050895CF9385E390E00E94F5
:10422000E70680937E0586E390E00E94E706809390
:10423000AC05CFEFC0939C05C0939E05C093A0052D
:10424000C093A205C093A405C093A605C093A8057A
:10425000C093AA052ADF1092500281E080937D0569
:10426000C093AE058FEF9FEF9093810580938005FB
:104270001092830510928205109285051092840594
:10428000C093B205909387058093860510928905A7
:104290001092880510928B0510928A05C093B6057E
:1042A00090938D0580938C0510928F0510928E054A
:1042B0001092910510929005C093BA0590939305C2
:1042C000809392051092950510929405109297058F
:1042D00010929605CF910895ACE0B0E0E2E7F1E2EC
:1042E0000C94222E6C018C010F5F1F4F45E0BE0124
:1042F0006F5F7F4FC8010E948706843008F0F3C0CB
:1043000099819130A9F4833061F46A8185E390E06A
:104310000E94E2066B8186E390E00E94E2067CDF69
:1043200006C280917E050E9483068091AC059AC0EA
:10433000923009F051C0813039F081E09A8191309A
:1043400009F080E0F82E02C0FF24F394809150021F
:10435000811104C080E593E00E94020600E512E0AE
:10436000F8018081882309F4BBC0F2E00E3F1F07EB
:1043700008F0B6C032E00035130719F080E20E9461
:10438000C405F80181810E948306F80182810E94A0
:104390008306FF20E1F08AE30E94C40593E0F80160
:1043A00080819817A0F4943038F090FF05C08CE21B
:1043B0009C870E94C4059C85EE24E394E90EF801D5
:1043C000E90FF11D80810E9483069E2DE8CFF80140
:1043D0008081080F111DC4CF933049F480E090E034
:1043E0006FDE805592409EEA981B892F3BC090312A
:1043F00071F50CE915E08DE9E82E85E0F82EC12C69
:10440000D12CF80180818F3FA1F0DD2019F080E2EE
:104410000E94C4058C2D0E9483068AE30E94C40575
:10442000F80180810E948306F70180810E94830643
:10443000D3940E5F1F4FC394F2E0EF0EF11C38E0EF
:10444000C312DFCFD1104CC08EE593E047C091314D
:1044500061F480919A0590919B056DE770E00E9450
:10446000F22D862F0E9483063BC09231C9F51EEAC9
:10447000E12E15E0F12E01EB15E0C12CD12CF70156
:1044800080818F3FF1F0DD2019F080E20E94C405A9
:104490008C2D0E9483068AE30E94C405F701808167
:1044A0000E948306F801329780810E948306F801FA
:1044B000319780810E948306F80180810E948306E3
:1044C000D394F4E0EF0EF11CC3940C5F1F4F34E063
:1044D000C312D5CFD11004C08AE593E00E94020632
:1044E0000E940F0624C144E0BE01695F7F4FC801EE
:1044F0000E9487064F81493608F477C07A8558852F
:1045000069857C3009F04BC020E030E080E090E02D
:10451000F901E255FA4F708174131CC0A181A513F3
:1045200019C0A281A61316C02CE023839C01220F80
:10453000331F280F391FF901EE0FFF1FE058FA4F04
:1045400011821082F901EE0FFF1FEE57FA4F118210
:104550001082CFC07F3FD9F44083518362832CE027
:1045600023839C01220F331F280F391FF901EE0FFF
:10457000FF1FE058FA4F11821082F901EE0FFF1F62
:10458000EE57FA4F1182108210927D05B2C001964B
:104590002C5F3F4F2031310509F0BACFC8C080E011
:1045A00090E020E030E0FC01E255FA4FA081A41336
:1045B00015C0A181A51312C0A281A6130FC07383D9
:1045C000F901EE0FFF1FE20FF31FEE0FFF1FEE5773
:1045D000FA4F81E090E091838083A9C02F5F3F4F25
:1045E000049680319105F9F6A2C0E98180917E059B
:1045F000E817C0F190E0F0E09C01295F3F4F2E17D3
:104600003F0784F13A812091AC0532132BC03C81E5
:104610003F3231F442E06CE0C6010E947E0987C05F
:104620002D813C32B1F42093990581E090E0909384
:104630009B0580939A058091970490919804E4E0FB
:104640002E9F800D911D11249093980480939704C0
:104650006EC0E81BF90BEE0FF0E0E456FA4F308322
:10466000218365C080E090E02BDD7C01F8010190A2
:104670000020E9F73197E01BF10BF695E795BB2495
:10468000B394BE0EC7018B0D911D805592408F3A99
:1046900091050CF048C0F701B1928F0121E0822F03
:1046A000880F81502B15D8F441E0B801F601E80FCE
:1046B000F11DCF012C870E9487062C85233058F0EE
:1046C00020FD09C0D80111978C91843621F4F8019E
:1046D000808180937F052F5F0F5F1F4FE0CFFEEF3C
:1046E000EF16F2E0FF0618F5F701E20FF11D108258
:1046F0001EC022E04CE064E0CE0107960E94110942
:104700008FE08A8722E04CE064E0CE0107960E94A9
:10471000110982E08A8722E04CE064E0CE0107962E
:104720000E94110904C084E593E00E9402062C96C1
:10473000E9E00C943E2E0F931F93CF93DF9390915B
:104740007D0591114FC093E0899F80011124F801EC
:10475000EE0FFF1FE058FA4F94E0899FD00111241B
:10476000A255BA4F12969C91977040E850E0491BB1
:1047700051099AEF949F9001959F300D1124359522
:1047800027953595279531832083E801CC0FDD1FD0
:10479000CC57DA4F288139812F5F3F4F39832883E7
:1047A000000F111F0E571A4FF8014081518141151A
:1047B000510529F424303105A9F4A8DC11C0413099
:1047C000510539F4A3DC82E090E0F8019183808305
:1047D00009C04230510531F499DCF8011182108290
:1047E00019821882DF91CF911F910F910895A6E051
:1047F000B0E0EDEFF3E20C94252E2091AC052A8376
:104800001B8280919905882341F0833019F487E752
:1048100091E00FC08DE790E00CC0277030E02A5186
:104820003F4F4DE7429FC001439F900D1124959546
:10483000879590939B0580939A050DE915E0F12CDF
:104840007CE2E72EF801319790819F3FC1F0809183
:104850007E058F0D898380919905882311F0EC8264
:1048600003C09C83F80180818D8321E04CE065E0EA
:10487000CE0101960E941109CE0101967DDCF394D0
:104880000E5F1F4FF8E0FF12DDCF8091990588235E
:1048900041F0833019F41092990503C0825080933F
:1048A00099052696E6E00C94412E8091FE0288231D
:1048B00051F08EDC89E28093AD058091FE0281503B
:1048C0008093FE020895F1CBFF920F931F93CF9335
:1048D000DF93FC01F0800181C281D38114818FE5D7
:1048E0008093AD051092FE0280917E05811105C076
:1048F0008091AC05882309F4A9C08091FF028F1133
:1049000004C080910003801729F0CFDBF092FF02F2
:1049100000930003809198058F3F09F497C0C093DE
:104920000103D093020310930303CC23F1F0811110
:104930001CC080917E05181761F0143651F08DEA85
:104940008C0F823010F0CD3739F48FEF80939805BB
:104950007DC0C43509F47AC08D2F807F803609F080
:1049600075C0D067D093020357C0ECDB811105C03E
:1049700080919805882309F469C08091050381110D
:1049800007C0E0919805F0E0EE59FC4FE49101C0BA
:10499000E82FE33541F4C43531F4909198059E5FDA
:1049A0009093980504C0EC1711F07FDB4FC088236B
:1049B00069F080914F028E5F80934F02C3DB8111BB
:1049C0000EC0809198058E5F809398058091980520
:1049D000E82FF0E0ED59FC4F14911F3F59F48091FE
:1049E0000103809305038436B9F480917F05809399
:1049F000030312C01093010397E790930203909171
:104A00007E05909303038E5F8093980510920503B3
:104A10008E3021F01123D1F0F3DB18C08FEF92E03C
:104A20004FDBDC01009781F02C9130E08EEF92E0BB
:104A3000821B930BA817B90730F4ED01C20FD31FE7
:104A400048814D93F7CF1C9230DBE4CFCDB7DEB772
:104A5000E5E00C94422EFF920F931F93CF93DF93C8
:104A60008C01EC0109900020E9F72197C81BD90BB4
:104A7000FC018181823751F487E390E00E94350385
:104A80000E94A50381E08093BE0526C0833711F5FF
:104A9000FC2E2C988FE70E94A4028C2F82500E943B
:104AA000A402E801229612E01F1528F489910E94C1
:104AB000A4021F5FF9CF2C9A0E9493038AE30E94FD
:104AC00018038F7721F081E00E945F05F7CF0E94E5
:104AD000A50302C01092BE05CDB7DEB7E5E00C9489
:104AE000422EA0E8B0E0E7E7F5E20C94232E809197
:104AF000BE05882309F454C0813011F580919304D8
:104B000090919404A0919504B0919604209106038D
:104B1000281709F445C085E30E941803813129F460
:104B20008AE30E9431030E94A5038091930490912F
:104B30009404A0919504B09196048093060330C02C
:104B40008FE30E941803D82E87FD27C02C988FEF83
:104B50000E94A4028E010F5F1F4F7801C02E8E2D80
:104B6000801B8D1538F480E00E94A402F701819328
:104B70007F01F5CF2C9A81E080938B01802F8C19D7
:104B80008D1530F4F80181918F010E94C405F6CF94
:104B90000E940F068FEF80938B0181E08093BE050A
:104BA000C058DF4FE8E00C943F2E2091420A30912C
:104BB000430A2115310521F4209111013091120190
:104BC00080910F0190911001009741F48DB79EB72D
:104BD0004091130150911401841B950B281739073C
:104BE00018F4821B930B089580E090E0089582E40E
:104BF0000E94C40540E265E08091420A9091430A18
:104C00000E9413060E940F0683E50E94C40540E23D
:104C100065E080911101909112010E9413060E949B
:104C20000F0685E40E94C40540E265E080910F0113
:104C3000909110010E9413060E940F0686E40E94C4
:104C4000C405B3DF40E265E00E9413060C940F0632
:104C50001F920F920FB60F9211240BB60F922F9343
:104C60003F934F935F936F937F938F939F93AF93F4
:104C7000BF93EF93FF938091C105882339F08FEBA9
:104C800095E00E941B088093C60005C08091C1007A
:104C90008F7D8093C100FF91EF91BF91AF919F9164
:104CA0008F917F916F915F914F913F912F910F90D5
:104CB0000BBE0F900FBE0F901F9018951F920F9272
:104CC0000FB60F9211240BB60F922F933F934F9371
:104CD0005F936F937F938F939F93AF93BF93EF9364
:104CE000FF9388B190E4892788B96091C6008091CC
:104CF000C000887121F482E496E00E940508FF91CB
:104D0000EF91BF91AF919F918F917F916F915F9143
:104D10004F913F912F910F900BBE0F900FBE0F90B0
:104D20001F90189597FF04C022E02093C0009F7742
:104D30009093C5008093C40088E98093C10086E009
:104D40008093C20008958091C10085FD09C08091C3
:104D5000C105882329F08091C10080628093C10041
:104D60000895E0918F04F091900481E00995EBCFD4
:104D70000F931F93CF93DF93EC0110E0212F30E0CE
:104D8000F901EE0FFF1FE20FF31FE457FF4F0491ED
:104D9000F901EE0FFF1FE20FF31FE357FF4F2591BD
:104DA0003491002399F0209739F480E20E94C405E1
:104DB000802F0E94C40508C08881801305C0CE01E1
:104DC000F901099581E003C01F5FD8CF80E0DF9132
:104DD000CF911F910F910895CF93C0918B01809334
:104DE0008B01809144068823B1F182E496E00E9411
:104DF0001B088F3FB1F3E09107038A3011F08D302B
:104E0000F9F4EE2371F3F0E0E85FFC4F108288E0E4
:104E100093E0AEDF811111C088E893E00E940206A2
:104E200088E093E00E94F70580E793E00E94020685
:104E300080E090E09DDF0E940F0610920703D1CF23
:104E4000E7FDCFCF91E09E0F90930703F0E0E85F7E
:104E5000FC4F8083C6CFC0938B01CF910895539AA6
:104E60001092CD008CE08093CC001092C80088E9AD
:104E70008093C90086E08093CA00E0918A03F0E045
:104E8000E557FC4F10821092890308951F920F92EC
:104E90000FB60F9211240BB60F928F939F93EF933F
:104EA000FF939091C8008091CE009871D1F49091B9
:104EB0008903911116C08D30A1F0E0918A038A30E8
:104EC00041F4F0E0E557FC4F108281E080938903C4
:104ED00008C091E09E0F90938A03F0E0E557FC4FE5
:104EE0008083FF91EF919F918F910F900BBE0F9058
:104EF0000FBE0F901F90189580918903882379F039
:104F00008AE20E94C4058BE893E00E94F7050E94A4
:104F10000F0610928A0310928B0310928903089552
:104F200021E0FC01E20FF11D3081332341F040917B
:104F3000C80045FFFCCF2F5F3093CE00F2CF8091A9
:104F4000C80085FFFCCF8DE08093CE008091C80023
:104F500085FFFCCF8AE08093CE000895E4E6F0E080
:104F600080818B7F80832F9A84B1806B84B926984F
:104F700080E58CBD8DB581608DBD08958F929F9227
:104F8000BF92CF92DF92EF92FF920F931F93CF9336
:104F9000DF931F92CDB7DEB7D82EC62E7A018901D6
:104FA0002C988FEF99830E94A402BD2C8D2C99819F
:104FB000992E882D8B198C1538F480E00E94A4025C
:104FC000F40181934F01F5CFE114F10469F080E021
:104FD0000E94A402F70180830115110529F080E0E9
:104FE0000E94A402F80180832C9A0F90DF91CF9148
:104FF0001F910F91FF90EF90DF90CF90BF909F9007
:105000008F900895CF93882331F01092D00686E3D5
:105010000E94310307C085E30E9418038D30A9F771
:1050200080E039C085E30E941803C82F8130D1F792
:105030008BE30E9431038AE30E9431031092C5067C
:105040001092C7061092C6061092C9061092C806A2
:1050500024EF37E03093CB062093CA061092CC069B
:10506000C093CD061092CE0680918B048093CF061C
:1050700060E083E00E941F0362E088E00E941F035B
:1050800084E30E94310385E30E9418038D30D9F731
:1050900081E08093D006CF9108950F931F93CF9313
:1050A000DF93182F062F2198229810928B041092CC
:1050B0008C04EA98249A2C9A8EE190E00E945A057A
:1050C0002C988EE190E00E945A052C9A8DE290E097
:1050D0000E945A0580E30E94310384E690E00E941A
:1050E0005A05113031F0123009F06DC0C0EAD3E03A
:1050F00022C0CDEED3E0FE018491813420F0013056
:1051000009F049C01DC0FE0131966491FE018491F1
:105110000E941F032296F4E0C53BDF0761F7EFCF43
:1051200031966491FE0184910E941F032296F4E05F
:10513000C836DF0721F3FE018491813488F3DFCF85
:1051400060E087E10E941F0367E083E00E941F0385
:1051500064E584E0113029F40E941F0366E785E0CE
:1051600010C00E941F036DE385E00E941F0360E5ED
:1051700085E10E941F036BE580E10E941F0368EF39
:1051800081E10E941F0362E082E00E941F036EE241
:1051900080E00E941F0310938B0400938C0483E330
:1051A0000E9431038CE0E5ECF6E0DF011D928A9568
:1051B000E9F786E0ECE3FAE0DF011D928A95E9F772
:1051C00084E00E945F05DF91CF911F910F910895B8
:1051D000CF92DF92FF920F931F93CF93DF931F9293
:1051E000CDB7DEB7182F062F2C988FE799830E9432
:1051F000A402F12EC12E9981D92E8C2D8F198017E2
:1052000030F4F60181916F010E94A402F6CF2C9A2E
:1052100081E00F90DF91CF911F910F91FF90DF9070
:10522000CF9008958DE30C943103A4E0B0E0EAE15F
:10523000F9E20EC590918C04923009F009C1809179
:105240008B04882309F404C18091D006813049F091
:1052500030F0823059F0833009F472C0A2C081E08E
:10526000F6C01A9B9EC09093D0069BC0199B99C014
:1052700020E030E040E050E063E08091CA06909189
:10528000CB067CDE2091CF068091CA069091CB069A
:10529000213071F4BE016F5F7F4F35D28111D3C0D1
:1052A00089818093C50610D3AC0160E081E00EC017
:1052B00040E0BE016F5F7F4FADD28111C4C08981D4
:1052C0008093C50601D3AC0160E080E013D39093D6
:1052D000C7068093C6066091C6067091C7066934FA
:1052E00082E0780708F0AFC086E06F3F710509F0F3
:1052F00050F40E941F0360E088E00E941F0381E0D9
:105300008093CC0602C00E941F038091CA06909130
:10531000CB0603969093CB068093CA068091C6066F
:105320009091C70603979093C9068093C806109280
:10533000CD0683E08093D00667E00E941F0331C052
:10534000199B2FC08091C8069091C9068F3F910587
:1053500009F058F48091CC06811107C060E088E024
:105360000E941F0381E08093CC0620E030E040E003
:1053700050E06FE18091CA069091CB06FFDD8091ED
:10538000C8069091C9064F979093C9068093C806A6
:105390008091CA069091CB064F969093CB0680934E
:1053A000CA061A9953C08091D006823008F44EC0C4
:1053B0001C821B829E012D5F3F4FAE014C5F5F4FF1
:1053C0006091C8068091CA069091CB06D7DD81E036
:1053D0008093CE068091CF06813051F48091C5062E
:1053E00073D2AC0161ED76E084EF97E0EDD209C0B5
:1053F0008091C50669D2AC0161ED76E084EF97E05B
:1054000056D3892B01F582E60E94C40510E08091F5
:10541000D1065AD2212F30E02817390740F4F9017C
:10542000EF52F94F80810E9483061F5FF0CF809179
:105430009A0485FF06C08B810E9483068C810E949E
:1054400083060E940F061092D00602C080E0DADDCB
:105450002496E3E019C4A0E0B0E0E0E3FAE2F3C38D
:105460007C018B01C42EFC0180812ED2EC019C01B9
:10547000215031092232314008F0C9C080918C049A
:10548000823019F4D0908B0401C0D12C61E08C2DB6
:1054900004DE81E0AE01B701C81206C0C8013ED2E9
:1054A000AE0161E081E005C0C8015ED2AE0161E0FD
:1054B00080E020D290933D0A80933C0AB3DE80774F
:1054C00011F086E361C08BE30E94310310933F0A21
:1054D00000933E0A1092410A60913C0A70913D0A85
:1054E0006F3F710509F058F486E00E941F0360E0E9
:1054F00088E00E941F0381E08093400A0AC077275A
:1055000086E00E941F0362E088E00E941F03109261
:10551000400AC0913C0AD0913D0AC134D10510F037
:10552000C0E4D0E06C2F80913E0A90913F0A50DE9B
:1055300080913E0A90913F0A8C0F9D1F90933F0AE5
:1055400080933E0A20913C0A30913D0A2C1B3D0B72
:1055500030933D0A20933C0A232B19F481E0809379
:10556000410A85E30E94310311E003C0203C31056C
:10557000C0F18091410A81113FC019990AC052DEE1
:1055800080778037B1F78BE30E94310382E090E0AF
:1055900043C0C0913C0AD0913D0AC132D10510F000
:1055A000C0E2D0E06C2F80913E0A90913F0A10DE5D
:1055B00020913E0A30913F0A2C0F3D1F30933F0A45
:1055C00020933E0A20913C0A30913D0A2C1B3D0B52
:1055D00030933D0A20933C0A2115310539F610938A
:1055E000410A8091400A8111C4CF60E088E00E94A6
:1055F0001F031093400ABDCF85E30E94180381303A
:10560000D9F7DD2039F062E08D2D47DD03C081E060
:1056100090E002C080E090E0CDB7DEB7E8E02FC3B5
:105620001F93CF93DF93EC018981823789F48A81BC
:105630008823C9F1833719F462E081E004C084371C
:1056400021F462E082E029DD2EC060E080E0FBCF43
:10565000833749F510E0612F70E09B01220F331F63
:10566000C90103968C0F9D1FFC014081442369F002
:10567000FE01E20FF31F2481222339F06F52794F8C
:1056800041E00E9487061F5FE6CF8A81833711F4CD
:1056900041E003C0843701F542E064EF77E081ED3B
:1056A00096E0D9DE19C080918C04823079F4809123
:1056B0008B04813029F0823031F484E993E008C012
:1056C0008AE993E005C080E993E002C08CE893E0AA
:1056D0000E9402060E940F06DF91CF911F9108954C
:1056E000DC01EC91AE2FA295AF70B0E0AB5DBE4F88
:1056F0008C91DB018C93EF70F0E0EB5DFE4F8081CD
:1057000011968C930895CF93DF93EC01A881E981E2
:10571000CA2FC295CF70D0E0CB5EDE4F4881AF700C
:10572000B0E0AB5EBE4F2C91AE2FA295AF70B0E053
:10573000AB5EBE4F8C91EF70F0E0EB5EFE4F908160
:1057400051E02F3F09F050E031E04F3F09F030E0E9
:10575000532B31E08F3F09F030E0352BA9F49F3F08
:1057600099F0D0E44D9FA0011124E0E12E9F90011B
:105770001124242B292BF4E08F9FC0011124282B06
:10578000EB01288380E001C081E0DF91CF91089593
:105790001F93CF93DF93FB0141110FC0EC01A9814F
:1057A000CA2FCF70D0E0CB58DE4F1881A295AF70D2
:1057B000B0E0AB58BE4F5C9101C054E1EC01A88150
:1057C000CA2FCF70D0E0CB58DE4F2881A295AF70A2
:1057D000B0E0AB58BE4F6C91D4E06D9FB001112486
:1057E000922F92959F70962B9083952F96959695D4
:1057F00080E1289F90011124922B9183411106C0D2
:10580000C0E45C9FC0011124812B8283DF91CF9182
:105810001F910895DC0111969C911197411118C0B8
:1058200012968C911297E82FEF73F0E0EB5CFE4F2D
:105830005081E92FEF7024E0E29FF001112482955E
:10584000869586958370E82BEB5CFE4F808102C0C5
:1058500080E050E02C91E22FE37030E1E39FF00113
:10586000112492959F70E92BEB5CFE4F9081269559
:105870002695E22FF0E0EB5CFE4F2081E1E09F3FB8
:1058800009F0E0E031E02F3F09F030E0E32B31E0B8
:105890005F3F09F030E03E2B99F48F3F89F0E0E163
:1058A0002E9F90011124292BFB01208341110AC056
:1058B000F0E18F9FC0011124852BFB01818302C081
:1058C00081E0089580E00895482F50E08A3150F03B
:1058D0009A012A51310984E0359527958A95E1F797
:1058E0002D5F01C022E0CA010196820F911D820F37
:1058F000911D0895882331F0CA0161110196880F26
:10590000991F0895CA01880F991F840F951F9695B6
:105910008795611101C040FD01960895A0E0B0E0B7
:10592000E3E9FCE28EC16A018C0186E9F80181930A
:105930008F01EB017F015B01A40EB51ECA15DB05CB
:1059400041F0B701CE01CCDE2196F2E0EF0EF11C62
:10595000F5CFF601EE0FFF1FE00FF11F85E5808305
:10596000CDB7DEB7EAE089C1A0E0B0E0E9EBFCE248
:1059700069C1EC017B018A0175E5B72E011511059E
:10598000F9F00130110529F441E0BE01C70100DF43
:105990000CC0CE0103966C0140E0BE01C70102308D
:1059A000110531F4F5DEBB82E60100E010E0E6CF40
:1059B000EFDEE60192E0E90EF11C02501109DECFA4
:1059C000CDB7DEB7E9E05AC1A0E0B0E0E9EEFCE215
:1059D00032C14C01EB016A01A12CB12C00E010E0B6
:1059E000612C712CE12CF12CA2E14A2E512CC11416
:1059F000D10409F450C0BE01C40185DE81114EC03E
:105A000082E0C816D10499F08AE0E816F10458F053
:105A1000C7010A97B201E6D031E020E0892B09F0F6
:105A200030E0032F122FA114B10499F005C0A11486
:105A3000B10491F001E010E06094709477248881C3
:105A400090E06816790669F5A12CB12C612C712CB7
:105A500017C00115110581F0930120953095232F72
:105A60003327888190E028173907D9F4AA24A39412
:105A7000B12C00E010E004C06881C3019DD03C015E
:105A800081E0C81AD1088FEFE81AF80A82E0880E80
:105A9000911C2196ACCF80E090E005C081E090E0C1
:105AA00002C082E090E0CDB7DEB7E0E1E0C0A0E068
:105AB000B0E0ECE5FDE2C1C07C01EB013A0100E0A1
:105AC00010E0C12CD12C92E1892E912C611471042B
:105AD00009F46CC081E068167104D1F441E0BE01A4
