:100000000C943A1B0C94581B0C94581B0C94581BC2
:100010000C94581B0C94581B0C94D42F0C944440F3
:100020000C944E400C94581B0C94F1490C94581BA2
:100030000C94581B0C94581B0C94581B0C94581B74
:100040000C94581B0C946D2F0C94581B0C94581B3B
:100050000C94581B0C94311E0C94581B0C94581B78
:100060000C94581B0C94581B0C94581B0C94581B44
:100070000C94581B0C94581B0C94581B0C94581B34
:100080000C94581B0C94581B0C94581B0C94581B24
:100090000C94581B0C94581BCA46FC461148FC464D
:1000A000114844476C471148B947E14742A62143EC
:1000B000F71C46B22947B5294DE743508C395217F2
:1000C00021545C3256282257572158302B61F93E73
:1000D00063154165D321661C446474386C952172A4
:1000E0005D2673584074951E75534577402778BD3B
:1000F0001C0000002A0343005500520000001603B4
:1001000062007500730077006100720065002E00C8
:1001100064006500000004030904090243000201B1
:1001200000803209040000010202010005240001E0
:10013000100524010301042402060524060001071A
:100140000582030800FF09040100020A00000007FD
:100150000504024000000705830240000012011060
:100160000102000008EB034B2000000102DC01202B
:100170002F2000203D2000072E050DD391FF0805FC
:1001800000000C0021656A2D3B1322F862073F181E
:100190001D1CC700B0876BF8B611EA2A001F41008A
:1001A0000D2E2D07D3913D04320000060021656A13
:1001B00055E43023B900070018146C070090876BD2
:1001C000F85611E92A001F410000030F1E262700E0
:1001D0000000030F1E2536386700030F25674060B7
:1001E0005000030F275188838100030F2750C8C395
:1001F000C2002700000000000000670000000000AF
:10020000000050000000000000008100000000001D
:100210000000C20000000000005620312E363620BB
:1002200043555200202F2000203D20004C4F5646C1
:100230000D0A00424F56460D0A004E2F4100454F11
:10024000420D0A004E2F41004E2F41000053530033
:10025000547D7DFFFF4B4B7E7E0020697320756EC1
:100260006B6E6F776E2920557365206F6E65206FFA
:1002700066003F202800436F6E74726173743A0009
:10028000FFFFFFFFFFFFFFFFFFFFFFFFFFFFFFFF7E
:10029000FFFFFFFFFFFFFFFFFFFFFFFFFFFD1FFF50
:1002A000FFF2CFFFFFFFFFFFFFFFFFFFFFFFFFFF9B
:1002B000FFFFFFFFFFFFFFFFFFFFFFFFFFFFFFFF4E
:1002C000FFFFFFFFFFFFFFFFFFFFFFFFFFFFFFFF3E
:1002D000FFFFFFFFFFFFFFFFFFFFFFFFFFFFFFFF2E
:1002E000FFFFFFFFFFFFFFFFFFFFFFFFFFFFFFFF1E
:1002F000FFFFFFFFFFFFFFFFFFFFFFFFFFFFFFFF0E
:10030000FFFFFFFFFFFFFFFFFFFFFFFFFFFFFFFFFD
:10031000FFFFFFFFFFFFFFFFFFFFFFFFFFFFFFFFED
:10032000FFFFFFFFFFFFFFFFFFFFFFFFFFFFFFFFDD
:10033000FFFFFFFFFFFFFFFFFFFFFFFFFFFFFFFFCD
:10034000FFFFFFFFFFFFFFFFFFFFFFFFFFFFFFFFBD
:10035000FFFFFFFFFFFFFFFFFFFFFFFFFFFFFFFFAD
:10036000FFFFFFFFFFFFFFFFFFF0006FFFFFFFFF3B
:10037000FC000FFFFFFFFFFFFFFFFFFFFFFFFFFF7F
:10038000FFFFFFFFF00FFFFFFFFFFFFFFFFFF00F7B
:10039000FFFFFFFFFFFB200FFFFFFFFFF00FFFFF3F
:1003A000FFF00FFFFFFF00FFF00FFFFF0000FFFF58
:1003B000FFFFFFFFFFFFFFFFFFFFFFFFFFFFFFFF4D
:1003C000FFFFFFFFFFFFFFFFFFFFFFFFFFFFFFFF3D
:1003D000FFFFFFFFFFFFFFFFFFFFFFFFFFFFFFFF2D
:1003E000FFFFFFFFFFFFFFFFFFFA100FFFF0FFFF10
:1003F000F0019FFFFFFFFFFFFFFFFFFFFFFFFFFF7A
:10040000FFFFFFFFFFFF0FFFFFFFFFFFFFFFFFFFEC
:10041000FFFF909FFFF35FFFFFF72FFFFFFFFFFF3F
:10042000FFFFFFFFFFFFFFFFFFFFFFFFFFFFFFFFDC
:10043000FFFFFFFFFFFFFFFFFFFFFFFFFFFFFFFFCC
:10044000FFFFFFFFFFFFFFFFFFFFFFFFFFFFFFFFBC
:10045000FFFFFFFFFFFFFFFFFFFFFFFFFFFFFFFFAC
:10046000FFFFFFFFFFFFFFFFFFFFFFFFFFFFFFFF9C
:10047000FFFFFFFFFFFFFFFFFFFFFFFFFFFFFFFF8C
:10048000FFFFFFFFFFFFFFFFFFFFFFFFFFFFFFFF7C
:10049000FFFFFFFFFFFFFFFFFFFFFFFFFFFFFFFF6C
:1004A000FFFFFFFFFFFFFFFFFFFFFFFFFFFFFFFF5C
:1004B000FFFFFFFFFFFFFFFFFFFFFFFFFFFFFFFF4C
:1004C000FFFFFFFFFFFFFFFFFFFFFFFFFFFFFFFF3C
:1004D000FFFFFFFFFFFFFFFFFFFFFFFFFFFFFFFF2C
:1004E000FFF00FFFFFFFFFFFFFF00FFFFFFFFFFF1A
:1004F000FFFFFFFFFA07FFFFFFFFFFFFF00FFFFF08
:10050000FFFFFFFFFFFFF00FFFFFFFFFFFF20DFFF9
:10051000FFFFFFFFF00FFFFFFFF00FFFFFFF00FFE8
:10052000F00FFFFFFF00FFFFFFFFFFFFFFFFFFFFD9
:10053000FFFFFFFFFFFFFFFFFFFFFFFFFFFFFFFFCB
:10054000FFFFFFFFFFFFFFFFFFFFFFFFFFFFFFFFBB
:10055000FFFFFFFFFFFFFFFFFFFFFFFFFFFFFFFFAB
:10056000FFF10CFFFFF0FFFFFFC00FFFFFFFFFFFDA
:10057000FFF00FFFF00FF00FFFFFFFFFFFFF0FFF78
:10058000B11AFFFFFFA107FFFFF81CFFFFC0AFFF7D
:10059000FFFC0BFFFFF0FFFFFFFFFFFFFFFFFFFF71
:1005A000FFFFFFFFFFFFFFFFFFFFFD2FFF92018F08
:1005B000F0000FFFFB50027EFB50015CFFFF800F3D
:1005C000F000000FFFB3019FF0000000FD40004C61
:1005D000FF51028FFFFFFFFFFFFFFFFFFFFFFFFF46
:1005E000FFFFFFFFFFFFFFFFFFA202AFFF5003CFA0
:1005F000FFF403FFF000014DFFE51029F00015CFD7
:10060000F0000000F0000000FFE51029F00FFF00EF
:10061000F000000FFFFF0000F00FF905F00FFFFFE3
:10062000F004F500F006FF00FF92029FF000026E5A
:10063000FF92028FF000016EFF71004BF000000F7F
:10064000F00FFF00F20FFF0113FFFF40F50BFD035A
:1006500050BFFC03F0000000FFF00FFFF36FFFFF3F
:10066000FFF00FFFFF705FFFFFFFFFFFFFD27FFF75
:10067000FFFFFFFFF00FFFFFFFFFFFFFFFFFF00F88
:10068000FFFFFFFFFFF00FFFFFFFFFFFF00FFFFF78
:10069000FFFFFFFFFFFFFFFFF00FFFFFFF00FFFF68
:1006A000FFFFFFFFFFFFFFFFFFFFFFFFFFFFFFFF5A
:1006B000FFFFFFFFFFFFFFFFFFFFFFFFFFF00FFF49
:1006C000FFFFFFFFFFFFFFFFFFFFFFFFFFFFFFFF3A
:1006D000FFFFFFFFFFFFFFFFFFF00FFFFFF0FFFF38
:1006E000FFF00FFFFFFFFFFFFFF00FFFF00FF00F16
:1006F000FFF08D0CFD40000F1CC1FFFFFF00EAFF63
:10070000FFFFFFFFFF50CFFFFFFD04FF56E0E74F65
:10071000FFF00FFFFFFFFFFFFFFFFFFFFFFFFFFFE8
:10072000FFFFF5AFFB05E70AFFF00FFFF3AEF9049B
:10073000F3AEFB01FFFA000FF00FFFFFFC04EE7FAA
:10074000FFFFFB01F10BFC01F607F809FFFFFFFFBC
:10075000FFFFFFFFFFFFFFFFFFFFFFFFFFFFFFFFA9
:10076000FF6ED00FF26EFA2FFFF000FFF00FFB02CA
:10077000FE11BFD5F00FE20BF00FFFFFF00FFFFFF0
:10078000FD11CFD7F00FFF00FFF00FFFFFFFFF00BD
:10079000F00FB02FF00FFFFFF000F100F000EF00BE
:1007A000FB05E70AF00FF804FB05E70AF00FF80372
:1007B000F50AFEB4FFF00FFFF00FFF00F50CFD048B
:1007C00032FFFF31FE02F30DD01FF20DFFFFFC00E0
:1007D000FFF00FFFFB0FFFFFFFF00FFFFC000AFF12
:1007E000FFFFFFFFFFFFFFFFFFFFFFFFF00FFFFF18
:1007F000FFFFFFFFFFFFF00FFFFFFFFFFFF00FFF07
:10080000FFFFFFFFF00FFFFFFFFFFFFFFFFFFFFFF7
:10081000F00FFFFFFF00FFFFFFFFFFFFFFFFFFFFE6
:10082000FFFFFFFFFFFFFFFFFFFFFFFFFFFFFFFFD8
:10083000FFFFFFFFFFF00FFFFFFFFFFFFFFFFFFFC7
:10084000FFFFFFFFFFFFFFFFFFFFFFFFFFFFFFFFB8
:10085000FFF00FFFFFF0FFFFFFF00FFFFFFFFFFFB5
:10086000FFF00FFFF00FF00FFFC0D81FF10C0E7F4D
:100870001CD0FFFFFF40BFFFFFFFFFFFFF20EFFF88
:10088000FFFF01FFE70006DFFFF00FFFFFFFFFFFA5
:10089000FFFFFFFFFFFFFFFFFFFFE1FFF40DFD0282
:1008A000FFF00FFFFFFFFF00FFFFFB02FFB0500F45
:1008B000F00FFFFFF40DFFFFFFFFF209F40BFB0247
:1008C000F00EFF02FFF00FFFFFF00FFFFFFFFF939F
:1008D000FFFFFFFFF39EFFFFFFFFB02F93E5030F26
:1008E000FFD040CFF00FFF00F509FFFFF00FFD0331
:1008F000F00FFFFFF00FFFFFF50AFFFFF00FFF0003
:10090000FFF00FFFFFFFFF00F00D01EFF00FFFFF03
:10091000F001C000F0009F00F30DFD02F00FFF009A
:10092000F30DFD02F00FFF00F00EFFFFFFF00FFFD1
:10093000F00FFF00FB08FA0950F21F23FF80506FF1
:10094000F609A05FFFFFE10BFFF00FFFFF19FFFFAC
:10095000FFF00FFFE11E21EFFFFFFFFFFFFFFFFF93
:10096000FF9103DFF00503EFFF92029FFE30400F7F
:10097000FF7005EFF000000FFE30400FF005009F04
:10098000F0000FFFFF0000FFF00F908FFF00FFFF50
:1009900004005107F005009FFF7006FFF00503EF0C
:1009A000FE30400FFF00500FFD4003AFF000000F7E
:1009B000F00FF00FF20FF01F14FFFF51F509A04FD9
:1009C000F20EE01FF000000FFFF00FFFFFF0FFFF3F
:1009D000FFF00FFFFFFFFFFFFFF00FFFF00FF00F23
:1009E000D0000000F1090FFFB10AFA68FFA03FFF35
:1009F000FFFFFFFFFF00FFFFFFFF00FFE70006DF35
:100A0000FFF00FFFFFFFFFFFFFFFFFFFFFFFFFFFF5
:100A1000FFFF78FFF00E1F00FFF00FFFFFFFFA0748
:100A2000FFF0004EFE15F00FF000028FF104004EB3
:100A3000FFFFC01FFF50004EF00EFF00FFF00FFF42
:100A4000FFF00FFFFFFB5002F0000000F3005CFF1F
:100A5000FFFB04EF3B76E70FFF80A06FF00FFB0377
:100A6000F10EFFFFF00FFE00F00FFFFFF00FFFFF92
:100A7000F10EFFFFF00FFF00FFF00FFFFFFFFF0081
:100A8000F0020BFFF00FFFFFF0036200F0061F0003
:100A9000F10EFF00F00FFE00F10EFF00F00FFE0060
:100AA000F3018DFFFFF00FFFF00FFF00FE03F50DC8
:100AB00080E00E05FFF100EFFE0110EFFFFF409F09
:100AC000FFF00FFFFF82FFFFFFF00FFF51EFE14F3D
:100AD000FFFFFFFFFFFFFFFFFF5EC02FF009A03FFA
:100AE000F904EE7FF509A00FF809B05FFFF00FFFE2
:100AF000F609A00FF00AD00FFFF00FFFFFFF00FF75
:100B0000F00B06FFFF00FFFF00D00D01F00AD00F31
:100B1000F809A06FF009A03FF509A00FFF006FAF23
:100B2000F10CFD5FFFF00FFFF00FF00FF70CD05F3F
:100B300042FFFF32FE1120EFF80BC06FFFFFC01F16
:100B4000FFA01FFFFFF0FFFFFFF309FFFFFFFFFF05
:100B5000FFF10FFFFFFFFFFFFF06D0BFFD40006E5C
:100B6000FFA66BFFFA050AF0FFFFFFFFFF00FFFF84
:100B7000FFFF00FF56E0E74F00000000FFFFFFFF10
:100B8000FF0000FFFFFFFFFFFFFE1EFFF00F1F0033
:100B9000FFF00FFFFFFFB05FFFFFF705F15FF00F02
:100BA000F4CFE506F008F903FFFF308FF807F806E9
:100BB000F408F900FFFFFFFFFFFFFFFFF82017DF3A
:100BC000F0000000FFD71028FFF10EFF1E1EFE0FE1
:100BD000FF30F02FF000002EF00FFFFFF00FFF00AE
:100BE000F000000FF000000FF00FF000F000000028
:100BF000FFF00FFFFFFFFF00F00005FFF00FFFFF0A
:100C0000F0080600F00D0C00F00FFF00F00FF804E4
:100C1000F00FFF00F00FF804FE40004EFFF00FFF52
:100C2000F00FFF00FF11F21FA0B01A08FFF705FF39
:100C3000FF8006FFFFF606FFFFF00FFFFFE0BFFF9C
:100C4000FFF00FFFFFFFFFFFFFFFFFFFFFFFFFFFB3
:100C5000FFFFF00FF00EE00FF10DFFFFF10EE00FC0
:100C6000F10EF00FFFF00FFFF10EE00FF00FF00F9D
:100C7000FFF00FFFFFFF00FFF0012FFFFF00FFFF5E
:100C800000F00F00F00FF00FF10EE01FF00EE00F7C
:100C9000F10EE00FFF00EFFFF104AEFFFFF00FFFDA
:100CA000F00FF00FFC0890BF80F11F06FFA009FFB6
:100CB000FC0780CFFFFD11CFF001BFFFFFF0FFFF6A
:100CC000FFFC100FF9106DE7FFF32FFFFFFFFFFF91
:100CD000FD0BB0EFFFFF0803A6BFB11AF10E11D054
:100CE000FFFFFFFFFF20EFFFFFFE01FFFFF0FFFF11
:100CF00000000000FFFFFFFFFF0000FFFFFFFFFFFE
:100D0000FFF96FFFF00EFF00FFF00FFFFFFB04FF86
:100D1000FFFFFE00F0000000FFFFFE00F00EFE00EF
:100D2000FFFC00FFF00EFF00FE400300FFFFFFFF8F
:100D3000FFFFFFFFF007FFFFFFFFFFFFFFFFF900CF
:100D4000FFF00FFF0F0FFF0FFE00000EF00FFB0371
:100D5000F10EFFFFF00FFF00F00FFFFFF00FFFFF9E
:100D6000F10EFF00F00FFF00FFF00FFFFFFFFF008D
:100D7000F00720DFF00FFFFFF00C0900F00F340048
:100D8000F00EFF00F000026EF00EFF00F000004ECB
:100D9000FFFE8102FFF00FFFF00FFF00FF50D03F7A
:100DA000D063540AFFE100EFFFF00EFFFF904FFF0A
:100DB000FFF00FFFFFF54FFFFFF00FFFFFFFFFFFFB
:100DC000FFFFFFFFFFFFFFFFFB30000FF00FF00FF3
:100DD000F00FFFFFF00FF00FF000000FFFF00FFF1C
:100DE000F00FF00FF00FF00FFFF00FFFFFFF00FF0D
:100DF000F0000EFFFF00FFFF00F00F00F00FF00FFC
:100E0000F00FF00FF00FF00FF00FF00FFF00FFFFEB
:100E1000FB30008FFFF00FFFF00FF00FFF0350EFDC
:100E2000C0C00C0AFFF00EFFFF1331FFFFD10DFF12
:100E3000FFA01FFFFFF0FFFFFFF209FFF6EE8107A3
:100E4000FFFFFFFFFFFFFFFF0000000CF7FF0F0099
:100E5000FFFF1CC0F00E9002FFFFFFFFFF50DFFFFF
:100E6000FFFD04FFFFFFFFFFFFF00FFFFFFFFFFF8E
:100E7000FFFFFFFFFFFFFFFFFFF1EFFFF30DFD029D
:100E8000FFF00FFFFFA04FFFFFFFFF00FFFFF00F7E
:100E9000FFFFFE00F30EFF00FFF308FFF00EFE0061
:100EA000FFFFFE03FFFFFFFFFFFFFFFFF82027DF2D
:100EB000F0000000FFD72028FFFFFFFF0E1EFE0FEF
:100EC000FC07F80AF00FFF00F509FFFFF00FFC0325
:100ED000F00FFFFFF00FFFFFF50BFF00F00FFF001B
:100EE000FFF00FFFFFFFFF00F00FB02FF00FFFFF2D
:100EF000F00FFF00F00FA000F40DFD02F00FFFFF58
:100F0000F40DFD02F00FE40BFFFFFE00FFF00FFFFA
:100F1000F00FFF00FFB0708FE007900CFF70605F74
:100F2000FFF00FFFFC02EFFFFFF00FFFFFFC0EFFD3
:100F3000FFF00FFFFFFFFFFFFFFFFFFFFFFFFFFFC0
:100F4000F10CF00FF00EF00FF20EFFFFF10EE00FBC
:100F5000F10EFFFFFFF00FFFF10EE00FF00FF00FAB
:100F6000FFF00FFFFFFF00FFF00C05FFFF00FFFF8A
:100F700000F00F00F00FF00FF10EE01FF00EF00F79
:100F8000F10EE00FFF00FFFFFFFE900FFFF00FFFDD
:100F9000F00FF00FFF4113FFE072370DFF8006FFE7
:100FA000FF5105FFFE10CFFFFFF00FFFFFF0FFFF27
:100FB000FFF00EFFFFFFFFFFFFF00FFFFFFFFFFF40
:100FC000F34E08FFF06E0B02FFFF1CD0F507E006A2
:100FD000FFFFFFFFFFC09FFFFFFC0BFFFFFFFFFFB7
:100FE000FFF00FFFFFF00FFFFFFFFFFFFFF00FFF0E
:100FF000FFA5FFFFFB05F70AFFF00FFFF905FFFF55
:10100000F4BFE704FFFFF00FF4DFE606FA08F90586
:10101000FFC00FFFF607F804FF6EE50BFFF00FFFB0
:10102000FFF00FFFFFFB5002F0000000F3005CFF39
:10103000FFF00FFF4A66F70FF70BFD04F00FFB01FF
:10104000FE01BFE5F00FE40BF00FFFFFF00FFFFF15
:10105000FD02DE00F00FFF00FFF00FFFF4BEFA010B
:10106000F00FF40AF00FFFFFF00FFF00F00FF10098
:10107000FB05F70AF00FFFFFFB05F708F00FFD0176
:10108000E3AEFB02FFF00FFFF509FA03FFE000DF1C
:10109000F00BD00EFE02F30DFFF00FFFF11DFFFF6E
:1010A000FFF00FFFFFFF36FFFFF00FFFFFFFFFFF17
:1010B000FFFFFFFFFFFFFFFFF10DA00FF009A03FB3
:1010C000F904EE7FF509A00FF807FE5FFFF00FFFB0
:1010D000F508A00FF00FF00FFFF00FFFFFFF00FF6C
:1010E000F00F40DFFF30AFFF00F00F00F00FF00F08
:1010F000F809A06FF008A04FF509A00FFF00FFFF4F
:10110000F4DFD01FFFF10DFFF10CB00FFFA008FFBF
:10111000F006900FFE0230DFFFB00BFFF10CFFFF77
:10112000FFF00FFFFFF0FFFFFFF00FFFFFFFFFFFDC
:10113000FFF00FFFFFFFFFFFE0AC0EFFFB50005E74
:10114000FFFFB10AFE500402FFFFFFFFFFF25FFF47
:10115000FFF72FFFFFFFFFFFFFF00FFFFFF00FFF75
:10116000FFFFFFFFFFF00FFFFF2DFFFFFF91018F3C
:10117000F000000FF0000000FB40027FFFFFF00FC7
:10118000FB30028FFF91006EFF408FFFFF70016EFA
:10119000FFA103AFFFF00FFFFFF00FFFFFFFFE9374
:1011A000FFFFFFFFF29EFFFFFFF00FFFA2E4030F20
:1011B000F20FFF01F000003CFFE51019F00004CF32
:1011C000F0000000F00FFFFFFFC40015F00FFF005C
:1011D000F000000FFB50005CF00FFD01F00000007C
:1011E000F00FFF00F00FF800FF91018FF00FFFFFED
:1011F000FF91003FF00FFF904B40015EFFF00FFFAB
:10120000FE50004EFFF101FFF10EF00FF50BFD0354
:10121000FFF00FFFF0000000FFF00FFFFFFFA0FF47
:10122000FFF00FFFFFFFFFFFFFFFFFFFFFFFFFFFCD
:10123000FA10400FF00502EFFF92019FFE30400FC1
:10124000FF7002AFFFF00FFFFE30400FF00FF00F06
:10125000F000000FFFFF00FFF00FC03FFFC3000FC3
:1012600000F00F00F00FF00FFF7005FFF00502EF28
:10127000FE30400FFF00FFFFFB3003BFFFF9100FF0
:10128000FA00400FFFD00DFFF30BD02FF509B03F50
:10129000FFE00FFFF000000FFFF00CFFFFF0FFFF7B
:1012A000FFD00FFFFFFFFFFFFFFFFFFFFFFFFFFF6D
:1012B000FFFFFFFFFFFF0FFFFFFFFFFFFFFFFFFF2E
:1012C000FFFFFFFFFFFD1FFFFFF2BFFFFFFFFFFF5D
:1012D000FFFFFFFFFFB0AFFFFFFFFFFFFFFFFFFFBD
:1012E000FC3FFFFFFFFFFFFFFFFFFFFFFFFFFFFFD1
:1012F000FFFFFFFFFFFFFFFFFFFFFFFFFFFFFFFFFE
:10130000FFFFFFFFFFFFFFFFFFFFFFFFFFFFFFFFED
:10131000FFB0AFFFFFFFFFFFFFFFFFFFFFFFFFFF7C
:10132000FFFFFFFFF54DFB5FFFFFFFFFFFFFFFFF2D
:10133000FFFFFFFFFFFFFFFFFFFFFFFFFFFFFFFFBD
:10134000FFFFFFFFFFFFFFFFFFFFFFFFFFFFFFFFAD
:10135000FFFFFFFFFFFFFFFFFFFFFFFFFFFFFFFF9D
:10136000FFFFFFFFFFFFFFFFFFFFF20BFFFFFFFF8E
:10137000FFFFFFFFFFFFFFFFFFFFFFFFFFFFFFFF7D
:10138000FFFFFFFFFFFFFFFFFFFFFFFFFFFFFFFF6D
:10139000FFF0006FFFFFF19FFC000FFFFFFFFFFF5B
:1013A000FFFFFFFFFFFFFFFFFFFFFFFFFFFFFFFF4D
:1013B000FFFFFFFFFFFFFFFFFFFFFFFFFFFFFFFF3D
:1013C000FFFFF00FFFFFFFFFFFFFFFFFFFFF00FF2B
:1013D000FFFFFFFFFFFFFFFFFFFFFFFFFFFFFFFF1D
:1013E000FFFFFFFFF00FFFFFFFFFF00FFFFFFFFF0B
:1013F000FFFFFFFFFFFFFFFFFFFFFFFFFFFFFFFFFD
:10140000FFFFFFFFFFFFFFFFFFE04FFFFFFFFFFFBB
:10141000FFF9100FFFF0FFFFF0017FFFFFFFFFFF5D
:10142000FFFFFFFFFFFFFFFFFFFFFFFFFFFF0FFFBC
:10143000FFFFFFFFFFFFFFFFFFFFFFFFFFFFFFFFBC
:10144000FFFFFFFFFFFFFFFFFFFFFFFFFF38FFFF73
:10145000FFFFFFFFFFFFFFFFF3CFFFFFFFFFFFFFD8
:10146000FFFFFFFFFFFFFFFFFFFFFFFFFFFFFFFF8C
:10147000FFFFFFFFFFFFFFFFFFFFFFFFFFFFFFFF7C
:10148000FFFFFFFFFFFFFFFFFF38FFFFFFFFFFFF33
:10149000FFFFFFFFFFFFFFFFFFFFFFFFFF81006F69
:1014A000FFFFFFFFFFFFFFFFFFFFFFFFFFFFFFFF4C
:1014B000FFFFFFFFFFFFFFFFFFFFFFFFFFFFFFFF3C
:1014C000FFFFFFFFFFFFFFFFFFFFFFFFFFFFFFFF2C
:1014D000FFFFFFFFFFFFFFFFFFFFFFFFFFFFFFFF1C
:1014E000FFFFFE3EFFFFFFFFFFFFFFFFFFFFFFFFCE
:1014F000FFFFFFFFFFFFFFFFFFFFFFFFFFFFFFFFFC
:10150000FFFFFFFFFFFFFFFFFFFFFFFFFFFFF82FC2
:10151000FFFFFFFFFFFFFFFFFFFFFFFFFFFFFFFFDB
:10152000FFFFFFFFFFFFFFFFFFFFFFFFFFFFFFFFCB
:10153000FFFFFFFFFFFFFFFFFF6EA03FFFFFFFFF6B
:10154000FFFFFFFFFFFB01FFFFFFFFFFFFFFFFFFAD
:10155000FFFFFFFFFFFFFFFFFFFFFFFFF00FFFFF9A
:10156000FFFFF00FFFFFFFFFFFFFFFFFFFFFFFFF8A
:10157000FFFFFFFFFFFFFFFFFFFFFFFFFFFFFFFF7B
:10158000FF70BFFFFFFFFFFFFFFFFFFFFFF0FFFF49
:10159000FFFFFFFFFFFFFFFFFFFFFFFFFFFFFFFF5B
:1015A000FFFFFFFFFFFFFFFFFFFFFFFFFFFFFFFF4B
:1015B000FFFFFFFFFFFFFFFFFFFFFFFFFFFFFFFF3B
:1015C000FFFFFFFFFFFFFFFFFFFFFFFFFFFFFFFF2B
:1015D000FFFFFFFFFFFFFFFFFFFFFFFFFFFFFFFF1B
:1015E000FFFFFFFFFFFFFFFFFFFFFFFFFFFFFFFF0B
:1015F000FFFFFFFFFFFFFFFFFFFFFFFFFFFFFFFFFB
:10160000FFFFFFFFFFFFFFFFFFFFFFFFFFFFFFFFEA
:10161000FFFFFFFFFFFFFFFFFFFFFFFFFFFFFFFFDA
:10162000FFFFFFFFFFFFFFFFFFFFFFFFFFFFFFFFCA
:10163000FFFFFFFFFFFFFFFFFFFFFFFFFFFFFFFFBA
:10164000FFFFFFFFFFFFFFFFFFFFFFFFFFFFFFFFAA
:10165000FFFFFFFFFFFFFFFFFFFFFFFFFFFFFFFF9A
:10166000FFFFFFFFFFFFFFFFFFFFFFFFFFFFFFFF8A
:10167000FFFFFFFFFFFFFFFFFFFFFFFFFFFFFFFF7A
:10168000FFFFFFFFFFFFFFFFFFFFFFFFFFFFFFFF6A
:1016900000000000FFFFFFFFFFFFFFFFFFFFFFFF56
:1016A000FFFFFFFFFFFFFFFFFFFFFFFFFFFFFFFF4A
:1016B000FFA103DFFFFFFFFFFFFFFFFFF0002BFF96
:1016C000FFFFFFFFFFFFFFFFFFFFFFFFFFFFFFFF2A
:1016D000FFFFFFFFF00FFFFFFFFFF00FFFFFFFFF18
:1016E000FFFFFFFFFFFFFFFFFFFFFFFFFFFFFFFF0A
:1016F000FFFFFFFFFFFFFFFFF005FFFFFFFFFFFF03
:10170000FFFFFFFFFFFFFFFFFFFFFFFFFFFFFFFFE9
:10171000FFFFFFFFFFFFFFFFFFFFFFFFFFFFFFFFD9
:10172000FFFFFFFFFFFFFFFFFFFFFFFFFFFFFFFFC9
:10173000FB05FFFFFFFFFFFFFFFFFFFFFFFFFFFFB7
:10174000FFFFFFFFFFFFFFFFFFFFFFFFFFFFFFFFA9
:10175000FFFFFFFFFFFFFFFFFFFFFFFFFFFFFFFF99
:10176000FFFFFFFFFFFFFFFFFFFFFFFFFFFFFFFF89
:10177000FFFFFFFFFFFFFFFFFFFFFFFFFFFFFFFF79
:10178000FFFFFFFFFFFFFFFFFFFFFFFFFFFFFFFF69
:10179000FFFFFFFFFFFFFFFFFFFFFFFFFFFFFFFF59
:1017A000FFFFFFFFFFFFFFFFFFFFFFFFFFFFFFFF49
:1017B000FFFFFFFFFFFFFFFFFFFFFFFFFFFFFFFF39
:1017C000FFFFFFFFFFFFFFFFFFFFFFFFFFFFFFFF29
:1017D000FFFFFFFFFFFFFFFFFFFFFFFFFFFFFFFF19
:1017E000FFFFFFFFFFFFFFFFFFFFFFFFFFFFFFFF09
:1017F000FFFFFFFFFFFFFFFFFFFFFFFFFFFFFFFFF9
:10180000FFFFFFFFFFFFFFFFFFFFFFFFFFFFFFFFE8
:10181000FFFFFFFFFFFFFFFFFFFFFFFFFFFFFFFFD8
:10182000FFFFFFFFFFFFFFFFFFFFFFFFFFFFFFFFC8
:10183000FFFFFFFFFFFFFFFFFFFFFFFFFFFFFFFFB8
:10184000FFFFFFFFFFFFFFFFFFFFFFFF70AFFFFF87
:10185000FFFFFFFFFFFFFFFFFFFFFFFFFFFFFFFF98
:10186000FFFFFFFFFFFFFFFFFFFFFFFFFFFFFFFF88
:10187000FFFFFFFFFFFFFFFFFFFF00FFFFFFFF0076
:10188000FFFFFFFFFFFFFFFFFFFFFFFFFFFFFFFF68
:10189000FFFFFFFFFFFFFFFFFFFFFFFFFFFFFFFF58
:1018A000FFFFFFFFFFFFFFFFFFFFFFFFFFFFFFFF48
:1018B000FFFFFFFFFFFFFFFFFFFFFFFFFFFFFFFF38
:1018C000FFFFFFFFFFFFFFFFFFFFFFFFFFFFFFFF28
:1018D000FFFFFFFFFFFFFFFFFFFFFFFFFFFFFFFF18
:1018E000FFFFFFFFFFFFFFFF00FFFFFF00FF00FF05
:1018F000FFFD04F40EFFFF0FFFFFE403EFFFFFFF08
:10190000E71029FFFFFFE14FFFFFFFE02FFFFF4040
:10191000EFFFFFFFFF0FFFFFFFFFFFFFFFFFFFFFD7
:10192000FFFFFFFFFFFFFFFFFFFFFFFFFFFFFFD0F6
:101930002FFFE4003DFFFFC400FFFFFC61004AFFF2
:10194000FC61003AFFFFFFF300FFF0000000FFFF23
:10195000F71029FFF00000000FFFA30039FFFFB3CD
:10196000004DFFFFFFFFFFFFFFFFFFFFFFFFFFFF38
:10197000FFFFFFFFFFFFFFFFFFFFFFFFFB51016EB8
:10198000FFFFFFFFFFFFFFFC00AFFFF0000028FF9D
:10199000FFFA40039FF000139FFFF00000000FF0DC
:1019A0000000000FFFFA3003AFF00FFFF00FFF0051
:1019B0000000FFFFFF00000FF00FFF402FF00FFFB0
:1019C000FFFFF002FF200FF003FFF00FFFE4004DD8
:1019D000FFF0000139FFFFE4004DFFF0000038FF89
:1019E000FFA2004BFFF00000000FF00FFFF00FF11F
:1019F00008FFA01F10FFFFFF00F404FF602F502F0F
:101A0000FFF403F00000000FFFF0001FFFF40EFFD3
:101A1000FFFFFF3000FFFFFFE201EFFFFFFFFFFFCF
:101A2000FFFFF50EFFFFFFFFFFFFFFF00FFFFFFFC0
:101A3000FFFFFFFFFFFFFFFFF00FFFFFFFFFFFFFB5
:101A4000FB2000FFFFFFFFFFFFF00FFFFFFFFFFF87
:101A500000FFFFFFFF00FFFFF00FFFFFFFF0000F91
:101A6000FFFFFFFFFFFFFFFFFFFFFFFFFFFFFFFF86
:101A7000FFFFFFFFFFFFFFFFFFFFFFFFFFFFFFFF76
:101A8000FFFFFFFFFFFFFFFFFFFFFFFFFFFFFFFF66
:101A9000FFFFFFFFFFFFFFFFFFFFFFFFFFFFFFFF56
:101AA000FFFFFFFFFFFFFFFFFFFFB200FFFFFF0091
:101AB000FFFFFF002AFFFFFFFFFFFFFFFFFF00FF09
:101AC000FFFF00FF00FFFFFA09F01FFFFF0FFFFFFE
:101AD00037E92FFFFFFF500000FFFFFF52FFFFFF1E
:101AE000FF70BFFFFFC05FFFFFFFFF0FFFFFFFFFA4
:101AF000FFFFFFFFFFFFFFFFFFFFFFFFFFFFFFFFF6
:101B0000FFFFFFFFFF50AFFE100001EFFF0000FFDF
:101B1000FFF00000008FF00000008FFFFF9000FF3B
:101B2000F0000000FFFF400000FFF00000000FF990
:101B30000000007FFB000000EFFFFFFFFFFFFFFF43
:101B4000FFFFFFFFFFFFFFFFFFFFFFFFFFFFFFFFA5
:101B5000FFFFF0000004FFFFD5103CFFFFF7005F20
:101B6000FFF00000006FFF7000000FF0000004FFA6
:101B7000F00000000FF00000000FFF7000000FF0F9
:101B80000FFFF00FFF000000FFFFFF00000FF00F3E
:101B9000F800EFF00FFFFFFFF000EE000FF000EF96
:101BA000F00FFE100001EFF00000007FFF100001B9
:101BB000EFF00000006FF9000000FFF00000000FE0
:101BC000F00FFFF00FF504FF703F30EFFFFE01FC58
:101BD00000EE00BFD00AFFB00DF00000000FFFF0D4
:101BE0000FFFFFFC07FFFFFFFFFF00FFFFFF4000AD
:101BF0003EFFFFFFFFFFFFFFFF24FFFFFFFFFFFF91
:101C0000FFF00FFFFFFFFFFFFFFFFFFFFFFFF00FE2
:101C1000FFFFFFFFFFFFF20000FFFFFFFFFFFFF0EE
:101C20000FFFFFFFFFFF00FFFFFFFF00FFFFF00FB1
:101C3000FFFFFFF0000FFFFFFFFFFFFFFFFFFFFFB2
:101C4000FFFFFFFFFFFFFFFFFFFFFFFFFFFFFFFFA4
:101C5000FFFFFFFFFFFFFFFFFFFFFFFFF00FFFFF93
:101C6000FFFFFFFFFFFFFFFFFFFFFFFFFFFFFFFF84
:101C7000FFFFFFFFFFFFFFFFFFFFFFFFFFFFFFFF74
:101C800020BFFFFFFF00FFFFFFFC01FFFFFFFFFF83
:101C9000FFFFFFFF00FFFFFF00FF00FFFFF40ED07C
:101CA0006FFE50000FFF0FFF0FFFFFFF00CFD5FFAC
:101CB000FFFFFFFFFFFFFE01FFFFFFF20EFFFFF53B
:101CC0007D0E74FFFFFFFFFFFFFFFFFFFFFFFFFF22
:101CD000FFFFFFFFFFFFFFFFFFFFFE01FFF902DE37
:101CE000207FFF3B00FFFFF39DFE701FF38DFE7012
:101CF0000FFFFD0200FFF00FFFFFFFFA01CFD5FF3E
:101D0000FFFFFF705FF107EE801FF305EE706FFFBE
:101D1000FFFFFFFFFFFFFFFFFFFFFFFFFFFFFFFFD3
:101D2000FFFFFFFFFFFFFFFFF3AEFB00FFFB000025
:101D300000DFFFF3001FFFF00FFF900FFC009EFB82
:101D40005FF00FEA109FF00FFFFFFFF00FFFFFFFA4
:101D5000FC009EFC5FF00FFFF00FFFFF00FFFFFF96
:101D6000FFFFF00FF00FB00AFFF00FFFFFFFF000D2
:101D7000BC000FF0008FF00FF902DE207FF00FFEA5
:101D8000801FF902EE308FF00FFE800FF109FEB4D4
:101D9000FFFFFF00FFFFF00FFFF00FF902FF307FA2
:101DA00040BFFFFC03FF406802FFF601FF204FFF2A
:101DB000FFFE004FFFF00FFFFFFF31EFFFFFFFFFC0
:101DC00000FFFFF504E505FFFFFFFFFFFFFFFFFF3B
:101DD000FFFFFFFFFFFFFFF00FFFFFFFFFFFFFFF12
:101DE000FFFFFFFFF00FFFFFFFFFFFFFF00EFFFF02
:101DF000FFFFFFFFFFF00FFFFFFFFFFFFFFFFFFFF2
:101E0000FFFFFFFFF00FFFFFFFFFF00FFFFFFFFFE0
:101E1000FFFFFFFFFFFFFFFFFFFFFFFFFFFFFFFFD2
:101E2000FFFFFFFFFFFFFFFFFFFFFFFFFFFFFFFFC2
:101E3000FFFFF00FFFFFFFFFFFFFFFFFFFFFFFFFB1
:101E4000FFFFFFFFFFFFFFFFFFFFFFFFFFFFFFFFA2
:101E5000FFFFFFFFFFFF00FFFFFFFF00FFFFFFFF90
:101E600000FFFFFFFFFFFFFFFFFF00FFFFFF00FF7F
:101E700000FFF000000000F500000FFF48F92FFF01
:101E8000FFFF20BFFFFFFFFFFFFFFFFFFA06FFFF7F
:101E9000FFF808FFFFFE70006DFFFFFF00FFFFFF70
:101EA000FFFFFFFFFFFFFFFFFFFFFFFFFFFFFFFF42
:101EB000F609FFF30BFFC02FFFFF00FFFFFFFFFF3F
:101EC000F00FFFFFFFF00FFFF40D00FFF00FFFFF1B
:101ED000FFF40AFFFFFFFFFFFE00DFF00EFFF00F31
:101EE000F00EFFF02FFFFFFFFFFFFFFFFFFFFFFFE1
:101EF000FFFFF93FFFFFFFFFFFF38EFFFFFFFFFF35
:101F0000FE00FFE105EE504FFFF0120EFFF00FFF55
:101F1000F00FF506FFFFFFF00FFFA03FF00FFFFFF0
:101F2000FFF00FFFFFFFF507FFFFFFF00FFFF00FC0
:101F3000FFFF00FFFFFFFFFFF00FF00E107FFFF02D
:101F40000FFFFFFFF00268200FF0021FF00FF40BED
:101F5000FFC02FF00FFFF00FF40BFFC02FF00FFFAB
:101F6000F00FF00EFFFFFFFFFF00FFFFF00FFFF08D
:101F70000FFD00FF10BF808F00F904FFC0010BFFB1
:101F8000FE009A00EFFFFFF400EFFFF00FFFFFFFEE
:101F9000C08FFFFFFFFF00FFFF806FFF805FFFFF2D
:101FA000FFFFFFFFFFFFFFFFFFB40027FFF00D3033
:101FB00029FFFFF72003BFFFA203C00FFFD4003AA1
:101FC000FFF0000000FFFFB202B00FF00D3005EF90
:101FD000FF0000FFFFFF0000FFFFF00FF700AFFF63
:101FE000F00FFFFFF0070A30AFF00D3005EFFFD420
:101FF000004CFFF00D3029FFFFA203C00FFF00D4FB
:10200000000FFF820015BFF0000000FFF00FFFF08F
:102010000FF208FFA01F00FFFFFF00F501FF104FA8
:10202000F305FF801FF00000000FFFFF00FFFFFF20
:10203000FF00FFFFFFFF00FFFFFFFFFFFFFFFFFFAE
:1020400000FFFFFFFFFFFFFFE000000000F00C0FAC
:10205000FFFFE403EFC78FFFC01EFFFFFFFFFFFF7F
:10206000FFFFF40BFFFFFFFC03FFFFFE70006DFF9F
:10207000FFFF00FFFFFFFFFFFFFFFFFFFFFFFFFF6F
:10208000FFFFFFFFFFFFE00FFFF10EFFE00FFFFF7D
:1020900000FFFFFFFFFFC04FFFFFFE802FFF909F5D
:1020A00000FFF001015DFFF1091018FFFFFFF803C9
:1020B000FFF407FE803FF00EFFE00FFFFF00FFFF81
:1020C000FFFF00FFFFFFFFC5000FF00000000FF053
:1020D000005CFFFFFFFFF208FF803FFFE01FFFC033
:1020E000470BFFF00FFFA02FF10DFFFFFFF00FFFD9
:1020F000E00FF00FFFFFFFF00FFFFFFFF10DFFFFFD
:10210000FFF00FFFF00FFFFF00FFFFFFFFFFF00FDB
:10211000F00202FFFFF00FFFFFFFF00723400FF078
:102120000A0BF00FF10EFFE00FF00FFE801FF10E13
:10213000FFE00FF00FFE801FF2018EFFFFFFFF0098
:10214000FFFFF00FFFF00FFE00EE00EFA04E00E5E6
:1021500007FFF4002FFFFF800106FFFFFFA00AFF2B
:10216000FFF00FFFFFFFF21FFFFFFFFF00FFFFFF6A
:10217000FFFFFFFFFFFFFFFFFFFFFFFFFFFFFF006E
:1021800000006FF0010000BFFE2000000FFC000007
:10219000100FFD000000AFF0000000FFFD00000088
:1021A0000FF00100005FFF0000FFFFFF0000FFFFD6
:1021B000F00F800BFFFFF00FFFFFF00000002FF08B
:1021C0000100005FFD000000DFF0010000BFFC0027
:1021D00000100FFF0010000FF50000000FF00000CE
:1021E00000FFF00FFFF00FF703FF405F30DFFFFE4F
:1021F00002FE108A00EFFA00FF306FF00000000FBF
:10220000FFFF00FFFFFFFF00FFFFFFFF00FFFFFFDB
:10221000FFFFFFFFFFFF00FFFFFFFFFFFFFFFFA02C
:102220009F01FFF2040BFFFFFFFFA68EFFFF60047C
:10223000FFFFFFFFFFFFFFFFF10EFFFFFFFE00FFAD
:10224000FFF56E0E74FFFFFF00FFFFFFFFFFFFFFB4
:10225000FFFFFFFFFFFFFFFFFFFFFFFF808FFFF08C
:102260000F33F00FFFFF00FFFFFFFFFE20EFFFF037
:102270000004EFFE03FF00FFF0000000DFF00000AD
:10228000008FFFFFF10CFFFE400004EFF205EF703E
:102290000FFFFF00FFFFFFFF00FFFFFE820038EF90
:1022A000F00000000FFE930028EFFFFF305FFF30CB
:1022B000BD30500FFF90AC07FFF0000002CFF00FD1
:1022C000FFFFFFF00FFFF00FF0000000FFF0000035
:1022D00000FFF00FFFFFFFF00000000FFFFF00FF07
:1022E000FFFFFFFFF00FF00000EFFFF00FFFFFFF19
:1022F000F00A00800FF00E04F00FF00FFFF00FF067
:102300000000007FF00FFFF00FF0000000AFFB00B7
:10231000003BFFFFFF00FFFFF00FFFF00FFF20BCAF
:1023200001FFC02D00C309FFFC00BFFFFFF1000E3D
:10233000FFFFFE105FFFFFF00FFFFFFFFB08FFFF37
:10234000FFFF00FFFFFFFFFFFFFFFFFFFFFFFFFF9C
:10235000FFFFFFFFFF4BEFB01FF004EE502FF70120
:10236000BEEB5FF404EE500FF509EFB02FFFF00F56
:10237000FFFFF503EE400FF005EF900FFFFF00FFAA
:10238000FFFFFF00FFFFF00900BFFFFFF00FFFFF9F
:10239000F00C00C00FF005EF900FF504EE503FF089
:1023A00004EE502FF404EE500FFF004DFFFFF00A33
:1023B000FFDA3FFFF00FFFFFF00FFFF00FFD00FF10
:1023C00010BF70BF00FC06FFB0010AFFFF00BF0096
:1023D000DFFFFFFA00AFFFFF00FFFFFFFF00FFFF7F
:1023E000FFFF00EFFFFA1039EE6FFFFF21FFFFFF45
:1023F000FFFFFFFFFF40EC06FFFB10002EFFFE86F5
:10240000BFFFFFF907006F00FFFFFFFFFFFFF00FA7
:10241000FFFFFFFF00FFFFFFFF0FFFFFF0000000C7
:102420000FFFFFFFFFFFFFFFFFFFFFFFFFFFFFFFAC
:10243000FFFE00EFFFF00F33F00FFFFF00FFFFFF85
:10244000FFD10BFFFFF00002CFF30EFF00FFF4BE41
:10245000FC303FF005EE701FFFFF902FFFFE2000C5
:1024600002DFFA0000000FFFFF00FFFFFFFF00FF89
:10247000FFF0028DFFFFFFFFFFFFFFFFFFE8200FD0
:10248000FFF506FFFF00E300000FFF40EF02FFF043
:10249000000001BFF00FFFFFFFF00FFFF00FF00093
:1024A0000000FFF0000000FFF00FF0000FF0000050
:1024B000000FFFFF00FFFFFFFFFFF00FF000107F96
:1024C000FFF00FFFFFFFF00D00C00FF00F50E00F07
:1024D000F00FFFF00FF0000038FFF00FFFF00FF0EB
:1024E000000005FFFFE50000AFFFFF00FFFFF00F5A
:1024F000FFF00FFF507904FFD00B13A00CFFFB007F
:102500009FFFFFFA008FFFFFF501EFFFFFF00FFFC6
:10251000FFFFFF21FFFFFFFF00FFFFFFFFFFFFFFA8
:10252000FFFFFFFFFFFFFFFFFFFFFFFA30000FF08D
:102530000DFFE00FF10DFFFFFFF00DFFE00FF100C9
:1025400000000FFFF00FFFFFF10DFFD00FF00EFFA7
:10255000F00FFFFF00FFFFFFFF00FFFFF00006FF8F
:10256000FFFFF00FFFFFF00F00F00FF00EFFF00F76
:10257000F10DFFE01FF00DFFE00FF00DFFD00FFF9A
:1025800000EFFFFFF300247DFFFFF00FFFFFF00FD0
:10259000FFF00FFF00DD00FFC08D00C90BFFF5004D
:1025A0004FFFFF503C01FFFFFFB00AFFFFF902FFA2
:1025B000FFFFFF00FFFFFFFF408FFFF00000000F55
:1025C000FFFF32FFFFFFFFFFFFFF000000000EFFD5
:1025D000FA0103FFA7EFE303EFF20FB00901FFFFDA
:1025E000FFFFFFFFF00FFFFFFFFF00FFFFFFFF0FE9
:1025F000FFFFF00000000FFFFFFFFFFFFF00000FD5
:10260000FFFFFFFFFFFFFFF906FFFFF10EFFE00FE7
:10261000FFFF00FFFFFFFD10BFFFFFFFFE702FF069
:102620000000000FFFFFFFE00FF10EFFE00FFFFFC4
:1026300010BFFFF406EE802FFF9101700FFFFFFF28
:10264000FFFFFFFFFFFFFFF0038EFFFFFFFFFFFF16
:10265000FFFFFFE8300FFFF00EFFFF00F00CD00F80
:10266000FF000000FFF00FFF902FF10DFFFFFFF0C4
:102670000FFFE00FF00FFFFFFFF00FFFFFFFF10D67
:10268000F0000FF00FFFF00FFFFF00FFFFFFFFFF55
:10269000F00FF00B900EFFF00FFFFFFFF00F00F0B8
:1026A0000FF00FC0800FF10EFFE00FF00FFFFFFFE4
:1026B000F10EFFE00FF00FE700EFFFFFFB301FFF11
:1026C000FF00FFFFF00FFFF00FFFA03508FFF0083D
:1026D00046800DFFF3001FFFFFFF00FFFFFFA00B71
:1026E000FFFFFFF00FFFFFFFFFA09FFFFFFF00FFB7
:1026F000FFFFFFFFFFFFFFFFFFFFFFFFFFFFFFFFEA
:10270000FE2000000FF00FFFF00FF00FFFFFFFF0B3
:102710000FFFF00FF00000000FFFF00FFFFFF00FB2
:10272000FFF00FF00FFFF00FFFFF00FFFFFFFF00B4
:10273000FFFFF00000EFFFFFF00FFFFFF00F00F0D2
:102740000FF00FFFF00FF00FFFF00FF00FFFF00F83
:10275000F00FFFF00FFF00FFFFFFFE4000009FFFA4
:10276000F00FFFFFF00FFFF00FFF508A03FFE04A6A
:1027700001950EFFFC00AFFFFFD00606FFFFFB0038
:102780009FFFFF001DFFFFFFFF00FFFFFFFFE200B5
:10279000FFF5DFB4018FFFFFFFFFFFFFFFFFFFFF2C
:1027A000000000000EFFFF0E00FFFFFF48F92FF0B2
:1027B0000EF90005FFFFFFFFFFFFF10EFFFFFFFE19
:1027C00001FFFFFFFFFFFFFFFFFF00FFFFFFFFFF16
:1027D000FFFFFF00000FFFFFFFFFFFFFFFF10EFFF6
:1027E000FFF30BFFC02FFFFF00FFFFFFB00BFFFF4A
:1027F000FFFFFFF00FF00000000FFFFFFFE00FF3FF
:102800000EFFF00FFFFB02FFFFF00FFFF00FFFFFC7
:10281000FFC03FFFFFFFFFFFFFFFFFFFFFFE820044
:1028200039EFF00000000FFF940028EFFFF00FFFDA
:10283000FF00E300000FFD000000DFF00FFFF00FCE
:10284000F507FFFFFFF00FFFA03FF00FFFFFFFF0C6
:102850000FFFFFFFF508FFF00FF00FFFF00FFFFF76
:1028600000FFFFFFFFFFF00FF00FE106FFF00FFF8B
:10287000FFFFF00FFFF00FF00FF2100FF30BFFC090
:102880002FF00FFFFFFFF30BFFC02FF00FFF206FA4
:10289000FFFFFFE00FFFFF00FFFFF00EFFF00FFF55
:1028A000D0120CFFF0028A300FFFC0110AFFFFFFA9
:1028B00000FFFFFE105FFFFFFFF00FFFFFFFFFF1C4
:1028C0001FFFFFFF00FFFFFFFFFFFFFFFFFFFFFFF7
:1028D000FFFFFFFFFFFFF206EFE00FF00DFFE00F3D
:1028E000F10DFFFFFFF10DFFE00FF10EFFFFFFFF06
:1028F000F00FFFFFF10DFFE00FF00FFFF00FFFFFF4
:1029000000FFFFFFFF00FFFFF00C503FFFFFF00F45
:10291000FFFFF00F00F00FF00FFFF00FF10DFFE0E1
:102920000FF00DFFE00FF10DFFE00FFF00FFFFFFC5
:10293000FFFFEA601FFFF00FFFFFF00FFFE00FFF48
:10294000B03409FFF11735432FFFF2001FFFFFF2EC
:10295000000DFFFFB009FFFFFFFA02FFFFFFFF00BE
:10296000FFFFFFFF409FFFFFFFFFFFFFFFFFFFFF96
:10297000FFFFFFFFFFFFFA09F01FFFF4BE0C00FF8F
:10298000FFFF0FFF0FF204DE200EFFFFFFFFFFFF30
:10299000F40BFFFFFFFD03FFFFFFFFFFFFFFFFFF44
:1029A00000FFFFFFFF00FFFFFFFFFFFFFFFFFF0034
:1029B000FFFFFFA05FFFFFF902EE307FFFFF00FF88
:1029C000FFFA00BFFFFFF3AEFE800FFFFFFF00FF27
:1029D000F4BEFD502FF806EE702FFFF209FFFFF155
:1029E00007EF801FFF5DFC208FFFFF00FFFFFFFF51
:1029F00000FFFFFFFFB5000FF00000000FF0005CCC
:102A0000FFFFFFFFFFFFFF309D30500FFA00FF1068
:102A10008FF00FFFA00FFC008EFC5FF00FFA109FED
:102A2000F00FFFFFFFF00FFFFFFFFB00AFE00FF025
:102A30000FFFF00FFFFF00FFFFF39EFE900FF00F60
:102A4000F900EFF00FFFFFFFF00FFFF00FF00FF9AD
:102A5000000FF902EE407FF00FFFFFFFF902EE409A
:102A60006FF00FFFA00FF39DFFA01FFFFF00FFFF00
:102A7000F405EE702FFFF0000FFFF300CE000FFF04
:102A8000308902FFFFFF00FFFFF501EFFFFFFFF0BE
:102A90000FFFFFFFFFF90AFFFFFF00FFFFFFFFFF30
:102AA000FFFFFFFFFFFFFFFFFFFFFFFFF00BFE60D9
:102AB0000FF004EE502FF601CFFB5FF404EE500F41
:102AC000F504DFEB4FFFF00FFFFFF404EE400FF0D3
:102AD0000FFFF00FFFFF00FFFFFFFF00FFFFF00FF2
:102AE000E009FFFFF10AFFFFF00F00F00FF00FFF0A
:102AF000F00FF504EE503FF004EE502FF404EE50CA
:102B00000FFF00FFFFFFF39DFFB00FFFF00CFFFF73
:102B1000F108FE600FFFE0010EFFF50379205FFF73
:102B2000902307FFFFF9001FFFFB009FFFFFFFFF40
:102B300000FFFFFFFF00FFFFFFFF00EFFFFFFFFFB2
:102B4000FFFFFFFF00FFFFFFFFFFFFFFF40ED05F5F
:102B5000FFF0000005FFFFFF38E92FFA0000000D2D
:102B6000FFFFFFFFFFFFFA06FFFFFFF808FFFFFF71
:102B7000FFFFFFFFFFFF00FFFFFFFF00FFFFFFFF63
:102B8000FFFFFFFFFF00FFFFFF20DFFFFFFE100042
:102B900000EFF00000000FF00000000FF000000058
:102BA0007FFFFFFF00FFF0000000DFFE100000AF1E
:102BB000FFC01FFFFFF80000007FFF000002FFFFC3
:102BC000FF00FFFFFFFF00FFFFFFFFFFE93FFFFFE9
:102BD000FFFFFFF29EFFFFFFFFF00FFFFF902FFFB1
:102BE000FFFFF503FF503FF00000004FFF700000B3
:102BF0000FF0000004FFF00000000FF00FFFFFFFD8
:102C0000FF5000000FF00FFFF00FFF000000FFF07B
:102C10000000006FF00FFF106FF00000000FF00FCA
:102C2000FFF00FF00FFE000FFE100001EFF00FFF9E
:102C3000FFFFFF100000DFF00FFFE009F0000000D1
:102C40007FFFFF00FFFFFB000000AFFFF3002FFF3F
:102C5000F400FF002FFC00EE00BFFFFF00FFFFF0BD
:102C60000000000FFFF00FFFFFFFFFFF12FFFFFF4D
:102C700000FFFFFFFFFFFFFFFFFFFFFFFFFFFFFF63
:102C8000FFFFF50000000FF0010000BFFE10000084
:102C90000FFC0000000FFD0000000FFFF00FFFFF12
:102CA000FC0000000FF00FFFF00FF00000000FFF1E
:102CB000FF00FFFFF00FF900EFFFF50000FFF00F3E
:102CC00000F00FF00FFFF00FFD000000DFF001003B
:102CD00000BFFC0000000FFF00FFFFFFF00000003E
:102CE0003FFFF30000FFF60000000FFFF3002FFF8F
:102CF000FA00CD00AFFE00AB00EFFFFE006FFFF06B
:102D00000000000FFFFF00FFFFFFFF00FFFFFFFFBE
:102D100000FFFFFFFFFFFFFFFFFF00FFFFFFFFFFC1
:102D2000FFFFF11F90AFFFFB50006FFFFFFFE303BA
:102D3000EFFFB3003502FFFFFFFFFFFFFE01FFFFC4
:102D4000FFF20EFFFFFFFFFFFFFFFFFFFFFFFFFF91
:102D5000FE01FFFFFFFFFFFFFFFFFF00FFFFFC0380
:102D6000FFFFFFFFE4003DFFF00000000FF0000058
:102D7000000FFB510039FFFFFFFF00FFFB50015D1B
:102D8000FFFFD4002AFFFF408FFFFFFF920028FFC4
:102D9000FFA2017EFFFFFF00FFFFFFFE01FFFFFF1D
:102DA000FFFFFFFFFFFFFFFFFFFFFFFFFFFFFFF042
:102DB0000FFFFFF103BFE7BFF108FFA01FF0000006
:102DC00016EFFFFA3002AFF000038FFFF0000000B3
:102DD0000FF00FFFFFFFFFF82004CFF00FFFF00F01
:102DE000FF000000FFFB610028FFF00FFF900EF0D6
:102DF0000000000FF00FFFF00FF00FFF500FFFE487
:102E0000003CFFF00FFFFFFFFFE40004FFF00FFFA7
:102E1000F502FB510038FFFFFF00FFFFFFA2002972
:102E2000FFFFF7005FFFF802FF403FF405FF602F50
:102E3000FFFF00FFFFF00000000FFFF00FFFFFFF9C
:102E4000FFFF90BFFFFF00FFFFFFFFFFFFFFFFFF40
:102E5000FFFFFFFFFFFFFFFFFF6003C00FF00D202C
:102E600019FFFFE72003AFFFA102C00FFFD5100439
:102E7000BFFFF00FFFFFFFB202A00FF00FFFF00F38
:102E8000F00000000FFFFF00FFFFF00FFF204FFFDB
:102E9000FE3000FFF00F00F00FF00FFFF00FFFD338
:102EA000003CFFF00D3029FFFFA203C00FFF00FF21
:102EB000FFFFFC520026EFFFFD3000FFFF5003C074
:102EC0000FFFF9007FFFFD00EF00EFF501FF103F5E
:102ED000FFFF10DFFFF00000000FFFFF00FFFFFF0C
:102EE000FF00FFFFFFFF00FFFFFFFFFFFFFFFFFFF0
:102EF000FFFFFFFFFFFFFFFFFFFFFFFFFFFFFF0FD2
:102F0000FFFFFFFFFFFFFFFFFFFFFFFFFFFFFFFFD1
:102F1000FFFFFF60BFFFFFC05FFFFFFFFFFFFFFF7F
:102F2000FFFFFFFFFFFFF906FFFFFFFFFFFFFFFFB0
:102F3000FFFFFFFFF30CFFFFFFFFFFFFFFFFFFFFA0
:102F4000FFFFFFFFFFFFFFFFFFFFFFFFFFFFFFFF91
:102F5000FFFFFFFFFFFFFFFFFFFFFFFFFFFFFFFF81
:102F6000FFFFFFFFFFFFFFFFFFFFFFFFFFFFFFFF71
:102F7000FFF906FFFFFFFFFFFFFFFFFFFFFFFFFF60
:102F8000FFFFFFFFFFFFFFFFFFFD1000003FFFFF00
:102F9000FFFFFFFFFFFFFFFFFFFFFFFFFFFFFFFF41
:102FA000FFFFFFFFFFFFFFFFFFFFFFFFFFFFFFFF31
:102FB000FFFFFFFFFFFFFFFFFFFFFFFFFFFFFFFF21
:102FC000FFFFFFFFFFFFFFFFFFFFFFFFFFFFFFFF11
:102FD000FFFFFFFFFFFFFFFFFFFFFFFFFFFFFFFF01
:102FE000FC00AFFFFFFFFFFFFFFFFFFFFFFFFFFF43
:102FF000FFFFFFFFFFFFFFFFFFFFFFFFFFFFFFFFE1
:10300000FFFFFFFFFFFFFFFFFFFFFFFFFFFFFFFFD0
:10301000FFF00FFFFFFFFFFFE02FFFFF00FFFFFFAD
:10302000FFFFFFFFFFFFFFFFFFFFFFFFFFFFFFFFB0
:10303000FFFFFFFFFFFFFFFFFFFFFFFFFFFFFFFFA0
:10304000FFFFFFFFFFFFFFFFFFFFFFFFFF4CFEA0A3
:103050001FFFFFFFFFFFFFFFFFFFFFFFFC00FFFF62
:10306000FFFFFFFFFFFFFFFFFFFFFFFFFFFFFFFF70
:10307000FFFFFFFFFFFFFFFFFFF00FFFFFFFFFFF5F
:10308000FFF00FFFFFFFFFFFFFFFFFFFFFFFFFFF4F
:10309000FFFFFFFFFFFFFFFFFFFFFFFFFFFFFFFF40
:1030A000FFFFFFFFFFFFFFFA01FFFFFFFFFFFFFF33
:1030B000FFFF00FFFFFFFF00FFFFFFFF00FFFFFF1D
:1030C000FFFFFFFFFFFFFFFFFFFFFFFFFFFFFFFF10
:1030D000FFFFFFFFFF0FFFFFFFFFFFFFFFFFFFFFF0
:1030E000FFFFFFFFFFFFFFFFFFE02FFFFF50EFFF9E
:1030F000FFFFFFFFFFFFFFFFFFFFFFFFF20DFFFFDF
:10310000FFFFFFFFFFFFFFFFFFFFFFFFFFFFFFFFCF
:10311000FFFFFFFFFFFFFFFFFFFFFFFFFFFFFFFFBF
:10312000FFFFFFFFFFFFFFFFFFFFFFFFFFFFFFFFAF
:10313000FFFFFFFFFFFFFFFFFFFFFFFFFFFFFFFF9F
:10314000FFFFFFFFFFFFFFF20DFFFFFFFFFFFFFF8E
:10315000FFFFFFFFFFFFFFFFFFFFFFFFFFFFFFFF7F
:10316000E72003CFFFFFFFFFFFFFFFFFFFFFFFFF92
:10317000FFFFFFFFFFFFFFFFFFFFFFFFFFFFFFFF5F
:10318000FFFFFFFFFFFFFFFFFFFFFFFFFFFFFFFF4F
:10319000FFFFFFFFFFFFFFFFFFFFFFFFFFFFFFFF3F
:1031A000FFFFFFFFFFFFFFFFFFFFFFFFFFFFFFFF2F
:1031B000FFFFFFFFFFFFFFC3EFFFFFFFFFFFFFFF6B
:1031C000FFFFFFFFFFFFFFFFFFFFFFFFFFFFFFFF0F
:1031D000FFFFFFFFFFFFFFFFFFFFFFFFFFFFFFFFFF
:1031E000FFFFFFFFFFFFFFF0001FFFFFFFFFFFFFDD
:1031F000FF3000FFFFFFFFFFFFFFFFFFFFFFFFFFAD
:10320000FFFFFFFFFFFFFFFFFFFFFFFFFFFFFFFFCE
:10321000FFFFFFFFFFFFFFFFFFFFFFFFFFFFFFFFBE
:10322000FFFFFF0000006FFFFFFFFFFFFFFFFFFF3B
:10323000FFF00003FFFFFFFFFFFFFFFFFFFFFFFFA8
:10324000FFFFFFFFFFFFFFFFFFFFFFFFFFFFFFF09D
:103250000FFFFFFFFFFFFFF00FFFFFFFFFFFFFFF6D
:10326000FFFFFFFFFFFFFFFFFFFFFFFFFFFFFFFF6E
:10327000FFFFFFFFFFFFFFFFFFFFFFFFFF0007FF55
:10328000FFFFFFFFFFFFFFFF20BFFFFFFF00FFFF6C
:10329000FFFC01FFFFFFFFFFFFFFFFFFFFFFFFFF3F
:1032A000FFFFFFFFFFFFFFFFFFFFFFFFFFFFFFFF2E
:1032B000FFFFFFFFFFFFFFFFFFFFFFFFFFFFFFFF1E
:1032C000FFFFFFFFFFFFFFFFFFFFFFFFFFFFFFFF0E
:1032D000FFFFFFFFFFFFFFFFFFFFFFFFFFFFFFFFFE
:1032E000FFFFFFFFFFFFFFFFFFFFFFFFFFFFFFFFEE
:1032F000FFFFFFFFFFFFFFFFFFFFFFFFFFFFFFFFDE
:10330000FFFFFFFFFFFFFFFFFFFFFFFFFFFFFFFFCD
:10331000FFFFFFFFFFFFFFFFFFFFFFFFFFFFFFFFBD
:10332000FFFFFFFFFFFFFFFFFFFFFFFFFFFFFFFFAD
:10333000FFFFFFFFFFFFFFFFFFFFFFFFFFFFFFFF9D
:10334000FFFFFFFFFFFFFFFFFFFFFFFFFFFFFFFF8D
:10335000FFFFFFFFFFFFFFFFFFFFFFFFFFFFFFFF7D
:10336000FFFFFFFFFFFFFFFFFFFFFFFFFFFFFFFF6D
:10337000FFFFFFFFFFFFFFFFFFFFFFFFFFFFFFFF5D
:10338000FFFFFFFFFFFFFFFFFFFFFFFFFFFFFFFF4D
:10339000FFFFFFFFFFFFFFFFFFFFFFFFFFFFFFFF3D
:1033A000FFFFFFFFFFFFFFFFFFFFFFFFFFFFFFFF2D
:1033B000FFFFFFFFFFFFFFFFFFFFFFFFFFFFFFFF1D
:1033C000FFFFFFFFFFFFFFFFFFFFFFFFFFFFFFFF0D
:1033D000FFFFFFFFFFFFFFFFFFFFFFFFFFFFFFFFFD
:1033E000FFFFFFFFFFFFFFFFFFFFFFFFFFFFFFFFED
:1033F000FFFFFFFFFFFFFFFFFFB30027FFFFFFFF00
:10340000FFFFFFFFFFFFFFF0003DFFFFFFFFFFFF9C
:10341000FFFFFFFFFFFFFFFFFFFFFFFFFFFFFFFFBC
:10342000FFFFFFFFFFF00FFFFFFFFFFFFFF00FFFAA
:10343000FFFFFFFFFFFFFFFFFFFFFFFFFFFFFFFF9C
:10344000FFFFFFFFFFFFFFFFFFFFFFFFFFFFFFFF8C
:10345000FFFFFF004FFFFFFFFFFFFFFFFFFFB20077
:10346000FFFFFF00FFFFFF002AFFFFFFFFFFFFFF3F
:10347000FFFFFFFFFFFFFFFFFFFFFFFFFFFFFFFF5C
:10348000FFFFFFFFFFFFFFFFFFFFFFFFFFFFFFFF4C
:10349000FFFFFFFFFFFFFFFFFFFFFFFFFFFFFFFF3C
:1034A000FFFFFFFFFFFFFFFFFFFFFFFFFFFFFFFF2C
:1034B000FFFFFFFFFFFFFFFFFFFFFFFFFFFFFFFF1C
:1034C000FFFFFFFFFFFFFFFFFFFFFFFFFFFFFFFF0C
:1034D000FFFFFFFFFFFFFFFFFFFFFFFFFFFFFFFFFC
:1034E000FFFFFFFFFFFFFFFFFFFFFFFFFFFFFFFFEC
:1034F000FFFFFFFFFFFFFFFFFFFFFFFFFFFFFFFFDC
:10350000FFFFFFFFFFFFFFFFFFFFFFFFFFFFFFFFCB
:10351000FFFFFFFFFFFFFFFFFFFFFFFFFFFFFFFFBB
:10352000FFFFFFFFFFFFFFFFFFFFFFFFFFFFFFFFAB
:10353000FFFFFFFFFFFFFFFFFFFFFFFFFFFFFFFF9B
:10354000FFFFFFFFFFFFFFFFFFFFFFFFFFFFFFFF8B
:10355000FFFFFFFFFFFFFFFFFFFFFFFFFFFFFFFF7B
:10356000FFFFFFFFFFFFFFFFFFFFFFFFFFFFFFFF6B
:10357000FFFFFFFFFFFFFFFFFFFFFFFFFFFFFFFF5B
:10358000FFFFFFFFFFFFFFFFFFFFFFFFFFFFFFFF4B
:10359000FFFFFFFFFFFFFFFFFFFFFFFFFFFFFFFF3B
:1035A000FFFFFFFFFFFF0000000000FFFFFFFFFF26
:1035B000FFFFFFFFFFFFFFFFFFFFFFFFFFFFFFFF1B
:1035C000FFFFFFFFFFFFFFFFFFFFFFFFFFFFFFFF0B
:1035D000FFFFFFFFFFFFFFFFFFFFFFFFFFFFFFFFFB
:1035E000FFFFFFFFFFFFFFFFFFFFFFFFFFFFFFFFEB
:1035F000FFFFFFFFFFFFFFFFFFFFFFFFFFFFFFFFDB
:10360000FFFFFFFFFFFFFFFFFFFFFFFFFFFFFFFFCA
:10361000FFFFFFFFFFFFFFFFFFFFFFFFFFFFFFFFBA
:10362000FFFFFFFFFFFFFFFFFFFFFFFFFFFFFFFFAA
:10363000FFFFFFFFFFFFFFFFFF00FFFFFFFFFFFF99
:10364000FFFFFFFFFFFF206572726F72002063684B
:10365000617267696E670020636861726765640004
:103660002064697363686172676500536C65657097
:103670003A20000011241FBECFEFD0E2DEBFCDBF45
:1036800011E0A0E0B1E0E8EDF6E900E00BBF02C018
:1036900007900D92A234B107D9F725E0A2E4B1E07A
:1036A00001C01D92AC3BB207E1F70DD00C946A4B00
:1036B0000C940000F89481E085BF82E085BFE0E0D3
:1036C000F0EF099508952FE088E190E00FB6F894A7
:1036D000A895809360000FBE2093600090E080E882
:1036E0000FB6F89480936100909361000FBE04B60A
:1036F00003FE0AC083E390E081D5882329F060E0CF
:1037000083E390E076D5D6DF89EF87BD84E085BD81
:1037100082E084BD80936E00109280008AE08093E6
:10372000810084B7877F84BF389AC7D679D60E9434
:10373000C1490E94FC310E940F2B0E94BD3F0E9494
:10374000773F81E794E0CFD6609171047091720465
:1037500040E08BE794E00E9487250E94CD400E94C4
:1037600066410E944A3D8FE496E3909374048093EF
:10377000730483E690E042D5809346018BE080930A
:1037800045010E94C444409A0E94A64AA5D10E94C5
:10379000FD2CE1D20E9461440E9493450E94CA3FE1
:1037A000F3CF292F33272230310559F0233031054B
:1037B00069F021303105E9F482E190E02DE531E056
:1037C0001CC083E490E02AE131E017C099278130E2
:1037D000910549F028F0029761F4E4EFF0E005C0AC
:1037E000E6E1F1E002C0EEEFF0E0849190E09F01AD
:1037F00004C080E090E020E030E0FA0131832083D3
:1038000008958EBD0DB407FEFDCF8EB50895A1E0DD
:10381000B0E0EDE0FCE10C94F14A482F8A3008F06A
:1038200048E088E0489F70011124F701E753FE4FFC
:103830007F018BE290E0F70164918C010F5F1F4FD5
:103840004983D7D4FFEFEF1AFF0A498103331105EB
:1038500011F0C801F0CF4550453010F461E101C0CE
:1038600067E184E290E0C5D42196E6E00C940D4B2C
:10387000CF93DF9382E090E0FC01E256FE4F64912B
:10388000EC012196B6D4CB32D10511F0CE01F4CFA4
:1038900087E390E0FC01E05CFE4F6491EC0121962F
:1038A000A8D4C036D10511F0CE01F4CF88E0AFDF47
:1038B000DF91CF9108957198806CA3DF80E0A1DF44
:1038C000719A0895A1E0B0E0E8E6FCE10C94F54AB5
:1038D00071988064698395DF6981862F92DF719A80
:1038E0002196E2E00C94114B71988BDF719A089548
:1038F000EF92FF920F931F93CF93DF93EC01ED981C
:10390000699A719A8EE190E0B6D271988EE190E05A
:10391000B2D2719A8DE290E0AED280E3E5DF84E628
:1039200090E0A9D2719880E46CDF7E0189E2E80E14
:10393000F11C8E010F5F1F4FCE0160D462DF0E15A8
:103940001F0511F0E801F5CF719A71988EE759DFE4
:103950008BE290E0EC01219651D453DFC333D105C3
:1039600011F0CE01F7CF719A83E3BEDF81E088D2F8
:10397000CDB7DEB7E6E00C940D4BA1E0B0E0E3EC90
:10398000FCE10C94F54A22E0298341E0BE016F5F1F
:103990007F4F01960E941A28898139DF82E090E0EA
:1039A000A7DF2196E2E00C94114BCF93ED9886E3CC
:1039B0009BDFCFEF85E398DFC1508077803229F01D
:1039C0008AE090E058D2C111F5CFCF910895CF93FE
:1039D000CFEF84E389DFC1508077803129F08AE01E
:1039E00090E049D2C111F5CFED9ACF910895A2E0B0
:1039F000B0E0EDEFFCE10C94F34A8C01FC01818115
:103A00008737F9F441E0BE016F5F7F4FC80102962E
:103A10000E941A28892BA9F041E0BE016E5F7F4FFA
:103A2000C80104960E941A28892B59F06A8189815D
:103A300049DF83E359DFCBDF8981D7D38A81D5D3AF
:103A40002DC041E0BE016E5F7F4FC80101960E940C
:103A50001A28892B21F18A81893969F410E0812F94
:103A60002ADFC3D3812F8770873009F44AD31F5FC1
:103A70001033A9F714C01FDF182F83E466D28A81A0
:103A8000B4D383E791E030D3812FAFD38FE691E0B9
:103A90002BD340E262E0812F90E037D332D32296DD
:103AA000E4E00C940F4BCF93CFEF86E31DDFC150C2
:103AB000807729F08AE090E0DED1C111F6CF89E36A
:103AC00013DF10927504CF91089582E090E010DF2B
:103AD00081E08093750408958091B305843009F0E6
:103AE00069C08093E9008091420181112AC08091D0
:103AF000E80085FF26C08091F2009091F300892BA9
:103B000031F06091F10089E195E0ABD4F4CF809180
:103B1000E800982F9B7F9093E8008F778093E800D0
:103B200081E0809342018CE69DE190937004809344
:103B30006F04E0917304F091740481E00995109290
:103B4000420183E08093E9008091D804882391F1B9
:103B50008091E80085FF2EC0F8948091D8048823D6
:103B600069F08091F2009091F3008034910530F477
:103B700086ED94E08CD48093F100EFCF789480911F
:103B8000F2009091F3002091E800322F3E7F3093B5
:103B9000E8002F772093E8008034910559F40E94C3
:103BA00067488091E800982F9E7F9093E8008F7778
:103BB0008093E800089542E061EC82E00E9417489B
:103BC00042E361E883E00E94174842E360E884E052
:103BD0000E941748109200011092010110920201F8
:103BE0001092030108958091B4059091B50591322A
:103BF00029F0923261F1903299F512C0813A81F543
:103C00008091E800877F8093E80067E070E080E0C3
:103C100091E00E9490488091E800982F9B7F11C00E
:103C20008132F1F48091E800877F8093E80067E0BB
:103C300070E080E091E00E943A498091E800982F7E
:103C40009E7F9093E8008F778093E80008958132FB
:103C500039F48091E800877F8093E8000C94414814
:103C600008951F920F920FB60F9211240BB60F9268
:103C70008F939F93AF93BF93EF93FF9380917704BC
:103C800090917804A0917904B0917A040196A11DD5
:103C9000B11D8093770490937804A0937904B09336
:103CA0007A04809176048F5F80937604E8E9F4E0EB
:103CB00080819181181619061CF4019791838083E5
:103CC000369684E0E03BF80799F78091B204909132
:103CD000B304009729F001979093B3048093B20442
:103CE0008091C5048F3F19F081508093C504FF91E6
:103CF000EF91BF91AF919F918F910F900BBE0F905D
:103D00000FBE0F901F9018952FB7F894409177042D
:103D1000509178046091790470917A04FC01408399
:103D20005183628373832FBF0895A4E0B0E0EBE971
:103D3000FEE10C94F54ACE010196E6DF8C8155D266
:103D40008B8153D28A8151D289814FD2DAD1249684
:103D5000E2E00C94114B1F93CF93DF938091770493
:103D600090917804A0917904B0917A042091440153
:103D7000281709F47CC08091770490917804A09171
:103D80007904B0917A0480934401A895C8E9D4E0FD
:103D900010E028813981232B19F4812F0E948B3464
:103DA0001F5F26961430A9F78091B2049091B30456
:103DB000892B11F40E94E7348091C504811102C05F
:103DC0000E9445358091AB05882339F0815080935E
:103DD000AB05811102C00E942646809176048D3782
:103DE00008F445C0109276048091070181FF04C059
:103DF00088B191E0892788B98091910490919204CB
:103E0000843823E0920728F40196909392048093DB
:103E1000910480915D058F3F19F08F5F80935D0560
:103E200080916405882371F090915D0598130AC014
:103E30008091B305843021F480E00E94A33702C052
:103E40000E947140809143018F5F809343018C33C6
:103E500071F410924301809197048F5F8C3318F4B2
:103E60008093970402C0109297040E943F3FDF9115
:103E7000CF911F910895880F991F0197F1F7089529
:103E800020ED37E0815020F0F9013197F1F7FACFBA
:103E90000895CF93DF93DC0113968C9113978435AB
:103EA00009F050C0CD010396CC91FD0170964DE014
:103EB0004C1750F050E0D0E09E012F5031094217CE
:103EC000530709F03FC005C021912B3399F34F5F91
:103ED000EFCFFE013E97E80FF91F2081243591F5C1
:103EE00014963C911497218132132CC015963C9165
:103EF00015972281321326C016963C91169723817E
:103F0000321320C017963C911797248132131AC0A0
:103F10006197C80FD91F85818883868189838185B0
:103F20008A8382858B8383858C8384858D83858535
:103F30008E838C918A508C9312968C9112978A5012
:103F400012968C93DF91CF910895A2E0B0E0EBEA56
:103F5000FFE10C94F44A182F8091B305843081F46A
:103F60008091450180FF0CC08091D804803408F016
:103F7000B3DD612F86ED94E074D21A3009F4ACDD24
:103F80008091AE058823C9F08091450183FF15C05B
:103F90001A3099F01D3011F46BE301C0612F88E6EF
:103FA00095E05FD21D3019F488E695E072DF83E07A
:103FB0008093AB0582E08093AD058091450181FF40
:103FC00065C01D3009F481C0E091780180916901DC
:103FD0001A30A9F4F0E0E659FE4F108210927801F1
:103FE000882329F08AE691E00E941B3605C06AE624
:103FF00071E080E00E941F381092690125C0ED3009
:1040000040F491E09E0F90937801F0E0E659FE4F66
:1040100010838823C9F091E0980F90936901823052
:1040200099F48091780182508093780190E08659CC
:104030009E4F41E0BC01FED7809178018F5F809355
:10404000780181E0809369018091690181111EC02E
:10405000809178018530D1F480916A018634B1F481
:1040600042E0BE016F5F7F4F8BE691E0E3D799811D
:104070008091960498130AC09A818091C404981381
:1040800005C081E08093690110927801809146011A
:104090008823D9F01D30C9F0E09168011A3059F435
:1040A000F0E0E95BFE4F10821092680187E491E036
:1040B0000E94BF410AC0E03240F481E08E0F80933D
:1040C0006801F0E0E95BFE4F10832296E3E00C9478
:1040D000104BCF93DF93EC018991882311F035DFEA
:1040E000FBCFDF91CF910895CF93DF93EC01FE01D9
:1040F0008491882319F029DF2196F9CFDF91CF91A0
:1041000008958DE022DF8AE020CFA6E0B0E0EBE862
:10411000F0E20C94F34A062F1E8215E02AE030E00C
:104120001150E1E0F0E0EC0FFD1FE10FF11DB901CE
:104130000E94B84A805D8083CB010150009769F0EE
:104140001111EECF0AC0112359F01150E1E0F0E057
:10415000EC0FFD1FE10FF11D4083015007FFF3CF6E
:1041600081E090E08C0F9D1F810F911DB2DF26969C
:10417000E4E00C940F4BA5E0B0E0E1ECF0E20C942D
:10418000F54A1D8224E0382F3F702150E22FF0E0E5
:104190003A3010F4305D01C0395CA1E0B0E0AC0F02
:1041A000BD1FEA0FFB1F308334E0969587953A9543
:1041B000E1F76150009739F7615067FD0BC022238A
:1041C00049F02150E1E0F0E0EC0FFD1FE20FF11D9E
:1041D0004083F2CF81E090E08C0F9D1F820F911DF4
:1041E00078DF2596E2E00C94114B40E362E090E02A
:1041F000C2CF0E945C4BF999FECF08950C94544BAA
:1042000008951F93CF93DF93162F11501F3F59F03E
:10421000EC012196F3DFE9DF112311F08AE395DE4B
:104220001150CE01F3CFDF91CF911F910895A2E0FD
:10423000B0E0EDE1F1E20C94F24AFC0121812D3471
:1042400021F466E08AEF9FE005C0203529F460E1A3
:104250008AED9FE0D6DF26C01A82198242E0BE01B5
:104260006F5F7F4F0196E6D6098110E0823021F41E
:10427000102F00278A81082BC801C0DFF82E82E5A5
:1042800064DE40E364E0C80176DF88E292E02CDF80
:104290008F2DABDF84E292E027DF40E262E08F2DDA
:1042A00090E033DF2EDF2296E5E00C940E4BA6E083
:1042B000B0E0EDE5F1E20C94EF4A6C0143E0BE01A1
:1042C0006F5F7F4F0196B6D6823058F1E980F12CAE
:1042D000823021F0FE2CEE242A81E22A8C01112763
:1042E000FE01E00FF11F6081C70183DF000F111F86
:1042F0000F5F1F4F0C0D1D1DF8018081882389F071
:1043000041E0BE016F5F7F4FC80194D6892B49F011
:104310008FEFE81AF80A6981C7016BDF0E5F1F4F44
:10432000EBCF2696E8E00C940B4B41E067E071E0A0
:10433000019680D68091070180FF02C0409801C09D
:10434000409A6091070184E390E053CFA1E0B0E090
:10435000ECEAF1E20C94F54A1982009731F041E061
:10436000BE016F5F7F4F019665D689818F3F09F44B
:10437000FFCF882321F061E083E390E03ADF0E94E1
:10438000D1498BE794E09ED310926E00F89428E018
:1043900088E190E00FB6F894A895809360000FBE76
:1043A00020936000FFCFCF93DF93EC0161E080E0CA
:1043B00090E01FDF62E481E090E01BDF59DA60E00B
:1043C00080E690E016DF60E081E690E012DF60E0DA
:1043D00083E390E00EDF62E084E390E00ADF60E4D4
:1043E00080E690E006DF60E881E690E002DF6EE1C3
:1043F00082E690E0FEDE60E083E690E0FADE60E0D8
:1044000080E690E0F6DE60E081E690E0F2DE898111
:10441000883719F080E090E099DFDF91CF9108951F
:1044200080E090E0EBDE813029F481E090E0E6DE90
:10443000823419F080E090E0B6DF84E390E0DEDEC5
:104440008093070182E690E0D9DE809364050895A9
:1044500089E192E049DE55CEFC0112821082118280
:104460000895FC018FB7F8949281903470F49F5FA7
:104470009283208191E0920F9083DF01A20FB11D02
:1044800013966C93903409F410828FBF0895FC0149
:104490009FB7F8948281882371F081508283818153
:1044A00021E0280F2183DF01A80FB11D13968C9105
:1044B000203409F411829FBF0895E4E6F0E0808182
:1044C0008B7F8083299A84B1876084B9239880E5A3
:1044D0008CBD8DB581608DBD08958EBD0DB407FE78
:1044E000FDCF8EB50895269A0895CF93DF93EA0104
:1044F0002E98611102C083E501C085E5EEDFCC0F87
:10450000DD1FCC0FDD1F8D2FE8DF8C2FE6DF80E075
:10451000E4DF2E9ADF91CF910895EF92FF920F93EF
:104520001F93CF93DF937A01E9012E98611102C0A6
:1045300081ED01C083EDD1DF80E0CFDF8D2FCDDFB6
:104540008C2FCBDFE7010E0D1F1DC017D10721F007
:1045500080E0C3DF8993F9CF2E9ACDB7DEB7E6E0CE
:104560000C940D4BEF92FF920F931F93CF93DF9319
:104570007A01E9012E98611102C084E801C087E840
:10458000ACDF80E0AADF8D2FA8DF8C2FA6DFE7014C
:104590000E0D1F1DC017D10719F089919EDFFACFAC
:1045A0002E9ACDB7DEB7E6E00C940D4BCF93DF9398
:1045B000EA012E98611102C083E801C086E88DDF10
:1045C000CC0FDD1FCC0FDD1F8D2F87DF8C2F85DFFC
:1045D00080E083DF2E9ADF91CF9108952E9887EDAA
:1045E0007CDF80E07ADF87FFFCCF2E9A0895FF9270
:1045F0000F931F93CF93DF93EC018B01F42E4A812D
:104600005B8146175707C9F02C8120FF0AC060E084
:1046100088819981CBDF8C818E7F8C838881998181
:10462000DDDF1B830A83FF2041F0A80160E0888161
:1046300099815BDF88819981D1DFCDB7DEB7E5E075
:104640000C940E4B0F931F93FC01858190E086170D
:10465000970781F065839B0184E0220F331F8A95C1
:10466000E1F7AF014A5F5F4F00E110E061E0808158
:10467000918153DF1F910F910895A0E0B0E0E3E432
:10468000F3E20C94ED4AEC015B011D82E12CF12C6C
:104690006C0186E0C80ED11C00E110E09701A60174
:1046A00061E08881998139DF8885811114C01F827A
:1046B0001E824EE050E0B501CE0108960E94454BA7
:1046C0009701A60161E0888199814CDF8C8182602D
:1046D0008C8380E00BC08D818F5F8D8380E1E80E3D
:1046E000F11CE11482E0F806B9F682E0CDB7DEB73E
:1046F000EAE00C94094BA0E0B0E0E1E8F3E20C94AE
:10470000EB4AEC015A0169011D82E12CF12C4C01AC
:1047100086E0880E911C00E110E09701A40161E0A1
:1047200088819981FADE8885882391F0C114D104AB
:1047300061F4BE01685F7F4F4EE050E0C5010E940A
:10474000454BF501168680E00EC0F1E0CF1AD10886
:104750008D818F5F8D8380E1E80EF11CE114E2E032
:10476000FE06C9F682E0CDB7DEB7ECE00C94074B4D
:10477000A0E0B0E0EEEBF3E20C94EB4AEC015B015D
:104780006C0188E0C80ED11C4EE050E0C6010E94CA
:10479000374B892B11F48D8119C01D82E12CF12C2E
:1047A0004E0186E0880E911C00E110E09701A40103
:1047B00061E088819981B1DE4EE050E0B501C6012B
:1047C0000E94374B2D81892B19F4822F90E00BC06A
:1047D0002F5F2D8380E1E80EF11CE11482E0F806E2
:1047E00019F78FEF9FEFCDB7DEB7ECE00C94074BD6
:1047F000EF92FF920F931F93CF93DF93EC017B0116
:104800008A01FA018081882319F0BA01CE0125D0EE
:10481000B701CE01ADDF0196D1F04EE050E0B80116
:10482000CE0108960E94454B2D8180E1289F900182
:104830001124AE014A5F5F4F00E110E061E0888122
:10484000998190DE8C8182608C8380E001C081E060
:10485000CDB7DEB7E6E00C940D4B48E251E0C8CF8F
:10486000A0E0B0E0E6E3F4E20C94E54A5C01EB0181
:104870001A01380149012801E5DEF5018681978199
:104880008615970508F445C0260193012C0D3D1DA2
:104890008217930718F42C0146185708D695DC2F79
:1048A000CC27D795C7952196C301892F992786953F
:1048B000C80FD91FF1E07F227201812C912CE114E5
:1048C000F10419F141E0BE01C50191DEC701860D79
:1048D000971D8130924030F0C12C92E0D92EC6183D
:1048E000D70801C06701A101480D591D8601930138
:1048F00060E0F5018081918110DEEC18FD088C0CE0
:104900009D1C2196612C712CDACFB20180E090E0E1
:1049100003C060E070E0CB01CDB7DEB7E2E10C94FC
:10492000014BA4E0B0E0E7E9F4E20C94E54A9C8393
:104930008B835B011A0128013901D901C8018C0D53
:104940009D1DAE1DBF1D009721E0A207B1050CF013
:1049500091C06F31710531F481159E4FA105B105EC
:104960000CF088C0DA82C982B5018B819C816ADE35
:10497000EB81FC818680978092012C0D3D1D821673
:104980009306B0F43783268302E010E09501A4E09B
:10499000220F331FAA95E1F7AF014A5F5F4F61E035
:1049A00080819181DFDDEB81FC8184818260848361
:1049B000B694BA2CAA24B794A7946501FFEFCF1A36
:1049C000DF0AC201892F99278695C80ED91E21E0DA
:1049D00052223401672C772466946A0C7B1C81E098
:1049E00098228114910421F49FEF691A790A03C077
:1049F000E2E06E0E711CA12CB12CE12C42E0F42EF1
:104A0000E981FA81EF2BA1F141E0C614D70408F047
:104A100040E0B6018B819C81EADD89819A81840D19
:104A2000951D8130924020F047018418950802C0FE
:104A300089809A80A1014A0D5B1D8401920160E08A
:104A4000EB81FC81808191818DDDEB81FC81848112
:104A50008160848389819A81881999099A838983DD
:104A6000A80CB91C9FEFC91AD90A412C512CC8CFE8
:104A700080E001C082E02496E2E10C94014B0F93A8
:104A80001F93CF93DF93EC018D8190E086179707FA
:104A900081F06D839B01B4E0220F331FBA95E1F7DB
:104AA00000E110E0AE014A5F5F4F61E088819981CB
:104AB00034DD6E817F8180E090E0DF91CF911F91A6
:104AC0000F910895CF93DF93EC018C8180FF0CC090
:104AD0004A815B8160E08881998168DD8C818E7F6D
:104AE0008C83888199817ADD8C8181FF0CC040E0C4
:104AF00050E061E08881998159DD8C818D7F8C83C4
:104B0000888199816BDD80E0DF91CF910895A0E0ED
:104B1000B0E0EDE8F5E20C94EF4AEC01CB01F42EA5
:104B2000798368832FEF3FEF3B832A831C822D8399
:104B300040E050E061E0D9DC888199814FDD6E0171
:104B400086E0C80ED11C00E110E020E032E0A601B2
:104B500061E088819981E1DC8E819F818E01085F0F
:104B60001F4F049759F444E050E064E271E0C8013B
:104B70000E94374B892B11F4FF2051F184E090E023
:104B80009F838E834EE050E064E271E0C8010E9492
:104B9000454B00E110E020E032E0A60161E08881B1
:104BA0009981E0DC1886E12CF12C00E110E09701FE
:104BB000A60161E088819981D5DC80E1E80EF11CD5
:104BC000E11482E0F80689F782E08C83CE017ADF77
:104BD00080E0CDB7DEB7E8E00C940B4B8F929F924C
:104BE000AF92BF92CF92DF92EF92FF920F931F93FB
:104BF000CF9380901B05C091450180934501912C76
:104C0000A12CB12C00917E0110917F012091800197
:104C10003091810160917C0170917D017501640189
:104C20004CE155E08BE794E07CDE80917E01909131
:104C30007F01A0918001B0918101880D991DAA1D6D
:104C4000BB1D40918201509183016091840170915C
:104C5000850184179507A607B707B1F480917A01FB
:104C600090917B0190937404809373048BE794E09C
:104C700029DF80917901882329F00E944A3D80E054
:104C80000E94153CE3D408C080937E0190937F017D
:104C9000A0938001B093810189E195E0DDDBC093B1
:104CA0004501CF911F910F91FF90EF90DF90CF9032
:104CB000BF90AF909F908F900895AFE0B0E0E3E693
:104CC000F6E20C94EE4AB090460110924601FC01C7
:104CD0002181222331F02E3209F03CC022812111A2
:104CE00039C010E0212F30E0AE014F5F5F4F60E030
:104CF00070E08BE794E0FFDC81113CC0CE010196AF
:104D0000E8D98FE222D9BE016F5F7F4F8BE794E035
:104D10002FDD90937D0180937C01BC018BE794E0B3
:104D2000AEDEDC01CB018093820190938301A093DE
:104D30008401B093850140E364E0CD011CDA40E3D7
:104D400064E0809182019091830115DA80E2FDD8C0
:104D50001F5FC8CFBC016F5F7F4F8BE794E008DD1A
:104D600090937D0180937C018F3FFFEF9F0721F49B
:104D700088E5EBD8C6D97EC0BC018BE794E07FDE26
:104D8000DC01CB018093820190938301A093840185
:104D9000B093850140E364E0CD01EDD940E364E0E8
:104DA0008091820190918301E6D9ABD9E0916F04A3
:104DB000F0917004099510927E0110927F0110927B
:104DC0008001109281010E94531D00917E0110917B
:104DD0007F01209180013091810180918201909129
:104DE0008301A0918401B0918501081719072A0752
:104DF0003B07E4F5801B910BA20BB30B81349105AB
:104E0000A105B10524F080E490E0A0E0B0E080933B
:104E1000D8041092D7046C017D01DD24EE24FF2418
:104E200060917C0170917D0149ED54E08BE794E045
:104E300017DD2091D80480917E0190917F01A0918F
:104E40008001B0918101820F911DA11DB11D809340
:104E50007E0190937F01A0938001B0938101E09146
:104E60006F04F09170040995A895AFCF86ED94E09A
:104E7000F3DAECD3B09246012F96E9E00C940A4B9A
:104E8000CF92DF92FF920F931F93CF93DF9300D0C7
:104E900000D0CDB7DEB78C01F09046016C018FEFEA
:104EA000C81AD80A69E271E0C6010E94274B892B13
:104EB00049F460917B0470917C0441E08BE794E0BD
:104EC00026DEACC044E0BE016F5F7F4FC601B2D0AA
:104ED0002981049739F020934601622F83E690E000
:104EE00088D99CC04A8150E060E070E0BA01552743
:104EF0004427722B8C81482B8B8190E0982F882738
:104F0000A0E0B0E0482B592B6A2B7B2B4093820109
:104F1000509383016093840170938501075F1F4F55
:104F2000B8018BE794E099DCD82E40918201509132
:104F3000830160918401709185014F3F5F4F6F4FF6
:104F40007F4F21F48BE794E0BDDD3FC0B8018BE7D4
:104F500094E093DBD82E811138C0409182015091AA
:104F600083016091840170918501452B462B472B6D
:104F700061F160E371E0C8010E94274B21E0892BB9
:104F800009F020E020937901B8018BE794E0F0DB91
:104F900090937D0180937C0110927E0110927F019D
:104FA0001092800110928101209173043091740459
:104FB00030937B0120937A012EEE35E23093740416
:104FC0002093730489E195E047DA10924601D110ED
:104FD0001DC08091820190918301A0918401B091C4
:104FE0008501892B8A2B8B2B11F00E94531D40E3E6
:104FF00064E08091840190918501BDD840E364E034
:105000008091820190918301B6D805C088E50E9405
:10501000A51F8D2DEAD875D8F09246010F900F90FC
:105020000F900F90DF91CF911F910F91FF90DF9024
:10503000CF900895DC01FB0130E090E08D91882352
:10504000A9F0813608F0805220ED280F2A3030F088
:105050002FEB280F263030F429EC280F292B33238F
:1050600079F006C0803251F38A3341F3CF0105C095
:10507000CF0101962083415041F4861B970B089580
:10508000922F9295907F31E0D9CFFC01D5CF982F08
:1050900092959F709A3010F4905D01C0995CFB016D
:1050A00090838F708A3010F4805D01C0895CFB01B1
:1050B00081830895FA013081882369F0E1E0F0E00E
:1050C000022E01C0EE0F0A94EAF7DB01A30FB11D17
:1050D0009C919E2B9C93222319F08FEF820F0BC083
:1050E00081E0830F8C3010F4FA018083FB01E80F1C
:1050F000F11D108287E090E00895CF93C82F709A39
:10510000882319F08091870102C08091890120E1F4
:10511000829FC00111240E943B1F7098CC2319F07C
:105120008091860102C08091880120E1829FC001A8
:1051300011240E943B1FCF910895A0E0B0E0E3EA64
:10514000F8E20C94E54A5C01162F622EC42FD0E0E1
:105150004091910450919204CE010296089F802DB7
:105160001124992787FD90954817590728F48CE258
:1051700092E00E9474206BC0481B590B509392041C
:1051800040939104409880917504811102C00E945F
:10519000651D0E94D51C812E912CCC24C394D12C4A
:1051A000712CF12C8F2D992787FD909588159905E5
:1051B00024F480E0A2DFF394F5CF112311F081E015
:1051C0009CDFF12C4F2C552447FC50944C165D0667
:1051D0002CF097E0392E4A0C5B1C15C087E0282E76
:1051E000312C4A0C5B1CC601022C01C0880F0A94AA
:1051F000EAF7F2019081892380DFF1E02F1A31086C
:1052000090F7F394DFCF832D992787FD909568164B
:10521000790664F4C601032C01C0880F0A94EAF7EA
:10522000F2019081892369DF3A94EDCF8E2D0E949F
:10523000401F015009F0B5CF80919404882319F0E4
:105240000E94E71C03C086E30E94741C409ACDB7FD
:10525000DEB7E2E10C94014BADE0B0E0E2E3F9E24D
:105260000C94E84A7C01162F842F022F6701C60E8A
:10527000D11C462FB7010CD2D6018C931F5F1D861F
:1052800019825E2C670127E066246394712C8C2DB3
:105290008519811788F547E0A42EB12C4701880EA7
:1052A000911CF3010A2C01C0EE0F0A94EAF7D40115
:1052B0008C91AE01435F5F4FBE016F5F7F4F8E23C6
:1052C000F9DE282FB1E0AB1AB10858F7D6018D915D
:1052D0006D01082E82958025082E8695869580255D
:1052E0008F5F86958170AE01435F5F4FBE016F5F38
:1052F0007F4FE0DE282FCBCF222311F0215004C0B6
:105300008D858F5F8D8727E089E180938801809369
:10531000890185E280938601809387013AE0E32E3C
:105320004D856CE0CE01019608DF2D96EFE00C94E0
:10533000044BADE0B0E0EFE9F9E20C94F44A162F2B
:10534000242F4BE0BE016F5F7F4F01962D8772DEE9
:105350002D85412F682FCE0101967EDF2D96E3E04B
:105360000C94104B43E066E0E4CFEF920F93CF93A1
:10537000DF93CDB7DEB760970FB6F894DEBF0FBEF0
:10538000CDBF40E1BE016F5F7F4F019653DE698163
:105390004A810B818C81809389018D818093880162
:1053A0008E81809387018F8180938601E02EE29425
:1053B0007FE0E7220F70242F2F7042954F70CE01AF
:1053C0000896BBDE60960FB6F894DEBF0FBECDBF69
:1053D000DF91CF910F91EF9008958F929F92AF92AE
:1053E000BF92DF92EF92FF920F931F93CF93DF93C1
:1053F0001092A5011092BA01FC012181220F220F07
:10540000220F3381231B57E0520F1092A60110E0A8
:1054100070E038E0D32ED20EFF24F39447E007E08B
:10542000E12CC7E0D0E0A1E0B0E0FD1409F47FC0BA
:10543000FC01EE0DF11D248130E0002E02C03595F7
:1054400027950A94E2F721703327E22F002311F009
:10545000015002C0E39407E06B3471F4433009F06B
:105460004AC0111107C0E1115FC01092A5017093ED
:10547000BA0174C010E041C04F3F31F56634A9F461
:10548000E72FF0E0EA55FE4FE0810E2EE295E02591
:105490000E2EE695E695E025EF5FE1FB882480F887
:1054A000912C8216930641F004C0653429F4E11171
:1054B00003C01093A501DBCF7F5FE72FF0E0EA5533
:1054C000FE4F108247E031C0EE2361F1663471F483
:1054D000E72FF0E0EA55FE4FA0809D01042E01C0A9
:1054E000220F0A94EAF7A22AA0821CC0653439F080
:1054F0006B34C1F404C04F3FD1F2EE2399F0E72F93
:10550000F0E0EA55FE4F9E01241B310947FD33951B
:105510005D0102C0AA0CBB1C2A95E2F795013081FF
:10552000322B3083415001C011E0F3947ECF1093B1
:10553000A5017093BA015F1588F4653431F44F3FCB
:1055400021F47F5F7093BA0104C08091A50181119D
:10555000F8CF81E09091BA01911101C080E0DF9114
:10556000CF911F910F91FF90EF90DF90BF90AF9080
:105570009F908F90089510926F00E091BD018CE193
:10558000E89FF0011124E254FE4F10820895FC01BF
:105590002181243108F0EFCF3381662381F081E04F
:1055A00090E0032E01C0880F0A94EAF7DF01A20FF2
:1055B000B11D14969C911497982B14969C933323A9
:1055C00019F031503383089587E083832F5F21835F
:1055D000E20FF11D14820895DC011196EC911197F0
:1055E000F0E050E02C91CF01841B950B0B96479770
:1055F000A0F430E070E0C901861B970B0B9647972B
:1056000060F42E0F3F1F640F751F261B370B255F9D
:105610003F4F81E02731310508F080E00895689A16
:1056200070986D98EAE6F0E080818460808382EC77
:1056300091E090939204809391041092DA01109279
:10564000F60110921202109275040895809194044C
:10565000882321F00E94651D0C94E71C0C94531DB7
:10566000FC01218121110EC0809194040E94F5203B
:1056700040E265E080919104909192040E9485201F
:105680000C94812041E064E974E00196D3DCDECF24
:10569000442339F04150FB01E40FF11D9081890F43
:1056A000F7CF089520E0662339F06150FC01E60F42
:1056B000F11D30812327F7CF822F0895A091A501F6
:1056C00040E035E020E0662399F06150FC01E60FF0
:1056D000F11D5081752F72957F702727370FAA23F0
:1056E00011F0442319F05F702527350F4F5FEBCF82
:1056F000320F40E1349FC0011124822B0895FC0138
:1057000032812381A081B181A30FB11D8C9190E0E2
:10571000022E02C0959587950A94E2F78170992729
:105720004FEF420F4383211104C03F5F328327E0D4
:1057300023830895A2E0B0E0E0EAFBE20C94ED4A96
:105740007C01A12CB12CD12CCC24C394062F10E0C9
:1057500001501109A616F0F4C7014A836983CFDF0F
:105760004A816981882391F0442349F098012A19DC
:105770003B098C2D01C0880F2A95EAF706C08C2DB5
:105780000A2C01C0880F0A94EAF7D82A8FEFA81ACA
:10579000B80AE0CF8D2D2296EAE00C94094BA4E0E4
:1057A000B0E0E5EDFBE20C94EC4A1B8227E02C8391
:1057B0009C012C5F3F4F3A8329831092BA01FC0170
:1057C0002181338187E090E0831B9109F8E02F9FCE
:1057D000800D911D1124853491050CF44EC0B12C1F
:1057E000A090BA01F5E0FA1558F10A2D10E040E05A
:1057F00068E0CE0101969EDF0A551E4FF8018083B6
:10580000982E092C92949024092C96949694902486
:10581000CE01019674DF939491FACC24C0F8D12C78
:1058200090E0C816D90649F5CE01019668DF8111CE
:1058300024C0F8018081B826A394A092BA01D0CFE9
:1058400040E068E0CE01019675DF082F182F012E89
:1058500012951025012E169516951025CE0101964C
:105860004EDF1F5F11FBEE24E0F8F12C282F30E013
:10587000E216F30611F481E0B01280E02496EBE02A
:105880000C94084BA5E0B0E0E8E4FCE20C94F04A8C
:10589000FC011B8287E08C83CF0104969A83898365
:1058A0008081853009F051C02181338187E090E00B
:1058B000831B910938E0239F800D911D11248039AD
:1058C000910509F042C01092BA010FE010EF29E8EB
:1058D0008091BA01E82EF12CDD24D394D80E41E05A
:1058E00068E08F3088F4CE0101962D8323DF080F06
:1058F000111DF701EA55FE4F2D812827208324E250
:10590000280FD092BA01E4CFCE01019613DF080F21
:10591000111DD092BA01F701EA55FE4F80958083A0
:1059200041E068E0CE01019605DF90E0982F8827DE
:10593000081B190B41E068E0CE010196FBDE282F21
:1059400030E081E00217130709F080E02596E7E0D8
:105950000C940C4BA4E0B0E0E0EBFCE20C94F24AB7
:105960001B8227E02C839C012C5F3F4F3A832983C5
:10597000FC0121812430A1F58381813089F51092C9
:10598000BA018091BA01082F10E0FF24F394F80EB9
:1059900041E0843098F4811106C067E0CE010196A1
:1059A000C9DE806804C068E0CE010196C3DEF8015C
:1059B000EA55FE4F8083F092BA01E3CF67E0CE0153
:1059C0000196B8DEF801EA55FE4F880F8083F09209
:1059D000BA019091A60192959F7081E09A3009F0EA
:1059E00080E02496E5E00C940E4B8091930480FDBA
:1059F00003C08460809393040895A1E0B0E0E3E0E5
:105A0000FDE20C94F14A198260918A01662321F12A
:105A10008091940487FF04C080918B010E94673AB3
:105A20008091940483FF16C082E70E94A51F809195
:105A3000940484FF04C080918B010E94A51F86E618
:105A40000E94A51F8091940484FF04C080918A0164
:105A50000E94A51F10928A018091BB01882309F43E
:105A600038C240980091BC012CE1029F80011124B2
:105A700002541E4F8981811106C0C80103DF8823AB
:105A800011F083E589838981811139C066E4C801F9
:105A9000A4DC8823A1F1F090BA01FA94F092BA0143
:105AA0004F2D66EA71E086E0F3DDEF2DF0E0EA5578
:105AB000FE4FE0808E1105C093E09F1510F486E440
:105AC0001BC0282F30E02F5F3F4F6E2D70E0261750
:105AD000370739F423E02F1520F496E49983808367
