:1000000089C40000ACC40000AAC40000A8C4000059
:10001000A6C40000A4C40000A2C40000A0C4000044
:100020009EC400009CC400009AC4000098C4000054
:1000300096C4000094C400000C94470990C40000CA
:100040008EC400008CC400008AC4000088C4000074
:1000500086C4000084C4000082C4000080C4000084
:100060007EC400000C94C0320C94073378C40000A6
:1000700076C4000074C4000072C4000070C40000A4
:100080006EC400006CC400006AC4000068C40000B4
:1000900066C4000064C4000062C4000060C40000C4
:1000A0005EC400005CC400005AC4000058C40000D4
:1000B0000C94861654C4000052C4000050C40000C2
:1000C0004EC400004CC400004AC4000048C40000F4
:1000D00046C4000044C4000042C4000040C4000004
:1000E0003EC400003CC400006AC60000A1C6000077
:1000F00036C4000034C4000032C4000030C4000024
:100100002EC400002CC400002AC4000028C4000033
:1001100026C4000024C4000022C4000020C4000043
:100120001EC400001CC400001AC4000018C4000053
:1001300016C4000014C4000012C4000010C4000063
:100140000EC400000CC400000AC400000C94111678
:1001500006C4000004C4000002C4000000C4000083
:10016000FEC30000FCC30000FAC30000F8C3000097
:10017000F6C30000F4C30000F2C30000F0C30000A7
:10018000EEC30000ECC30000EAC30000E8C30000B7
:10019000E6C30000E4C30000E2C30000E0C30000C7
:1001A000DEC30000DCC30000DAC30000D8C30000D7
:1001B000D6C30000D4C30000D2C30000D0C30000E7
:1001C000CEC30000CCC30000CAC30000C8C30000F7
:1001D000C6C30000C4C30000C2C30000C0C3000007
:1001E000BEC30000BCC30000BAC30000B8C3000017
:1001F000B6C30000B4C30000B2C3000042D30C6217
:100200005A3843140846F30E69321B6B7F1F41387E
:10021000297044322A9E325ABE2B4E752C47F60E58
:100220004D280F4B970F551F10597A1C52EF0B5446
:10023000D92256360D57600C58A61165F60C6696F5
:10024000266D74306CC10C74B60975F81878D30833
:100250007A872F000000072E050DD391FF080500B7
:10026000000C0021656A2D3B1322F862073F181D20
:100270001CC700B0876BF8B611EA2A001F41000DB9
:100280002E2D07D3913D04320000060021656A55EA
:10029000E43023B900070018146C070090876BF84E
:1002A0005611E92A001F410000030F1E26270000F7
:1002B00000030F1E2536386700030F256740605086
:1002C00000030F275188838100030F2750C8C3C242
:1002D0000027000000000000006700000000000090
:1002E000005000000000000000810000000000003D
:1002F00000C2000000000000203D2000202F200050
:10030000504C4C300D0A00504C4C310D0A00203D31
:1003100020006E6100203D2000202F200043434438
:100320005F5632005620322E36362043534D34333A
:1003300033005620322E36362043534D383638009F
:100340004C4F56460D0A00424F56460D0A000D2EE0
:100350002D07D3913D04320000060010B07155E422
:100360003023B900070018146C070090876BF8560B
:1003700011E92A001F41000D2E2D07D3913D0432B3
:100380000000060010ABA5550A3023B9000700187D
:10039000146C070090876BF85611E92A001F410082
:1003A000012E4604AA540FE0000000060021656AF1
:1003B00097831663B947070C29366C074091876B02
:1003C000F85611E92A001F410054585F494E49541C
:1003D0005F4552525F005472616E736D6974740DA3
:1003E0000A00636F6D6D616E646C696E6570617239
:1003F000616D657465723A20000D0A537472696EFE
:10040000676C656E6774683A2020202020000D0A12
:100410004E65787420436861726163746572202848
:10042000696E742920616674657220706172616DF5
:1004300065746572202873686F756C64206265202E
:100440006C696E6520656E642063686172616374B7
:100450006572293A20000D0A416D6F756E74206F28
:100460006620427974657320284865782920666F74
:10047000756E6420696E7369646520636F6D6D616C
:100480006E64206C696E6520706172616D65746563
:10049000723A2020202020202020202020000D0A39
:1004A000005469636B2054696D65723A20202020E6
:1004B00020202020202020000D0A004B65794F6667
:1004C0006654696D653A20202020202020202020BD
:1004D00020006D7365630D0A004B65794F666654A5
:1004E000696D6520696E207469636B733A20200022
:1004F0005B6865785D0D0A005469636B2054696D13
:1005000065723A2020202020202020202020005B1F
:100510006865785D0D0A00426C6F636B20537461EF
:1005200072742054696D653A2020202020005B6899
:1005300065785D0D0A004B65794F666654696D6597
:100540003A2020202020202020202020005B6865E9
:10055000785D0D0A007469636B732D426C6F636B79
:10056000537461727454696D653A20005B686578F4
:100570005D0D0A00426C6F636B320D0A00426C6FB6
:10058000636B330D0A004B6F7070205472616E7391
:100590006D69747420436F6D6D616E64206E6F744D
:1005A00020657175616C20746F200020427974653C
:1005B00073206F72204B6579636F646520697320C7
:1005C0006E6F206865782076616C75650D0A006B2A
:1005D00072452D52656365697665456E640D0A0046
:1005E0006B72532D526563656976655374617274DD
:1005F0000D0A0052585F494E49545F4552525F4DB3
:1006000041524353544154455F5258004B6F7070F0
:10061000205265636569766520537562436F6D6D21
:10062000616E6420556E6B6E6F776E0D0A004B6FB6
:10063000707020436F6D6D616E6420556E6B6E6FD0
:10064000776E0D0A0020436865636B73756D2045F6
:1006500072726F720D0A006B72000D0A0000535324
:1006600000547D7DFFFF4B4B7E7E004E2F41004EA0
:100670002F4100454F420D0A004E2F41000B08103C
:100680005B11F81547191D1A1C1BC71C001DB22150
:10069000B623EA0007022E030D04E905CA070C0B76
:1006A000060D210E650F6A10C81193120315341739
:1006B00033181819161B4321562500261129592CC9
:1006C000812D353EC34552523A4343410D0A000045
:1006D00007024604C605260B0610C8119312031321
:1006E000221534173F182819161B432156250026BA
:1006F000110D210E650F6A070C160720F81E871FC3
:100700006B29592C812D353EC3FF004C454E455277
:10071000520D0A004C4F56460D0A004C454E4552AC
:10072000520D0A000302FF0000000000000000005C
:100730000000000000000000030210881182FF008A
:100740000000000000000000000000000307108807
:10075000110B0D210E6B0FD01553FF000000000090
:100760000B060D210E650F6A1700181819161B438A
:100770001C68250026110001024605D4042D030241
:10078000070008021089115C12061556FF007370ED
:1007900065636966792076616C6964206D6F646554
:1007A000206E756D6265720D0A000001022E030154
:1007B00004AA050F06FF070008000B060D210E74A2
:1007C0000FAD104B11F812161372154118181916A7
:1007D0001B0323E9242A2500261F3E500001022E78
:1007E000030104AA050F06FF070008000B060D21F0
:1007F0000E660F6610CA119312061352153518189B
:1008000019161B0323E9242A2500261F3E50000148
:10081000022E0301045505F006FF070008000B0631
:100820000D210E660F9910591183121E13521535A2
:10083000181819161B0323E9242A2500261F3E50E9
:100840003F20280020697320756E6B6E6F776E29CC
:1008500020557365206F6E65206F6600313A002069
:10086000402000203F000476059617000006020095
:100870000B080C000D210E650F6A106A114A120652
:10088000132214F80A00154721B622101818192E41
:100890001A6D1B041C091DB223EA242A2500261FF9
:1008A00029592C812D352E0907040800090006FF5F
:1008B0003EC2FF0454053D1700000602000B080C61
:1008C000000D210E6B0FD0105C11041206132214C0
:1008D000F80A00154421B622101818192E1ABF1B49
:1008E000431C091DB523EA242A2500261F29592C5B
:1008F000812D352E0907040800090006FF3EC2FFBE
:10090000534D4F444500544D4F4445004F4646001B
:100910004F46460011241FBECFEFDFE3DEBFCDBF41
:1009200000E00CBF18BE19BE1ABE1BBE10E2A0E04C
:10093000B0E2ECEAFFE700E00BBF02C007900D92C7
:10094000AA3EB107D9F71BBE2BE2AAEEB0E201C066
:100950001D92A43FB207E1F7CED10C94D43F50CB07
:10096000809150008460809350008091510082FFFC
:10097000FCCF8091500082608093500080915100A4
:1009800081FFFCCF809156008093560082E18093D6
:1009900065008AE78093660021E0209360003FB7FE
:1009A000F89488ED90E0A0E4B0E01BBEFD0184BFA8
:1009B00020833FBF8FE39FE10197F1F700C0000064
:1009C0008091400087E08093A20088ED84BF83E29D
:1009D000809380008091820080FDFCCF089581E0AB
:1009E0008CBFE0910020F09101201995089580912D
:1009F000780083FF0FC083E390E0D8D6882351F0BE
:100A00008091780088608093780060E083E390E0D4
:100A1000C6D6E5CF089580E00895E0E6F6E080E1EF
:100A20008183858380EB818380E4828381E5809369
:100A3000C00908958093C3098091C20987FFFCCF44
:100A40008091C3090895E0E8F6E0808581700895FB
:100A5000E0E8F6E080858695817008951092000A9E
:100A60001092010A8093260A9093270A1092200A76
:100A70001092210A80910C0A816080930C0A88E010
:100A80008093000A80910C0A80FD02C0A895FACFDD
:100A90001092000A0895CF93DF93EC018134910501
:100AA00060F488EE93E09C01C29FC001C39F900D4B
:100AB000D29F900D1124D2DF05C088EE93E0CEDFE7
:100AC0002197D9F7DF91CF910895E0E0F8E010A2E7
:100AD00011A228E020838FE39FE186A397A31182D0
:100AE00081E08683E0E4F8E010A211A280838FE128
:100AF00090E086A397A388EC80938001E0E4F9E07E
:100B000010A211A2208380E593EC86A397A31682FE
:100B100008950895CF92DF92EF92FF92CF93DF93E3
:100B2000EC016A017B01CB01BA0196958795779517
:100B3000679560587B47814E9F4FA70196010E94A1
:100B4000213C215031093F832E8383E08D8388E14E
:100B50008C83C1148BE4D806E104F10409F494C039
:100B6000D8F580E6C81689E0D806E104F10409F456
:100B70007BC0C8F488E5C81682E0D806E104F10419
:100B800009F4A6C080EBC81684E0D806E104F1049D
:100B900009F467C08CE2C81681E0D806E104F104CC
:100BA00009F09EC05BC080E8C81685E2D806E10463
:100BB000F10409F461C080E4C81688E3D806E104B2
:100BC000F10409F45DC080ECC81682E1D806E104A6
:100BD000F10409F085C04CC0C11481EED806E104CF
:100BE000F10409F461C0C0F4C11486E9D806E10437
:100BF000F10409F451C08DE3C81686E9D806E10472
:100C0000F10409F44DC080E8C81680E7D806E10475
:100C1000F10409F065C03CC0C11482ECD80681E043
:100C2000E806F10409F448C048F4C1148CE2D8067F
:100C300081E0E806F10409F053C03AC0C11484E829
:100C4000D80683E0E806F104D9F1C11488E0D8069B
:100C500087E0E806F10409F043C036C08FEC90E06D
:100C600009C08CE090E036C08CE090E026E033C014
:100C70008CE090E025E02FC08CE090E024E02BC0D9
:100C80008AE890E020E027C08CE090E023E023C0D9
:100C900089E890E02FEF1FC08CE090E022E01BC0BD
:100CA0008AED9CE02AEF17C087E890E02EEF13C092
:100CB0008CE090E021E00FC083E890E02DEF0BC0C6
:100CC0008BE790E02CEF07C08BE690E02BEF03C0A2
:100CD00089E190E027E08E832295207F292B2F83C6
:100CE000DF91CF91FF90EF90DF90CF90089538D4AF
:100CF00080E090E008957BDE33DE0BDFE6DE60E02F
:100D000070E087E796E00E94133FC4E0C09361065D
:100D100084DE99D60E94773480E096E92BD00E9439
:100D20007A3178940E9479220E947D118BE090E3C1
:100D300080931824909319240E940C1889E08093C2
:100D4000ED20C093660614D033D00E94871324D3BD
:100D50000E94E0260E949A190E94A1270E94412B1E
:100D60000E9450360E943C320E943D2E02D0ECCFB1
:100D700008950895AC01E0E8F6E088E0818384E01E
:100D8000828360E070E080EA9AE0C4DEE0EAFAE0A4
:100D900083818F7C80618383089580914F25882390
:100DA00031F08091A30A8C7F81608093A30A08951B
:100DB000E0911824F091192481E01995EECF1F924B
:100DC0000F920FB60F92112408B60F9218BE09B6F3
:100DD0000F9219BE0BB60F921BBE2F933F934F93EA
:100DE0005F936F937F938F939F93AF93BF93EF9393
:100DF000FF93E0EAFAE080E88183608180ED95E28C
:100E00004CD6FF91EF91BF91AF919F918F917F91C0
:100E10006F915F914F913F912F910F900BBE0F906B
:100E200009BE0F9008BE0F900FBE0F901F9018952F
:100E30001F920F920FB60F92112408B60F9218BE90
:100E400009B60F9219BE0BB60F921BBE2F933F939C
:100E50004F935F936F937F938F939F93AF93BF93C2
:100E6000EF93FF9380914F25882331F08DE495E235
:100E70002AD68093A00A05C08091A30A8C7F809314
:100E8000A30AFF91EF91BF91AF919F918F917F91B5
:100E90006F915F914F913F912F910F900BBE0F90EB
:100EA00009BE0F9008BE0F900FBE0F901F901895AF
:100EB000A1E0B0E0EEE5F7E00C944F3C482F8A301B
:100EC00008F048E088E0489F70011124E8EAF2E069
:100ED000EE0EFF1E8BE290E0F70164918C010F5F34
:100EE0001F4F49835CD4FFEFEF1AFF0AC801498105
:100EF0000333110589F74550453010F461E101C015
:100F000067E184E290E04BD42196E6E00C94683CE3
:100F1000CF93DF9382E090E0FC01E358FD4F6491B2
:100F2000EC0121963CD4CE01CB32D105A9F787E361
:100F300090E0FC01E15EFD4F6491EC0121962FD41D
:100F4000CE01C036D105A9F766DD8823C1F060E186
:100F50008FE090E024D460EB80E190E020D461E762
:100F600081E190E01CD460E184E490E018D460EB6F
:100F700085E490E014D461E786E490E010D488E042
:100F800097DFDF91CF9108951F93CF93DF93C0E652
:100F9000D6E010E11E83806C4DDD80E04BDD1D83CB
:100FA000DF91CF911F910895EF92FF921F93CF93FE
:100FB000DF931F92CDB7DEB790E6E92E96E0F92ECB
:100FC00010E1F70116838064698334DD6981862F1F
:100FD00031DDF70115830F90DF91CF911F91FF90C5
:100FE000EF9008951F93CF93DF93C0E6D6E010E112
:100FF0001E8320DD1D83DF91CF911F910895CF9334
:10100000CFEF09C08AE090E029DDC11104C082E081
:1010100080938B0607C084E3E5DFC1508077803181
:1010200089F7F5CFCF910895A2E0B0E0EAE1F8E0CA
:101030000C94513C8C01FC0181818737E9F441E03B
:10104000BE016F5F7F4FC80102964DD3892BA1F07F
:1010500041E0BE016E5F7F4FC801049644D3892BE7
:1010600059F06A818981A0DF83E3BCDFC8DF898111
:1010700036D38A8134D32CC041E0BE016E5F7F4FEE
:10108000C801019630D3892B21F18A81893969F40D
:1010900010E0812F79DF23D3812F8770873009F407
:1010A000AAD21F5F1033A9F714C06EDF182F83E494
:1010B00057D28A8114D388EF92E090D2812F0FD338
:1010C0008CEF92E08BD240E262E0812F90E097D2E9
:1010D00092D22296E4E00C946A3CCF9310928B0655
:1010E00086E380DFCFEF05C08AE090E0B7DCCC2359
:1010F00031F085E377DFC15080778032A9F7CF9157
:101100000895EF92FF920F931F93CF93DF93EC011B
:1011100010926F2210E11093610610928B061093CB
:1011200065068EE190E09ADC109366068EE190E011
:1011300095DC109365068DE290E090DC80E352DF51
:1011400084E690E0A8DC1093660680E473DC8E01F0
:10115000075D1F4F7E018FEFE81AF80ACE0126D3F4
:1011600069DCE701E016F106A9F780E180936506E6
:10117000809366068EE75EDC8BE290E0EC012196C0
:1011800015D358DCCE01C333D105C1F780E180937C
:10119000650683E327DF81E090E07DDCCDB7DEB735
:1011A000E6E00C94683CA1E0B0E0E9EDF8E00C94D6
:1011B000533C22E0298341E0BE016F5F7F4F0196DF
:1011C00092D2898175DE82E090E09BDF2196E2E099
:1011D0000C946C3C86E306DF10921A2410926D2268
:1011E00010926F22089582E090E08BDF81E080937F
:1011F0001A2410926D2210926F2208951F93CF939C
:10120000DF93D82F162FC0E085E3BEDE8D1739F0AF
:10121000812F90E023DCC150B9F781E001C080E06C
:10122000DF91CF911F91089585E2AEDE8F3311F0EB
:1012300080E0089586E3D6DE8091EA20811104C023
:1012400080E093E0CBD102C08DE3CCDE83E3CADE45
:1012500064E081E0D3DF85E297DE8F3349F7809148
:10126000EA20811103C087E093E0B8D181E00895BE
:1012700085E38ADE8D3051F485E286DE8F3331F4EA
:10128000D3DF84E3AFDE80778031D9F708951F92F2
:101290000F920FB60F92112408B60F9218BE09B61E
:1012A0000F9219BE0BB60F921BBE8F939F93AF93F5
:1012B000BF93EF93FF9380911C2490911D24A091E4
:1012C0001E24B0911F240196A11DB11D80931C24E2
:1012D00090931D24A0931E24B0931F2480911B245F
:1012E0008F5F80931B24E3ECF4E2808191811816D8
:1012F00019061CF4019780839183369684E2EB3DB6
:10130000F80799F78091DD249091DE24009729F069
:1013100001978093DD249093DE248091F0248F3F09
:1013200019F081508093F024FF91EF91BF91AF911C
:101330009F918F910F900BBE0F9009BE0F9008BE2A
:101340000F900FBE0F901F9018952FB7F8944091F3
:101350001C2450911D2460911E2470911F24FC01B7
:1013600040835183628373832FBF0895A4E0B0E06C
:10137000ECEBF9E00C94533CCE010196E6DF8C8156
:10138000AED18B81ACD18A81AAD18981A8D133D148
:101390002496E2E00C946C3C1F93CF93DF938091F2
:1013A0001C2490911D24A0911E24B0911F242091F3
:1013B000EB20281709F45EC080911C2490911D2415
:1013C000A0911E24B0911F248093EB20A895C3EC1C
:1013D000D4E210E028813981232B19F4812F0E9457
:1013E0000B251F5F26961430A9F78091DD2490917C
:1013F000DE24892B11F40E9463258091F024811151
:1014000002C00E94BE258091AF24882339F081500C
:101410008093AF24811102C00E94331A80911B2453
:101420008D3740F110921B248091022081FF03C070
:1014300084E0809367068091202490912124843851
:1014400023E0920728F4019680932024909321248E
:101450008091EC208F5F8093EC208C3359F41092B4
:10146000EC208091C2248F5F8093C2248C3310F0D3
:101470001092C224DF91CF911F910895CF93DF93F3
:10148000FC018381843509F068C0808120E030E070
:10149000422F435F481750F050E090E09C012F50DE
:1014A00031094217530709F058C00AC02F5F3F4F58
:1014B000DF01A20FB31F1F969C919B3349F7ECCF1E
:1014C000AC014E5051094E0F5F1FDA0113962C915B
:1014D000243509F042C0DC011B97AE0FBF1F3481D9
:1014E00011962C911197321338C0358112962C9198
:1014F0001297321332C0368113962C911397321300
:101500002CC0378114962C911497321326C0419722
:1015100015962C9115978E0F9F1FEC012B83169615
:101520008C911697EA01898319968C9119978A8371
:101530001A968C911A978B831B968C911B978C8390
:101540001C968C911C978D831D968C918E83808127
:101550008A50808382818A508283DF91CF9108955F
:10156000CF93C82F8091ED2080FF0EC080914F2532
:101570008E3730F087FD08C0CD3011F0CA3021F42D
:101580006C2F8DE495E289D28091BA248823C9F02A
:101590008091ED2083FF15C0CA3099F0CD3011F451
:1015A0006BE301C06C2F8AE294E277D2CD3019F45C
:1015B0008AE294E263DF83E08093AF2482E0809349
:1015C000B524CF910895CF93DF93EC0101C0C8DF1C
:1015D00089918111FCCFDF91CF910895CF93DF9353
:1015E000EC0102C0BDDF2196FE0184918111FACF8A
:1015F000DF91CF9108958DE0B3DF8AE0B1CFA6E00F
:10160000B0E0E5E0FBE00C94513C062F1E8215E0B3
:101610002AE030E01150E1E0F0E0EC0FFD1FE10FB7
:10162000F11DB9010E94FA3B805D8083CB0101501E
:10163000009759F01111EECF08C01150E1E0F0E031
:10164000EC0FFD1FE10FF11D4083015007FD02C0AB
:101650001111F3CF81E090E08C0F9D1F810F911D40
:10166000B2DF2696E4E00C946A3CA5E0B0E0EBE340
:10167000FBE00C94533C1D8224E0382F3F70215036
:10168000E22FF0E03A3010F4305D01C0395CA1E0A7
:10169000B0E0AC0FBD1FEA0FFB1F308334E096951E
:1016A00087953A95E1F76150009739F708C02150C6
:1016B000E1E0F0E0EC0FFD1FE20FF11D408361500F
:1016C00067FD02C02111F3CF81E090E08C0F9D1FD8
:1016D000820F911D78DF2596E2E00C946C3C40E38C
:1016E00062E090E0C2CFFB0122C0213608F0205218
:1016F000A22FA053AA3010F42A2F05C0A22FA15464
:10170000A63018F42753232B05C0203291F02A333A
:1017100081F005C0552331F02193415041F4E61B7F
:10172000F70B0DC0322F3295307F51E002C050E0F0
:1017300030E0DC012D91CD012111D7CFF0CFCF01C9
:10174000089520E030E05AE00EC0E42FE053EA3084
:1017500050F4F9015E9F90015F9F300D11242053DA
:101760003109240F311DFC014191CF014111EDCF11
:10177000FB01208331830895982F92959F709A30B2
:1017800010F4905D01C0995CFB0190838F708A30EA
:1017900010F4805D01C0895CFB01818308950E9483
:1017A0006D3F8091CF0187FDFCCF08950C945D3F84
:1017B00008951F93CF93DF930AC0EC012196F6DFC3
:1017C0008EDF112311F08AE3CBDE612FCE01162FBD
:1017D00011506111F2CFDF91CF911F910895ABE0CD
:1017E000B0E0E5EFFBE00C94513CFC01218128378F
:1017F00079F52281222309F438C023812223A9F11B
:1018000041E0BE01655F7F4F02966DDF8B8567DF2C
:101810008EE093E0E3DE8E010F5F1F4FB8018B85F2
:101820000E949134811110C01B860AC0F801E80F94
:10183000F11D808154DF80E293DE8B858F5F8B8783
:101840008B858A3098F337C082E193E0C7DE33C0DE
:101850002D3421F466E08AEF97E005C0203529F4A5
:1018600060E18AED97E0A5DF26C01A82198242E086
:10187000BE016F5F7F4F019636DF823011F48A819F
:1018800001C089818B878B8590E090DF182F82E5DE
:1018900067DE40E364E08B8590E0E7DE85E193E07E
:1018A0009DDE812F1CDF89E193E098DE40E262E05B
:1018B000812F90E0A4DE9FDE2B96E4E00C946A3C3E
:1018C000A6E0B0E0E6E6FCE00C944D3C8C01FC01A7
:1018D00081818837D1F482818823B9F0838188237C
:1018E000A1F08481882389F041E0BE016F5F7F4FC2
:1018F000C8010396F8DE41E050E0BE016F5F7F4F04
:10190000F80182810E94C03438C043E0BE016F5F9D
:101910007F4FC8010196E7DE823078F1298182305D
:1019200019F4C22ED12C04C0D22EC12C2A81C22A75
:101930007C01FF24FE01EE0DFF1D6081C6012FDF3B
:10194000EE0CFF1CFFEFEF1AFF0AE00EF11E11C0B4
:1019500041E0BE016F5F7F4FC701C5DE892B69F093
:101960008FEFC81AD80A6981C60119DFE2E0EE0ECE
:10197000F11CF70180818111EBCF2696E8E00C94F1
:10198000663C41E062E070E20196ADDE60910220CB
:1019900084E060FF03C08093650602C08093660602
:1019A00084E390E0FCCEA1E0B0E0E9EDFCE00C9433
:1019B000533C1982009731F041E0BE016F5F7F4FC9
:1019C000019691DE89818F3F09F4FFCF882321F0B2
:1019D00061E083E390E0E3DEF89493E088ED08B6FD
:1019E00084BF90938000A89508BEFFCFCF93DF936C
:1019F000EC0162E080E090E0D2DE62E481E090E021
:101A0000CEDE86DA60E080E690E0C9DE60E081E666
:101A100090E0C5DE60E083E390E0C1DE62E084E355
:101A200090E0BDDE60E080E690E0B9DE60E081E657
:101A300090E0B5DE8981883719F080E090E0B3DF6F
:101A4000DF91CF91089580E090E0B0DE823029F4FC
:101A500081E090E0ABDE823419F080E090E0C6DFF8
:101A600084E390E0A3DE809302200895FC0181814D
:101A7000883419F48DE193E009C00E940B05882396
:101A800019F084E293E002C082E393E0A7DDB3CDD6
:101A9000FC011282108211820895FC018FB7F89424
:101AA000928197FD0EC09F5F92839081DF01A90F05
:101AB000B11D13966C939F5F903811F0908301C015
:101AC00010828FBF0895FC019FB7F8948281811125
:101AD00001C00EC0815082832181DF01A20FB11DA0
:101AE00013968C912F5F203811F0218301C0118251
:101AF0009FBF0895FA013081882369F0DB01A30FAD
:101B0000B11DE1E0F0E0022E01C0EE0F0A94EAF709
:101B10009C919E2B9C93222319F0822F81500BC005
:101B2000832F8F5F8C3010F4FA018083FB01E80F64
:101B3000F11D108287E090E00895CF93C82F81E0D7
:101B400080938506CC2319F08091F22002C0809109
:101B5000F02020E1829FC00111240E942E0581E027
:101B600080938606CC2319F08091F12002C08091E9
:101B7000EF2020E1829FC00111240E942E05CF9109
:101B80000895A6E0B0E0E7ECFDE00C94433C6C0166
:101B90006983942EA22EEA82842F90E08D839E8307
:101BA00020912024309121240296089F802D112419
:101BB000992787FD90952817390720F480E493E052
:101BC0000DDD84C0281B390B209320243093212461
:101BD00084E08093650680916F22882339F010920B
:101BE0006F2283EE90E2B2D311E001C010E0809149
:101BF0001A24811101C0F7DA70DAF981EF2FF0E0D1
:101C0000EB83FC83EE24E394F12CB12CC601890D07
:101C1000911D97FC9A954C01612C712C05C080E0B8
:101C20008CDF9FEF691A790AEB81FC816E167F06C3
:101C3000B4F3F981FF2311F081E07FDF412C512CB7
:101C400017C097E0292E312C3601640C751CC70192
:101C5000022C01C0880F0A94EAF7F30190818923CE
:101C60006CDFF1E02F1A310890F79FEF491A590AFB
:101C7000ED81FE814E165F0624F387E0682E712CFD
:101C80000DC0C701062C01C0880F0A94EAF7F401C1
:101C90009081892352DFF1E06F1A7108A614B7040E
:101CA00084F38A8190E00E944B05015009F0B4CF83
:101CB00080912324882311F0A2D902C086E392D90F
:101CC00011110E94502984E0809366062696E2E175
:101CD0000C945C3CADE0B0E0E0E7FEE00C94463CE8
:101CE0007C01162F842F022F6701C60ED11C462FB0
:101CF000B70141D3D6018C931F5F1D8619825E2CDC
:101D0000670127E088248394912C32C047E0A42EF9
:101D1000B12C3701680E711CF4010A2C01C0EE0FC2
:101D20000A94EAF7D3018C91AE01435F5F4FBE0185
:101D30006F5F7F4F8E23DEDE282FB1E0AB1AB10834
:101D400058F7D601ED916D010E2EE295E0250E2E8D
:101D5000E695E695E025F0E03196E1FB882780F9ED
:101D6000AE01435F5F4FBE016F5F7F4FC3DE282F21
:101D70008C2D8519811708F4C9CF222311F0215029
:101D800004C08D858F5F8D8727E089E18093EF20E8
:101D90008093F02085E28093F1208093F2203AE056
:101DA000E32E4D856CE0CE010196EBDE2D96EFE043
:101DB0000C945F3CADE0B0E0E0EEFEE00C94523CF1
:101DC000162F242F4BE0BE016F5F7F4F01962D87AA
:101DD0008ADC2D85412F682FCE0101967BDF2D9661
:101DE000E3E00C946B3C43E066E0E4CFEF920F93AA
:101DF000CF93DF93CDB7DEB76097CDBFDEBF40E1B5
:101E0000BE016F5F7F4F01966EDC69814A810B8155
:101E10008C818093F0208D818093EF208E81809340
:101E2000F2208F818093F120E02EE2947FE0E72280
:101E30000F70242F2F7042954F70CE010896A1DEAF
:101E40006096CDBFDEBFDF91CF910F91EF900895E7
:101E5000A9E1B0E0EEE2FFE00C944B3C4BE0BE01A8
:101E60006F5F7F4F01963FDC182F893009F05BC010
:101E700099E19093EF209093F0209093F22082E3E9
:101E80008093F12069E0CE0101967FD2E1E0F0E09D
:101E9000EC0FFD1FE10FF11D8083198E1D868E0151
:101EA0000F5F1F4F6E018BE0C80ED11C27E0AA24E4
:101EB000A394B12C25C0E12CF12CF5010E2C01C00E
:101EC000EE0F0A94EAF7D8018C91AE01475E5F4F9E
:101ED000BE01635F7F4F8E230DDE282FBFEFEB1A0D
:101EE000FB0A88E0E816F10441F7AE01475E5F4F58
:101EF000BE01635F7F4F81E0FDDD282F0F5F1F4F25
:101F00000C151D05C1F6222311F0215004C0898D46
:101F10008F5F898F27E0EAE0EE2E03E0498D6CE0C9
:101F2000CE010D962EDE6996EAE00C94643CA9E1A0
:101F3000B0E0EDE9FFE00C94463C4BE08E010F5F12
:101F40001F4FB8010196CFDBF82E582E85E3809302
:101F5000F02096E19093EF209093F2208093F1206F
:101F60006F2DC8011ED2F801EF0DF11D808353942F
:101F7000198E1D86780127E0AA24A394B12C48016C
:101F80004DC0C12CD12C3401680E711CF5010C2CF4
:101F900001C0EE0F0A94EAF7D3018C91AE01475EBF
:101FA0005F4FBE01635F7F4F8E23A4DD282FBFEFFD
:101FB000CB1ADB0A84E0C816D10441F7AE01475EB4
:101FC0005F4FBE01635F7F4F81E094DD282FB4E057
:101FD000CB2ED12CF5010C2C01C0EE0F0A94EAF7A0
:101FE000D7018C91AE01475E5F4FBE01635F7F4FAB
:101FF0008E2380DD282FBFEFCB1ADB0A88E0C816BE
:10200000D10441F7AE01475E5F4FBE01635F7F4F72
:1020100081E070DD282FAFEFEA1AFA0A8E2D801BBF
:10202000851508F4AECFAAE0EA2E03E0498D6AE0F8
:10203000CE010D96A6DD6996EFE00C945F3CEF9221
:102040000F93CF93DF9300D01F92CDB7DEB743E05D
:10205000BE016F5F7F4F019646DB8AE68093F020DA
:1020600094E29093EF2091E29093F2208093F120FC
:1020700080E88C839FE0E92E03E026E043E060E007
:10208000CE0101967EDD2496CDBFDEBFDF91CF91DC
:102090000F91EF9008956F927F928F929F92BF92CF
:1020A000CF92DF92FF920F931F93CF93DF93A62FD0
:1020B0001092632110926421FC016181660F660F0A
:1020C000660F2381621B695F10926521F12C70E01D
:1020D00047E0F7E0DF2EC12C20E007E010E0C1E090
:1020E000D0E07DC0FC01EC0DF11D248130E00D2C11
:1020F00002C0359527950A94E2F721703327522FB5
:10210000DD2011F0DA9403C0C394E7E0DE2EAB3497
:1021100091F4433009F081C0F11007C051115CC047
:10212000109263217093642176C0F12C79C0AB3496
:1021300009F050C03CC04F3F41F5A634B9F4E72F39
:10214000F0E0EB59FE4D4081042E42954025042ECF
:1021500046954695402550E04F5F5F4F41FB8824F0
:1021600080F8912C8216930641F004C0A53429F41E
:10217000511103C0F0926321D5CF7F5FE72FF0E0CC
:10218000EB59FE4D108247E029C0552319F1A634C2
:1021900059F4E72FF0E0EB59FE4D9E01042E01C0EB
:1021A000220F0A94EAF713C0A53409F0C0CFE72F35
:1021B000F0E0EB59FE4D9801241B310947FD3395A2
:1021C0003E0102C0660C771C2A95E2F7930130812C
:1021D000322B3083415002C0FF24F3942B2DB22EBA
:1021E000B394261708F47ECFF09263217093642194
:1021F0006B1588F4A53419F44F3F09F404C080919D
:102200006321882319F07F5F7093642181E09091AE
:102210006421911108C080E006C04F3F09F4A8CFA7
:102220005111C5CFD7CFDF91CF911F910F91FF9063
:10223000DF90CF90BF909F908F907F906F90089588
:10224000E0E4F9E01682E09196218CE1E89FF0014C
:102250001124ED50FF4D10820895FC01218124319D
:1022600008F0EECF662389F0DC01A20FB11D81E0FA
:1022700090E0038002C0880F991F0A94E2F7149639
:102280009C911497982B14969C938381882319F022
:1022900081508383089587E083832F5F2183E20F3A
:1022A000F11D14820895DC0111962C91119730E0F4
:1022B00050E0F901E41BF50B8C91EC30F105DCF4F6
:1022C000E53FFF4FC4F090E070E0FC01E61BF70B28
:1022D000EC30F10584F4E53FFF4F6CF0280F391F17
:1022E000640F751F261B370B2C30310524F481E059
:1022F000253F3F4F0CF480E00895E0E8F6E081E0F0
:102300008183868382E08283118A81858C608187C4
:1023100082EC91E0809320249093212410920F214D
:1023200010922B211092472110921A240895809127
:10233000142481110AC080912324882321F00E9453
:10234000F3080C94FF070C94EA080895FC0121811E
:1023500021110BC080912324C2D940E265E0809115
:102360002024909121244BD946C941E063E274E2D4
:102370000196B9D9DCCF06C04150FB01E40FF11D35
:102380009081890F4111F8CF089520E006C0615077
:10239000FC01E60FF11D308123276111F8CF822F58
:1023A0000895A091632140E035E020E012C0615023
:1023B000FC01E60FF11D5081752F72957F70272764
:1023C000370FAA2311F0442319F05F702527350F2A
:1023D0004F5F6111ECCF320F40E1349FC0011124F7
:1023E000822B0895FC0132812381A081B181A30F4A
:1023F000B11D8C9190E0022E02C0959587950A94AC
:10240000E2F78170922F91509383211104C03F5FB6
:10241000328397E0938308958F929F92BF92CF92D9
:10242000DF92EF92FF920F931F93CF93DF931F9250
:102430001F92CDB7DEB76C01812C912CB12CEE240C
:10244000E394F12C062F10E0015011091DC0C601C4
:102450004A836983C7DF4A816981882391F04423D5
:1024600049F09801281939098E2D01C0880F2A9545
:10247000EAF706C08E2D082C01C0880F0A94EAF7EF
:10248000B82A8FEF881A980A861608F38B2D0F90BA
:102490000F90DF91CF911F910F91FF90EF90DF9000
:1024A000CF90BF909F908F900895A4E0B0E0EBE5AF
:1024B000F2E10C944A3C1B8227E02C839C012C5FA8
:1024C0003F4F29833A8310926421FC01218133819B
:1024D00087E090E0831B9109F8E02F9F800D911D0C
:1024E0001124853491057CF554C00A2D10E040E09C
:1024F00068E0CE01019690DF0B591E4DF8018083F4
:10250000982E092C92949024092C969496949024B9
:10251000CE01019667DF292D30E02F5F3F4F21FB71
:10252000CC24C0F8D12C90E0C816D90691F5CE0184
:10253000019658DF81112DC0F8018081B826A3943F
:10254000A092642101C0B12CA0906421F5E0FA159D
:1025500060F640E068E0CE0101965EDF082F182F9C
:10256000012E12951025012E169516951025CE01D7
:10257000019638DF212F30E02F5F3F4F21FBEE2403
:10258000E0F8F12C282F30E0E216F30611F481E098
:10259000B01280E02496EBE00C94633CA5E0B0E040
:1025A000E4EDF2E10C94503CFC011B8287E08C834B
:1025B000CF01049689839A838081853009F050C0C9
:1025C0002181338187E090E0831B910938E0239FCC
:1025D000800D911D11248039910509F041C01092A0
:1025E00064210FE010EF29E812C0CE0101962D837F
:1025F00013DF080F111DEF2DF0E0EB59FE4D2D817B
:1026000028272083282F2C5DF394F0926421F090EA
:1026100064218EE041E068E08F1538F7CE01019625
:10262000FBDE080F111DEF2DF0E0EB59FE4D8095FC
:102630008083F394F092642141E068E0CE0101963A
:10264000EBDE382F20E0021B130B41E068E0CE01E7
:102650000196E2DE282F30E081E00217130709F02F
:1026600080E02596E5E00C94693CA4E0B0E0EBE363
:10267000F3E10C94523C1B8227E02C839C012C5FDD
:102680003F4F29833A83FC012181243099F58381CE
:10269000813081F51092642114C0111106C067E0E9
:1026A000CE010196B9DE806804C068E0CE010196D3
:1026B000B3DEE12FF0E0EB59FE4D80831F5F1093F6
:1026C00064211091642141E0143038F367E0CE01B9
:1026D0000196A2DEE12FF0E0EB59FE4D880F8083DA
:1026E0001F5F109364219091652192959F7081E006
:1026F0009A3009F080E02496E3E00C946B3C8091E2
:10270000222480FD03C08460809322240895A1E0E8
:10271000B0E0EDE8F3E10C944F3C1982809179210F
:102720008823B9F18091232487FF17C084E30E9496
:10273000C4078058803458F0803C58F490E08055AD
:102740009109B3E095958795BA95E1F703C080E0CC
:1027500001C08FE08F590E94B00A8091232483FF2B
:1027600016C082E70E94B00A8091232484FF04C02F
:1027700080917A210E94B00A86E60E94B00A809178
:10278000232484FF04C0809179210E94B00A109212
:10279000792180917B21882309F43FC284E08093D2
:1027A000650600917C212CE1029F800111240D50CF
:1027B0001F4D8981811106C0C801F0DE882311F008
:1027C00083E58983898181113DC066E4C80163DCAA
:1027D0008823C1F1F0906421FA94F09264214F2D86
:1027E00065E671E286E0C7DD6F2D70E0FB01EB5915
:1027F000FE4DE0808E1105C093E09F1510F486E435
:102800001EC0282F30E02F5F3F4FEE2DF0E02E1737
:102810003F0751F4E3E0EF1538F496E49983FB01A8
:10282000EB59FE4D80830EC04F2D65E671E28CE0C2
:10283000A2DD8E1106C0F3E0FF1518F484E589834C
:1028400001C019828981811116C065E4C80123DCA9
:10285000882389F08091642181508093642189309C
:1028600051F469E085E691E290DD90916E21891343
:1028700002C085E489838981811106C0C80115DE03
:10288000882311F088E489838981811106C0C801F9
:10289000ECDE882311F084E789838981811133C0BC
:1028A000F801438D60917A21C8014A96FCDC682FBB
:1028B000C801D3DC6BE4C801EEDB8823B1F0F090F3
:1028C0006421FA94F09264216F2D85E691E269DD2E
:1028D000EF2DF0E090916321E91BF109EB59FE4DDA
:1028E0009081891302C08BE48983898181110BC097
:1028F000F8018381982F9F5F9383873021F413829F
:10290000818181508183898181112AC0F80181816F
:10291000843031F58381843019F54EE16CE3C801D0
:102920004896C1DC8823E1F04EE160917A21C8012C
:102930004A96B9DC682FC80190DC20E0822F90E035
:10294000FC01EB59FE4DD801A80FB91F14968C91CC
:1029500080832F5F253090F32093642182E5898363
:102960003981332309F4CBC02091232420FFC7C031
:10297000809122248E7F8B7F8093222421FD64C04E
:1029800050917D21F09064215F113DC040E017C05F
:10299000842F90E0642F6F5FFC01E258FE4DDC0154
:1029A000AB59BE4D70818C91781741F040937D21D9
:1029B000809122248D7F8093222405C0462F4517C5
:1029C00038F340937D2145131EC040911C24509143
:1029D0001D2460911E2470911F248091922190915A
:1029E0009321A0919421B0919521481B590B6A0B1A
:1029F0007B0B463251056105710528F48091222434
:102A000081608093222440E00BC0842F90E0FC0181
:102A1000E258FE4DDC01AB59BE4D8C9180834F5F77
:102A20004F1598F340937D2180911C2490911D2493
:102A3000A0911E24B0911F24809392219093932102
:102A4000A0939421B09395213435F1F426FD1CC058
:102A5000809164218530C0F0809167218B3479F0BA
:102A6000893669F0833559F0843549F08D3739F06E
:102A70008E3729F0809168218077803729F4809102
:102A80002224816080932224B801CE01019637DE92
:102A90008091222482FF33C089810E94B00A8091F4
:102AA0006321882329F080916421815080936421DF
:102AB000F12C08C0EF2DF0E0EB59FE4D80810E9413
:102AC0006F0BF394E0916421FE16A0F380916321D3
:102AD000882351F0F0E0EB59FE4D808140E361E046
:102AE0008F7090E00E94350B8091232485FF05C0F4
:102AF00084E30E94C4070E946F0B0E94FB0A80912E
:102B0000232482FF6FC080E70E94B00A40E262E0A7
:102B1000F801808190E00E94FF0AF801808D40E278
:102B200065E0F0E18F9FC00111240E94FF0AF801C7
:102B3000818D40E265E0F0E18F9FC00111240E9489
:102B4000FF0AF801828D40E265E0F0E18F9FC0014D
:102B500011240E94FF0AF801838D40E265E0F0E154
:102B60008F9FC00111240E94FF0A40E263E0F80138
:102B7000828190E00E94FF0A40E263E0F8018181D7
:102B800090E00E94FF0AF801238140E262E087E0C2
:102B900090E0821B91090E94FF0A80E20E94B00A25
:102BA0008091232485FF08C084E30E94C4070E940B
:102BB0006F0B80E20E94B00AF8018381873019F020
:102BC00081818F5F8183F12C07C0F801EF0DF11D2A
:102BD00084810E946F0BF394F8018181F816A8F3A9
:102BE0000E94FB0AF801108280917B218150809322
:102BF0007B2180917C218F5F843019F080937C2130
:102C000002C010927C2184E080936606898184351D
:102C100021F485E691E20E94CD252196E6E00C9410
:102C2000683C1F920F920FB60F92112408B60F92B4
:102C300018BE09B60F9219BE0BB60F921BBE2F938A
:102C40003F934F935F936F937F938F939F93AF9334
:102C5000BF93EF93FF93109246098091232483FF43
:102C600003C08EE20E94B00A809196219CE1899F68
:102C7000F0011124ED50FF4D9081933018F09181B7
:102C8000923010F4DDDA18C090917B21933049F432
:102C90008091232482FFF6CF87E493E00E94EE0A1E
:102CA000F1CF9F5F90937B218F5F843019F08093E9
:102CB000962102C010929621FF91EF91BF91AF91A2
:102CC0009F918F917F916F915F914F913F912F9144
:102CD0000F900BBE0F9009BE0F9008BE0F900FBE55
:102CE0000F901F901895982F9552973160F46A3085
:102CF00050F0673240F421E030E0681710F020E037
:102D000030E0C901089580E090E008951F920F928D
:102D10000FB60F92112408B60F9218BE09B60F9283
:102D200019BE0AB60F921ABE0BB60F921BBEFF92C7
:102D30000F931F932F933F934F935F936F937F93C3
:102D40008F939F93AF93BF93CF93DF93EF93FF93B3
:102D500080910125882321F082E08093012527C1FD
:102D60008091B024823021F483E08093B0241FC18D
:102D70008091600990916109E4E096958795EA95C4
:102D8000E1F7182FC09196218CE1C89FE001112432
:102D9000CD50DF4D8881843031F41E3208F407C1F4
:102DA0001F3448F0A5C0853031F4173108F4FFC056
:102DB000183208F09DC00E94280581110EC088813C
:102DC0008450823038F461E0CE0147DA1092600915
:102DD0001092610910937A21EAC000917A21101BA8
:102DE00010937921109260091092610988818450B2
:102DF000823020F460E0CE0130DAD9C080914C09F5
:102E0000816080934C09F880F1100DC0053608F000
:102E1000CEC0153608F0CBC0088F198F81E08A83A9
:102E200082E08883C4C082E0412F602FF81270C016
:102E3000CE01489638DA882301F1888D90E09C0114
:102E4000220F331F280F391F200F311D359527956D
:102E500035952795288F298D30E0C901880F991F56
:102E6000820F931F810F911D959587959595879555
:102E7000898F8A818F5F8A839AC08A81843008F41F
:102E800045C080EA9FE080936609909367098A8134
:102E90008C3050F0888D298D30E0280F311D25367B
:102EA000310524F084E027C08A3088F0888D298D90
:102EB00030E0280F311D253231054CF485E0888340
:102EC00088EE93E0809366099093670915C080911E
:102ED0002924882379F0612F802F05DF882351F082
:102EE000688D898D00DF882329F081E08093B024EC
:102EF000A7D95DC083E088830A8F1B8F198287E082
:102F00008B831C8281E08093460951C018827ECF5A
:102F1000CE014A96C8D9882301F161E0CE019DD93E
:102F20004A8D50E09A01220F331F240F351F200FC6
:102F3000311D35952795359527952A8F2B8D30E0B6
:102F4000C901880F991F820F931F810F911D9595BD
:102F50008795959587958B8F2AC0412F602FCE013D
:102F60004896A1D9882301F160E0CE0176D9488D39
:102F700050E09A01220F331F240F351F200F311DFF
:102F80003595279535952795288F298D30E0C901EE
:102F9000880F991F820F931F810F911D959587951B
:102FA00095958795898F03C087E0F812A1CFFF918F
:102FB000EF91DF91CF91BF91AF919F918F917F91D1
:102FC0006F915F914F913F912F911F910F91FF90C2
:102FD0000F900BBE0F900ABE0F9009BE0F9008BE57
:102FE0000F900FBE0F901F901895E09196218CE1E5
:102FF000E89FF0011124ED50FF4D8081811109C03F
:1030000081E090E02091F0242F3F29F480E090E0CF
:10301000089581E090E0089580E690E00E94D60B4C
:103020008093292481E690E00E94D60B8093BA24F5
:10303000882321F081E28093232479C9089521E037
:10304000E0E8F6E025830C942E0521E0E0E8F6E0C8
:1030500026830C942E05A7E0B0E0E1E3F8E10C94A0
:103060004E3C90913224943559F42091B324309100
:10307000B4242F5F3F4F2093B3243093B4243EC039
:10308000963459F42091B1243091B2242F5F3F4FF0
:103090002093B1243093B22431C0953459F4209157
:1030A0002624309127242F5F3F4F209326243093EE
:1030B000272424C09B3459F42091B6243091B7249E
:1030C0002F5F3F4F2093B6243093B72417C0983416
:1030D00059F42091B8243091B9242F5F3F4F2093A9
:1030E000B8243093B9240AC0209124243091252497
:1030F0002F5F3F4F209324243093252495E7998315
:10310000882399F0BE016E5F7F4F8091BA240E94A0
:10311000BC0BBE016C5F7F4F809129240E94BC0BC9
:1031200085E58E8396E0D92E02C0DD24D3940E94DB
:10313000F3080E946D0816E080E891E080DF80E0EF
:1031400093E083DF1150C1F780E093E078DF80E8FF
:1031500091E07BDF80E891E072DF81E0809386067A
:1031600087E390E00E94810883E090E00E944B0595
:1031700080E1809366068FE70E941A0580912C24D7
:103180008D0D0E941A05EE24E394F12CEC0EFD1E29
:103190008701F80181918F010E941A05802F8E19F5
:1031A0008D15B8F306C08AE294E20E94630D0E9476
:1031B0001A0580912C248111F6CF80E18093650659
:1031C0000E946D088AE294E20E94480D15E104C055
:1031D00081E090E00E944B058AE30E94C4078F774C
:1031E00011F01150A9F7A3D82796E7E00C94673C9B
:1031F000CF93DF93EC018981811107C0809129244D
:103200000E946F0B8091BA2413C08436A1F4809180
:103210001C2490911D24A0911E24B0911F2440E3F2
:1032200064E00E94350B8EE20E94B00A8091AF24C8
:103230000E946F0B4DC0833709F04DC040E361E041
:103240008091B3249091B4240E94350B8EE20E94A9
:10325000B00A40E361E08091B1249091B2240E94D1
:10326000350B8EE20E94B00A40E361E08091262493
:10327000909127240E94350B8EE20E94B00A40E311
:1032800061E08091B6249091B7240E94350B8EE2C4
:103290000E94B00A40E361E08091B8249091B92483
:1032A0000E94350B8EE20E94B00A40E361E08091FB
:1032B0002424909125240E94350B8EE20E94B00AAE
:1032C00040E361E08091AD249091AE240E94350BE3
:1032D0000E94FB0A2CC08936D9F441E069E274E20D
:1032E000CE0102960E94730B6091292480E690E043
:1032F0000E94CF0B41E06AEB74E2CE0104960E947B
:10330000730B6091BA2481E690E00E94CF0B0FC04E
:103310008AE294E20E94480D219604C08AE294E277
:103320000E944D0D69916111F9CF80E094DEDF912B
:10333000CF910895A1E0B0E0E0EAF9E10C944D3CB2
:103340008091B024882309F48AC0C0901C24D090B6
:103350001D24E0901E24F0901F24833009F065C0E6
:103360008FE30E94C407182F8630E8F080ED95E2C5
:103370000E94480D80E1809366068FEF0E941A0537
:1033800080E00E941A05082F08C080E00E941A05FC
:10339000682F80ED95E20E944D0D1150B1F780E14C
:1033A0008093650601C000E00E9497111092B0243E
:1033B000053709F054C041E0BE016F5F7F4F83EDD8
:1033C00095E20E94730B019759F599818091292408
:1033D000981326C08091D725853571F406C080EDFD
:1033E00095E20E94630D0E94B00A8091D22581115E
:1033F000F6CF0E94FB0A33C08091D225845080937F
:10340000D22584E08093D1256AE080ED95E20E9488
:103410004D0DE0911824F091192488E019951FC0F2
:1034200080ED95E20E94480D1AC0823059F49091C7
:1034300028248C2D891B883090F00E9497111092BF
:10344000B0240DC0813059F487E390E00E948108D8
:103450000E94FF0782E08093B024C0922824219626
:10346000E8E00C94663CC1DD882361F083E0809342
:10347000B5248091AD249091AE2401968093AD2423
:103480009093AE248091B52481508093B5248823F5
:1034900021F083E08093AF24089581E0DCCDCF93C9
:1034A000C82F8091082090910920C130E9F4C09381
:1034B00085069C01220F331F820F931F0E942E0549
:1034C000C093860680910820909109200E942E05C5
:1034D000C09385068091082090910920AC01440F8B
:1034E000551F840F951F45C0C11126C0C1E0C09370
:1034F00085060E942E05C093860680910820909133
:1035000009209C01220F331F820F931F0E942E055A
:10351000C093850680910820909109200E942E0575
:10352000C093860680910820909109209C01220F6B
:10353000331F820F931F25C0C1E0C09385060E94F0
:103540002E05C093860680910820909109209C0149
:10355000220F331F820F931F0E942E05C0938506F2
:1035600080910820909109209C01220F331F820F27
:10357000931F0E942E05C09386068091082090918B
:1035800009200E942E05CF910895CF93DF93C0E1CB
:10359000C093610682E080938206C09365068EE147
:1035A00090E00E942E05C09366068EE190E00E9496
:1035B0002E05C09365068DE290E00E942E0580E303
:1035C0000E94F20784E690E00E942E05C0936606F2
:1035D00080E40E941A05CEE4D3E0FE0184910E94AB
:1035E0001A052196F3E0CB35DF07B9F78091032068
:1035F0000E941A05809104200E941A0580910520DE
:103600000E941A05C0E0D0E0FE01E25AFC4F84910E
:103610000E941A052196C931D105B1F780E1809346
:103620006506809366068EE70E941A058BE290E09D
:10363000EC0121960E94D60B0E941A05CE01C333DD
:10364000D105B1F780E18093650683E30E94F2071C
:1036500081E090E00E944B0581E080931A24DF9185
:10366000CF910895A0E0B0E0E8E3FBE10C944C3C7E
:10367000EC018981843769F468E070E2CE0102963A
:103680000E94A10B40E260E0809108209091092007
:1036900012C0833709F0B4C08A81823789F466E0AA
:1036A00070E2CE0103960E94A10B40E260E080919F
:1036B0000620909107200E94FF0A0E94FB0A15C174
:1036C00084E08093650680919921811117C08091D3
:1036D0006D22882329F081E08093982110926D2239
:1036E00080916F22882329F081E0809397211092A6
:1036F0006F224BDF83E090E00E944B0586E30E943F
:10370000F2078AE30E94F2078BE30E94F2070E940D
:103710006D0800E010E06E0182E0C80ED11C27C0E9
:10372000F70181917F01803311F480E005C081337E
:1037300011F481E001C082E0B2DEBA9489F7FF247F
:10374000F394F092850680910820909109200E94C0
:103750002E05F0928606BFE1FB2E80910820909105
:1037600009200E942E05FA94C1F70F5F1F4F809128
:103770000620909107200817190720F47601ACE085
:10378000BA2ECECF80919921882341F080912324B5
:1037900081110FC086E30E94F20719C08091982121
:1037A000882351F0109298210E94482781E080934D
:1037B0006D220E94FF070BC080919721882329F07A
:1037C000109297210E94502902C00E94971184E014
:1037D0008093660689E60E94B00A83E70E94B00AD9
:1037E000229611E08991803309F404C0813309F4F1
:1037F00001C086E40E94B00A1F5F1D3099F75DCFBB
:103800008237B9F480916D22882329F081E080937A
:10381000982110926D2280916F22882329F081E0F7
:103820008093972110926F22B0DE81E080939921DE
:103830005CC0863651F58A81803351F480E18093F3
:10384000032080EB8093042081E78093052007C04C
:1038500043E063E070E2CE0102960E94730B89E6BA
:103860000E94B00A86E60E94B00A8AE30E94B00A6B
:10387000809103200E946F0B809104200E946F0BA7
:10388000809105200E946F0B18CF883731F5809109
:103890009821882341F0109298210E94482781E0C6
:1038A00080936D2211C080919721882329F0109276
:1038B00097210E9450290EC082E090E00E9481086A
:1038C00080912324882319F00E94FF0703C086E318
:1038D0000E94F2071092992108C0833631F468E003
:1038E00070E2CE0101960E94A10BCDB7DEB7E9E0F0
:1038F0000C94653CA2E0B0E0E0E8FCE10C94433CB1
:103900007C01FC018181833709F0BBC1198287E00A
:1039100090E00E94743C8C0141E0BE016F5F7F4FDC
:10392000C70102960E94730B8981F801808341E0F0
:10393000BE016F5F7F4FC70104960E94730B298100
:10394000207FF801218341E0BE016F5F7F4FC701F7
:1039500006962A830E94730B8981F801828341E0D5
:10396000BE016F5F7F4FC70108960E94730B89816C
:10397000F801838341E0BE016F5F7F4FC7010A9664
:103980000E94730B8981F801868341E0BE016F5F5D
:103990007F4FC7010C960E94730B8981F8018583C4
:1039A00041E0BE016F5F7F4FC7010E960E94730B0F
:1039B0008981F801848380E090E02A814191342F4D
:1039C00032953F70342783279F5F9730B9F78F7008
:1039D000822BF801818387E090E00E94743C5C01B7
:1039E00087E0F801D50101900D928A95E1F7D801A1
:1039F0001196C8010696F8013D9121912327208355
:103A0000E817F907C9F784E08093650680919C2147
:103A100081116EC080916D22882329F081E080930E
:103A20009B2110926D2280916F22882329F081E0E2
:103A300080939A2110926F2270E1F72EF092610626
:103A400082E080938206F09265068EE190E00E940B
:103A50002E05F09266068EE190E00E942E05F0920F
:103A600065068DE290E00E942E0580E30E94F20739
:103A700084E690E00E942E05F092660680E40E94A3
:103A80001A05E7E7EE2EE3E0FE2EF70184910E948F
:103A90001A05FFEFEF1AFF0A20EAE21623E0F2060A
:103AA000A1F780E180936506809366068EE70E9409
:103AB0001A058BE290E07C01EFEFEE1AFE0A0E94FD
:103AC000D60B0E941A05C70183339105A1F780E147
:103AD0008093650683E30E94F20781E090E00E94F4
:103AE0004B0581E080931A2483E090E00E944B050F
:103AF00086E30E94F2078AE30E94F2078BE30E94AA
:103B0000F2070E946D08FF24F394F092850687EC7B
:103B100094E20E942E05F092860689E590E00E94CC
:103B20004B0585E392E00E942E05E12CF12C5524F3
:103B30005394442443945DC0EE2011F027E001C06B
:103B400022E0D12C5092850686EF99E02A830E94CC
:103B50002E055092860686EF99E00E942E05D3949A
:103B60002A81D2167CF3409285068CEF92E10E9466
:103B70002E054092860680910A2090910B200E948B
:103B80002E056801312CF60181906F0158E0252E39
:103B900060E8662E712C912C9301282139218091A7
:103BA0000A2090910B20232B39F4509285060E9415
:103BB0002E055092860606C0509286060E942E055B
:103BC0005092850680910A2090910B200E942E052C
:103BD000769467942A9401F73394F7E03F12D3CF99
:103BE0005092860680E090E00E942E052FEFE21AA8
:103BF000F20A80910E2090E0E816F9060CF49CCFB2
:103C000080919C21882341F08091232481110FC051
:103C100086E30E94F20719C080919B21882351F00E
:103C200010929B210E94482781E080936D220E9480
:103C3000FF070BC080919A21882329F010929A21C6
:103C40000E94502902C00E94971184E0809366066A
:103C500089E50E94B00A83E70E94B00A750137E047
:103C6000D32EF70181917F010E946F0BDA94C9F77F
:103C70000E94FB0AC5010E940F3DC8010E940F3D32
:103C80006FC08237A9F46EE070E2C70102960E940D
:103C9000A10B89E50E94B00A82E70E94B00A8AE37C
:103CA0000E94B00A40E260E080910E2090E02CC0BB
:103CB000843779F5F7018281803339F488ED94E017
:103CC00080930C2090930D2006C06CE070E2C70139
:103CD00002960E94A10B80910C2090910D20969548
:103CE000879580930A2090930B2089E50E94B00A63
:103CF00084E70E94B00A8AE30E94B00A40E266E0CC
:103D000080910C2090910D200E94FF0A0E94FB0AD6
:103D100027C0883729F580919B21882341F0109294
:103D20009B210E94482781E080936D2211C08091E1
:103D30009A21882329F010929A210E9450290EC0BE
:103D400082E090E00E94810880912324882319F06A
:103D50000E94FF0703C086E30E94F20710929C2195
:103D60002296E2E10C945C3CCF93DF93C0E1C093D8
:103D7000610682E080938206C09365068EE190E042
:103D80000E942E05C09366068EE190E00E942E05EB
:103D9000C09365068DE290E00E942E0580E30E94AC
:103DA000F20784E690E00E942E05C093660680E448
:103DB0000E941A05C0EAD3E0FE0184910E941A0510
:103DC0002196F3E0C93CDF07B9F780E180936506EF
:103DD000809366068EE70E941A058BE290E0EC0164
:103DE00021960E94D60B0E941A05CE01C333D1053D
:103DF000B1F780E18093650683E30E94F20781E0DA
:103E000090E00E944B0581E080931A248093AF21BB
:103E1000DF91CF910895A0E0B0E0E1E1FFE10C94E3
:103E20004B3C8C018091BB24F801838364839DE02B
:103E3000E92EF12C20E1A22E0E946D0885E30E945C
:103E4000C407833169F089EC93E00E94EE0A85E3B0
:103E50000E94C4070E946F0B0E94FB0A85DF4AC0C4
:103E600040911C2450911D2460911E2470911F24A8
:103E70004093BC245093BD246093BE247093BF2410
:103E8000A09266068FE70E941A056801C0E0D0E0A4
:103E90008AEAB82EF60180810E941A05C930D10540
:103EA00044F4F6018081B826C730D10511F4F80139
:103EB000B0862196FFEFCF1ADF0ACF30D10551F738
:103EC000A0926506C8EC85E30E94C407833131F0F7
:103ED00081E0E81AF10809F0AFCF07C081E090E077
:103EE0000E944B05C15079F7F3CF8091BB248F5FBF
:103EF0008093BB24CDB7DEB7EAE00C94643CABE31F
:103F0000B0E0E5E8FFE10C94493C7C01DC010D9058
:103F10000020E9F7AD0141505109481B590B6C01D4
:103F2000B2E0CB0ED11CBE01625D7F4FC6010E9484
:103F3000730B082F66EE70E280E190E20E94EF3E84
:103F4000F7011181812F8357823008F0DBC181E0B6
:103F50008093AD2187858A3411F489E501C08EE410
:103F600080930F2080901C2490901D24A0901E24EC
:103F7000B0901F2440911C2450911D2460911E2458
:103F800070911F244093BC245093BD246093BE24A1
:103F90007093BF2480910F20893509F054C086EDBD
:103FA00093E00E94EE0A82EE93E00E94EE0AC701BF
:103FB0000E94E30A89EF93E00E94EE0AD7010D9078
:103FC0000020E9F7CD01019740E260E08E199F09DA
:103FD0000E94FF0A8EE094E00E94EE0AF701019031
:103FE0000020E9F73197EE19FF09EE0DFF1D40E2C1
:103FF00060E0808190E00E94FF0A86E594E00E94E4
:10400000EE0A40E260E0802F90E00E94FF0A8EE915
:1040100094E00E94EE0A81EA94E00E94EE0A40E3F6
:1040200064E08091BE249091BF240E94350B40E350
:1040300064E08091BC249091BD240E94350B88EBF4
:1040400094E00E94EE0AD7010D900020E9F7519705
:10405000AE15BF0509F03DC142E0BE01625D7F4F74
:10406000C6010E94730B029709F033C17DDE0EA5D5
:10407000B701665F7F4F45E050E0CE0101960E9498
:10408000043F1E824AE050E060E070E0CE010196FD
:104090000E94AE3D6B017C0133E0F694E794D79427
:1040A000C7943A95D1F780910F208935F1F48BEBC5
:1040B00094E00E94EE0ACE0101960E94E30A82ED8E
:1040C00094E00E94EE0A89ED94E00E94EE0A40E33B
:1040D00064E0C7010E94350B40E364E0C6010E9422
:1040E000350B80EF94E00E94EE0A8FE0E4E6F0E208
:1040F000DE015F9601900D928A95E1F78FA588A366
:1041000088A989A389A98EA3602FCE014F9683DE4B
:10411000133709F4EEC007FFECC04091BC24509166
:10412000BD246091BE247091BF2480911C24909185
:104130001D24A0911E24B0911F2488199909AA0951
:10414000BB098E379105A105B10548F480901C2468
:1041500090901D24A0901E24B0901F24A8958091BB
:104160001C2490911D24A0911E24B0911F24841B17
:10417000950BA60BB70BC816D906EA06FB06A8F6E0
:1041800080901C2490901D24A0901E24B0901F2489
:1041900080910F20893509F073C088EF94E00E9468
:1041A000EE0A40E364E0C5010E94350B40E364E0A1
:1041B000C4010E94350B8FE095E00E94EE0A87E172
:1041C00095E00E94EE0A40E364E08091BE24909165
:1041D000BF240E94350B40E364E08091BC249091A1
:1041E000BD240E94350B8EE295E00E94EE0A86E324
:1041F00095E00E94EE0A40E364E0C7010E94350B9F
:1042000040E364E0C6010E94350B8DE495E00E9416
:10421000EE0A85E595E00E94EE0A80911C249091BB
:104220001D24A0911E24B0911F244091BC245091C4
:10423000BD246091BE247091BF24841B950BA60BF6
:10424000B70B40E364E0CD010E94350B80911C2444
:1042500090911D24A0911E24B0911F242091BC2474
:104260003091BD24821B930B40E364E00E94350B28
:104270008CE695E00E94EE0A84E795E00E94EE0A43
:1042800067EFCE014F96C7DD4091BC245091BD240D
:104290006091BE247091BF2480911C2490911D24B4
:1042A000A0911E24B0911F24841B950BA60BB70B65
:1042B0004597A105B10580F380910F20893521F440
:1042C0008DE795E00E94EE0A67EFCE014F96A3DDE1
:1042D00010C086E895E00E94EE0A40E260E08EE0C1
:1042E00090E00E94FF0A8BEA95E00E94EE0A10928D
:1042F000AF218091AE21813011F40E94FF0710920E
:10430000AD2139C0123789F5F7018281853441F436
:104310001092AE2186E30E94F2078FEC95E022C056
:104320008335F1F481E08093AE211EDD80EE95E0CF
:104330000E94EE0A0E94FF0785E30E94C4078D30A9
:10434000D1F083EF95E00E94EE0A85E30E94C40756
:104350000E946F0B0E94FB0A07DD1092AE210BC07A
:104360008CE096E00E94EE0A06C08EE296E00E9483
:10437000EE0A1092AF21EB96ECE00C94623C1092A6
:10438000DB2410925E2283E080935F228FEF809384
:10439000F0240895E0EBF1E20EC0009751F0418166
:1043A000DC013C91431305C0428111963C914317B7
:1043B000B1F0E20FF11D2081211105C0892B41F0E0
:1043C000E0E0F0E00CC0B2E2EE35FB0730F3F6CFF0
:1043D00032E2EE35F30719F010F0EEE5F2E2CF012C
:1043E000089594E0899FF0011124EF50FB4D8081E6
:1043F0008F3F91F08093602281818093612282813E
:104400008093622283818093632221E04CE064E008
:1044100080E692E20C946A0E089586E692E2BADF94
:10442000009799F020915F22FC013081231768F4F6
:10443000E20FF11D80818093682289E780936922D1
:10444000818180936A2281E0089580E00895EF924F
:10445000FF921F93CF93DF931F92CDB7DEB7182F34
:104460008091232486FF18C084E599830E94B00AB6
:10447000E12E9981F92E15E0F70181917F010E94CB
:104480006F0B1150C9F78091232485FF03C08AEF79
:104490000E946F0B0E94FB0A0F90DF91CF911F913A
:1044A000FF90EF90089586E30E94F20780916822C2
:1044B000833519F48BE990E002C08BE490E00E9410
:1044C0004B0521E04CE065E086E692E20E946A0E30
:1044D0000E94FF0786E692E2BACFE5DF809168226C
:1044E000893631F081E08093652289E28093F0245F
:1044F0000895CF9385E390E00E94D60B8093C1246A
:1045000086E390E00E94D60B8093EF24CFEFC09318
:10451000DF24C093E124C093E324C093E524C09337
:10452000E724C093E924C093EB24C093ED2427DF54
:104530001092B02181E08093C024C093F1248FEFCA
:104540009FEF8093C3249093C4241092C5241092AB
:10455000C6241092C7241092C824C093F5248093D7
:10456000C9249093CA241092CB241092CC24109288
:10457000CD241092CE24C093F9248093CF2490931D
:10458000D0241092D1241092D2241092D3241092CD
:10459000D424C093FD248093D5249093D6241092E4
:1045A000D7241092D8241092D9241092DA24CF91D3
:1045B0000895ACE0B0E0EFEDF2E20C944C3C6C01FD
:1045C0008C010F5F1F4F45E0BE016F5F7F4FC80139
:1045D0000E94730B843008F0F4C099819130A9F4E3
:1045E000833061F46A8185E390E00E94CF0B6B8198
:1045F00086E390E00E94CF0B7CDF09C28091C1244A
:104600000E946F0B8091EF249BC0923009F052C042
:10461000813041F081E090E02A81213029F080E072
:1046200090E002C081E090E0E82E8091B0218111FD
:1046300004C089E796E00E94EE0A00EB11E230C068
:1046400031E2003B130719F080E20E94B00AF80142
:1046500081810E946F0BF80182810E946F0BE11033
:1046600005C0F8018081080F111D1AC08AE30E945D
:10467000B00A93E0F92E0FC0F3E0FF1528F4F0FE26
:1046800003C08CE20E94B00AF801EF0DF11DF39413
:1046900080810E946F0BF8018081F81668F3E1CFEA
:1046A000F8018081882309F489C0F2E20E351F07E2
:1046B00038F284C0933049F480E090E06BDE805B98
:1046C00091429EEA981B892F3BC0903171F50FED06
:1046D00014E280EEE82E84E2F82EC12CD12CF801F1
:1046E00080818F3FA1F0DD2019F080E20E94B00AA6
:1046F0008C2D0E946F0B8AE30E94B00AF801808122
:104700000E946F0BF70180810E946F0BD3940E5FA4
:104710001F4FC394F2E0EF0EF11C38E0C312DFCF5D
:10472000D1104CC08BE696E047C0913161F4809186
:10473000DD249091DE246DE770E00E94FA3B862F25
:104740000E946F0B3BC09231C9F511EFE12E14E2CC
:10475000F12E04EF14E2C12CD12CF70180818F3FA0
:10476000F1F0DD2019F080E20E94B00A8C2D0E9449
:104770006F0B8AE30E94B00AF70180810E946F0BE1
:10478000F801329780810E946F0BF8013197808188
:104790000E946F0BF80180810E946F0BD394F4E0AC
:1047A000EF0EF11CC3940C5F1F4F34E0C312D5CF42
:1047B000D11004C08FE696E00E94EE0A0E94FB0A28
:1047C00026C144E0BE01695F7F4FC8010E94730BA0
:1047D0004F81493608F479C05A85688579855C30FF
:1047E00009F04DC020E030E080E090E0F901EF50AA
:1047F000FB4D508154131CC0A181A61319C0A28186
:10480000A71316C02CE023839C01220F331F280F0F
:10481000391FF901EE0FFF1FED53FB4D108211827E
:10482000F901EE0FFF1FEB53FB4D10821182D1C037
:104830005F3FE9F4408328852183298522832CE08A
:1048400023839C01220F331F280F391FF901EE0F1C
:10485000FF1FED53FB4D10821182F901EE0FFF1F78
:10486000EB53FB4D108211821092C024B2C001960E
:104870002C5F3F4F2031310509F0B8CFC8C080E030
:1048800090E020E030E0FC01EF50FB4DA081A4134C
:1048900015C0A181A61312C0A281A7130FC0538314
:1048A000F901EE0FFF1FE20FF31FEE0FFF1FEB5397
:1048B000FB4D81E090E080839183A9C02F5F3F4F43
:1048C000049680319105F9F6A2C0E9818091C12456
:1048D000E817C8F190E0F0E09C01295F3F4F2E17E8
:1048E0003F078CF13A812091EF2432132CC02C81A8
:1048F0002F3231F442E06CE0C6010E94DA0E87C02C
:104900002C32B9F42D812093DC2481E090E0809357
:10491000DD249093DE248091202490912124E4E0F2
:104920002E9F800D911D112480932024909321248B
:104930006EC0E81BF90BEE0FF0E0E152FB4D208357
:104940008D81818364C080E090E024DD7C01F801EA
:1049500001900020E9F73197E01BF10BF695E79500
:10496000BE2EB394C7018B0D911D805B91428F3A8F
:1049700091050CF048C0F701B1928F0121E01AC0F7
:1049800041E0B801F601E80FF11DCF012C870E942C
:10499000730B2C85233058F020FD09C0D8011197E6
:1049A0008C91843621F4F80180818093C2242F5F9A
:1049B0000F5F1F4F822F880F81502B1508F3FEE5E4
:1049C000EF16F2E2FF0618F5F701E20FF11D108273
:1049D0001EC022E04CE064E0CE0107960E946A0E01
:1049E0008FE08A8722E04CE064E0CE0107960E94C7
:1049F0006A0E82E08A8722E04CE064E0CE010796EE
:104A00000E946A0E04C083E796E00E94EE0A2C968C
:104A1000E9E00C94653C0F931F93CF93DF93909143
:104A2000C02491114BC093E0899F80011124F801AB
:104A3000EE0FFF1FED53FB4D94E0899FD001112431
:104A4000AF50BB4D12969C91977046E0949F900199
:104A5000391B112433583595279535952795208393
:104A60003183E801CC0FDD1FC953DB4D288139812B
:104A70002F5F3F4F28833983000F111F0B531B4DAE
:104A8000F801408151814115510529F42430310547
:104A9000A9F4A7DC11C04130510539F4A2DC82E051
:104AA00090E0F8018083918309C04230510531F4D0
:104AB00098DCF8011082118218821982DF91CF915F
:104AC0001F910F910895A6E0B0E0E9E6F5E20C949D
:104AD0004F3C8091EF248A831B829091DC249923A0
:104AE00041F0933019F487E791E00CC08DE790E036
:104AF00009C087702DE7829FC0011124825B9F4807
:104B0000959587958093DD249093DE2400EE14E242
:104B1000F12C7CE2E72EF801319790819F3FC1F0A4
:104B20008091C1248F0D89838091DC24882311F02A
:104B3000EC8203C09C83F80180818D8321E04CE0EE
:104B400065E0CE0101960E946A0ECE0101967FDCDF
:104B5000F3940E5F1F4FF8E0FF12DDCF8091DC244D
:104B6000882341F0833019F41092DC2403C0825072
:104B70008093DC242696E6E00C94683C80916522C4
:104B8000882351F090DC89E28093F02480916522A3
:104B90008150809365220895F2CBFF920F931F936B
:104BA000CF93DF93FC01F0800181C281D381148116
:104BB0008FE58093F024109265228091C1248111A9
:104BC00005C08091EF24882309F4ABC08091662250
:104BD0008F1104C080916722801729F0D0DBF092FA
:104BE0006622009367228091DB248F3F09F499C0ED
:104BF000C0936822D093692210936A22CC23F1F0EB
:104C000081111CC08091C124181761F0143651F035
:104C10008C2F8355823010F0CD3739F48FEF80938D
:104C2000DB247FC0C43509F47CC08D2F807F8036A3
:104C300009F077C0D067D093692267C0EEDB81119D
:104C400005C08091DB24882309F46BC080915E222B
:104C5000811107C0E091DB24F0E0E35AF94FE491C1
:104C600001C0E82FE33541F4C43531F49091DB24E1
:104C70009E5F9093DB2404C0EC1711F080DB51C0E1
:104C8000882309F444C080915F228E5F80935F2265
:104C9000C4DB811106C08091DB248E5F8093DB240E
:104CA00036C08091682280935E22843671F58091AF
:104CB000C22480936A2229C01093682297E79093B8
:104CC00069229091C12490936A228E5F8093DB24A5
:104CD00010925E228E30B9F486E692E25BDBDC0154
:104CE000009781F02C9130E08EE592E2821B930BCD
:104CF00005C0ED01C20FD31F48814D93A817B90716
:104D0000C0F31C923CDB112361F0E7DB0AC0809109
:104D1000DB24E82FF0E0E25AF94F14911F3F61F6CF
:104D2000C0CFCDB7DEB7E5E00C94693C0F931F937D
:104D3000CF93DF93EC01A82FBD2FFD010190002040
:104D4000E9F73197EA1BFB0B8981823751F487E33E
:104D500090E00E9481080E94FF0781E08093012576
:104D60002AC0833731F50E2F80E1809366068FE7E6
:104D70000E941A05802F82500E941A05229612E086
:104D800004C089910E941A051F5F1017D0F380E1BB
:104D9000809365060E946D0804C081E090E00E9447
:104DA0004B058AE30E94C4078F77B9F70E94FF077B
:104DB00002C010920125DF91CF911F910F910895AC
:104DC000A0E8B0E0E6EEF6E20C944D3C80910125BF
:104DD000882309F458C0813011F580911C249091EA
:104DE0001D24A0911E24B0911F2420916C2228170D
:104DF00009F449C085E30E94C407813129F48AE39C
:104E00000E94F2070E94FF0780911C2490911D24AC
:104E1000A0911E24B0911F2480936C2234C08FE394
:104E20000E94C407D82E87FD2BC080E180936606C0
:104E30008FEF0E941A058E010F5F1F4F7801C02E61
:104E400006C080E00E941A05F70181937F018E2D34
:104E50008C198D15B0F380E18093650681E0809315
:104E6000ED2005C0F80181918F010E94B00A802FCA
:104E70008C198D15B8F30E94FB0A8FEF8093ED20FB
:104E800081E080930125C058DF4FE8E00C94663C38
:104E9000CF93DF93C0E1C093610682E080938206E6
:104EA000C09365068EE190E00E942E05C0936606D1
:104EB0008EE190E00E942E05C09365068DE290E0A1
:104EC0000E942E0580E30E94F20784E690E00E9493
:104ED0002E05C0E0D0E0FE01EC56F94F6491FE01D2
:104EE000ED56F94F84910E94D4072296C233D10522
:104EF00091F780916E22811108C083E30E94F2072E
:104F000084E090E00E944B0511C0C0E0D0E0FE01BB
:104F1000E258F94F6491FE01E358F94F84910E94E1
:104F2000D4072296C631D10591F7E7CF84E30E94DA
:104F3000F20785E30E94C4078D30C1F7DF91CF915E
:104F40000895A2E3B0E0E7EAF7E20C94513C8091C7
:104F50006D22882309F4A9C00E942805882309F43A
:104F60008FC08FE30E94C4078F778983823368F0F4
:104F70008AE30E94F20786E30E94F2078DE30E9413
:104F8000F20784E30E94F20790C080E180936606F6
:104F90008FEF0E941A0510E00BC080E00E941A05F6
:104FA000E2E0F0E0EC0FFD1FE10FF11D80831F5FD9
:104FB0008981181790F380E00E941A05082F80E07D
:104FC0000E941A0580E18093650684E30E94F2073F
:104FD00085E30E94C4078D30C1F72A8196E79227A6
:104FE0009A8392E00CC041E050E04C0F5D1FE40F4B
:104FF000F51F30812452232720839F5F232F89812F
:10500000E92FF0E0981778F381E090E08C0F9D1F76
:10501000E80FF91F90818B8198279083809123243A
:1050200084FF13C081E60E94B00A10E00AC0E1E0EC
:10503000F0E0EC0FFD1FE10FF11D80810E94B00A2E
:105040001F5F8981811798F71BC081E40E94B00A15
:1050500010E00AC0E1E0F0E0EC0FFD1FE10FF11DF0
:1050600080810E946F0B1F5F8981811798F7809163
:10507000232485FF03C0802F0E946F0B0E94FB0A30
:1050800085E30E94C407813029F0813161F48AE30D
:105090000E94F20786E30E94F2078DE30E94F20766
:1050A00084E30E94F2070E943809E296E4E00C943F
:1050B0006A3C8F929F92AF92BF92FF920F931F9381
:1050C000CF93DF93CDB7DEB7EA97CDBFDEBF41E325
:1050D000BE016F5F7F4F01960E94730B8C01992771
:1050E0000197298130E08217930709F0B4C08091BD
:1050F0006D22811105C0CCDE83E090E00E944B055B
:10510000FB808A8196E789278A8322E009C0DE0135
:10511000A80FB91F8C9184529081892780832F5FBB
:105120003981822F90E0E1E0F0E0EC0FFD1FE80F05
:10513000F91F231760F380818F258083CE01C796E6
:105140000E94A50985E30E94F20785E30E94C40737
:10515000833181F1CE01C3960E94A5094BA95CA9B8
:105160006DA97EA98FA998ADA9ADBAAD8417950791
:10517000A607B70760F44A015B01881A990AAA0AD0
:10518000BB0A2DEB82169104A104B10470F44817F8
:1051900059076A077B0770F484549F4FAF4FBF4F86
:1051A00084179507A607B70728F485EC96E00E94B8
:1051B000EE0A34C085E30E94C407833119F6F4FE79
:1051C0000BC088E790E00E944B0588E790E00E94C2
:1051D0004B0588E790E002C08AE090E00E944B0512
:1051E00080E1809366068FE70E941A0588248394E5
:1051F000912C8C0E9D1E540105C0F50181915F011B
:105200000E941A058A2D88198017B8F380E18093CF
:10521000650685E30E94C4078331D9F385E30E94C4
:10522000C407863149F48BE30E94F20786E30E94AB
:10523000F2078DE30E94F20780916D22882349F0E6
:1052400084E30E94F20785E30E94C4078D30C1F712
:1052500002C00E949711EA96CDBFDEBFDF91CF91C9
:105260001F910F91FF90BF90AF909F908F900895E6
:10527000FC012181223731F0223559F481E08093FD
:105280006E2202C010926E2203DE81E080936D22B6
:105290000895233711F401960CCF10926D220895D2
:1052A000CF93DF93C0E1C093610682E080938206D2
:1052B000C09365068EE190E00E942E05C0936606BD
:1052C0008EE190E00E942E05C09365068DE290E08D
:1052D0000E942E0580E30E94F20784E690E00E947F
:1052E0004B05C0E0D0E0FE01E153F94F84918134D9
:1052F00048F083E30E94F20784E090E00E944B05AF
:10530000CFEF0BC0FE01E053F94F64910E94D40728
:105310002296CC33D10539F7ECCF84E30E94F20713
:105320008AE090E00E942E05C150B9F781E0809399
:105330006F22DF91CF910895EF92FF920F931F9309
:10534000CF93DF93EC018B01F880F3946115710525
:1053500019F0E4E6F0E002C0E0E0F0E028E0F29EC0
:10536000C00111246AE070E00E940E3C9B012E0FE8
:105370003F1FC901AA2797FDA095BA2FE0912024CD
:10538000F0912124AF0160E070E0481759076A07E7
:105390007B0728F484E197E00E94EE0ADDC0E21B5F
:1053A000F30BE0932024F093212480916F2281114C
:1053B00001C076DF85E30E94C4078D3071F08AE575
:1053C0000E94B00A85E40E94B00A82E50E94B00AF9
:1053D00082E50E94B00A81E34DC0809176229091CF
:1053E0007722A0917822B0917922892B8A2B8B2B5E
:1053F00069F40E946D0885E30E94C407833109F4B3
:1054000044C02BC081E090E00E944B0580911C2499
:1054100090911D24A0911E24B0911F2440917622CA
:1054200050917722609178227091792284179507A4
:10543000A607B70739F380911C2490911D24A091F1
:105440001E24B0911F244F5F5F4F6F4F7F4F841713
:105450009507A607B707B1F2CCCF8AE50E94B00A3C
:1054600085E40E94B00A82E50E94B00A82E50E94AB
:10547000B00A82E30E94B00A85E30E94C4070E943A
:105480006F0B0E94FB0A0CDF67C0012B51F480E117
:10549000809366068FE70E941A05EC2E0C2F1D2FB5
:1054A0000FC00AE010E084E690E00E944B05015036
:1054B0001109C9F7ECCFF80181918F010E941A05FB
:1054C000802F8E198F15B8F380E180936506C8ECA4
:1054D00085E30E94C4078D3031F485E30E94C40740
:1054E0008D3069F423C085E30E94C4078331A9F796
:1054F00081E090E00E944B05C15051F7EECF8AE564
:105500000E94B00A85E40E94B00A82E50E94B00AB7
:1055100082E50E94B00A83E30E94B00A85E30E94FC
:10552000C4070E946F0B0E94FB0ABADE80916F22B3
:10553000811102C00E94971180911C2490911D241A
:10554000A0911E24B0911F248093762290937722FD
:10555000A0937822B0937922CDB7DEB7E6E00C9421
:10556000683CACE0B0E0E7EBFAE20C94503CFC01A4
:105570008BE0898381818A831B8282E08C8387818F
:105580008D8380858E8381858F83848188878581C3
:10559000898786818A871B861C8684E190E00E9429
:1055A0004B0560E070E08E010F5F1F4FC801C4DE45
:1055B0008AE50E94B00AF12C07C0F801E80FF91F34
:1055C00080810E946F0BF3948F2D90E0298130E051
:1055D0002817390794F78091232485FF03C080E0C2
:1055E0000E946F0B0E94FB0A2C96E5E00C94693C2C
:1055F000CF93DF93EC0190917022911108C08091BC
:105600007122811104C0809172228823B1F08B81B4
:10561000803321F0803411F0803579F48F81891343
:105620000CC0988580917122981307C0998580914C
:105630007222981302C0CE0194DF809173228111EF
:1056400008C090917422911104C090917522992301
:10565000A9F098819B3091F49B81903479F49F81DB
:1056600098130CC0988580917422981307C099856F
:1056700080917522981302C0CE0173DFDF91CF9124
:105680000895AEE1B0E0E7E4FBE20C944F3C80917A
:105690006F22882309F46EC00E942805882309F42C
:1056A0005BC08FE30E94C4078F778E3108F401C07E
:1056B0008DE1898380E1809366068FEF0E941A0551
:1056C00010E00BC080E00E941A05E2E0F0E0EC0F71
:1056D000FD1FE10FF11D80831F5F8981181790F373
:1056E00080E00E941A05E82E80E00E941A0580E101
:1056F000809365068E010F5F1F4FC80179DF80918F
:10570000232484FF10C08AE70E94B00AF12C07C04E
:10571000F801EF0DF11D80810E94B00AF394898198
:105720008F15B0F727C08AE50E94B00AF12C07C098
:10573000F801EF0DF11D80810E946F0BF3948981B8
:105740008F15B0F78091232485FF03C08E2D0E9412
:105750006F0B0E94FB0A0EC085E30E94C4078131D3
:1057600049F48AE30E94F20786E30E94F20784E389
:105770000E94F2076E96E6E00C94683CAEE1B0E061
:10578000E4ECFBE20C94513C8C01FC0181818237FA
:1057900011F486DD36C0833711F0863601F54DE110
:1057A000BE016F5F7F4FC80102960E94730B99275D
:1057B0000197298130E08217930729F08BE197E068
:1057C0000E94EE0A1EC061E070E0F801818183371B
:1057D00011F060E070E0CE010196AEDD12C08136BE
:1057E00021F443E060E772E205C0873741F443E00B
:1057F00063E772E2C80102960E94730B02C0109226
:105800006F226E96E4E00C946A3CFF920F931F9314
:10581000CF93DF93F82EC0E1C093610682E08093BE
:10582000820610927A22C09365068EE190E00E9473
:105830002E05C09366068EE190E00E942E05C0936F
:1058400065068DE290E00E942E0580E30E94F2073B
:1058500084E690E00E942E058F2D8150833008F061
:105860003FC0C0E0D0E0FE01E05AF84F849181349F
:1058700068F0C0E0D0E02F2D30E02150310984E104
:10588000829F8001839F100D11240BC0FE01EF59F0
:10589000F84F64910E94D4072296CC33D10519F7B2
:1058A000E8CFFE01E00FF11FEC5DF84F84918134E9
:1058B00050F083E30E94F207F0927A2281E090E0B8
:1058C0000E944B050DC0FE01E00FF11FEB5DF84F8C
:1058D00064910E94D4072296C431D10511F7E9CF13
:1058E000CDB7DEB7E5E00C94693CA1E0B0E0EBE7B2
:1058F000FCE20C94533C1982FC0121812237A9F46B
:105900002281222331F0BE016F5F7F4F02960E94F9
:10591000A10B8981982F9150933028F08EE897E061
:105920000E94EE0A13C071DF0BC0283749F4809142
:105930007A22882319F086E30E94F20710927A22D5
:1059400080917A220E946F0B0E94FB0A2196E2E06E
:105950000C946C3CCF93DF93C0E1C093610682E06E
:1059600080938206C09365068EE190E00E942E052A
:10597000C09366068EE190E00E942E05C0936506F6
:105980008DE290E00E942E0580E30E94F20784E6FB
:1059900090E00E942E05809143258933D1F4C0E028
:1059A000D0E0FE01E15FF74F6491FE01E25FF74F47
:1059B00084910E94D4072296C233D10591F783E3E4
:1059C0000E94F20784E090E00E944B050E94FF07CE
:1059D00026C0843389F4C0E0D0E0FE01E352F84FE2
:1059E0006491FE01E452F84F84910E94D4072296FC
:1059F000C233D10591F7E3CF813309F7C0E0D0E09E
:105A0000FE01E555F84F6491FE01E655F84F84918B
:105A10000E94D4072296C233D10591F7D0CFDF91EF
:105A2000CF910895FC01908180914825981318C06A
:105A3000918180914925981313C0928180914A25C4
:105A400098130EC0938180914B25981309C08085CF
:105A500090914C25891302C081E008958F3FE1F3B6
:105A600080E008952FEF06C06150FC01E60FF11DA4
:105A7000308123276111F8CF822F0895FC01DC01CA
:105A80002FE03DE170E01FC04D91832F99278427BF
:105A9000AC01529542954F7045275F7045274827C6
:105AA0005927322F222724273527CA01982F8827E4
:105AB0009295907F2827392785E0440F551F8A95B6
:105AC000E1F724273527CD018E1B9F0B86179707FB
:105AD000DCF2C9010895DF92EF92FF920F931F93BA
