:1000000091C40000B4C40000B2C40000B0C4000039
:10001000AEC40000ACC40000AAC40000A8C4000024
:10002000A6C40000A4C40000A2C40000A0C4000034
:100030009EC400009CC400000C94BA0898C4000040
:1000400096C4000094C4000092C4000090C4000054
:100050008EC400008CC400008AC4000088C4000064
:1000600086C4000084C4000082C4000080C4000074
:100070007EC400007CC400007AC4000078C4000084
:1000800076C4000074C4000072C4000070C4000094
:100090006EC400006CC400006AC4000068C40000A4
:1000A00066C4000064C4000062C4000060C40000B4
:1000B0005EC400005CC400005AC4000058C40000C4
:1000C00056C4000054C4000052C4000050C40000D4
:1000D0004EC400004CC400004AC4000048C40000E4
:1000E00046C4000044C4000042C4000040C40000F4
:1000F0003EC400003CC400003AC4000038C4000004
:1001000036C4000034C4000032C400000C94C11690
:100110002EC400002CC400002AC4000028C4000023
:1001200026C4000024C4000022C4000020C4000033
:100130001EC400001CC400001AC4000018C4000043
:1001400016C4000014C4000012C400000C944C1625
:100150000EC400000CC400000AC4000008C4000063
:100160000C9438310C947F310C94E43100C40000BD
:10017000FEC30000FCC30000FAC30000F8C3000087
:10018000F6C30000F4C30000F2C30000F0C3000097
:10019000EEC30000ECC30000EAC30000E8C30000A7
:1001A000E6C30000E4C30000E2C30000E0C30000B7
:1001B000DEC30000DCC30000DAC30000D8C30000C7
:1001C000D6C30000D4C30000D2C30000D0C30000D7
:1001D000CEC30000CCC30000CAC30000C8C30000E7
:1001E000C6C30000C4C30000C2C30000C0C30000F7
:1001F000BEC300000C94A63EBAC3000042400C628D
:100200004837438707461F0F690C1D6B592141234F
:100210002B70D3305AA92D47220F4D540F4BC30FCB
:10022000554B1059541E525C0B54C42456A30C5702
:10023000CD0B58D21165630C6681286D882E6C2E0B
:100240000C7429097532197846087AE81B000000F9
:10025000072E050DD391FF080500000C0021656AEB
:100260002D3B1322F862073F181D1CC700B0876B97
:10027000F8B611EA2A001F41000D2E2D07D3913D3B
:1002800004320000060021656A55E43023B90007F6
:100290000018146C070090876BF85611E92A001FAC
:1002A000410000030F1E2627000000030F1E253605
:1002B000386700030F256740605000030F275188FF
:1002C000838100030F2750C8C3C20027000000002D
:1002D0000000006700000000000000500000000067
:1002E0000000008100000000000000C200000000CB
:1002F0000000203D2000202F2000504C4C300D0AE3
:1003000000504C4C310D0A00203D20006E61002051
:100310003D2000202F20005452345F5631005620DB
:10032000322E36372043554C383638000E03430002
:1003300055004C00380036003800000016036200FB
:100340007500730077006100720065002E00640084
:10035000650000000403090409028300040100C0D1
:1003600032080B000202020100090400000102022F
:1003700001000524001001042402060524060001E2
:10038000070583030800FF09040100020A000000BA
:100390000705020240000507058102400005080B21
:1003A000020202020100090402000102020100052A
:1003B0002400100104240206052406020307058612
:1003C000030800FF09040300020A000000070505F6
:1003D000024000050705840240000512011001EFEC
:1003E000020108EB034E2001000102DC014C4F56D4
:1003F000460D0A00424F56460D0A000001022E0328
:100400000104AA050F06FF070008000B060D210EC8
:10041000740FAD104B11F8121613721541181819FC
:10042000161B0323E9242A2500261F3E5000010243
:100430002E030104AA050F06FF070008000B060D96
:10044000210E660F6610CA11931206135215351845
:100450001819161B0323E9242A2500261F3E5000E5
:1004600001022E0301045505F006FF070008000BEA
:10047000060D210E660F9910591183121E13521585
:1004800035181819161B0323E9242A2500261F3EB8
:10049000500D2E2D07D3913D04320000060010B000
:1004A0007155E43023B900070018146C07009087D9
:1004B0006BF85611E92A001F41000D2E2D07D3912C
:1004C0003D04320000060010ABA5550A3023B900E8
:1004D000070018146C070090876BF85611E92A0082
:1004E0001F4100012E4604AA540FE0000000060040
:1004F00021656A97831663B947070C29366C074054
:1005000091876BF85611E92A001F410054585F4942
:100510004E49545F4552525F005472616E736D696B
:1005200074740D0A00636F6D6D616E646C696E6545
:10053000706172616D657465723A20000D0A5374C2
:1005400072696E676C656E6774683A20202020209F
:10055000000D0A4E657874204368617261637465AA
:10056000722028696E74292061667465722070613A
:1005700072616D65746572202873686F756C642094
:100580006265206C696E6520656E642063686172C7
:100590006163746572293A20000D0A416D6F756EB2
:1005A00074206F6620427974657320284865782925
:1005B00020666F756E6420696E7369646520636F71
:1005C0006D6D616E64206C696E6520706172616D25
:1005D000657465723A2020202020202020202020D1
:1005E000000D0A005469636B2054696D65723A20EE
:1005F00020202020202020202020000D0A004B65F4
:10060000794F666654696D653A20202020202020AD
:1006100020202020006D7365630D0A004B65794F23
:10062000666654696D6520696E207469636B733A00
:100630002020005B6865785D0D0A005469636B20BB
:1006400054696D65723A202020202020202020202F
:1006500020005B6865785D0D0A00426C6F636B205B
:1006600053746172742054696D653A2020202020F3
:10067000005B6865785D0D0A004B65794F666654CE
:10068000696D653A20202020202020202020200095
:100690005B6865785D0D0A007469636B732D426C4D
:1006A0006F636B537461727454696D653A20005BBB
:1006B0006865785D0D0A00426C6F636B320D0A004D
:1006C000426C6F636B330D0A004B6F707020547275
:1006D000616E736D69747420436F6D6D616E64201B
:1006E0006E6F7420657175616C20746F20002042FC
:1006F00079746573206F72204B6579636F64652030
:100700006973206E6F206865782076616C75650D61
:100710000A006B72452D52656365697665456E64A6
:100720000D0A006B72532D526563656976655374CB
:100730006172740D0A0052585F494E49545F455228
:10074000525F4D41524353544154455F5258004B00
:100750006F707020526563656976652053756243DA
:100760006F6D6D616E6420556E6B6E6F776E0D0AE6
:10077000004B6F707020436F6D6D616E6420556E1D
:100780006B6E6F776E0D0A0000535300547D7DFF32
:10079000FF4B4B7E7E004E2F41004E2F4100454FB8
:1007A000420D0A004E2F41000B08105B11F815474F
:1007B000191D1A1C1BC71C001DB221B623EA000715
:1007C000022E030D04E905CA070C0B060D210E6568
:1007D0000F6A10C81193120315341733181819161D
:1007E0001B4321562500261129592C812D353EC346
:1007F0004552523A4343410D0A000007024604C6DF
:1008000005260B0610C81193120313221534173F47
:10081000182819161B432156250026110D210E6597
:100820000F6A070C160720F81E871F6B29592C81A9
:100830002D353EC3FF004C454E4552520D0A004C2B
:100840004F56460D0A004C454E4552520D0A003F88
:1008500020280020697320756E6B6E6F776E2920DB
:10086000557365206F6E65206F6600313A00204039
:100870002000203F00047605961700000602000BBA
:10088000080C000D210E650F6A106A114A1206133A
:100890002214F80A00154721B622101818192E1A2A
:1008A0006D1B041C091DB223EA242A2500261F29DA
:1008B000592C812D352E0907040800090006FF3E3A
:1008C000C2FF0454053D1700000602000B080C008F
:1008D0000D210E6B0FD0105C11041206132214F8B8
:1008E0000A00154421B622101818192E1ABF1B43EE
:1008F0001C091DB523EA242A2500261F29592C810D
:100900002D352E0907040800090006FF3EC2FF53DB
:100910004D4F444500544D4F4445004F4646004F0F
:100920004646000011241FBECFEFDFE3DEBFCDBF80
:1009300000E00CBF18BE19BE1ABE1BBE11E2A0E03B
:10094000B0E2E4E8FAE800E00BBF02C007900D92C5
:10095000AC3EB107D9F71BBE20E3ACEEB1E201C05B
:100960001D92AE37B207E1F7F4D10C94404548CB65
:10097000809150008460809350008091510082FFEC
:10098000FCCF809150008160809350008091510095
:1009900080FFFCCF809156008093560081EA8093BF
:1009A0006D0087E080936E0081E08093680088E1AD
:1009B0008093550080915000806180935000809119
:1009C000510084FFFCCF80915000826080935000E2
:1009D0008091510081FFFCCF80915600809356009A
:1009E00082E1809365008AE78093660021E020938E
:1009F00060003FB7F89488ED90E0A0E4B0E01BBE43
:100A0000FD0184BF20833FBF8FE39FE10197F1F792
:100A100000C000008091400087E08093A20088ED34
:100A200084BF83E2809380008091820080FDFCCFB0
:100A3000089581E08CBFE0910020F091012019958C
:100A400008958091780083FF0FC083E390E01BD668
:100A5000882351F08091780088608093780060E06E
:100A600083E390E009D6E5CF0895E0E4F6E080E185
:100A70008183858380EB818380E4828381E5809319
:100A8000C00808958093C3088091C20887FFFCCFF7
:100A90008091C3080895E0E0F6E08085829581703A
:100AA0000895E0E0F6E0808585FB882780F90895C9
:100AB0001092000A1092010A8093260A9093270A46
:100AC0001092200A1092210A80910C0A8160809372
:100AD0000C0A88E08093000A80910C0A80FD02C015
:100AE000A895FACF1092000A0895CF93DF93EC01F6
:100AF0008134910560F488EE93E09C01C29FC001AF
:100B0000C39F900DD29F900D1124D2DF05C088EEB7
:100B100093E0CEDF2197D9F7DF91CF910895E0E000
:100B2000F8E010A211A228E020838FE39FE186A3C2
:100B300097A3118281E08683E0E4F8E010A211A27D
:100B400080838FE190E086A397A388EC8093800157
:100B5000E0E4F9E010A211A2208380E593EC86A3E3
:100B600097A3168208950895CF92DF92EF92FF9295
:100B70001F93CF93DF93EC016A017B01122FCB010E
:100B8000BA01969587957795679560587B47814E12
:100B90009F4FA70196010E948D41215031093F834B
:100BA0002E8383E08D8388E18C83C1148BE4D80687
:100BB000E104F10409F494C0D8F580E6C81689E090
:100BC000D806E104F10409F47BC0C8F488E5C8162E
:100BD00082E0D806E104F10409F4A6C080EBC8164F
:100BE00084E0D806E104F10409F467C08CE2C81679
:100BF00081E0D806E104F10409F09FC05BC080E801
:100C0000C81685E2D806E104F10409F461C080E465
:100C1000C81688E3D806E104F10409F45DC080EC4D
:100C2000C81682E1D806E104F10409F086C04CC080
:100C3000C11481EED806E104F10409F461C0C0F4E6
:100C4000C11486E9D806E104F10409F451C08DE32A
:100C5000C81686E9D806E104F10409F44DC080E81D
:100C6000C81680E7D806E104F10409F066C03CC06C
:100C7000C11482ECD80681E0E806F10409F448C00A
:100C800048F4C1148CE2D80681E0E806F10409F0CA
:100C900054C03AC0C11484E8D80683E0E806F104E1
:100CA000D9F1C11488E0D80687E0E806F10409F01C
:100CB00044C036C08FEC90E009C08CE090E036C0B4
:100CC0008CE090E026E033C08CE090E025E02FC07F
:100CD0008CE090E024E02BC08AE890E020E027C080
:100CE0008CE090E023E023C089E890E02FEF1FC064
:100CF0008CE090E022E01BC08AED9CE02AEF17C058
:100D000087E890E02EEF13C08CE090E021E00FC068
:100D100083E890E02DEF0BC08BE790E02CEF07C04D
:100D20008BE690E02BEF03C089E190E027E08E8313
:100D30002295207F292B2F831D83DF91CF911F9137
:100D4000FF90EF90DF90CF9008957DD380E090E00A
:100D5000089577DE0DDE07DFE2DE60E070E085EA11
:100D600096E00E947F44C4E0C09381067EDED8D521
:100D70000E945C3330D60E94F22F78940E94642443
:100D80000E94A91181E29EE28093192490931A2473
:100D90000E94471889E08093EF21C093860614D003
:100DA0001DD60E94B3136BD20E94CB280E94D41987
:100DB0000E948C290E942C2D0E943A350E94CB3033
:100DC0000E94C31B02D0ECCF08950895A1E0B0E0CB
:100DD000ECEEF6E00C94BB41482F8A3008F048E076
:100DE00088E0489F70011124E2EAF2E0EE0EFF1E57
:100DF0008BE290E0F70164918C010F5F1F4F4983F4
:100E00003BD4FFEFEF1AFF0AC801498103331105F4
:100E100089F74550453010F461E101C067E184E293
:100E200090E02AD42196E6E00C94D441CF93DF934E
:100E300082E090E0FC01E958FD4F6491EC012196BD
:100E40001BD4CE01CB32D105A9F787E390E0FC019A
:100E5000E75EFD4F6491EC0121960ED4CE01C036C1
:100E6000D105A9F788E0B2DFDF91CF9108951F93F4
:100E7000CF93DF93C0E4D6E010E11E83806C02DEE6
:100E800080E000DE1D83DF91CF911F910895EF92E6
:100E9000FF921F93CF93DF931F92CDB7DEB790E4FD
:100EA000E92E96E0F92E10E1F7011683806469833C
:100EB000E9DD6981862FE6DDF70115830F90DF916B
:100EC000CF911F91FF90EF9008951F93CF93DF93E1
:100ED000C0E4D6E010E11E83D5DD1D83DF91CF9104
:100EE0001F910895CF93CFEF09C08AE090E0E0DD35
:100EF000C11104C080E280930B0607C084E3E5DFE4
:100F0000C1508077803189F7F5CFCF910895A2E065
:100F1000B0E0EDE8F7E00C94BD418C01FC0181816B
:100F20008737E9F441E0BE016F5F7F4FC801029649
:100F300047D3892BA1F041E0BE016E5F7F4FC8010E
:100F400004963ED3892B59F06A818981A0DF83E31F
:100F5000BCDFC8DF898130D38A812ED32CC041E029
:100F6000BE016E5F7F4FC80101962AD3892B21F104
:100F70008A81893969F410E0812F79DF1DD3812FAF
:100F80008770873009F4A4D21F5F1033A9F714C00B
:100F90006EDF182F83E457D28A810ED382EF92E05E
:100FA0008AD2812F09D386EF92E085D240E262E0B7
:100FB000812F90E091D28CD22296E4E00C94D6411D
:100FC000CF9310920B0686E380DFCFEF05C08AE057
:100FD00090E06EDDCC2331F085E377DFC150807780
:100FE0008032A9F7CF910895EF92FF920F931F934C
:100FF000CF93DF93EC011092742310E1109341061C
:1010000010920B06109345068EE190E051DD10938F
:1010100046068EE190E04CDD109345068DE290E0AF
:1010200047DD80E352DF84E690E05FDD1093460603
:1010300080E428DD8E01075D1F4F7E018FEFE81AE7
:10104000F80ACE0120D31EDDE701E016F106A9F76C
:1010500080E180934506809346068EE713DD8BE2A0
:1010600090E0EC0121960FD30DDDCE01C333D10505
:10107000C1F780E18093450683E327DF81E090E0BC
:1010800034DDCDB7DEB7E6E00C94D441A1E0B0E0AA
:10109000ECE4F8E00C94BF4122E0298341E0BE017A
:1010A0006F5F7F4F01968CD2898190DE82E090E065
:1010B0009BDF2196E2E00C94D84186E306DF109294
:1010C0001B241092722310927423089582E090E002
:1010D0008BDF81E080931B24109272231092742383
:1010E00008951F93CF93DF93D82F162FC0E085E389
:1010F000BEDE8D1739F0812F90E0DADCC150B9F7F0
:1011000081E001C080E0DF91CF911F91089585E2D9
:10111000AEDE8F3311F080E0089586E3D6DE809155
:10112000EC21811104C08AEF92E0C5D102C08DE3A9
:10113000CCDE83E3CADE64E081E0D3DF85E297DEC4
:101140008F3349F78091EC21811103C081E093E056
:10115000B2D181E0089585E38ADE8D3051F485E2D5
:1011600086DE8F3331F4D3DF84E3AFDE80778031E6
:10117000D9F708951F920F920FB60F92112408B657
:101180000F9218BE09B60F9219BE0BB60F921BBE76
:101190008F939F93AF93BF93EF93FF9380911D2401
:1011A00090911E24A0911F24B09120240196A11D8E
:1011B000B11D80931D2490931E24A0931F24B093EF
:1011C000202480911C248F5F80931C24E7E7F5E2A4
:1011D00080819181181619061CF4019780839183F0
:1011E000369685E2EF38F80799F78091912590912E
:1011F0009225009729F0019780939125909392254D
:101200008091A4258F3F19F081508093A425FF91F0
:10121000EF91BF91AF919F918F910F900BBE0F9067
:1012200009BE0F9008BE0F900FBE0F901F9018952B
:101230002FB7F89440911D2450911E2460911F24D3
:1012400070912024FC0140835183628373832FBFFC
:101250000895A4E0B0E0EFE2F9E00C94BF41CE01C4
:101260000196E6DF8C81A8D18B81A6D18A81A4D199
:101270008981A2D12DD12496E2E00C94D8411F930C
:10128000CF93DF9380911D2490911E24A0911F2461
:10129000B09120242091ED21281709F45EC080919F
:1012A0001D2490911E24A0911F24B091202480938E
:1012B000ED21A895C7E7D5E210E028813981232BDD
:1012C00019F4812F0E94F6261F5F26961430A9F785
:1012D0008091912590919225892B11F40E944E279F
:1012E0008091A425811102C00E94A9278091B02479
:1012F000882339F081508093B024811102C00E946C
:101300006D1A80911C248D3740F110921C2480911D
:10131000022081FF03C084E080938706809121240E
:1013200090912224843823E0920728F40196809338
:101330002124909322248091EE218F5F8093EE21CF
:101340008C3359F41092EE21809176258F5F809333
:1013500076258C3310F010927625DF91CF911F9176
:101360000895CF93DF93FC018381843509F068C031
:10137000808120E030E0422F435F481750F050E07A
:1013800090E09C012F5031094217530709F058C0D3
:101390000AC02F5F3F4FDF01A20FB31F1F969C9122
:1013A0009B3349F7ECCFAC014E5051094E0F5F1FF4
:1013B000DA0113962C91243509F042C0DC011B9709
:1013C000AE0FBF1F348111962C911197321338C084
:1013D000358112962C911297321332C036811396B2
:1013E0002C91139732132CC0378114962C9114979B
:1013F000321326C0419715962C9115978E0F9F1F7B
:10140000EC012B8316968C911697EA018983199625
:101410008C9119978A831A968C911A978B831B96B5
:101420008C911B978C831C968C911C978D831D9699
:101430008C918E8380818A50808382818A508283BE
:10144000DF91CF910895CF93C82F8091552C843090
:1014500041F48091EF2180FF04C06C2F86EB95E270
:1014600048D38091BB248823C9F08091EF2183FF6A
:1014700015C0CA3099F0CD3011F46BE301C06C2F68
:101480008BE294E236D3CD3019F48BE294E269DF3B
:1014900083E08093B02482E08093B624CF910895B6
:1014A000CF93DF93EC0101C0CEDF89918111FCCF96
:1014B000DF91CF910895CF93DF93EC0102C0C3DF9A
:1014C0002196FE0184918111FACFDF91CF91089589
:1014D0008DE0B9DF8AE0B7CFA6E0B0E0E2E7FAE05E
:1014E0000C94BD41062F1E8215E02AE030E0115019
:1014F000E1E0F0E0EC0FFD1FE10FF11DB9010E94EA
:101500006641805D8083CB010150009759F0111135
:10151000EECF08C01150E1E0F0E0EC0FFD1FE10F4D
:10152000F11D4083015007FD02C01111F3CF81E08E
:1015300090E08C0F9D1F810F911DB2DF2696E4E095
:101540000C94D641A5E0B0E0E8EAFAE00C94BF4183
:101550001D8224E0382F3F702150E22FF0E03A3016
:1015600010F4305D01C0395CA1E0B0E0AC0FBD1FEC
:10157000EA0FFB1F308334E0969587953A95E1F7A3
:101580006150009739F708C02150E1E0F0E0EC0F1E
:10159000FD1FE20FF11D4083615067FD02C0211164
:1015A000F3CF81E090E08C0F9D1F820F911D78DFBB
:1015B0002596E2E00C94D84140E362E090E0C2CF8F
:1015C000FB0122C0213608F02052A22FA053AA30DE
:1015D00010F42A2F05C0A22FA154A63018F42753C7
:1015E000232B05C0203291F02A3381F005C055230A
:1015F00031F02193415041F4E61BF70B0DC0322F1F
:101600003295307F51E002C050E030E0DC012D9196
:10161000CD012111D7CFF0CFCF01089520E030E0E8
:101620005AE00EC0E42FE053EA3050F4F9015E9F17
:1016300090015F9F300D112420533109240F311D7B
:10164000FC014191CF014111EDCFFB01208331839A
:101650000895982F92959F709A3010F4905D01C074
:10166000995CFB0190838F708A3010F4805D01C01B
:10167000895CFB01818308950E94D9448091CF0148
:1016800087FDFCCF08950C94C94408951F93CF9310
:10169000DF930AC0EC012196F6DF8EDF112311F0F3
:1016A0008AE3D1DE612FCE01162F11506111F2CFE6
:1016B000DF91CF911F910895ABE0B0E0E2E6FBE04F
:1016C0000C94BD41FC012181283779F52281222328
:1016D00009F438C023812223A9F141E0BE01655FEE
:1016E0007F4F02966DDF8B8567DF88E093E0E3DE56
:1016F0008E010F5F1F4FB8018B850E9476338111D9
:1017000010C01B860AC0F801E80FF11D808154DF6C
:1017100080E299DE8B858F5F8B878B858A3098F38B
:1017200037C08CE093E0C7DE33C02D3421F466E08F
:101730008AEF97E005C0203529F460E18AED97E053
:10174000A5DF26C01A82198242E0BE016F5F7F4F7B
:10175000019636DF823011F48A8101C089818B873E
:101760008B8590E090DF182F82E56DDE40E364E02A
:101770008B8590E0E7DE8FE093E09DDE812F1CDF1C
:1017800083E193E098DE40E262E0812F90E0A4DE06
:101790009FDE2B96E4E00C94D641A6E0B0E0E3EDAA
:1017A000FBE00C94B9418C01FC0181818837D1F4B4
:1017B00082818823B9F083818823A1F084818823E2
:1017C00089F041E0BE016F5F7F4FC8010396F8DEEC
:1017D00041E050E0BE016F5F7F4FF80182810E94BF
:1017E000A53338C043E0BE016F5F7F4FC80101964B
:1017F000E7DE823078F12981823019F4C22ED12CB3
:1018000004C0D22EC12C2A81C22A7C01FF24FE01F1
:10181000EE0DFF1D6081C6012FDFEE0CFF1CFFEFF8
:10182000EF1AFF0AE00EF11E11C041E0BE016F5F2A
:101830007F4FC701C5DE892B69F08FEFC81AD80A20
:101840006981C60119DFE2E0EE0EF11CF70180812B
:101850008111EBCF2696E8E00C94D24141E062E0A2
:1018600070E20196ADDE6091022084E060FF03C06B
:101870008093850602C08093860684E390E0FCCEC8
:10188000A1E0B0E0E6E4FCE00C94BF4119820097CF
:1018900031F041E0BE016F5F7F4F019691DE89819B
:1018A0008F3F09F4FFCF882321F061E083E390E0CC
:1018B000E3DEF89493E088ED08B684BF909380004F
:1018C000A89508BEFFCFCF93DF93EC0162E080E0E4
:1018D00090E0D2DE63E481E090E0CEDEA7DA60E063
:1018E00080E690E0C9DE60E081E690E0C5DE60E081
:1018F00083E390E0C1DE62E084E390E0BDDE60E07F
:1019000080E690E0B9DE60E081E690E0B5DE8981B6
:10191000883719F080E090E0B3DFDF91CF91089530
:1019200080E090E0B0DE823029F481E090E0ABDE30
:10193000833419F080E090E0C6DF84E390E0A3DE1A
:10194000809302200895FC018181883419F487E195
:1019500093E002C08EE193E0AEDDBACDCF931FC01D
:101960008EE190E20E94D13F97FF15C08EEA9CE085
:101970008093172490931824E0911924F0911A244D
:1019800081E0199580911F200E949D3C8091B8258F
:101990008823F9F009C0682F89E396E2AAD08091E4
:1019A0003B2687FFDDCFE2CF0E943C3D81110AC07C
:1019B00010C086EB95E2B3D0682F8EE190E20E94D2
:1019C000423F01C0C1E48091B825882311F0C15085
:1019D00081F7CF9108950C946E3E0895BFDF8EE19C
:1019E00090E20E94B83F83E090E20E94B83F0C94DE
:1019F0005B3B089508958EE190E20E941E3F83E0D4
:101A000090E20C941E3F8EE190E20E94284083E019
:101A100090E20C942840FC018081823039F5A18D40
:101A2000A150A23028F4B0E0AC59BE4D4C9101C099
:101A300040E0808D823009F44860828D873059F013
:101A400018F4863069F405C0883039F0893041F4E3
:101A500006C0416005C0426003C0436001C04760EA
:101A600064897589868997890C9421320895292F74
:101A700033272230310539F02330310549F0213048
:101A8000310521F128C0E3E8F0E088E593E027C0C4
:101A900099278130910561F08230910581F0892B81
:101AA000D1F4E4E5F3E0E491F0E084E593E017C0DD
:101AB000ECE3F3E0E491F0E08CE393E010C0ECE2BF
:101AC000F3E0E491F0E08CE293E009C0E2E1F0E0C1
:101AD0008BED93E004C0E0E0F0E080E090E0DA011C
:101AE0008D939C93CF010895FC0112821082118284
:101AF0000895FC018FB7F894928197FD0EC09F5F07
:101B000092839081DF01A90FB11D13966C939F5FA3
:101B1000903811F0908301C010828FBF0895FC01AE
:101B20009FB7F8948281811101C00EC081508283D9
:101B30002181DF01A20FB11D13968C912F5F2038F8
:101B400011F0218301C011829FBF0895FA013081F5
:101B5000882369F0DB01A30FB11DE1E0F0E0022E64
:101B600001C0EE0F0A94EAF79C919E2B9C932223CE
:101B700019F0822F81500BC0832F8F5F8C3010F4AF
:101B8000FA018083FB01E80FF11D108287E090E0ED
:101B90000895CF93C82F80E180930506CC2319F0D8
:101BA0008091F42102C08091F22120E1829FC00146
:101BB00011240E94580580E180930606CC2319F079
:101BC0008091F32102C08091F12120E1829FC00128
:101BD00011240E945805CF910895A6E0B0E0E3EFEC
:101BE000FDE00C94AF416C016983942EA22EEA8231
:101BF000842F90E08D839E83209121243091222494
:101C00000296089F802D1124992787FD909528170B
:101C1000390720F48DEE93E04EDC84C0281B390B8D
:101C2000209321243093222484E0809385068091A0
:101C30007423882339F01092742385EE91E2B2D395
:101C400011E001C010E080911B24811101C03EDA37
:101C5000B7D9F981EF2FF0E0EB83FC83EE24E39416
:101C6000F12CB12CC601890D911D97FC9A954C0160
:101C7000612C712C05C080E08CDF9FEF691A790A16
:101C8000EB81FC816E167F06B4F3F981FF2311F01E
:101C900081E07FDF412C512C17C097E0292E312C99
:101CA0003601640C751CC701022C01C0880F0A9410
:101CB000EAF7F301908189236CDFF1E02F1A3108F4
:101CC00090F79FEF491A590AED81FE814E165F0683
:101CD00024F387E0682E712C0DC0C701062C01C0CB
:101CE000880F0A94EAF7F4019081892352DFF1E02A
:101CF0006F1A7108A614B70484F38A8190E00E94D9
:101D00007505015009F0B4CF80912424882311F087
:101D1000E9D802C086E3D9D811110E943B2B84E098
:101D2000809386062696E2E10C94C841ADE0B0E0CF
:101D3000ECE9FEE00C94B2417C01162F842F022FB7
:101D40006701C60ED11C462FB70141D3D6018C9333
:101D50001F5F1D8619825E2C670127E0882483940B
:101D6000912C32C047E0A42EB12C3701680E711CB3
:101D7000F4010A2C01C0EE0F0A94EAF7D3018C910A
:101D8000AE01435F5F4FBE016F5F7F4F8E23DEDE8C
:101D9000282FB1E0AB1AB10858F7D601ED916D01CB
:101DA0000E2EE295E0250E2EE695E695E025F0E074
:101DB0003196E1FB882780F9AE01435F5F4FBE019A
:101DC0006F5F7F4FC3DE282F8C2D8519811708F494
:101DD000C9CF222311F0215004C08D858F5F8D87DC
:101DE00027E089E18093F1218093F22185E28093BD
:101DF000F3218093F4213AE0E32E4D856CE0CE018F
:101E00000196EBDE2D96EFE00C94CB41ADE0B0E017
:101E1000ECE0FFE00C94BE41162F242F4BE0BE01F6
:101E20006F5F7F4F01962D87CBDB2D85412F682F6C
:101E3000CE0101967BDF2D96E3E00C94D74143E081
:101E400066E0E4CFEF920F93CF93DF93CDB7DEB789
:101E50006097CDBFDEBF40E1BE016F5F7F4F01964F
:101E6000AFDB69814A810B818C818093F2218D8166
:101E70008093F1218E818093F4218F818093F321CF
:101E8000E02EE2947FE0E7220F70242F2F7042951E
:101E90004F70CE010896A1DE6096CDBFDEBFDF9108
:101EA000CF910F91EF900895A9E1B0E0EAE5FFE04E
:101EB0000C94B7414BE0BE016F5F7F4F019680DB12
:101EC000182F893009F05BC099E19093F12190932C
:101ED000F2219093F42182E38093F32169E0CE0113
:101EE00001967FD2E1E0F0E0EC0FFD1FE10FF11D64
:101EF0008083198E1D868E010F5F1F4F6E018BE050
:101F0000C80ED11C27E0AA24A394B12C25C0E12C33
:101F1000F12CF5010E2C01C0EE0F0A94EAF7D8015E
:101F20008C91AE01475E5F4FBE01635F7F4F8E2392
:101F30000DDE282FBFEFEB1AFB0A88E0E816F1044C
:101F400041F7AE01475E5F4FBE01635F7F4F81E0A7
:101F5000FDDD282F0F5F1F4F0C151D05C1F6222335
:101F600011F0215004C0898D8F5F898F27E0EAE04E
:101F7000EE2E03E0498D6CE0CE010D962EDE6996C3
:101F8000EAE00C94D041A9E1B0E0E9ECFFE00C9468
:101F9000B2414BE08E010F5F1F4FB801019610DB7D
:101FA000F82E582E85E38093F22196E19093F1214B
:101FB0009093F4218093F3216F2DC8011ED2F80174
:101FC000EF0DF11D80835394198E1D86780127E053
:101FD000AA24A394B12C48014DC0C12CD12C3401AA
:101FE000680E711CF5010C2C01C0EE0F0A94EAF783
:101FF000D3018C91AE01475E5F4FBE01635F7F4F9F
:102000008E23A4DD282FBFEFCB1ADB0A84E0C8168D
:10201000D10441F7AE01475E5F4FBE01635F7F4F62
:1020200081E094DD282FB4E0CB2ED12CF5010C2CCF
:1020300001C0EE0F0A94EAF7D7018C91AE01475E1A
:102040005F4FBE01635F7F4F8E2380DD282FBFEF80
:10205000CB1ADB0A88E0C816D10441F7AE01475E0F
:102060005F4FBE01635F7F4F81E070DD282FAFEFD0
:10207000EA1AFA0A8E2D801B851508F4AECFAAE065
:10208000EA2E03E0498D6AE0CE010D96A6DD699641
:10209000EFE00C94CB41EF920F93CF93DF9300D0FE
:1020A0001F92CDB7DEB743E0BE016F5F7F4F019651
:1020B00087DA8AE68093F22194E29093F12191E20B
:1020C0009093F4218093F32180E88C839FE0E92EA4
:1020D00003E026E043E060E0CE0101967EDD249639
:1020E000CDBFDEBFDF91CF910F91EF9008956F923A
:1020F0007F928F929F92BF92CF92DF92FF920F9327
:102100001F93CF93DF93A62F109265221092662221
:10211000FC016181660F660F660F2381621B695F98
:1021200010926722F12C70E047E0F7E0DF2EC12C1F
:1021300020E007E010E0C1E0D0E07DC0FC01EC0D44
:10214000F11D248130E00D2C02C0359527950A94AD
:10215000E2F721703327522FDD2011F0DA9403C00B
:10216000C394E7E0DE2EAB3491F4433009F081C034
:10217000F11007C051115CC0109265227093662265
:1021800076C0F12C79C0AB3409F050C03CC04F3F51
:1021900041F5A634B9F4E72FF0E0E959FD4D40814F
:1021A000042E42954025042E46954695402550E044
:1021B0004F5F5F4F41FB882480F8912C8216930675
:1021C00041F004C0A53429F4511103C0F0926522F6
:1021D000D5CF7F5FE72FF0E0E959FD4D108247E052
:1021E00029C0552319F1A63459F4E72FF0E0E95935
:1021F000FD4D9E01042E01C0220F0A94EAF713C080
:10220000A53409F0C0CFE72FF0E0E959FD4D980162
:10221000241B310947FD33953E0102C0660C771C33
:102220002A95E2F793013081322B3083415002C06E
:10223000FF24F3942B2DB22EB394261708F47ECFEF
:10224000F0926522709366226B1588F4A53419F418
:102250004F3F09F404C080916522882319F07F5F05
:102260007093662281E090916622911108C080E00F
:1022700006C04F3F09F4A8CF5111C5CFD7CFDF918A
:10228000CF911F910F91FF90DF90CF90BF909F90C3
:102290008F907F906F900895E0E4F9E01682E091CE
:1022A00098228CE1E89FF0011124EB50FE4D108242
:1022B0000895FC012181243108F0EECF662389F0D6
:1022C000DC01A20FB11D81E090E0038002C0880F05
:1022D000991F0A94E2F714969C911497982B1496E0
:1022E0009C938381882319F081508383089587E02C
:1022F00083832F5F2183E20FF11D14820895DC0197
:1023000011962C91119730E050E0F901E41BF50B88
:102310008C91EC30F105DCF4E53FFF4FC4F090E028
:1023200070E0FC01E61BF70BEC30F10584F4E53FAF
:10233000FF4F6CF0280F391F640F751F261B370BDA
:102340002C30310524F481E0253F3F4F0CF480E030
:102350000895E0E0F6E080E18183868380E2828375
:10236000158A81858C60818782EC91E0809321249D
:10237000909322241092112210922D221092492221
:1023800010921B2408958091152481110AC0809118
:102390002424882321F00E9466080C9472070C9470
:1023A0005D080895FC01218121110BC08091242436
:1023B00003D940E265E080912124909122248CD8B9
:1023C00087C841E064E274E20196FAD8DCCF06C027
:1023D0004150FB01E40FF11D9081890F4111F8CFAD
:1023E000089520E006C06150FC01E60FF11D308128
:1023F00023276111F8CF822F0895A091652240E034
:1024000035E020E012C06150FC01E60FF11D508163
:10241000752F72957F702727370FAA2311F0442359
:1024200019F05F702527350F4F5F6111ECCF320F28
:1024300040E1349FC0011124822B0895FC013281B8
:102440002381A081B181A30FB11D8C9190E0022E58
:1024500002C0959587950A94E2F78170922F91506A
:102460009383211104C03F5F328397E093830895E3
:102470008F929F92BF92CF92DF92EF92FF920F9333
:102480001F93CF93DF931F921F92CDB7DEB76C01DE
:10249000812C912CB12CEE24E394F12C062F10E02A
:1024A000015011091DC0C6014A836983C7DF4A81F3
:1024B0006981882391F0442349F09801281939094A
:1024C0008E2D01C0880F2A95EAF706C08E2D082CA4
:1024D00001C0880F0A94EAF7B82A8FEF881A980A81
:1024E000861608F38B2D0F900F90DF91CF911F91DF
:1024F0000F91FF90EF90DF90CF90BF909F908F90C3
:102500000895A4E0B0E0E7E8F2E10C94B6411B8244
:1025100027E02C839C012C5F3F4F29833A83109244
:102520006622FC012181338187E090E0831B9109C1
:10253000F8E02F9F800D911D1124853491057CF5C5
:1025400054C00A2D10E040E068E0CE01019690DF13
:1025500009591D4DF8018083982E092C92949024DE
:10256000092C969496949024CE01019667DF292D2C
:1025700030E02F5F3F4F21FBCC24C0F8D12C90E0FE
:10258000C816D90691F5CE01019658DF81112DC0EC
:10259000F8018081B826A394A092662201C0B12CD4
:1025A000A0906622F5E0FA1560F640E068E0CE0102
:1025B00001965EDF082F182F012E12951025012E8F
:1025C000169516951025CE01019638DF212F30E0A3
:1025D0002F5F3F4F21FBEE24E0F8F12C282F30E055
:1025E000E216F30611F481E0B01280E02496EBE0ED
:1025F0000C94CF41A5E0B0E0E0E0F3E10C94BC41E5
:10260000FC011B8287E08C83CF01049689839A8327
:102610008081853009F050C02181338187E090E0CE
:10262000831B910938E0239F800D911D112480396F
:10263000910509F041C0109266220FE010EF29E8E1
:1026400012C0CE0101962D8313DF080F111DEF2D4F
:10265000F0E0E959FD4D2D8128272083282F2C5D9E
:10266000F394F0926622F09066228EE041E068E0FA
:102670008F1538F7CE010196FBDE080F111DEF2DE7
:10268000F0E0E959FD4D80958083F394F092662245
:1026900041E068E0CE010196EBDE382F20E0021B1E
:1026A000130B41E068E0CE010196E2DE282F30E016
:1026B00081E00217130709F080E02596E5E00C940D
:1026C000D541A4E0B0E0E7E6F3E10C94BE411B8203
:1026D00027E02C839C012C5F3F4F29833A83FC0128
:1026E0002181243099F58381813081F51092662211
:1026F00014C0111106C067E0CE010196B9DE8068F2
:1027000004C068E0CE010196B3DEE12FF0E0E959A4
:10271000FD4D80831F5F109366221091662241E079
:10272000143038F367E0CE010196A2DEE12FF0E02D
:10273000E959FD4D880F80831F5F109366229091A9
:10274000672292959F7081E09A3009F080E024968C
:10275000E3E00C94D7418091232480FD03C0846082
:10276000809323240895A1E0B0E0E9EBF3E10C9419
:10277000BB41198280917B228823B9F18091242466
:1027800087FF17C084E30E9437078058803458F0D1
:10279000803C58F490E080559109B3E09595879579
:1027A000BA95E1F703C080E001C08FE08F590E9425
:1027B000230A8091242483FF16C082E70E94230A03
:1027C0008091242484FF04C080917C220E94230AEB
:1027D00086E60E94230A8091242484FF04C080910D
:1027E0007B220E94230A10927B2280917D228823E3
:1027F00009F44EC284E08093850600917E222CE18C
:10280000029F800111240B501E4D8981811106C049
:10281000C801F0DE882311F083E589838981811165
:102820003DC066E4C80163DC8823C1F1F0906622F4
:10283000FA94F09266224F2D67E672E286E0C7DDD9
:102840006F2D70E0FB01E959FD4DE0808E1105C050
:1028500093E09F1510F486E41EC0282F30E02F5F10
:102860003F4FEE2DF0E02E173F0751F4E3E0EF1558
:1028700038F496E49983FB01E959FD4D80830EC03D
:102880004F2D67E672E28CE0A2DD8E1106C0F3E008
:10289000FF1518F484E5898301C0198289818111AB
:1028A00016C065E4C80123DC882389F08091662284
:1028B000815080936622893051F469E087E692E284
:1028C00090DD90917022891302C085E4898389810B
:1028D000811106C0C80115DE882311F088E48983C0
:1028E0008981811106C0C801ECDE882311F084E7DC
:1028F00089838981811133C0F801438D60917C22E5
:10290000C8014A96FCDC682FC801D3DC6BE4C8011F
:10291000EEDB8823B1F0F0906622FA94F092662202
:102920006F2D87E692E269DDEF2DF0E09091652250
:10293000E91BF109E959FD4D9081891302C08BE42F
:102940008983898181110BC0F8018381982F9F5F52
:102950009383873021F4138281818150818389811F
:1029600081112AC0F8018181843031F5838184305E
:1029700019F54EE16CE3C8014896C1DC8823E1F00B
:102980004EE160917C22C8014A96B9DC682FC801EB
:1029900090DC20E0822F90E0FC01E959FD4DD80148
:1029A000A80FB91F14968C9180832F5F253090F368
:1029B0002093662282E589833981332309F4DAC0C2
:1029C0002091242420FFD6C0809123248E7F8B7FEA
:1029D0008093232421FD64C050917F22F0906622D1
:1029E0005F113DC040E017C0842F90E0642F6F5FFF
:1029F000FC01E058FD4DDC01A959BD4D70818C9161
:102A0000781741F040937F22809123248D7F80931B
:102A1000232405C0462F451738F340937F224513E2
:102A20001EC040911D2450911E2460911F2470915E
:102A300020248091942290919522A0919622B09189
:102A40009722481B590B6A0B7B0B463251056105D7
:102A5000710528F48091232481608093232440E031
:102A60000BC0842F90E0FC01E058FD4DDC01A9591A
:102A7000BD4D8C9180834F5F4F1598F340937F221B
:102A800080911D2490911E24A0911F24B091202498
:102A90008093942290939522A0939622B0939722AC
:102AA0003435F1F426FD1CC0809166228530C0F0DB
:102AB000809169228B3479F0893669F0833559F039
:102AC000843549F08D3739F08E3729F080916A22AC
:102AD0008077803729F48091232481608093232498
:102AE000B801CE01019637DE8981843569F4909171
:102AF000BB24992349F090917525911105C09091BF
:102B000023249B7F909323249091232492FF32C00F
:102B10000E94230A80916522882329F080916622F1
:102B2000815080936622F12C08C0EF2DF0E0E95926
:102B3000FD4D80810E94DC0AF394E0916622FE162E
:102B4000A0F380916522882351F0F0E0E959FD4D12
:102B5000808140E361E08F7090E00E94A20A809142
:102B6000242485FF05C084E30E9437070E94DC0A05
:102B70000E94680A8091242482FF6FC080E70E942F
:102B8000230A40E262E0F801808190E00E946C0A32
:102B9000F801808D40E265E0F0E18F9FC0011124D3
:102BA0000E946C0AF801818D40E265E0F0E18F9FA0
:102BB000C00111240E946C0AF801828D40E265E098
:102BC000F0E18F9FC00111240E946C0AF801838DEF
:102BD00040E265E0F0E18F9FC00111240E946C0A81
:102BE00040E263E0F801828190E00E946C0A40E2DA
:102BF00063E0F801818190E00E946C0AF801238172
:102C000040E262E087E090E0821B91090E946C0A3A
:102C100080E20E94230A8091242485FF08C084E377
:102C20000E9437070E94DC0A80E20E94230AF80112
:102C30008381873019F081818F5F8183F12C07C0F8
:102C4000F801EF0DF11D84810E94DC0AF394F80174
:102C50008181F816A8F30E94680AF8011082809119
:102C60007D22815080937D2280917E228F5F8430EF
:102C700019F080937E2202C010927E2284E080931D
:102C800086068981843521F487E692E20E94B8277E
:102C90002196E6E00C94D4411F920F920FB60F924A
:102CA000112408B60F9218BE09B60F9219BE0BB6C2
:102CB0000F921BBE2F933F934F935F936F937F931E
:102CC0008F939F93AF93BF93EF93FF931092460917
:102CD0008091242483FF03C08EE20E94230A809106
:102CE00098229CE1899FF0011124EB50FE4D9081C8
:102CF000933018F09181923010F4CEDA18C0909190
:102D00007D22933049F48091242482FFF6CF84EF12
:102D100093E00E945B0AF1CF9F5F90937D228F5FCB
:102D2000843019F08093982202C010929822FF916B
:102D3000EF91BF91AF919F918F917F916F915F9133
:102D40004F913F912F910F900BBE0F9009BE0F90A6
:102D500008BE0F900FBE0F901F901895982F955298
:102D6000973160F46A3050F0673240F421E030E08F
:102D7000681710F020E030E0C901089580E090E08D
:102D800008951F920F920FB60F92112408B60F925A
:102D900018BE09B60F9219BE0AB60F921ABE0BB62C
:102DA0000F921BBEFF920F931F932F933F934F934E
:102DB0005F936F937F938F939F93AF93BF93CF93C3
:102DC000DF93EF93FF938091B525882321F082E074
:102DD0008093B52527C18091B124823021F483E00E
:102DE0008093B1241FC18091600990916109E4E052
:102DF00096958795EA95E1F7182FC09198228CE176
:102E0000C89FE0011124CB50DE4D8881843031F41D
:102E10001E3208F407C11F3448F0A5C0853031F4D4
:102E2000173108F4FFC0183208F09DC00E94510508
:102E300081110EC088818450823038F461E0CE0167
:102E400038DA109260091092610910937C22EAC06E
:102E500000917C22101B10937B221092600910922B
:102E6000610988818450823020F460E0CE0121DA4B
:102E7000D9C080914C09816080934C09F880F11091
:102E80000DC0053608F0CEC0153608F0CBC0088F4F
:102E9000198F81E08A8382E08883C4C082E0412F59
:102EA000602FF81270C0CE01489629DA882301F10C
:102EB000888D90E09C01220F331F280F391F200FAF
:102EC000311D3595279535952795288F298D30E02B
:102ED000C901880F991F820F931F810F911D95952E
:102EE000879595958795898F8A818F5F8A839AC008
:102EF0008A81843008F445C080EA9FE080936609A7
:102F0000909367098A818C3050F0888D298D30E04C
:102F1000280F311D2536310524F084E027C08A3082
:102F200088F0888D298D30E0280F311D253231053C
:102F30004CF485E0888388EE93E080936609909353
:102F4000670915C080912A24882379F0612F802F8A
:102F500005DF882351F0688D898D00DF882329F0F3
:102F600081E08093B12498D95DC083E088830A8F83
:102F70001B8F198287E08B831C8281E08093460936
:102F800051C018827ECFCE014A96B9D9882301F16B
:102F900061E0CE018ED94A8D50E09A01220F331F95
:102FA000240F351F200F311D359527953595279511
:102FB0002A8F2B8D30E0C901880F991F820F931F34
:102FC000810F911D95958795959587958B8F2AC033
:102FD000412F602FCE01489692D9882301F160E0FD
:102FE000CE0167D9488D50E09A01220F331F240F7C
:102FF000351F200F311D3595279535952795288F3D
:10300000298D30E0C901880F991F820F931F810F0E
:10301000911D9595879595958795898F03C087E034
:10302000F812A1CFFF91EF91DF91CF91BF91AF91B6
:103030009F918F917F916F915F914F913F912F91D0
:103040001F910F91FF900F900BBE0F900ABE0F9033
:1030500009BE0F9008BE0F900FBE0F901F901895DD
:10306000E09198228CE1E89FF0011124EB50FE4D95
:103070008081811109C081E090E02091A4252F3F3B
:1030800029F480E090E0089581E090E0089580E6E2
:1030900090E00E94430B80932A2481E690E00E94F6
:1030A000430B8093BB24882321F081E28093242466
:1030B0006AC9089520E1E0E0F6E025830C94580504
:1030C00020E1E0E0F6E026830C945805A7E0B0E0AC
:1030D000ECE6F8E10C94BA4190912E24943559F421
:1030E0002091B4243091B5242F5F3F4F2093B42416
:1030F0003093B5243EC0963459F42091B2243091D7
:10310000B3242F5F3F4F2093B2243093B32431C0B8
:10311000953459F420912724309128242F5F3F4F74
:10312000209327243093282424C09B3459F42091E1
:10313000B7243091B8242F5F3F4F2093B7243093AA
:10314000B82417C0983459F42091B9243091BA2486
:103150002F5F3F4F2093B9243093BA240AC02091A7
:103160002524309126242F5F3F4F20932524309330
:10317000262495E79983882399F0BE016E5F7F4FDF
:103180008091BB240E94290BBE016C5F7F4F809110
:103190002A240E94290B85E58E8396E0D92E02C051
:1031A000DD24D3940E9466080E94E00716E080E8C0
:1031B00091E080DF80E093E083DF1150C1F780E091
:1031C00093E078DF80E891E07BDF80E891E072DFD8
:1031D00010E11093060687E390E00E94F40783E075
:1031E00090E00E947505109346068FE70E94420505
:1031F00080912D248D0D0E944205EE24E394F12C44
:10320000EC0EFD1E8701F80181918F010E9442059D
:10321000802F8E198D15B8F306C08BE294E20E94C0
:103220008F0D0E94420580912D248111F6CF80E1FF
:10323000809345060E94E0078BE294E20E94740DA1
:1032400015E104C081E090E00E9475058AE30E94C8
:1032500037078F7711F01150A9F795D82796E7E037
:103260000C94D341CF93DF93EC018981811107C086
:1032700080912A240E94DC0A8091BB2413C08436EA
:10328000A1F480911D2490911E24A0911F24B0913F
:10329000202440E364E00E94A20A8EE20E94230AF6
:1032A0008091B0240E94DC0A4DC0833709F04DC0E4
:1032B00040E361E08091B4249091B5240E94A20A79
:1032C0008EE20E94230A40E361E08091B224909153
:1032D000B3240E94A20A8EE20E94230A40E361E026
:1032E00080912724909128240E94A20A8EE20E94B5
:1032F000230A40E361E08091B7249091B8240E94B2
:10330000A20A8EE20E94230A40E361E08091B92480
:103310009091BA240E94A20A8EE20E94230A40E3FE
:1033200061E080912524909126240E94A20A8EE2D9
:103330000E94230A40E361E08091AE249091AF2483
:103340000E94A20A0E94680A2CC08936D9F441E082
:103350006AE274E2CE0102960E94E00A60912A2499
:1033600080E690E00E943C0B41E06BEB74E2CE0102
:1033700004960E94E00A6091BB2481E690E00E94DE
:103380003C0B0FC08BE294E20E94740D219604C0A6
:103390008BE294E20E94790D69916111F9CF80E08E
:1033A00095DEDF91CF910895A1E0B0E0EAEDF9E17B
:1033B0000C94B9418091B124882309F48AC0C0904B
:1033C0001D24D0901E24E0901F24F09020248330F0
:1033D00009F065C08FE30E943707182F8630E8F0A8
:1033E00089E396E20E94740D80E1809346068FEF98
:1033F0000E94420580E00E944205082F08C080E03C
:103400000E944205682F89E396E20E94790D1150CF
:10341000B1F780E18093450601C000E00E94C3112E
:103420001092B124053709F054C041E0BE016F5F2E
:103430007F4F8CE396E20E94E00A019759F599814B
:1034400080912A24981326C080914026853571F4F6
:1034500006C089E396E20E948F0D0E94230A8091A4
:103460003B268111F6CF0E94680A33C080913B262B
:10347000845080933B2684E080933A266AE089E377
:1034800096E20E94790DE0911924F0911A2488E0C7
:1034900019951FC089E396E20E94740D1AC082300C
:1034A00059F4909129248C2D891B883090F00E942A
:1034B000C3111092B1240DC0813059F487E390E01C
:1034C0000E94F4070E94720782E08093B124C092A8
:1034D00029242196E8E00C94D241C2DD882361F0D2
:1034E00083E08093B6248091AE249091AF2401961E
:1034F0008093AE249093AF248091B6248150809322
:10350000B624882321F083E08093B024089581E0DD
:10351000DDCDCF93DF93C0E1C093410680E280937D
:103520000206C09345068EE190E00E945805C093C4
:1035300046068EE190E00E945805C09345068DE254
:1035400090E00E94580580E30E94650784E690E0C1
:103550000E945805809165258933D1F4C0E0D0E000
:10356000FE01E05AFB4F6491FE01E15AFB4F84914A
:103570000E9447072296C233D10591F783E30E9448
:10358000650784E090E00E9475050E94720726C0DE
:10359000843389F4C0E0D0E0FE01E25DFB4F64912A
:1035A000FE01E35DFB4F84910E9447072296C233E0
:1035B000D10591F7E3CF813309F7C0E0D0E0FE01F8
:1035C000E450FC4F6491FE01E550FC4F84910E9451
:1035D00047072296C233D10591F7D0CFDF91CF9123
:1035E0000895DF92EF92FF920F931F93CF93DF9393
:1035F000EC01E62E84E08093850680916525893371
:1036000041F464E182E10E9447076E2D660F6D5E12
:1036100000C086E00E9447070E94E00780E1809397
:1036200046068FE70E94420580916525893321F087
:10363000FC2E0C2F1D2F56C01FE086E60E9442056F
:103640001150D9F78AEA0E94420585E50E94420599
:10365000DC2E0C2F1D2F35C0F801F1908F01F7FEE5
:1036600002C080E801C080E4F6FE02C090E201C022
:1036700090E1980FF5FE02C088E001C084E0890F58
:10368000F4FE02C092E001C091E0890F0E94420561
:10369000F3FE02C080E801C080E4F2FE02C090E2C6
:1036A00001C090E1980FF1FE02C088E001C084E003
:1036B000890FF0FE02C092E001C091E0890F0E94E4
:1036C0004205802F8D198E1538F280E00E94420548
:1036D00080E00E9442050AC0F80181918F01809527
:1036E0000E944205802F8F198E15B0F380E18093E0
:1036F000450685E30E9437078331D9F36FEF86E0F3
:103700000E94470780916525893321F46EE182E1AB
:103710000E9447070E94720784E0809386068D818D
:1037200086FF2CC080911D2490911E24A0911F24FF
:10373000B09120240696A11DB11D8093662590931B
:103740006725A0936825B0936925809199228F5FA2
:1037500080939922823060F08AE70E94230A82E7F0
:103760000E94230A809199220E94DC0A0E94680A22
:1037700080919922833010F010929922CDB7DEB754
:10378000E7E00C94D34180919A22882301F1809143
:1037900099228823D1F040911D2450911E246091DC
:1037A0001F24709120248091662590916725A09117
:1037B0006825B091692584179507A607B70728F4EF
:1037C000609164258CEB94E20CCF80910006089503
:1037D000FC012181223711F02D3651F4FC01828148
:1037E000811101C084E38093652520939A2291CEB4
:1037F000233771F41092992248EA6CEB74E2029636
:103800000E94E00A80936425682F8CEB94E2E9CE55
:10381000293671F5FC012281222331F045E06AE668
:1038200075E202960C94E00A80919A220E94230A83
:10383000809165250E94230A80E20E94230A8091DC
:103840006A250E94DC0A80916B250E94DC0A809127
:103850006C250E94DC0A80916D250E94DC0A80E2C2
:103860000E94230A80916E250E94DC0A0C94680A4B
:1038700010929A220895CF93282F80913E20909104
:103880003F20C0E1C0930506213071F49C01220F56
:10389000331F820F931F0E945805C0930606809124
:1038A0003E2090913F2032C0211123C00E94580534
:1038B000C093060680913E2090913F209C01220FEC
:1038C000331F820F931F0E945805C09305068091F5
:1038D0003E2090913F200E945805C093060680919B
:1038E0003E2090913F209C01220F331F820F931F97
:1038F00022C00E945805C093060680913E209091F8
:103900003F209C01220F331F820F931F0E945805F6
:10391000C093050680913E2090913F209C01220F8C
:10392000331F820F931F0E945805C0930606809193
:103930003E2090913F200E945805CF910895CF934B
:10394000DF93C0E1C093410680E280930206C093FA
:1039500045068EE190E00E945805C09346068EE130
:1039600090E00E945805C09345068DE290E00E94C9
:10397000580580E30E94650784E690E00E945805A0
:10398000C093460680E40E944205C1E9D4E0FE01EE
:1039900084910E9442052196F4E0CE39DF07B9F701
:1039A000809139200E94420580913A200E94420570
:1039B00080913B200E944205C0E0D0E0FE01EF551F
:1039C000FB4F84910E9442052196C931D105B1F780
:1039D00080E180934506809346068EE70E9442056B
:1039E0008BE290E0EC0121960E94430B0E9442057D
:1039F000CE01C333D105B1F780E18093450683E35F
:103A00000E94650781E090E00E94750581E0809347
:103A10001B24DF91CF910895A0E0B0E0E2E1FDE149
:103A20000C94B741EC018981843769F46EE370E24C
:103A3000CE0102960E940E0B40E260E080913E2093
:103A400090913F2012C0833709F0B4C08A81823739
:103A500089F46CE370E2CE0103960E940E0B40E203
:103A600060E080913C2090913D200E946C0A0E9471
:103A7000680A15C184E08093850680919D2281119A
:103A800017C080917223882329F081E080939C22C3
:103A90001092722380917423882329F081E080930F
:103AA0009B22109274234BDF83E090E00E94750507
:103AB00086E30E9465078AE30E9465078BE30E9404
:103AC00065070E94E00700E010E06E0182E0C80E8A
:103AD000D11CB0E1AB2E25C0F70181917F0180336D
:103AE00011F480E005C0813311F481E001C082E06F
:103AF000C2DEBA9489F7A092050680913E2090918B
:103B00003F200E945805A0920606AFE1FA2E809150
:103B10003E2090913F200E945805FA94C1F70F5F14
:103B20001F4F80913C2090913D200817190720F4E9
:103B30007601FCE0BF2ED0CF80919D22882341F0FA
:103B40008091242481110FC086E30E94650719C06B
:103B500080919C22882351F010929C220E9433294C
:103B600081E0809372230E9472070BC080919B2298
:103B7000882329F010929B220E943B2B02C00E94B6
:103B8000C31184E08093860689E60E94230A83E7B6
:103B90000E94230A229611E08991803309F404C01F
:103BA000813309F401C086E40E94230A1F5F1D309F
:103BB00099F75DCF8237B9F480917223882329F079
:103BC00081E080939C221092722380917423882339
:103BD00029F081E080939B2210927423B0DE81E073
:103BE00080939D225CC0863651F58A81803351F4E2
:103BF00080E18093392080EB80933A2081E78093A5
:103C00003B2007C043E069E370E2CE0102960E94C8
:103C1000E00A89E60E94230A86E60E94230A8AE3D4
:103C20000E94230A809139200E94DC0A80913A2068
:103C30000E94DC0A80913B200E94DC0A18CF883762
:103C400031F580919C22882341F010929C220E94A1
:103C5000332981E08093722311C080919B228823B5
:103C600029F010929B220E943B2B0EC082E090E034
:103C70000E94F40780912424882319F00E9472077F
:103C800003C086E30E94650710929D2208C0833618
:103C900031F46EE370E2CE0101960E940E0BCDB7B7
:103CA000DEB7EAE00C94D041A2E0B0E0EAE5FEE144
:103CB0000C94AF417C01FC018181833709F0BBC1C9
:103CC000198287E090E00E94E0418C0141E0BE0152
:103CD0006F5F7F4FC70102960E94E00A8981F80159
:103CE000808341E0BE016F5F7F4FC70104960E9451
:103CF000E00A2981207FF801218341E0BE016F5F46
:103D00007F4FC70106962A830E94E00A8981F80145
:103D1000828341E0BE016F5F7F4FC70108960E941A
:103D2000E00A8981F801838341E0BE016F5F7F4F24
:103D3000C7010A960E94E00A8981F801868341E062
:103D4000BE016F5F7F4FC7010C960E94E00A898118
:103D5000F801858341E0BE016F5F7F4FC7010E967A
:103D60000E94E00A8981F801848380E090E02A8142
:103D70004191342F32953F70342783279F5F9730CE
:103D8000B9F78F70822BF801818387E090E00E9461
:103D9000E0415C0187E0F801D50101900D928A9520
:103DA000E1F7D8011196C8010696F8013D912191DD
:103DB00023272083E817F907C9F784E08093850655
:103DC0008091A02281116EC080917223882329F0F6
:103DD00081E080939F221092722380917423882324
:103DE00029F081E080939E2210927423A0E1FA2EA4
:103DF000F092410680E280930206F09245068EE141
:103E000090E00E945805F09246068EE190E00E94F4
:103E10005805F09245068DE290E00E94580580E337
:103E20000E94650784E690E00E945805F0924606DD
:103E300080E40E944205BAEBEB2EB4E0FB2EF701C2
:103E400084910E944205FFEFEF1AFF0A23EEE2166B
:103E500024E0F206A1F780E18093450680934606B0
:103E60008EE70E9442058BE290E07C01EFEFEE1AB4
:103E7000FE0A0E94430B0E944205C701833391054D
:103E8000A1F780E18093450683E30E94650781E006
:103E900090E00E94750581E080931B2483E090E010
:103EA0000E94750586E30E9465078AE30E94650704
:103EB0008BE30E9465070E94E00770E1F72EF09205
:103EC000050687EC94E20E945805F092060689E503
:103ED00090E00E94750585E392E00E945805E12C70
:103EE000F12CE0E15E2EF0E14F2E5DC0EE2011F0EE
:103EF00027E001C022E0D12C5092050686EF99E020
:103F00002A830E9458055092060686EF99E00E9487
:103F10005805D3942A81D2167CF3409205068CEF83
:103F200092E10E94580540920606809140209091AF
:103F300041200E9458056801312CF60181906F01E3
:103F400058E0252E60E8662E712C912C93012821D3
:103F500039218091402090914120232B39F45092B7
:103F600005060E9458055092060606C050920606A5
:103F70000E94580550920506809140209091412062
:103F80000E945805769467942A9401F73394F7E0D9
:103F90003F12D3CF5092060680E090E00E94580571
:103FA0002FEFE21AF20A8091442090E0E816F90619
:103FB0000CF49CCF8091A022882341F0809124248E
:103FC00081110FC086E30E94650719C080919F226E
:103FD000882351F010929F220E94332981E0809320
:103FE00072230E9472070BC080919E22882329F0C1
:103FF00010929E220E943B2B02C00E94C31184E0BB
:104000008093860689E50E94230A83E70E94230A9B
:10401000750137E0D32EF70181917F010E94DC0A00
:10402000DA94C9F70E94680AC5010E947B42C80160
:104030000E947B426FC08237A9F464E470E2C7013A
:1040400002960E940E0B89E50E94230A82E70E94D5
:10405000230A8AE30E94230A40E260E08091442020
:1040600090E02CC0843779F5F7018281803339F4F0
:1040700088ED94E0809342209093432006C062E450
:1040800070E2C70102960E940E0B8091422090912F
:10409000432096958795809340209093412089E511
:1040A0000E94230A84E70E94230A8AE30E94230ACB
:1040B00040E266E080914220909143200E946C0A89
:1040C0000E94680A27C0883729F580919F2288239B
:1040D00041F010929F220E94332981E08093722345
:1040E00011C080919E22882329F010929E220E9466
:1040F0003B2B0EC082E090E00E94F40780912424C4
:10410000882319F00E94720703C086E30E946507A6
:104110001092A0222296E2E10C94C841CF93DF9343
:10412000C0E1C093410680E280930206C093450639
:104130008EE190E00E945805C09346068EE190E023
:104140000E945805C09345068DE290E00E945805F4
:1041500080E30E94650784E690E00E945805C093C2
:10416000460680E40E944205C3EED4E0FE0184913D
:104170000E9442052196F5E0CC30DF07B9F780E1D7
:1041800080934506809346068EE70E9442058BE2A7
:1041900090E0EC0121960E94430B0E944205CE0163
:1041A000C333D105B1F780E18093450683E30E94D4
:1041B000650781E090E00E94750581E080931B24F3
:1041C0008093B422DF91CF910895A0E0B0E0EBEEB0
:1041D000F0E20C94B7418C0180916F25F801838344
:1041E00064839DE0E92EF12C20E1A22E0E94E007DD
:1041F00085E30E943707833169F08CE095E00E94E7
:104200005B0A85E30E9437070E94DC0A0E94680A65
:1042100085DF4AC040911D2450911E2460911F24C7
:1042200070912024409370255093712560937225DE
:1042300070937325A09246068FE70E94420568019D
:10424000C0E0D0E08AEAB82EF60180810E944205E3
:10425000C930D10544F4F6018081B826C730D105B4
:1042600011F4F801B0862196FFEFCF1ADF0ACF30A4
:10427000D10551F7A0924506C8EC85E30E943707A7
:10428000833131F081E0E81AF10809F0AFCF07C0BF
:1042900081E090E00E947505C15079F7F3CF8091DD
:1042A0006F258F5F80936F25CDB7DEB7EAE00C9462
:1042B000D041ABE3B0E0EFE5F1E20C94B5417C0115
:1042C000DC010D900020E9F7AD0141505109481B78
:1042D000590B6C01B2E0CB0ED11CBE01625D7F4F69
:1042E000C6010E94E00A082F68EE71E286E490E2BF
:1042F0000E945B44F7011181812F8357823008F0BF
:10430000DCC181E08093B22287858A3411F489E58B
:1043100001C08EE480934520A89580901D24909044
:104320001E24A0901F24B090202440911D24509161
:104330001E2460911F247091202440937025509377
:10434000712560937225709373258091452089357E
:1043500009F054C089E195E00E945B0A85E295E08E
:104360000E945B0AC7010E94500A8CE395E00E94FC
:104370005B0AD7010D900020E9F7CD01019740E2DB
:1043800060E08E199F090E946C0A81E595E00E9409
:104390005B0AF70101900020E9F73197EE19FF0958
:1043A000EE0DFF1D40E260E0808190E00E946C0A0B
:1043B00089E995E00E945B0A40E260E0802F90E08E
:1043C0000E946C0A81EE95E00E945B0A84EE95E003
:1043D0000E945B0A40E364E080917225909173250E
:1043E0000E94A20A40E364E08091702590917125BB
:1043F0000E94A20A8BEF95E00E945B0AD7010D9004
:104400000020E9F75197AE15BF0509F03DC142E024
:10441000BE01625D7F4FC6010E94E00A029709F06B
:1044200033C17CDE0EA5B701665F7F4F45E050E0EB
:10443000CE0101960E9470441E824AE050E060E086
:1044400070E0CE0101960E941A436B017C0133E0BB
:10445000F694E794D794C7943A95D1F78091452084
:104460008935F1F48EEF95E00E945B0ACE0101964A
:104470000E94500A85E196E00E945B0A8CE196E07A
:104480000E945B0A40E364E0C7010E94A20A40E385
:1044900064E0C6010E94A20A83E396E00E945B0AE0
:1044A0008FE0E6E6F1E2DE015F9601900D928A95DB
:1044B000E1F78FA588A388A989A389A98EA3602F76
:1044C000CE014F9682DE133709F4EEC007FFECC031
:1044D00040917025509171256091722570917325DE
:1044E00080911D2490911E24A0911F24B09120241E
:1044F00088199909AA09BB098E379105A105B1054B
:1045000048F480901D2490901E24A0901F24B09009
:104510002024A89580911D2490911E24A0911F24F1
:10452000B0912024841B950BA60BB70BC816D90697
:10453000EA06FB06A8F680901D2490901E24A09009
:104540001F24B090202480914520893509F073C044
:104550008BE396E00E945B0A40E364E0C5010E94A1
:10456000A20A40E364E0C4010E94A20A82E596E048
:104570000E945B0A8AE596E00E945B0A40E364E0E1
:1045800080917225909173250E94A20A40E364E015
:1045900080917025909171250E94A20A81E796E092
:1045A0000E945B0A89E796E00E945B0A40E364E0B0
:1045B000C7010E94A20A40E364E0C6010E94A20A69
:1045C00080E996E00E945B0A88E996E00E945B0A17
:1045D00080911D2490911E24A0911F24B09120242D
:1045E00040917025509171256091722570917325CD
:1045F000841B950BA60BB70B40E364E0CD010E9432
:10460000A20A80911D2490911E24A0911F24B09194
:1046100020242091702530917125821B930B40E35B
:1046200064E00E94A20A8FEA96E00E945B0A87EB90
:1046300096E00E945B0A67EFCE014F96C6DD40917F
:10464000702550917125609172257091732580912C
:104650001D2490911E24A0911F24B0912024841B1E
:10466000950BA60BB70B4597A105B10580F380917B
:104670004520893521F480EC96E00E945B0A67EFC3
:10468000CE014F96A2DD10C089EC96E00E945B0A35
:1046900040E260E08EE090E00E946C0A8EEE96E0D0
:1046A0000E945B0A1092B4228091B322813011F4EF
:1046B0000E9472071092B22249C0123709F040C01E
:1046C000F7018281853451F41092B32286E30E946F
:1046D00065071092B12282E197E02FC0833559F52A
:1046E0008381813311F481E003C0823321F482E0BD
:1046F0008093B12202C01092B12281E08093B32254
:104700000DDD83E297E00E945B0A0E94720785E359
:104710000E9437078D30D1F086E397E00E945B0A54
:1047200085E30E9437070E94DC0A0E94680AF6DCD3
:104730001092B3220BC08FE497E00E945B0A06C080
:1047400081E797E00E945B0A1092B422EB96ECE0BE
:104750000C94CE4110928F251092632383E08093B6
:1047600064238FEF8093A4250895E5EBF2E20EC059
:10477000009751F04181DC013C91431305C0428117
:1047800011963C914317B1F0E20FF11D20812111E8
:1047900005C0892B41F0E0E0F0E00CC0B3E2E33665
:1047A000FB0730F3F6CF33E2E336F30719F010F0EE
:1047B000E3E6F3E2CF01089594E0899FF00111242C
:1047C000EB55FA4D80818F3F91F080936523818175
:1047D00080936623828180936723838180936823FB
:1047E00021E04CE064E085E693E20C94960E089597
:1047F0008BE693E2BADF009799F020916423FC01E5
:104800003081231768F4E20FF11D808180936D23BE
:1048100089E780936E23818180936F2381E00895DF
:1048200080E00895EF92FF921F93CF93DF931F9242
:10483000CDB7DEB7182F8091242486FF18C084E5F9
:1048400099830E94230AE12E9981F92E15E0F70140
:1048500081917F010E94DC0A1150C9F780912424C4
:1048600085FF03C08AEF0E94DC0A0E94680A0F904D
:10487000DF91CF911F91FF90EF90089586E30E9402
:10488000650780916D23833519F48BE990E002C0B0
:104890008BE490E00E94750521E04CE065E08BE63A
:1048A00093E20E94960E0E9472078BE693E2BACFC3
:1048B000E5DF80916D23893631F081E080936A23B2
:1048C00089E28093A4250895CF9385E390E00E9428
:1048D000430B8093752586E390E00E94430B809301
:1048E000A325CFEFC0939325C0939525C09397251B
:1048F000C0939925C0939B25C0939D25C0939F2568
:10490000C093A12527DF1092B52281E08093742502
:10491000C093A5258FEF9FEF8093772590937825FF
:104920001092792510927A2510927B2510927C2581
:10493000C093A92580937D2590937E2510927F2595
:10494000109280251092812510928225C093AD256A
:104950008093832590938425109285251092862537
:104960001092872510928825C093B12580938925C0
:1049700090938A2510928B2510928C2510928D256C
:1049800010928E25CF910895ACE0B0E0EAECF4E20D
:104990000C94B8416C018C010F5F1F4F45E0BE01C4
:1049A0006F5F7F4FC8010E94E00A843008F0F4C0B6
:1049B00099819130A9F4833061F46A8185E390E0B4
:1049C0000E943C0B6B8186E390E00E943C0B7CDFF5
:1049D00009C2809175250E94DC0A8091A3259BC0A5
:1049E000923009F052C0813041F081E090E02A819C
:1049F000213029F080E090E002C081E090E0E82ED4
:104A00008091B522811104C084EA97E00E945B0A7C
:104A100005EB12E230C032E2053B130719F080E2E9
:104A20000E94230AF80181810E94DC0AF801828138
:104A30000E94DC0AE11005C0F8018081080F111DF9
:104A40001AC08AE30E94230A93E0F92E0FC0F3E014
:104A5000FF1528F4F0FE03C08CE20E94230AF8013F
:104A6000EF0DF11DF39480810E94DC0AF801808132
:104A7000F81668F3E1CFF8018081882309F489C032
:104A8000F3E203361F0738F284C0933049F480E024
:104A900090E06BDE855B92429EEA981B892F3BC0BB
:104AA000903171F503E915E284E9E82E85E2F82EEC
:104AB000C12CD12CF80180818F3FA1F0DD2019F0AD
:104AC00080E20E94230A8C2D0E94DC0A8AE30E9465
:104AD000230AF80180810E94DC0AF70180810E948C
:104AE000DC0AD3940E5F1F4FC394F2E0EF0EF11C6B
:104AF00038E0C312DFCFD1104CC086E997E047C041
:104B0000913161F480919125909192256DE770E04B
:104B10000E946641862F0E94DC0A3BC09231C9F593
:104B200015EAE12E15E2F12E08EA15E2C12CD12C8E
:104B3000F70180818F3FF1F0DD2019F080E20E94C3
:104B4000230A8C2D0E94DC0A8AE30E94230AF701C3
:104B500080810E94DC0AF801329780810E94DC0A81
:104B6000F801319780810E94DC0AF80180810E945F
:104B7000DC0AD394F4E0EF0EF11CC3940C5F1F4FDA
:104B800034E0C312D5CFD11004C08AE997E00E9467
:104B90005B0A0E94680A26C144E0BE01695F7F4F3C
:104BA000C8010E94E00A4F81493608F479C05A854D
:104BB000688579855C3009F04DC020E030E080E008
:104BC00090E0F901EB55FA4D508154131CC0A181BE
:104BD000A61319C0A281A71316C02CE023839C0141
:104BE000220F331F280F391FF901EE0FFF1FE9585D
:104BF000FA4D10821182F901EE0FFF1FE758FA4DAE
:104C000010821182D1C05F3FE9F44083288521835F
:104C1000298522832CE023839C01220F331F280F38
:104C2000391FF901EE0FFF1FE958FA4D108211826A
:104C3000F901EE0FFF1FE758FA4D10821182109212
:104C40007425B2C001962C5F3F4F2031310509F029
:104C5000B8CFC8C080E090E020E030E0FC01EB5528
:104C6000FA4DA081A41315C0A181A61312C0A28180
:104C7000A7130FC05383F901EE0FFF1FE20FF31FBD
:104C8000EE0FFF1FE758FA4D81E090E0808391839B
:104C9000A9C02F5F3F4F049680319105F9F6A2C05D
:104CA000E98180917525E817C8F190E0F0E09C015A
:104CB000295F3F4F2E173F078CF13A812091A325A2
:104CC00032132CC02C812F3231F442E06CE0C6014B
:104CD0000E94060F87C02C32B9F42D8120939025B5
:104CE00081E090E0809391259093922580912124FA
:104CF00090912224E4E02E9F800D911D1124809339
:104D00002124909322246EC0E81BF90BEE0FF0E0F3
:104D1000ED56FA4D20838D81818364C080E090E060
:104D200024DD7C01F80101900020E9F73197E01BB8
:104D3000F10BF695E795BE2EB394C7018B0D911D2F
:104D4000855B92428F3A91050CF048C0F701B19211
:104D50008F0121E01AC041E0B801F601E80FF11D12
:104D6000CF012C870E94E00A2C85233058F020FDCB
:104D700009C0D80111978C91843621F4F801808103
:104D8000809376252F5F0F5F1F4F822F880F8150F2
:104D90002B1508F3F3E6EF16F3E2FF0618F5F7011B
:104DA000E20FF11D10821EC022E04CE064E0CE0153
:104DB00007960E94960E8FE08A8722E04CE064E01E
:104DC000CE0107960E94960E82E08A8722E04CE090
:104DD00064E0CE0107960E94960E04C08EE997E02B
:104DE0000E945B0A2C96E9E00C94D1410F931F932B
:104DF000CF93DF939091742591114BC093E0899FDD
:104E000080011124F801EE0FFF1FE958FA4D94E0DC
:104E1000899FD0011124AB55BA4D12969C91977081
:104E200046E0949F9001391B1124335835952795FE
:104E30003595279520833183E801CC0FDD1FC558B8
:104E4000DA4D288139812F5F3F4F28833983000F46
:104E5000111F07581A4DF801408151814115510524
:104E600029F424303105A9F4A7DC11C041305105E3
:104E700039F4A2DC82E090E0F8018083918309C0DC
:104E80004230510531F498DCF80110821182188209
:104E90001982DF91CF911F910F910895A6E0B0E0A4
:104EA000E4E5F7E20C94BB418091A3258A831B8241
:104EB00090919025992341F0933019F487E791E080
:104EC0000CC08DE790E009C087702DE7829FC0017C
:104ED0001124825B9F4895958795809391259093A7
:104EE000922504E915E2F12C7CE2E72EF8013197D6
:104EF00090819F3FC1F0809175258F0D89838091AE
:104F00009025882311F0EC8203C09C83F8018081F6
:104F10008D8321E04CE065E0CE0101960E94960E63
:104F2000CE0101967FDCF3940E5F1F4FF8E0FF1275
:104F3000DDCF80919025882341F0833019F41092C1
:104F4000902503C08250809390252696E6E00C942D
:104F5000D44180916A23882351F090DC89E28093C8
:104F6000A42580916A23815080936A230895F2CB0F
:104F7000FF920F931F93CF93DF93FC01F080018189
:104F8000C281D38114818FE58093A42510926A2376
:104F900080917525811105C08091A325882309F48E
:104FA000ABC080916B238F1104C080916C2380175C
:104FB00029F0D0DBF0926B2300936C2380918F2536
:104FC0008F3F09F499C0C0936D23D0936E23109343
:104FD0006F23CC23F1F081111CC080917525181727
:104FE00061F0143651F08C2F8355823010F0CD379C
:104FF00039F48FEF80938F257FC0C43509F47CC0CE
:105000008D2F807F803609F077C0D067D0936E23D4
:1050100067C0EEDB811105C080918F25882309F4DC
:105020006BC080916323811107C0E0918F25F0E070
:10503000E857F84FE49101C0E82FE33541F4C43557
:1050400031F490918F259E5F90938F2504C0EC17CB
:1050500011F080DB51C0882309F444C0809164239F
:105060008E5F80936423C4DB811106C080918F25FD
:105070008E5F80938F2536C080916D23809363234C
:10508000843671F58091762580936F2329C0109323
:105090006D2397E790936E239091752590936F23DE
:1050A0008E5F80938F25109263238E30B9F48BE648
:1050B00093E25BDBDC01009781F02C9130E083E62A
:1050C00093E2821B930B05C0ED01C20FD31F4881F1
:1050D0004D93A817B907C0F31C923CDB112361F074
:1050E000E7DB0AC080918F25E82FF0E0E757F84F03
:1050F00014911F3F61F6C0CFCDB7DEB7E5E00C9449
:10510000D5410F931F93CF93DF93EC01A82FBD2FB1
:10511000FD0101900020E9F73197EA1BFB0B898123
:10512000823751F487E390E00E94F4070E947207EF
:1051300081E08093B5252AC0833731F50E2F80E1B9
:10514000809346068FE70E944205802F82500E947E
:105150004205229612E004C089910E9442051F5F19
:105160001017D0F380E1809345060E94E00704C049
:1051700081E090E00E9475058AE30E9437078F77EF
:10518000B9F70E94720702C01092B525DF91CF9146
:105190001F910F910895A0E8B0E0E1EDF8E20C94C2
:1051A000B9418091B525882309F458C0813011F5A3
:1051B00080911D2490911E24A0911F24B091202441
:1051C00020917123281709F449C085E30E9437070D
:1051D000813129F48AE30E9465070E947207809159
:1051E0001D2490911E24A0911F24B091202480930F
:1051F000712334C08FE30E943707D82E87FD2BC060
:1052000080E1809346068FEF0E9442058E010F5F7A
:105210001F4F7801C02E06C080E00E944205F701B2
:1052200081937F018E2D8C198D15B0F380E18093D1
:10523000450681E08093EF2105C0F80181918F013F
:105240000E94230A802F8C198D15B8F30E94680ADA
:105250008FEF8093EF2181E08093B525C058DF4F19
:10526000E8E00C94D241CF93DF93C0E1C0934106B4
:1052700080E280930206C09345068EE190E00E9492
:105280005805C09346068EE190E00E945805C093F1
:1052900045068DE290E00E94580580E30E94650774
:1052A00084E690E00E945805C0E0D0E0FE01E154A1
:1052B000F84F6491FE01E254F84F84910E94470731
:1052C0002296C233D10591F780917323811108C0D2
:1052D00083E30E94650784E090E00E94750511C099
:1052E000C0E0D0E0FE01E755F84F6491FE01E855BB
:1052F000F84F84910E9447072296C631D10591F755
:10530000E7CF84E30E94650785E30E9437078D306D
:10531000C1F7DF91CF910895A2E3B0E0E2E9F9E2AD
:105320000C94BD4180917223882309F4A9C00E9486
:105330005105882309F48FC08FE30E9437078F77C8
:105340008983823368F08AE30E94650786E30E94BE
:1053500065078DE30E94650784E30E94650790C09E
:1053600080E1809346068FEF0E94420510E00BC05B
:1053700080E00E944205E2E0F0E0EC0FFD1FE10F4B
:10538000F11D80831F5F8981181790F380E00E94D0
:105390004205082F80E00E94420580E18093450687
:1053A00084E30E94650785E30E9437078D30C1F7CB
:1053B0002A8196E792279A8392E00CC041E050E060
:1053C0004C0F5D1FE40FF51F3081245223272083EB
:1053D0009F5F232F8981E92FF0E0981778F381E010
:1053E00090E08C0F9D1FE80FF91F90818B8198270B
:1053F00090838091242484FF13C081E60E94230AB5
:1054000010E00AC0E1E0F0E0EC0FFD1FE10FF11D3C
:1054100080810E94230A1F5F8981811798F71BC032
:1054200081E40E94230A10E00AC0E1E0F0E0EC0F02
:10543000FD1FE10FF11D80810E94DC0A1F5F898141
:10544000811798F78091242485FF03C0802F0E9444
:10545000DC0A0E94680A85E30E943707813029F040
:10546000813161F48AE30E94650786E30E94650743
:105470008DE30E94650784E30E9465070E94AB08E4
:10548000E296E4E00C94D6418F929F92AF92BF9245
:10549000FF920F931F93CF93DF93CDB7DEB7EA97B9
:1054A000CDBFDEBF41E3BE016F5F7F4F01960E941B
:1054B000E00A8C0199270197298130E08217930730
:1054C00009F0B4C080917223811105C0CCDE83E065
:1054D00090E00E947505FB808A8196E789278A8380
:1054E00022E009C0DE01A80FB91F8C91845290817F
:1054F000892780832F5F3981822F90E0E1E0F0E0FF
:10550000EC0FFD1FE80FF91F231760F380818F2533
:105510008083CE01C7960E94180985E30E94650723
:1055200085E30E943707833181F1CE01C3960E9443
:1055300018094BA95CA96DA97EA98FA998ADA9AD41
:10554000BAAD84179507A607B70760F44A015B0157
:10555000881A990AAA0ABB0A2DEB82169104A104A3
:10556000B10470F4481759076A077B0770F4845434
:105570009F4FAF4FBF4F84179507A607B70728F473
:1055800080EF97E00E945B0A34C085E30E943707F2
:10559000833119F6F4FE0BC088E790E00E94750590
:1055A00088E790E00E94750588E790E002C08AE0F5
:1055B00090E00E94750580E1809346068FE70E9487
:1055C000420588248394912C8C0E9D1E540105C0A5
:1055D000F50181915F010E9442058A2D881980178B
:1055E000B8F380E18093450685E30E943707833155
:1055F000D9F385E30E943707863149F48BE30E9493
:10560000650786E30E9465078DE30E946507809128
:105610007223882349F084E30E94650785E30E9492
:1056200037078D30C1F702C00E94C311EA96CDBF83
:10563000DEBFDF91CF911F910F91FF90BF90AF9090
:105640009F908F900895FC012181223731F02235FF
:1056500059F481E08093732302C01092732303DE18
:1056600081E0809372230895233711F401960CCFC3
:10567000109272230895CF93DF93C0E1C093410647
:1056800080E280930206C09345068EE190E00E947E
:105690005805C09346068EE190E00E945805C093DD
:1056A00045068DE290E00E94580580E30E94650760
:1056B00084E690E00E947505C0E0D0E0FE01E6506F
:1056C000F84F8491813448F083E30E94650784E0B9
:1056D00090E00E947505CFEF0BC0FE01E550F84F3A
:1056E00064910E9447072296CC33D10539F7ECCF5D
:1056F00084E30E9465078AE090E00E945805C1504B
:10570000B9F781E080937423DF91CF910895EF92F0
:10571000FF920F931F93CF93DF93EC018B01F880DF
:10572000F3946115710519F0E4E6F0E002C0E0E0E1
:10573000F0E028E0F29EC00111246AE070E00E94CF
:105740007A419B012E0F3F1FC901AA2797FDA09503
:10575000BA2FE0912124F0912224AF0160E070E0A3
:10576000481759076A077B0728F48FE398E00E94DF
:105770005B0ADDC0E21BF30BE0932124F0932224AB
:1057800080917423811101C076DF85E30E94370781
:105790008D3071F08AE50E94230A85E40E94230A75
:1057A00082E50E94230A82E50E94230A81E34DC01C
:1057B00080917B2390917C23A0917D23B0917E23C7
:1057C000892B8A2B8B2B69F40E94E00785E30E94CA
:1057D0003707833109F444C02BC081E090E00E9478
:1057E000750580911D2490911E24A0911F24B091D5
:1057F000202440917B2350917C2360917D237091E4
:105800007E2384179507A607B70739F380911D24D7
:1058100090911E24A0911F24B09120244F5F5F4FD0
:105820006F4F7F4F84179507A607B707B1F2CCCF0C
:105830008AE50E94230A85E40E94230A82E50E94E9
:10584000230A82E50E94230A82E30E94230A85E359
:105850000E9437070E94DC0A0E94680A0CDF67C0BA
:10586000012B51F480E1809346068FE70E944205A8
:10587000EC2E0C2F1D2F0FC00AE010E084E690E004
:105880000E94750501501109C9F7ECCFF80181910B
:105890008F010E944205802F8E198F15B8F380E189
:1058A00080934506C8EC85E30E9437078D3031F4BC
:1058B00085E30E9437078D3069F423C085E30E9499
:1058C00037078331A9F781E090E00E947505C15048
:1058D00051F7EECF8AE50E94230A85E40E94230A4D
:1058E00082E50E94230A82E50E94230A83E30E9444
:1058F000230A85E30E9437070E94DC0A0E94680A97
:10590000BADE80917423811102C00E94C31180917C
:105910001D2490911E24A0911F24B09120248093D7
:105920007B2390937C23A0937D23B0937E23CDB7DC
:10593000DEB7E6E00C94D441ACE0B0E0E2EAFCE291
:105940000C94BC41FC018BE0898381818A831B829A
:1059500082E08C8387818D8380858E8381858F8390
:10596000848188878581898786818A871B861C86B2
:1059700084E190E00E94750560E070E08E010F5FA9
:105980001F4FC801C4DE8AE50E94230AF12C07C01C
:10599000F801E80FF91F80810E94DC0AF3948F2D33
:1059A00090E0298130E02817390794F7809124246A
:1059B00085FF03C080E00E94DC0A0E94680A2C96E2
:1059C000E5E00C94D541CF93DF93EC0190917523E2
:1059D000911108C080917623811104C080917723B2
:1059E0008823B1F08B81803321F0803411F0803531
:1059F00079F48F8189130CC0988580917623981350
:105A000007C0998580917723981302C0CE0194DF57
:105A100080917823811108C090917923911104C05D
:105A200090917A239923A9F098819B3091F49B81DE
:105A3000903479F49F8198130CC0988580917923D4
:105A4000981307C0998580917A23981302C0CE01DC
:105A500073DFDF91CF910895AEE1B0E0E2E3FDE2C4
:105A60000C94BB4180917423882309F46EC00E947A
:105A70005105882309F45BC08FE30E9437078F77B5
:105A80008E3108F401C08DE1898380E18093460660
:105A90008FEF0E94420510E00BC080E00E9442059B
:105AA000E2E0F0E0EC0FFD1FE10FF11D80831F5FCE
:105AB0008981181790F380E00E944205E82E80E06B
:105AC0000E94420580E1809345068E010F5F1F4FC3
:105AD000C80179DF8091242484FF10C08AE70E94E6
