:10000000E2C5000005C6000003C6000001C60000EE
:10001000FFC50000FDC50000FBC50000F9C50000DC
:10002000F7C50000F5C50000F3C50000F1C50000EC
:10003000EFC50000EDC500000C940C0AE9C50000F6
:10004000E7C50000E5C50000E3C50000E1C500000C
:10005000DFC50000DDC50000DBC50000D9C500001C
:10006000D7C50000D5C50000D3C50000D1C500002C
:10007000CFC50000CDC50000CBC50000C9C500003C
:10008000C7C50000C5C50000C3C50000C1C500004C
:10009000BFC50000BDC50000BBC50000B9C500005C
:1000A000B7C50000B5C50000B3C50000B1C500006C
:1000B000AFC50000ADC50000ABC50000A9C500007C
:1000C000A7C50000A5C50000A3C50000A1C500008C
:1000D0009FC500009DC500009BC5000099C500009C
:1000E00097C5000095C5000093C5000091C50000AC
:1000F0008FC500008DC500008BC5000089C50000BC
:1001000087C5000085C5000083C500000C94171941
:100110007FC500007DC500007BC5000079C50000DB
:1001200077C5000075C5000073C5000071C50000EB
:100130006FC500006DC500006BC5000069C50000FB
:1001400067C5000065C5000063C500000C94A218D7
:100150005FC500005DC500005BC5000059C500001B
:100160000C9426310C94753153C5000051C5000024
:100170004FC500004DC500004BC5000049C500003B
:1001800047C5000045C5000043C5000041C500004B
:100190003FC500003DC500003BC5000039C500005B
:1001A00037C5000035C5000033C5000031C500006B
:1001B0002FC500002DC500002BC5000029C500007B
:1001C00027C5000025C5000023C5000021C500008B
:1001D0001FC500001DC500001BC5000019C500009B
:1001E00017C5000015C5000013C5000011C50000AB
:1001F0000FC500000C941E590BC50000FE3A3E3B93
:10020000CE3B2A3C483C963CDA3C5E3DFA3C023C04
:100210002A3BBA3CA53DB33DC73D083E2F3E693E53
:100220007E3EAA3E273D0B3F553EEC3D0B3F0B3F2C
:10023000523B5E3BC03E883D0B3FE53E0B3FE03D01
:10024000043F0B3F0B3F0B3FA53DB03B133CB33F7F
:10025000E03F4940A940C940EC403541604142413E
:10026000694031430041A141DC41024234424F42E6
:100270007C429C42AF42514131435C421342314384
:100280003143FD3F1D40D44281413143EB42314374
:100290001F410443314331433143C0413340864021
:1002A0004743474347434743474347437D444743C7
:1002B0007D44474398454743474347437D447D44F6
:1002C0007D444743474347437D4498457D447D44AF
:1002D00098459845474347434743474398457D449E
:1002E0009845474347439845984598454743474372
:1002F0004743428E0E62F33543BC0846831169BB07
:100300001D6B032241B92B70FE305A3F2E478611D8
:100310004DB8114B271249233A55AF1259FC1E52C2
:10032000870D545D2556120F57DE0D58361465B1F2
:100330000E661A296D1E2F6C410E74DF0A758A1B1A
:10034000789809456C3253AB39000000072E050D33
:10035000D391FF080500000C0021656A2D3B132294
:10036000F862073F181D1CC700B0876BF8B611EA8A
:100370002A001F41000D2E2D07D3913D04320000AD
:10038000060021656A55E43023B900070018146C93
:10039000070090876BF85611E92A001F41000003FF
:1003A0000F1E2627000000030F1E253638670003A6
:1003B0000F256740605000030F2751888381000399
:1003C0000F2750C8C3C200270000000000000067CC
:1003D000000000000000005000000000000000814C
:1003E00000000000000000C2000000000000203DEE
:1003F0002000202F2000504C4C300D0A00504C4C57
:10040000310D0A006E6100203D2000202F200043A6
:100410004C485F5631005620322E36352043554C1D
:10042000383638000E03430055004C0038003600C3
:100430003800000016036200750073007700610049
:10044000720065002E0064006500000004030904CA
:1004500009028300040100C032080B0002020201FD
:10046000000904000001020201000524001001043B
:100470002402060524060001070583030800FF097E
:10048000040100020A0000000705020240000507FF
:10049000058102400005080B020202020100090466
:1004A00002000102020100052400100104240206DA
:1004B0000524060203070586030800FF090403005C
:1004C000020A000000070505024000050705840236
:1004D00040000512011001EF020108EB034E20015C
:1004E000000102DC014C4F56460D0A00424F5646B1
:1004F0000D0A000D2E2D07D3913D04320000060099
:1005000010B07155E43023B900070018146C0700CF
:1005100090876BF85611E92A001F41000D2E2D0718
:10052000D3913D04320000060010ABA5550A3023DC
:10053000B900070018146C070090876BF85611E992
:100540002A001F4100012E4604AA540FE0000000BB
:10055000060021656A97831663B947070C29366C34
:10056000074091876BF85611E92A001F4100545843
:100570005F494E49545F4552525F005472616E7339
:100580006D6974740D0A00636F6D6D616E646C69E2
:100590006E65706172616D657465723A20000D0A56
:1005A000537472696E676C656E6774683A202020B8
:1005B0002020000D0A4E65787420436861726163E3
:1005C0007465722028696E742920616674657220D2
:1005D000706172616D65746572202873686F756CE7
:1005E00064206265206C696E6520656E64206368B6
:1005F00061726163746572293A20000D0A416D6F62
:10060000756E74206F662042797465732028486582
:10061000782920666F756E6420696E736964652041
:10062000636F6D6D616E64206C696E6520706172C0
:10063000616D657465723A202020202020202020E2
:100640002020000D0A005469636B2054696D6572A7
:100650003A2020202020202020202020000D0A00E9
:100660004B65794F666654696D653A2020202020DD
:10067000202020202020006D7365630D0A004B654B
:10068000794F666654696D6520696E207469636B85
:10069000733A2020005B6865785D0D0A0054696339
:1006A0006B2054696D65723A202020202020202084
:1006B000202020005B6865785D0D0A00426C6F6346
:1006C0006B2053746172742054696D653A20202048
:1006D0002020005B6865785D0D0A004B65794F66E8
:1006E0006654696D653A202020202020202020209B
:1006F00020005B6865785D0D0A007469636B732D7B
:10070000426C6F636B537461727454696D653A2007
:10071000005B6865785D0D0A00426C6F636B320D9B
:100720000A00426C6F636B330D0A004B6F707020D0
:100730005472616E736D69747420436F6D6D616E78
:1007400064206E6F7420657175616C20746F200079
:10075000204279746573206F72204B6579636F64F2
:1007600065206973206E6F206865782076616C75EE
:10077000650D0A006B72452D5265636569766545A6
:100780006E640D0A006B72532D5265636569766560
:1007900053746172740D0A0052585F494E49545F98
:1007A0004552525F4D41524353544154455F525854
:1007B000004B6F70702052656365697665205375D4
:1007C00062436F6D6D616E6420556E6B6E6F776EF8
:1007D0000D0A004B6F707020436F6D6D616E642069
:1007E000556E6B6E6F776E0D0A0000535300547D8B
:1007F0007DFFFF4B4B7E7E004E2F41004E2F410070
:10080000454F420D0A004E2F41000B08105B11F8B6
:100810001547191D1A1C1BC71C001DB221B623EA5F
:100820000007022E030D04E905CA070C0B060D2173
:100830000E650F6A10C81193120315341733181878
:1008400019161B4321562500261129592C812D35B7
:100850003EC34552523A4343410D0A000007024647
:1008600004C605260B0610C8119312031322153473
:10087000173F182819161B432156250026110D2154
:100880000E650F6A070C160720F81E871F6B295983
:100890002C812D353EC3FF004C454E4552520D0A6A
:1008A000004C4F56460D0A004C454E4552520D0A1B
:1008B000003F20280020697320756E6B6E6F776E85
:1008C0002920557365206F6E65206F6600313A00F0
:1008D000203F00434D2822005C6E005C72002229FC
:1008E0000D0A00696620636F6E5F7374642074681C
:1008F000656E20636F6E5F7374643A636C6F7365CB
:10090000282920656E640D0A003D776966692E739B
:1009100074612E676574697028290D0A003D776936
:1009200066692E7374612E6765746D616328290D85
:100930000A0066696C652E72656D6F7665282263A4
:100940006F6E6669672E6C6322290D0A00047605B6
:10095000961700000602000B080C000D210E650F13
:100960006A106A114A1206132214F80A0015472168
:10097000B622101818192E1A6D1B041C091DB2235B
:10098000EA242A2500261F29592C812D352E0907F6
:10099000040800090006FF3EC2FF0454053D17008D
:1009A000000602000B080C000D210E6B0FD0105C2E
:1009B00011041206132214F80A00154421B622105D
:1009C0001818192E1ABF1B431C091DB523EA242A27
:1009D0002500261F29592C812D352E0907040800D2
:1009E000090006FF3EC2FF534D4F444500544D4F92
:1009F0004445004F4646004F46460012030A0A127D
:100A0000030A0106000E14202801010013090F0536
:100A10000D090F0C180000000D0D01010001151B40
:100A20000A0E0A0E0A0E0F14000F1400010002072E
:100A300010172D0710071000101020200101001CB6
:100A40000710172D07100710000D1A222A010100A8
:100A5000020710172D071007100000000000010109
:100A6000002207111428071107110000000F0F01C1
:100A7000000003070F1428070F060E001015252588
:100A80000101000409191E4A091909190C18000C62
:100A90001801010005030E1122030E030E00101CA5
:100AA00028300101002A0F19070D070D0F19041432
:100AB00014171701010006020585A50205576D01EF
:100AC00004040A0A010000070F150F1500000000BA
:100AD0000107070D0D0000010805081F2805080C77
:100AE000110005050F0F0100001E090D5064090DCE
:100AF000232D0004050C0C0100001F070F1326070F
:100B00000F050C000000101001010009070F070C71
:100B100000000000050D0D15150000030C020585F1
:100B2000A50205576D0206060C0C0100000D1421EC
:100B30000409070D14200000000A0A010000271311
:100B40001F060C060C131F0000000A0A0100000E0D
:100B50000305A8CF03053746000003131401000066
:100B60000F090D090D000000000000010B1100012C
:100B70000317060904070000000000090911160008
:100B800000031903063543030618200105050C0D63
:100B90000100001D010506100105020800000010FB
:100BA00010010000200308010500000000010909F0
:100BB00011110000032403060000030600000010CA
:100BC00011202001000011241FBECFEFDFE3DEBFA4
:100BD000CDBF00E00CBF18BE19BE1ABE1BBE11E28D
:100BE000A0E0B0E2EEE1F0EC00E00BBF02C0079045
:100BF0000D92AE39B107D9F71BBE2AE3AEE9B1E2D7
:100C000001C01D92A731B207E1F7F0D10C940D603D
:100C1000F7C980915000846080935000809151000A
:100C200082FFFCCF809150008160809350008091C2
:100C3000510080FFFCCF809156008093560081EADE
:100C400080936D0087E080936E0081E08093680060
:100C500088E180935500809150008061809350001E
:100C60008091510084FFFCCF80915000826080937E
:100C700050008091510081FFFCCF809156008093FD
:100C8000560082E1809365008AE78093660021E048
:100C9000209360003FB7F89488ED90E0A0E4B0E0C6
:100CA0001BBEFD0184BF20833FBF8FE39FE10197FF
:100CB000F1F700C000008091400087E08093A2001F
:100CC00088ED84BF83E2809380008091820080FD64
:100CD000FCCF089581E08CBFE0910020F0910120CD
:100CE000199508958091780083FF0FC083E390E009
:100CF000F5D6882351F08091780088608093780041
:100D000060E083E390E0E3D6E5CF0895E0E4F6E029
:100D100080E18183858380EB818380E4828381E528
:100D20008093C00808958093C3088091C20887FF0C
:100D3000FCCF8091C3080895E0E0F6E080858295BD
:100D400081700895E0E0F6E0808585FB882780F9D2
:100D500008951092000A1092010A8093260A909337
:100D6000270A1092200A1092210A80910C0A8160B1
:100D700080930C0A88E08093000A80910C0A80FD21
:100D800002C0A895FACF1092000A0895CF93DF937E
:100D9000EC018134910560F488EE93E09C01C29FE0
:100DA000C001C39F900DD29F900D1124D2DF05C0CA
:100DB00088EE93E0CEDF2197D9F7DF91CF910895A8
:100DC000E0E0F8E010A211A228E0208381E390E0A7
:100DD00086A397A3118281E08683E0E4F8E010A265
:100DE00011A280838FE190E086A397A388EC809383
:100DF0008001E0E4F9E010A211A2208380E593ECE9
:100E000086A397A3168208950895CF92DF92EF925A
:100E1000FF92CF93DF93EC016A017B01CB01BA0112
:100E2000969587957795679560587B47814E9F4F3C
:100E3000A70196010E944B5C215031093F832E830C
:100E400083E08D8388E18C83C1148BE4D806E104B0
:100E5000F10409F494C0D8F580E6C81689E0D806F4
:100E6000E104F10409F47BC0C8F488E5C81682E007
:100E7000D806E104F10409F4A6C080EBC81684E0AA
:100E8000D806E104F10409F467C08CE2C81681E0D9
:100E9000D806E104F10409F09EC05BC080E8C816E2
:100EA00085E2D806E104F10409F461C080E4C816C3
:100EB00088E3D806E104F10409F45DC080ECC816AB
:100EC00082E1D806E104F10409F085C04CC0C114E8
:100ED00081EED806E104F10409F461C0C0F4C11444
:100EE00086E9D806E104F10409F451C08DE3C8167F
:100EF00086E9D806E104F10409F44DC080E8C8167B
:100F000080E7D806E104F10409F065C03CC0C114D3
:100F100082ECD80681E0E806F10409F448C048F400
:100F2000C1148CE2D80681E0E806F10409F053C050
:100F30003AC0C11484E8D80683E0E806F104D9F188
:100F4000C11488E0D80687E0E806F10409F043C040
:100F500036C08FEC90E009C08CE090E036C08CE0A9
:100F600090E026E033C08CE090E025E02FC08CE0DC
:100F700090E024E02BC08AE890E020E027C08CE0DD
:100F800090E023E023C089E890E02FEF1FC08CE0C1
:100F900090E022E01BC08AED9CE02AEF17C087E8B2
:100FA00090E02EEF13C08CE090E021E00FC083E8CA
:100FB00090E02DEF0BC08BE790E02CEF07C08BE6A5
:100FC00090E02BEF03C089E190E027E08E8322952B
:100FD000207F292B2F83DF91CF91FF90EF90DF901F
:100FE000CF90089553D480E090E008957BDE11DE29
:100FF0000BDFE6DE60E070E082EF97E00E944C5F7E
:101000001092CA2580E090E88093C3259093C42570
:101010001092C5257BDED2D60E94653752D70E943A
:1010200087300E94BA310E94D7390E9424387894C0
:101030000E94FD240E940D1487EB9EE28093CD2533
:101040009093CE250E949D1A8DE08093A32110924B
:10105000C62518D039D70E941716C7D20E94642916
:101060000E942C1C0E94CF310E94222A0E94C22D75
:101070000E94D7330E94F6300E94DC390E94B138BA
:1010800019D0E8CFE0E4F6E084E085838183A0E630
:10109000B6E082E015968C93159711968C9381E0BB
:1010A000858381831092C7258FEF8093C825109286
:1010B000C92508950895A1E0B0E0E1E6F8E00C94B8
:1010C0007F5C482F8A3008F048E088E0489F700134
:1010D0001124EEE9F3E0EE0EFF1E8BE290E0F70143
:1010E00064918C010F5F1F4F4983F1D4FFEFEF1A1A
:1010F000FF0AC80149810333110589F7455045307E
:1011000010F461E101C067E184E290E0E0D421964F
:10111000E6E00C94985CCF93DF9382E090E0FC01D2
:10112000ED58FC4F6491EC012196D1D4CE01CB3225
:10113000D105A9F787E390E0FC01EB5EFC4F6491D9
:10114000EC012196C4D4CE01C036D105A9F788E0C0
:10115000B2DFDF91CF9108951F93CF93DF93C0E467
:10116000D6E010E11E83806CDEDD80E0DCDD1D83D7
:10117000DF91CF911F910895A1E0B0E0E2ECF8E09B
:101180000C94825C41E0BE016F5F7F4F019643D4B7
:10119000892B21F18981893969F410E0812FDCDF05
:1011A00036D4812F8770873009F4BDD31F5F103389
:1011B000A9F714C0D1DF182F83E468D3898127D41D
:1011C0008EEE93E0A3D3812F22D482EF93E09ED3BF
:1011D00040E262E0812F90E0AAD3A5D32196E3E01C
:1011E0000C949B5CEF92FF921F93CF93DF931F921F
:1011F000CDB7DEB790E4E92E96E0F92E10E1F701C5
:101200001683806469838FDD6981862F8CDDF70109
:1012100015830F90DF91CF911F91FF90EF9008956C
:101220001F93CF93DF93C0E4D6E010E11E837BDDF4
:101230001D83DF91CF911F910895CF93CFEF09C008
:101240008AE090E086DDC11104C080E280930B0645
:1012500007C084E3E5DFC1508077803189F7F5CF9F
:10126000CF910895CF9310920B0686E3D9DFCFEF8D
:1012700005C08AE090E06DDDCC2331F085E3D0DF5E
:10128000C15080778032A9F7CF910895EF92FF92F5
:101290000F931F93CF93DF93EC011092252310E15E
:1012A0001093410610920B06109345068EE190E0D4
:1012B00050DD109346068EE190E04BDD109345061D
:1012C0008DE290E046DD80E3ABDF84E690E05EDD1A
:1012D0001093460680E427DD8E01075D1F4F7E01D7
:1012E0008FEFE81AF80ACE01F9D31DDDE701E01609
:1012F000F106A9F780E180934506809346068EE7C4
:1013000012DD8BE290E0EC012196E8D30CDDCE01FA
:10131000C333D105C1F780E18093450683E380DFC5
:1013200081E090E033DDCDB7DEB7E6E00C94985C69
:10133000A1E0B0E0EEE9F9E00C94835C22E02983BF
:1013400041E0BE016F5F7F4F019665D38981B3DEB7
:1013500082E090E09BDF2196E2E00C949C5C86E3C7
:101360005FDF1092CF25109223231092252308953A
:1013700082E090E08BDF81E08093CF2510922323E1
:101380001092252308951F93CF93DF93D82F162F04
:10139000C0E085E3E1DE8D1739F0812F90E0D9DCE4
:1013A000C150B9F781E001C080E0DF91CF911F917A
:1013B000089585E2D1DE8F3311F080E0089586E351
:1013C0002FDF80919E21811104C086EF93E09ED291
:1013D00002C08DE325DF83E323DF64E081E0D3DF18
:1013E00085E2BADE8F3349F780919E21811103C0D7
:1013F0008DEF93E08BD281E0089585E3ADDE8D30F3
:1014000051F485E2A9DE8F3331F4D3DF84E308DFC2
:1014100080778031D9F708951F920F920FB60F92FF
:10142000112408B60F9218BE09B60F9219BE0BB65A
:101430000F921BBE2F933F934F935F936F937F93B6
:101440008F939F93AF93BF93EF93FF930E94213AA3
:10145000811102C00E941B3A8091D7258F5F809333
:10146000D7254091C625442389F02091D725809126
:10147000C72590E03091C525831B910930E02817DE
:10148000390724F482E08093660605C082E08093E9
:101490006506442389F02091D7258091C82590E0E6
:1014A0003091C525831B910930E02817390724F4B2
:1014B00081E08093460605C081E080934506442381
:1014C00089F02091D7258091C92590E03091C525DC
:1014D000831B910930E02817390724F484E08093B6
:1014E000460603C084E0809345068091A0218F5F6B
:1014F0008093A021803AD8F11092A0218091D32529
:101500009091D425A091D525B091D6250196A11D05
:10151000B11D8093D3259093D425A093D525B09366
:10152000D6258091D0258F5F8093D025EEEFF7E20E
:1015300080819181181619061CF40197808391838C
:10154000369688E2E631F80799F78091182890914D
:101550001928009729F0019780931828909319284B
:1015600080912B288F3F19F0815080932B28FF9179
:10157000EF91BF91AF919F918F917F916F915F910B
:101580004F913F912F910F900BBE0F9009BE0F907E
:1015900008BE0F900FBE0F901F9018952FB7F894AC
:1015A0004091D3255091D4256091D5257091D625B1
:1015B000FC0140835183628373832FBF0895A4E0AD
:1015C000B0E0E5EEFAE00C94835CCE010196E6DF34
:1015D0008C811DD28B811BD28A8119D2898117D22D
:1015E000A2D12496E2E00C949C5C1F93CF93DF93EE
:1015F0008091D3259091D425A091D525B091D62561
:101600002091A121281709F4C4C08091D32590917D
:10161000D425A091D525B091D6258093A121A89558
:10162000209102202031A8F181E08093C6256091AD
:10163000D3257091D4258091D5259091D62530E081
:1016400020513109442737FD4095542F0E944B5CAF
:10165000672B682B692B09F04BC08091D1259091A5
:10166000D2250196803891050CF402C081E89FEFE5
:101670008093D1259093D2258091D1259091D22528
:1016800097FF03C0919581959109880F8093C52597
:101690002FC06091D3257091D4258091D52590914C
:1016A000D6252CE030E040E050E00E944B5C672BF8
:1016B000682B692BE9F44091CA2581E090E0042E63
:1016C00002C0880F991F0A94E2F72091C325309138
:1016D000C425822393234F5F4093CA25892B31F081
:1016E00081E08093C6251092C52502C01092C625C0
:1016F0008091CA258F708093CA25CEEFD7E210E083
:1017000028813981232B19F4812F0E948F271F5F95
:1017100026961430A9F78091182890911928892BC2
:1017200011F40E94E72780912B28811102C00E94AA
:1017300042288091EA27882339F081508093EA2754
:10174000811102C00E94CE1C8091D0258D3708F1F6
:101750001092D0258091D8259091D925843823E006
:10176000920728F401968093D8259093D9258091EB
:10177000A2218F5F8093A2218C3359F41092A22171
:101780008091FD278F5F8093FD278C3310F010929E
:10179000FD27DF91CF911F910895CF93DF93FC0137
:1017A0008681843509F06FC0C081D1812DE001C0F0
:1017B0002F5F822F90E08C179D0740F09E012F50E5
:1017C00031098217930709F05EC008C0DF01A80F36
:1017D000B91F16963C913B3359F7F0CFDE011E97A7
:1017E000AE0FBF1F16968C91843509F04CC0DE01F8
:1017F0001897AE0FBF1F978111968C911197981370
:1018000042C0908512968C91129798133CC0918596
:1018100013968C911397981336C0928514968C91D9
:101820001497981330C0CE014197AE014B50510927
:101830004E0F5F1F15962C9115978E0F9F1FEC0171
:101840002E8316968C911697EA01898319968C91AE
:1018500019978A831A968C911A978B831B968C9171
:101860001B978C831C968C911C978D831D968C9155
:101870008E83808191810A97808391838481958171
:101880000A9784839583DF91CF910895CF93C82FD2
:101890008091A32182FF04C06C2F81E69EE276D363
:1018A0008091EE35843041F48091A32180FF04C003
:1018B0006C2F8DE398E26AD38091F5278823C9F0D5
:1018C0008091A32183FF15C0CA3099F0CD3011F467
:1018D0006BE301C06C2F82EE95E258D3CD3019F442
:1018E00082EE95E25ADF83E08093EA2782E08093DC
:1018F000F027CF910895CF93DF93EC0101C0C6DFAD
:1019000089918111FCCFDF91CF910895CF93DF931F
:10191000EC0102C0BBDF2196FE0184918111FACF58
:10192000DF91CF9108958DE0B1DF8AE0AFCFA6E0DF
:10193000B0E0EDE9FCE00C94815C062F1E8215E01E
:101940002AE030E01150E1E0F0E0EC0FFD1FE10F84
:10195000F11DB9010E94245C805D8083CB010150A0
:10196000009759F01111EECF08C01150E1E0F0E0FE
:10197000EC0FFD1FE10FF11D4083015007FD02C078
:101980001111F3CF81E090E08C0F9D1F810F911D0D
:10199000B2DF2696E4E00C949A5CA5E0B0E0E3EDBB
:1019A000FCE00C94835C1D8224E0382F3F702150B2
:1019B000E22FF0E03A3010F4305D01C0395CA1E074
:1019C000B0E0AC0FBD1FEA0FFB1F308334E09695EB
:1019D00087953A95E1F76150009739F708C0215093
:1019E000E1E0F0E0EC0FFD1FE20FF11D40836150DC
:1019F00067FD02C02111F3CF81E090E08C0F9D1FA5
:101A0000820F911D78DF2596E2E00C949C5C40E308
:101A100062E090E0C2CFFB0122C0213608F02052E4
:101A2000A22FA053AA3010F42A2F05C0A22FA15430
:101A3000A63018F42753232B05C0203291F02A3307
:101A400081F005C0552331F02193415041F4E61B4C
:101A5000F70B0DC0322F3295307F51E002C050E0BD
:101A600030E0DC012D91CD012111D7CFF0CFCF0196
:101A7000089520E030E05AE00EC0E42FE053EA3051
:101A800050F4F9015E9F90015F9F300D11242053A7
:101A90003109240F311DFC014191CF014111EDCFDE
:101AA000FB01208331830895982F92959F709A307F
:101AB00010F4905D01C0995CFB0190838F708A30B7
:101AC00010F4805D01C0895CFB01818308950E9450
:101AD000A65F8091CF0187FDFCCF08950C94965F9F
:101AE00008951F93CF93DF930AC0EC012196F6DF90
:101AF0008EDF112311F08AE3C9DE612FCE01162F8C
:101B000011506111F2CFDF91CF911F910895A3E0A1
:101B1000B0E0EDE8FDE00C94815CFC018181883748
:101B200089F482818823D9F0BE016D5F7F4F0E94C6
:101B30007F37811103C08B816ADF3BC084E094E072
:101B4000E5DE37C08D3421F466E08AEF97E005C00A
:101B5000803529F460E18AED97E0C3DF2AC01A825C
:101B6000198242E0BE016F5F7F4FCF01019653DFC4
:101B70008B839981823029F4192F00E08A81082B08
:101B800002C0092F10E0C801A9DF8B8382E57EDE49
:101B900040E364E0C80101DF87E094E0B7DE8B81B9
:101BA00036DF8BE094E0B2DE40E262E08B8190E0D1
:101BB000BEDEB9DE2396E4E00C949A5CA6E0B0E0C9
:101BC000E4EEFDE00C947D5C8C01FC0181818837A2
:101BD000D1F482818823B9F083818823A1F08481A4
:101BE000882389F041E0BE016F5F7F4FC8010396F3
:101BF00012DF41E050E0BE016F5F7F4FF80182814C
:101C00000E94AE373AC043E0BE016F5F7F4FC8010C
:101C1000019601DF823088F12981823019F4C22EC9
:101C2000D12C04C0D22EC12C2A81C22A7C01FF24CF
:101C3000FE01EE0DFF1D6081C60149DFEE0CFF1CA9
:101C4000FFEFEF1AFF0AE00EF11E86010F5F1F4F34
:101C500010C041E0BE016F5F7F4FC701DCDE892B02
:101C600061F06981C80133DF82E0E80EF11C0E5F8C
:101C70001F4FF70180818111ECCF2696E8E00C948C
:101C8000965CCF93DF93EC01898141E0833691F438
:101C900067EC75E2CE010296BEDE41E068EC75E2CB
:101CA000CE010496B8DE41E069EC75E2CE010696FD
:101CB000B2DE31C062E070E2CE010196ACDE60912E
:101CC00002206230A1F028F4662349F0613001F56A
:101CD0000BC0643091F070F06530D1F411C01092F7
:101CE000C3251092C42512C08FEF9FEF0BC080E078
:101CF0009FEF08C080E090EA05C080E099EA02C04A
:101D000080E090E88093C3259093C4251092C52568
:101D100084E390E0DCDEDF91CF910895A1E0B0E0B4
:101D2000E4E9FEE00C94835C1982009731F041E015
:101D3000BE016F5F7F4F01966EDE89818F3F09F490
:101D4000FFCF882321F061E083E390E0C0DEF894C8
:101D500093E088ED08B684BF90938000A89508BEF4
:101D6000FFCFCF93DF93EC0162E080E090E0AFDE45
:101D700061E481E090E0ABDECED960E080E690E007
:101D8000A6DE60E081E690E0A2DE60E083E390E022
:101D90009EDE62E084E390E09ADE60E080E690E020
:101DA00096DE60E081E690E092DE8981883719F066
:101DB00080E090E0B3DFDF91CF91089580E090E084
:101DC0008DDE823029F481E090E088DE813419F0E4
:101DD00080E090E0C6DF84E390E080DE8093022024
:101DE000823099F028F4882341F08130D1F40AC080
:101DF000833071F08430A9F40EC01092C325109284
:101E0000C42508958FEF9FEF08C080E09FEF05C0C5
:101E100080E090EA02C080E09AEA8093C325909324
:101E2000C4250895FC018181883419F48FE094E081
:101E300002C086E194E06ADD76CDCF9321C08EE1C9
:101E400090E20E94495A97FF17C08DE19FE080936E
:101E5000CB259093CC25E091CD25F091CE2581E046
:101E6000199580911F200E941557809141289091CB
:101E70004228892B21F10CC0682F83E49AE286D096
:101E80008091472A9091482A81159240C0F2DDCF77
:101E90000E94B45781110AC012C08DE398E296D017
:101EA000682F8EE190E20E94BA5901C0C1E480918E
:101EB000412890914228892B11F0C15071F7CF91A0
:101EC00008950C94E6580895B8DF8EE190E20E94E0
:101ED000305A83E090E20E94305A0C94D355089512
:101EE00008958EE190E20E94965983E090E20C946E
:101EF00096598EE190E20E94A05A83E090E20C9401
:101F0000A05A292F33272230310539F023303105EB
:101F100049F02130310521F128C0E3E8F0E080E507
:101F200094E027C099278130910561F082309105B6
:101F300081F0892BD1F4ECE4F4E0E491F0E08CE45E
:101F400094E017C0E4E3F4E0E491F0E084E394E08B
:101F500010C0E4E2F4E0E491F0E084E294E009C02F
:101F6000E2E1F0E083ED94E004C0E0E0F0E080E046
:101F700090E0DA018D939C93CF010895FC011482C7
:101F8000158210821182128213820895FC012FB7EC
:101F9000F89484819581811532E0930708F014C08C
:101FA00001968483958380819181DF01A80FB91FF9
:101FB00016966C930196811532E0930719F0808391
:101FC000918302C0108211822FBF0895FC014FB788
:101FD000F89484819581009719F44FBF80E00895AB
:101FE00001978483958322813381DF01A20FB31F80
:101FF00016968C912F5F3F4F211592E0390719F00B
:102000002283338302C0128213824FBF0895FA01E4
:102010003081882369F0DB01A30FB11DE1E0F0E01E
:10202000022E01C0EE0F0A94EAF79C919E2B9C931E
:10203000222319F0822F81500BC0832F8F5F8C30A9
:1020400010F4FA018083FB01E80FF11D108287E094
:1020500090E00895CF93C82F80E180930506CC23AC
:1020600019F08091A82102C08091A62120E1829FD1
:10207000C00111240E94A90680E180930606CC23AA
:1020800019F08091A72102C08091A52120E1829FB3
:10209000C00111240E94A906CF910895A6E0B0E0E6
:1020A000E4E5F0E10C94735C6C016983942EA22E3C
:1020B000EA82842F90E08D839E832091D8253091F1
:1020C000D9250296089F802D1124992787FD909588
:1020D0002817390720F485EE94E018DC87C0281B08
:1020E000390B2093D8253093D92581E08093C625DC
:1020F0001092C525F89480912523882339F01092F9
:10210000252388E991E2B2D311E001C010E080916B
:10211000CF25811101C02CD9A5D8F981EF2FF0E08E
:10212000EB83FC83EE24E394F12CB12CC601890DE2
:10213000911D97FC9A954C01612C712C05C080E093
:1021400089DF9FEF691A790AEB81FC816E167F06A1
:10215000B4F3F981FF2311F081E07CDF412C512C95
:1021600017C097E0292E312C3601640C751CC7016D
:10217000022C01C0880F0A94EAF7F30190818923A9
:1021800069DFF1E02F1A310890F79FEF491A590AD9
:10219000ED81FE814E165F0624F387E0682E712CD8
:1021A0000DC0C701062C01C0880F0A94EAF7F4019C
:1021B000908189234FDFF1E06F1A7108A614B704EC
:1021C00084F38A8190E00E94C606015009F0B4CFE2
:1021D0008091DB25882311F030D802C086E320D817
:1021E000789411110E94D12B1092C6252696E2E117
:1021F0000C948C5CADE0B0E0E0E0F1E10C94765C36
:102200007C01162F842F022F6701C60ED11C462F8A
:10221000B70141D3D6018C931F5F1D8619825E2CB6
:10222000670127E088248394912C32C047E0A42ED4
:10223000B12C3701680E711CF4010A2C01C0EE0F9D
:102240000A94EAF7D3018C91AE01435F5F4FBE0160
:102250006F5F7F4F8E23DBDE282FB1E0AB1AB10812
:1022600058F7D601ED916D010E2EE295E0250E2E68
:10227000E695E695E025F0E03196E1FB882780F9C8
:10228000AE01435F5F4FBE016F5F7F4FC0DE282FFF
:102290008C2D8519811708F4C9CF222311F0215004
:1022A00004C08D858F5F8D8727E089E18093A5210C
:1022B0008093A62185E28093A7218093A8213AE00C
:1022C000E32E4D856CE0CE010196E8DE2D96EFE021
:1022D0000C948F5CADE0B0E0E0E7F1E10C94825C3F
:1022E000162F242F4BE0BE016F5F7F4F01962D8785
:1022F00092DB2D85412F682FCE0101967BDF2D9635
:10230000E3E00C949B5C43E066E0E4CFEF920F9334
:10231000CF93DF93CDB7DEB76097CDBFDEBF40E18F
:10232000BE016F5F7F4F019676DB69814A810B8129
:102330008C818093A6218D818093A5218E818093AD
:10234000A8218F818093A721E02EE2947FE0E722ED
:102350000F70242F2F7042954F70CE0108969EDE8D
:102360006096CDBFDEBFDF91CF910F91EF900895C2
:10237000A9E1B0E0EEEBF1E10C947B5C4BE0BE0137
:102380006F5F7F4F019647DB182F893009F05BC0E4
:1023900099E19093A5219093A6219093A82182E39F
:1023A0008093A72169E0CE0101967FD2E1E0F0E0C1
:1023B000EC0FFD1FE10FF11D8083198E1D868E012C
:1023C0000F5F1F4F6E018BE0C80ED11C27E0AA24BF
:1023D000A394B12C25C0E12CF12CF5010E2C01C0E9
:1023E000EE0F0A94EAF7D8018C91AE01475E5F4F79
:1023F000BE01635F7F4F8E230ADE282FBFEFEB1AEB
:10240000FB0A88E0E816F10441F7AE01475E5F4F32
:10241000BE01635F7F4F81E0FADD282F0F5F1F4F02
:102420000C151D05C1F6222311F0215004C0898D21
:102430008F5F898F27E0EAE0EE2E03E0498D6CE0A4
:10244000CE010D962BDE6996EAE00C94945CA9E12E
:10245000B0E0EDE2F2E10C94765C4BE08E010F5FB0
:102460001F4FB8010196D7DAF82E582E85E38093D6
:10247000A62196E19093A5219093A8218093A7216E
:102480006F2DC8011ED2F801EF0DF11D808353940A
:10249000198E1D86780127E0AA24A394B12C480147
:1024A0004DC0C12CD12C3401680E711CF5010C2CCF
:1024B00001C0EE0F0A94EAF7D3018C91AE01475E9A
:1024C0005F4FBE01635F7F4F8E23A1DD282FBFEFDB
:1024D000CB1ADB0A84E0C816D10441F7AE01475E8F
:1024E0005F4FBE01635F7F4F81E091DD282FB4E035
:1024F000CB2ED12CF5010C2C01C0EE0F0A94EAF77B
:10250000D7018C91AE01475E5F4FBE01635F7F4F85
:102510008E237DDD282FBFEFCB1ADB0A88E0C8169B
:10252000D10441F7AE01475E5F4FBE01635F7F4F4D
:1025300081E06DDD282FAFEFEA1AFA0A8E2D801B9D
:10254000851508F4AECFAAE0EA2E03E0498D6AE0D3
:10255000CE010D96A3DD6996EFE00C948F5CEF92AF
:102560000F93CF93DF9300D01F92CDB7DEB743E038
:10257000BE016F5F7F4F01964EDA8AE68093A621F7
:1025800094E29093A52191E29093A8218093A721B2
:1025900080E88C839FE0E92E03E026E043E060E0E2
:1025A000CE0101967BDD2496CDBFDEBFDF91CF91BA
:1025B0000F91EF9008956F927F928F929F92BF92AA
:1025C000CF92DF92FF920F931F93CF93DF93A62FAB
:1025D0001092192210921A22FC016181660F660F77
:1025E000660F2381621B695F10921B22F12C70E041
:1025F00047E0F7E0DF2EC12C20E007E010E0C1E06B
:10260000D0E07DC0FC01EC0DF11D248130E00D2CEB
:1026100002C0359527950A94E2F721703327522F8F
:10262000DD2011F0DA9403C0C394E7E0DE2EAB3472
:1026300091F4433009F081C0F11007C051115CC022
:102640001092192270931A2276C0F12C79C0AB3403
:1026500009F050C03CC04F3F41F5A634B9F4E72F14
:10266000F0E0E55EFD4D4081042E42954025042EAC
:1026700046954695402550E04F5F5F4F41FB8824CB
:1026800080F8912C8216930641F004C0A53429F4F9
:10269000511103C0F0921922D5CF7F5FE72FF0E0F0
:1026A000E55EFD4D108247E029C0552319F1A6349F
:1026B00059F4E72FF0E0E55EFD4D9E01042E01C0C8
:1026C000220F0A94EAF713C0A53409F0C0CFE72F10
:1026D000F0E0E55EFD4D9801241B310947FD33957F
:1026E0003E0102C0660C771C2A95E2F79301308107
:1026F000322B3083415002C0FF24F3942B2DB22E95
:10270000B394261708F47ECFF092192270931A2200
:102710006B1588F4A53419F44F3F09F404C0809177
:102720001922882319F07F5F70931A2281E090911B
:102730001A22911108C080E006C04F3F09F4A8CFCB
:102740005111C5CFD7CFDF91CF911F910F91FF903E
:10275000DF90CF90BF909F908F907F906F90089563
:10276000E0E4F9E01682E0914C228CE1E89FF00170
:102770001124E755FE4D10820895FC01218124317A
:1027800008F0EECF662389F0DC01A20FB11D81E0D5
:1027900090E0038002C0880F991F0A94E2F7149614
:1027A0009C911497982B14969C938381882319F0FD
:1027B00081508383089587E083832F5F2183E20F15
:1027C000F11D14820895DC0111962C91119730E0CF
:1027D00050E0F901E41BF50B8C91EC30F105DCF4D1
:1027E000E53FFF4FC4F090E070E0FC01E61BF70B03
:1027F000EC30F10584F4E53FFF4F6CF0280F391FF2
:10280000640F751F261B370B2C30310524F481E033
:10281000253F3F4F0CF480E00895E0E0F6E080E1D2
:102820008183868380E28283158A81858C6081879B
:1028300082EC91E08093D8259093D9251092C52100
:102840001092E1211092FD211092CF2508958091E0
:102850003F2581110AC08091DB25882321F00E9449
:10286000B8090C941D090C94AF090895FC0121814D
:1028700021110BC08091DB25CAD840E265E0809130
:10288000D8259091D92553D84EC841E06BED75E21B
:102890000196C1D8DCCF06C04150FB01E40FF11D09
:1028A0009081890F4111F8CF089520E006C0615052
:1028B000FC01E60FF11D308123276111F8CF822F33
:1028C0000895A091192240E035E020E012C0615047
:1028D000FC01E60FF11D5081752F72957F7027273F
:1028E000370FAA2311F0442319F05F702527350F05
:1028F0004F5F6111ECCF320F40E1349FC0011124D2
:10290000822B0895FC0132812381A081B181A30F24
:10291000B11D8C9190E0022E02C0959587950A9486
:10292000E2F78170922F91509383211104C03F5F91
:10293000328397E0938308958F929F92BF92CF92B4
:10294000DF92EF92FF920F931F93CF93DF931F922B
:102950001F92CDB7DEB76C01812C912CB12CEE24E7
:10296000E394F12C062F10E0015011091DC0C6019F
:102970004A836983C7DF4A816981882391F04423B0
:1029800049F09801281939098E2D01C0880F2A9520
:10299000EAF706C08E2D082C01C0880F0A94EAF7CA
:1029A000B82A8FEF881A980A861608F38B2D0F9095
:1029B0000F90DF91CF911F910F91FF90EF90DF90DB
:1029C000CF90BF909F908F900895A4E0B0E0EBEE81
:1029D000F4E10C947A5C1B8227E02C839C012C5F31
:1029E0003F4F29833A8310921A22FC0121813381BF
:1029F00087E090E0831B9109F8E02F9F800D911DE7
:102A00001124853491057CF554C00A2D10E040E076
:102A100068E0CE01019690DF055E1D4DF8018083D0
:102A2000982E092C92949024092C96949694902494
:102A3000CE01019667DF292D30E02F5F3F4F21FB4C
:102A4000CC24C0F8D12C90E0C816D90691F5CE015F
:102A5000019658DF81112DC0F8018081B826A3941A
:102A6000A0921A2201C0B12CA0901A22F5E0FA150A
:102A700060F640E068E0CE0101965EDF082F182F77
:102A8000012E12951025012E169516951025CE01B2
:102A9000019638DF212F30E02F5F3F4F21FBEE24DE
:102AA000E0F8F12C282F30E0E216F30611F481E073
:102AB000B01280E02496EBE00C94935CA5E0B0E0CB
:102AC000E4E6F5E10C94805CFC011B8287E08C83DA
:102AD000CF01049689839A838081853009F050C0A4
:102AE0002181338187E090E0831B910938E0239FA7
:102AF000800D911D11248039910509F041C010927B
:102B00001A220FE010EF29E812C0CE0101962D83A2
:102B100013DF080F111DEF2DF0E0E55EFD4D2D8157
:102B200028272083282F2C5DF394F0921A22F0900E
:102B30001A228EE041E068E08F1538F7CE01019649
:102B4000FBDE080F111DEF2DF0E0E55EFD4D8095D9
:102B50008083F394F0921A2241E068E0CE0101965E
:102B6000EBDE382F20E0021B130B41E068E0CE01C2
:102B70000196E2DE282F30E081E00217130709F00A
:102B800080E02596E5E00C94995CA4E0B0E0EBECE5
:102B9000F5E10C94825C1B8227E02C839C012C5F66
:102BA0003F4F29833A83FC012181243099F58381A9
:102BB000813081F510921A2214C0111106C067E00D
:102BC000CE010196B9DE806804C068E0CE010196AE
:102BD000B3DEE12FF0E0E55EFD4D80831F5F1093D3
:102BE0001A2210911A2241E0143038F367E0CE0126
:102BF0000196A2DEE12FF0E0E55EFD4D880F8083B7
:102C00001F5F10931A2290911B2292959F7081E072
:102C10009A3009F080E02496E3E00C949B5C80916C
:102C2000DA2580FD03C084608093DA250895A1E051
:102C3000B0E0EDE1F6E10C947F5C198280912F22E7
:102C40008823B9F18091DB2587FF17C084E30E94B8
:102C5000AC088058803458F0803C58F490E080559F
:102C60009109B3E095958795BA95E1F703C080E0A7
:102C700001C08FE08F590E94460C8091DB2583FFB5
:102C800016C082E70E94460C8091DB2584FF04C0B9
:102C9000809130220E94460C86E60E94460C80916C
:102CA000DB2584FF04C080912F220E94460C1092E5
:102CB0002F2280913122882309F440C281E0809341
:102CC000C6251092C525009132222CE1029F800179
:102CD000112407551E4D8981811106C0C801EEDE01
:102CE000882311F083E58983898181113DC066E4E1
:102CF000C80161DC8823C1F1F0901A22FA94F092A5
:102D00001A224F2D6BE172E286E0C5DD6F2D70E077
:102D1000FB01E55EFD4DE0808E1105C093E09F153F
:102D200010F486E41EC0282F30E02F5F3F4FEE2DB9
:102D3000F0E02E173F0751F4E3E0EF1538F496E486
:102D40009983FB01E55EFD4D80830EC04F2D6BE145
:102D500072E28CE0A0DD8E1106C0F3E0FF1518F4DE
:102D600084E5898301C019828981811116C065E4D7
:102D7000C80121DC882389F080911A228150809338
:102D80001A22893051F469E08BE192E28EDD909154
:102D90002422891302C085E489838981811106C0B8
:102DA000C80113DE882311F088E4898389818111A9
:102DB00006C0C801EADE882311F084E7898389818F
:102DC000811133C0F801438D60913022C8014A96C9
:102DD000FADC682FC801D1DC6BE4C801ECDB882386
:102DE000B1F0F0901A22FA94F0921A226F2D8BE132
:102DF00092E267DDEF2DF0E090911922E91BF109D5
:102E0000E55EFD4D9081891302C08BE48983898141
:102E100081110BC0F8018381982F9F5F93838730C6
:102E200021F41382818181508183898181112AC09B
:102E3000F8018181843031F58381843019F54EE1C8
:102E40006CE3C8014896BFDC8823E1F04EE1609155
:102E50003022C8014A96B7DC682FC8018EDC20E01A
:102E6000822F90E0FC01E55EFD4DD801A80FB91F4F
:102E700014968C9180832F5F253090F320931A2233
:102E800082E589833981332309F4CBC02091DB2586
:102E900020FFC7C08091DA258E7F8B7F8093DA2553
:102EA00021FD64C050913322F0901A225F113DC081
:102EB00040E017C0842F90E0642F6F5FFC01EC5C52
:102EC000FD4DDC01A55EBD4D70818C91781741F000
:102ED000409333228091DA258D7F8093DA2505C0D7
:102EE000462F451738F34093332245131EC04091B7
:102EF000D3255091D4256091D5257091D625809108
:102F0000482290914922A0914A22B0914B22481B1D
:102F1000590B6A0B7B0B463251056105710528F48C
:102F20008091DA2581608093DA2540E00BC0842F00
:102F300090E0FC01EC5CFD4DDC01A55EBD4D8C918B
:102F400080834F5F4F1598F3409333228091D325B0
:102F50009091D425A091D525B091D6258093482273
:102F600090934922A0934A22B0934B223435F1F436
:102F700026FD1CC080911A228530C0F080911D2250
:102F80008B3479F0893669F0833559F0843549F00E
:102F90008D3739F08E3729F080911E228077803767
:102FA00029F48091DA2581608093DA25B801CE0179
:102FB000019635DE8091DA2582FF33C089810E9437
:102FC000460C80911922882329F080911A22815081
:102FD00080931A22F12C08C0EF2DF0E0E55EFD4D44
:102FE00080810E94070DF394E0911A22FE16A0F34F
:102FF00080911922882351F0F0E0E55EFD4D80813B
:1030000040E361E08F7090E00E94CD0C8091DB2561
:1030100085FF05C084E30E94AC080E94070D0E9452
:10302000930C8091DB2582FF6FC080E70E94460CE5
:1030300040E262E0F801808190E00E94970CF80184
:10304000808D40E265E0F0E18F9FC00111240E9475
:10305000970CF801818D40E265E0F0E18F9FC0019F
:1030600011240E94970CF801828D40E265E0F0E1A6
:103070008F9FC00111240E94970CF801838D40E2BC
:1030800065E0F0E18F9FC00111240E94970C40E29F
:1030900063E0F801828190E00E94970C40E263E0D7
:1030A000F801818190E00E94970CF801238140E2B1
:1030B00062E087E090E0821B91090E94970C80E219
:1030C0000E94460C8091DB2585FF08C084E30E94A6
:1030D000AC080E94070D80E20E94460CF801838133
:1030E000873019F081818F5F8183F12C07C0F8014F
:1030F000EF0DF11D84810E94070DF394F801818189
:10310000F816A8F30E94930CF801108280913122E6
:10311000815080933122809132228F5F843019F068
:103120008093322202C0109232221092C6258981E9
:10313000843521F48BE192E20E9451282196E6E049
:103140000C94985C1F920F920FB60F92112408B640
:103150000F9218BE09B60F9219BE0BB60F921BBE86
:103160002F933F934F935F936F937F938F939F938F
:10317000AF93BF93EF93FF93109246098091DB25A5
:1031800083FF03C08EE20E94460C80914C229CE19A
:10319000899FF0011124E755FE4D9081933018F07E
:1031A0009181923010F4DCDA18C090913122933082
:1031B00049F48091DB2582FFF6CF8CEE94E00E94EB
:1031C000860CF1CF9F5F909331228F5F843019F08E
:1031D00080934C2202C010924C22FF91EF91BF913C
:1031E000AF919F918F917F916F915F914F913F919F
:1031F0002F910F900BBE0F9009BE0F9008BE0F903D
:103200000FBE0F901F901895982F9552973160F42C
:103210006A3050F0673240F421E030E0681710F077
:1032200020E030E0C901089580E090E008951F9209
:103230000F920FB60F92112408B60F9218BE09B65E
:103240000F9219BE0AB60F921ABE0BB60F921BBE92
:10325000FF920F931F932F933F934F935F936F931F
:103260007F938F939F93AF93BF93CF93DF93EF930E
:10327000FF9380913C28882321F082E080933C28B2
:1032800027C18091EB27823021F483E08093EB27E4
:103290001FC18091600990916109E4E0969587953E
:1032A000EA95E1F7182FC0914C228CE1C89FE0010C
:1032B0001124C755DE4D8881843031F41E3208F464
:1032C00007C11F3448F0A5C0853031F4173108F428
:1032D000FFC0183208F09DC00E94A20681110EC0E6
:1032E00088818450823038F461E0CE0146DA109251
:1032F00060091092610910933022EAC000913022D7
:10330000101B10932F22109260091092610988817E
:103310008450823020F460E0CE012FDAD9C0809151
:103320004C09816080934C09F880F1100DC005367E
:1033300008F0CEC0153608F0CBC0088F198F81E099
:103340008A8382E08883C4C082E0412F602FF81214
:1033500070C0CE01489637DA882301F1888D90E05D
:103360009C01220F331F280F391F200F311D359567
:10337000279535952795288F298D30E0C901880F2D
:10338000991F820F931F810F911D95958795959594
:103390008795898F8A818F5F8A839AC08A818430DA
:1033A00008F445C080EA9FE080936609909367091E
:1033B0008A818C3050F0888D298D30E0280F311DA6
:1033C0002536310524F084E027C08A3088F0888DC6
:1033D000298D30E0280F311D253231054CF485E070
:1033E000888388EE93E0809366099093670915C0FF
:1033F0008091E125882379F0612F802F05DF8823D4
:1034000051F0688D898D00DF882329F081E0809359
:10341000EB27A6D95DC083E088830A8F1B8F1982B2
:1034200087E08B831C8281E08093460951C018821B
:103430007ECFCE014A96C7D9882301F161E0CE0143
:103440009CD94A8D50E09A01220F331F240F351F5B
:10345000200F311D35952795359527952A8F2B8D72
:1034600030E0C901880F991F820F931F810F911DB2
:1034700095958795959587958B8F2AC0412F602FBD
:10348000CE014896A0D9882301F160E0CE0175D91C
:10349000488D50E09A01220F331F240F351F200F53
:1034A000311D3595279535952795288F298D30E045
:1034B000C901880F991F820F931F810F911D959548
:1034C000879595958795898F03C087E0F812A1CFDE
:1034D000FF91EF91DF91CF91BF91AF919F918F912C
:1034E0007F916F915F914F913F912F911F910F911C
:1034F000FF900F900BBE0F900ABE0F9009BE0F9069
:1035000008BE0F900FBE0F901F901895E0914C22AF
:103510008CE1E89FF0011124E755FE4D8081811177
:1035200009C081E090E020912B282F3F29F480E012
:1035300090E0089581E090E0089580E690E00E9498
:103540006E0D8093E12581E690E00E946E0D8093E0
:10355000F527882321F081E28093DB2578C908953F
:1035600020E1E0E0F6E025830C94A90620E1E0E00C
:10357000F6E026830C94A906A7E0B0E0E2ECFAE1BD
:103580000C947E5C9091ED25943559F42091EE27B2
:103590003091EF272F5F3F4F2093EE273093EF2797
:1035A0003EC0963459F42091EC273091ED272F5FDF
:1035B0003F4F2093EC273093ED2731C0953459F4D9
:1035C0002091DE253091DF252F5F3F4F2093DE25B0
:1035D0003093DF2524C09B3459F42091F12730919A
:1035E000F2272F5F3F4F2093F1273093F22717C028
:1035F000983459F42091F3273091F4272F5F3F4FEF
:103600002093F3273093F4270AC02091DC253091D2
:10361000DD252F5F3F4F2093DC253093DD2595E797
:103620009983882399F0BE016E5F7F4F8091F527C3
:103630000E94540DBE016C5F7F4F8091E1250E9476
:10364000540D85E58E8396E0D92E02C0DD24D394F7
:103650000E94B8090E94320916E080E891E080DFFC
:1036600080E093E083DF1150C1F780E093E078DFE2
:1036700080E891E07BDF80E891E072DF10E1109359
:10368000060687E390E00E94460983E090E00E94EE
:10369000C606109346068FE70E9493068091E625A2
:1036A0008D0D0E949306EE24E394F12CEC0EFD1E8A
:1036B0008701F80181918F010E949306802F8E1956
:1036C0008D15B8F306C082EE95E20E94E60F0E94C7
:1036D00093068091E6259091E725892BA1F780E15B
:1036E000809345060E94320982EE95E20E94BE0F49
:1036F00015E104C081E090E00E94C6068AE30E94C2
:10370000AC088F7711F01150A9F7A1D82796E7E000
:103710000C94975CCF93DF93EC018981811107C0F2
:103720008091E1250E94070D8091F52713C0843612
:10373000A1F48091D3259091D425A091D525B09165
:10374000D62540E364E00E94CD0C8EE20E94460C38
:103750008091EA270E94070D4DC0833709F04DC0C4
:1037600040E361E08091EE279091EF270E94CD0C1D
:103770008EE20E94460C40E361E08091EC2790913C
:10378000ED270E94CD0C8EE20E94460C40E361E0E2
:103790008091DE259091DF250E94CD0C8EE20E9463
:1037A000460C40E361E08091F1279091F2270E945E
:1037B000CD0C8EE20E94460C40E361E08091F3273D
:1037C0009091F4270E94CD0C8EE20E94460C40E3BB
:1037D00061E08091DC259091DD250E94CD0C8EE288
:1037E0000E94460C40E361E08091E8279091E92730
:1037F0000E94CD0C0E94930C2CC08936D9F441E074
:1038000061EE75E2CE0102960E940B0D6091E125FA
:1038100080E690E00E94670D41E065EF77E2CE011F
:1038200004960E940B0D6091F52781E690E00E94BE
:10383000670D0FC082EE95E20E94BE0F219604C074
:1038400082EE95E20E94C60F69916111F9CF80E086
:1038500093DEDF91CF910895A1E0B0E0E2E3FCE1D7
:103860000C947D5C8091EB27882309F493C0C09071
:10387000D325D090D425E090D525F090D62583305F
:1038800009F06EC08FE30E94AC08182F8630E8F074
:1038900083E49AE20E94BE0F80E1809346068FEF98
:1038A0000E94930680E00E949306082F08C080E0E3
:1038B0000E949306682F83E49AE20E94C60F11507B
:1038C000B1F780E18093450601C000E00E94271413
:1038D0001092EB27053709F05DC041E0BE016F5F34
:1038E0007F4F89E49AE20E940B0D0197A1F599811F
:1038F0008091E12598132FC080914D2A853581F460
:1039000006C083E49AE20E94E60F0E94460C809172
:10391000472A9091482A892BA1F70E94930C3AC01C
:103920008091472A9091482A04978093472A909340
:10393000482A84E090E08093452A9093462A6AE0E2
:1039400083E49AE20E94C60FE091CD25F091CE2546
:1039500088E019951FC083E49AE20E94BE0F1AC046
:10396000823059F49091E0258C2D891B883090F09D
:103970000E9427141092EB270DC0813059F487E381
:1039800090E00E9446090E941D0982E08093EB2787
:10399000C092E0252196E8E00C94965CB7DD882380
:1039A00061F083E08093F0278091E8279091E927E8
:1039B00001968093E8279093E9278091F027815022
:1039C0008093F027882321F083E08093EA270895ED
:1039D00081E0D2CDCF93282F80913E2090913F203F
:1039E000C0E1C0930506213071F49C01220F331F02
:1039F000820F931F0E94A906C093060680913E2065
:103A000090913F2032C0211123C00E94A906C0938B
:103A1000060680913E2090913F209C01220F331F8B
:103A2000820F931F0E94A906C093050680913E2035
:103A300090913F200E94A906C093060680913E20E7
:103A400090913F209C01220F331F820F931F22C0B1
:103A50000E94A906C093060680913E2090913F20C7
:103A60009C01220F331F820F931F0E94A906C0934F
:103A7000050680913E2090913F209C01220F331F2C
:103A8000820F931F0E94A906C093060680913E20D4
:103A900090913F200E94A906CF910895CF93DF9384
:103AA000C0E1C093410680E280930206C0934506C0
:103AB0008EE190E00E94A906C09346068EE190E058
:103AC0000E94A906C09345068DE290E00E94A906D7
:103AD00080E30E94100984E690E00E94A906C0934A
:103AE000460680E40E949306C3EFD4E0FE01849171
:103AF0000E9493062196F5E0C030DF07B9F7809168
:103B000039200E94930680913A200E94930680916A
:103B10003B200E949306C0E0D0E0FE01ED5FFA4F2B
:103B200084910E9493062196C931D105B1F780E1B5
:103B300080934506809346068EE70E9493068BE2AB
:103B400090E0EC0121960E946E0D0E949306CE013A
:103B5000C333D105B1F780E18093450683E30E942A
:103B6000100981E090E00E94C60681E08093CF2595
:103B7000DF91CF910895A0E0B0E0E1ECFDE10C947D
:103B80007B5CEC018981843769F46EE370E2CE01DD
:103B900002960E94390D40E260E080913E209091B3
:103BA0003F2012C0833709F0B6C08A81823789F47A
:103BB0006CE370E2CE0103960E94390D40E260E0B2
:103BC00080913C2090913D200E94970C0E94930C84
:103BD0000EC181E08093C6251092C525F89490917E
:103BE0004F22911116C090912323992321F08093A5
:103BF0004E221092232380912523882329F081E0EF
:103C000080934D221092252349DF83E090E00E94AB
:103C1000C60686E30E9410098AE30E9410098BE31E
:103C20000E9410090E94320900E010E06E0182E05B
:103C3000C80ED11CB0E1AB2E25C0F70181917F01E8
:103C4000803311F480E005C0813311F481E001C0BC
:103C500082E0C0DEBA9489F7A092050680913E20EA
:103C600090913F200E94A906A0920606AFE1FA2E8D
:103C700080913E2090913F200E94A906FA94C1F7BE
:103C80000F5F1F4F80913C2090913D20081719072E
:103C900020F47601FCE0BF2ED0CF80914F22882304
:103CA00041F08091DB2581110FC086E30E9410094D
:103CB00019C080914E22882351F010924E220E940A
:103CC000C92981E0809323230E941D090BC08091A4
:103CD0004D22882329F010924D220E94D12B02C040
:103CE0000E94271478941092C62589E60E94460CFB
:103CF00083E70E94460C229611E08991803309F4F3
:103D000004C0813309F401C086E40E94460C1F5FA1
:103D10001D3099F75BCF8237B9F480912323882334
:103D200029F081E080934E22109223238091252355
:103D3000882329F081E080934D2210922523AEDE66
:103D400081E080934F2253C0863651F58A818033BB
:103D500051F480E18093392080EB80933A2081E711
:103D600080933B2007C043E069E370E2CE010296F6
:103D70000E940B0D89E60E94460C86E60E94460CC6
:103D80008AE30E94460C809139200E94070D8091A1
:103D90003A200E94070D80913B200E94070D16CF0C
:103DA000883729F580914E22882341F010924E22C7
:103DB0000E94C92981E08093232311C080914D2264
:103DC000882329F010924D220E94D12B0EC082E050
:103DD00090E00E9446098091DB25882319F00E941B
:103DE0001D0903C086E30E94100910924F22CDB72F
:103DF000DEB7EAE00C94945CA2E0B0E0E2E0FFE120
:103E00000C94735C7C01FC018181833709F0BDC196
:103E1000198287E090E00E94A45C8C0141E0BE0121
:103E20006F5F7F4FC70102960E940B0D8981F801D9
:103E3000808341E0BE016F5F7F4FC70104960E94FF
:103E40000B0D2981207FF801218341E0BE016F5FC6
:103E50007F4FC70106962A830E940B0D8981F801C6
:103E6000828341E0BE016F5F7F4FC70108960E94C9
:103E70000B0D8981F801838341E0BE016F5F7F4FA5
:103E8000C7010A960E940B0D8981F801868341E0E3
:103E9000BE016F5F7F4FC7010C960E940B0D898199
:103EA000F801858341E0BE016F5F7F4FC7010E9629
:103EB0000E940B0D8981F801848380E090E02A81C3
:103EC0004191342F32953F70342783279F5F97307D
:103ED000B9F78F70822BF801818387E090E00E9410
:103EE000A45C5C0187E0F801D50101900D928A95F0
:103EF000E1F7D8011196C8010696F8013D9121918C
:103F000023272083E817F907C9F781E08093C625A6
:103F10001092C525F8949091522291116DC0909104
:103F20002323992321F080935122109223238091FF
:103F30002523882329F081E08093502210922523A5
:103F4000A0E1FA2EF092410680E280930206F09200
:103F500045068EE190E00E94A906F09246068EE1A9
:103F600090E00E94A906F09245068DE290E00E9442
:103F7000A90680E30E94100984E690E00E94A90649
:103F8000F092460680E40E949306BCE1EB2EB5E079
:103F9000FB2EF70184910E949306FFEFEF1AFF0AB0
:103FA00025E4E21625E0F206A1F780E180934506BC
:103FB000809346068EE70E9493068BE290E07C0198
:103FC000EFEFEE1AFE0A0E946E0D0E949306C701E3
:103FD00083339105A1F780E18093450683E30E9436
:103FE000100981E090E00E94C60681E08093CF2511
:103FF00083E090E00E94C60686E30E9410098AE3EF
:104000000E9410098BE30E9410090E94320970E19E
:10401000F72EF092050687EC94E20E94A906F09232
:10402000060689E590E00E94C60685E392E00E94BC
:10403000A906E12CF12CE0E15E2EF0E14F2E5DC0EF
:10404000EE2011F027E001C022E0D12C50920506AD
:1040500086EF99E02A830E94A9065092060686EF11
:1040600099E00E94A906D3942A81D2167CF340924B
:1040700005068CEF92E10E94A90640920606809107
:104080004020909141200E94A9066801312CF60140
:1040900081906F0158E0252E60E8662E712C912CDE
:1040A0009301282139218091402090914120232B98
:1040B00039F4509205060E94A9065092060606C0E1
:1040C000509206060E94A906509205068091402053
:1040D000909141200E94A906769467942A9401F752
:1040E0003394F7E03F12D3CF5092060680E090E081
:1040F0000E94A9062FEFE21AF20A8091442090E074
:10410000E816F9060CF49CCF80915222882341F0E6
:104110008091DB2581110FC086E30E94100919C030
:1041200080915122882351F0109251220E94C92976
:1041300081E0809323230E941D090BC080915022AF
:10414000882329F0109250220E94D12B02C00E9495
:10415000271478941092C62589E50E94460C83E7BF
:104160000E94460C750137E0D32EF70181917F0143
:104170000E94070DDA94C9F70E94930CC5010E94B2
:104180003F5DC8010E943F5D6FC08237A9F464E4BF
:1041900070E2C70102960E94390D89E50E94460C23
:1041A00082E70E94460C8AE30E94460C40E260E0EF
:1041B0008091442090E02CC0843779F5F70182810A
:1041C000803339F488ED94E080934220909343202B
:1041D00006C062E470E2C70102960E94390D809128
:1041E000422090914320969587958093402090930C
:1041F000412089E50E94460C84E70E94460C8AE330
:104200000E94460C40E266E080914220909143205B
:104210000E94970C0E94930C27C0883729F5809143
:104220005122882341F0109251220E94C92981E035
:104230008093232311C080915022882329F010926B
:1042400050220E94D12B0EC082E090E00E944609CD
:104250008091DB25882319F00E941D0903C086E3A5
:104260000E941009109252222296E2E10C948C5C7A
:10427000CF93DF93C0E1C093410680E280930206B2
:10428000C09345068EE190E00E94A906C0934606C1
:104290008EE190E00E94A906C09345068DE290E071
:1042A0000E94A90680E30E94100984E690E00E9423
:1042B000A906C093460680E40E949306C5E4D5E0B3
:1042C000FE0184910E9493062196F5E0CE36DF0729
:1042D000B9F780E180934506809346068EE70E94F9
:1042E00093068BE290E0EC0121960E946E0D0E94F5
:1042F0009306CE01C333D105B1F780E18093450623
:1043000083E30E94100981E090E00E94C60681E0EC
:104310008093CF2580936522DF91CF910895A0E00F
:10432000B0E0E5E9F1E20C947B5C8C018091F6272A
:10433000F801838364839DE0E92EF12C20E1A22E15
:104340000E94320985E30E94AC08833169F08EE651
:1043500095E00E94860C85E30E94AC080E94070D40
:104360000E94930C85DF4AC04091D3255091D425FB
:104370006091D5257091D6254093F7275093F82763
:104380006093F9277093FA27A09246068FE70E9460
:1043900093066801C0E0D0E08AEAB82EF601808179
:1043A0000E949306C930D10544F4F6018081B826F5
:1043B000C730D10511F4F801B0862196FFEFCF1A6E
:1043C000DF0ACF30D10551F7A0924506C8EC85E34E
:1043D0000E94AC08833131F081E0E81AF10809F05D
:1043E000AFCF07C081E090E00E94C606C15079F7C8
:1043F000F3CF8091F6278F5F8093F627CDB7DEB796
:10440000EAE00C94945CABE3B0E0E9E0F2E20C94F7
:10441000795C7C01DC010D900020E9F7AD01415091
:104420005109481B590B6C01B2E0CB0ED11CBE01E7
:10443000625D7F4FC6010E940B0D082F6BE971E290
:1044400086E490E20E94285FF7011181812F835753
:10445000823008F0DBC181E08093632287858A3453
:1044600011F489E501C08EE4809345208090D32526
:104470009090D425A090D525B090D6254091D325F5
:104480005091D4256091D5257091D6254093F7277A
:104490005093F8276093F9277093FA27809145206D
:1044A000893509F054C08BE795E00E94860C87E8B7
:1044B00095E00E94860CC7010E947B0C8EE995E076
:1044C0000E94860CD7010D900020E9F7CD010197DD
:1044D00040E260E08E199F090E94970C83EB95E003
:1044E0000E94860CF70101900020E9F73197EE1940
:1044F000FF09EE0DFF1D40E260E0808190E00E9428
:10450000970C8BEF95E00E94860C40E260E0802FD4
:1045100090E00E94970C83E496E00E94860C86E46B
:1045200096E00E94860C40E364E08091F927909128
:10453000FA270E94CD0C40E364E08091F727909128
:10454000F8270E94CD0C8DE596E00E94860CD701DD
:104550000D900020E9F75197AE15BF0509F03DC158
:1045600042E0BE01625D7F4FC6010E940B0D0297C3
:1045700009F033C17DDE0EA5B701665F7F4F45E0D0
:1045800050E0CE0101960E943D5F1E824AE050E05D
:1045900060E070E0CE0101960E94DE5D6B017C015F
:1045A00033E0F694E794D794C7943A95D1F7809185
:1045B00045208935F1F480E696E00E94860CCE0114
:1045C00001960E947B0C87E796E00E94860C8EE79E
:1045D00096E00E94860C40E364E0C7010E94CD0C87
:1045E00040E364E0C6010E94CD0C85E996E00E949C
:1045F000860C8FE0E9E1F1E2DE015F9601900D9219
:104600008A95E1F78FA588A388A989A389A98EA394
:10461000602FCE014F9683DE133709F4EEC007FFFB
:10462000ECC04091F7275091F8276091F9277091DD
:10463000FA278091D3259091D425A091D525B091CA
:10464000D62588199909AA09BB098E379105A105B4
:10465000B10548F48090D3259090D425A090D5251D
:10466000B090D625A8958091D3259091D425A0917E
:10467000D525B091D625841B950BA60BB70BC81674
:10468000D906EA06FB06A8F68090D3259090D4259B
:10469000A090D525B090D62580914520893509F088
:1046A00073C08DE996E00E94860C40E364E0C5018A
:1046B0000E94CD0C40E364E0C4010E94CD0C84EB69
:1046C00096E00E94860C8CEB96E00E94860C40E3FC
:1046D00064E08091F9279091FA270E94CD0C40E385
:1046E00064E08091F7279091F8270E94CD0C83ED2C
:1046F00096E00E94860C8BED96E00E94860C40E3CB
:1047000064E0C7010E94CD0C40E364E0C6010E9452
:10471000CD0C82EF96E00E94860C8AEF96E00E9414
:10472000860C8091D3259091D425A091D525B09168
:10473000D6254091F7275091F8276091F92770917D
:10474000FA27841B950BA60BB70B40E364E0CD0161
:104750000E94CD0C8091D3259091D425A091D52590
:10476000B091D6252091F7273091F827821B930B23
:1047700040E364E00E94CD0C81E197E00E94860C4A
:1047800089E197E00E94860C67EFCE014F96C7DD66
:104790004091F7275091F8276091F9277091FA27F7
:1047A0008091D3259091D425A091D525B091D6257F
:1047B000841B950BA60BB70B4597A105B10580F39C
:1047C00080914520893521F482E297E00E94860C91
:1047D00067EFCE014F96A3DD10C08BE297E00E94F9
:1047E000860C40E260E08EE090E00E94970C80E54D
:1047F00097E00E94860C109265228091642281309D
:1048000011F40E941D091092632239C0123789F5F4
:10481000F7018281853441F41092642286E30E947C
:10482000100984E797E022C08335F1F481E080939A
:1048300064221EDD85E897E00E94860C0E941D0917
:1048400085E30E94AC088D30D1F088E997E00E94A2
:10485000860C85E30E94AC080E94070D0E94930C11
:1048600007DD109264220BC081EB97E00E94860C5A
:1048700006C083ED97E00E94860C10926522EB96AD
:10488000ECE00C94925C109216281092142383E0B2
:10489000809315238FEF80932B280895E6E6F2E2AC
:1048A0000EC0009751F04181DC013C91431305C0DB
:1048B000428111963C914317B1F0E20FF11D208126
:1048C000211105C0892B41F0E0E0F0E00CC0B3E21B
:1048D000E431FB0730F3F6CF33E2E431F30719F0AC
:1048E00010F0E4E1F3E2CF01089594E0899FF00134
:1048F0001124E45DF74D80818F3F91F08093162362
:1049000081818093172382818093182383818093F0
:10491000192321E04CE064E086E193E20C94FA1064
:1049200008958CE193E2BADF009799F02091152366
:10493000FC013081231768F4E20FF11D8081809320
:104940001E2389E780931F2381818093202381E0A8
:10495000089580E00895EF92FF921F93CF93DF9325
:104960001F92CDB7DEB7182F8091DB2586FF18C0C8
:1049700084E599830E94460CE12E9981F92E15E079
:10498000F70181917F010E94070D1150C9F78091B5
:10499000DB2585FF03C08AEF0E94070D0E94930C60
:1049A0000F90DF91CF911F91FF90EF90089586E3D4
:1049B0000E94100980911E23833519F48BE990E041
:1049C00002C08BE490E00E94C60621E04CE065E066
:1049D0008CE193E20E94FA100E941D098CE193E29F
:1049E000BACFE5DF80911E23893631F081E08093D4
:1049F0001B2389E280932B280895CF9385E390E0D1
:104A00000E946E0D8093FC2786E390E00E946E0D5D
:104A100080932A28CFEFC0931A28C0931C28C093F4
:104A20001E28C0932028C0932228C0932428C09316
:104A30002628C093282827DF1092662281E08093E1
:104A4000FB27C0932C288FEF9FEF8093FE27909336
:104A5000FF2710920028109201281092022810922D
:104A60000328C0933028809304289093052810923F
:104A70000628109207281092082810920928C0933F
:104A8000342880930A2890930B2810920C281092B7
:104A90000D2810920E2810920F28C093382880936A
:104AA0001028909311281092122810921328109217
:104AB000142810921528CF910895ACE0B0E0E3E6F9
:104AC000F5E20C947C5C6C018C010F5F1F4F45E09C
:104AD000BE016F5F7F4FC8010E940B0D843008F04C
:104AE000F4C099819130A9F4833061F46A8185E33F
:104AF00090E00E94670D6B8186E390E00E94670D55
:104B00007CDF09C28091FC270E94070D80912A2832
:104B10009BC0923009F052C0813041F081E090E0BA
:104B20002A81213029F080E090E002C081E090E00D
:104B3000E82E80916622811104C086E098E00E94F0
:104B4000860C06E612E230C032E20636130719F090
:104B500080E20E94460CF80181810E94070DF80155
:104B600082810E94070DE11005C0F8018081080FC5
:104B7000111D1AC08AE30E94460C93E0F92E0FC063
:104B8000F3E0FF1528F4F0FE03C08CE20E94460C0F
:104B9000F801EF0DF11DF39480810E94070DF801DB
:104BA0008081F81668F3E1CFF8018081882309F449
:104BB00089C0F3E204311F0738F284C0933049F40E
:104BC00080E090E06BDE865692429EEA981B892F29
:104BD0003BC0903171F50AE118E28BE1E82E88E2E2
:104BE000F82EC12CD12CF80180818F3FA1F0DD205F
:104BF00019F080E20E94460C8C2D0E94070D8AE37A
:104C00000E94460CF80180810E94070DF701808107
:104C10000E94070DD3940E5F1F4FC394F2E0EF0E76
:104C2000F11C38E0C312DFCFD1104CC088EF97E001
:104C300047C0913161F480911828909119286DE74F
:104C400070E00E94245C862F0E94070D3BC09231C9
:104C5000C9F51CE2E12E18E2F12E0FE218E2C12C98
:104C6000D12CF70180818F3FF1F0DD2019F080E237
:104C70000E94460C8C2D0E94070D8AE30E94460C70
:104C8000F70180810E94070DF801329780810E9410
:104C9000070DF801319780810E94070DF80180818E
:104CA0000E94070DD394F4E0EF0EF11CC3940C5F47
:104CB0001F4F34E0C312D5CFD11004C08CEF97E062
:104CC0000E94860C0E94930C26C144E0BE01695FDD
:104CD0007F4FC8010E940B0D4F81493608F479C0FF
:104CE0005A85688579855C3009F04DC020E030E058
:104CF00080E090E0F901E45DF74D508154131CC051
:104D0000A181A61319C0A281A71316C02CE023838A
:104D10009C01220F331F280F391FF901EE0FFF1FCF
:104D2000E250F84D10821182F901EE0FFF1FE050A2
:104D3000F84D10821182D1C05F3FE9F4408328858D
:104D40002183298522832CE023839C01220F331F9A
:104D5000280F391FF901EE0FFF1FE250F84D1082A6
:104D60001182F901EE0FFF1FE050F84D1082118201
:104D70001092FB27B2C001962C5F3F4F20313105C6
:104D800009F0B8CFC8C080E090E020E030E0FC013E
:104D9000E45DF74DA081A41315C0A181A61312C034
:104DA000A281A7130FC05383F901EE0FFF1FE20F7B
:104DB000F31FEE0FFF1FE050F84D81E090E080837D
:104DC0009183A9C02F5F3F4F049680319105F9F67A
:104DD000A2C0E9818091FC27E817C8F190E0F0E0DB
:104DE0009C01295F3F4F2E173F078CF13A8120919C
:104DF0002A2832132CC02C812F3231F442E06CE08F
:104E0000C6010E946A1187C02C32B9F42D8120930B
:104E1000172881E090E080931828909319288091BA
:104E2000D8259091D925E4E02E9F800D911D112465
:104E30008093D8259093D9256EC0E81BF90BEE0F0F
:104E4000F0E0E65EF74D20838D81818364C080E0D1
:104E500090E024DD7C01F80101900020E9F7319712
:104E6000E01BF10BF695E795BE2EB394C7018B0DB1
:104E7000911D865692428F3A91050CF048C0F70179
:104E8000B1928F0121E01AC041E0B801F601E80FAC
:104E9000F11DCF012C870E940B0D2C85233058F07B
:104EA00020FD09C0D80111978C91843621F4F801B6
:104EB00080818093FD272F5F0F5F1F4F822F880F08
:104EC00081502B1508F3F4E1EF16F3E2FF0618F515
:104ED000F701E20FF11D10821EC022E04CE064E0F9
:104EE000CE0107960E94FA108FE08A8722E04CE0FC
:104EF00064E0CE0107960E94FA1082E08A8722E0E1
:104F00004CE064E0CE0107960E94FA1004C080E0F5
:104F100098E00E94860C2C96E9E00C94955C0F9327
:104F20001F93CF93DF939091FB2791114BC093E098
:104F3000899F80011124F801EE0FFF1FE250F84D08
:104F400094E0899FD0011124A45DB74D12969C91E5
:104F5000977046E0949F9001391B11243358359582
:104F600027953595279520833183E801CC0FDD1FE8
:104F7000CE5FD74D288139812F5F3F4F28833983FA
:104F8000000F111F0050184DF8014081518141154B
:104F9000510529F424303105A9F4A7DC11C04130B2
:104FA000510539F4A2DC82E090E0F801808391831E
:104FB00009C04230510531F498DCF80110821182A9
:104FC00018821982DF91CF911F910F910895A6E069
:104FD000B0E0EDEEF7E20C947F5C80912A288A83A2
:104FE0001B8290911728992341F0933019F487E799
:104FF00091E00CC08DE790E009C087702DE7829F9B
:10500000C0011124825B9F4895958795809318284D
:10501000909319280BE118E2F12C7CE2E72EF801BD
:10502000319790819F3FC1F08091FC278F0D89833C
:1050300080911728882311F0EC8203C09C83F8012B
:1050400080818D8321E04CE065E0CE0101960E94D5
:10505000FA10CE0101967FDCF3940E5F1F4FF8E04B
:10506000FF12DDCF80911728882341F0833019F497
:105070001092172803C08250809317282696E6E0E6
:105080000C94985C80911B23882351F090DC89E27A
:1050900080932B2880911B23815080931B2308959C
:1050A000F2CBFF920F931F93CF93DF93FC01F0801D
:1050B0000181C281D38114818FE580932B281092C6
:1050C0001B238091FC27811105C080912A28882309
:1050D00009F4ABC080911C238F1104C080911D2363
:1050E000801729F0D0DBF0921C2300931D238091C0
:1050F00016288F3F09F499C0C0931E23D0931F2315
:1051000010932023CC23F1F081111CC08091FC2747
:10511000181761F0143651F08C2F8355823010F03F
:10512000CD3739F48FEF809316287FC0C43509F44A
:105130007CC08D2F807F803609F077C0D067D093F8
:105140001F2367C0EEDB811105C0809116288823DC
:1051500009F46BC080911423811107C0E0911628D7
:10516000F0E0E651F84FE49101C0E82FE33541F457
:10517000C43531F4909116289E5F9093162804C090
:10518000EC1711F080DB51C0882309F444C08091F2
:1051900015238E5F80931523C4DB811106C0809197
:1051A00016288E5F8093162836C080911E23809328
:1051B0001423843671F58091FD278093202329C024
:1051C00010931E2397E790931F239091FC279093B1
:1051D00020238E5F80931628109214238E30B9F40A
:1051E0008CE193E25BDBDC01009781F02C9130E0F5
:1051F00084E193E2821B930B05C0ED01C20FD31F24
:1052000048814D93A817B907C0F31C923CDB1123CA
:1052100061F0E7DB0AC080911628E82FF0E0E55145
:10522000F84F14911F3F61F6C0CFCDB7DEB7E5E070
:105230000C94995C0F931F93CF93DF93EC01A82FED
:10524000BD2FFD0101900020E9F73197EA1BFB0B10
:105250008981823751F487E390E00E9446090E94D9
:105260001D0981E080933C282AC0833731F50E2F39
:1052700080E1809346068FE70E949306802F82503C
:105280000E949306229612E004C089910E94930620
:105290001F5F1017D0F380E1809345060E9432090A
:1052A00004C084E690E00E94A9068AE30E94AC084C
:1052B0008F77B9F70E941D0902C010923C28DF9138
:1052C000CF911F910F910895A0E0B2E0EAE6F9E2D4
:1052D0000C947D5C80913C28882309F456C0813071
:1052E00011F58091D3259091D425A091D525B09129
:1052F000D62520912223281709F447C085E30E9470
:10530000AC08813129F48AE30E9410090E941D092A
:105310008091D3259091D425A091D525B091D62503
:105320008093222332C08FE30E94AC08D82E80E104
:10533000809346068FEF0E9493068E010F5F1F4FEA
:105340007801C02E06C080E00E949306F701819389
:105350007F018E2D8C198D15B0F380E18093450669
:1053600081E08093A32105C0F80181918F010E9403
:10537000460C802F8C198D15B8F30E94930C8FEF7B
:105380008093A32181E080933C28DE5FE8E00C94C9
:10539000965CCF93DF93C0E1C093410680E2809397
:1053A0000206C09345068EE190E00E94A906C093D4
:1053B00046068EE190E00E94A906C09345068DE264
:1053C00090E00E94A90680E30E94100984E690E024
:1053D0000E94A906C0E0D0E0FE01EF5DF74F6491A6
:1053E000FE01E05EF74F84910E94F2082296C233DC
:1053F000D10591F780912423811108C083E30E9495
:10540000100984E090E00E94C60611C0C0E0D0E020
:10541000FE01E55FF74F6491FE01E65FF74F84916F
:105420000E94F2082296C631D10591F7E7CF84E3B6
:105430000E94100985E30E94AC088D30C1F7DF910E
:10544000CF910895A2E3B0E0E8E2FAE20C94815C27
:1054500080912323882309F4A9C00E94A2068823EF
:1054600009F48FC08FE30E94AC088F778983823361
:1054700068F08AE30E94100986E30E9410098DE318
:105480000E94100984E30E94100990C080E180937B
:1054900046068FEF0E94930610E00BC080E00E944A
:1054A0009306E2E0F0E0EC0FFD1FE10FF11D8083B9
:1054B0001F5F8981181790F380E00E949306082FE0
:1054C00080E00E94930680E18093450684E30E9479
:1054D000100985E30E94AC088D30C1F72A8196E758
:1054E00092279A8392E00CC041E050E04C0F5D1F80
:1054F000E40FF51F30812452232720839F5F232F41
:105500008981E92FF0E0981778F381E090E08C0F23
:105510009D1FE80FF91F90818B81982790838091C0
:10552000DB2584FF13C081E60E94460C10E00AC010
:10553000E1E0F0E0EC0FFD1FE10FF11D80810E9422
:10554000460C1F5F8981811798F71BC081E40E9478
:10555000460C10E00AC0E1E0F0E0EC0FFD1FE10FA7
:10556000F11D80810E94070D1F5F8981811798F7C7
:105570008091DB2585FF03C0802F0E94070D0E94CC
:10558000930C85E30E94AC08813029F0813161F4ED
:105590008AE30E94100986E30E9410098DE30E94AD
:1055A000100984E30E9410090E94FD09E296E4E0DC
:1055B0000C949A5C8F929F92AF92BF92FF920F933E
:1055C0001F93CF93DF93CDB7DEB7EA97CDBFDEBF92
:1055D00041E3BE016F5F7F4F01960E940B0D8C016E
:1055E00099270197298130E08217930709F0B4C009
:1055F00080912323811105C0CCDE83E090E00E94DE
:10560000C606FB808A8196E789278A8322E009C043
:10561000DE01A80FB91F8C91845290818927808365
:105620002F5F3981822F90E0E1E0F0E0EC0FFD1F69
:10563000E80FF91F231760F380818F258083CE0147
:10564000C7960E94CE0A85E30E94100985E30E9456
:10565000AC08833181F1CE01C3960E94CE0A4BA9DA
:105660005CA96DA97EA98FA998ADA9ADBAAD841723
:105670009507A607B70760F44A015B01881A990AE3
:10568000AA0ABB0A2DEB82169104A104B10470F49E
:10569000481759076A077B0770F484549F4FAF4F30
:1056A000BF4F84179507A607B70728F482E598E04F
:1056B0000E94860C34C085E30E94AC08833119F641
:1056C000F4FE0BC088E790E00E94C60688E790E0F1
:1056D0000E94C60688E790E002C08AE090E00E943F
:1056E000C60680E1809346068FE70E9493068824D1
:1056F0008394912C8C0E9D1E540105C0F50181915F
:105700005F010E9493068A2D88198017B8F380E103
:105710008093450685E30E94AC088331D9F385E385
:105720000E94AC08863149F48BE30E94100986E39D
:105730000E9410098DE30E94100980912323882381
:1057400049F084E30E94100985E30E94AC088D3083
:10575000C1F702C00E942714EA96CDBFDEBFDF91D9
:10576000CF911F910F91FF90BF90AF909F908F901E
:105770000895FC012181223731F0223559F481E06E
:105780008093242302C01092242303DE81E08093BF
:1057900023230895233711F401960CCF109223236D
:1057A0000895CF93DF93C0E1C093410680E28093D8
:1057B0000206C09345068EE190E00E94A906C093C0
:1057C00046068EE190E00E94A906C09345068DE250
:1057D00090E00E94A90680E30E94100984E690E010
:1057E0000E94C606C0E0D0E0FE01E45AF74F849163
:1057F000813448F083E30E94100984E090E00E9425
:10580000C606CFEF0BC0FE01E35AF74F64910E942A
:10581000F2082296CC33D10539F7ECCF84E30E940D
:1058200010098AE090E00E94A906C150B9F781E012
:1058300080932523DF91CF910895EF92FF920F93EC
:105840001F93CF93DF93EC018B01F880F3946115E4
:10585000710519F0E4E6F0E002C0E0E0F0E028E0D5
:10586000F29EC00111246AE070E00E94385C9B0146
:105870002E0F3F1FC901AA2797FDA095BA2FE091CF
:10588000D825F091D925AF0160E070E0481759079D
:105890006A077B0728F481EA98E00E94860CDDC045
:1058A000E21BF30BE093D825F093D92580912523B3
:1058B000811101C076DF85E30E94AC088D3071F064
:1058C0008AE50E94460C85E40E94460C82E50E940F
:1058D000460C82E50E94460C81E34DC080912C234A
:1058E00090912D23A0912E23B0912F23892B8A2BC9
:1058F0008B2B69F40E94320985E30E94AC08833146
:1059000009F444C02BC081E090E00E94C60680915B
:10591000D3259091D425A091D525B091D62540913D
:105920002C2350912D2360912E2370912F238417C7
:105930009507A607B70739F38091D3259091D42511
:10594000A091D525B091D6254F5F5F4F6F4F7F4F08
:1059500084179507A607B707B1F2CCCF8AE50E9456
:10596000460C85E40E94460C82E50E94460C82E5C6
:105970000E94460C82E30E94460C85E30E94AC081C
:105980000E94070D0E94930C0CDF67C0012B51F49D
:1059900080E1809346068FE70E949306EC2E0C2F41
:1059A0001D2F0FC00AE010E084E690E00E94C606BA
:1059B00001501109C9F7ECCFF80181918F010E94C4
:1059C0009306802F8E198F15B8F380E180934506DA
:1059D000C8EC85E30E94AC088D3031F485E30E9469
:1059E000AC088D3069F423C085E30E94AC08833194
:1059F000A9F781E090E00E94C606C15051F7EECFB2
:105A00008AE50E94460C85E40E94460C82E50E94CD
:105A1000460C82E50E94460C83E30E94460C85E317
:105A20000E94AC080E94070D0E94930CBADE809180
:105A30002523811102C00E9427148091D3259091C3
:105A4000D425A091D525B091D62580932C23909371
:105A50002D23A0932E23B0932F23CDB7DEB7E6E0FE
:105A60000C94985CACE0B0E0E8E3FDE20C94805C60
:105A7000FC018BE0898381818A831B8282E08C8395
:105A800087818D8380858E8381858F8384818887BC
:105A90008581898786818A871B861C8684E190E0C0
:105AA0000E94C60660E070E08E010F5F1F4FC801C4
:105AB000C4DE8AE50E94460CF12C07C0F801E80F0D
:105AC000F91F80810E94070DF3948F2D90E02981AA
:105AD00030E02817390794F78091DB2585FF03C054
