:10000000A4C50000C7C50000C5C50000C3C50000E9
:10001000C1C50000BFC50000BDC50000BBC50000D4
:10002000B9C50000B7C50000B5C50000B3C50000E4
:10003000B1C50000AFC500000C94CF09ABC50000EE
:10004000A9C50000A7C50000A5C50000A3C5000004
:10005000A1C500009FC500009DC500009BC5000014
:1000600099C5000097C5000095C5000093C5000024
:1000700091C500008FC500008DC500008BC5000034
:1000800089C5000087C5000085C5000083C5000044
:1000900081C500007FC500007DC500007BC5000054
:1000A00079C5000077C5000075C5000073C5000064
:1000B00071C500006FC500006DC500006BC5000074
:1000C00069C5000067C5000065C5000063C5000084
:1000D00061C500005FC500005DC500005BC5000094
:1000E00059C5000057C5000055C5000053C50000A4
:1000F00051C500004FC500004DC500004BC50000B4
:1001000049C5000047C5000045C500000C94F9171B
:1001100041C500003FC500003DC500003BC50000D3
:1001200039C5000037C5000035C5000033C50000E3
:1001300031C500002FC500002DC500002BC50000F3
:1001400029C5000027C5000025C500000C948417B0
:1001500021C500001FC500001DC500001BC5000013
:100160000C946E310C94BA3115C5000013C5000013
:1001700011C500000FC500000DC500000BC5000033
:1001800009C5000007C5000005C5000003C5000043
:1001900001C50000FFC40000FDC40000FBC4000056
:1001A000F9C40000F7C40000F5C40000F3C4000067
:1001B000F1C40000EFC40000EDC40000EBC4000077
:1001C000E9C40000E7C40000E5C40000E3C4000087
:1001D000E1C40000DFC40000DDC40000DBC4000097
:1001E000D9C40000D7C40000D5C40000D3C40000A7
:1001F000D1C400000C94A548CDC400000358055894
:100200001558115817581B581F582E5842585358F4
:100210005558585866585B585E58635842B30D623B
:100220003D41439C0846661069B31D6B002241B9ED
:100230002B7046315A3F2E4769104D9B104B0A11C7
:1002400055921159FB1E52A20C545A2556160E57A0
:10025000F90C58191365D60D6617296D1E2F6CA160
:100260000D743E0A756A1A785B09451B337A931C34
:10027000000000072E050DD391FF080500000C00BB
:1002800021656A2D3B1322F862073F181D1CC70029
:10029000B0876BF8B611EA2A001F41000D2E2D071A
:1002A000D3913D04320000060021656A55E43023F5
:1002B000B900070018146C070090876BF85611E915
:1002C0002A001F410000030F1E2627000000030F15
:1002D0001E2536386700030F256740605000030F66
:1002E000275188838100030F2750C8C3C20027000D
:1002F0000000000000006700000000000000500047
:100300000000000000008100000000000000C200AA
:100310000000000000203D2000202F2000504C4C09
:10032000300D0A00504C4C310D0A006E6100203D2A
:100330002000202F200043554E585F563100562094
:10034000322E36362043554C383638000E034300E3
:1003500055004C00380036003800000016036200DB
:100360007500730077006100720065002E00640064
:10037000650000000403090409028300040100C0B1
:1003800032080B000202020100090400000102020F
:1003900001000524001001042402060524060001C2
:1003A000070583030800FF09040100020A0000009A
:1003B0000705020240000507058102400005080B01
:1003C000020202020100090402000102020100050A
:1003D00024001001042402060524060203070586F2
:1003E000030800FF09040300020A000000070505D6
:1003F000024000050705840240000512011001EFCC
:10040000020108EB034E2001000102DC014C4F56B3
:10041000460D0A00424F56460D0A000001022E0307
:100420000104AA050F06FF070008000B060D210EA8
:10043000740FAD104B11F8121613721541181819DC
:10044000161B0323E9242A2500261F3E5000010223
:100450002E030104AA050F06FF070008000B060D76
:10046000210E660F6610CA11931206135215351825
:100470001819161B0323E9242A2500261F3E5000C5
:1004800001022E0301045505F006FF070008000BCA
:10049000060D210E660F9910591183121E13521565
:1004A00035181819161B0323E9242A2500261F3E98
:1004B000500D2E2D07D3913D04320000060010B0E0
:1004C0007155E43023B900070018146C07009087B9
:1004D0006BF85611E92A001F41000D2E2D07D3910C
:1004E0003D04320000060010ABA5550A3023B900C8
:1004F000070018146C070090876BF85611E92A0062
:100500001F4100012E4604AA540FE000000006001F
:1005100021656A97831663B947070C29366C074033
:1005200091876BF85611E92A001F410054585F4922
:100530004E49545F4552525F005472616E736D694B
:1005400074740D0A00636F6D6D616E646C696E6525
:10055000706172616D657465723A20000D0A5374A2
:1005600072696E676C656E6774683A20202020207F
:10057000000D0A4E6578742043686172616374658A
:10058000722028696E74292061667465722070611A
:1005900072616D65746572202873686F756C642074
:1005A0006265206C696E6520656E642063686172A7
:1005B0006163746572293A20000D0A416D6F756E92
:1005C00074206F6620427974657320284865782905
:1005D00020666F756E6420696E7369646520636F51
:1005E0006D6D616E64206C696E6520706172616D05
:1005F000657465723A2020202020202020202020B1
:10060000000D0A005469636B2054696D65723A20CD
:1006100020202020202020202020000D0A004B65D3
:10062000794F666654696D653A202020202020208D
:1006300020202020006D7365630D0A004B65794F03
:10064000666654696D6520696E207469636B733AE0
:100650002020005B6865785D0D0A005469636B209B
:1006600054696D65723A202020202020202020200F
:1006700020005B6865785D0D0A00426C6F636B203B
:1006800053746172742054696D653A2020202020D3
:10069000005B6865785D0D0A004B65794F666654AE
:1006A000696D653A20202020202020202020200075
:1006B0005B6865785D0D0A007469636B732D426C2D
:1006C0006F636B537461727454696D653A20005B9B
:1006D0006865785D0D0A00426C6F636B320D0A002D
:1006E000426C6F636B330D0A004B6F707020547255
:1006F000616E736D69747420436F6D6D616E6420FB
:100700006E6F7420657175616C20746F20002042DB
:1007100079746573206F72204B6579636F6465200F
:100720006973206E6F206865782076616C75650D41
:100730000A006B72452D52656365697665456E6486
:100740000D0A006B72532D526563656976655374AB
:100750006172740D0A0052585F494E49545F455208
:10076000525F4D41524353544154455F5258004BE0
:100770006F707020526563656976652053756243BA
:100780006F6D6D616E6420556E6B6E6F776E0D0AC6
:10079000004B6F707020436F6D6D616E6420556EFD
:1007A0006B6E6F776E0D0A0000535300547D7DFF12
:1007B000FF4B4B7E7E004E2F41004E2F4100454F98
:1007C000420D0A004E2F41000B08105B11F815472F
:1007D000191D1A1C1BC71C001DB221B623EA0007F5
:1007E000022E030D04E905CA070C0B060D210E6548
:1007F0000F6A10C8119312031534173318181916FD
:100800001B4321562500261129592C812D353EC325
:100810004552523A4343410D0A000007024604C6BE
:1008200005260B0610C81193120313221534173F27
:10083000182819161B432156250026110D210E6577
:100840000F6A070C160720F81E871F6B29592C8189
:100850002D353EC3FF004C454E4552520D0A004C0B
:100860004F56460D0A004C454E4552520D0A003F68
:1008700020280020697320756E6B6E6F776E2920BB
:10088000557365206F6E65206F6600313A00203F1A
:100890000057495A4348495020496E697469616C50
:1008A000697A6564206661696C2E0057495A43482D
:1008B000495020496E697469616C697A6564207376
:1008C0007563636573732E00556E6B6E6F776E2064
:1008D000504859204C696E6B207374617574732E87
:1008E0000D0A00504859204C696E6B207374617476
:1008F00075733A20004F4646004F4E0025643A4D2E
:1009000051545420496E69740D0A0025643A4D51C2
:100910005454206D73675F636F6E6E6563742066F9
:1009200061696C6564206275696C64696E670D0A43
:100930000025643A4D5154542053656E64696E67C6
:1009400020636F6E6E656374206D73670D0A0072AD
:10095000656365697665642025640D0A0025643A3F
:100960004D51545420434F4E4E204E41434B0D0A9F
:100970000025643A4D5154542041434B0D0A002543
:100980006420627974657320543A20256420513ABA
:100990002025642049443A2025640D0A003E257331
:1009A000202F2F2025730D0A0025643A4D515454F1
:1009B00020436F6E6E65637465640D0A0025643AAA
:1009C000436C6F7365576169740D0A0025643A437F
:1009D0006C6F7365640D0A0025643A4F70656E652F
:1009E000640D0A0025643A436F6E6E65637420657A
:1009F00072726F720D0A0025643A436F6E6E656302
:100A000074696E672E2E2E0D0A0025643A537461A8
:100A100074653A2025640D0A006D7174743A207370
:100A2000656E64696E67207075626C6973682E2EDE
:100A30002E0D0A0025643A4D515454206D736720E1
:100A40006661696C656420746F206275696C6469A5
:100A50006E670D0A006D7174743A2073656E646977
:100A60006E672073756273637269626520666F7268
:100A7000202573202E2E2E0D0A0025643A4D515448
:100A800054206D7367206661696C656420746F2003
:100A90006275696C64696E670D0A000476059617C5
:100AA00000000602000B080C000D210E650F6A10F5
:100AB0006A114A1206132214F80A00154721B622B9
:100AC000101818192E1A6D1B041C091DB223EA24D4
:100AD0002A2500261F29592C812D352E09070408A7
:100AE00000090006FF3EC2FF0454053D1700000642
:100AF00002000B080C000D210E6B0FD0105C1104CE
:100B00001206132214F80A00154421B622101818F0
:100B1000192E1ABF1B431C091DB523EA242A2500E0
:100B2000261F29592C812D352E090704080009009C
:100B300006FF3EC2FF534D4F444500544D4F4445C0
:100B4000004F4646004F4646000011241FBECFEF1F
:100B5000DFE3DEBFCDBF00E00CBF18BE19BE1ABE7A
:100B60001BBE13E2A0E0B0E2E6EFFEEC00E00BBF3C
:100B700002C007900D92A030B107D9F71BBE2CE33D
:100B8000A0E0B3E201C01D92A435B207E1F7F0D1B5
:100B90000C94796735CA809150008460809350002E
:100BA0008091510082FFFCCF809150008160809342
:100BB00050008091510080FFFCCF809156008093BF
:100BC000560081EA80936D0087E080936E0081E09B
:100BD0008093680088E18093550080915000806187
:100BE000809350008091510084FFFCCF8091500091
:100BF0008260809350008091510081FFFCCF8091F2
:100C000056008093560082E1809365008AE78093C6
:100C1000660021E0209360003FB7F89488ED90E0F3
:100C2000A0E4B0E01BBEFD0184BF20833FBF8FE383
:100C30009FE10197F1F700C000008091400087E03C
:100C40008093A20088ED84BF83E28093800080912E
:100C5000820080FDFCCF089581E08CBFE0910020F0
:100C6000F0910120199508958091780083FF0FC0BD
:100C700083E390E04ED6882351F08091780088601D
:100C80008093780060E083E390E03CD6E5CF089560
:100C9000E0E4F6E080E18183858380EB818380E47A
:100CA000828381E58093C00808958093C308809172
:100CB000C20887FFFCCF8091C3080895E0E0F6E00A
:100CC0008085829581700895E0E0F6E0808585FB5F
:100CD000882780F908951092000A1092010A8093E3
:100CE000260A9093270A1092200A1092210A8091D6
:100CF0000C0A816080930C0A88E08093000A80913E
:100D00000C0A80FD02C0A895FACF1092000A08953F
:100D1000CF93DF93EC018134910560F488EE93E08A
:100D20009C01C29FC001C39F900DD29F900D1124C2
:100D3000D2DF05C088EE93E0CEDF2197D9F7DF91AF
:100D4000CF910895E0E0F8E010A211A228E02083FE
:100D50008FE39FE186A397A3118281E08683E0E47D
:100D6000F8E010A211A280838FE190E086A397A300
:100D700088EC80938001E0E4F9E010A211A22083C6
:100D800080E593EC86A397A3168208950895CF92E9
:100D9000DF92EF92FF92CF93DF93EC016A017B0128
:100DA000CB01BA01969587957795679560587B47F3
:100DB000814E9F4FA70196010E94BA6021503109D0
:100DC0003F832E8383E08D8388E18C83C1148BE481
:100DD000D806E104F10409F494C0D8F580E6C816F9
:100DE00089E0D806E104F10409F47BC0C8F488E581
:100DF000C81682E0D806E104F10409F4A6C080EB2D
:100E0000C81684E0D806E104F10409F467C08CE256
:100E1000C81681E0D806E104F10409F09EC05BC069
:100E200080E8C81685E2D806E104F10409F461C03F
:100E300080E4C81688E3D806E104F10409F45DC033
:100E400080ECC81682E1D806E104F10409F085C0FF
:100E50004CC0C11481EED806E104F10409F461C06C
:100E6000C0F4C11486E9D806E104F10409F451C0C4
:100E70008DE3C81686E9D806E104F10409F44DC0F3
:100E800080E8C81680E7D806E104F10409F065C0DF
:100E90003CC0C11482ECD80681E0E806F10409F4F4
:100EA00048C048F4C1148CE2D80681E0E806F10499
:100EB00009F053C03AC0C11484E8D80683E0E806BC
:100EC000F104D9F1C11488E0D80687E0E806F104FE
:100ED00009F043C036C08FEC90E009C08CE090E090
:100EE00036C08CE090E026E033C08CE090E025E056
:100EF0002FC08CE090E024E02BC08AE890E020E056
:100F000027C08CE090E023E023C089E890E02FEF39
:100F10001FC08CE090E022E01BC08AED9CE02AEF2D
:100F200017C087E890E02EEF13C08CE090E021E03E
:100F30000FC083E890E02DEF0BC08BE790E02CEF23
:100F400007C08BE690E02BEF03C089E190E027E03B
:100F50008E832295207F292B2F83DF91CF91FF90C5
:100F6000EF90DF90CF90089585D380E090E00895D2
:100F70007BDE11DE0BDFE6DE60E070E084EB97E005
:100F80000E94C363C4E0C093810682DE3CD60E9407
:100F9000513D94D60E9459320E94873078940E9425
:100FA000FA240E94F01287EB9EE280936A259093C8
:100FB0006B250E947F198DE080930323C0938606E2
:100FC00018D07FD60E9456350E94FA146DD20E9426
:100FD00061290E940C1B0E94222A0E94C22D0E949D
:100FE0002F3F0E943E310E94D13A0E94291C02D01C
:100FF000E8CF08950895A1E0B0E0E1E0F8E00C94B6
:10100000EE60482F8A3008F048E088E0489F700181
:101010001124E5ECF2E0EE0EFF1E8BE290E0F7010A
:1010200064918C010F5F1F4F49836CD4FFEFEF1A5F
:10103000FF0AC80149810333110589F7455045303E
:1010400010F461E101C067E184E290E05BD4219695
:10105000E6E00C940761CF93DF9382E090E0FC011F
:10106000E656FD4F6491EC0121964CD4CE01CB3273
:10107000D105A9F787E390E0FC01E45CFD4F6491A2
:10108000EC0121963FD4CE01C036D105A9F788E006
:10109000B2DFDF91CF9108951F93CF93DF93C0E428
:1010A000D6E010E11E83806C00DE80E0FEDD1D8353
:1010B000DF91CF911F910895EF92FF921F93CF93ED
:1010C000DF931F92CDB7DEB790E4E92E96E0F92EBC
:1010D00010E1F701168380646983E7DD6981862F5B
:1010E000E4DDF70115830F90DF91CF911F91FF9001
:1010F000EF9008951F93CF93DF93C0E4D6E010E103
:101100001E83D3DD1D83DF91CF911F910895CF936F
:10111000CFEF09C08AE090E0DEDDC11104C080E2BB
:1011200080930B0607C084E3E5DFC15080778031F0
:1011300089F7F5CFCF910895A2E0B0E0E2EAF8E0B8
:101140000C94F0608C01FC0181818737E9F441E067
:10115000BE016F5F7F4FC801029651D3892BA1F06A
:1011600041E0BE016E5F7F4FC801049648D3892BD2
:1011700059F06A818981A0DF83E3BCDFC8DF898100
:101180003AD38A8138D32CC041E0BE016E5F7F4FD5
:10119000C801019634D3892B21F18A81893969F4F8
:1011A00010E0812F79DF27D3812F8770873009F4F2
:1011B000AED21F5F1033A9F714C06EDF182F83E47F
:1011C00059D28A8118D385E193E094D2812F13D329
:1011D00089E193E08FD240E262E0812F90E09BD2E0
:1011E00096D22296E4E00C940961CF9310920B06FC
:1011F00086E380DFCFEF05C08AE090E06CDDCC2392
:1012000031F085E377DFC15080778032A9F7CF9145
:101210000895EF92FF920F931F93CF93DF93EC010A
:101220001092862410E11093410610920B06109341
:1012300045068EE190E04FDD109346068EE190E08A
:101240004ADD109345068DE290E045DD80E352DFF4
:1012500084E690E05DDD1093460680E426DD8E0195
:10126000075D1F4F7E018FEFE81AF80ACE0151D3B8
:101270001CDDE701E016F106A9F780E18093450641
:10128000809346068EE711DD8BE290E0EC0121961B
:1012900040D30BDDCE01C333D105C1F780E180938C
:1012A000450683E327DF81E090E032DDCDB7DEB78E
:1012B000E6E00C940761A1E0B0E0E1E6F9E00C940F
:1012C000F26022E0298341E0BE016F5F7F4F01960B
:1012D00096D2898190DE82E090E09BDF2196E2E069
:1012E0000C940B6186E306DF10926C251092842427
:1012F00010928624089582E090E08BDF81E0809355
:101300006C25109284241092862408951F93CF9305
:10131000DF93D82F162FC0E085E3BEDE8D1739F09E
:10132000812F90E0D8DCC150B9F781E001C080E0A6
:10133000DF91CF911F91089585E2AEDE8F3311F0DA
:1013400080E0089586E3D6DE80910023811104C0F9
:101350008DE193E0CFD102C08DE3CCDE83E3CADE22
:1013600064E081E0D3DF85E297DE8F3349F7809137
:101370000023811103C084E293E0BCD181E0089591
:1013800085E38ADE8D3051F485E286DE8F3331F4D9
:10139000D3DF84E3AFDE80778031D9F708951F92E1
:1013A0000F920FB60F92112408B60F9218BE09B60D
:1013B0000F9219BE0BB60F921BBE8F939F93AF93E4
:1013C000BF93EF93FF9380916E2590916F25A0912D
:1013D0007025B09171250196A11DB11D80936E25D8
:1013E00090936F25A0937025B093712580916D2502
:1013F0008F5F80936D25EFE5F6E28081918118166D
:1014000019061CF4019780839183369686E2E737AC
:10141000F80799F78091792690917A26009729F01C
:1014200001978093792690937A2680918C268F3F1E
:1014300019F0815080938C26FF91EF91BF91AF916D
:101440009F918F910F900BBE0F9009BE0F9008BE19
:101450000F900FBE0F901F9018952FB7F8944091E2
:101460006E2550916F256091702570917125FC015A
:1014700040835183628373832FBF0895A4E0B0E05B
:10148000E4E4FAE00C94F260CE010196E6DF8C8190
:10149000B2D18B81B0D18A81AED18981ACD137D123
:1014A0002496E2E00C940B611F93CF93DF9380911D
:1014B0006E2590916F25A0917025B0917125209196
:1014C0000123281709F460C080916E2590916F2543
:1014D000A0917025B091712580930123A895CFE547
:1014E000D6E210E028813981232B19F4812F0E9444
:1014F0008C271F5F26961430A9F78091792690914A
:101500007A26892B11F40E94E42780918C26811180
:1015100002C00E943F2880910126882339F0815023
:1015200080930126811102C00E94A51B80916D2528
:101530008D3750F110926D250E94476080910220F6
:1015400081FF03C084E0809387068091722590918B
:101550007325843823E0920728F40196809372253E
:1015600090937325809102238F5F809302238C33A5
:1015700059F41092022380915E268F5F80935E263D
:101580008C3310F010925E26DF91CF911F91089559
:10159000CF93DF93FC018381843509F068C080819B
:1015A00020E030E0422F435F481750F050E090E0D9
:1015B0009C012F5031094217530709F058C00AC047
:1015C0002F5F3F4FDF01A20FB31F1F969C919B33EC
:1015D00049F7ECCFAC014E5051094E0F5F1FDA01B5
:1015E00013962C91243509F042C0DC011B97AE0FF5
:1015F000BF1F348111962C911197321338C0358159
:1016000012962C911297321332C0368113962C9178
:10161000139732132CC0378114962C9114973213E0
:1016200026C0419715962C9115978E0F9F1FEC01A0
:101630002B8316968C911697EA01898319968C91C3
:1016400019978A831A968C911A978B831B968C9183
:101650001B978C831C968C911C978D831D968C9167
:101660008E8380818A50808382818A508283DF9139
:10167000CF910895CF93C82F8091032382FF04C098
:101680006C2F8CEB92E37CD380911A38843041F438
:101690008091032380FF04C06C2F8EE996E270D303
:1016A00080910C268823C9F08091032383FF15C005
:1016B000CA3099F0CD3011F46BE301C06C2F8CE788
:1016C00095E25ED3CD3019F48CE795E261DF83E0DB
:1016D0008093012682E080930726CF910895CF93CF
:1016E000DF93EC0101C0C6DF89918111FCCFDF914E
:1016F000CF910895CF93DF93EC0102C0BBDF219619
:10170000FE0184918111FACFDF91CF9108958DE090
:10171000B1DF8AE0AFCFA6E0B0E0E1E9FBE00C94F6
:10172000F060062F1E8215E02AE030E01150E1E063
:10173000F0E0EC0FFD1FE10FF11DB9010E94936075
:10174000805D8083CB010150009759F01111EECFDD
:1017500008C01150E1E0F0E0EC0FFD1FE10FF11DBA
:101760004083015007FD02C01111F3CF81E090E0EA
:101770008C0F9D1F810F911DB2DF2696E4E00C9423
:101780000961A5E0B0E0E7ECFBE00C94F2601D829B
:1017900024E0382F3F702150E22FF0E03A3010F46F
:1017A000305D01C0395CA1E0B0E0AC0FBD1FEA0FB5
:1017B000FB1F308334E0969587953A95E1F76150A9
:1017C000009739F708C02150E1E0F0E0EC0FFD1F71
:1017D000E20FF11D4083615067FD02C02111F3CF7C
:1017E00081E090E08C0F9D1F820F911D78DF259680
:1017F000E2E00C940B6140E362E090E0C2CFFB01B9
:1018000022C0213608F02052A22FA053AA3010F493
:101810002A2F05C0A22FA154A63018F42753232B3A
:1018200005C0203291F02A3381F005C0552331F0F4
:101830002193415041F4E61BF70B0DC0322F329536
:10184000307F51E002C050E030E0DC012D91CD014D
:101850002111D7CFF0CFCF010895FB0114C0532F32
:1018600050535A3040F45AE0259F300D1124232F55
:10187000205351E00CC0303211F03E3289F4442341
:1018800029F02193415050E020E001C050E0DC01FC
:101890003D91CD013111E3CF552311F04111219339
:1018A000E61BF70BCF01089520E030E05AE00EC0B0
:1018B000E42FE053EA3050F4F9015E9F90015F9FFE
:1018C000300D112420533109240F311DFC014191A9
:1018D000CF014111EDCFFB01208331830895982F73
:1018E00092959F709A3010F4905D01C0995CFB0155
:1018F00090838F708A3010F4805D01C0895CFB0199
:10190000818308950E9472668091CF0187FDFCCF8C
:1019100008950C94626608951F93CF93DF930AC0D5
:10192000EC012196F6DF67DF112311F08AE3A2DED6
:10193000612FCE01162F11506111F2CFDF91CF919F
:101940001F910895A3E0B0E0E8EAFCE00C94F06099
:10195000FC018181883789F482818823D9F0BE0116
:101960006D5F7F4F0E946B3D811103C08B8143DF10
:101970003BC08BE293E0BEDE37C08D3421F466E0DD
:101980008AEF97E005C0803529F460E18AED97E0A1
:10199000C3DF2AC01A82198242E0BE016F5F7F4F07
:1019A000CF0101962CDF8B839981823029F4192F86
:1019B00000E08A81082B02C0092F10E0C801A9DFCE
:1019C0008B8382E557DE40E364E0C801DADE8EE215
:1019D00093E090DE8B810FDF82E393E08BDE40E2C9
:1019E00062E08B8190E097DE92DE2396E4E00C9437
:1019F0000961A6E0B0E0EFEFFCE00C94EC608C0134
:101A0000FC0181818837D9F48281882309F456C08A
:101A10008381882309F452C08481882309F44EC04D
:101A200041E0BE016F5F7F4FC8010396E8DE41E0F1
:101A300050E0BE016F5F7F4FF80182817CC0893624
:101A400009F03CC0F80182818D3651F446E0BE01B8
:101A50006F5F7F4FC8010396D2DE82E046E067C029
:101A6000843649F4BE016F5F7F4FC80103961CDFC7
:101A700083E041E05CC0813649F444E0BE016F5F21
:101A80007F4FC8010396E9DE84E016C08E3649F424
:101A900044E0BE016F5F7F4FC8010396DEDE85E044
:101AA0000BC0873609F049C044E0BE016F5F7F4F2D
:101AB000C8010396D2DE86E044E039C043E0BE01AF
:101AC0006F5F7F4FC80101969ADE8230B0F12981A5
:101AD000823019F4C22ED12C04C0D22EC12C2A81FE
:101AE000C22A7C01FF24FE01EE0DFF1D6081C601AC
:101AF00009DFEE0CFF1CFFEFEF1AFF0AE00EF11EEC
:101B000011C041E0BE016F5F7F4FC70178DE892BB6
:101B1000A1F08FEFC81AD80A6981C601F3DEE2E0AE
:101B2000EE0EF11CF70180818111EBCF06C050E071
:101B3000BE016F5F7F4F0E949A3D2696E8E00C94AD
:101B4000056141E062E070E2019659DE6091022099
:101B500084E060FF03C08093850602C08093860600
:101B600084E390E0CFCEA1E0B0E0E9EBFDE00C949F
:101B7000F2601982009731F041E0BE016F5F7F4F44
:101B800001963DDE89818F3F09F4FFCF882321F044
:101B900061E083E390E0B6DEF89493E088ED08B668
:101BA00084BF90938000A89508BEFFCFCF93DF93AA
:101BB000EC0162E080E090E0A5DE62E481E090E08C
:101BC000A1DE49DA60E080E690E09CDE60E081E63C
:101BD00090E098DE60E083E390E094DE62E084E3EE
:101BE00090E090DE60E080E690E08CDE60E081E6F0
:101BF00090E088DE8981883719F080E090E0B3DFDB
:101C0000DF91CF91089580E090E083DE823029F467
:101C100081E090E07EDE823419F080E090E0C6DF63
:101C200084E390E076DE809302200895FC018181B8
:101C3000883419F486E393E002C08EE393E05ADD22
:101C400066CDCF931FC08EE190E20E94D24997FFEC
:101C500015C081E29EE08093682590936925E0910C
:101C60006A25F0916B2581E0199580911F200E94D3
:101C700098468091A0268823F9F009C0682F81E258
:101C800097E27ED08091232787FFDDCFE2CF0E94AD
:101C9000374781110AC010C08EE996E287D0682FBD
:101CA0008EE190E20E94414901C0C1E48091A026EA
:101CB000882311F0C15081F7CF9108950C946D489D
:101CC0000895BFDF8EE190E20E94B94983E090E27F
:101CD0000E94B9490C945445089508958EE190E20C
:101CE0000E941D4983E090E20C941D498EE190E230
:101CF0000E94294A83E090E20C94294A292F332735
:101D00002230310539F02330310549F021303105D9
:101D100021F128C0E3E8F0E088E793E027C09927A5
:101D20008130910561F08230910581F0892BD1F4E9
:101D3000E4E7F3E0E491F0E084E793E017C0ECE53A
:101D4000F3E0E491F0E08CE593E010C0ECE4F3E024
:101D5000E491F0E08CE493E009C0E2E1F0E08BEF85
:101D600093E004C0E0E0F0E080E090E0DA018D93E1
:101D70009C93CF010895FC01128210821182089574
:101D8000FC018FB7F894928197FD0EC09F5F9283FC
:101D90009081DF01A90FB11D13966C939F5F90385E
:101DA00011F0908301C010828FBF0895FC019FB78E
:101DB000F8948281811101C00EC0815082832181FB
:101DC000DF01A20FB11D13968C912F5F203811F007
:101DD000218301C011829FBF0895FA0130818823B9
:101DE00069F0DB01A30FB11DE1E0F0E0022E01C0BC
:101DF000EE0F0A94EAF79C919E2B9C93222319F0F4
:101E0000822F81500BC0832F8F5F8C3010F4FA012A
:101E10008083FB01E80FF11D108287E090E00895B8
:101E2000CF93C82F80E180930506CC2319F08091D1
:101E3000082302C08091062320E1829FC001112463
:101E40000E946B0680E180930606CC2319F08091F6
:101E5000072302C08091052320E1829FC001112445
:101E60000E946B06CF910895A6E0B0E0EAE3FFE0A0
:101E70000C94E2606C016983942EA22EEA82842F76
:101E800090E08D839E832091722530917325029678
:101E9000089F802D1124992787FD909528173907D1
:101EA00020F48DE094E026DC84C0281B390B2093BD
:101EB00072253093732584E0809385068091862473
:101EC000882339F01092862482EF91E2B2D311E098
:101ED00001C010E080916C25811101C00CDA85D918
:101EE000F981EF2FF0E0EB83FC83EE24E394F12CF7
:101EF000B12CC601890D911D97FC9A954C01612C5E
:101F0000712C05C080E08CDF9FEF691A790AEB81A4
:101F1000FC816E167F06B4F3F981FF2311F081E096
:101F20007FDF412C512C17C097E0292E312C360130
:101F3000640C751CC701022C01C0880F0A94EAF7D3
:101F4000F301908189236CDFF1E02F1A310890F7BB
:101F50009FEF491A590AED81FE814E165F0624F360
:101F600087E0682E712C0DC0C701062C01C0880FB8
:101F70000A94EAF7F4019081892352DFF1E06F1AA5
:101F80007108A614B70484F38A8190E00E94880641
:101F9000015009F0B4CF80917525882311F0B7D88E
:101FA00002C086E3A7D811110E94D12B84E0809350
:101FB00086062696E2E10C94FB60ADE0B0E0E3EE2D
:101FC000FFE00C94E5607C01162F842F022F67013F
:101FD000C60ED11C462FB70141D3D6018C931F5F8B
:101FE0001D8619825E2C670127E088248394912C3A
:101FF00032C047E0A42EB12C3701680E711CF401E9
:102000000A2C01C0EE0F0A94EAF7D3018C91AE01BD
:10201000435F5F4FBE016F5F7F4F8E23DEDE282F51
:10202000B1E0AB1AB10858F7D601ED916D010E2E53
:10203000E295E0250E2EE695E695E025F0E0319656
:10204000E1FB882780F9AE01435F5F4FBE016F5F00
:102050007F4FC3DE282F8C2D8519811708F4C9CF37
:10206000222311F0215004C08D858F5F8D8727E0DA
:1020700089E1809305238093062385E280930723DB
:10208000809308233AE0E32E4D856CE0CE01019663
:10209000EBDE2D96EFE00C94FE60ADE0B0E0E3E502
:1020A000F0E10C94F160162F242F4BE0BE016F5F1E
:1020B0007F4F01962D87A3DB2D85412F682FCE0101
:1020C00001967BDF2D96E3E00C940A6143E066E025
:1020D000E4CFEF920F93CF93DF93CDB7DEB7609746
:1020E000CDBFDEBF40E1BE016F5F7F4F019687DB52
:1020F00069814A810B818C81809306238D81809335
:1021000005238E81809308238F8180930723E02EFF
:10211000E2947FE0E7220F70242F2F7042954F70DA
:10212000CE010896A1DE6096CDBFDEBFDF91CF91D4
:102130000F91EF900895A9E1B0E0E1EAF0E10C948D
:10214000EA604BE0BE016F5F7F4F019658DB182FAE
:10215000893009F05BC099E19093052390930623A1
:102160009093082382E38093072369E0CE010196D0
:102170007FD2E1E0F0E0EC0FFD1FE10FF11D808365
:10218000198E1D868E010F5F1F4F6E018BE0C80EEA
:10219000D11C27E0AA24A394B12C25C0E12CF12C5A
:1021A000F5010E2C01C0EE0F0A94EAF7D8018C91CC
:1021B000AE01475E5F4FBE01635F7F4F8E230DDE32
:1021C000282FBFEFEB1AFB0A88E0E816F10441F76D
:1021D000AE01475E5F4FBE01635F7F4F81E0FDDD73
:1021E000282F0F5F1F4F0C151D05C1F6222311F07C
:1021F000215004C0898D8F5F898F27E0EAE0EE2EA1
:1022000003E0498D6CE0CE010D962EDE6996EAE082
:102210000C940361A9E1B0E0E0E1F1E10C94E56028
:102220004BE08E010F5F1F4FB8010196E8DAF82EE0
:10223000582E85E38093062396E19093052390938F
:102240000823809307236F2DC8011ED2F801EF0DDC
:10225000F11D80835394198E1D86780127E0AA24EE
:10226000A394B12C48014DC0C12CD12C3401680E6F
:10227000711CF5010C2C01C0EE0F0A94EAF7D30192
:102280008C91AE01475E5F4FBE01635F7F4F8E232F
:10229000A4DD282FBFEFCB1ADB0A84E0C816D104D7
:1022A00041F7AE01475E5F4FBE01635F7F4F81E044
:1022B00094DD282FB4E0CB2ED12CF5010C2C01C0DD
:1022C000EE0F0A94EAF7D7018C91AE01475E5F4F9B
:1022D000BE01635F7F4F8E2380DD282FBFEFCB1AB7
:1022E000DB0A88E0C816D10441F7AE01475E5F4FB4
:1022F000BE01635F7F4F81E070DD282FAFEFEA1AE8
:10230000FA0A8E2D801B851508F4AECFAAE0EA2EBE
:1023100003E0498D6AE0CE010D96A6DD6996EFE0F7
:102320000C94FE60EF920F93CF93DF9300D01F9237
:10233000CDB7DEB743E0BE016F5F7F4F01965FDA36
:102340008AE68093062394E29093052391E290938A
:1023500008238093072380E88C839FE0E92E03E025
:1023600026E043E060E0CE0101967EDD2496CDBFFD
:10237000DEBFDF91CF910F91EF9008956F927F9222
:102380008F929F92BF92CF92DF92FF920F931F93F3
:10239000CF93DF93A62F1092792310927A23FC011A
:1023A0006181660F660F660F2381621B695F109261
:1023B0007B23F12C70E047E0F7E0DF2EC12C20E01A
:1023C00007E010E0C1E0D0E07DC0FC01EC0DF11DA4
:1023D000248130E00D2C02C0359527950A94E2F750
:1023E00021703327522FDD2011F0DA9403C0C394FB
:1023F000E7E0DE2EAB3491F4433009F081C0F110F8
:1024000007C051115CC01092792370937A2376C073
:10241000F12C79C0AB3409F050C03CC04F3F41F5BE
:10242000A634B9F4E72FF0E0E558FC4D4081042EC6
:1024300042954025042E46954695402550E04F5F35
:102440005F4F41FB882480F8912C8216930641F05F
:1024500004C0A53429F4511103C0F0927923D5CFDB
:102460007F5FE72FF0E0E558FC4D108247E029C080
:10247000552319F1A63459F4E72FF0E0E558FC4D47
:102480009E01042E01C0220F0A94EAF713C0A5345E
:1024900009F0C0CFE72FF0E0E558FC4D9801241B70
:1024A000310947FD33953E0102C0660C771C2A9521
:1024B000E2F793013081322B3083415002C0FF2478
:1024C000F3942B2DB22EB394261708F47ECFF092FE
:1024D000792370937A236B1588F4A53419F44F3F50
:1024E00009F404C080917923882319F07F5F7093E9
:1024F0007A2381E090917A23911108C080E006C090
:102500004F3F09F4A8CF5111C5CFD7CFDF91CF915D
:102510001F910F91FF90DF90CF90BF909F908F9071
:102520007F906F900895E0E4F9E01682E091AC238B
:102530008CE1E89FF0011124E75FFC4D10820895C3
:10254000FC012181243108F0EECF662389F0DC0103
:10255000A20FB11D81E090E0038002C0880F991F97
:102560000A94E2F714969C911497982B14969C93D6
:102570008381882319F081508383089587E08383C2
:102580002F5F2183E20FF11D14820895DC01119663
:102590002C91119730E050E0F901E41BF50B8C9180
:1025A000EC30F105DCF4E53FFF4FC4F090E070E063
:1025B000FC01E61BF70BEC30F10584F4E53FFF4F1F
:1025C0006CF0280F391F640F751F261B370B2C303A
:1025D000310524F481E0253F3F4F0CF480E008955D
:1025E000E0E0F6E080E18183868380E28283158AE1
:1025F00081858C60818782EC91E080937225909335
:102600007325109225231092412310925D2310927E
:102610006C25089580912B2581110AC08091752524
:10262000882321F00E947B090C9487080C9472097E
:102630000895FC01218121110BC080917525DBD803
:1026400040E265E0809172259091732564D85FC85F
:1026500041E065E775E20196D2D8DCCF06C0415073
:10266000FB01E40FF11D9081890F4111F8CF08950E
:1026700020E006C06150FC01E60FF11D30812327E8
:102680006111F8CF822F0895A091792340E035E0C1
:1026900020E012C06150FC01E60FF11D5081752F42
:1026A00072957F702727370FAA2311F0442319F062
:1026B0005F702527350F4F5F6111ECCF320F40E17E
:1026C000349FC0011124822B0895FC0132812381A3
:1026D000A081B181A30FB11D8C9190E0022E02C0A8
:1026E000959587950A94E2F78170922F9150938384
:1026F000211104C03F5F328397E0938308958F9246
:102700009F92BF92CF92DF92EF92FF920F931F930F
:10271000CF93DF931F921F92CDB7DEB76C01812C50
:10272000912CB12CEE24E394F12C062F10E00150F3
:1027300011091DC0C6014A836983C7DF4A816981C7
:10274000882391F0442349F09801281939098E2DE6
:1027500001C0880F2A95EAF706C08E2D082C01C00B
:10276000880F0A94EAF7B82A8FEF881A980A861613
:1027700008F38B2D0F900F90DF91CF911F910F9148
:10278000FF90EF90DF90CF90BF909F908F90089533
:10279000A4E0B0E0EEECF3E10C94E9601B8227E0EA
:1027A0002C839C012C5F3F4F29833A8310927A231C
:1027B000FC012181338187E090E0831B9109F8E0DF
:1027C0002F9F800D911D1124853491057CF554C0F7
:1027D0000A2D10E040E068E0CE01019690DF055838
:1027E0001C4DF8018083982E092C92949024092C7A
:1027F000969496949024CE01019667DF292D30E0BF
:102800002F5F3F4F21FBCC24C0F8D12C90E0C8169D
:10281000D90691F5CE01019658DF81112DC0F8013E
:102820008081B826A394A0927A2301C0B12CA090F5
:102830007A23F5E0FA1560F640E068E0CE010196F3
:102840005EDF082F182F012E12951025012E1695E8
:1028500016951025CE01019638DF212F30E02F5F2D
:102860003F4F21FBEE24E0F8F12C282F30E0E21658
:10287000F30611F481E0B01280E02496EBE00C94B2
:102880000261A5E0B0E0E7E4F4E10C94EF60FC0144
:102890001B8287E08C83CF01049689839A83808191
:1028A000853009F050C02181338187E090E0831B9F
:1028B000910938E0239F800D911D112480399105E5
:1028C00009F041C010927A230FE010EF29E812C0FE
:1028D000CE0101962D8313DF080F111DEF2DF0E0BF
:1028E000E558FC4D2D8128272083282F2C5DF3945B
:1028F000F0927A23F0907A238EE041E068E08F1521
:1029000038F7CE010196FBDE080F111DEF2DF0E028
:10291000E558FC4D80958083F394F0927A2341E052
:1029200068E0CE010196EBDE382F20E0021B130B8E
:1029300041E068E0CE010196E2DE282F30E081E040
:102940000217130709F080E02596E5E00C94086172
:10295000A4E0B0E0EEEAF4E10C94F1601B8227E021
:102960002C839C012C5F3F4F29833A83FC012181FA
:10297000243099F58381813081F510927A2314C037
:10298000111106C067E0CE010196B9DE806804C06F
:1029900068E0CE010196B3DEE12FF0E0E558FC4D92
:1029A00080831F5F10937A2310917A2341E01430C3
:1029B00038F367E0CE010196A2DEE12FF0E0E558A2
:1029C000FC4D880F80831F5F10937A2390917B23A7
:1029D00092959F7081E09A3009F080E02496E3E0C0
:1029E0000C940A618091742580FD03C084608093FB
:1029F00074250895A1E0B0E0E0E0F5E10C94EE600C
:102A0000198280918F238823B9F18091752587FFE2
:102A100017C084E30E944C088058803458F0803CF2
:102A200058F490E080559109B3E095958795BA9553
:102A3000E1F703C080E001C08FE08F590E943A0B9C
:102A40008091752583FF16C082E70E943A0B809122
:102A5000752584FF04C0809190230E943A0B86E67E
:102A60000E943A0B8091752584FF04C080918F23CA
:102A70000E943A0B10928F2380919123882309F4AE
:102A80003FC284E080938506009192232CE1029F4F
:102A900080011124075F1C4D8981811106C0C80186
:102AA000F0DE882311F083E58983898181113DC09F
:102AB00066E4C80163DC8823C1F1F0907A23FA94BC
:102AC000F0927A234F2D6BE773E286E0C7DD6F2D1E
:102AD00070E0FB01E558FC4DE0808E1105C093E0ED
:102AE0009F1510F486E41EC0282F30E02F5F3F4F63
:102AF000EE2DF0E02E173F0751F4E3E0EF1538F428
:102B000096E49983FB01E558FC4D80830EC04F2D60
:102B10006BE773E28CE0A2DD8E1106C0F3E0FF15D7
:102B200018F484E5898301C019828981811116C056
:102B300065E4C80123DC882389F080917A238150E1
:102B400080937A23893051F469E08BE793E290DD3A
:102B500090918423891302C085E48983898181113E
:102B600006C0C80115DE882311F088E489838981B5
:102B7000811106C0C801ECDE882311F084E7898347
:102B80008981811133C0F801438D60919023C80180
:102B90004A96FCDC682FC801D3DC6BE4C801EEDB8D
:102BA0008823B1F0F0907A23FA94F0927A236F2D73
:102BB0008BE793E269DDEF2DF0E090917923E91B3B
:102BC000F109E558FC4D9081891302C08BE489839B
:102BD000898181110BC0F8018381982F9F5F9383B6
:102BE000873021F413828181815081838981811111
:102BF0002AC0F8018181843031F58381843019F550
:102C00004EE16CE3C8014896C1DC8823E1F04EE157
:102C100060919023C8014A96B9DC682FC80190DC06
:102C200020E0822F90E0FC01E558FC4DD801A80F70
:102C3000B91F14968C9180832F5F253090F32093D9
:102C40007A2382E589833981332309F4CBC020912B
:102C5000752520FFC7C0809174258E7F8B7F809360
:102C6000742521FD64C050919323F0907A235F1165
:102C70003DC040E017C0842F90E0642F6F5FFC01DF
:102C8000EC56FC4DDC01A558BC4D70818C91781739
:102C900041F040939323809174258D7F8093742518
:102CA00005C0462F451738F34093932345131EC0A4
:102CB00040916E2550916F2560917025709171251E
:102CC0008091A8239091A923A091AA23B091AB232E
:102CD000481B590B6A0B7B0B463251056105710588
:102CE00028F48091742581608093742540E00BC0A6
:102CF000842F90E0FC01EC56FC4DDC01A558BC4D46
:102D00008C9180834F5F4F1598F34093932380916C
:102D10006E2590916F25A0917025B09171258093BB
:102D2000A8239093A923A093AA23B093AB2334356F
:102D3000F1F426FD1CC080917A238530C0F080918B
:102D40007D238B3479F0893669F0833559F08435E9
:102D500049F08D3739F08E3729F080917E238077C6
:102D6000803729F480917425816080937425B8019F
:102D7000CE01019637DE8091742582FF33C08981B0
:102D80000E943A0B80917923882329F080917A233D
:102D9000815080937A23F12C08C0EF2DF0E0E558A4
:102DA000FC4D80810E94FB0BF394E0917A23FE1688
:102DB000A0F380917923882351F0F0E0E558FC4D91
:102DC000808140E361E08F7090E00E94C10B8091B0
:102DD000752585FF05C084E30E944C080E94FB0B0B
:102DE0000E94870B8091752582FF6FC080E70E944B
:102DF0003A0B40E262E0F801808190E00E948B0B88
:102E0000F801808D40E265E0F0E18F9FC001112460
:102E10000E948B0BF801818D40E265E0F0E18F9F0D
:102E2000C00111240E948B0BF801828D40E265E005
:102E3000F0E18F9FC00111240E948B0BF801838D5C
:102E400040E265E0F0E18F9FC00111240E948B0BEE
:102E500040E263E0F801828190E00E948B0B40E247
:102E600063E0F801818190E00E948B0BF8012381DF
:102E700040E262E087E090E0821B91090E948B0BA8
:102E800080E20E943A0B8091752585FF08C084E39B
:102E90000E944C080E94FB0B80E20E943A0BF80152
:102EA0008381873019F081818F5F8183F12C07C086
:102EB000F801EF0DF11D84810E94FB0BF394F801E2
:102EC0008181F816A8F30E94870BF8011082809187
:102ED0009123815080939123809192238F5F84303E
:102EE00019F08093922302C01092922384E0809381
:102EF00086068981843521F48BE793E20E944E286F
:102F00002196E6E00C9407611F920F920FB60F9284
:102F1000112408B60F9218BE09B60F9219BE0BB64F
:102F20000F921BBE2F933F934F935F936F937F93AB
:102F30008F939F93AF93BF93EF93FF9310924609A4
:102F40008091752583FF03C08EE20E943A0B809129
:102F5000AC239CE1899FF0011124E75FFC4D908137
:102F6000933018F09181923010F4DDDA18C090910E
:102F70009123933049F48091752582FFF6CF84E147
:102F800094E00E947A0BF1CF9F5F909391238F5F23
:102F9000843019F08093AC2302C01092AC23FF91CF
:102FA000EF91BF91AF919F918F917F916F915F91C1
:102FB0004F913F912F910F900BBE0F9009BE0F9034
:102FC00008BE0F900FBE0F901F901895982F955226
:102FD000973160F46A3050F0673240F421E030E01D
:102FE000681710F020E030E0C901089580E090E01B
:102FF00008951F920F920FB60F92112408B60F92E8
:1030000018BE09B60F9219BE0AB60F921ABE0BB6B9
:103010000F921BBEFF920F931F932F933F934F93DB
:103020005F936F937F938F939F93AF93BF93CF9350
:10303000DF93EF93FF9380919D26882321F082E018
:1030400080939D2627C180910226823021F483E05F
:10305000809302261FC18091600990916109E4E08C
:1030600096958795EA95E1F7182FC091AC238CE1EE
:10307000C89FE0011124C75FDC4D8881843031F4A2
:103080001E3208F407C11F3448F0A5C0853031F462
:10309000173108F4FFC0183208F09DC00E94640682
:1030A00081110EC088818450823038F461E0CE01F5
:1030B00047DA109260091092610910939023EAC0D8
:1030C00000919023101B10938F231092600910928F
:1030D000610988818450823020F460E0CE0130DACA
:1030E000D9C080914C09816080934C09F880F1101F
:1030F0000DC0053608F0CEC0153608F0CBC0088FDD
:10310000198F81E08A8382E08883C4C082E0412FE6
:10311000602FF81270C0CE01489638DA882301F18A
:10312000888D90E09C01220F331F280F391F200F3C
:10313000311D3595279535952795288F298D30E0B8
:10314000C901880F991F820F931F810F911D9595BB
:10315000879595958795898F8A818F5F8A839AC095
:103160008A81843008F445C080EA9FE08093660934
:10317000909367098A818C3050F0888D298D30E0DA
:10318000280F311D2536310524F084E027C08A3010
:1031900088F0888D298D30E0280F311D25323105CA
:1031A0004CF485E0888388EE93E0809366099093E1
:1031B000670915C080917B25882379F0612F802FC6
:1031C00005DF882351F0688D898D00DF882329F081
:1031D00081E080930226A7D95DC083E088830A8FAF
:1031E0001B8F198287E08B831C8281E080934609C4
:1031F00051C018827ECFCE014A96C8D9882301F1EA
:1032000061E0CE019DD94A8D50E09A01220F331F13
:10321000240F351F200F311D35952795359527959E
:103220002A8F2B8D30E0C901880F991F820F931FC1
:10323000810F911D95958795959587958B8F2AC0C0
:10324000412F602FCE014896A1D9882301F160E07B
:10325000CE0176D9488D50E09A01220F331F240FFA
:10326000351F200F311D3595279535952795288FCA
:10327000298D30E0C901880F991F820F931F810F9C
:10328000911D9595879595958795898F03C087E0C2
:10329000F812A1CFFF91EF91DF91CF91BF91AF9144
:1032A0009F918F917F916F915F914F913F912F915E
:1032B0001F910F91FF900F900BBE0F900ABE0F90C1
:1032C00009BE0F9008BE0F900FBE0F901F9018956B
:1032D000E091AC238CE1E89FF0011124E75FFC4D05
:1032E0008081811109C081E090E020918C262F3FE0
:1032F00029F480E090E0089581E090E0089580E670
:1033000090E00E94890C80937B2581E690E00E94EA
:10331000890C80930C26882321F081E28093752507
:1033200079C9089520E1E0E0F6E025830C946B066E
:1033300020E1E0E0F6E026830C946B06A7E0B0E025
:10334000E4EAF9E10C94ED6090918425943559F408
:1033500020910526309106262F5F3F4F20930526AA
:10336000309306263EC0963459F4209103263091BE
:1033700004262F5F3F4F209303263093042631C04D
:10338000953459F420917825309179252F5F3F4F5E
:10339000209378253093792524C09B3459F42091CB
:1033A0000826309109262F5F3F4F2093082630933F
:1033B000092617C0983459F420910A2630910B261B
:1033C0002F5F3F4F20930A2630930B260AC020918F
:1033D0007625309177252F5F3F4F209376253093C8
:1033E000772595E79983882399F0BE016E5F7F4F1B
:1033F00080910C260E946F0CBE016C5F7F4F809104
:103400007B250E946F0C85E58E8396E0D92E02C045
:10341000DD24D3940E947B090E94F50816E080E821
:1034200091E080DF80E093E083DF1150C1F780E01E
:1034300093E078DF80E891E07BDF80E891E072DF65
:1034400010E11093060687E390E00E94090983E0EB
:1034500090E00E948806109346068FE70E9455066A
:1034600080917E258D0D0E945506EE24E394F12C6B
:10347000EC0EFD1E8701F80181918F010E94550617
:10348000802F8E198D15B8F306C08CE795E20E9447
:10349000D60E0E94550680917E258111F6CF80E1DF
:1034A000809345060E94F5088CE795E20E94BB0ECA
:1034B00015E104C081E090E00E9488068AE30E9442
:1034C0004C088F7711F01150A9F7A4D82796E7E0A0
:1034D0000C940661CF93DF93EC018981811107C0C1
:1034E00080917B250E94FB0B80910C2613C08436B3
:1034F000A1F480916E2590916F25A0917025B091D7
:10350000712540E364E00E94C10B8EE20E943A0BF9
:10351000809101260E94FB0B4DC0833709F04DC0FE
:1035200040E361E080910526909106260E94C10B40
:103530008EE20E943A0B40E361E080910326909175
:1035400004260E94C10B8EE20E943A0B40E361E028
:1035500080917825909179250E94C10B8EE20E947E
:103560003A0B40E361E080910826909109260E9481
:10357000C10B8EE20E943A0B40E361E080910A2683
:1035800090910B260E94C10B8EE20E943A0B40E301
:1035900061E080917625909177250E94C10B8EE2A3
:1035A0000E943A0B40E361E08091FF259091002654
:1035B0000E94C10B0E94870B2CC08936D9F441E0D0
:1035C0006BE775E2CE0102960E94FF0B60917B25AE
:1035D00080E690E00E94820C41E06CE076E2CE0151
:1035E00004960E94FF0B60910C2681E690E00E94F9
:1035F000820C0FC08CE795E20E94BB0E219604C09E
:103600008CE795E20E94C00E69916111F9CF80E0CC
:1036100095DEDF91CF910895A1E0B0E0E2E1FBE11A
:103620000C94EC6080910226882309F48AC0C09033
:103630006E25D0906F25E0907025F0907125833035
:1036400009F065C08FE30E944C08182F8630E8F01F
:1036500081E297E20E94BB0E80E1809346068FEFE5
:103660000E94550680E00E945506082F08C080E0A1
:103670000E945506682F81E297E20E94C00E115009
:10368000B1F780E18093450601C000E00E940A1373
:1036900010920226053709F054C041E0BE016F5F69
:1036A0007F4F84E297E20E94FF0B019759F59981C1
:1036B00080917B25981326C080912827853571F449
:1036C00006C081E297E20E94D60E0E943A0B8091DA
:1036D00023278111F6CF0E94870B33C080912327C7
:1036E00084508093232784E0809322276AE081E23C
:1036F00097E20E94C00EE0916A25F0916B2588E068
:1037000019951FC081E297E20E94BB0E1AC0823059
:1037100059F490917A258C2D891B883090F00E9465
:103720000A13109202260DC0813059F487E390E00D
:103730000E9409090E94870882E080930226C092B5
:103740007A252196E8E00C940561C2DD882361F0BA
:1037500083E0809307268091FF25909100260196B3
:103760008093FF25909300268091072681508093B7
:103770000726882321F083E080930126089581E0C5
:10378000DDCDCF93DF93C0E1C093410680E280930B
:103790000206C09345068EE190E00E946B06C0933E
:1037A00046068EE190E00E946B06C09345068DE2CE
:1037B00090E00E946B0680E30E947A0884E690E025
:1037C0000E946B06809111268933D1F4C0E0D0E0CD
:1037D000FE01E058FB4F6491FE01E158FB4F8491DC
:1037E0000E945C082296C233D10591F783E30E94C0
:1037F0007A0884E090E00E9488060E94870826C02C
:10380000843389F4C0E0D0E0FE01E25BFB4F6491B9
:10381000FE01E35BFB4F84910E945C082296C23359
:10382000D10591F7E3CF813309F7C0E0D0E0FE0185
:10383000E45EFB4F6491FE01E55EFB4F84910E94C4
:103840005C082296C233D10591F7D0CFDF91CF919A
:1038500008958091AD238111809100060895A1E023
:10386000B0E0E5E3FCE10C94EE60082F162F84E055
:103870008093850680911126893311F46F5F00C013
:1038800086E099830E945C080E94F50880E180939D
:1038900046068FE70E945506E02E9981F92E08C052
:1038A000F70181917F01993309F080950E945506B7
:1038B0008E2D801B90911126811790F3993391F4EE
:1038C0006FE083E00E945C088091000682E50E9420
:1038D00055068EE00E9455068FE70E94550680E04F
:1038E0000E94550680E18093450685E30E944C08BE
:1038F0008331D9F36FEF86E00E945C088091112636
:10390000893341F461E083E00E945C086EE182E16A
:103910000E945C080E94870884E0809386062196B6
:10392000E6E00C940761FC012181223711F02D366D
:1039300051F4FC018281811101C084E3809311263E
:103940002093AD231ECF233751F440E462E176E2A9
:1039500002960E94FF0B682F82E196E280CF293603
:1039600071F5FC012281222331F045E062E576E227
:1039700002960C94FF0B8091AD230E943A0B80912C
:1039800011260E943A0B80E20E943A0B8091522647
:103990000E94FB0B809153260E94FB0B80915426C2
:1039A0000E94FB0B809155260E94FB0B80E20E9437
:1039B0003A0B809156260E94FB0B0C94870B1092B9
:1039C000AD230895CF93282F80913E2090913F20E2
:1039D000C0E1C0930506213071F49C01220F331F12
:1039E000820F931F0E946B06C093060680913E20B3
:1039F00090913F2032C0211123C00E946B06C093DA
:103A0000060680913E2090913F209C01220F331F9B
:103A1000820F931F0E946B06C093050680913E2083
:103A200090913F200E946B06C093060680913E2035
:103A300090913F209C01220F331F820F931F22C0C1
:103A40000E946B06C093060680913E2090913F2015
:103A50009C01220F331F820F931F0E946B06C0939D
:103A6000050680913E2090913F209C01220F331F3C
:103A7000820F931F0E946B06C093060680913E2022
:103A800090913F200E946B06CF910895CF93DF93D2
:103A9000C0E1C093410680E280930206C0934506D0
:103AA0008EE190E00E946B06C09346068EE190E0A6
:103AB0000E946B06C09345068DE290E00E946B0663
:103AC00080E30E947A0884E690E00E946B06C0932F
:103AD000460680E40E945506C1EBD4E0FE018491C5
:103AE0000E9455062196F4E0CE3BDF07B9F780919E
:103AF00039200E94550680913A200E9455068091F7
:103B00003B200E945506C0E0D0E0FE01EF53FB4F82
:103B100084910E9455062196C931D105B1F780E103
:103B200080934506809346068EE70E9455068BE2F9
:103B300090E0EC0121960E94890C0E945506CE016E
:103B4000C333D105B1F780E18093450683E30E943A
:103B50007A0881E090E00E94880681E080936C25DD
:103B6000DF91CF910895A0E0B0E0E9EBFDE10C9486
:103B7000EA60EC018981843769F46EE370E2CE017A
:103B800002960E94540C40E260E080913E209091A9
:103B90003F2012C0833709F0B4C08A81823789F48C
:103BA0006CE370E2CE0103960E94540C40E260E0A8
:103BB00080913C2090913D200E948B0B0E94870BAE
:103BC00015C184E0809385068091B023811117C0D0
:103BD00080918424882329F081E08093AF23109280
:103BE000842480918624882329F081E08093AE2369
:103BF000109286244BDF83E090E00E94880686E3E3
:103C00000E947A088AE30E947A088BE30E947A086D
:103C10000E94F50800E010E06E0182E0C80ED11CA1
:103C2000B0E1AB2E25C0F70181917F01803311F403
:103C300080E005C0813311F481E001C082E0C2DE82
:103C4000BA9489F7A092050680913E2090913F207A
:103C50000E946B06A0920606AFE1FA2E80913E20EC
:103C600090913F200E946B06FA94C1F70F5F1F4F9F
:103C700080913C2090913D200817190720F476018F
:103C8000FCE0BF2ED0CF8091B023882341F08091FB
:103C9000752581110FC086E30E947A0819C08091B2
:103CA000AF23882351F01092AF230E94C92981E0ED
:103CB000809384240E9487080BC08091AE238823C0
:103CC00029F01092AE230E94D12B02C00E940A1349
:103CD00084E08093860689E60E943A0B83E70E947F
:103CE0003A0B229611E08991803309F404C08133A4
:103CF00009F401C086E40E943A0B1F5F1D3099F75A
:103D00005DCF8237B9F480918424882329F081E043
:103D10008093AF231092842480918624882329F0F5
:103D200081E08093AE2310928624B0DE81E0809300
:103D3000B0235CC0863651F58A81803351F480E12E
:103D40008093392080EB80933A2081E780933B2059
:103D500007C043E069E370E2CE0102960E94FF0BC8
:103D600089E60E943A0B86E60E943A0B8AE30E949B
:103D70003A0B809139200E94FB0B80913A200E94DF
:103D8000FB0B80913B200E94FB0B18CF883731F54D
:103D90008091AF23882341F01092AF230E94C9295C
:103DA00081E08093842411C08091AE23882329F080
:103DB0001092AE230E94D12B0EC082E090E00E94B0
:103DC000090980917525882319F00E94870803C08E
:103DD00086E30E947A081092B02308C0833631F43B
:103DE0006EE370E2CE0101960E94540CCDB7DEB7AF
:103DF000EAE00C940361A2E0B0E0E1E0FFE10C94A2
:103E0000E2607C01FC018181833709F0BBC119822A
:103E100087E090E00E9413618C0141E0BE016F5F7A
:103E20007F4FC70102960E94FF0B8981F8018083B2
:103E300041E0BE016F5F7F4FC70104960E94FF0BF8
:103E40002981207FF801218341E0BE016F5F7F4F10
:103E5000C70106962A830E94FF0B8981F80182839D
:103E600041E0BE016F5F7F4FC70108960E94FF0BC4
:103E70008981F801838341E0BE016F5F7F4FC701F5
:103E80000A960E94FF0B8981F801868341E0BE01FA
:103E90006F5F7F4FC7010C960E94FF0B8981F8016D
:103EA000858341E0BE016F5F7F4FC7010E960E9480
:103EB000FF0B8981F801848380E090E02A814191A1
:103EC000342F32953F70342783279F5F9730B9F79F
:103ED0008F70822BF801818387E090E00E9413614C
:103EE0005C0187E0F801D50101900D928A95E1F718
:103EF000D8011196C8010696F8013D91219123271A
:103F00002083E817F907C9F784E08093850680913C
:103F1000B32381116EC080918424882329F081E02D
:103F20008093B2231092842480918624882329F0E0
:103F300081E08093B12310928624A0E1FA2EF092C2
:103F4000410680E280930206F09245068EE190E001
:103F50000E946B06F09246068EE190E00E946B068E
:103F6000F09245068DE290E00E946B0680E30E948D
:103F70007A0884E690E00E946B06F092460680E4A0
:103F80000E945506BAEDEB2EB4E0FB2EF7018491AA
:103F90000E945506FFEFEF1AFF0A23E0E21625E024
:103FA000F206A1F780E180934506809346068EE7EE
:103FB0000E9455068BE290E07C01EFEFEE1AFE0ABC
:103FC0000E94890C0E945506C70183339105A1F711
:103FD00080E18093450683E30E947A0881E090E0C7
:103FE0000E94880681E080936C2583E090E00E9427
:103FF000880686E30E947A088AE30E947A088BE3A7
:104000000E947A080E94F50870E1F72EF0920506EA
:1040100087EC94E20E946B06F092060689E590E038
:104020000E94880685E392E00E946B06E12CF12C49
:10403000E0E15E2EF0E14F2E5DC0EE2011F027E0B2
:1040400001C022E0D12C5092050686EF99E02A8328
:104050000E946B065092060686EF99E00E946B065E
:10406000D3942A81D2167CF3409205068CEF92E11C
:104070000E946B064092060680914020909141205C
:104080000E946B066801312CF60181906F0158E0A7
:10409000252E60E8662E712C912C93012821392160
:1040A0008091402090914120232B39F450920506B5
:1040B0000E946B065092060606C0509206060E94A9
:1040C0006B065092050680914020909141200E94FD
:1040D0006B06769467942A9401F73394F7E03F12C5
:1040E000D3CF5092060680E090E00E946B062FEF3F
:1040F000E21AF20A8091442090E0E816F9060CF4E6
:104100009CCF8091B323882341F080917525811144
:104110000FC086E30E947A0819C08091B2238823D9
:1041200051F01092B2230E94C92981E08093842427
:104130000E9487080BC08091B123882329F0109238
:10414000B1230E94D12B02C00E940A1384E0809305
:10415000860689E50E943A0B83E70E943A0B7501B7
:1041600037E0D32EF70181917F010E94FB0BDA9497
:10417000C9F70E94870BC5010E94AE61C8010E9469
:10418000AE616FC08237A9F464E470E2C7010296A1
:104190000E94540C89E50E943A0B82E70E943A0B78
:1041A0008AE30E943A0B40E260E08091442090E074
:1041B0002CC0843779F5F7018281803339F488ED9A
:1041C00094E0809342209093432006C062E470E222
:1041D000C70102960E94540C809142209091432086
:1041E00096958795809340209093412089E50E9481
:1041F0003A0B84E70E943A0B8AE30E943A0B40E2B2
:1042000066E080914220909143200E948B0B0E9497
:10421000870B27C0883729F58091B223882341F086
:104220001092B2230E94C92981E08093842411C096
:104230008091B123882329F01092B1230E94D12BC1
:104240000EC082E090E00E940909809175258823C4
:1042500019F00E94870803C086E30E947A08109232
:10426000B3232296E2E10C94FB60CF93DF93C0E18D
:10427000C093410680E280930206C09345068EE11A
:1042800090E00E946B06C09346068EE190E00E948B
:104290006B06C09345068DE290E00E946B0680E3BA
:1042A0000E947A0884E690E00E946B06C09346065E
:1042B00080E40E945506C3E0D5E0FE0184910E948F
:1042C00055062196F5E0CC32DF07B9F780E18093FF
:1042D0004506809346068EE70E9455068BE290E0E5
:1042E000EC0121960E94890C0E945506CE01C33331
:1042F000D105B1F780E18093450683E30E947A08F7
:1043000081E090E00E94880681E080936C25809394
:10431000C623DF91CF910895A0E0B0E0E2E9F1E299
:104320000C94EA608C0180915726F80183836483A2
:104330009DE0E92EF12C20E1A22E0E94F50885E3F4
:104340000E944C08833169F08CE295E00E947A0B60
:1043500085E30E944C080E94FB0B0E94870B85DFBF
:104360004AC040916E2550916F25609170257091E3
:104370007125409358265093592660935A2670937E
:104380005B26A09246068FE70E9455066801C0E0B2
:10439000D0E08AEAB82EF60180810E945506C93025
:1043A000D10544F4F6018081B826C730D10511F457
:1043B000F801B0862196FFEFCF1ADF0ACF30D10582
:1043C00051F7A0924506C8EC85E30E944C08833162
:1043D00031F081E0E81AF10809F0AFCF07C081E0C1
:1043E00090E00E948806C15079F7F3CF809157265C
:1043F0008F5F80935726CDB7DEB7EAE00C94036158
:10440000ABE3B0E0E6E0F2E20C94E8607C01DC01B2
:104410000D900020E9F7AD0141505109481B590B9F
:104420006C01B2E0CB0ED11CBE01625D7F4FC601B4
:104430000E94FF0B082F65EF71E286E490E20E9474
:104440009F63F7011181812F8357823008F0DBC110
:1044500081E08093C42387858A3411F489E501C003
:104460008EE48093452080906E2590906F25A090DB
:104470007025B090712540916E2550916F25609107
:10448000702570917125409358265093592660935A
:104490005A2670935B2680914520893509F054C0D7
:1044A00089E395E00E947A0B85E495E00E947A0BFF
:1044B000C7010E946F0B8CE595E00E947A0BD70133
:1044C0000D900020E9F7CD01019740E260E08E19E0
:1044D0009F090E948B0B81E795E00E947A0BF70100
:1044E00001900020E9F73197EE19FF09EE0DFF1D4D
:1044F00040E260E0808190E00E948B0B89EB95E0C8
:104500000E947A0B40E260E0802F90E00E948B0BCB
:1045100081E096E00E947A0B84E096E00E947A0B9C
:1045200040E364E080915A2690915B260E94C10B83
:1045300040E364E080915826909159260E94C10B77
:104540008BE196E00E947A0BD7010D900020E9F7ED
:104550005197AE15BF0509F03DC142E0BE01625D55
:104560007F4FC6010E94FF0B029709F033C17DDE29
:104570000EA5B701665F7F4F45E050E0CE01019682
:104580000E94B4631E824AE050E060E070E0CE0119
:1045900001960E944D626B017C0133E0F694E79432
:1045A000D794C7943A95D1F7809145208935F1F495
:1045B0008EE196E00E947A0BCE0101960E946F0B6D
:1045C00085E396E00E947A0B8CE396E00E947A0BDA
:1045D00040E364E0C7010E94C10B40E364E0C60110
:1045E0000E94C10B83E596E00E947A0B8FE0E3E620
:1045F000F1E2DE015F9601900D928A95E1F78FA5B9
:1046000088A388A989A389A98EA3602FCE014F967C
:1046100083DE133709F4EEC007FFECC04091582643
:104620005091592660915A2670915B2680916E2593
:1046300090916F25A0917025B091712588199909E5
:10464000AA09BB098E379105A105B10548F48090F0
:104650006E2590906F25A0907025B0907125A8953B
:1046600080916E2590916F25A0917025B091712554
:10467000841B950BA60BB70BC816D906EA06FB06DA
:10468000A8F680906E2590906F25A0907025B09030
:10469000712580914520893509F073C08BE596E03E
:1046A0000E947A0B40E364E0C5010E94C10B40E325
:1046B00064E0C4010E94C10B82E796E00E947A0B7D
:1046C0008AE796E00E947A0B40E364E080915A26E4
:1046D00090915B260E94C10B40E364E080915826D4
:1046E000909159260E94C10B81E996E00E947A0BB5
:1046F00089E996E00E947A0B40E364E0C7010E94DA
:10470000C10B40E364E0C6010E94C10B80EB96E060
:104710000E947A0B88EB96E00E947A0B80916E25BE
:1047200090916F25A0917025B091712540915826E8
:104730005091592660915A2670915B26841B950BE7
:10474000A60BB70B40E364E0CD010E94C10B809142
:104750006E2590916F25A0917025B09171252091C3
:10476000582630915926821B930B40E364E00E9447
:10477000C10B8FEC96E00E947A0B87ED96E00E94C9
:104780007A0B67EFCE014F96C7DD409158265091C6
:10479000592660915A2670915B2680916E259091E2
:1047A0006F25A0917025B0917125841B950BA60BE8
:1047B000B70B4597A105B10580F380914520893558
:1047C00021F480EE96E00E947A0B67EFCE014F96BF
:1047D000A3DD10C089EE96E00E947A0B40E260E013
:1047E0008EE090E00E948B0B8EE097E00E947A0BA7
:1047F0001092C6238091C523813011F40E9487084E
:104800001092C42339C0123789F5F70182818534AB
:1048100041F41092C52386E30E947A0882E397E070
:1048200022C08335F1F481E08093C5231EDD83E44B
:1048300097E00E947A0B0E94870885E30E944C084B
:104840008D30D1F086E597E00E947A0B85E30E94D7
:104850004C080E94FB0B0E94870B07DD1092C523BA
:104860000BC08FE697E00E947A0B06C081E997E0C3
:104870000E947A0B1092C623EB96ECE00C94016137
:10488000109277261092752483E0809376248FEF20
:1048900080938C260895E7ECF3E20EC0009751F068
:1048A0004181DC013C91431305C0428111963C914A
:1048B0004317B1F0E20FF11D2081211105C0892BB2
:1048C00041F0E0E0F0E00CC0B4E2E537FB0730F384
:1048D000F6CF34E2E537F30719F010F0E5E7F4E23C
:1048E000CF01089594E0899FF0011124E357F94D19
:1048F00080818F3F91F08093772481818093782409
:10490000828180937924838180937A2421E04CE012
:1049100064E087E794E20C94DD0F08958DE794E25C
:10492000BADF009799F020917624FC01308123179B
:1049300068F4E20FF11D808180937F2489E78093E2
:10494000802481818093812481E0089580E008950E
:10495000EF92FF921F93CF93DF931F92CDB7DEB7F5
:10496000182F8091752586FF18C084E599830E94D1
:104970003A0BE12E9981F92E15E0F70181917F0123
:104980000E94FB0B1150C9F78091752585FF03C06C
:104990008AEF0E94FB0B0E94870B0F90DF91CF9153
:1049A0001F91FF90EF90089586E30E947A0880910E
:1049B0007F24833519F48BE990E002C08BE490E00A
:1049C0000E94880621E04CE065E08DE794E20E94B9
:1049D000DD0F0E9487088DE794E2BACFE5DF809172
:1049E0007F24893631F081E080937C2489E28093B2
:1049F0008C260895CF9385E390E00E94890C8093E4
:104A00005D2686E390E00E94890C80938B26CFEF91
:104A1000C0937B26C0937D26C0937F26C0938126BA
:104A2000C0938326C0938526C0938726C09389268A
:104A300027DF1092C72381E080935C26C0938D26E8
:104A40008FEF9FEF80935F269093602610926126F0
:104A5000109262261092632610926426C0939126CB
:104A6000809365269093662610926726109268269A
:104A70001092692610926A26C093952680936B2621
:104A800090936C2610926D2610926E2610926F26CF
:104A900010927026C0939926809371269093722667
:104AA0001092732610927426109275261092762614
:104AB000CF910895ACE0B0E0E0E6F5E20C94EB6055
:104AC0006C018C010F5F1F4F45E0BE016F5F7F4F90
:104AD000C8010E94FF0B843008F0F4C09981913026
:104AE000A9F4833061F46A8185E390E00E94820C2E
:104AF0006B8186E390E00E94820C7CDF09C280918A
:104B00005D260E94FB0B80918B269BC0923009F0A2
:104B100052C0813041F081E090E02A81213029F0BB
:104B200080E090E002C081E090E0E82E8091C72311
:104B3000811104C084EC97E00E947A0B07EC13E229
:104B400030C033E2073C130719F080E20E943A0BB1
:104B5000F80181810E94FB0BF80182810E94FB0B0E
:104B6000E11005C0F8018081080F111D1AC08AE309
:104B70000E943A0B93E0F92E0FC0F3E0FF1528F4E2
:104B8000F0FE03C08CE20E943A0BF801EF0DF11D1C
:104B9000F39480810E94FB0BF8018081F81668F382
:104BA000E1CFF8018081882309F489C0F4E2053758
:104BB0001F0738F284C0933049F480E090E06BDE48
:104BC000875C93429EEA981B892F3BC0903171F518
:104BD0000BE716E28CE7E82E86E2F82EC12CD12CEA
:104BE000F80180818F3FA1F0DD2019F080E20E9462
:104BF0003A0B8C2D0E94FB0B8AE30E943A0BF801C2
:104C000080810E94FB0BF70180810E94FB0BD394F3
:104C10000E5F1F4FC394F2E0EF0EF11C38E0C31299
:104C2000DFCFD1104CC086EB97E047C0913161F4E3
:104C30008091792690917A266DE770E00E949360CA
:104C4000862F0E94FB0B3BC09231C9F51DE8E12E77
:104C500016E2F12E00E916E2C12CD12CF701808179
:104C60008F3FF1F0DD2019F080E20E943A0B8C2D8D
:104C70000E94FB0B8AE30E943A0BF70180810E949D
:104C8000FB0BF801329780810E94FB0BF8013197F2
:104C900080810E94FB0BF80180810E94FB0BD39462
:104CA000F4E0EF0EF11CC3940C5F1F4F34E0C3120D
:104CB000D5CFD11004C08AEB97E00E947A0B0E94F6
:104CC000870B26C144E0BE01695F7F4FC8010E9487
:104CD000FF0B4F81493608F479C05A85688579857C
:104CE0005C3009F04DC020E030E080E090E0F90158
:104CF000E357F94D508154131CC0A181A61319C06C
:104D0000A281A71316C02CE023839C01220F331F1E
:104D1000280F391FF901EE0FFF1FE15AF94D1082DC
:104D20001182F901EE0FFF1FEF59F94D1082118228
:104D3000D1C05F3FE9F44083288521832985228300
:104D40002CE023839C01220F331F280F391FF90108
:104D5000EE0FFF1FE15AF94D10821182F901EE0F9B
:104D6000FF1FEF59F94D1082118210925C26B2C0DC
:104D700001962C5F3F4F2031310509F0B8CFC8C0F4
:104D800080E090E020E030E0FC01E357F94DA081A5
:104D9000A41315C0A181A61312C0A281A7130FC02E
:104DA0005383F901EE0FFF1FE20FF31FEE0FFF1FFA
:104DB000EF59F94D81E090E080839183A9C02F5F86
:104DC0003F4F049680319105F9F6A2C0E9818091A8
:104DD0005D26E817C8F190E0F0E09C01295F3F4FA5
:104DE0002E173F078CF13A8120918B2632132CC06D
:104DF0002C812F3231F442E06CE0C6010E944D104C
:104E000087C02C32B9F42D812093782681E090E080
:104E10008093792690937A268091722590917325BC
:104E2000E4E02E9F800D911D1124809372259093B4
:104E300073256EC0E81BF90BEE0FF0E0E558F94D55
:104E400020838D81818364C080E090E024DD7C013B
:104E5000F80101900020E9F73197E01BF10BF6957E
:104E6000E795BE2EB394C7018B0D911D875C9342CD
:104E70008F3A91050CF048C0F701B1928F0121E003
:104E80001AC041E0B801F601E80FF11DCF012C87EF
:104E90000E94FF0B2C85233058F020FD09C0D8015B
:104EA00011978C91843621F4F801808180935E26DD
:104EB0002F5F0F5F1F4F822F880F81502B1508F334
:104EC000F5E7EF16F4E2FF0618F5F701E20FF11D22
:104ED00010821EC022E04CE064E0CE0107960E94E2
:104EE000DD0F8FE08A8722E04CE064E0CE01079678
:104EF0000E94DD0F82E08A8722E04CE064E0CE0170
:104F000007960E94DD0F04C08EEB97E00E947A0B9B
:104F10002C96E9E00C9404610F931F93CF93DF93D9
:104F200090915C2691114BC093E0899F80011124E0
:104F3000F801EE0FFF1FE15AF94D94E0899FD0016F
:104F40001124A357B94D12969C91977046E0949FF7
:104F50009001391B112433583595279535952795A0
:104F600020833183E801CC0FDD1FCD59D94D288135
:104F700039812F5F3F4F28833983000F111F0F594D
:104F8000194DF801408151814115510529F4243012
:104F90003105A9F4A7DC11C04130510539F4A2DC78
:104FA00082E090E0F8018083918309C0423051058E
:104FB00031F498DCF8011082118218821982DF9195
:104FC000CF911F910F910895A6E0B0E0EAEEF7E2CD
:104FD0000C94EE6080918B268A831B8290917826B8
:104FE000992341F0933019F487E791E00CC08DE7E5
:104FF00090E009C087702DE7829FC0011124825B79
:105000009F48959587958093792690937A260CE70B
:1050100016E2F12C7CE2E72EF801319790819F3F58
:10502000C1F080915D268F0D898380917826882339
:1050300011F0EC8203C09C83F80180818D8321E014
:105040004CE065E0CE0101960E94DD0FCE01019695
:105050007FDCF3940E5F1F4FF8E0FF12DDCF8091ED
:105060007826882341F0833019F41092782603C003
:105070008250809378262696E6E00C940761809112
:105080007C24882351F090DC89E280938C268091E7
:105090007C24815080937C240895F2CBFF920F935F
:1050A0001F93CF93DF93FC01F0800181C281D381F4
:1050B00014818FE580938C2610927C2480915D264C
:1050C000811105C080918B26882309F4ABC08091A3
:1050D0007D248F1104C080917E24801729F0D0DBBD
:1050E000F0927D2400937E24809177268F3F09F4EF
:1050F00099C0C0937F24D093802410938124CC2323
:10510000F1F081111CC080915D26181761F01436F2
:1051100051F08C2F8355823010F0CD3739F48FEF5A
:10512000809377267FC0C43509F47CC08D2F807FA3
:10513000803609F077C0D067D093802467C0EEDB5B
:10514000811105C080917726882309F46BC0809176
:105150007524811107C0E0917726F0E0E855F84FFB
:10516000E49101C0E82FE33541F4C43531F4909166
:1051700077269E5F9093772604C0EC1711F080DBB2
:1051800051C0882309F444C0809176248E5F8093B7
:105190007624C4DB811106C0809177268E5F8093D0
:1051A000772636C080917F2480937524843671F5EC
:1051B00080915E268093812429C010937F2497E7F5
:1051C0009093802490915D26909381248E5F8093AC
:1051D0007726109275248E30B9F48DE794E25BDB6C
:1051E000DC01009781F02C9130E085E794E2821B8E
:1051F000930B05C0ED01C20FD31F48814D93A81733
:10520000B907C0F31C923CDB112361F0E7DB0AC055
:1052100080917726E82FF0E0E755F84F14911F3F73
:1052200061F6C0CFCDB7DEB7E5E00C9408610F930F
:105230001F93CF93DF93EC01A82FBD2FFD010190A9
:105240000020E9F73197EA1BFB0B8981823751F483
:1052500087E390E00E9409090E94870881E080931B
:105260009D262AC0833731F50E2F80E180934606B4
:105270008FE70E945506802F82500E945506229685
:1052800012E004C089910E9455061F5F1017D0F3E9
:1052900080E1809345060E94F50804C081E090E01B
:1052A0000E9488068AE30E944C088F77B9F70E9413
:1052B000870802C010929D26DF91CF911F910F9118
:1052C0000895A0E8B0E0E7E6F9E20C94EC60809184
:1052D0009D26882309F458C0813011F580916E25F0
:1052E00090916F25A0917025B09171252091832414
:1052F000281709F449C085E30E944C08813129F43C
:105300008AE30E947A080E94870880916E25909116
:105310006F25A0917025B09171258093832434C0AE
:105320008FE30E944C08D82E87FD2BC080E180932C
:1053300046068FEF0E9455068E010F5F1F4F7801C2
:10534000C02E06C080E00E945506F70181937F01C0
:105350008E2D8C198D15B0F380E18093450681E088
:105360008093032305C0F80181918F010E943A0BBD
:10537000802F8C198D15B8F30E94870B8FEF8093C7
:10538000032381E080939D26C058DF4FE8E00C9412
:105390000561CF93DF93C0E1C093410680E2809323
:1053A0000206C09345068EE190E00E946B06C09312
:1053B00046068EE190E00E946B06C09345068DE2A2
:1053C00090E00E946B0680E30E947A0884E690E0F9
:1053D0000E946B06C0E0D0E0FE01E152F84F6491FC
:1053E000FE01E252F84F84910E945C082296C2337B
:1053F000D10591F780918524811108C083E30E9433
:105400007A0884E090E00E94880611C0C0E0D0E0F5
:10541000FE01E753F84F6491FE01E853F84F849181
:105420000E945C082296C631D10591F7E7CF84E34C
:105430000E947A0885E30E944C088D30C1F7DF9105
:10544000CF910895A2E3B0E0E8E2FAE20C94F060B4
:1054500080918424882309F4A9C00E9464068823CB
:1054600009F48FC08FE30E944C088F7789838233C1
:1054700068F08AE30E947A0886E30E947A088DE346
:105480000E947A0884E30E947A0890C080E18093A9
:1054900046068FEF0E94550610E00BC080E00E9488
:1054A0005506E2E0F0E0EC0FFD1FE10FF11D8083F7
:1054B0001F5F8981181790F380E00E945506082F1E
:1054C00080E00E94550680E18093450684E30E94B7
:1054D0007A0885E30E944C088D30C1F72A8196E74F
:1054E00092279A8392E00CC041E050E04C0F5D1F80
:1054F000E40FF51F30812452232720839F5F232F41
:105500008981E92FF0E0981778F381E090E08C0F23
:105510009D1FE80FF91F90818B81982790838091C0
:10552000752584FF13C081E60E943A0B10E00AC083
:10553000E1E0F0E0EC0FFD1FE10FF11D80810E9422
:105540003A0B1F5F8981811798F71BC081E40E9485
:105550003A0B10E00AC0E1E0F0E0EC0FFD1FE10FB4
:10556000F11D80810E94FB0B1F5F8981811798F7D5
:105570008091752585FF03C0802F0E94FB0B0E9440
:10558000870B85E30E944C08813029F0813161F45A
:105590008AE30E947A0886E30E947A088DE30E94DB
:1055A0007A0884E30E947A080E94C009E296E4E047
:1055B0000C9409618F929F92AF92BF92FF920F93CA
:1055C0001F93CF93DF93CDB7DEB7EA97CDBFDEBF92
:1055D00041E3BE016F5F7F4F01960E94FF0B8C017C
:1055E00099270197298130E08217930709F0B4C009
:1055F00080918424811105C0CCDE83E090E00E947C
:105600008806FB808A8196E789278A8322E009C081
:10561000DE01A80FB91F8C91845290818927808365
:105620002F5F3981822F90E0E1E0F0E0EC0FFD1F69
:10563000E80FF91F231760F380818F258083CE0147
:10564000C7960E942D0A85E30E947A0885E30E948E
:105650004C08833181F1CE01C3960E942D0A4BA9DB
:105660005CA96DA97EA98FA998ADA9ADBAAD841723
:105670009507A607B70760F44A015B01881A990AE3
:10568000AA0ABB0A2DEB82169104A104B10470F49E
:10569000481759076A077B0770F484549F4FAF4F30
:1056A000BF4F84179507A607B70728F480E198E055
:1056B0000E947A0B34C085E30E944C08833119F6AE
:1056C000F4FE0BC088E790E00E94880688E790E02F
:1056D0000E94880688E790E002C08AE090E00E947D
:1056E000880680E1809346068FE70E94550688244D
:1056F0008394912C8C0E9D1E540105C0F50181915F
:105700005F010E9455068A2D88198017B8F380E141
:105710008093450685E30E944C088331D9F385E3E5
:105720000E944C08863149F48BE30E947A0886E394
:105730000E947A088DE30E947A088091842488234D
:1057400049F084E30E947A0885E30E944C088D307A
:10575000C1F702C00E940A13EA96CDBFDEBFDF91F7
:10576000CF911F910F91FF90BF90AF909F908F901E
:105770000895FC012181223731F0223559F481E06E
:105780008093852402C01092852403DE81E08093FB
:1057900084240895233711F401960CCF10928424A9
:1057A0000895CF93DF93C0E1C093410680E28093D8
:1057B0000206C09345068EE190E00E946B06C093FE
:1057C00046068EE190E00E946B06C09345068DE28E
:1057D00090E00E946B0680E30E947A0884E690E0E5
:1057E0000E948806C0E0D0E0FE01E65EF74F84919B
:1057F000813448F083E30E947A0884E090E00E94BC
:105800008806CFEF0BC0FE01E55EF74F64910E9462
:105810005C082296CC33D10539F7ECCF84E30E94A3
:105820007A088AE090E00E946B06C150B9F781E0E7
:1058300080938624DF91CF910895EF92FF920F938A
:105840001F93CF93DF93EC018B01F880F3946115E4
:10585000710519F0E4E6F0E002C0E0E0F0E028E0D5
:10586000F29EC00111246AE070E00E94A7609B01D3
:105870002E0F3F1FC901AA2797FDA095BA2FE091CF
:105880007225F0917325AF0160E070E04817590769
:105890006A077B0728F48FE598E00E947A0BDDC049
:1058A000E21BF30BE0937225F0937325809186241D
:1058B000811101C076DF85E30E944C088D3071F0C4
:1058C0008AE50E943A0B85E40E943A0B82E50E9429
:1058D0003A0B82E50E943A0B81E34DC080918D2402
:1058E00090918E24A0918F24B0919024892B8A2BA3
:1058F0008B2B69F40E94F50885E30E944C088331E4
:1059000009F444C02BC081E090E00E948806809199
:105910006E2590916F25A0917025B09171254091D1
:105920008D2450918E2460918F247091902484173F
:105930009507A607B70739F380916E2590916F25DB
:10594000A0917025B09171254F5F5F4F6F4F7F4FD2
:1059500084179507A607B707B1F2CCCF8AE50E9456
:105960003A0B85E40E943A0B82E50E943A0B82E5ED
:105970000E943A0B82E30E943A0B85E30E944C0896
:105980000E94FB0B0E94870B0CDF67C0012B51F4B8
:1059900080E1809346068FE70E945506EC2E0C2F7F
:1059A0001D2F0FC00AE010E084E690E00E948806F8
:1059B00001501109C9F7ECCFF80181918F010E94C4
:1059C0005506802F8E198F15B8F380E18093450618
:1059D000C8EC85E30E944C088D3031F485E30E94C9
:1059E0004C088D3069F423C085E30E944C08833154
:1059F000A9F781E090E00E948806C15051F7EECFF0
:105A00008AE50E943A0B85E40E943A0B82E50E94E7
:105A10003A0B82E50E943A0B83E30E943A0B85E33E
:105A20000E944C080E94FB0B0E94870BBADE8091FB
:105A30008624811102C00E940A1380916E259091E4
:105A40006F25A0917025B091712580938D2490933E
:105A50008E24A0938F24B0939024CDB7DEB7E6E0D8
:105A60000C940761ACE0B0E0E8E3FDE20C94EF6079
:105A7000FC018BE0898381818A831B8282E08C8395
:105A800087818D8380858E8381858F8384818887BC
:105A90008581898786818A871B861C8684E190E0C0
:105AA0000E94880660E070E08E010F5F1F4FC80102
:105AB000C4DE8AE50E943A0BF12C07C0F801E80F1A
:105AC000F91F80810E94FB0BF3948F2D90E02981B8
:105AD00030E02817390794F78091752585FF03C0BA
