:10000000A8C50000CBC50000C9C50000C7C50000D9
:10001000C5C50000C3C50000C1C50000BFC50000C4
:10002000BDC50000BBC50000B9C50000B7C50000D4
:10003000B5C50000B3C500000C94D709AFC50000DA
:10004000ADC50000ABC50000A9C50000A7C50000F4
:10005000A5C50000A3C50000A1C500009FC5000004
:100060009DC500009BC5000099C5000097C5000014
:1000700095C5000093C5000091C500008FC5000024
:100080008DC500008BC5000089C5000087C5000034
:1000900085C5000083C5000081C500007FC5000044
:1000A0007DC500007BC5000079C5000077C5000054
:1000B00075C5000073C5000071C500006FC5000064
:1000C0006DC500006BC5000069C5000067C5000074
:1000D00065C5000063C5000061C500005FC5000084
:1000E0005DC500005BC5000059C5000057C5000094
:1000F00055C5000053C5000051C500004FC50000A4
:100100004DC500004BC5000049C500000C945618B1
:1001100045C5000043C5000041C500003FC50000C3
:100120003DC500003BC5000039C5000037C50000D3
:1001300035C5000033C5000031C500002FC50000E3
:100140002DC500002BC5000029C500000C94E11747
:1001500025C5000023C5000021C500001FC5000003
:100160000C94CE320C941A330C947F3317C50000D4
:1001700015C5000013C5000011C500000FC5000023
:100180000DC500000BC5000009C5000007C5000033
:1001900005C5000003C5000001C50000FFC4000044
:1001A000FDC40000FBC40000F9C40000F7C4000057
:1001B000F5C40000F3C40000F1C40000EFC4000067
:1001C000EDC40000EBC40000E9C40000E7C4000077
:1001D000E5C40000E3C40000E1C40000DFC4000087
:1001E000DDC40000DBC40000D9C40000D7C4000097
:1001F000D5C400000C948D4AD1C40000EC59EE59CE
:10020000FE59FA59005A045A085A175A2B5A3C5A9E
:100210003E5A415A4F5A445A475A4C5A42D50D6297
:10022000254343A40846B41069A11E6BEE2241B8D1
:100230002C7067325A3E2F47B7104DE9104B5811BA
:1002400055E01159E91F52AA0C54592656380E5739
:100250001B0D58671365F80D66162A6D1D306CC3AB
:100260000D74460A75C71A7863094503357A7D1DF2
:10027000000000072E050DD391FF080500000C00BB
:1002800021656A2D3B1322F862073F181D1CC70029
:10029000B0876BF8B611EA2A001F41000D2E2D071A
:1002A000D3913D04320000060021656A55E43023F5
:1002B000B900070018146C070090876BF85611E915
:1002C0002A001F410000030F1E2627000000030F15
:1002D0001E2536386700030F256740605000030F66
:1002E000275188838100030F2750C8C3C20027000D
:1002F0000000000000006700000000000000500047
:100300000000000000008100000000000000C200AA
:100310000000000000203D2000202F2000504C4C09
:10032000300D0A00504C4C310D0A00203D20006E6B
:100330006100203D2000202F200043554E585F567D
:1003400031005620322E36362043554C3836380090
:100350000E03430055004C00380036003800000002
:10036000160362007500730077006100720065007B
:100370002E006400650000000403090409028300E4
:10038000040100C032080B0002020201000904004F
:1003900000010202010005240010010424020605E8
:1003A00024060001070583030800FF090401000279
:1003B0000A0000000705020240000507058102400F
:1003C0000005080B020202020100090402000102FA
:1003D000020100052400100104240206052406027F
:1003E00003070586030800FF09040300020A000052
:1003F00000070505024000050705840240000512BC
:10040000011001EF020108EB034E2001000102DCA4
:10041000014C4F56460D0A00424F56460D0A000049
:1004200001022E030104AA050F06FF070008000BB6
:10043000060D210E740FAD104B11F8121613721524
:1004400041181819161B0323E9242A2500261F3EEC
:10045000500001022E030104AA050F06FF07000841
:10046000000B060D210E660F6610CA1193120613BB
:10047000521535181819161B0323E9242A250026BE
:100480001F3E500001022E0301045505F006FF0730
:100490000008000B060D210E660F991059118312EA
:1004A0001E13521535181819161B0323E9242A2583
:1004B00000261F3E500D2E2D07D3913D0432000023
:1004C000060010B07155E43023B900070018146C11
:1004D000070090876BF85611E92A001F41000D2E86
:1004E0002D07D3913D04320000060010ABA5550A3C
:1004F0003023B900070018146C070090876BF8567A
:1005000011E92A001F4100012E4604AA540FE00001
:100510000000060021656A97831663B947070C2916
:10052000366C074091876BF85611E92A001F41008D
:1005300054585F494E49545F4552525F00547261AE
:100540006E736D6974740D0A00636F6D6D616E6416
:100550006C696E65706172616D657465723A2000D8
:100560000D0A537472696E676C656E6774683A2021
:1005700020202020000D0A4E6578742043686172A7
:1005800061637465722028696E74292061667465E0
:100590007220706172616D65746572202873686F76
:1005A000756C64206265206C696E6520656E6420E0
:1005B000636861726163746572293A20000D0A41B3
:1005C0006D6F756E74206F66204279746573202894
:1005D0004865782920666F756E6420696E7369645A
:1005E0006520636F6D6D616E64206C696E6520704F
:1005F0006172616D657465723A2020202020202090
:1006000020202020000D0A005469636B2054696D7E
:1006100065723A2020202020202020202020000D5C
:100620000A004B65794F666654696D653A20202053
:100630002020202020202020006D7365630D0A00FB
:100640004B65794F666654696D6520696E207469E3
:10065000636B733A2020005B6865785D0D0A005477
:1006600069636B2054696D65723A20202020202038
:100670002020202020005B6865785D0D0A00426C18
:100680006F636B2053746172742054696D653A20F6
:1006900020202020005B6865785D0D0A004B65799D
:1006A0004F666654696D653A202020202020202066
:1006B000202020005B6865785D0D0A007469636B1B
:1006C000732D426C6F636B537461727454696D6502
:1006D0003A20005B6865785D0D0A00426C6F636BC1
:1006E000320D0A00426C6F636B330D0A004B6F7062
:1006F00070205472616E736D69747420436F6D6DF8
:10070000616E64206E6F7420657175616C20746F0A
:100710002000204279746573206F72204B657963E5
:100720006F6465206973206E6F206865782076613C
:100730006C75650D0A006B72452D526563656976AF
:1007400065456E640D0A006B72532D5265636569D1
:10075000766553746172740D0A0052585F494E49B0
:10076000545F4552525F4D41524353544154455F8B
:100770005258004B6F707020526563656976652032
:10078000537562436F6D6D616E6420556E6B6E6F55
:10079000776E0D0A004B6F707020436F6D6D616E48
:1007A0006420556E6B6E6F776E0D0A000053530018
:1007B000547D7DFFFF4B4B7E7E004E2F41004E2F20
:1007C0004100454F420D0A004E2F41000B08105BBF
:1007D00011F81547191D1A1C1BC71C001DB221B6A4
:1007E00023EA0007022E030D04E905CA070C0B06D5
:1007F0000D210E650F6A10C81193120315341733BB
:10080000181819161B4321562500261129592C8129
:100810002D353EC34552523A4343410D0A0000076D
:10082000024604C605260B0610C8119312031322B4
:100830001534173F182819161B4321562500261179
:100840000D210E650F6A070C160720F81E871F6B17
:1008500029592C812D353EC3FF004C454E4552523F
:100860000D0A004C4F56460D0A004C454E4552525B
:100870000D0A003F20280020697320756E6B6E6F93
:10088000776E2920557365206F6E65206F66003185
:100890003A0020402000203F0057495A4348495021
:1008A00020496E697469616C697A65642066616962
:1008B0006C2E0057495A4348495020496E69746963
:1008C000616C697A656420737563636573732E0068
:1008D000556E6B6E6F776E20504859204C696E6B69
:1008E000207374617574732E0D0A00504859204CA2
:1008F000696E6B207374617475733A20004F4646BD
:10090000004F4E0025643A4D51545420496E69748D
:100910000D0A0025643A4D515454206D73675F638E
:100920006F6E6E656374206661696C6564206275C4
:10093000696C64696E670D0A0025643A4D51545420
:100940002053656E64696E6720636F6E6E656374B5
:10095000206D73670D0A00726563656976656420B2
:1009600025640D0A0025643A4D51545420434F4EDE
:100970004E204E41434B0D0A0025643A4D515454CC
:100980002041434B0D0A0025642062797465732071
:10099000543A20256420513A2025642049443A20C5
:1009A00025640D0A003E2573202F2F2025730D0A84
:1009B0000025643A4D51545420436F6E6E65637444
:1009C00065640D0A0025643A436C6F73655761696D
:1009D000740D0A0025643A436C6F7365640D0A0058
:1009E00025643A4F70656E65640D0A0025643A43CC
:1009F0006F6E6E656374206572726F720D0A0025EA
:100A0000643A436F6E6E656374696E672E2E2E0DA9
:100A10000A0025643A53746174653A2025640D0A0E
:100A2000006D7174743A2073656E64696E6720702E
:100A300075626C6973682E2E2E0D0A0025643A4D7E
:100A4000515454206D7367206661696C656420742D
:100A50006F206275696C64696E670D0A006D717450
:100A6000743A2073656E64696E6720737562736390
:100A70007269626520666F72202573202E2E2E0DFE
:100A80000A0025643A4D515454206D736720666105
:100A9000696C656420746F206275696C64696E6747
:100AA0000D0A00047605961700000602000B080CDC
:100AB000000D210E650F6A106A114A1206132214E6
:100AC000F80A00154721B622101818192E1A6D1BA6
:100AD000041C091DB223EA242A2500261F29592CAB
:100AE000812D352E0907040800090006FF3EC2FFCC
:100AF0000454053D1700000602000B080C000D21F0
:100B00000E6B0FD0105C11041206132214F80A00A9
:100B1000154421B622101818192E1ABF1B431C09A0
:100B20001DB523EA242A2500261F29592C812D359D
:100B30002E0907040800090006FF3EC2FF534D4F6F
:100B4000444500544D4F4445004F4646004F4646ED
:100B5000000011241FBECFEFDFE3DEBFCDBF00E0FA
:100B60000CBF18BE19BE1ABE1BBE13E2A0E0B0E255
:100B7000E8ECF2ED00E00BBF02C007900D92A23648
:100B8000B107D9F71BBE2CE3A2E6B3E201C01D9268
:100B9000A93BB207E1F7F4D10C94626931CA8091A4
:100BA00050008460809350008091510082FFFCCF00
:100BB000809150008160809350008091510080FFAF
:100BC000FCCF809156008093560081EA80936D009F
:100BD00087E080936E0081E08093680088E18093D5
:100BE00055008091500080618093500080915100A9
:100BF00084FFFCCF809150008260809350008091F0
:100C0000510081FFFCCF809156008093560082E115
:100C1000809365008AE78093660021E0209360005E
:100C20003FB7F89488ED90E0A0E4B0E01BBEFD0172
:100C300084BF20833FBF8FE39FE10197F1F700C09E
:100C400000008091400087E08093A20088ED84BF7F
:100C500083E2809380008091820080FDFCCF089524
:100C600081E08CBFE0910020F0910120199508955A
:100C70008091780083FF0FC083E390E052D68823F1
:100C800051F08091780088608093780060E083E381
:100C900090E040D6E5CF0895E0E4F6E080E181837E
:100CA000858380EB818380E4828381E58093C00823
:100CB00008958093C3088091C20887FFFCCF80917C
:100CC000C3080895E0E0F6E080858295817008957C
:100CD000E0E0F6E0808585FB882780F90895109292
:100CE000000A1092010A8093260A9093270A109214
:100CF000200A1092210A80910C0A816080930C0ACC
:100D000088E08093000A80910C0A80FD02C0A895BB
:100D1000FACF1092000A0895CF93DF93EC0181344B
:100D2000910560F488EE93E09C01C29FC001C39FCF
:100D3000900DD29F900D1124D2DF05C088EE93E074
:100D4000CEDF2197D9F7DF91CF910895E0E0F8E069
:100D500010A211A228E020838FE39FE186A397A32E
:100D6000118281E08683E0E4F8E010A211A2808382
:100D70008FE190E086A397A388EC80938001E0E464
:100D8000F9E010A211A2208380E593EC86A397A33B
:100D9000168208950895CF92DF92EF92FF921F93EB
:100DA000CF93DF93EC016A017B01122FCB01BA01D3
:100DB000969587957795679560587B47814E9F4FAD
:100DC000A70196010E94A362215031093F832E831F
:100DD00083E08D8388E18C83C1148BE4D806E10421
:100DE000F10409F494C0D8F580E6C81689E0D80665
:100DF000E104F10409F47BC0C8F488E5C81682E078
:100E0000D806E104F10409F4A6C080EBC81684E01A
:100E1000D806E104F10409F467C08CE2C81681E049
:100E2000D806E104F10409F09FC05BC080E8C81651
:100E300085E2D806E104F10409F461C080E4C81633
:100E400088E3D806E104F10409F45DC080ECC8161B
:100E500082E1D806E104F10409F086C04CC0C11457
:100E600081EED806E104F10409F461C0C0F4C114B4
:100E700086E9D806E104F10409F451C08DE3C816EF
:100E800086E9D806E104F10409F44DC080E8C816EB
:100E900080E7D806E104F10409F066C03CC0C11443
:100EA00082ECD80681E0E806F10409F448C048F471
:100EB000C1148CE2D80681E0E806F10409F054C0C0
:100EC0003AC0C11484E8D80683E0E806F104D9F1F9
:100ED000C11488E0D80687E0E806F10409F044C0B0
:100EE00036C08FEC90E009C08CE090E036C08CE01A
:100EF00090E026E033C08CE090E025E02FC08CE04D
:100F000090E024E02BC08AE890E020E027C08CE04D
:100F100090E023E023C089E890E02FEF1FC08CE031
:100F200090E022E01BC08AED9CE02AEF17C087E822
:100F300090E02EEF13C08CE090E021E00FC083E83A
:100F400090E02DEF0BC08BE790E02CEF07C08BE615
:100F500090E02BEF03C089E190E027E08E8322959B
:100F6000207F292B2F831D83DF91CF911F91FF902D
:100F7000EF90DF90CF90089585D380E090E00895C2
:100F800077DE0DDE07DFE2DE60E070E08CEB97E0FD
:100F90000E94AC65C4E0C09381067EDE56D60E94F6
:100FA000393FAED60E9441340E94873178940E9426
:100FB000F9250E943E1386EB9FE28093CE25909305
:100FC000CF250E94DC198DE080936523C0938606AF
:100FD00018D099D60E943E370E9448156DD20E94C3
:100FE000602A0E94691B0E94212B0E94C12E0E9430
:100FF00017410E945F320E94B93C0E94581D02D0E6
:10100000E8CF08950895A1E0B0E0E9E0F8E00C949D
:10101000D762482F8A3008F048E088E0489F700186
:101020001124E5ECF2E0EE0EFF1E8BE290E0F701FA
:1010300064918C010F5F1F4F49836CD4FFEFEF1A4F
:10104000FF0AC80149810333110589F7455045302E
:1010500010F461E101C067E184E290E05BD4219685
:10106000E6E00C94F062CF93DF9382E090E0FC0125
:10107000E656FD4F6491EC0121964CD4CE01CB3263
:10108000D105A9F787E390E0FC01E45CFD4F649192
:10109000EC0121963FD4CE01C036D105A9F788E0F6
:1010A000B2DFDF91CF9108951F93CF93DF93C0E418
:1010B000D6E010E11E83806CFCDD80E0FADD1D834C
:1010C000DF91CF911F910895EF92FF921F93CF93DD
:1010D000DF931F92CDB7DEB790E4E92E96E0F92EAC
:1010E00010E1F701168380646983E3DD6981862F4F
:1010F000E0DDF70115830F90DF91CF911F91FF90F5
:10110000EF9008951F93CF93DF93C0E4D6E010E1F2
:101110001E83CFDD1D83DF91CF911F910895CF9363
:10112000CFEF09C08AE090E0DADDC11104C080E2AF
:1011300080930B0607C084E3E5DFC15080778031E0
:1011400089F7F5CFCF910895A2E0B0E0EAEAF8E0A0
:101150000C94D9628C01FC0181818737E9F441E06C
:10116000BE016F5F7F4FC801029651D3892BA1F05A
:1011700041E0BE016E5F7F4FC801049648D3892BC2
:1011800059F06A818981A0DF83E3BCDFC8DF8981F0
:101190003AD38A8138D32CC041E0BE016E5F7F4FC5
:1011A000C801019634D3892B21F18A81893969F4E8
:1011B00010E0812F79DF27D3812F8770873009F4E2
:1011C000AED21F5F1033A9F714C06EDF182F83E46F
:1011D00059D28A8118D385E193E094D2812F13D319
:1011E00089E193E08FD240E262E0812F90E09BD2D0
:1011F00096D22296E4E00C94F262CF9310920B0602
:1012000086E380DFCFEF05C08AE090E068DDCC2385
:1012100031F085E377DFC15080778032A9F7CF9135
:101220000895EF92FF920F931F93CF93DF93EC01FA
:101230001092EA2410E11093410610920B061093CD
:1012400045068EE190E04BDD109346068EE190E07E
:1012500046DD109345068DE290E041DD80E352DFEC
:1012600084E690E059DD1093460680E422DD8E018D
:10127000075D1F4F7E018FEFE81AF80ACE0151D3A8
:1012800018DDE701E016F106A9F780E18093450635
:10129000809346068EE70DDD8BE290E0EC0121960F
:1012A00040D307DDCE01C333D105C1F780E1809380
:1012B000450683E327DF81E090E02EDDCDB7DEB782
:1012C000E6E00C94F062A1E0B0E0E9E6F9E00C940D
:1012D000DB6222E0298341E0BE016F5F7F4F019610
:1012E00096D2898190DE82E090E09BDF2196E2E059
:1012F0000C94F46286E306DF1092D0251092E82465
:101300001092EA24089582E090E08BDF81E08093E0
:10131000D0251092E8241092EA2408951F93CF93C9
:10132000DF93D82F162FC0E085E3BEDE8D1739F08E
:10133000812F90E0D4DCC150B9F781E001C080E09A
:10134000DF91CF911F91089585E2AEDE8F3311F0CA
:1013500080E0089586E3D6DE80916223811104C087
:101360008DE193E0CFD102C08DE3CCDE83E3CADE12
:1013700064E081E0D3DF85E297DE8F3349F7809127
:101380006223811103C084E293E0BCD181E008951F
:1013900085E38ADE8D3051F485E286DE8F3331F4C9
:1013A000D3DF84E3AFDE80778031D9F708951F92D1
:1013B0000F920FB60F92112408B60F9218BE09B6FD
:1013C0000F9219BE0BB60F921BBE8F939F93AF93D4
:1013D000BF93EF93FF938091D2259091D325A09155
:1013E000D425B091D5250196A11DB11D8093D2259C
:1013F0009093D325A093D425B093D5258091D12562
:101400008F5F8093D125E4ECF6E2808191811816FC
:1014100019061CF4019780839183369686E2EC3D91
:10142000F80799F78091DE269091DF26009729F042
:1014300001978093DE269093DF268091F1268F3FDF
:1014400019F081508093F126FF91EF91BF91AF91F8
:101450009F918F910F900BBE0F9009BE0F9008BE09
:101460000F900FBE0F901F9018952FB7F8944091D2
:10147000D2255091D3256091D4257091D525FC01BA
:1014800040835183628373832FBF0895A4E0B0E04B
:10149000ECE4FAE00C94DB62CE010196E6DF8C818D
:1014A000B2D18B81B0D18A81AED18981ACD137D113
:1014B0002496E2E00C94F4621F93CF93DF93809123
:1014C000D2259091D325A091D425B091D5252091F6
:1014D0006323281709F460C08091D2259091D32509
:1014E000A091D425B091D52580936323A895C4EC11
:1014F000D6E210E028813981232B19F4812F0E9434
:101500008B281F5F26961430A9F78091DE269091D4
:10151000DF26892B11F40E94E3288091F1268111A6
:1015200002C00E943E2980916526882339F08150AF
:1015300080936526811102C00E94021C8091D125F2
:101540008D3750F11092D1250E9430628091022097
:1015500081FF03C084E0809387068091D625909117
:10156000D725843823E0920728F401968093D62566
:101570009093D725809164238F5F809364238C336D
:1015800059F4109264238091C3268F5F8093C32601
:101590008C3310F01092C326DF91CF911F910895E4
:1015A000CF93DF93FC018381843509F068C080818B
:1015B00020E030E0422F435F481750F050E090E0C9
:1015C0009C012F5031094217530709F058C00AC037
:1015D0002F5F3F4FDF01A20FB31F1F969C919B33DC
:1015E00049F7ECCFAC014E5051094E0F5F1FDA01A5
:1015F00013962C91243509F042C0DC011B97AE0FE5
:10160000BF1F348111962C911197321338C0358148
:1016100012962C911297321332C0368113962C9168
:10162000139732132CC0378114962C9114973213D0
:1016300026C0419715962C9115978E0F9F1FEC0190
:101640002B8316968C911697EA01898319968C91B3
:1016500019978A831A968C911A978B831B968C9173
:101660001B978C831C968C911C978D831D968C9157
:101670008E8380818A50808382818A508283DF9129
:10168000CF910895CF93C82F8091652382FF04C026
:101690006C2F81E293E3C2D380917F38843041F490
:1016A0008091652380FF04C06C2F83E097E2B6D35E
:1016B000809170268823C9F08091652383FF15C02F
:1016C000CA3099F0CD3011F46BE301C06C2F80EE7D
:1016D00095E2A4D3CD3019F480EE95E261DF83E08A
:1016E0008093652682E080936B26CF910895CF93F7
:1016F000DF93EC0101C0C6DF89918111FCCFDF913E
:10170000CF910895CF93DF93EC0102C0BBDF219608
:10171000FE0184918111FACFDF91CF9108958DE080
:10172000B1DF8AE0AFCFA6E0B0E0E9E9FBE00C94DE
:10173000D962062F1E8215E02AE030E01150E1E068
:10174000F0E0EC0FFD1FE10FF11DB9010E947C627A
:10175000805D8083CB010150009759F01111EECFCD
:1017600008C01150E1E0F0E0EC0FFD1FE10FF11DAA
:101770004083015007FD02C01111F3CF81E090E0DA
:101780008C0F9D1F810F911DB2DF2696E4E00C9413
:10179000F262A5E0B0E0EFECFBE00C94DB621D82AE
:1017A00024E0382F3F702150E22FF0E03A3010F45F
:1017B000305D01C0395CA1E0B0E0AC0FBD1FEA0FA5
:1017C000FB1F308334E0969587953A95E1F7615099
:1017D000009739F708C02150E1E0F0E0EC0FFD1F61
:1017E000E20FF11D4083615067FD02C02111F3CF6C
:1017F00081E090E08C0F9D1F820F911D78DF259670
:10180000E2E00C94F46240E362E090E0C2CFFB01BE
:1018100022C0213608F02052A22FA053AA3010F483
:101820002A2F05C0A22FA154A63018F42753232B2A
:1018300005C0203291F02A3381F005C0552331F0E4
:101840002193415041F4E61BF70B0DC0322F329526
:10185000307F51E002C050E030E0DC012D91CD013D
:101860002111D7CFF0CFCF010895FB0114C0532F22
:1018700050535A3040F45AE0259F300D1124232F45
:10188000205351E00CC0303211F03E3289F4442331
:1018900029F02193415050E020E001C050E0DC01EC
:1018A0003D91CD013111E3CF552311F04111219329
:1018B000E61BF70BCF01089520E030E05AE00EC0A0
:1018C000E42FE053EA3050F4F9015E9F90015F9FEE
:1018D000300D112420533109240F311DFC01419199
:1018E000CF014111EDCFFB01208331830895982F63
:1018F00092959F709A3010F4905D01C0995CFB0145
:1019000090838F708A3010F4805D01C0895CFB0188
:10191000818308950E945B688091CF0187FDFCCF91
:1019200008950C944B6808951F93CF93DF930AC0DA
:10193000EC012196F6DF67DF112311F08AE3A2DEC6
:10194000612FCE01162F11506111F2CFDF91CF918F
:101950001F910895ABE0B0E0E0EBFCE00C94D9629D
:10196000FC012181283779F52281222309F438C02E
:1019700023812223A9F141E0BE01655F7F4F0296DA
:1019800046DF8B8540DF8BE293E0BCDE8E010F5F8C
:101990001F4FB8018B850E94533F811110C01B86D9
:1019A0000AC0F801E80FF11D80812DDF80E26ADEB8
:1019B0008B858F5F8B878B858A3098F337C08FE25A
:1019C00093E0A0DE33C02D3421F466E08AEF97E087
:1019D00005C0203529F460E18AED97E0A5DF26C037
:1019E0001A82198242E0BE016F5F7F4F01960FDFBE
:1019F000823011F48A8101C089818B878B8590E0C8
:101A000090DF182F82E53EDE40E364E08B8590E0B6
:101A1000C0DE82E393E076DE812FF5DE86E393E09D
:101A200071DE40E262E0812F90E07DDE78DE2B9671
:101A3000E4E00C94F262A6E0B0E0E1E2FDE00C9498
:101A4000D5628C01FC0181818837D9F48281882399
:101A500009F456C08381882309F452C08481882305
:101A600009F44EC041E0BE016F5F7F4FC80103968D
:101A7000CEDE41E050E0BE016F5F7F4FF801828112
:101A80007CC0893609F03CC0F80182818D3651F462
:101A900046E0BE016F5F7F4FC8010396B8DE82E06B
:101AA00046E067C0843649F4BE016F5F7F4FC801CE
:101AB000039602DF83E041E05CC0813649F444E0F4
:101AC000BE016F5F7F4FC8010396CFDE84E016C072
:101AD0008E3649F444E0BE016F5F7F4FC801039624
:101AE000C4DE85E00BC0873609F049C044E0BE0182
:101AF0006F5F7F4FC8010396B8DE86E044E039C0CF
:101B000043E0BE016F5F7F4FC801019680DE8230E7
:101B1000B0F12981823019F4C22ED12C04C0D22E0A
:101B2000C12C2A81C22A7C01FF24FE01EE0DFF1D7B
:101B30006081C601EFDEEE0CFF1CFFEFEF1AFF0A1B
:101B4000E00EF11E11C041E0BE016F5F7F4FC70183
:101B50005EDE892BA1F08FEFC81AD80A6981C60111
:101B6000D9DEE2E0EE0EF11CF70180818111EBCFAE
:101B700006C050E0BE016F5F7F4F0E94823F2696F5
:101B8000E8E00C94EE6241E062E070E201963FDE34
:101B90006091022084E060FF03C08093850602C04C
:101BA0008093860684E390E0B5CEA1E0B0E0EBED53
:101BB000FDE00C94DB621982009731F041E0BE0138
:101BC0006F5F7F4F019623DE89818F3F09F4FFCF3E
:101BD000882321F061E083E390E09CDEF89493E0B9
:101BE00088ED08B684BF90938000A89508BEFFCF0B
:101BF000CF93DF93EC0162E080E090E08BDE62E463
:101C000081E090E087DE2FDA60E080E690E082DE1F
:101C100060E081E690E07EDE60E083E390E07ADEE3
:101C200062E084E390E076DE60E080E690E072DEE1
:101C300060E081E690E06EDE8981883719F080E00F
:101C400090E0B3DFDF91CF91089580E090E069DE0E
:101C5000823029F481E090E064DE823419F080E083
:101C600090E0C6DF84E390E05CDE8093022008957C
:101C7000FC018181883419F48AE393E002C082E494
:101C800093E040DD4CCDCF931FC08EE190E20E94E7
:101C9000BA4B97FF15C083E49EE08093CC259093C8
:101CA000CD25E091CE25F091CF2581E01995809149
:101CB0001F200E948048809105278823F9F009C0E1
:101CC000682F86E897E2AAD08091882787FFDDCF2A
:101CD000E2CF0E941F4981110AC010C083E097E241
:101CE000B3D0682F8EE190E20E94294B01C0C1E47D
:101CF00080910527882311F0C15081F7CF91089575
:101D00000C94554A0895BFDF8EE190E20E94A14BEA
:101D100083E090E20E94A14B0C943C470895089503
:101D20008EE190E20E94054B83E090E20C94054B1B
:101D30008EE190E20E94114C83E090E20C94114CF1
:101D4000FC018081823039F5A18DA150A23028F4A8
:101D5000B0E0AD53BE4D4C9101C040E0808D82306B
:101D600009F44860828D873059F018F4863069F4A0
:101D700005C0883039F0893041F406C0416005C0A3
:101D8000426003C0436001C04760648975898689E9
:101D900097890C94BC330895292F332722303105BD
:101DA00039F02330310549F02130310521F128C0C7
:101DB000E3E8F0E08CE793E027C0992781309105B4
:101DC00061F08230910581F0892BD1F4E8E7F3E0EE
:101DD000E491F0E088E793E017C0E0E6F3E0E491F7
:101DE000F0E080E693E010C0E0E5F3E0E491F0E09D
:101DF00080E593E009C0E2E1F0E08FEF93E004C0FA
:101E0000E0E0F0E080E090E0DA018D939C93CF0178
:101E10000895FC011282108211820895FC018FB78F
:101E2000F894928197FD0EC09F5F92839081DF01AD
:101E3000A90FB11D13966C939F5F903811F090839A
:101E400001C010828FBF0895FC019FB7F894828172
:101E5000811101C00EC0815082832181DF01A20F58
:101E6000B11D13968C912F5F203811F0218301C092
:101E700011829FBF0895FA013081882369F0DB0148
:101E8000A30FB11DE1E0F0E0022E01C0EE0F0A94B5
:101E9000EAF79C919E2B9C93222319F0822F81506C
:101EA0000BC0832F8F5F8C3010F4FA018083FB010D
:101EB000E80FF11D108287E090E00895CF93C82FBE
:101EC00080E180930506CC2319F080916A2302C03B
:101ED0008091682320E1829FC00111240E946F0637
:101EE00080E180930606CC2319F08091692302C01B
:101EF0008091672320E1829FC00111240E946F0618
:101F0000CF910895A6E0B0E0E8E8FFE00C94CB6242
:101F10006C016983942EA22EEA82842F90E08D8337
:101F20009E832091D6253091D7250296089F802D3B
:101F30001124992787FD90952817390720F481E10E
:101F400094E0E0DB84C0281B390B2093D625309326
:101F5000D72584E0809385068091EA24882339F090
:101F60001092EA2484E592E2B2D311E001C010E0BD
:101F70008091D025811101C0C6D93FD9F981EF2FB9
:101F8000F0E0EB83FC83EE24E394F12CB12CC6014A
:101F9000890D911D97FC9A954C01612C712C05C0FF
:101FA00080E08CDF9FEF691A790AEB81FC816E1665
:101FB0007F06B4F3F981FF2311F081E07FDF412C2C
:101FC000512C17C097E0292E312C3601640C751C5A
:101FD000C701022C01C0880F0A94EAF7F30190812F
:101FE00089236CDFF1E02F1A310890F79FEF491A2F
:101FF000590AED81FE814E165F0624F387E0682EB4
:10200000712C0DC0C701062C01C0880F0A94EAF795
:10201000F4019081892352DFF1E06F1A7108A61450
:10202000B70484F38A8190E00E948C06015009F085
:10203000B4CF8091D925882311F071D802C086E3EE
:1020400061D811110E94D02C84E0809386062696D8
:10205000E2E10C94E462ADE0B0E0E1E3F0E10C9485
:10206000CE627C01162F842F022F6701C60ED11C71
:10207000462FB70141D3D6018C931F5F1D8619826D
:102080005E2C670127E088248394912C32C047E0BE
:10209000A42EB12C3701680E711CF4010A2C01C06A
:1020A000EE0F0A94EAF7D3018C91AE01435F5F4FC4
:1020B000BE016F5F7F4F8E23DEDE282FB1E0AB1AAB
:1020C000B10858F7D601ED916D010E2EE295E0258D
:1020D0000E2EE695E695E025F0E03196E1FB8827A7
:1020E00080F9AE01435F5F4FBE016F5F7F4FC3DE7C
:1020F000282F8C2D8519811708F4C9CF222311F0C0
:10210000215004C08D858F5F8D8727E089E1809302
:1021100067238093682385E28093692380936A23F1
:102120003AE0E32E4D856CE0CE010196EBDE2D9674
:10213000EFE00C94E762ADE0B0E0E1EAF0E10C948E
:10214000DA62162F242F4BE0BE016F5F7F4F01969E
:102150002D875DDB2D85412F682FCE0101967BDF1A
:102160002D96E3E00C94F36243E066E0E4CFEF9257
:102170000F93CF93DF93CDB7DEB76097CDBFDEBFB0
:1021800040E1BE016F5F7F4F019641DB69814A816B
:102190000B818C81809368238D81809367238E814E
:1021A00080936A238F8180936923E02EE2947FE0FD
:1021B000E7220F70242F2F7042954F70CE010896A2
:1021C000A1DE6096CDBFDEBFDF91CF910F91EF9082
:1021D0000895A9E1B0E0EFEEF0E10C94D3624BE09A
:1021E000BE016F5F7F4F019612DB182F893009F017
:1021F0005BC099E1909367239093682390936A233F
:1022000082E38093692369E0CE0101967FD2E1E009
:10221000F0E0EC0FFD1FE10FF11D8083198E1D868C
:102220008E010F5F1F4F6E018BE0C80ED11C27E09F
:10223000AA24A394B12C25C0E12CF12CF5010E2C7D
:1022400001C0EE0F0A94EAF7D8018C91AE01475E07
:102250005F4FBE01635F7F4F8E230DDE282FBFEFE0
:10226000EB1AFB0A88E0E816F10441F7AE01475E7D
:102270005F4FBE01635F7F4F81E0FDDD282F0F5F61
:102280001F4F0C151D05C1F6222311F0215004C06B
:10229000898D8F5F898F27E0EAE0EE2E03E0498D7C
:1022A0006CE0CE010D962EDE6996EAE00C94EC62AD
:1022B000A9E1B0E0EEE5F1E10C94CE624BE08E01D5
:1022C0000F5F1F4FB8010196A2DAF82E582E85E352
:1022D0008093682396E19093672390936A23809379
:1022E00069236F2DC8011ED2F801EF0DF11D808307
:1022F0005394198E1D86780127E0AA24A394B12C4B
:1023000048014DC0C12CD12C3401680E711CF5015F
:102310000C2C01C0EE0F0A94EAF7D3018C91AE01A8
:10232000475E5F4FBE01635F7F4F8E23A4DD282F82
:10233000BFEFCB1ADB0A84E0C816D10441F7AE0127
:10234000475E5F4FBE01635F7F4F81E094DD282FC2
:10235000B4E0CB2ED12CF5010C2C01C0EE0F0A9469
:10236000EAF7D7018C91AE01475E5F4FBE01635F14
:102370007F4F8E2380DD282FBFEFCB1ADB0A88E04A
:10238000C816D10441F7AE01475E5F4FBE01635FDF
:102390007F4F81E070DD282FAFEFEA1AFA0A8E2D09
:1023A000801B851508F4AECFAAE0EA2E03E0498D24
:1023B0006AE0CE010D96A6DD6996EFE00C94E76227
:1023C000EF920F93CF93DF9300D01F92CDB7DEB77C
:1023D00043E0BE016F5F7F4F019619DA8AE6809372
:1023E000682394E29093672391E290936A23809309
:1023F000692380E88C839FE0E92E03E026E043E038
:1024000060E0CE0101967EDD2496CDBFDEBFDF9178
:10241000CF910F91EF9008956F927F928F929F923C
:10242000BF92CF92DF92FF920F931F93CF93DF93D0
:10243000A62F1092DB231092DC23FC016181660F32
:10244000660F660F2381621B695F1092DD23F12CFA
:1024500070E047E0F7E0DF2EC12C20E007E010E05D
:10246000C1E0D0E07DC0FC01EC0DF11D248130E025
:102470000D2C02C0359527950A94E2F72170332779
:10248000522FDD2011F0DA9403C0C394E7E0DE2E72
:10249000AB3491F4433009F081C0F11007C0511101
:1024A0005CC01092DB237093DC2376C0F12C79C0E2
:1024B000AB3409F050C03CC04F3F41F5A634B9F4ED
:1024C000E72FF0E0E352FC4D4081042E4295402579
:1024D000042E46954695402550E04F5F5F4F41FBE7
:1024E000882480F8912C8216930641F004C0A5340C
:1024F00029F4511103C0F092DB23D5CF7F5FE72F82
:10250000F0E0E352FC4D108247E029C0552319F159
:10251000A63459F4E72FF0E0E352FC4D9E01042E5F
:1025200001C0220F0A94EAF713C0A53409F0C0CF06
:10253000E72FF0E0E352FC4D9801241B310947FDE1
:1025400033953E0102C0660C771C2A95E2F7930191
:102550003081322B3083415002C0FF24F3942B2D65
:10256000B22EB394261708F47ECFF092DB2370933B
:10257000DC236B1588F4A53419F44F3F09F404C02B
:102580008091DB23882319F07F5F7093DC2381E047
:102590009091DC23911108C080E006C04F3F09F400
:1025A000A8CF5111C5CFD7CFDF91CF911F910F91F8
:1025B000FF90DF90CF90BF909F908F907F906F9013
:1025C0000895E0E4F9E01682E0910E248CE1E89FA2
:1025D000F0011124E559FC4D10820895FC01218180
:1025E000243108F0EECF662389F0DC01A20FB11D83
:1025F00081E090E0038002C0880F991F0A94E2F7FF
:1026000014969C911497982B14969C9383818823FD
:1026100019F081508383089587E083832F5F21839E
:10262000E20FF11D14820895DC0111962C9111978F
:1026300030E050E0F901E41BF50B8C91EC30F10532
:10264000DCF4E53FFF4FC4F090E070E0FC01E61BD6
:10265000F70BEC30F10584F4E53FFF4F6CF0280FE9
:10266000391F640F751F261B370B2C30310524F4DE
:1026700081E0253F3F4F0CF480E00895E0E0F6E074
:1026800080E18183868380E28283158A81858C60E4
:10269000818782EC91E08093D6259093D725109284
:1026A00087231092A3231092BF231092D025089560
:1026B00080918F2581110AC08091D925882321F02E
:1026C0000E9483090C948F080C947A090895FC01E8
:1026D000218121110BC08091D92595D840E265E078
:1026E0008091D6259091D7251ED819C841E069ED73
:1026F00075E201968CD8DCCF06C04150FB01E40F97
:10270000F11D9081890F4111F8CF089520E006C096
:102710006150FC01E60FF11D308123276111F8CFD4
:10272000822F0895A091DB2340E035E020E012C025
:102730006150FC01E60FF11D5081752F72957F707D
:102740002727370FAA2311F0442319F05F7025279C
:10275000350F4F5F6111ECCF320F40E1349FC00164
:102760001124822B0895FC0132812381A081B18143
:10277000A30FB11D8C9190E0022E02C09595879514
:102780000A94E2F78170922F91509383211104C033
:102790003F5F328397E0938308958F929F92BF9219
:1027A000CF92DF92EF92FF920F931F93CF93DF931D
:1027B0001F921F92CDB7DEB76C01812C912CB12CEA
:1027C000EE24E394F12C062F10E0015011091DC0F6
:1027D000C6014A836983C7DF4A816981882391F0F2
:1027E000442349F09801281939098E2D01C0880F1A
:1027F0002A95EAF706C08E2D082C01C0880F0A948E
:10280000EAF7B82A8FEF881A980A861608F38B2DF4
:102810000F900F90DF91CF911F910F91FF90EF904C
:10282000DF90CF90BF909F908F900895A4E0B0E08C
:10283000ECE1F4E10C94D2621B8227E02C839C0132
:102840002C5F3F4F29833A831092DC23FC012181C6
:10285000338187E090E0831B9109F8E02F9F800D82
:10286000911D1124853491057CF554C00A2D10E08A
:1028700040E068E0CE01019690DF03521C4DF80164
:102880008083982E092C92949024092C96949694E7
:102890009024CE01019667DF292D30E02F5F3F4F56
:1028A00021FBCC24C0F8D12C90E0C816D90691F5B4
:1028B000CE01019658DF81112DC0F8018081B82624
:1028C000A394A092DC2301C0B12CA090DC23F5E0FE
:1028D000FA1560F640E068E0CE0101965EDF082F51
:1028E000182F012E12951025012E169516951025DC
:1028F000CE01019638DF212F30E02F5F3F4F21FBC3
:10290000EE24E0F8F12C282F30E0E216F30611F463
:1029100081E0B01280E02496EBE00C94EB62A5E03D
:10292000B0E0E5E9F4E10C94D862FC011B8287E099
:102930008C83CF01049689839A838081853009F046
:1029400050C02181338187E090E0831B910938E0FA
:10295000239F800D911D11248039910509F041C0FC
:102960001092DC230FE010EF29E812C0CE0101968F
:102970002D8313DF080F111DEF2DF0E0E352FC4D06
:102980002D8128272083282F2C5DF394F092DC23BF
:10299000F090DC238EE041E068E08F1538F7CE013F
:1029A0000196FBDE080F111DEF2DF0E0E352FC4D08
:1029B00080958083F394F092DC2341E068E0CE01BF
:1029C0000196EBDE382F20E0021B130B41E068E09C
:1029D000CE010196E2DE282F30E081E002171307D6
:1029E00009F080E02596E5E00C94F162A4E0B0E007
:1029F000ECEFF4E10C94DA621B8227E02C839C015B
:102A00002C5F3F4F29833A83FC012181243099F5C3
:102A10008381813081F51092DC2314C0111106C02E
:102A200067E0CE010196B9DE806804C068E0CE019F
:102A30000196B3DEE12FF0E0E352FC4D80831F5F8F
:102A40001093DC231091DC2341E0143038F367E06D
:102A5000CE010196A2DEE12FF0E0E352FC4D880F9B
:102A600080831F5F1093DC239091DD2392959F70EC
:102A700081E09A3009F080E02496E3E00C94F36260
:102A80008091D82580FD03C084608093D825089567
:102A9000A1E0B0E0EEE4F5E10C94D76219828091F8
:102AA000F1238823B9F18091D92587FF17C084E3EA
:102AB0000E9454088058803458F0803C58F490E0CC
:102AC00080559109B3E095958795BA95E1F703C0D4
:102AD00080E001C08FE08F590E94420B8091D92580
:102AE00083FF16C082E70E94420B8091D92584FFA4
:102AF00004C08091F2230E94420B86E60E94420BA2
:102B00008091D92584FF04C08091F1230E94420B5B
:102B10001092F1238091F323882309F44EC284E0BC
:102B2000809385060091F4232CE1029F80011124FB
:102B300005591C4D8981811106C0C801F0DE88232A
:102B400011F083E58983898181113DC066E4C80164
:102B500063DC8823C1F1F090DC23FA94F092DC234B
:102B60004F2D6DED73E286E0C7DD6F2D70E0FB0148
:102B7000E352FC4DE0808E1105C093E09F1510F4E8
:102B800086E41EC0282F30E02F5F3F4FEE2DF0E08F
:102B90002E173F0751F4E3E0EF1538F496E49983DC
:102BA000FB01E352FC4D80830EC04F2D6DED73E2AF
:102BB0008CE0A2DD8E1106C0F3E0FF1518F484E569
:102BC000898301C019828981811116C065E4C80119
:102BD00023DC882389F08091DC2381508093DC23DF
:102BE000893051F469E08DED93E290DD9091E62318
:102BF000891302C085E489838981811106C0C801D7
:102C000015DE882311F088E489838981811106C04B
:102C1000C801ECDE882311F084E789838981811162
:102C200033C0F801438D6091F223C8014A96FCDC61
:102C3000682FC801D3DC6BE4C801EEDB8823B1F058
:102C4000F090DC23FA94F092DC236F2D8DED93E26B
:102C500069DDEF2DF0E09091DB23E91BF109E352F0
:102C6000FC4D9081891302C08BE489838981811195
:102C70000BC0F8018381982F9F5F9383873021F4E5
:102C80001382818181508183898181112AC0F80159
:102C90008181843031F58381843019F54EE16CE314
:102CA000C8014896C1DC8823E1F04EE16091F2232F
:102CB000C8014A96B9DC682FC80190DC20E0822F59
:102CC00090E0FC01E352FC4DD801A80FB91F149607
:102CD0008C9180832F5F253090F32093DC2382E555
:102CE00089833981332309F4DAC02091D92520FF63
:102CF000D6C08091D8258E7F8B7F8093D82521FDEB
:102D000064C05091F523F090DC235F113DC040E09A
:102D100017C0842F90E0642F6F5FFC01EA50FC4DD8
:102D2000DC01A352BC4D70818C91781741F0409327
:102D3000F5238091D8258D7F8093D82505C0462F17
:102D4000451738F34093F52345131EC04091D22513
:102D50005091D3256091D4257091D52580910A2476
:102D600090910B24A0910C24B0910D24481B590B79
:102D70006A0B7B0B463251056105710528F4809181
:102D8000D82581608093D82540E00BC0842F90E047
:102D9000FC01EA50FC4DDC01A352BC4D8C918083B8
:102DA0004F5F4F1598F34093F5238091D225909172
:102DB000D325A091D425B091D52580930A24909352
:102DC0000B24A0930C24B0930D243435F1F426FD8C
:102DD0001CC08091DC238530C0F08091DF238B34D0
:102DE00079F0893669F0833559F0843549F08D37AB
:102DF00039F08E3729F08091E0238077803729F4ED
:102E00008091D82581608093D825B801CE010196A4
:102E100037DE8981843569F490917026992349F0D1
:102E20009091C226911105C09091D8259B7F9093D7
:102E3000D8259091D82592FF32C00E94420B8091F4
:102E4000DB23882329F08091DC2381508093DC23CD
:102E5000F12C08C0EF2DF0E0E352FC4D80810E9480
:102E6000030CF394E091DC23FE16A0F38091DB23A6
:102E7000882351F0F0E0E352FC4D808140E361E0B3
:102E80008F7090E00E94C90B8091D92585FF05C005
:102E900084E30E9454080E94030C0E948F0B8091CF
:102EA000D92582FF6FC080E70E94420B40E262E0BA
:102EB000F801808190E00E94930BF801808D40E240
:102EC00065E0F0E18F9FC00111240E94930BF8018F
:102ED000818D40E265E0F0E18F9FC00111240E94E6
:102EE000930BF801828D40E265E0F0E18F9FC00115
:102EF00011240E94930BF801838D40E265E0F0E11C
:102F00008F9FC00111240E94930B40E263E0F801FF
:102F1000828190E00E94930B40E263E0F80181819E
:102F200090E00E94930BF801238140E262E087E089
:102F300090E0821B91090E94930B80E20E94420B59
:102F40008091D92585FF08C084E30E9454080E941F
:102F5000030C80E20E94420BF8018381873019F054
:102F600081818F5F8183F12C07C0F801EF0DF11D86
:102F700084810E94030CF394F8018181F816A8F370
:102F80000E948F0BF80110828091F323815080936F
:102F9000F3238091F4238F5F843019F08093F4231E
:102FA00002C01092F42384E08093860689818435E0
:102FB00021F48DED93E20E944D292196E6E00C94D8
:102FC000F0621F920F920FB60F92112408B60F9263
:102FD00018BE09B60F9219BE0BB60F921BBE2F93E7
:102FE0003F934F935F936F937F938F939F93AF9391
:102FF000BF93EF93FF93109246098091D92583FFE9
:1030000003C08EE20E94420B80910E249CE1899FB6
:10301000F0011124E559FC4D9081933018F0918115
:10302000923010F4CEDA18C09091F323933049F423
:103030008091D92582FFF6CF88E194E00E94820B2F
:10304000F1CF9F5F9093F3238F5F843019F08093CB
:103050000E2402C010920E24FF91EF91BF91AF9108
:103060009F918F917F916F915F914F913F912F91A0
:103070000F900BBE0F9009BE0F9008BE0F900FBEB1
:103080000F901F901895982F9552973160F46A30E1
:1030900050F0673240F421E030E0681710F020E093
:1030A00030E0C901089580E090E008951F920F92EA
:1030B0000FB60F92112408B60F9218BE09B60F92E0
:1030C00019BE0AB60F921ABE0BB60F921BBEFF9224
:1030D0000F931F932F933F934F935F936F937F9320
:1030E0008F939F93AF93BF93CF93DF93EF93FF9310
:1030F00080910227882321F082E08093022727C154
:1031000080916626823021F483E0809366261FC179
:103110008091600990916109E4E096958795EA9520
:10312000E1F7182FC0910E248CE1C89FE001112413
:10313000C559DC4D8881843031F41E3208F407C152
:103140001F3448F0A5C0853031F4173108F4FFC0B2
:10315000183208F09DC00E94680681110EC0888157
:103160008450823038F461E0CE0138DA1092600980
:10317000109261091093F223EAC00091F223101B10
:103180001093F12310926009109261098881845094
:10319000823020F460E0CE0121DAD9C080914C0960
:1031A000816080934C09F880F1100DC0053608F05D
:1031B000CEC0153608F0CBC0088F198F81E08A8306
:1031C00082E08883C4C082E0412F602FF81270C073
:1031D000CE01489629DA882301F1888D90E09C0180
:1031E000220F331F280F391F200F311D35952795CA
:1031F00035952795288F298D30E0C901880F991FB3
:10320000820F931F810F911D9595879595958795B1
:10321000898F8A818F5F8A839AC08A81843008F47B
:1032200045C080EA9FE080936609909367098A8190
:103230008C3050F0888D298D30E0280F311D2536D7
:10324000310524F084E027C08A3088F0888D298DEC
:1032500030E0280F311D253231054CF485E088839C
:1032600088EE93E0809366099093670915C080917A
:10327000DF25882379F0612F802F05DF882351F027
:10328000688D898D00DF882329F081E08093662690
:1032900098D95DC083E088830A8F1B8F198287E0ED
:1032A0008B831C8281E08093460951C018827ECFB7
:1032B000CE014A96B9D9882301F161E0CE018ED9B9
:1032C0004A8D50E09A01220F331F240F351F200F23
:1032D000311D35952795359527952A8F2B8D30E013
:1032E000C901880F991F820F931F810F911D95951A
:1032F0008795959587958B8F2AC0412F602FCE019A
:10330000489692D9882301F160E0CE0167D9488DB3
:1033100050E09A01220F331F240F351F200F311D5B
:103320003595279535952795288F298D30E0C9014A
:10333000880F991F820F931F810F911D9595879577
:1033400095958795898F03C087E0F812A1CFFF91EB
:10335000EF91DF91CF91BF91AF919F918F917F912D
:103360006F915F914F913F912F911F910F91FF901E
:103370000F900BBE0F900ABE0F9009BE0F9008BEB3
:103380000F900FBE0F901F901895E0910E248CE1C6
:10339000E89FF0011124E559FC4D8081811109C09D
:1033A00081E090E02091F1262F3F29F480E090E029
:1033B000089581E090E0089580E690E00E94910CED
:1033C0008093DF2581E690E00E94910C8093702627
:1033D000882321F081E28093D9256AC9089520E1EC
:1033E000E0E0F6E025830C946F0620E1E0E0F6E0F3
:1033F00026830C946F06A7E0B0E0E1E0FAE10C94BC
:10340000D6629091E825943559F42091692630913F
:103410006A262F5F3F4F2093692630936A263EC06D
:10342000963459F420916726309168262F5F3F4FDC
:10343000209367263093682631C0953459F4209143
:10344000DC253091DD252F5F3F4F2093DC25309325
:10345000DD2524C09B3459F420916C2630916D26D3
:103460002F5F3F4F20936C2630936D2617C0983402
:1034700059F420916E2630916F262F5F3F4F209395
:103480006E2630936F260AC02091DA253091DB2515
:103490002F5F3F4F2093DA253093DB2595E7998303
:1034A000882399F0BE016E5F7F4F809170260E9445
:1034B000770CBE016C5F7F4F8091DF250E94770CF7
:1034C00085E58E8396E0D92E02C0DD24D3940E9438
:1034D00083090E94FD0816E080E891E080DF80E02B
:1034E00093E083DF1150C1F780E093E078DF80E85C
:1034F00091E07BDF80E891E072DF10E11093060637
:1035000087E390E00E94110983E090E00E948C061E
:10351000109346068FE70E9459068091E2258D0D93
:103520000E945906EE24E394F12CEC0EFD1E870157
:10353000F80181918F010E945906802F8E198D15F7
:10354000B8F306C080EE95E20E94240F0E9459064F
:103550008091E2258111F6CF80E1809345060E949B
:10356000FD0880EE95E20E94090F15E104C081E09C
:1035700090E00E948C068AE30E9454088F7711F035
:103580001150A9F795D82796E7E00C94EF62CF93F6
:10359000DF93EC018981811107C08091DF250E94B2
:1035A000030C8091702613C08436A1F48091D2253B
:1035B0009091D325A091D425B091D52540E364E026
:1035C0000E94C90B8EE20E94420B809165260E94E8
:1035D000030C4DC0833709F04DC040E361E080919A
:1035E000692690916A260E94C90B8EE20E94420BC6
:1035F00040E361E080916726909168260E94C90BA4
:103600008EE20E94420B40E361E08091DC259091C4
:10361000DD250E94C90B8EE20E94420B40E361E06F
:1036200080916C2690916D260E94C90B8EE20E94BB
:10363000420B40E361E080916E2690916F260E94DC
:10364000C90B8EE20E94420B40E361E08091DA25D3
:103650009091DB250E94C90B8EE20E94420B40E351
:1036600061E080916326909164260E94C90B0E94BC
:103670008F0B2CC08936D9F441E06FED75E2CE0195
:1036800002960E94070C6091DF2580E690E00E9480
:103690008A0C41E060E776E2CE0104960E94070CB6
:1036A0006091702681E690E00E948A0C0FC080EE47
:1036B00095E20E94090F219604C080EE95E20E94D7
:1036C0000E0F69916111F9CF80E095DEDF91CF9106
:1036D0000895A1E0B0E0EFE6FBE10C94D5628091A3
:1036E0006626882309F48AC0C090D225D090D325BD
:1036F000E090D425F090D525833009F065C08FE3A4
:103700000E945408182F8630E8F086E897E20E945D
:10371000090F80E1809346068FEF0E94590680E0F2
:103720000E945906082F08C080E00E945906682FA1
:1037300086E897E20E940E0F1150B1F780E1809366
:10374000450601C000E00E94581310926626053716
:1037500009F054C041E0BE016F5F7F4F89E897E2F6
:103760000E94070C019759F599818091DF259813E4
:1037700026C080918D27853571F406C086E897E2D2
:103780000E94240F0E94420B809188278111F6CF5E
:103790000E948F0B33C080918827845080938827A4
:1037A00084E0809387276AE086E897E20E940E0F04
:1037B000E091CE25F091CF2588E019951FC086E8CD
:1037C00097E20E94090F1AC0823059F49091DE25C9
:1037D0008C2D891B883090F00E9458131092662619
:1037E0000DC0813059F487E390E00E9411090E94D6
:1037F0008F0882E080936626C092DE252196E8E05D
:103800000C94EE62C2DD882361F083E080936B2626
:10381000809163269091642601968093632690930D
:10382000642680916B26815080936B26882321F03B
:1038300083E080936526089581E0DDCDCF93DF930B
:10384000C0E1C093410680E280930206C093450622
:103850008EE190E00E946F06C09346068EE190E0F4
:103860000E946F06C09345068DE290E00E946F06AD
:1038700080E30E94820884E690E00E946F068091B7
:10388000B2268933D1F4C0E0D0E0FE01EC57FB4F03
:103890006491FE01ED57FB4F84910E9464082296CB
:1038A000C233D10591F783E30E94820884E090E05F
:1038B0000E948C060E948F0826C0843389F4C0E0E1
:1038C000D0E0FE01EE5AFB4F6491FE01EF5AFB4F30
:1038D00084910E9464082296C233D10591F7E3CF08
:1038E000813309F7C0E0D0E0FE01E05EFB4F649158
:1038F000FE01E15EFB4F84910E9464082296C23370
:10390000D10591F7D0CFDF91CF910895DF92EF925B
:10391000FF920F931F93CF93DF93EC01E62E84E089
:10392000809385068091B226893341F464E182E177
:103930000E9464086E2D660F6D5E00C086E00E94D6
:1039400064080E94FD0880E1809346068FE70E948C
:1039500059068091B226893321F0FC2E0C2F1D2FA1
:1039600056C01FE086E60E9459061150D9F78AEA30
:103970000E94590685E50E945906DC2E0C2F1D2F4A
:1039800035C0F801F1908F01F7FE02C080E801C058
:1039900080E4F6FE02C090E201C090E1980FF5FECF
:1039A00002C088E001C084E0890FF4FE02C092E00A
:1039B00001C091E0890F0E945906F3FE02C080E821
:1039C00001C080E4F2FE02C090E201C090E1980FD5
:1039D000F1FE02C088E001C084E0890FF0FE02C061
:1039E00092E001C091E0890F0E945906802F8D1945
:1039F0008E1538F280E00E94590680E00E94590638
:103A00000AC0F80181918F0180950E945906802F8C
:103A10008F198E15B0F380E18093450685E30E94EF
:103A200054088331D9F36FEF86E00E9464088091D7
:103A3000B226893321F46EE182E10E9464080E947B
:103A40008F0884E0809386068D8186FF2CC080914C
:103A5000D2259091D325A091D425B091D525069655
:103A6000A11DB11D8093B3269093B426A093B526D3
:103A7000B093B62680910F248F5F80930F248230FD
:103A800060F08AE70E94420B82E70E94420B80911D
:103A90000F240E94030C0E948F0B80910F2483300F
:103AA00010F010920F24CDB7DEB7E7E00C94EF6270
:103AB00080911024882301F180910F248823D1F074
:103AC0004091D2255091D3256091D4257091D52570
:103AD0008091B3269091B426A091B526B091B626D8
:103AE00084179507A607B70728F46091B12681E7E8
:103AF00096E20CCF809100060895FC0121812237C7
:103B000011F02D3651F4FC018281811101C084E352
:103B10008093B2262093102491CE233771F4109213
:103B20000F2440E461E776E202960E94070C80933E
:103B3000B126682F81E796E2E9CE293671F5FC01BE
:103B40002281222331F045E067EB76E202960C9465
:103B5000070C809110240E94420B8091B2260E9493
:103B6000420B80E20E94420B8091B7260E94030C18
:103B70008091B8260E94030C8091B9260E94030C04
:103B80008091BA260E94030C80E20E94420B809131
:103B9000BB260E94030C0C948F0B109210240895E6
:103BA000CF93282F80913E2090913F20C0E1C09379
:103BB0000506213071F49C01220F331F820F931FE1
:103BC0000E946F06C093060680913E2090913F2090
:103BD00032C0211123C00E946F06C0930606809157
:103BE0003E2090913F209C01220F331F820F931F94
:103BF0000E946F06C093050680913E2090913F2061
:103C00000E946F06C093060680913E2090913F204F
:103C10009C01220F331F820F931F22C00E946F0648
:103C2000C093060680913E2090913F209C01220F78
:103C3000331F820F931F0E946F06C0930506809169
:103C40003E2090913F209C01220F331F820F931F33
:103C50000E946F06C093060680913E2090913F20FF
:103C60000E946F06CF910895CF93DF93C0E1C09378
:103C7000410680E280930206C09345068EE190E003
:103C80000E946F06C09346068EE190E00E946F0688
:103C9000C09345068DE290E00E946F0680E30E948B
:103CA000820884E690E00E946F06C093460680E496
:103CB0000E945906C5EBD4E0FE0184910E9459068A
:103CC0002196F4E0C23CDF07B9F7809139200E94C9
:103CD000590680913A200E94590680913B200E940B
:103CE0005906C0E0D0E0FE01EB53FB4F84910E94E7
:103CF00059062196C931D105B1F780E18093450677
:103D0000809346068EE70E9459068BE290E0EC0114
:103D100021960E94910C0E945906CE01C333D10511
:103D2000B1F780E18093450683E30E94820881E039
:103D300090E00E948C0681E08093D025DF91CF91A6
:103D40000895A0E0B0E0E7EAFEE10C94D362EC0154
:103D50008981843769F46EE370E2CE0102960E9495
:103D60005C0C40E260E080913E2090913F2012C0C8
:103D7000833709F0B4C08A81823789F46CE370E23A
:103D8000CE0103960E945C0C40E260E080913C20F2
:103D900090913D200E94930B0E948F0B15C184E0EF
:103DA0008093850680911324811117C08091E824A7
:103DB000882329F081E0809312241092E8248091D6
:103DC000EA24882329F081E0809311241092EA24C8
:103DD0004BDF83E090E00E948C0686E30E9482081D
:103DE0008AE30E9482088BE30E9482080E94FD08F9
:103DF00000E010E06E0182E0C80ED11CB0E1AB2EF5
:103E000025C0F70181917F01803311F480E005C066
:103E1000813311F481E001C082E0C2DEBA9489F7F7
:103E2000A092050680913E2090913F200E946F064F
:103E3000A0920606AFE1FA2E80913E2090913F209D
:103E40000E946F06FA94C1F70F5F1F4F80913C20CC
:103E500090913D200817190720F47601FCE0BF2E51
:103E6000D0CF80911324882341F08091D9258111EE
:103E70000FC086E30E94820819C080911224882313
:103E800051F0109212240E94C82A81E08093E82405
:103E90000E948F080BC080911124882329F0109272
:103EA00011240E94D02C02C00E94581384E08093F9
:103EB000860689E60E94420B83E70E94420B229607
:103EC00011E08991803309F404C0813309F401C001
:103ED00086E40E94420B1F5F1D3099F75DCF823749
:103EE000B9F48091E824882329F081E0809312249A
:103EF0001092E8248091EA24882329F081E08093BD
:103F000011241092EA24B0DE81E0809313245CC077
:103F1000863651F58A81803351F480E180933920CF
:103F200080EB80933A2081E780933B2007C043E0F9
:103F300069E370E2CE0102960E94070C89E60E94B6
:103F4000420B86E60E94420B8AE30E94420B80915C
:103F500039200E94030C80913A200E94030C80912A
:103F60003B200E94030C18CF883731F58091122432
:103F7000882341F0109212240E94C82A81E0809385
:103F8000E82411C080911124882329F01092112473
:103F90000E94D02C0EC082E090E00E941109809116
:103FA000D925882319F00E948F0803C086E30E9458
:103FB00082081092132408C0833631F46EE370E255
:103FC000CE0101960E945C0CCDB7DEB7EAE00C94FE
:103FD000EC62A2E0B0E0EFEEFFE10C94CB627C017A
:103FE000FC018181833709F0BBC1198287E090E031
:103FF0000E94FC628C0141E0BE016F5F7F4FC701F0
:1040000002960E94070C8981F801808341E0BE017D
:104010006F5F7F4FC70104960E94070C2981207FA4
:10402000F801218341E0BE016F5F7F4FC701069613
:104030002A830E94070C8981F801828341E0BE0136
:104040006F5F7F4FC70108960E94070C8981F801B6
:10405000838341E0BE016F5F7F4FC7010A960E94D4
:10406000070C8981F801868341E0BE016F5F7F4FB5
:10407000C7010C960E94070C8981F801858341E0F5
:10408000BE016F5F7F4FC7010E960E94070C8981AA
:10409000F801848380E090E02A814191342F3295A9
:1040A0003F70342783279F5F9730B9F78F70822B3B
:1040B000F801818387E090E00E94FC625C0187E068
:1040C000F801D50101900D928A95E1F7D80111967A
:1040D000C8010696F8013D91219123272083E81716
:1040E000F907C9F784E08093850680911624811131
:1040F0006EC08091E824882329F081E08093152404
:104100001092E8248091EA24882329F081E08093AA
:1041100014241092EA24A0E1FA2EF092410680E2E3
:1041200080930206F09245068EE190E00E946F06B1
:10413000F09246068EE190E00E946F06F0924506EE
:104140008DE290E00E946F0680E30E94820884E680
:1041500090E00E946F06F092460680E40E945906A5
:10416000BEEDEB2EB4E0FB2EF70184910E945906C0
:10417000FFEFEF1AFF0A27E0E21625E0F206A1F7AB
:1041800080E180934506809346068EE70E9459069B
:104190008BE290E07C01EFEFEE1AFE0A0E94910C98
:1041A0000E945906C70183339105A1F780E18093EE
:1041B000450683E30E94820881E090E00E948C061D
:1041C00081E08093D02583E090E00E948C0686E316
:1041D0000E9482088AE30E9482088BE30E94820880
:1041E0000E94FD0870E1F72EF092050687EC94E23C
:1041F0000E946F06F092060689E590E00E948C0608
:1042000085E392E00E946F06E12CF12CE0E15E2E46
:10421000F0E14F2E5DC0EE2011F027E001C022E05A
:10422000D12C5092050686EF99E02A830E946F06F2
:104230005092060686EF99E00E946F06D3942A8179
:10424000D2167CF3409205068CEF92E10E946F0635
:104250004092060680914020909141200E946F0676
:104260006801312CF60181906F0158E0252E60E83D
:10427000662E712C912C93012821392180914020A8
:1042800090914120232B39F4509205060E946F062D
:104290005092060606C0509206060E946F06509283
:1042A000050680914020909141200E946F067694EF
:1042B00067942A9401F73394F7E03F12D3CF5092DA
:1042C000060680E090E00E946F062FEFE21AF20AE5
:1042D0008091442090E0E816F9060CF49CCF809180
:1042E0001624882341F08091D92581110FC086E3DF
:1042F0000E94820819C080911524882351F01092E1
:1043000015240E94C82A81E08093E8240E948F0827
:104310000BC080911424882329F0109214240E9449
:10432000D02C02C00E94581384E08093860689E551
:104330000E94420B83E70E94420B750137E0D32EA7
:10434000F70181917F010E94030CDA94C9F70E9462
:104350008F0BC5010E949763C8010E9497636FC0CD
:104360008237A9F464E470E2C70102960E945C0CF3
:1043700089E50E94420B82E70E94420B8AE30E9479
:10438000420B40E260E08091442090E02CC08437F2
:1043900079F5F7018281803339F488ED94E08093D8
:1043A00042209093432006C062E470E2C701029667
:1043B0000E945C0C809142209091432096958795B5
:1043C000809340209093412089E50E94420B84E72E
:1043D0000E94420B8AE30E94420B40E266E0809119
:1043E0004220909143200E94930B0E948F0B27C084
:1043F000883729F580911524882341F010921524DF
:104400000E94C82A81E08093E82411C0809114247E
:10441000882329F0109214240E94D02C0EC082E030
:1044200090E00E9411098091D925882319F00E94FB
:104430008F0803C086E30E948208109216242296F9
:10444000E2E10C94E462CF93DF93C0E1C0934106B4
:1044500080E280930206C09345068EE190E00E94C0
:104460006F06C09346068EE190E00E946F06C093EF
:1044700045068DE290E00E946F0680E30E9482086C
:1044800084E690E00E946F06C093460680E40E9496
:104490005906C7E0D5E0FE0184910E945906219695
:1044A000F5E0C033DF07B9F780E1809345068093DC
:1044B00046068EE70E9459068BE290E0EC012196B9
:1044C0000E94910C0E945906CE01C333D105B1F769
:1044D00080E18093450683E30E94820881E090E0BA
:1044E0000E948C0681E08093D02580932A24DF915E
:1044F000CF910895A0E0B0E0E0E8F2E20C94D3623E
:104500008C018091BC26F801838364839DE0E92EB1
:10451000F12C20E1A22E0E94FD0885E30E945408A0
:10452000833169F080E395E00E94820B85E30E946D
:1045300054080E94030C0E948F0B85DF4AC04091F3
:10454000D2255091D3256091D4257091D5254093E3
:10455000BD265093BE266093BF267093C026A092BE
:1045600046068FE70E9459066801C0E0D0E08AEA5B
:10457000B82EF60180810E945906C930D10544F455
:10458000F6018081B826C730D10511F4F801B08654
:104590002196FFEFCF1ADF0ACF30D10551F7A09255
:1045A0004506C8EC85E30E945408833131F081E070
:1045B000E81AF10809F0AFCF07C081E090E00E944F
:1045C0008C06C15079F7F3CF8091BC268F5F809322
:1045D000BC26CDB7DEB7EAE00C94EC62ABE3B0E00A
:1045E000E4EFF2E20C94D1627C01DC010D9000203A
:1045F000E9F7AD0141505109481B590B6C01B2E07C
:10460000CB0ED11CBE01625D7F4FC6010E94070C1C
:10461000082F67E572E286E490E20E948865F70160
:104620001181812F8357823008F0DCC181E08093B3
:10463000282487858A3411F489E501C08EE48093AB
:104640004520A8958090D2259090D325A090D42580
:10465000B090D5254091D2255091D3256091D42595
:104660007091D5254093BD265093BE266093BF26FA
:104670007093C02680914520893509F054C08DE3A0
:1046800095E00E94820B89E495E00E94820BC701AD
:104690000E94770B80E695E00E94820BD7010D9077
:1046A0000020E9F7CD01019740E260E08E199F09F3
:1046B0000E94930B85E795E00E94820BF701019021
:1046C0000020E9F73197EE19FF09EE0DFF1D40E2DA
:1046D00060E0808190E00E94930B8DEB95E00E945A
:1046E000820B40E260E0802F90E00E94930B85E017
:1046F00096E00E94820B88E096E00E94820B40E3E5
:1047000064E08091BF269091C0260E94C90B40E3CF
:1047100064E08091BD269091BE260E94C90B8FE176
:1047200096E00E94820BD7010D900020E9F7519787
:10473000AE15BF0509F03DC142E0BE01625D7F4F8D
:10474000C6010E94070C029709F033C17CDE0EA55A
:10475000B701665F7F4F45E050E0CE0101960E94B1
:104760009D651E824AE050E060E070E0CE01019657
:104770000E9436646B017C0133E0F694E794D79491
:10478000C7943A95D1F7809145208935F1F482E2BA
:1047900096E00E94820BCE0101960E94770B89E37E
:1047A00096E00E94820B80E496E00E94820B40E338
:1047B00064E0C7010E94C90B40E364E0C6010E94A7
:1047C000C90B87E596E00E94820B8FE0E5ECF1E2F1
:1047D000DE015F9601900D928A95E1F78FA588A37F
:1047E00088A989A389A98EA3602FCE014F9682DE66
:1047F000133709F4EEC007FFECC04091BD2650917D
:10480000BE266091BF267091C0268091D2259091DE
:10481000D325A091D425B091D52588199909AA0945
:10482000BB098E379105A105B10548F48090D225CA
:104830009090D325A090D425B090D525A8958091AF
:10484000D2259091D325A091D425B091D525841B54
:10485000950BA60BB70BC816D906EA06FB06A8F6F9
:104860008090D2259090D325A090D425B090D525C6
:1048700080914520893509F073C08FE596E00E944C
:10488000820B40E364E0C5010E94C90B40E364E091
:10489000C4010E94C90B86E796E00E94820B8EE756
:1048A00096E00E94820B40E364E08091BF269091E5
:1048B000C0260E94C90B40E364E08091BD26909120
:1048C000BE260E94C90B85E996E00E94820B8DE905
:1048D00096E00E94820B40E364E0C7010E94C90B8E
:1048E00040E364E0C6010E94C90B84EB96E00E949D
:1048F000820B8CEB96E00E94820B8091D2259091E6
:10490000D325A091D425B091D5254091BD265091B5
:10491000BE266091BF267091C026841B950BA60B06
:10492000B70B40E364E0CD010E94C90B8091D22512
:104930009091D325A091D425B091D5252091BD2665
:104940003091BE26821B930B40E364E00E94C90BAA
:1049500083ED96E00E94820B8BED96E00E94820B25
:1049600067EFCE014F96C6DD4091BD265091BE2621
:104970006091BF267091C0268091D2259091D32559
:10498000A091D425B091D525841B950BA60BB70B10
:104990004597A105B10580F380914520893521F423
:1049A00084EE96E00E94820B67EFCE014F96A2DD67
:1049B00010C08DEE96E00E94820B40E260E08EE037
:1049C00090E00E94930B82E197E00E94820B10928C
:1049D0002A2480912924813011F40E948F0810929A
:1049E000282449C0123709F040C0F701828185347C
:1049F00051F41092292486E30E9482081092272401
:104A000086E397E02FC0833559F58381813311F414
:104A100081E003C0823321F482E08093272402C026
:104A20001092272481E0809329240DDD87E497E00C
:104A30000E94820B0E948F0885E30E9454088D30EB
:104A4000D1F08AE597E00E94820B85E30E9454082A
:104A50000E94030C0E948F0BF6DC109229240BC0DD
:104A600083E797E00E94820B06C085E997E00E94E9
:104A7000820B10922A24EB96ECE00C94EA621092DE
:104A8000DC261092D92483E08093DA248FEF809380
:104A9000F1260895EBE2F4E20EC0009751F0418157
:104AA000DC013C91431305C0428111963C914317B0
:104AB000B1F0E20FF11D2081211105C0892B41F0D9
:104AC000E0E0F0E00CC0B4E2E93DFB0730F3F6CFE4
:104AD00034E2E93DF30719F010F0E9EDF4E2CF011B
:104AE000089594E0899FF0011124EE50F94D8081E2
:104AF0008F3F91F08093DB2481818093DC2482813D
:104B00008093DD2483818093DE2421E04CE064E007
:104B10008BED94E20C942B10089581EE94E2BADFB1
:104B2000009799F02091DA24FC013081231768F472
:104B3000E20FF11D80818093E32489E78093E424D0
:104B400081818093E52481E0089580E00895EF92CB
:104B5000FF921F93CF93DF931F92CDB7DEB7182F2D
:104B60008091D92586FF18C084E599830E94420B65
:104B7000E12E9981F92E15E0F70181917F010E94C4
:104B8000030C1150C9F78091D92585FF03C08AEF26
:104B90000E94030C0E948F0B0F90DF91CF911F9109
:104BA000FF90EF90089586E30E9482088091E324AD
:104BB000833519F48BE990E002C08BE490E00E9409
:104BC0008C0621E04CE065E081EE94E20E942B101F
:104BD0000E948F0881EE94E2BACFE5DF8091E32452
:104BE000893631F081E08093E02489E28093F126D8
:104BF0000895CF9385E390E00E94910C8093C226A4
:104C000086E390E00E94910C8093F026CFEFC09352
:104C1000E026C093E226C093E426C093E626C09324
:104C2000E826C093EA26C093EC26C093EE2627DF41
:104C300010922B2481E08093C126C093F2268FEF3F
:104C40009FEF8093C4269093C5261092C62610929B
:104C5000C7261092C8261092C926C093F6268093C4
:104C6000CA269093CB261092CC261092CD26109275
:104C7000CE261092CF26C093FA268093D02690930A
:104C8000D1261092D2261092D3261092D4261092BA
:104C9000D526C093FE268093D6269093D7261092D1
:104CA000D8261092D9261092DA261092DB26CF91C0
:104CB0000895ACE0B0E0EFE5F6E20C94D4626C014C
:104CC0008C010F5F1F4F45E0BE016F5F7F4FC80132
:104CD0000E94070C843008F0F4C099819130A9F447
:104CE000833061F46A8185E390E00E948A0C6B81D5
:104CF00086E390E00E948A0C7CDF09C28091C22684
:104D00000E94030C8091F0269BC0923009F052C0A3
:104D1000813041F081E090E02A81213029F080E06B
:104D200090E002C081E090E0E82E80912B24811178
:104D300004C088EC97E00E94820B0BE214E230C0C2
:104D400034E20B32130719F080E20E94420BF801A3
:104D500081810E94030CF80182810E94030CE11002
:104D600005C0F8018081080F111D1AC08AE30E9456
:104D7000420B93E0F92E0FC0F3E0FF1528F4F0FE8C
:104D800003C08CE20E94420BF801EF0DF11DF39479
:104D900080810E94030CF8018081F81668F3E1CF4E
:104DA000F8018081882309F489C0F4E2093D1F07D6
:104DB00038F284C0933049F480E090E06BDE8B528F
:104DC00094429EEA981B892F3BC0903171F500EE0A
:104DD00016E281EEE82E86E2F82EC12CD12CF801E5
:104DE00080818F3FA1F0DD2019F080E20E94420B0C
:104DF0008C2D0E94030C8AE30E94420BF8018081F3
:104E00000E94030CF70180810E94030CD3940E5F73
:104E10001F4FC394F2E0EF0EF11C38E0C312DFCF56
:104E2000D1104CC08AEB97E047C0913161F480917A
:104E3000DE269091DF266DE770E00E947C62862F6F
:104E40000E94030C3BC09231C9F512EFE12E16E22D
:104E5000F12E05EF16E2C12CD12CF70180818F3F96
:104E6000F1F0DD2019F080E20E94420B8C2D0E94AF
:104E7000030C8AE30E94420BF70180810E94030C1D
:104E8000F801329780810E94030CF80131978081EC
:104E90000E94030CF80180810E94030CD394F4E07B
:104EA000EF0EF11CC3940C5F1F4F34E0C312D5CF3B
:104EB000D11004C08EEB97E00E94820B0E948F0BF2
:104EC00026C144E0BE01695F7F4FC8010E94070C04
:104ED0004F81493608F479C05A85688579855C30F8
:104EE00009F04DC020E030E080E090E0F901EE50A4
:104EF000F94D508154131CC0A181A61319C0A28181
:104F0000A71316C02CE023839C01220F331F280F08
:104F1000391FF901EE0FFF1FEC53F94D108211827A
:104F2000F901EE0FFF1FEA53F94D10821182D1C033
:104F30005F3FE9F4408328852183298522832CE083
:104F400023839C01220F331F280F391FF901EE0F15
:104F5000FF1FEC53F94D10821182F901EE0FFF1F74
:104F6000EA53F94D108211821092C126B2C0019607
:104F70002C5F3F4F2031310509F0B8CFC8C080E029
:104F800090E020E030E0FC01EE50F94DA081A41348
:104F900015C0A181A61312C0A281A7130FC053830D
:104FA000F901EE0FFF1FE20FF31FEE0FFF1FEA5391
:104FB000F94D81E090E080839183A9C02F5F3F4F3E
:104FC000049680319105F9F6A2C0E9818091C2264C
:104FD000E817C8F190E0F0E09C01295F3F4F2E17E1
:104FE0003F078CF13A812091F02632132CC02C819E
:104FF0002F3231F442E06CE0C6010E949B1087C062
:105000002C32B9F42D812093DD2681E090E080934D
:10501000DE269093DF268091D6259091D725E4E077
:105020002E9F800D911D11248093D6259093D72516
:105030006EC0E81BF90BEE0FF0E0E052F94D208353
:105040008D81818364C080E090E024DD7C01F801E3
:1050500001900020E9F73197E01BF10BF695E795F9
:10506000BE2EB394C7018B0D911D8B5294428F3A83
:1050700091050CF048C0F701B1928F0121E01AC0F0
:1050800041E0B801F601E80FF11DCF012C870E9425
:10509000070C2C85233058F020FD09C0D80111974A
:1050A0008C91843621F4F80180818093C3262F5F90
:1050B0000F5F1F4F822F880F81502B1508F3F9EDDA
:1050C000EF16F4E2FF0618F5F701E20FF11D10826A
:1050D0001EC022E04CE064E0CE0107960E942B1037
:1050E0008FE08A8722E04CE064E0CE0107960E94C0
:1050F0002B1082E08A8722E04CE064E0CE01079624
:105100000E942B1004C082EC97E00E94820B2C9628
:10511000E9E00C94ED620F931F93CF93DF9390918E
:10512000C12691114BC093E0899F80011124F801A1
:10513000EE0FFF1FEC53F94D94E0899FD00111242D
:10514000AE50B94D12969C91977046E0949F900195
:10515000391B11243358359527953595279520838C
:105160003183E801CC0FDD1FC853D94D2881398127
:105170002F5F3F4F28833983000F111F0A53194DAA
:10518000F801408151814115510529F42430310540
:10519000A9F4A7DC11C04130510539F4A2DC82E04A
:1051A00090E0F8018083918309C04230510531F4C9
:1051B00098DCF8011082118218821982DF91CF9158
:1051C0001F910F910895A6E0B0E0E9EEF8E20C948B
:1051D000D7628091F0268A831B829091DD269923E5
:1051E00041F0933019F487E791E00CC08DE790E02F
:1051F00009C087702DE7829FC0011124825B9F4800
:10520000959587958093DE269093DF2601EE16E232
:10521000F12C7CE2E72EF801319790819F3FC1F09D
:105220008091C2268F0D89838091DD26882311F01D
:10523000EC8203C09C83F80180818D8321E04CE0E7
:1052400065E0CE0101960E942B10CE0101967FDC15
:10525000F3940E5F1F4FF8E0FF12DDCF8091DD2643
:10526000882341F0833019F41092DD2603C0825068
:105270008093DD262696E6E00C94F0628091E0248F
:10528000882351F090DC89E28093F1268091E0241C
:1052900081508093E0240895F2CBFF920F931F93E7
:1052A000CF93DF93FC01F0800181C281D38114810F
:1052B0008FE58093F1261092E0248091C22681111F
:1052C00005C08091F026882309F4ABC08091E124C9
:1052D0008F1104C08091E224801729F0D0DBF09276
:1052E000E1240093E2248091DC268F3F09F499C0E9
:1052F000C093E324D093E4241093E524CC23F1F06D
:1053000081111CC08091C226181761F0143651F02B
:105310008C2F8355823010F0CD3739F48FEF809386
:10532000DC267FC0C43509F47CC08D2F807F803699
:1053300009F077C0D067D093E42467C0EEDB811119
:1053400005C08091DC26882309F46BC08091D924A4
:10535000811107C0E091DC26F0E0E455F84FE491BC
:1053600001C0E82FE33541F4C43531F49091DC26D7
:105370009E5F9093DC2604C0EC1711F080DB51C0D7
:10538000882309F444C08091DA248E5F8093DA2464
:10539000C4DB811106C08091DC268E5F8093DC2601
:1053A00036C08091E3248093D924843671F58091AE
:1053B000C3268093E52429C01093E32497E79093B4
:1053C000E4249091C2269093E5248E5F8093DC269E
:1053D0001092D9248E30B9F481EE94E25BDBDC01CB
:1053E000009781F02C9130E089ED94E2821B930BC1
:1053F00005C0ED01C20FD31F48814D93A817B9070F
:10540000C0F31C923CDB112361F0E7DB0AC0809102
:10541000DC26E82FF0E0E355F84F14911F3F61F6CA
:10542000C0CFCDB7DEB7E5E00C94F1620F931F93C8
:10543000CF93DF93EC01A82FBD2FFD010190002039
:10544000E9F73197EA1BFB0B8981823751F487E337
:1054500090E00E9411090E948F0881E0809302274A
:105460002AC0833731F50E2F80E1809346068FE7FF
:105470000E945906802F82500E945906229612E0FF
:1054800004C089910E9459061F5F1017D0F380E174
:10549000809345060E94FD0804C081E090E00E94D0
:1054A0008C068AE30E9454088F77B9F70E948F0810
:1054B00002C010920227DF91CF911F910F910895A2
:1054C000A0E8B0E0E6E6FAE20C94D562809102270B
:1054D000882309F458C0813011F58091D22590912C
:1054E000D325A091D425B091D5252091E724281764
:1054F00009F449C085E30E945408813129F48AE304
:105500000E9482080E948F088091D2259091D32515
:10551000A091D425B091D5258093E72434C08FE3A2
:105520000E945408D82E87FD2BC080E18093460648
:105530008FEF0E9459068E010F5F1F4F7801C02E1A
:1055400006C080E00E945906F70181937F018E2DED
:105550008C198D15B0F380E18093450681E080932E
:10556000652305C0F80181918F010E94420B802FB5
:105570008C198D15B8F30E948F0B8FEF80936523E4
:1055800081E080930227C058DF4FE8E00C94EE6280
:10559000CF93DF93C0E1C093410680E2809302067F
:1055A000C09345068EE190E00E946F06C0934606C8
:1055B0008EE190E00E946F06C09345068DE290E078
:1055C0000E946F0680E30E94820884E690E00E94B9
:1055D0006F06C0E0D0E0FE01ED51F84F6491FE018E
:1055E000EE51F84F84910E9464082296C233D1058F
:1055F00091F78091E924811108C083E30E94820819
:1056000084E090E00E948C0611C0C0E0D0E0FE0172
:10561000E353F84F6491FE01E453F84F84910E94E4
:1056200064082296C631D10591F7E7CF84E30E9442
:10563000820885E30E9454088D30C1F7DF91CF9135
:105640000895A2E3B0E0E7E2FBE20C94D962809116
:10565000E824882309F4A9C00E946806882309F475
:105660008FC08FE30E9454088F778983823368F05C
:105670008AE30E94820886E30E9482088DE30E94EA
:10568000820884E30E94820890C080E180934606ED
:105690008FEF0E94590610E00BC080E00E9459066F
:1056A000E2E0F0E0EC0FFD1FE10FF11D80831F5FD2
:1056B0008981181790F380E00E945906082F80E036
:1056C0000E94590680E18093450684E30E94820887
:1056D00085E30E9454088D30C1F72A8196E792270E
:1056E0009A8392E00CC041E050E04C0F5D1FE40F44
:1056F000F51F30812452232720839F5F232F898128
:10570000E92FF0E0981778F381E090E08C0F9D1F6F
:10571000E80FF91F90818B81982790838091D9257C
:1057200084FF13C081E60E94420B10E00AC0E1E052
:10573000F0E0EC0FFD1FE10FF11D80810E94420B94
:105740001F5F8981811798F71BC081E40E94420B7B
:1057500010E00AC0E1E0F0E0EC0FFD1FE10FF11DE9
:1057600080810E94030C1F5F8981811798F78091C7
:10577000D92585FF03C0802F0E94030C0E948F0B48
:1057800085E30E945408813029F0813161F48AE375
:105790000E94820886E30E9482088DE30E948208AC
:1057A00084E30E9482080E94C809E296E4E00C9417
:1057B000F2628F929F92AF92BF92FF920F931F93CC
:1057C000CF93DF93CDB7DEB7EA97CDBFDEBF41E31E
:1057D000BE016F5F7F4F01960E94070C8C019927D5
:1057E0000197298130E08217930709F0B4C08091B6
:1057F000E824811105C0CCDE83E090E00E948C0695
:10580000FB808A8196E789278A8322E009C0DE012E
:10581000A80FB91F8C9184529081892780832F5FB4
:105820003981822F90E0E1E0F0E0EC0FFD1FE80FFE
:10583000F91F231760F380818F258083CE01C796DF
:105840000E94350A85E30E94820885E30E9454087D
:10585000833181F1CE01C3960E94350A4BA95CA920
:105860006DA97EA98FA998ADA9ADBAAD841795078A
:10587000A607B70760F44A015B01881A990AAA0AC9
:10588000BB0A2DEB82169104A104B10470F44817F1
:1058900059076A077B0770F484549F4FAF4FBF4F7F
:1058A00084179507A607B70728F484E198E00E94BB
:1058B000820B34C085E30E945408833119F6F4FE4C
:1058C0000BC088E790E00E948C0688E790E00E9479
:1058D0008C0688E790E002C08AE090E00E948C0687
:1058E00080E1809346068FE70E94590688248394BE
:1058F000912C8C0E9D1E540105C0F50181915F0114
:105900000E9459068A2D88198017B8F380E1809388
:10591000450685E30E9454088331D9F385E30E944C
:105920005408863149F48BE30E94820886E30E9482
:1059300082088DE30E9482088091E824882349F040
:1059400084E30E94820885E30E9454088D30C1F7E9
:1059500002C00E945813EA96CDBFDEBFDF91CF91FF
:105960001F910F91FF90BF90AF909F908F900895DF
:10597000FC012181223731F0223559F481E08093F6
:10598000E92402C01092E92403DE81E08093E82438
:105990000895233711F401960CCF1092E82408954E
:1059A000CF93DF93C0E1C093410680E2809302066B
:1059B000C09345068EE190E00E946F06C0934606B4
:1059C0008EE190E00E946F06C09345068DE290E064
:1059D0000E946F0680E30E94820884E690E00E94A5
:1059E0008C06C0E0D0E0FE01E25EF74F8491813486
:1059F00048F083E30E94820884E090E00E948C06D5
:105A0000CFEF0BC0FE01E15EF74F64910E94640886
:105A10002296CC33D10539F7ECCF84E30E9482087B
:105A20008AE090E00E946F06C150B9F781E0809350
:105A3000EA24DF91CF910895EF92FF920F931F9385
:105A4000CF93DF93EC018B01F880F394611571051E
:105A500019F0E4E6F0E002C0E0E0F0E028E0F29EB9
:105A6000C00111246AE070E00E9490629B012E0F39
:105A70003F1FC901AA2797FDA095BA2FE091D6250F
:105A8000F091D725AF0160E070E0481759076A0729
:105A90007B0728F483E698E00E94820BDDC0E21BBE
:105AA000F30BE093D625F093D7258091EA2481115A
:105AB00001C076DF85E30E9454088D3071F08AE5DD
:105AC0000E94420B85E40E94420B82E50E94420B39
:105AD00082E50E94420B81E34DC08091F1249091B8
