:1000000017C1000031C100002FC100002DC1000048
:100010002BC100000C94050C27C1000025C1000075
:1000200023C1000021C100001FC100000C94451431
:100030000C94EF1419C1000017C100000C94A70B19
:1000400013C1000011C100000FC10000C1C20000B7
:100050000BC1000009C1000007C1000005C100007C
:1000600003C1000001C10000FFC00000FDC000008E
:10007000FBC00000425D0543090246320769D10D0D
:100080005A741152C70454E90E56BA055709055857
:100090007E086582056C4C0574230378C10200005C
:1000A000000D2E2D07D3913D04320000060021657E
:1000B0006A55E43023B900070018146C07009087D4
:1000C0006BF85611E92A001F410027675081C220B2
:1000D0003D2000202F2000203D2000202F20005612
:1000E00020322E30302043554C34333300562032EA
:1000F0002E30302043554C5F4D58004C4F56460D26
:100100000A00424F56460D0A000D2E2D07D3913D91
:1001100004320000060010B07155E43023B9000726
:100120000018146C070090876BF85611E92A001F1D
:1001300041000007024604C605260B0610C81193AD
:10014000120313221534173F182819161B43215682
:10015000250026110D210E650F6A070C160720F8E1
:100160001E871F6B29592C812D353EC3FF004C453E
:100170004E4552520D0A004C4F56460D0A004C4552
:100180004E4552520D0A003F202800206973207509
:100190006E6B6E6F776E2920557365206F6E6520CC
:1001A0006F66000E03430055004C003400330033EB
:1001B0000000000E03430055004C005F004D005846
:1001C0000000001603620075007300770061007282
:1001D0000065002E006400650000000403090409A6
:1001E000023E00020100C0320904000001020201C7
:1001F000000524001001042402060524060001075E
:100200000582030800FF09040100020A000000073C
:100210000504024000050705830240000512011095
:100220000102000008EB03442001000102DC010090
:1002300011241FBECFEFD2E0DEBFCDBF11E0A0E0A2
:10024000B1E0E8E3F1E302C005900D92AC32B107F2
:10025000D9F722E0ACE2B1E001C01D92AE36B207A0
:10026000E1F76ED00C949A18CBCE2FE088E190E0A5
:100270000FB6F894A895809360000FBE209360009D
:1002800090E080E80FB6F89480936100909361004D
:100290000FBE0895F89481E085BF82E085BFE0E05D
:1002A000F8E10995089504B603FE0AC083E390E0DF
:1002B00055D3882329F060E083E390E04AD3EACF66
:1002C00008952E9A2D9A089583B186FB882780F988
:1002D00091E08927089589EF87BD84E085BD82E09C
:1002E00084BD80936E00109280008AE0809381002C
:1002F0000895E4E6F0E080818B7F8083299A84B1C1
:10030000876084B9239880E58CBD8DB581608DBDF3
:1003100008958EBD0DB407FEFDCF8EB5089586B14C
:1003200080780895880F991F0197F1F7089520EDBF
:1003300037E003C0F9013197F1F70197D8F7089535
:1003400094DFBFDFB0DFC7DF3C9AD3DF00D40BD22E
:100350000E94DC0EB9D68DEE91E19093CF0180938F
:10036000CE0181E080932E01449801D2F0D781D153
:100370000E94FD10FACF1F93CF93DF938A3018F4B9
:10038000853018F001C088E085502BE230E060E055
:10039000E82FF0E0E653FF4F149106C0CC3211F481
:1003A000612F01C060E09E01E9012196C901D1D20F
:1003B000C333D10599F7DF91CF911F910895CF9362
:1003C000DF9382E090E0FC01E156FF4F6491EC0185
:1003D0002196BFD2CE01CB32D105A9F775DF882394
:1003E00061F060E18FE090E0B4D260EB80E190E0FA
:1003F000B0D261E781E190E0ACD288E0BCDFDF9170
:10040000CF9108954598806C84DF80E082DF459A23
:100410000895A1E0B0E0EFE0F2E00C945C1841E058
:10042000BE016F5F7F4F019650D2892B21F18981E8
:10043000893969F410E0812FE5DF43D2812F87707D
:10044000873009F4CAD11F5F1033A9F714C0DADF6F
:10045000182F83E49DD1898134D28FEC90E0B0D104
:10046000812F2FD283ED90E0ABD140E262E0812F6B
:1004700090E0B7D1B2D12196E3E00C947818A1E0D6
:10048000B0E0E5E4F2E00C945D184598806469837F
:1004900040DF6981862F3DDF459A2196E2E00C948A
:1004A0007918459836DF459A0895CF93CFEF07C066
:1004B0008AE090E037DFC11102C0EC9A07C084E304
:1004C000F0DFC1508077803199F7F7CFCF91089551
:1004D000CF93EC9886E3E5DFCFEF05C08AE090E0AC
:1004E00021DFCC2331F085E3DCDFC150807780321F
:1004F000A9F7CF910895EF92FF920F931F93CF9397
:10050000DF93EC0110927F013D9AEC98459A8EE1C1
:1005100090E008DF45988EE190E004DF459A8DE297
:1005200090E000DF80E3BDDF84E690E000DF4598E7
:1005300080E4EFDE8E01075D1F4F7E018FEFE81A2A
:10054000F80ACE010BD2E5DEE701E016F106A9F7C5
:10055000459A45988EE7DDDE8BE290E0EC0121962E
:10056000FDD1D7DECE01C333D105C1F7459A83E370
:1005700098DF81E090E0DBDECDB7DEB7E6E00C94FB
:100580007518A1E0B0E0E7ECF2E00C945D1822E011
:10059000298341E0BE016F5F7F4F019696D189812B
:1005A000EADE82E090E0A7DF2196E2E00C94791881
:1005B00086E377DF1092D00110927F01089582E0E8
:1005C00090E099DF81E08093D00110927F0108953F
:1005D0001F920F920FB60F9211248F939F93AF9398
:1005E000BF938091D2019091D301A091D401B09199
:1005F000D5010196A11DB11D8093D2019093D30125
:10060000A093D401B093D5018091D1018F5F8093E5
:10061000D101BF91AF919F918F910F900FBE0F901D
:100620001F9018952FB7F8944091D2015091D301A3
:100630006091D4017091D501FC01408351836283A4
:1006400073832FBF0895A4E0B0E0E9E2F3E00C94D7
:100650005D18CE010196E6DF8C8133D18B8131D1DB
:100660008A812FD189812DD1B8D02496E2E00C94D3
:1006700079188091D2019091D301A091D401B091C9
:10068000D50120912C01281779F18091D201909108
:10069000D301A091D401B091D50180932C01A895EC
:1006A0008091D1018D3700F11092D10180911B0111
:1006B00081FF04C088B190E1892788B98091D60173
:1006C0009091D701843823E0920728F40196909303
:1006D000D7018093D60180912D018F5F80932D01EA
:1006E0008C3311F410922D010895CF9320C080E037
:1006F00091E00E94311797FF16C085E793E0909331
:10070000CD018093CC01E091CE01F091CF0181E049
:100710000995809101018F708093E9008091DD013E
:1007200081110AC01EC0682F8EE192E02DD2809107
:1007300020028034E0F2E1CF8091E80080FD0AC021
:1007400010C08BED91E037D2682F80E091E00E94DD
:10075000C91601C0C1E48091DD01882311F0C150A8
:1007600081F7CF9108950E94361478940895BDDFE3
:1007700080E091E00E941B170C948916089508955B
:1007800080E091E00C94A51680E091E00C945F1756
:1007900090916502943041F490912E0190FF04C035
:1007A000682F8BED91E0F0C10895CF93DF93EC01BA
:1007B00001C0EEDF89918111FCCFDF91CF910895C7
:1007C000CF93DF93EC0102C0E3DF2196FE01849119
:1007D0008111FACFDF91CF9108958DE0D9DF8AE0C2
:1007E000D7CFA6E0B0E0E7EFF3E00C945B18062F5C
:1007F0001E8215E02AE030E01150E1E0F0E0EC0F5D
:10080000FD1FE10FF11DB9010E942618805D808354
:10081000CB010150009759F01111EECF08C01150D3
:10082000E1E0F0E0EC0FFD1FE10FF11D408301500E
:1008300007FD02C01111F3CF81E090E08C0F9D1FE6
:10084000810F911DB2DF2696E4E00C947718A5E0A5
:10085000B0E0EDE2F4E00C945D181D8224E0382F46
:100860003F702150E22FF0E03A3010F4305D01C0CB
:10087000395CA1E0B0E0AC0FBD1FEA0FFB1F308375
:1008800034E0969587953A95E1F76150009739F7EE
:1008900008C02150E1E0F0E0EC0FFD1FE20FF11D78
:1008A0004083615067FD02C02111F3CF81E090E0E9
:1008B0008C0F9D1F820F911D78DF2596E2E00C942E
:1008C000791840E362E090E0C2CFFB0122C02136FC
:1008D00008F02052A22FA053AA3010F42A2F05C0EE
:1008E000A22FA154A63018F42753232B05C0203281
:1008F00091F02A3381F005C0552331F02193415006
:1009000041F4E61BF70B0DC0322F3295307F51E0DA
:1009100002C050E030E0DC012D91CD012111D7CF94
:10092000F0CFCF010895FC01DB0180E090E00BC027
:10093000322F30533A3038F46AE070E00E941418D5
:10094000C097820F911D21912111F2CF8D939C931D
:1009500008950E948C18F999FECF08950C9484187C
:1009600008951F93CF93DF930AC0EC012196F6DF21
:10097000A8DF112311F08AE30BDF612FCE01162FC0
:1009800011506111F2CFDF91CF911F910895A2E034
:10099000B0E0EDECF4E00C945A18FC0121812D3408
:1009A00021F466E08AEF91E005C0203529F460E18A
:1009B0008AED91E0D6DF28C01A82198242E0BE019A
:1009C0006F5F7F4F019681DF9981823029F4192F63
:1009D00000E08A81082B02C0092F10E0C801BEDFA9
:1009E000F82E82E5D5DE40E364E0C80130DF87ED14
:1009F00090E0E6DE8F2D65DF8BED90E0E1DE40E2FA
:100A000062E08F2D90E0EDDEE8DE2296E5E00C94CA
:100A10007618A6E0B0E0EFE0F5E00C9457186C0112
:100A200043E0BE016F5F7F4F01964FDF823080F160
:100A30002981823019F4E22EF12C04C0F22EE12C2F
:100A40002A81E22A8C011127FE01E00FF11F60814B
:100A5000C7017FDF000F111F0F5F1F4F0C0D1D1D02
:100A60008FEFE81AF80A10C041E0BE016F5F7F4FB8
:100A7000C8012BDF892B61F06981C7016ADF0E5F36
:100A80001F4FE2E0EE0EF11CF80180818111ECCFE6
:100A90002696E8E00C94731841E06BE171E0019652
:100AA00014DF80911B0180FF02C0449A01C044986A
:100AB00060911B0184E390E04CCFA1E0B0E0E3E65D
:100AC000F5E00C945D181982009731F041E0BE0109
:100AD0006F5F7F4F0196F9DE8981882321F061E005
:100AE00083E390E036DF10926E00F89428E088E10E
:100AF00090E00FB6F894A895809360000FBE209305
:100B00006000FFCFCF93DF93EC0162E080E090E0E4
:100B100020DF60E081E090E01CDF51DC60E080E6F7
:100B200090E017DF60E081E690E013DF60E083E3B0
:100B300090E00FDF62E084E390E00BDF898188378B
:100B400019F080E090E0B9DFDF91CF91089580E067
:100B500090E004DF823029F481E090E0FFDE88231A
:100B600019F080E090E0CEDF84E390E0F7DE809340
:100B70001B010895A9DB882319F08FED90E002C0D6
:100B80008DEE90E01DDE29CEFC018FB7F8949281A6
:100B9000903408F00EC09F5F92839081DF01A90F0F
:100BA000B11D13966C939F5F903411F0908301C038
:100BB00010828FBF0895FC019FB7F8948281811144
:100BC00001C00EC0815082832181DF01A20FB11DBF
:100BD00013968C912F5F203411F0218301C0118274
:100BE0009FBF0895CF93C82F469A882319F088E5B0
:100BF00092E002C080E991E095DB4698CC2319F0A1
:100C000088E592E002C080E991E08CDBCF91089505
:100C1000A7E0B0E0EEE0F6E00C944D188C01D62E83
:100C2000842F722E7801E60EF11C462FB8017BD27C
:100C3000F70180836D2D6F5F1982402FF801912C91
:100C400057E0A52E21E030E05AC0D901082E01C09E
:100C5000AA0F0A94EAF7A72381F0A1E0B0E0AC0F55
:100C6000BD1FA90DB11D89010A2C02C0000F111F63
:100C70000A94E2F75C91502B5C93AA2019F05A2D4C
:100C800051500DC0592D5F5F573008F4952EA1E0EB
:100C9000B0E0AC0FBD1FA50FB11D1C9257E0A52EF3
:100CA000019798F6872F082E82958025082E869525
:100CB0008695802590E0019681FF0FC0A1E0B0E00D
:100CC000AC0FBD1FA90DB11DC901052E01C0880FB4
:100CD0000A94EAF79C91982B9C93552311F051505C
:100CE0000DC0892D8F5F873008F4982EA1E0B0E009
:100CF000AC0FBD1FA80FB11D1C9257E0A52E8E2F63
:100D0000841B861720F4719187E090E09ECFAA2083
:100D100011F0AA9403C0939447E0A42EC92CD12CBF
:100D20002091D6013091D701B6016E5F7F4F872D9C
:100D30000E940B18992787FD90952817390720F4F2
:100D40008BEF90E03DDD71C0281B390B3093D7014C
:100D50002093D601449A80917F01882341F010921C
:100D60007F0189E291E0CAD16624639401C0612CBD
:100D70008091D001811101C022DCAADB8E010F5FBE
:100D80001F4FEE24E394F12CB12CF801E90DF11D75
:100D900097FCFA954F012CE0522E80E023DF5A9405
:100DA000E1F781E01FDF280114C097E0292E312CE4
:100DB000C701022C01C0880F0A94EAF7F201908162
:100DC000892310DFF1E02F1A310890F79FEF491ABD
:100DD000590AC201801B910B8C159D0534F387E0E5
:100DE000482E512C0DC0C701042C01C0880F0A9455
:100DF000EAF7F40190818923F5DEF1E04F1A5108FA
:100E0000A414B50484F38AE090E091DA7A9409F0AE
:100E1000C2CF8091D801882311F047DB02C086E35E
:100E200040DB61100E94170F44982796E2E10C9472
:100E30006918A7E0B0E0EFE1F7E00C945C18162F1A
:100E4000242F45E0BE016F5F7F4F01962F833DDD6C
:100E50002F81412F682FCE010196DADE2796E3E03D
:100E60000C94781843E066E0E4CF6F927F928F9203
:100E70009F92BF92CF92DF92FF920F931F93CF93D7
:100E8000DF93A62F1092580110925901FC01618145
:100E9000660F660F660F2381621B695F10925A010D
:100EA000F12C70E047E0F7E0DF2EC12C20E007E0F6
:100EB00010E0C1E0D0E07DC0FC01EC0DF11D24810B
:100EC00030E00D2C02C0359527950A94E2F7217089
:100ED0003327522FDD2011F0DA9403C0C394E7E0EA
:100EE000DE2EAB3491F4433009F081C0F11007C01D
:100EF00051115CC0109258017093590176C0F12CC9
:100F000079C0AB3409F050C03CC04F3F41F5A63426
:100F1000B9F4E72FF0E0E65AFE4F4081042E4295E7
:100F20004025042E46954695402550E04F5F5F4F83
:100F300041FB882480F8912C8216930641F004C06E
:100F4000A53429F4511103C0F0925801D5CF7F5F29
:100F5000E72FF0E0E65AFE4F108247E029C0552304
:100F600019F1A63459F4E72FF0E0E65AFE4F9E013E
:100F7000042E01C0220F0A94EAF713C0A53409F029
:100F8000C0CFE72FF0E0E65AFE4F9801241B31094D
:100F900047FD33953E0102C0660C771C2A95E2F7A7
:100FA00093013081322B3083415002C0FF24F394EF
:100FB0002B2DB22EB394261708F47ECFF092580151
:100FC000709359016B1588F4A53419F44F3F09F457
:100FD00004C080915801882319F07F5F70935901F4
:100FE00081E090915901911108C080E006C04F3F07
:100FF00009F4A8CF5111C5CFD7CFDF91CF911F9161
:101000000F91FF90DF90CF90BF909F908F907F9037
:101010006F90089510926F0080917B0190E064E1E1
:1010200070E00E941418805D9E4FFC0110820895AC
:10103000FC01218130E050E07081C901841B950BD7
:101040000B964797C8F4872F90E070E0FC01E61BF1
:10105000F70BEC30F10584F4E53FFF4F6CF0280FFF
:10106000391F640F751F261B370B2C30310524F4F4
:1010700081E0253F3F4F0CF480E00895FC01218181
:101080002C3008F0C7CF662389F0DC01A20FB11D18
:1010900081E090E0038002C0880F991F0A94E2F774
:1010A00014969C911497982B14969C938381882373
:1010B00019F081508383089587E083832F5F218314
:1010C000E20FF11D148208953E9A46983F98EAE691
:1010D000F0E080818160808382EC91E09093D70181
:1010E0008093D601109244011092D001089580910E
:1010F000D801882311F063DAD8C95ACAFC012181CA
:1011000021110BC08091D801DCDB40E265E08091C9
:10111000D6019091D70165DB60CB41E068ED71E0CD
:101120000196D3DBE4CF06C04150FB01E40FF11D73
:101130009081890F4111F8CF089520E006C06150D9
:10114000FC01E60FF11D308123276111F8CF822FBA
:101150000895A091580140E035E020E012C06150B0
:10116000FC01E60FF11D5081752F72957F702727C6
:10117000370FAA2311F0442319F05F702527350F8C
:101180004F5F6111ECCF832F820F8295807F822B7E
:101190000895FC0132812381A081B181A30FB11D8B
:1011A0008C9190E0022E02C0959587950A94E2F703
:1011B0008170922F91509383211104C03F5F32833D
:1011C00097E0938308958F929F92BF92CF92DF9280
:1011D000EF92FF920F931F93CF93DF9300D0CDB781
:1011E000DEB76C01812C912CB12CEE24E394F12C10
:1011F000062F10E0015011091DC0C6014A83698302
:10120000C8DF4A816981882391F0442349F098011D
:10121000281939098E2D01C0880F2A95EAF706C0D2
:101220008E2D082C01C0880F0A94EAF7B82A8FEF98
:10123000881A980A861608F38B2D0F900F90DF916D
:10124000CF911F910F91FF90EF90DF90CF90BF90C3
:101250009F908F900895A4E0B0E0E1E3F9E00C9452
:1012600054181B8227E02C839C012C5F3F4F3A834C
:10127000298310925901FC01218130E0B3E0220F53
:10128000331FBA95E1F7438187E090E0841B910911
:10129000280F391F253431057CF554C00A2D10E084
:1012A00040E068E0CE0101968EDF065A1E4FF8013D
:1012B0008083982E092C92949024092C96949694CD
:1012C0009024CE01019665DF292D30E02F5F3F4F3E
:1012D00021FBCC24C0F8D12C90E0C816D90691F59A
:1012E000CE01019656DF81112DC0F8018081B8260C
:1012F000A394A092590101C0B12CA0905901F5E02E
:10130000FA1560F640E068E0CE0101965CDF082F38
:10131000182F012E12951025012E169516951025C1
:10132000CE01019636DF212F30E02F5F3F4F21FBAA
:10133000EE24E0F8F12C282F30E0E216F30611F449
:1013400081E0B01280E02496EBE00C947018FF92DC
:101350000F931F93CF93DF9380916601882389F1C8
:101360008091D80187FF15C084E34CD88058803421
:1013700058F0803C58F490E08055910963E09595D1
:1013800087956A95E1F703C080E001C08FE08F592F
:10139000FFD98091D80183FF12C082E7F9D98091EB
:1013A000D80184FF03C080916701F2D986E6F0D9A5
:1013B0008091D80184FF03C080916601E9D9109221
:1013C000660180916801882309F4BCC1449A809128
:1013D000690190E064E170E00E941418EC01C05DC6
:1013E000DE4F66E4CE0141DD882309F485C110910A
:1013F0005901115010935901412F6AE571E086E0BF
:1014000092DE612F70E0FB01E65AFE4F00818013EF
:1014100003C0143008F06CC1282F30E02F5F3F4F1D
:10142000E02FF0E02E173F0739F4143028F0FB01CD
:10143000E65AFE4F80835CC1412F6AE571E08CE083
:1014400072DE801359C1143008F054C155C1809127
:101450005901815080935901893029F0CE01FBDE7A
:10146000811161C151C169E08AE591E066DE909128
:1014700063018913F3CF46C11091590111501093A4
:101480005901612F8AE591E064DEE12FF0E090914F
:101490005801E91BF109E65AFE4F9081891345C1B5
:1014A00048C11B82898181508983ADC0A1FD5DC087
:1014B00040916A01F09059014F1133C090E014C07F
:1014C000292F30E0592F5F5FF901E559FE4F265A69
:1014D0003E4F6081F9012081621729F090936A01E3
:1014E00094131FC004C0952F941750F3F7CF409169
:1014F000D2015091D3016091D4017091D501009136
:101500007701109178012091790130917A01401B87
:10151000510B620B730BB1E0463251056105710549
:1015200008F0B0E090E00CC0292F30E0A901455947
:101530005E4F265A3E4FF9012081FA0120839F5FBA
:101540009F1590F390936A014091D2015091D3017D
:101550006091D4017091D501409377015093780147
:101560006093790170937A0101C0B0E08435E1F4B1
:10157000A6FD1AC0909159019530B0F090915C0190
:101580009B3409F440C0993609F43DC0933509F401
:101590003AC09435C1F19D37B1F19E37A1F19091D8
:1015A0005D019077903779F1B1112DC0F1D880911C
:1015B0005801882329F08091590181508093590165
:1015C00010E007C0E12FF0E0E65AFE4F808179D9A4
:1015D0001F5FE09159011E17A8F3809158018823DD
:1015E00049F0F0E0E65AFE4F808140E361E08F7001
:1015F00090E02DD98091D80185FF04C084E30E943A
:1016000002025FD9EAD88091D80182FF5FC080E7EB
:10161000BFD840E262E0888190E0E3D8888990E01A
:1016200040E265E014E0880F991F1A95E1F7D9D8D8
:10163000898990E040E265E024E0880F991F2A95AF
:10164000E1F7CFD88A8990E040E265E034E0880F86
:10165000991F3A95E1F7C5D88B8990E040E265E0A3
:1016600054E0880F991F5A95E1F7BBD840E263E038
:101670008A8190E0B6D840E263E0898190E0B1D8F9
:101680002B8140E262E087E090E0821B9109A9D8BB
:1016900080E27ED88091D80185FF06C084E30E9455
:1016A00002020FD980E274D88B81873019F08981CA
:1016B0008F5F898310E006C0FE01E10FF11D848178
:1016C00000D91F5F89811817B8F387D818828091D5
:1016D0006801815080936801809169018F5F823039
:1016E00019F08093690102C01092690144982AC0E0
:1016F00086E420C084E51EC065E4CE01B6DB81111E
:10170000A6CEACCE85E416C04B8960916701CE01B0
:1017100042968EDC682FCE01B1DC6BE4CE01A5DBF6
:101720008111AACE02C088E405C08B81873039F4CC
:10173000B8CE8BE4A091D801A0FDB8CE64CF8F5F66
:101740008B8361CFCDB7DEB7E5E00C9476181F929E
:101750000F920FB60F9211242F933F934F935F93E5
:101760006F937F938F939F93AF93BF93EF93FF9369
:1017700010926F008091D80183FF02C08EE208D8DA
:1017800020917B01822F90E064E170E00E941418A8
:10179000FC01E05DFE4F8081833060F0822F90E09D
:1017A00064E170E00E941418FC01E05DFE4F81814D
:1017B000823010F42FDC18C080916801813049F428
:1017C0008091D80182FFF6CF82E091E00E94E00391
:1017D000F1CF8F5F809368012F5F223019F0209343
:1017E0007B0102C010927B01FF91EF91BF91AF91FD
:1017F0009F918F917F916F915F914F913F912F9129
:101800000F900FBE0F901F9018951F920F920FB65A
:101810000F9211240F931F932F933F934F935F9336
:101820006F937F938F939F93AF93BF93CF93DF93E8
:10183000EF93FF934091840050918500C4E056954A
:101840004795CA95E1F7142F80917B0190E064E100
:1018500070E00E941418EC01C05DDE4F8881843076
:1018600039F41E3208F4D5C01F3410F0D3DBD1C0D8
:101870000E948F0181110DC08881843039F461E0AC
:10188000CE01FCDB1092850010928400109367015A
:10189000C0C000916701101B109366011092850073
:1018A000109284008881843021F460E0CE01E6DB70
:1018B000B0C082E086BB8881811111C09091670120
:1018C000953608F0A6C080916601853608F0A1C063
:1018D000988B898B81E08A8382E088839AC0412F2C
:1018E000602F823009F049C0CE014096A1DB8823E9
:1018F00001F1288930E0C901880F991F820F931FD9
:10190000800F911D9595879595958795888B298949
:1019100030E0C901880F991F820F931F810F911D1D
:101920009595879595958795898B8A818F5F8A8311
:1019300070C08A818430F8F080EA9FE0909389003B
:10194000809388008A818C3050F02889898990E0C2
:10195000820F911D8536910514F084E001C083E06B
:1019600088830A8B1B8B198287E08B831C8282E021
:1019700080936F004EC01882A1CFCE01429658DBF3
:10198000882301F161E0CE0179DB2A8930E0C901C9
:10199000880F991F820F931F800F911D9595879532
:1019A000959587958A8B2B8930E0C901880F991FFF
:1019B000820F931F810F911D95958795959587951A
:1019C0008B8B27C0412F602FCE01409631DB8823BF
:1019D00009F44CCF60E0CE0151DB288930E0C90129
:1019E000880F991F820F931F800F911D95958795E2
:1019F00095958795888B298930E0C901880F991FB3
:101A0000820F931F810F911D9595879595958795C9
:101A1000898BFF91EF91DF91CF91BF91AF919F9112
:101A20008F917F916F915F914F913F912F911F9176
:101A30000F910F900FBE0F901F901895282F809137
:101A4000210190912201469A213061F463E070E017
:101A50000E9414180E949201469880912101909151
:101A600022012BC021111EC00E9492014698809134
:101A700021019091220163E070E00E9414180E94FD
:101A80009201469A80912101909122010E94920137
:101A90004698809121019091220163E070E00E94BC
:101AA00014181DC00E9492014698809121019091C6
:101AB000220163E070E00E9414180E949201469A8D
:101AC000809121019091220163E070E00E9414183E
:101AD0000E949201469880912101909122010C94DC
:101AE0009201CF93DF93EC983D9A459A8EE190E076
:101AF0000E94920145988EE190E00E949201459AE1
:101B00008DE290E00E94920180E30E94510284E6FF
:101B100090E00E949201459880E40E948901C9E00A
:101B2000D1E0FE0184910E9489012196F1E0C63145
:101B3000DF07B9F780911C010E94890180911D0186
:101B40000E94890180911E010E948901C0E0D0E0BD
:101B5000FE01E75EFE4F84910E9489012196C93102
:101B6000D105B1F7459A45988EE70E9489018BE22D
:101B700090E0EC0121960E94AE040E948901CE0102
:101B8000C333D105B1F7459A83E30E94510281E046
:101B900090E00E94970181E08093D001DF91CF9186
:101BA0000895A0E0B0E0E7EDFDE00C945618EC01DC
:101BB0008981843769F461E271E0CE0102960E9466
:101BC000930440E260E0809121019091220112C0D3
:101BD000833709F096C08A81823789F46FE171E01A
:101BE000CE0103960E94930440E260E080911F01C1
:101BF000909120010E94F1030E94ED03D8C0449A05
:101C000080917E0181110EC080917F01882329F08F
:101C100081E080937C0110927F0163DF83E090E09C
:101C20000E94970186E30E9451028AE30E945102BA
:101C30008BE30E9451020E94680200E010E06E01F6
:101C400082E0C80ED11C23C0F70181917F0180334F
:101C500011F480E005C0813311F481E001C082E01D
:101C6000EDDEBA9489F7469A809121019091220184
:101C70000E94920146989FE1F92E80912101909156
:101C800022010E949201FA94C1F70F5F1F4F8091C9
:101C90001F01909120010817190720F476018CE0AC
:101CA000B82ED2CF80917E01882359F08091D8013F
:101CB000882319F00E9455020DC086E30E9451024C
:101CC00009C080917C01882321F010927C01AFD063
:101CD00001C00DDA449889E60E94C80383E70E9498
:101CE000C803229611E08991803309F404C081333E
:101CF00009F401C086E40E94C8031F5F1D3099F7F4
:101D00007BCF823771F480917F01882329F081E0B5
:101D100080937C0110927F01E4DE81E080937E015C
:101D200046C0863651F58A81803351F480E1809334
:101D30001C0180EB80931D0181E780931E0107C089
:101D400043E06CE171E0CE0102960E94650489E6F1
:101D50000E94C80386E60E94C8038AE30E94C80363
:101D600080911C010E94610480911D010E94610408
:101D700080911E010E9461043FCF8837C1F4809199
:101D80007C01882321F010927C0151D00EC082E0AA
:101D900090E00E947B028091D801882319F00E9474
:101DA000550203C086E30E94510210927E01CDB716
:101DB000DEB7E9E00C94721885E390E00E94AE046F
:101DC0008093D90186E390E00E94AE048093DA010B
:101DD0000895A6E0B0E0EFEEFEE00C945D1845E05B
:101DE000BE016F5F7F4F01960E9465048430D8F476
:101DF00099819130B1F4833061F46A8185E390E098
:101E00000E94A9046B8186E390E00E94A904D4DFBC
:101E10000AC08091D9010E9461048091DA010E9478
:101E200061040E94ED032696E2E00C947918CF93AA
:101E3000DF93EC983D9A459A8EE190E00E949201E2
:101E400045988EE190E00E949201459A8DE290E0E3
:101E50000E94920180E30E94510284E690E00E9479
:101E60009701C0E0D0E0FE01EE5CFE4F849181342A
:101E700048F083E30E94510284E090E00E949701C1
:101E8000CFEF0BC0FE01ED5CFE4F64910E943F025C
:101E90002296CC33D10539F7ECCF84E30E9451026E
:101EA0008AE090E00E949201C150B9F781E08093EE
:101EB0007F01DF91CF910895EF92FF920F931F93CF
:101EC000CF93DF93EC018B01F880F39461157105DA
:101ED00019F0E4E6F0E002C0E0E0F0E08F2D90E0E1
:101EE00023E0880F991F2A95E1F76AE070E00E94CD
:101EF0003A189B012E0F3F1FC901AA2797FDA095F5
:101F0000BA2FE091D601F091D701AF0160E070E007
:101F1000481759076A077B0728F487E791E00E9472
:101F2000E003D8C0E21BF30BF093D701E093D60196
:101F300080917F01811101C07ADF85E30E94020256
:101F40008D3071F08AE50E94C80385E40E94C803C1
:101F500082E50E94C80382E50E94C80381E34DC068
:101F60008091860190918701A0918801B0918901AB
:101F7000892B8A2B8B2B69F40E94680285E30E94CF
:101F80000202833109F444C02BC081E090E00E943A
:101F900097018091D2019091D301A091D401B09189
:101FA000D50140918601509187016091880170911F
:101FB000890184179507A607B70739F38091D201E5
:101FC0009091D301A091D401B091D5014F5F5F4FA3
:101FD0006F4F7F4F84179507A607B707B1F2CCCF95
:101FE0008AE50E94C80385E40E94C80382E50E9436
:101FF000C80382E50E94C80382E30E94C80385E308
:102000000E9402020E9461040E94ED0310DF62C080
:10201000012B41F445988FE70E948901EC2E0C2F8B
:102020001D2F0FC00AE010E084E690E00E949701A7
:1020300001501109C9F7EECFF80181918F010E947B
:102040008901802F8E198F15B8F3459AC8EC85E366
:102050000E9402028D3031F485E30E9402028D302D
:1020600069F423C085E30E9402028331A9F781E06D
:1020700090E00E949701C15051F7EECF8AE50E948F
:10208000C80385E40E94C80382E50E94C80382E574
:102090000E94C80383E30E94C80385E30E940202F2
:1020A0000E9461040E94ED03C2DE80917F018111D4
:1020B00001C01DD88091D2019091D301A091D4018B
:1020C000B091D5018093860190938701A0938801F8
:1020D000B0938901CDB7DEB7E6E00C947518ACE09B
:1020E000B0E0E4E7F0E1E6C7FC018BE089838181A1
:1020F0008A831B8282E08C8387818D8380858E8397
:1021000081858F83848188878581898786818A8775
:102110001B861C8684E190E00E94970160E070E0DD
:102120008E010F5F1F4FC801C7DE8AE50E94C803FA
:10213000F12C07C0F801E80FF91F80810E946104AB
:10214000F3948F2D90E0298130E02817390794F718
:102150008091D80185FF03C080E00E9461040E9445
:10216000ED032C96E5E0C2C7CF93DF93EC0190918D
:102170008001911108C080918101811104C080917A
:1021800082018823B1F08B81803321F0803411F0FB
:10219000803579F48F8189130CC0988580918101F5
:1021A000981307C0998580918201981302C0CE01CF
:1021B00096DF80918301811108C090918401911173
:1021C00004C0909185019923A9F098819B3091F4E6
:1021D0009B81903479F49F8198130CC098858091ED
:1021E0008401981307C0998580918501981302C0D6
:1021F000CE0175DFDF91CF910895AEE1B0E0E2E06E
:10220000F1E157C780917F01882309F46AC00E94D9
:102210008F01882309F457C08FE30E9402028F7751
:102220008E3108F401C08DE1898345988FEF0E94BB
:10223000890110E00BC080E00E948901E2E0F0E03B
:10224000EC0FFD1FE10FF11D80831F5F89811817BF
:1022500090F380E00E948901E82E80E00E948901CD
:10226000459A8E010F5F1F4FC8017EDF8091D80114
:1022700084FF10C08AE70E94C803F12C07C0F80150
:10228000EF0DF11D80810E94C803F39489818F15A1
:10229000B0F727C08AE50E94C803F12C07C0F801F7
:1022A000EF0DF11D80810E946104F39489818F15E7
:1022B000B0F78091D80185FF03C08E2D0E94610484
:1022C0000E94ED030EC085E30E940202813149F4B1
:1022D0008AE30E94510286E30E94510284E30E9435
:1022E00051026E96E6E001C7AEE1B0E0E9E7F1E148
:1022F000E2C68C01FC018181823711F498DD36C081
:10230000833711F0863601F54DE1BE016F5F7F4FD7
:10231000C80102960E94650499270197298130E03F
:102320008217930729F08EE791E00E94E0031EC018
:1023300061E070E0F8018181833711F060E070E0C6
:10234000CE010196B9DD12C0813621F443E060E888
:1023500071E005C0873741F443E063E871E0C801EC
:1023600002960E94650402C010927F016E96E4E01E
:10237000BEC60F931F93CF93DF93EC0110E0812F24
:1023800090E063E070E050D6FC01EC58FF4F049100
:10239000812F90E063E070E047D68B589F4FFC019F
:1023A00025913491002399F0209739F480E20E941E
:1023B000C803802F0E94C80308C08881801305C00D
:1023C000CE01F901099581E003C01F5FD8CF80E0FD
:1023D000DF91CF911F910F910895CF93C0912E015E
:1023E00080932E0134C08EE192E00E94DB05909133
:1023F0008A018A3011F08D3001F5992341F1E92FDE
:10240000F0E0E557FE4F10828BE891E0B2DF8111DA
:1024100011C087E891E00E94E0038BE891E00E9400
:10242000D5038BE891E00E94E00380E090E0A1DF1B
:102430000E94ED0310928A010AC0903440F4E92F03
:10244000F0E0E557FE4F80839F5F90938A01809173
:1024500020028111C8CFC0932E01CF910895CF9350
:10246000DF93EA01292F33272230310539F0233059
:10247000310549F02130310509F125C02EE330E066
:10248000EFEDF1E024C099278130910541F08230D1
:10249000910541F0892BB9F4EBEDF1E00CC0E3ECD0
:1024A000F1E009C00E946401882319F0E3EAF1E039
:1024B00002C0E3EBF1E0249130E009C022E130E01A
:1024C000EDE1F2E004C020E030E0E0E0F0E0F9838C
:1024D000E883C901DF91CF91089520916C0230917A
:1024E0006D022617370748F06115710539F4209100
:1024F000E8002E772093E80001C0B9019C0180E03C
:1025000034C090916502992309F445C0953009F4CF
:1025100044C09091E80093FD42C09091E80092FD84
:1025200034C09091E80090FF20C08091F20090E0CC
:10253000F901821B930B05C021912093F10061509A
:1025400071099F01280F391F6115710519F0283095
:10255000310590F381E02830310509F080E0909159
:10256000E8009E779093E8009F016115710549F698
:102570008111C7CF0AC080916502882361F0853040
:1025800061F08091E80083FD0AC08091E80082FF3D
:10259000F2CF80E0089582E0089583E0089581E01D
:1025A000089520916C0230916D022617370748F08C
:1025B0006115710539F42091E8002E772093E80029
:1025C00001C0B9019C0180E035C09091650299235A
:1025D00009F446C0953009F445C09091E80093FD98
:1025E00043C09091E80092FD35C09091E80090FFC3
:1025F00021C08091F20090E0F901821B930B06C08C
:1026000024912093F1003196615071099C012E0FA5
:102610003F1F6115710519F02830310588F381E0FD
:102620002830310509F080E09091E8009E77909382
:10263000E8009F016115710541F68111C6CF0AC0FE
:1026400080916502882361F0853061F08091E80017
:1026500083FD0AC08091E80082FFF2CF80E00895F8
:1026600082E0089583E0089581E00895982F2CC0BA
:102670009093E900981739F07091EC002091ED00EB
:102680005091F00003C0242F762F50E021FD02C0AE
:102690009F5F1AC03091EB003E7F3093EB0030918A
:1026A000ED003D7F3093ED003091EB0031603093D1
:1026B000EB007093EC002093ED005093F00020911C
:1026C000EE0027FDE5CF07C0953090F28F70809324
:1026D000E90081E0089580E008950F931F93CF9360
:1026E000DF93062FEC0110E02EC09881911103C0FA
:1026F0001F5F259628C02C81E981FA816B81892F83
:102700008F70853010F080E021C0223010F056E04C
:1027100001C052E028E030E040E003C04F5F220FEC
:10272000331F2E173F07D0F34295407F452B991F4B
:102730009927991F6295660F660F607C692B96DF5B
:102740008111D6CFE0CF1013D0CF81E0DF91CF91B0
:102750001F910F9108958091660287FD05C08091B9
:10276000E80080FF0EC012C08091E80082FD05C025
:10277000809165028111F8CF08958091E8008B77F0
:1027800008C0809165028111EACF08958091E80028
:102790008E778093E80008958091E4009091E500A1
:1027A00045E62091EC0020FD1FC023C0209165026A
:1027B000222391F0253091F02091EB0025FD10C0EF
:1027C0002091E4003091E5002817390751F341507A
:1027D000C90139F784E0089582E0089583E00895FF
:1027E00081E0089580E008952091E80020FFDECF89
:1027F000F9CF2091E80022FFD9CFF4CF40D042D0CA
:102800008091D8008F778093D8008091D80080681D
:102810008093D8008091D8008F7D8093D80019BC18
:1028200082E089BD09B400FEFDCF109265021092CE
:102830006102109263021092620242E060E080E066
:1028400015DF8091E1008E7F8093E1008091E200AE
:1028500081608093E2008091E20088608093E200D2
:102860008091E0008E7F8093E0000895E3E6F0E041
:1028700080818E7F808381E080936402BFCF10923D
:10288000E20008951092E10008951F920F920FB692
:102890000F9211242F933F934F935F936F937F93E6
:1028A0008F939F93AF93BF93EF93FF938091E1003A
:1028B00082FF0AC08091E20082FF06C08091E100A1
:1028C0008B7F8093E10024D28091E10080FF18C0CB
:1028D0008091E20080FF14C08091E2008E7F80939F
:1028E000E2008091E20080618093E2008091D80054
:1028F00080628093D80019BC109265020E94BF03C9
:102900008091E10084FF2FC08091E20084FF2BC002
:1029100019BC82E089BD09B400FEFDCF8091D800CA
:102920008F7D8093D8008091E1008F7E8093E100BD
:102930008091E2008F7E8093E2008091E2008160CE
:102940008093E20080916102882311F084E007C047
:102950008091E30087FF02C083E001C081E08093A3
:1029600065020E94BE038091E10083FF27C0809131
:10297000E20083FF23C08091E100877F8093E10024
:1029800082E080936502109261028091E1008E7F67
:102990008093E1008091E2008E7F8093E20080913D
:1029A000E20080618093E20042E060E080E05EDE71
:1029B0008091F00088608093F000AAD1FF91EF91A0
:1029C000BF91AF919F918F917F916F915F914F9147
:1029D0003F912F910F900FBE0F901F9018951F924F
:1029E0000F920FB60F9211242F933F934F935F9343
:1029F0006F937F938F939F93AF93BF93CF93EF93F7
:102A0000FF938091E9008F709091EC0090FF02C0DD
:102A100090E801C090E0C92FC82B1092E900809186
:102A2000F000877F8093F00078941CD01092E9002A
:102A30008091F00088608093F000CF70C093E9002F
:102A4000FF91EF91CF91BF91AF919F918F917F9126
:102A50006F915F914F913F912F910F900FBE0F900B
:102A60001F901895ACE2B0E0E7E3F5E125C3E6E698
:102A7000F2E08091F100819322E0EE36F207C9F78F
:102A80000E94C4038091E80083FF31C180916602F7
:102A900090916702953009F487C038F49130B1F114
:102AA00070F0933009F023C131C0983009F4F3C0BD
:102AB000993009F4FFC0963009F019C19BC08038E5
:102AC00021F0823809F013C108C080916202909110
:102AD0006302992389F082600FC080916A0290910D
:102AE0006B028F7099278093E9008091EB0085FB42
:102AF000882780F91092E9009091E800977F9093E1
:102B0000E8008093F1001092F100D0C0882319F002
:102B1000823009F0ECC08F7121F0823009F0E7C0FB
:102B20000BC080916802813009F0E1C0933009F058
:102B300080E0809363022FC08091680281112BC0D6
:102B400080916A0290916B028F709927009709F427
:102B5000CEC08093E9002091EB0020FF1CC02091A3
:102B60006702233021F48091EB00806212C09091C3
:102B7000EB0090619093EB0021E030E001C0220F68
:102B80008A95EAF72093EA001092EA008091EB0020
:102B900088608093EB001092E9008091E800877FC5
:102BA0008093E800D8DDA3C08111A1C080916802A4
:102BB000909169028F779927182F9091E300907870
:102BC000982B9093E3008091E800877F8093E80042
:102BD000C2DD8091E80080FFFCCF8091E300806837
:102BE0008093E300112311F083E001C082E0809321
:102BF00065027DC08058823008F079C080916802FB
:102C0000909169028C3D23E0920771F583E08A83FD
:102C10008AE289834FB7F894DE01139620E03EE004
:102C200051E2E32FF0E050935700E49120FF03C0FE
:102C3000E295EF703F5FEF708E2F90E0EA3010F07A
:102C4000C79601C0C0968D939D932F5F243149F79D
:102C50004FBF8091E800877F8093E8006AE270E0D0
:102C6000CE0101963ADC11C0AE01455D5F4F609127
:102C70006A02F5DB0097D9F12091E800277F2093C5
:102C8000E800BC018BA59CA58CDC8091E8008B77CB
:102C90008093E8002CC0803851F58091E800877F50
:102CA0008093E800809161028093F1008091E800B8
:102CB0008E7776CF81111BC0909168029230B8F464
:102CC0008091E800877F8093E8009093610243DD64
:102CD00080916102811104C08091E30087FF02C0EE
:102CE00084E001C081E0809365020E94C00380916E
:102CF000E80083FF0AC08091E800877F8093E800A6
:102D00008091EB0080628093EB00AC96E3E0F0C131
:102D10000895CF93809165028823A9F08091E900FE
:102D20008F709091EC0090FF02C090E801C090E09D
:102D3000C92FC82B1092E9008091E80083FD92DE34
:102D4000CF70C093E900CF910895CF93DF93EC014A
:102D50004096FC018BE0DF011D928A95E9F782E045
:102D60008C83898783E08E8761E0CE010196B5DC94
:102D7000811102C080E00AC061E0CE010696ADDCA0
:102D80008823C1F361E0CE010B96A7DCDF91CF91E0
:102D90000895CF93C62F209165022430F1F4FC01F1
:102DA0004489558966897789452B462B472BA9F09D
:102DB00081818F708093E9008091E80085FF04C0D5
:102DC000C093F10080E00AC08091E8008E77809384
:102DD000E800E2DC8823A1F301C082E0CF910895EE
:102DE00020916502243029F5FC01448955896689C2
:102DF0007789452B462B472BE1F081818F7080939B
:102E0000E9008091F200811102C080E00895909164
:102E1000E8008091E8008E778093E80095FDF5CF7B
:102E2000BBDC811107C09091E8009E779093E80089
:102E3000089582E0089520916502243089F4FC0110
:102E40004489558966897789452B462B472B41F064
:102E500021812F702093E9002091E80020FDC0CF50
:102E6000089520916502243019F02FEF3FEF24C020
:102E7000FC014489558966897789452B462B472B68
:102E8000A1F386818F708093E9008091E80082FF32
:102E9000ECCF8091F200882321F02091F10030E006
:102EA00002C02FEF3FEF8091F200811105C08091A9
:102EB000E8008B778093E800C90108950895CF93C7
:102EC000DF93EC018091E80083FFA2C0888190E04D
:102ED00020916A0230916B022817390709F098C0D7
:102EE00080916702813261F020F4803209F090C055
:102EF0003CC0823209F46BC0833209F089C07AC0C9
:102F000080916602813A09F083C08091E800877F52
:102F10008093E8008091E80080FFFCCF4C895D89B8
:102F20006E897F894093F100BB27A72F962F852FAD
:102F30008093F100CB01AA27BB278093F100472F94
:102F40005527662777274093F100888D8093F100FD
:102F5000898D8093F1008A8D8093F1008091E80043
:102F60008E778093E800F7DB53C080916602813250
:102F700009F04EC08091E800877F8093E80005C08B
:102F800080916502882309F443C08091E80082FFA4
:102F9000F7CF3091F1002091F1009091F1008091F4
:102FA000F1003C8B2D8B9E8B8F8B8091F100888F55
:102FB0008091F100898F8091F1008A8F8091E800E3
:102FC0008B778093E800C7DBCE0178DF21C080914A
:102FD00066028132E9F48091E800877F8093E800FF
:102FE000BADB8091680290916902998B888BCE013F
:102FF00065DF0EC080916602813251F48091E80055
:10300000877F8093E800A7DB60916802CE0156DFDE
:10301000DF91CF910895002480FD060E660F11F018
:103020008695D1F7802D08955527002480FF02C092
:10303000060E571F660F771F6115710521F09695D3
:103040008795009799F7952F802D0895AA1BBB1B94
:1030500051E107C0AA1FBB1FA617B70710F0A61B98
:10306000B70B881F991F5A95A9F780959095BC01B9
:10307000CD01089597FB072E16F4009406D077FD36
:1030800008D0E4DF07FC05D03EF4909581959F4F72
:103090000895709561957F4F08952F923F924F92BA
:1030A0005F926F927F928F929F92AF92BF92CF92D8
:1030B000DF92EF92FF920F931F93CF93DF93CDB7E1
:1030C000DEB7CA1BDB0B0FB6F894DEBF0FBECDBF59
:1030D00009942A88398848885F846E847D848C842A
:1030E0009B84AA84B984C884DF80EE80FD800C8133
:1030F0001B81AA81B981CE0FD11D0FB6F894DEBF16
:103100000FBECDBFED010895F999FECF92BD81BDEF
:10311000F89A992780B50895262FF999FECF1FBAFE
:1031200092BD81BD20BD0FB6F894FA9AF99A0FBEF0
:0831300001960895F894FFCF09
:1031380000834000000104400000018208000001F3
:1031480000000000000000000000000210B071063E
:0C31580000A40100006E022000323100D3
:00000001FF
