:10000000D1C10000EBC10000E9C100000C942C112B
:10001000E5C10000E3C10000E1C10000DFC1000054
:10002000DDC10000DBC10000D9C100000C946C27C9
:100030000C941628D3C10000D1C100000C94BA1052
:10004000CDC10000CBC10000C9C1000006C4000042
:10005000C5C10000C3C10000C1C10000BFC1000094
:10006000BDC10000BBC10000B9C10000B7C10000A4
:10007000B5C1000042B10743020346CC0969901A9A
:10008000415B165ACD1845D01947CF094D070A4B89
:10009000760A55FE0A59C21B521B0754EE1E56160D
:1000A00008575D07587B0C65D60766B8226D0C248F
:1000B0006CA007748D0475791378B9030000000EE5
:1000C00003430055004C0034003300330000000EA1
:1000D00003430055004C003800360038000000167D
:1000E0000362007500730077006100720065002EE6
:1000F000006400650000000403090409023E0002D8
:100100000100C032090400000102020100052400C0
:1001100010010424020605240600010705820308D5
:1001200000FF09040100020A000000070504024064
:1001300000050705830240000512011001020000BE
:1001400008EB03442001000102DC01072E050DD35A
:1001500091FF080500000C0021656A2D3B1322F871
:1001600062073F181D1CC700B0876BF8B611EA2A5A
:10017000001F41000D2E2D07D3913D0432000006D3
:100180000021656A55E43023B900070018146C0794
:100190000090876BF85611E92A001F410000030FF9
:1001A0001E2627000000030F1E2536386700030FA8
:1001B000256740605000030F275188838100030F9B
:1001C0002750C8C3C20027000000000000006700DD
:1001D000000000000000500000000000000081004E
:1001E000000000000000C2000000000000203D20D0
:1001F00000202F2000504C4C300D0A00504C4C3148
:100200000D0A00203D2000202F200043554C5F5652
:1002100034005620322E30302043554C34333300D6
:100220005620322E30302043554C383638004C4F53
:1002300056460D0A00424F56460D0A000B08105B49
:1002400011F81547191D1A1C1BC71C001DB221B639
:1002500023EA0007022E030D04E905CA070C0B066A
:100260000D210E650F6A10C8119312031534173350
:10027000181819161B4321562500261129592C81BF
:100280002D353EC30007024604C605260B0610C8DE
:100290001193120313221534173F182819161B4304
:1002A0002156250026110D210E650F6A070C160731
:1002B00020F81E871F6B29592C812D353EC3FF0066
:1002C0004C454E4552520D0A004C4F56460D0A0001
:1002D0004C454E4552520D0A0000070246030D04DC
:1002E0009A057D0642070C0B060D210E650F6A105C
:1002F000C81193120315341700181819161B431C44
:100300006825002611FF000000000000000000002A
:1003100000000000000D2E2D07D3913D0432000097
:10032000060010B07155E43023B900070018146CB2
:10033000070090876BF85611E92A001F41000D2E27
:100340002D07D3913D04320000060010ABA5550ADD
:100350003023B900070018146C070090876BF8561B
:1003600011E92A001F410000535300547D7DFFFF17
:100370004B4B7E7E004E2F41004E2F4100454F4299
:100380000D0A004E2F41003F202800206973207580
:100390006E6B6E6F776E2920557365206F6E6520CA
:1003A0006F66000011241FBECFEFD4E0DEBFCDBFCB
:1003B00011E0A0E0B1E0E8E4F7E502C005900D929D
:1003C000A233B107D9F724E0A2E3B1E001C01D9246
:1003D000AF32B207E1F70CD00C94A22B11CEF894F7
:1003E00081E085BF82E085BFE0E0F8E309950895EC
:1003F0002FE088E190E00FB6F894A8958093600014
:100400000FBE2093600090E080E80FB6F8948093D0
:100410006100909361000FBE2E9A2D9A04B603FEE0
:100420000AC083E390E0EED4882329F060E083E300
:1004300090E0E3D4D4DF89EF87BD84E085BD82E01E
:1004400084BD80936E00109280008AE080938100CA
:1004500084B7877F84BF3D9A0E94D723D4D524D305
:100460000E948E1E0E945A0C85E993E29093F50239
:100470008093F4020E949B1289E080933501459895
:1004800017D30E94580E5FD20E94FE220E941B14B6
:100490000E941C150E9457180E944B19F1CF292F5A
:1004A00033272230310539F02330310549F021302E
:1004B0003105F9F023C02EE330E0EBEFF0E022C08D
:1004C00099278130910541F08230910541F0892BC7
:1004D000A9F4E7EFF0E00AC0EFEDF0E007C01E99E5
:1004E00003C0EFEBF0E002C0EFECF0E0249130E06D
:1004F00009C022E130E0E9E3F1E004C020E030E0AF
:10050000E0E0F0E0DA01ED93FC93C90108958EBDBF
:100510000DB407FEFDCF8EB50895A1E0B0E0E3E98C
:10052000F2E00C942A2A482F8A3008F048E0E42EA2
:10053000F12C83E0EE0CFF1C8A95E1F78DE991E048
:10054000E80EF91E8BE290E0F70164918C010F5FD9
:100550001F4F498352D4FFEFEF1AFF0AC8014981A8
:100560000333110589F74550453010F461E101C0AE
:1005700067E184E290E041D42196E6E00C94462ABB
:10058000CF93DF9382E090E0FC01EE58FE4F649140
:10059000EC01219632D4CE01CB32D105A9F787E305
:1005A00090E0FC01EC5EFE4F6491EC01219625D4B5
:1005B000CE01C036D105A9F71E9918C060E18FE0C1
:1005C00090E01BD460EB80E190E017D461E781E11B
:1005D00090E013D460E184E490E00FD460EB85E414
:1005E00090E00BD461E786E490E007D488E095DFE3
:1005F000DF91CF9108952898806C89DF80E087DFB4
:10060000289A0895A1E0B0E0E8E0F3E00C942D2AE8
:1006100041E0BE016F5F7F4F019698D3892B21F196
:100620008981893969F410E0812FE5DF8BD3812F2F
:100630008770873009F412D31F5F1033A9F714C0F5
:10064000DADF182F83E4C5D289817CD38DEE91E067
:10065000F8D2812F77D381EF91E0F3D240E262E0CC
:10066000812F90E0FFD2FAD22196E3E00C94492A40
:10067000A1E0B0E0EEE3F3E00C942E2A2898806429
:10068000698345DF6981862F42DF289A2196E2E05F
:100690000C944A2A28983BDF289A0895CF93CFEFED
:1006A00007C08AE090E015D2C11102C0EA9A07C0E3
:1006B00084E3F0DFC1508077803199F7F7CFCF9195
:1006C0000895CF93EA9886E3E5DFCFEF05C08AE08F
:1006D00090E0FFD1CC2331F085E3DCDFC15080779F
:1006E0008032A9F7CF910895EF92FF920F931F9355
:1006F000CF93DF93EC011092E101EA98209A289AB7
:100700008EE190E0E6D128988EE190E0E2D1289A3F
:100710008DE290E0DED180E3BDDF84E690E0D9D1C8
:10072000289880E4F4DE8E01075D1F4F7E018FEF75
:10073000E81AF80ACE0166D3EADEE701E016F10610
:10074000A9F7289A28988EE7E2DE8BE290E0EC0188
:10075000219658D3DCDECE01C333D105C1F7289AE8
:1007600083E398DF81E0BAD1CDB7DEB7E6E00C9441
:10077000462AA1E0B0E0EFEBF3E00C942E2A22E051
:10078000298341E0BE016F5F7F4F0196DFD28981EF
:10079000C4DE82E090E0A8DF2196E2E00C944A2AD1
:1007A00086E378DF1092F6021092DF011092E101E9
:1007B000089582E090E098DF81E08093F602109245
:1007C000DF011092E10108951F93CF93DF93D82F9B
:1007D000162FC0E085E30FDF8D1739F0812F90E0F1
:1007E00078D1C150B9F781E001C080E0DF91CF91AD
:1007F0001F91089585E2FFDE8F3311F080E00895A8
:1008000086E348DF80913201811104C085EF91E0D9
:1008100018D202C08DE33EDF83E33CDF64E081E079
:10082000D3DF85E2E8DE8F3349F780913201811111
:1008300003C08CEF91E005D281E0089585E3DBDE13
:100840008D3051F485E2D7DE8F3331F4D3DF84E38A
:1008500021DF80778031D9F708951F920F920FB66C
:100860000F9211248F939F93AF93BF93EF93FF93B6
:100870008091F8029091F902A091FA02B091FB02E6
:100880000196A11DB11D8093F8029093F902A093E7
:10089000FA02B093FB028091F7028F5F8093F70218
:1008A000E9E5F3E080819181181619061CF401979F
:1008B00091838083369683E0E137F80799F780913A
:1008C000730390917403009729F001979093740338
:1008D00080937303809186038F3F19F0815080933A
:1008E0008603FF91EF91BF91AF919F918F910F90F0
:1008F0000FBE0F901F9018952FB7F8944091F802F3
:100900005091F9026091FA027091FB02FC01408360
:100910005183628373832FBF0895A4E0B0E0E3E9BD
:10092000F4E00C942E2ACE010196E6DF8C810AD2E7
:100930008B8108D28A8106D2898104D28FD12496F4
:10094000E2E00C944A2A1F93CF93DF938091F80240
:100950009091F902A091FA02B091FB02209133012B
:10096000281709F45FC08091F8029091F902A091D4
:10097000FA02B091FB0280933301A895C9E5D3E058
:1009800010E028813981232B19F4812F0E94242122
:100990001F5F26961430A9F780917303909174031A
:1009A000892B11F40E94852180918603811102C058
:1009B0000E94E12180914A03882339F0815080937D
:1009C0004A03811102C00E94AF148091F7028D3753
:1009D00048F11092F70280911B0181FF04C088B199
:1009E00090E2892788B98091FC029091FD028438B9
:1009F00023E0920728F401969093FD028093FC0275
:100A0000809134018F5F809334018C3359F41092BC
:100A10003401809158038F5F809358038C3310F01A
:100A200010925803DF91CF911F910895CF9320C06A
:100A300080E091E00E94022997FF16C086E195E0D0
:100A40009093F3028093F202E091F402F091F502A8
:100A500081E00995809101018F708093E900809178
:100A60009A0381110AC01EC0682F8BED93E0F3D268
:100A70008091DD038034E0F2E1CF8091E80080FDD9
:100A80000AC010C088E993E0FDD2682F80E091E0B1
:100A90000E949A2801C0C1E480919A03882311F032
:100AA000C15081F7CF9108950E945D2778940895F1
:100AB000BDDF80E091E00E94EC280C945A28089554
:100AC000089580E091E00C94762880E091E00C9409
:100AD0003029880F991F0197F1F7089520ED37E02D
:100AE00003C0F9013197F1F78150D8F70895CF93FA
:100AF000DF93FC018381843509F068C0808120E0A8
:100B000030E0422F435F481750F050E090E09C01E6
:100B10002F5031094217530709F058C00AC02F5F00
:100B20003F4FDF01A20FB31F1F969C919B3349F7E4
:100B3000ECCFAC014E5051094E0F5F1FDA011396F6
:100B40002C91243509F042C0DC011B97AE0FBF1F6A
:100B5000348111962C911197321338C03581129639
:100B60002C911297321332C0368113962C91139721
:100B700032132CC0378114962C911497321326C04F
:100B8000419715962C9115978E0F9F1FEC012B8383
:100B900016968C911697EA01898319968C9119976C
:100BA0008A831A968C911A978B831B968C911B972C
:100BB0008C831C968C911C978D831D968C918E83B3
:100BC00080818A50808382818A508283DF91CF9195
:100BD0000895CF93C82F80912204843041F48091EE
:100BE000350180FF04C06C2F88E993E034D28091F6
:100BF00055038823C9F08091350183FF15C0CA30A1
:100C000099F0CD3011F46BE301C06C2F85E093E0D7
:100C100022D2CD3019F485E093E069DF83E0809340
:100C20004A0382E080935003CF910895CF93DF93DE
:100C3000EC0101C0CEDF89918111FCCFDF91CF9112
:100C40000895CF93DF93EC0102C0C3DF2196FE012C
:100C500084918111FACFDF91CF9108958DE0B9DFB2
:100C60008AE0B7CFA6E0B0E0E8E3F6E00C942C2AE7
:100C7000062F1E8215E02AE030E01150E1E0F0E09E
:100C8000EC0FFD1FE10FF11DB9010E94F729805DF6
:100C90008083CB010150009759F01111EECF08C0AD
:100CA0001150E1E0F0E0EC0FFD1FE10FF11D40837A
:100CB000015007FD02C01111F3CF81E090E08C0FCD
:100CC0009D1F810F911DB2DF2696E4E00C94482A07
:100CD000A5E0B0E0EEE6F6E00C942E2A1D8224E0BA
:100CE000382F3F702150E22FF0E03A3010F4305DA1
:100CF00001C0395CA1E0B0E0AC0FBD1FEA0FFB1FE3
:100D0000308334E0969587953A95E1F761500097E6
:100D100039F708C02150E1E0F0E0EC0FFD1FE20FD1
:100D2000F11D4083615067FD02C02111F3CF81E0C6
:100D300090E08C0F9D1F820F911D78DF2596E2E0D9
:100D40000C944A2A40E362E090E0C2CFFB0122C04B
:100D5000213608F02052A22FA053AA3010F42A2FD7
:100D600005C0A22FA154A63018F42753232B05C089
:100D7000203291F02A3381F005C0552331F02193C0
:100D8000415041F4E61BF70B0DC0322F3295307FF6
:100D900051E002C050E030E0DC012D91CD01211185
:100DA000D7CFF0CFCF010895FC01DB0180E090E0C8
:100DB0000BC0322F30533A3038F46AE070E00E94B2
:100DC000E529C097820F911D21912111F2CF8D93BA
:100DD0009C930895982F92959F709A3010F4905D8F
:100DE00001C0995CFB0190838F708A3010F4805DA4
:100DF00001C0895CFB01818308950E94942BF999BD
:100E0000FECF08950C948C2B08951F93CF93DF93FE
:100E10000AC0EC012196F6DF95DF112311F08AE379
:100E2000D8DE612FCE01162F11506111F2CFDF9164
:100E3000CF911F910895A2E0B0E0E1E2F7E00C94B9
:100E40002B2AFC0121812D3421F466E08AEF93E006
:100E500005C0203529F460E18AED93E0D6DF28C093
:100E60001A82198242E0BE016F5F7F4F01966EDFEA
:100E70009981823029F4192F00E08A81082B02C061
:100E8000092F10E0C801BEDFF82E82E5A2DE40E3A4
:100E900064E0C8011DDF83E092E0D3DE8F2D52DFD6
:100EA00087E092E0CEDE40E262E08F2D90E0DADE75
:100EB000D5DE2296E5E00C94472AA6E0B0E0E3E612
:100EC000F7E00C94282A6C0143E0BE016F5F7F4F6E
:100ED00001963CDF823080F12981823019F4E22EC4
:100EE000F12C04C0F22EE12C2A81E22A8C01112778
:100EF000FE01E00FF11F6081C7017FDF000F111FAE
:100F00000F5F1F4F0C0D1D1D8FEFE81AF80A10C060
:100F100041E0BE016F5F7F4FC80118DF892B61F090
:100F20006981C7016ADF0E5F1F4FE2E0EE0EF11C20
:100F3000F80180818111ECCF2696E8E00C94442AD8
:100F400041E06BE171E0019601DF80911B0180FFC0
:100F500002C0459A01C0459860911B0184E390E06E
:100F60004CCFA1E0B0E0E7EBF7E00C942E2A198219
:100F7000009731F041E0BE016F5F7F4F0196E6DEE2
:100F80008981882321F061E083E390E036DF1092CD
:100F90006E00F89428E088E190E00FB6F894A895E8
:100FA000809360000FBE20936000FFCFCF93DF934C
:100FB000EC0162E080E090E020DF60E081E090E022
:100FC0001CDFDEDA60E080E690E017DF60E081E6BB
:100FD00090E013DF60E083E390E00FDF62E084E302
:100FE00090E00BDF60E080E690E007DF60E081E604
:100FF00090E003DF8981883719F080E090E0B1DF6D
:10100000DF91CF91089580E090E0FCDE823029F4FA
:1010100081E090E0F7DE882319F080E090E0C6DF01
:1010200084E390E0EFDE80931B010895FC01818151
:10103000883419F48BE092E007C01E9903C082E166
:1010400092E002C080E292E0FCDD08CEFC01128258
:10105000108211820895FC018FB7F8949281903428
:1010600008F00EC09F5F92839081DF01A90FB11D30
:1010700013966C939F5F903411F0908301C010829F
:101080008FBF0895FC019FB7F8948281811101C040
:101090000EC0815082832181DF01A20FB11D139602
:1010A0008C912F5F203411F0218301C011829FBFEA
:1010B0000895FA013081882369F0DB01A30FB11D87
:1010C000E1E0F0E0022E01C0EE0F0A94EAF79C91F5
:1010D0009E2B9C93222319F0822F81500BC0832FCB
:1010E0008F5F8C3010F4FA018083FB01E80FF11D53
:1010F000108287E090E00895CF93C82F5B9A8823F1
:1011000019F080913A0102C08091380190E034E0FA
:10111000880F991F3A95E1F7DCDC5B98CC2319F036
:101120008091390102C08091370190E024E0880F5E
:10113000991F2A95E1F7CDDCCF910895A6E0B0E0A4
:10114000E4EAF8E00C941E2A5C01162F742E222E7D
:10115000EA82C42ED12C4091FC025091FD02B601CE
:101160006E5F7F4F802F0E94DC29992787FD909525
:101170004817590720F48EE292E063DD80C0481BD7
:10118000590B5093FD024093FC02459A8091E10176
:10119000882341F01092E1018EE291E0ACD321E08E
:1011A000298301C019828091F602811101C001DBFF
:1011B00088DA812E912CEE24E394F12C312CC50198
:1011C000870D911D77FC9A959C838B83612C712CE4
:1011D00005C080E091DF9FEF691A790A68147904ED
:1011E000C4F3112311F081E087DF20E030E01DC05F
:1011F00057E0452E512C3501620E731EC701042C99
:1012000001C0880F0A94EAF7F301908189232D83A6
:101210003E8372DFF1E04F1A51082D813E818FEF3E
:101220004816580659F72F5F3F4F2C153D0504F31C
:1012300047E0642E712C0EC0C701062C01C0880F38
:101240000A94EAF7EB81FC819081892355DFF1E074
:101250006F1A7108261437047CF38A813FDC015031
:1012600009F0B4CF8091FE02882311F017DA02C092
:1012700086E310DA298121110E947316459826967B
:10128000E2E10C943A2AADE0B0E0E9E4F9E00C9434
:10129000212A7C01162F842F022F6701C60ED11C34
:1012A000462FB7013DD3D6018C931F5F1D8619824F
:1012B0005E2C670127E088248394912C32C0E7E0FC
:1012C000AE2EB12C3701680E711CF4010A2C01C03E
:1012D000EE0F0A94EAF7D3018C91AE01435F5F4FA2
:1012E000BE016F5F7F4F8E23E4DE282FB1E0AB1A83
:1012F000B10858F7D601ED916D010E2EE295E0256B
:101300000E2EE695E695E025F0E03196E1FB882784
:1013100080F9AE01435F5F4FBE016F5F7F4FC9DE53
:10132000282F8C2D8519811708F4C9CF222311F09D
:10133000215004C08D858F5F8D8727E089E18093E0
:1013400037018093380185E28093390180933A0117
:101350007AE0E72E4D856CE0CE010196EFDE2D960A
:10136000EFE00C943D2AADE0B0E0E9EBF9E00C943D
:101370002D2A162F242F4BE0BE016F5F7F4F019661
:101380002D87E4DC2D85412F682FCE0101967BDF70
:101390002D96E3E00C94492A43E066E0E4CFEF9217
:1013A0000F93CF93DF93CDB7DEB760970FB6F89466
:1013B000DEBF0FBECDBF40E1BE016F5F7F4F019624
:1013C000C5DC69814A810B818C81809338018D81D4
:1013D000809337018E8180933A018F818093390108
:1013E000E02EE294AFE0EA220F70242F2F70429596
:1013F0004F70CE010896A2DE60960FB6F894DEBF5D
:101400000FBECDBFDF91CF910F91EF900895A9E16D
:10141000B0E0EDE0FAE00C94262A4BE0BE016F5FED
:101420007F4F019693DC182F893009F05BC099E15A
:10143000909337019093380190933A0182E380931F
:10144000390169E0CE01019675D2E1E0F0E0EC0FE0
:10145000FD1FE10FF11D8083198E1D868E010F5F28
:101460001F4F6E018BE0C80ED11C27E0AA24A39465
:10147000B12C25C0E12CF12CF5010E2C01C0EE0F92
:101480000A94EAF7D8018C91AE01475E5F4FBE0126
:10149000635F7F4F8E230DDE282FBFEFEB1AFB0A11
:1014A00088E0E816F10441F7AE01475E5F4FBE01E8
:1014B000635F7F4F81E0FDDD282F0F5F1F4F0C150D
:1014C0001D05C1F6222311F0215004C0898D8F5FC4
:1014D000898F27E0BAE0EB2E03E0498D6CE0CE0166
:1014E0000D962CDE6996EAE00C94422AA9E1B0E060
:1014F000ECE7FAE00C94212A4BE08E010F5F1F4FBE
:10150000B801019623DCF82E582E85E3809338012C
:1015100096E19093370190933A01809339016F2DB2
:10152000C80114D2F801EF0DF11D80835394198E78
:101530001D86780127E0AA24A394B12C48014DC050
:10154000C12CD12C3401680E711CF5010C2C01C08A
:10155000EE0F0A94EAF7D3018C91AE01475E5F4F1C
:10156000BE01635F7F4F8E23A4DD282FBFEFCB1A10
:10157000DB0A84E0C816D10441F7AE01475E5F4F35
:10158000BE01635F7F4F81E094DD282F34E0C32EDE
:10159000D12CF5010C2C01C0EE0F0A94EAF7D7010B
:1015A0008C91AE01475E5F4FBE01635F7F4F8E231C
:1015B00080DD282FBFEFCB1ADB0A88E0C816D104E4
:1015C00041F7AE01475E5F4FBE01635F7F4F81E031
:1015D00070DD282FAFEFEA1AFA0A8E2D801B8515D1
:1015E00008F4AECF9AE0E92E03E0498D6AE0CE011F
:1015F0000D96A4DD6996EFE00C943D2AEF920F93CF
:10160000CF93DF9300D000D0CDB7DEB743E0BE016B
:101610006F5F7F4F01969ADB8AE68093380194E2F0
:101620009093370191E290933A018093390180E8D9
:101630008C835FE0E52E03E026E043E060E0CE012E
:1016400001967CDD0F900F900F900F90DF91CF915E
:101650000F91EF9008956F927F928F929F92BF9219
:10166000CF92DF92FF920F931F93CF93DF93A62F1A
:101670001092AB011092AC01FC016181660F660F04
:10168000660F2381621B695F1092AD01F12C70E03F
:1016900047E0F7E0DF2EC12C20E007E010E0C1E0DA
:1016A000D0E07DC0FC01EC0DF11D248130E00D2C5B
:1016B00002C0359527950A94E2F721703327522FFF
:1016C000DD2011F0DA9403C0C394E7E0DE2EAB34E2
:1016D00091F4433009F081C0F11007C051115CC092
:1016E0001092AB017093AC0176C0F12C79C0AB3491
:1016F00009F050C03CC04F3F41F5A634B9F4E72F84
:10170000F0E0E355FE4F4081042E42954025042E23
:1017100046954695402550E04F5F5F4F41FB88243A
:1017200080F8912C8216930641F004C0A53429F468
:10173000511103C0F092AB01D5CF7F5FE72FF0E0EE
:10174000E355FE4F108247E029C0552319F1A63416
:1017500059F4E72FF0E0E355FE4F9E01042E01C03F
:10176000220F0A94EAF713C0A53409F0C0CFE72F7F
:10177000F0E0E355FE4F9801241B310947FD3395F6
:101780003E0102C0660C771C2A95E2F79301308176
:10179000322B3083415002C0FF24F3942B2DB22E04
:1017A000B394261708F47ECFF092AB017093AC018E
:1017B0006B1588F4A53419F44F3F09F404C08091E7
:1017C000AB01882319F07F5F7093AC0181E09091A9
:1017D000AC01911108C080E006C04F3F09F4A8CFCA
:1017E0005111C5CFD7CFDF91CF911F910F91FF90AE
:1017F000DF90CF90BF909F908F907F906F900895D3
:1018000010926F008091DE0190E06CE170E00E9428
:10181000E529855C9E4FFC0110820895FC01218121
:1018200030E050E07081C901841B950B0B964797FF
:10183000C8F4872F90E070E0FC01E61BF70BEC305A
:10184000F10584F4E53FFF4F6CF0280F391F640F5A
:10185000751F261B370B2C30310524F481E0253F02
:101860003F4F0CF480E00895FC012181243108F001
:10187000C7CF662389F0DC01A20FB11D81E090E0A3
:10188000038002C0880F991F0A94E2F714969C9176
:101890001497982B14969C938381882319F0815078
:1018A0008383089587E083832F5F2183E20FF11DF7
:1018B00014820895539A5B985298E9E6F0E080818B
:1018C0008061808382EC91E09093FD028093FC0222
:1018D000109257011092730110928F011092F6022C
:1018E00008958091FE02882321F00E94D9030C9470
:1018F0004E030C94D003FC01218121110BC0809177
:10190000FE0220DA40E265E08091FC029091FD0247
:10191000A9D9A4C941E06EEF72E0019617DAE1CFD0
:1019200006C04150FB01E40FF11D9081890F411168
:10193000F8CF089520E006C06150FC01E60FF11DCC
:10194000308123276111F8CF822F0895A091AB0138
:1019500040E035E020E012C06150FC01E60FF11DCF
:101960005081752F72957F702727370FAA2311F0AA
:10197000442319F05F702527350F4F5F6111ECCFBD
:10198000832F820F8295807F822B0895FC01328104
:101990002381A081B181A30FB11D8C9190E0022E13
:1019A00002C0959587950A94E2F78170922F915025
:1019B0009383211104C03F5F328397E0938308959E
:1019C0008F929F92BF92CF92DF92EF92FF920F93EE
:1019D0001F93CF93DF9300D0CDB7DEB76C01812C7E
:1019E000912CB12CEE24E394F12C062F10E0015041
:1019F00011091DC0C6014A836983C8DF4A81698114
:101A0000882391F0442349F09801281939098E2D33
:101A100001C0880F2A95EAF706C08E2D082C01C058
:101A2000880F0A94EAF7B82A8FEF881A980A861660
:101A300008F38B2D0F900F90DF91CF911F910F9195
:101A4000FF90EF90DF90CF90BF909F908F90089580
:101A5000A4E0B0E0EEE2FDE00C94252A1B8227E032
:101A60002C839C012C5F3F4F3A8329831092AC0159
:101A7000FC01218130E0B3E0220F331FBA95E1F77A
:101A8000438187E090E0841B9109280F391F25349A
:101A900031057CF554C00A2D10E040E068E0CE012D
:101AA00001968EDF03551E4FF8018083982E092C76
:101AB00092949024092C969496949024CE010196A9
:101AC00065DF292D30E02F5F3F4F21FBCC24C0F88C
:101AD000D12C90E0C816D90691F5CE01019656DFBB
:101AE00081112DC0F8018081B826A394A092AC0189
:101AF00001C0B12CA090AC01F5E0FA1560F640E011
:101B000068E0CE0101965CDF082F182F012E129598
:101B10001025012E169516951025CE01019636DF5B
:101B2000212F30E02F5F3F4F21FBEE24E0F8F12C16
:101B3000282F30E0E216F30611F481E0B01280E0C5
:101B40002496EBE00C94412AA5E0B0E0EAEAFDE03F
:101B50000C942B2AFC011B8287E08C83CF01049616
:101B60009A8389831092AC018081853009F051C03D
:101B7000218130E083E0220F331F8A95E1F7438112
:101B800087E090E0841B9109280F391F2039310527
:101B900009F03FC00FE010EF29E812C0CE01019616
:101BA0002D830EDF080F111DEF2DF0E0E355FE4FE2
:101BB0002D8128272083282F2C5DF394F092AC01EF
:101BC000F090AC018EE041E068E08F1538F7CE016F
:101BD0000196F6DE080F111DEF2DF0E0E355FE4FE4
:101BE00080958083F394F092AC0141E068E0CE01EF
:101BF0000196E6DE382F20E0021B130B41E068E07F
:101C0000CE010196DDDE282F30E081E002171307B8
:101C100009F080E02596E5E00C94472AA4E0B0E0C6
:101C2000E4E1FEE00C942D2A1B8227E02C839C012A
:101C30002C5F3F4F3A832983FC012181243099F5A1
:101C40008381813081F51092AC0114C0111106C05E
:101C500067E0CE010196B4DE806804C068E0CE0182
:101C60000196AEDEE12FF0E0E355FE4F80831F5F6B
:101C70001093AC011091AC0141E0143038F367E0EF
:101C8000CE0101969DDEE12FF0E0E355FE4F880F77
:101C900080831F5F1093AC019091AD0192959F706E
:101CA00081E09A3009F080E02496E3E00C94492A20
:101CB000A0E0B0E0EEE5FEE00C94282A8091C1019E
:101CC0008823B9F18091FE0287FF17C084E30E9448
:101CD000FB028058803458F0803C58F490E08055E6
:101CE0009109E3E095958795EA95E1F703C080E0D7
:101CF00001C08FE08F590E94E9058091FE0283FFA9
:101D000016C082E70E94E9058091FE0284FF04C0AC
:101D10008091C2010E94E90586E60E94E905809152
:101D2000FE0284FF04C08091C1010E94E905109267
:101D3000C1018091C301882309F417C2459A80919B
:101D4000C40190E06CE170E00E94E529EC01C55C03
:101D5000DE4FCE01F9DE8111CFC1C8C11091AC01B7
:101D600011501093AC01412F6DEA71E086E0D8DD8F
:101D7000612F70E0FB01E355FE4F0081801303C02B
:101D8000143008F0BBC1282F30E02F5F3F4FE02F09
:101D9000F0E02E173F0739F4143028F0FB01E3552B
:101DA000FE4F8083ABC1412F6DEA71E08CE0B8DD5E
:101DB000801731F065E4CE014EDC811105C0A2C16F
:101DC000143008F09DC1F6CF8091AC018150809312
:101DD000AC01893009F096C169E08DEA91E0AADD95
:101DE0009091B60189138EC192C1F090AC01FA9422
:101DF000F092AC016F2D8DEA91E0A8DDEF2DF0E0BF
:101E00009091AB01E91BF109E355FE4F90818917D1
:101E100009F49AC18B81873009F098C11B828981AE
:101E20008150898395C18B81843009F0D4C04EE103
:101E30006CE3CE014896F2DC882309F4CCC04EE175
:101E40006E2DC801EBDC682FCE010EDD20E0822F65
:101E500090E0FC01E355FE4FDE01A80FB91F149678
:101E60008C9180832F5F253090F377C1A1FD5DC0F9
:101E70003091C501B091AC013B1333C020E014C0D8
:101E8000822F90E0422F4F5FFC01EA53FE4F8355B3
:101E90009E4F5081FC018081581729F02093C50185
:101EA00023131FC004C0242F231750F3F7CF4091F2
:101EB000F8025091F9026091FA027091FB02C09011
:101EC000DA01D090DB01E090DC01F090DD014C19EB
:101ED0005D096E097F0931E04632510561057105E2
:101EE00008F030E020E00CC0822F90E0AC014A53B3
:101EF0005E4F83559E4FFC018081FA0180832F5FE6
:101F00002B1790F32093C5014091F8025091F902EC
:101F10006091FA027091FB024093DA015093DB0169
:101F20006093DC017093DD0101C030E00435E9F419
:101F3000A6FD1BC08091AC018530B8F08091AF0147
:101F40008B3409F449C0893609F446C0833509F455
:101F500043C0843509F440C08D37F1F18E37E1F18B
:101F60008091B00180778037B9F1311135C0802F71
:101F70000E94E9058091AB01882329F08091AC0192
:101F800081508093AC0110E008C0E12FF0E0E355F0
:101F9000FE4F80810E94A2061F5FE091AC011E17D8
:101FA000A0F38091AB01882351F0F0E0E355FE4FA0
:101FB000808140E361E08F7090E00E94680680912C
:101FC000FE0285FF05C084E30E94FB020E94A20678
:101FD0000E942E0601C000E08091FE0282FF6DC0CB
:101FE00080E70E94E90540E262E0888190E00E947B
:101FF0003206888D90E040E265E024E0880F991F6A
:102000002A95E1F70E943206898D90E040E265E072
:1020100034E0880F991F3A95E1F70E9432068A8DC5
:1020200090E040E265E054E0880F991F5A95E1F78F
:102030000E9432068B8D90E040E265E074E0880FEC
:10204000991F7A95E1F70E94320640E263E08A81A7
:1020500090E00E94320640E263E0898190E00E94B5
:1020600032062B8140E262E087E090E0821B91091A
:102070000E94320680E20E94E9058091FE0285FFFF
:1020800008C084E30E94FB020E94A20680E20E9434
:10209000E9058B81873019F089818F5F898310E092
:1020A00007C0FE01E10FF11D84810E94A2061F5F9F
:1020B00089811817B0F30E942E0618828091C301FF
:1020C00081508093C3018091C4018F5F843019F0E7
:1020D0008093C40102C01092C4014598043509F0F0
:1020E00044C08DEA91E00E94F0213FC066E4CE0139
:1020F000B2DA811133CE5ECE03E532C006E430C0E1
:1021000004E52EC0CE01A4DC811108C002C005E4A4
:1021100027C0CE0183DD811103C004C008E420C0C4
:1021200004E71EC0E090C2018E01065E1F4F4B8D7A
:102130006E2DC80173DB682FCE0196DB6BE4CE01F8
:102140008ADA811152CE66CE0BE40AC08F5F8B8390
:102150008981843009F467CE3ECF2093AC0102E53B
:10216000A091FE02A0FD82CE37CFCDB7DEB7E8E06A
:102170000C94442A1F920F920FB60F9211242F93A2
:102180003F934F935F936F937F938F939F93AF93FF
:10219000BF93EF93FF9310926F008091FE0283FF35
:1021A00003C08EE20E94E9052091DE01822F90E0BB
:1021B0006CE170E00E94E529FC01E55CFE4F808146
:1021C000833060F0822F90E06CE170E00E94E5299E
:1021D000FC01E55CFE4F8181823010F411DB18C0F8
:1021E0008091C301833049F48091FE0282FFF6CFD3
:1021F00085E392E00E942106F1CF8F5F8093C301B7
:102200002F5F243019F02093DE0102C01092DE010E
:10221000FF91EF91BF91AF919F918F917F916F91BE
:102220005F914F913F912F910F900FBE0F901F9094
:102230001895982F9552973160F46A3050F06732B4
:1022400040F421E030E0681710F020E030E0C901F0
:10225000089580E090E008951F920F920FB60F92BC
:1022600011240F931F932F933F934F935F936F937B
:102270007F938F939F93AF93BF93CF93DF93EF930E
:10228000FF9380919703882321F082E08093970346
:1022900024C180914B03823021F483E080934B036F
:1022A0001CC1809184009091850034E096958795BB
:1022B0003A95E1F7182F8091DE0190E06CE170E033
:1022C0000E94E529EC01C55CDE4F8881843031F441
:1022D0001E3208F402C11F3448F0A3C0853031F427
:1022E000173108F4FAC0183208F09BC04A990DC0A3
:1022F0008450823038F461E0CE01B6DA1092850065
:10230000109284001093C201E8C00091C201101B1A
:102310001093C1011092850010928400888184502E
:10232000823020F460E0CE019FDAD7C082E086BB25
:102330008881811111C09091C201953608F0CDC0FD
:102340008091C101853608F0C8C0988F898F81E0DF
:102350008A8382E08883C1C0412F602F823009F0D8
:1023600070C0CE0148965ADA882301F1888D90E03A
:102370009C01220F331F280F391F200F311D359567
:10238000279535952795288F298D30E0C901880F2D
:10239000991F820F931F810F911D95958795959594
:1023A0008795898F8A818F5F8A8397C08A818430DD
:1023B00008F445C080EA9FE09093890080938800EC
:1023C0008A818C3050F0888D298D30E0280F311DA6
:1023D0002536310524F084E027C08A3088F0888DC6
:1023E000298D30E0280F311D253231054CF485E070
:1023F000888388EE93E0909389008093880015C0CD
:1024000080910403882379F0612F802F12DF8823C5
:1024100051F0688D898D0DDF882329F081E080934C
:102420004B03EED95AC083E088830A8F1B8F198231
:1024300087E08B831C8282E080936F004EC01882FD
:102440007ACFCE014A96EAD9882301F161E0CE0124
:102450000BDA4A8D50E09A01220F331F240F351FEB
:10246000200F311D35952795359527952A8F2B8D72
:1024700030E0C901880F991F820F931F810F911DB2
:1024800095958795959587958B8F27C0412F602FC0
:10249000CE014896C3D9882309F4C3CF60E0CE01AA
:1024A000E3D9488D50E09A01220F331F240F351FC6
:1024B000200F311D3595279535952795288F298D26
:1024C00030E0C901880F991F820F931F810F911D62
:1024D0009595879595958795898FFF91EF91DF91D8
:1024E000CF91BF91AF919F918F917F916F915F91AC
:1024F0004F913F912F911F910F910F900FBE0F9011
:102500001F9018958091DE0190E06CE170E00E94D0
:10251000E529855C9E4FFC018081811109C081E025
:1025200090E0209186032F3F29F480E090E0089509
:1025300081E090E0089580E690E00E940207809399
:10254000040381E690E00E940207809355038823EC
:1025500021F081E28093FE02C4C908955B9A0C9435
:1025600069055B980C946905A7E0B0E0EAEBF2E13D
:102570000C94292A90910D03943559F420914E031F
:1025800030914F032F5F3F4F30934F0320934E0303
:102590003EC0963459F420914C0330914D032F5F87
:1025A0003F4F30934D0320934C0331C0953459F481
:1025B00020910103309102032F5F3F4F30930203BC
:1025C0002093010324C09B3459F42091510330918E
:1025D00052032F5F3F4F309352032093510317C094
:1025E000983459F420915303309154032F5F3F4F97
:1025F00030935403209353030AC02091FF0230917B
:1026000000032F5F3F4F309300032093FF0295E7B5
:102610009983882399F0BE016E5F7F4F80915503A7
:102620000E94EA06BE016C5F7F4F809104030E9406
:10263000EA0685E58E8396E0D92E02C0DD24D39488
:102640000E94D9030E94610316E080E891E086DFD2
:1026500080E093E086DF1150C1F780E093E07EDFF9
:1026600080E891E07EDF80E891E078DF5B9887E3A7
:1026700090E00E94740383E00E946E0528988FE723
:102680000E948702809107038D0D0E948702EE242D
:10269000E394F12CEC0EFD1E8701F80181918F016E
:1026A0000E948702802F8E198D15B8F306C085E031
:1026B00093E00E9442080E948702809107038111E3
:1026C000F6CF289A0E94610385E093E00E942608D5
:1026D00015E103C081E00E946E058AE30E94FB02BF
:1026E0008F7711F01150B1F7FCD82796E7E00C94E2
:1026F000452ACF93DF93EC018981811107C0809136
:1027000004030E94A2068091550313C08436A1F4ED
:102710008091F8029091F902A091FA02B091FB0227
:1027200040E364E00E9468068EE20E94E905809121
:102730004A030E94A2064DC0833709F04DC040E312
:1027400061E080914E0390914F030E9468068EE2F3
:102750000E94E90540E361E080914C0390914D03B4
:102760000E9468068EE20E94E90540E361E08091E4
:102770000103909102030E9468068EE20E94E9051F
:1027800040E361E080915103909152030E946806FA
:102790008EE20E94E90540E361E08091530390914D
:1027A00054030E9468068EE20E94E90540E361E05E
:1027B0008091FF02909100030E9468068EE20E94C1
:1027C000E90540E361E080914803909149030E944C
:1027D00068060E942E062CC08936D9F441E064E0D8
:1027E00073E0CE0102960E94A6066091040380E683
:1027F00090E00E94FD0641E065E573E0CE0104969D
:102800000E94A6066091550381E690E00E94FD06B5
:102810000FC085E093E00E942608219604C085E061
:1028200093E00E942B0869916111F9CF80E09CDE52
:10283000DF91CF910895A1E0B0E0E1E2F4E10C94E2
:10284000282A80914B03882309F485C0C090F802A0
:10285000D090F902E090FA02F090FB02833009F088
:1028600060C08FE30E94FB02182F8630C8F08BED0A
:1028700093E00E94260828988FEF0E94870280E04C
:102880000E948702082F08C080E00E948702682FFC
:102890008BED93E00E942B081150B1F7289A01C0EC
:1028A00000E01FD810924B03053709F054C041E0F7
:1028B000BE016F5F7F4F8EED93E00E94A6060197E9
:1028C00059F5998180910403981326C08091E20301
:1028D000853571F406C08BED93E00E9442080E949A
:1028E000E9058091DD038111F6CF0E942E0633C0E9
:1028F0008091DD0384508093DD0384E08093DC03CA
:102900006AE08BED93E00E942B08E091F402F091D5
:10291000F50288E009951FC08BED93E00E94260820
:102920001AC0823059F4909103038C2D891B883092
:1029300090F00E94710C10924B030DC0813059F43D
:1029400087E390E00E9474030E944E0382E080932C
:102950004B03C09203032196E8E00C94442AD2DD95
:10296000882361F083E08093500380914803909125
:102970004903019690934903809348038091500343
:10298000815080935003882321F083E080934A0391
:10299000089581E0E9CDCF93DF93EA98209A289AB1
:1029A0008EE190E00E94690528988EE190E00E94F7
:1029B0006905289A8DE290E00E94690580E30E94F3
:1029C0004A0384E690E00E946905C0E0D0E0FE0181
:1029D000ED5AFD4F6491FE01EE5AFD4F84910E9425
:1029E00038032296C233D10591F78091E00181111D
:1029F00007C083E30E944A0384E00E946E0511C071
:102A0000C0E0D0E0FE01E35CFD4F6491FE01E45CB8
:102A1000FD4F84910E9438032296C631D10591F76B
:102A2000E8CF84E30E944A0385E30E94FB028D30D5
:102A3000C1F7DF91CF910895A2E3B0E0E2E2F5E1C2
:102A40000C942C2A8091DF01882309F4A2C04A9BB0
:102A50008BC08FE30E94FB028F778983823368F0FB
:102A60008AE30E944A0386E30E944A038DE30E94A0
:102A70004A0384E30E944A038CC028988FEF0E9487
:102A8000870210E00BC080E00E948702E2E0F0E0E5
:102A9000EC0FFD1FE10FF11D80831F5F8981181767
:102AA00090F380E00E948702082F80E00E94870256
:102AB000289A84E30E944A0385E30E94FB028D303A
:102AC000C1F72A8196E792279A8392E00CC041E0F1
:102AD00050E04C0F5D1FE40FF51F30812452232777
:102AE00020839F5F232F8981E92FF0E0981778F3E7
:102AF00081E090E08C0F9D1FE80FF91F90818B8182
:102B0000982790838091FE0284FF13C081E60E9483
:102B1000E90510E00AC0E1E0F0E0EC0FFD1FE10F75
:102B2000F11D80810E94E9051F5F8981811798F757
:102B30001BC081E40E94E90510E00AC0E1E0F0E07A
:102B4000EC0FFD1FE10FF11D80810E94A2061F5FA7
:102B50008981811798F78091FE0285FF03C0802F3D
:102B60000E94A2060E942E0685E30E94FB0281308D
:102B700029F0813161F48AE30E944A0386E30E94CE
:102B80004A038DE30E944A0384E30E944A030E94A1
:102B90001E04E296E4E00C94482AA2E3B0E0E3EDE0
:102BA000F5E10C94282A41E3BE016F5F7F4F019647
:102BB0000E94A6067C019C0133272150310989819E
:102BC00090E02817390709F072C08091DF01811168
:102BD00004C0E1DE83E00E946E051B818A8196E7D6
:102BE00089278A8392E009C0DE01A20FB31F8C916E
:102BF00084522081822780839F5F8981292F30E042
:102C0000E1E0F0E0EC0FFD1FE20FF31F981760F317
:102C100080818127808385E30E944A0385E30E94A7
:102C2000FB028331C1F714FF08C088E70E946E05DC
:102C300088E70E946E0588E701C08AE00E946E0561
:102C400028988FE70E948702CC24C394D12CCC0E05
:102C5000DD1E860105C0F80181918F010E94870267
:102C6000802F8C198E15B8F3289A85E30E94FB02F9
:102C70008331D9F385E30E94FB02863149F48BE36B
:102C80000E944A0386E30E944A038DE30E944A039E
:102C90008091DF01882349F084E30E944A0385E3A1
:102CA0000E94FB028D30C1F702C00E94710CE296B7
:102CB000E8E00C94442AFC012181223731F02235CE
:102CC00059F481E08093E00102C01092E00163DEDC
:102CD00081E08093DF010895233711F401965DCFE1
:102CE0001092DF010895CF93DF93EA98209A289AF3
:102CF0008EE190E00E94690528988EE190E00E94A4
:102D00006905289A8DE290E00E94690580E30E949F
:102D10004A0384E690E00E946905C0E0D0E0FE012D
:102D2000EC57FD4F8491813440F083E30E944A03C5
:102D300084E00E946E05CFEF0BC0FE01EB57FD4F04
:102D400064910E9438032296CC33D10541F7EDCF30
:102D500084E30E944A038AE090E00E946905C15022
:102D6000B9F781E08093E101DF91CF910895EF926F
:102D7000FF920F931F93CF93DF93EC018B01F880A9
:102D8000F3946115710519F0E4E6F0E002C0E0E0AB
:102D9000F0E08F2D90E023E0880F991F2A95E1F74E
:102DA0006AE070E00E940B2A9B012E0F3F1FC901B1
:102DB000AA2797FDA095BA2FE091FC02F091FD02A1
:102DC000AF0160E070E0481759076A077B0728F4F5
:102DD00089EC92E00E942106D6C0E21BF30BF0932F
:102DE000FD02E093FC028091E101811101C07BDFD3
:102DF00085E30E94FB028D3071F08AE50E94E905AF
:102E000085E40E94E90582E50E94E90582E50E94C9
:102E1000E90581E34CC08091E8019091E901A0911E
:102E2000EA01B091EB01892B8A2B8B2B61F40E9474
:102E3000610385E30E94FB02833109F443C02AC089
:102E400081E00E946E058091F8029091F902A091B4
:102E5000FA02B091FB024091E8015091E9016091C2
:102E6000EA017091EB0184179507A607B70741F3B4
:102E70008091F8029091F902A091FA02B091FB02C0
:102E80004F5F5F4F6F4F7F4F84179507A607B707B8
:102E9000B9F2CDCF8AE50E94E90585E40E94E905F3
:102EA00082E50E94E90582E50E94E90582E30E942D
:102EB000E90585E30E94FB020E94A2060E942E06FD
:102EC00012DF61C0012B41F428988FE70E9487022E
:102ED000EC2E0C2F1D2F0EC00AE010E084E60E949D
:102EE0006E0501501109D1F7EFCFF80181918F01E3
:102EF0000E948702802F8E198F15B8F3289AC8EC8C
:102F000085E30E94FB028D3031F485E30E94FB02D1
:102F10008D3061F422C085E30E94FB028331A9F762
:102F200081E00E946E05C15059F7EFCF8AE50E94FB
:102F3000E90585E40E94E90582E50E94E90582E54C
:102F40000E94E90583E30E94E90585E30E94FB02F4
:102F50000E94A2060E942E06C6DE8091E101811128
:102F600002C00E94710C8091F8029091F902A09128
:102F7000FA02B091FB028093E8019093E901A093DB
:102F8000EA01B093EB01CDB7DEB7E6E00C94462A38
:102F9000ACE0B0E0EEECF7E10C942B2AFC018BE006
:102FA000898381818A831B8282E08C8387818D83E0
:102FB00080858E8381858F838481888785818987B9
:102FC00086818A871B861C8684E10E946E0560E0EC
:102FD00070E08E010F5F1F4FC801C9DE8AE50E94B5
:102FE000E905F12C07C0F801E80FF91F80810E9464
:102FF000A206F3948F2D90E0298130E0281739073D
:1030000094F78091FE0285FF03C080E00E94A20633
:103010000E942E062C96E5E00C94472ACF93DF936E
:10302000EC019091E201911108C08091E3018111BE
:1030300004C08091E4018823B1F08B81803321F0BA
:10304000803411F0803579F48F8189130CC0988514
:103050008091E301981307C099858091E40198134A
:1030600002C0CE0195DF8091E501811108C09091E9
:10307000E601911104C09091E7019923A9F098818C
:103080009B3091F49B81903479F49F8198130CC00C
:1030900098858091E601981307C099858091E70192
:1030A000981302C0CE0174DFDF91CF910895AEE195
:1030B000B0E0EDE5F8E10C942A2A8091E101882343
:1030C00009F467C04A9B57C08FE30E94FB028F77C9
:1030D0008E3108F401C08DE1898328988FEF0E941A
:1030E000870210E00BC080E00E948702E2E0F0E07F
:1030F000EC0FFD1FE10FF11D80831F5F8981181701
:1031000090F380E00E948702E82E80E00E94870210
:10311000289A8E010F5F1F4FC80180DF8091FE0249
:1031200084FF10C08AE70E94E905F12C07C0F8016E
:10313000EF0DF11D80810E94E905F39489818F15BF
:10314000B0F727C08AE50E94E905F12C07C0F80115
:10315000EF0DF11D80810E94A206F39489818F15E5
:10316000B0F78091FE0285FF03C08E2D0E94A2065B
:103170000E942E060EC085E30E94FB02813149F4B5
:103180008AE30E944A0386E30E944A0384E30E9482
:103190004A036E96E6E00C94462AAEE1B0E0E3ED19
:1031A000F8E10C942C2A8C01FC018181823711F406
:1031B0009ADD36C0833711F0863601F54DE1BE0148
:1031C0006F5F7F4FC80102960E94A606992701975C
:1031D000298130E08217930729F080ED92E00E9468
:1031E00021061EC061E070E0F8018181833711F093
:1031F00060E070E0CE010196BADD12C0813621F4A4
:1032000043E062EE71E005C0873741F443E065EECC
:1032100071E0C80102960E94A60602C01092E10168
:103220006E96E4E00C94482ACF93DF93EA98209AB4
:10323000289A8EE190E00E94690528988EE190E03E
:103240000E946905289A8DE290E00E94690580E35A
:103250000E944A0384E690E00E946905C0E0D0E045
:10326000FE01E752FD4F8491813438F083E30E94E0
:103270004A0381E00E946E050BC0FE01E652FD4F3D
:1032800064910E9438032296CC33D10549F7EECFE2
:10329000DF91CF910895AEE1B0E0E1E5F9E10C9462
:1032A0002C2A8091EC01882309F476C04A9B61C0E6
:1032B0008FE30E94FB028F778E3108F401C08DE10D
:1032C000898328988FEF0E94870210E00BC080E06E
:1032D0000E948702E2E0F0E0EC0FFD1FE10FF11D1C
:1032E00080831F5F8981181790F380E00E94870216
:1032F000082F289A8AE30E944A0386E30E944A0321
:103300008DE30E944A0384E30E944A038091FE02F7
:1033100084FF13C087E70E94E90510E00AC0E1E0DE
:10332000F0E0EC0FFD1FE10FF11D80810E94E90527
:103330001F5F8981811798F72FC087E50E94E905F3
:1033400010E00AC0E1E0F0E0EC0FFD1FE10FF11D1D
:1033500080810E94A2061F5F8981811798F7809162
:10336000FE0285FF03C0802F0E94A2060E942E0647
:1033700013C085E30E94FB02813011F0813161F4BA
:103380008AE30E944A0386E30E944A038DE30E9477
:103390004A0384E30E944A036E96E4E00C94482AB0
:1033A000FC018181823729F43FDF81E08093EC01C9
:1033B0000895833711F01092EC010895282F809121
:1033C0002101909122015B9A213061F463E070E069
:1033D0000E94E5290E9469055B98809121019091E6
:1033E00022012BC021111EC00E9469055B988091AB
:1033F00021019091220163E070E00E94E5290E9482
:1034000069055B9A80912101909122010E946905D2
:103410005B98809121019091220163E070E00E940D
:10342000E5291DC00E9469055B988091210190915A
:10343000220163E070E00E94E5290E9469055B9A21
:10344000809121019091220163E070E00E94E529C2
:103450000E9469055B9880912101909122010C9452
:103460006905CF93DF93EA98209A289A8EE190E03D
:103470000E94690528988EE190E00E946905289ACB
:103480008DE290E00E94690580E30E944A0384E691
:1034900090E00E946905289880E40E948702C5E1B7
:1034A000D3E0FE0184910E9487022196F3E0C232AC
:1034B000DF07B9F780911C010E94870280911D01EE
:1034C0000E94870280911E010E948702C0E0D0E026
:1034D000FE01EB5DFC4F84910E9487022196C93169
:1034E000D105B1F7289A28988EE70E9487028BE2CF
:1034F00090E0EC0121960E9402070E948702CE0113
:10350000C333D105B1F7289A83E30E944A0381E0CF
:103510000E946E0581E08093F602DF91CF910895BD
:10352000A0E0B0E0E6E9FAE10C94272AEC018981F9
:10353000843769F461E271E0CE0102960E94D406FC
:1035400040E260E0809121019091220112C0833716
:1035500009F0A9C08A81823789F46FE171E0CE0158
:1035600003960E94D40640E260E080911F01909192
:1035700020010E9432060E942E06FFC0459A8091CB
:10358000EF01811116C08091DF01882329F081E0CD
:103590008093EE011092DF018091E101882329F0F0
:1035A00081E08093ED011092E1015BDF83E00E94F6
:1035B0006E0586E30E944A038AE30E944A038BE376
:1035C0000E944A030E94610300E010E06E0182E065
:1035D000C80ED11C23C0F70181917F01803311F403
:1035E00080E005C0813311F481E001C082E0E6DEB5
:1035F000BA9489F75B9A80912101909122010E94EF
:1036000069055B989FE1F92E80912101909122013B
:103610000E946905FA94C1F70F5F1F4F80911F0147
:10362000909120010817190720F476018CE0B82E3C
:10363000D2CF8091EF01882341F08091FE02811169
:103640000EC086E30E944A0317C08091EE018823D2
:1036500049F01092EE019FD981E08093DF010E9432
:103660004E030AC08091ED01882321F01092ED01F4
:103670003ADB02C00E94710C459889E60E94E90578
:1036800083E70E94E905229611E08991803309F4CD
:1036900004C0813309F401C086E40E94E9051F5F7C
:1036A0001D3099F768CF8237B9F48091DF01882304
:1036B00029F081E08093EE011092DF018091E10119
:1036C000882329F081E08093ED011092E101C9DEA9
:1036D00081E08093EF0151C0863651F58A818033B5
:1036E00051F480E180931C0180EB80931D0181E700
:1036F00080931E0107C043E06CE171E0CE010296A9
:103700000E94A60689E60E94E90586E60E94E90570
:103710008AE30E94E90580911C010E94A206809123
:103720001D010E94A20680911E010E94A20623CFC5
:10373000883719F58091EE01882339F01092EE0157
:103740002AD981E08093DF0110C08091ED018823A8
:1037500021F01092ED01C7DA0EC082E090E00E94E5
:1037600074038091FE02882319F00E944E0303C067
:1037700086E30E944A031092EF01CDB7DEB7E9E07D
:103780000C94432AA2E0B0E0E8ECFBE10C94202A80
:103790007C01FC018181833709F094C1198287E0A3
:1037A00090E00E94552A8C0141E0BE016F5F7F4F7F
:1037B000C70102960E94A6068981F801808341E034
:1037C000BE016F5F7F4FC70104960E94A606298144
:1037D000207FF801218341E0BE016F5F7F4FC70169
:1037E00006962A830E94A6068981F801828341E019
:1037F000BE016F5F7F4FC70108960E94A6068981B0
:10380000F801838341E0BE016F5F7F4FC7010A96D5
:103810000E94A6068981F801868341E0BE016F5FA0
:103820007F4FC7010C960E94A6068981F801858307
:1038300041E0BE016F5F7F4FC7010E960E94A60652
:103840008981F801848380E090E02A814191342FBE
:1038500032953F70342783279F5F9730B9F78F7079
:10386000822BF801818387E090E00E94552A5C0159
:1038700087E0F801D50101900D928A95E1F7D80112
:103880001196C8010696F8013D91219123272083C6
:10389000E817F907C9F7459A8091F20181115EC0D6
:1038A0008091DF01882329F081E08093F10110925B
:1038B000DF018091E101882329F081E08093F0010C
:1038C0001092E101EA98209A289A8EE190E00E94F5
:1038D000690528988EE190E00E946905289A8DE29A
:1038E00090E00E94690580E30E944A0384E690E02C
:1038F0000E946905289880E40E9487027EE3E72EF3
:1039000073E0F72EF70184910E948702FFEFEF1A10
:10391000FF0A27E6E21623E0F206A1F7289A289884
:103920008EE70E9487028BE290E07C01EFEFEE1AB7
:10393000FE0A0E9402070E948702C7018333910595
:10394000A1F7289A83E30E944A0381E00E946E0552
:1039500081E08093F60283E00E946E0586E30E9478
:103960004A038AE30E944A038BE30E944A030E94AF
:1039700061035B9A87EC94E20E9469055B9889E594
:103980000E946E0585E392E00E946905E12CF12C0E
:1039900054C0EE2011F027E001C022E0D12C5B9A48
:1039A00086EF99E02A830E9469055B9886EF99E08B
:1039B0000E946905D3942A81D2168CF35B9A8CEF0E
:1039C00092E10E9469055B98809123019091240106
:1039D0000E9469056801512CF60181906F0158E041
:1039E000452E60E8662E712C912C930128213921F7
:1039F0008091230190912401232B29F45B9A0E944A
:103A000069055B9804C05B980E9469055B9A809188
:103A10002301909124010E946905769467944A9449
:103A200021F75394F7E05F12D7CF5B9880E090E0E6
:103A30000E9469052FEFE21AF20A8091270190E0B7
:103A4000E816F9060CF4A5CF8091F201882341F025
:103A50008091FE0281110FC086E30E944A0318C0C4
:103A60008091F101882351F01092F1010E94CB1452
:103A700081E08093DF010E944E030AC08091F00133
:103A8000882321F01092F0012ED902C00E94710CFF
:103A9000459889E50E94E90583E70E94E9057501DB
:103AA00037E0D32EF70181917F010E94A206DA94BC
:103AB000C9F70E942E06C5010E94F02AC8010E9483
:103AC000F02A6EC08237A9F467E271E0C70102965E
:103AD0000E94D40689E50E94E90582E70E94E90573
:103AE0008AE30E94E90540E260E08091270190E0CE
:103AF0002CC0843779F5F7018281803339F488ED61
:103B000094E0909326018093250106C065E271E060
:103B1000C70102960E94D40680912501909126014A
:103B200096958795909324018093230189E50E94BF
:103B3000E90584E70E94E9058AE30E94E90540E27D
:103B400066E080912501909126010E9432060E9434
:103B50002E0626C0883721F58091F101882341F097
:103B60001092F1010E94CB1481E08093DF0110C01C
:103B70008091F001882321F01092F001B4D80EC09A
:103B800082E090E00E9474038091FE02882319F085
:103B90000E944E0303C086E30E944A031092F20182
:103BA0002296E0E10C943C2A109271031092A1023B
:103BB00083E08093A2028FEF809386030895E3EF62
:103BC000F1E00EC0009751F04181DC013C914313BC
:103BD00005C0428111963C914317B1F0E20FF11DEF
:103BE0002081211105C0892B41F0E0E0F0E00CC0FC
:103BF000B2E0E13AFB0730F3F6CF32E0E13AF30707
:103C000019F010F0E1EAF2E0CF010895E82FF0E0BA
:103C1000EE0FFF1FEE0FFF1FE957FC4F80818F3F14
:103C200091F08093A30281818093A402828180938A
:103C3000A50283818093A60221E04CE064E083EA40
:103C400092E00C944309089589EA92E0B8DF009766
:103C500099F02091A202FC013081231768F4E20F51
:103C6000F11D80818093AB0289E78093AC02818152
:103C70008093AD0281E0089580E00895EF92FF9275
:103C80001F93CF93DF931F92CDB7DEB7182F80918C
:103C9000FE0286FF18C084E599830E94E905E12EA3
:103CA0009981F92E15E0F70181917F010E94A2060A
:103CB0001150C9F78091FE0285FF03C08AEF0E9470
:103CC000A2060E942E060F90DF91CF911F91FF90C8
:103CD000EF90089586E30E944A038091AB028335FA
:103CE00011F48BE901C08BE40E946E0521E04CE0E9
:103CF00065E089EA92E00E9443090E944E0389EA46
:103D000092E0BCCFE7DF8091AB02893631F081E0F1
:103D10008093A80289E2809386030895CF9385E378
:103D200090E00E9402078093570386E390E00E9490
:103D3000020780938503CFEFC0937503C093770389
:103D4000C0937903C0937B03C0937D03C0937F032B
:103D5000C0938103C093830327DF1092F30181E0B6
:103D600080935603C09387038FEF9FEF90935A037E
:103D70008093590310925C0310925B0310925E03D0
:103D800010925D03C0938B039093600380935F0355
:103D90001092620310926103109264031092630305
:103DA000C0938F039093660380936503109268031A
:103DB0001092670310926A0310926903C0939303F1
:103DC00090936C0380936B0310926E0310926D03BB
:103DD0001092700310926F03CF910895ACE0B0E0A1
:103DE000E4EFFEE10C94272A6C018C010F5F1F4F5A
:103DF00045E0BE016F5F7F4FC8010E94A606843078
:103E000008F0F4C099819130A9F4833061F46A819B
:103E100085E390E00E94FD066B8186E390E00E94BE
:103E2000FD067CDF0DC2809157030E94A20680919F
:103E300085039BC0923009F052C0813041F081E08F
:103E400090E02A81213029F080E090E002C081E0FA
:103E500090E0E82E8091F301811104C083E893E0A3
:103E60000E94210603EF11E030C081E0033F1807F4
:103E700019F080E20E94E905F80181810E94A20602
:103E8000F80182810E94A206E11005C0F80180813C
:103E9000080F111D1AC08AE30E94E90593E0F92E6C
:103EA0000FC0F3E0FF1528F4F0FE03C08CE20E947F
:103EB000E905F801EF0DF11DF39480810E94A2063F
:103EC000F8018081F81668F3E1CFF801808188233A
:103ED00009F489C0F2E0013A1F0738F284C0933038
:103EE00049F480E090E06BDE835F91409EEA981B8E
:103EF000892F3BC0903171F505E713E086E7E82E86
:103F000083E0F82EC12CD12CF80180818F3FA1F0E5
:103F1000DD2019F080E20E94E9058C2D0E94A206A6
:103F20008AE30E94E905F80180810E94A206F70158
:103F300080810E94A206D3940E5F1F4FC394F2E0CB
:103F4000EF0EF11C88E0C812DFCFD1104CC085E71E
:103F500093E047C0913161F48091730390917403B1
:103F60006DE770E00E94F729862F0E94A2063BC0F1
:103F70009231C9F5B7E8EB2EB3E0FB2E0AE813E067
:103F8000C12CD12CF70180818F3FF1F0DD2019F099
:103F900080E20E94E9058C2D0E94A2068AE30E941D
:103FA000E905F70180810E94A206F801329780811D
:103FB0000E94A206F801319780810E94A206F801B2
:103FC00080810E94A206D394F4E0EF0EF11CC3940A
:103FD0000C5F1F4F84E0C812D5CFD11004C089E711
:103FE00093E00E9421060E942E062AC144E0BE01F1
:103FF000695F7F4FC8010E94A6066F81693608F489
:104000007BC04A857885A9854C3009F04EC040E0D8
:1040100050E020E030E0C901FA01E957FC4FB081DF
:10402000B6131CC01181171319C012811A1316C0C0
:104030008CE08383822F63E070E00E94E529DC013D
:10404000AA0FBB1FA75ABC4F1D921C92FC01EE0F7A
:10405000FF1FE55AFC4F11821082D4C0BF3FE1F42C
:10406000608328852183298522832CE0238363E0D4
:1040700070E00E94E529DC01AA0FBB1FA75ABC4FC4
:104080001D921C92FC01EE0FFF1FE55AFC4F11829E
:10409000108210925603B6C02F5F3F4F4C5F5F4FA8
:1040A0004031510509F0B7CFCBC080E090E020E06F
:1040B00030E0FC01E957FC4F5081561316C0518186
:1040C000571313C052815A1310C04383C90163E0D0
:1040D00070E00E94E529FC01EE0FFF1FE55AFC4F3E
:1040E00081E090E091838083ABC02F5F3F4F0496C7
:1040F00080319105F1F6A4C0E98180915703E8175A
:10410000D8F190E0F0E09C01295F3F4F2E173F0768
:104110009CF13A812091850332132EC02C812F32DD
:1041200031F442E06CE0C6010E94B30989C02C3230
:10413000C9F42D812093720381E090E09093740381
:104140008093730330E0220F331F220F331F8091BF
:10415000FC029091FD02820F931F9093FD028093C9
:10416000FC026EC0E81BF90BEE0FF0E0EB58FC4FC1
:1041700020838D81818364C080E090E020DD7C011C
:10418000F80101900020E9F73197E01BF10BF6955B
:10419000E795BE2EB394C7018B0D911D835F9140AF
:1041A0008F3A91050CF048C0F701B1928F0121E0E0
:1041B0001AC041E0B801F601E80FF11DCF012C87CC
:1041C0000E94A6062C85233058F020FD09C0D80196
:1041D00011978C91843621F4F801808180935803E3
:1041E0002F5F0F5F1F4F822F880F81502B1508F311
:1041F000F1EAEF16F2E0FF0618F5F701E20FF11D04
:1042000010821EC022E04CE064E0CE0107960E94BE
:1042100043098FE08A8722E04CE064E0CE010796F4
:104220000E94430982E08A8722E04CE064E0CE01EC
:1042300007960E94430904C08DE793E00E9421067F
:104240002C96E9E00C94432AFF920F931F93CF938F
:10425000DF93F82E80915603811152C0AF2DB0E04C
:10426000CD0163E070E00E94E5298C01FC01EE0FB6
:10427000FF1FE75AFC4FAA0FBB1FAA0FBB1FA9576E
:10428000BC4F12968C91877090E066E07FEF0E94A1
:10429000E529935895958795959587959183808382
:1042A000E801CC0FDD1FC35ADC4F288139812F5F15
:1042B0003F4F39832883000F111F055A1C4FF80107
:1042C000408151814115510531F424303105C1F44B
:1042D0008F2D9CDC13C04130510541F48F2D96DCAD
:1042E00082E090E0F801918380830AC0423051055A
:1042F00039F48F2D8BDCF80111821082198218821B
:10430000CDB7DEB7E5E00C94472AA6E0B0E0EBE8D5
:10431000F1E20C942A2A809185038A831B82909172
:104320007203992341F0933019F487E791E00DC0AF
:104330008DE790E00AC0877090E06DE770E00E9422
:10434000E529825B9F4895958795909374038093A8
:10435000730306E713E0F12C7CE2E72EF8013197B6
:1043600090819F3FC1F0809157038F0D8983809189
:104370007203882311F0EC8203C09C83F8018081D2
:104380008D8321E04CE065E0CE0101960E94430957
:10439000CE01019673DCF3940E5F1F4FF8E0FF121D
:1043A000DDCF80917203882341F0833019F410929D
:1043B000720303C08250809372032696E6E00C9449
:1043C000462A8091A802882351F084DC89E28093F8
:1043D00086038091A80281508093A8020895E4CBBF
:1043E000FF920F931F93CF93DF93FC01F080018125
:1043F000C281D38114818FE5809386031092A80235
:1044000080915703811105C080918503882309F4A9
:10441000ABC08091A9028F1104C08091AA028017BD
:1044200029F0C2DBF092A9020093AA0280917103E5
:104430008F3F09F499C0C093AB02D093AC021093A4
:10444000AD02CC23F1F081111CC0809157031817E5
:1044500061F0143651F08C2F8355823010F0CD3737
:1044600039F48FEF809371037FC0C43509F47CC0A9
:104470008D2F807F803609F077C0D067D093AC0253
:1044800067C0E2DB811105C080917103882309F4C4
:104490006BC08091A102811107C0E0917103F0E02F
:1044A000E959FC4FE49101C0E82FE33541F4C435EC
:1044B00031F4909171039E5F9093710304C0EC17E7
:1044C00011F072DB51C0882309F444C08091A2022C
:1044D0008E5F8093A202B8DB811106C080917103C8
:1044E0008E5F8093710336C08091AB028093A102EE
:1044F000843671F5809158038093AD0229C01093E2
:10450000AB0297E79093AC02909157039093AD0262
:104510008E5F809371031092A1028E30B9F489EA04
:1045200092E04DDBDC01009781F02C9130E081EAD4
:1045300092E0821B930B05C0ED01C20FD31F48818F
:104540004D93A817B907C0F31C922EDB112361F01D
:10455000D9DB0AC080917103E82FF0E0E859FC4FE5
:1045600014911F3F61F6C0CFCDB7DEB7E5E08FC72E
:104570000F931F93CF93DF93EC01A82FBD2FFD0165
:1045800001900020E9F73197EA1BFB0B8981823704
:1045900051F487E390E00E9474030E944E0381E08F
:1045A0008093970326C0833711F50E2F28988FE745
:1045B0000E948702802F82500E948702229612E07A
:1045C00004C089910E9487021F5F1017D0F3289AB8
:1045D0000E94610304C084E690E00E9469058AE3BA
:1045E0000E94FB028F77B9F70E944E0302C010921F
:1045F0009703DF91CF911F910F910895A0E4B0E050
:10460000E3E0F3E225C780919703882309F455C0BE
:10461000813011F58091F8029091F902A091FA028F
:10462000B091FB022091AF02281709F446C085E340
:104630000E94FB02813129F48AE30E944A030E940E
:104640004E038091F8029091F902A091FA02B09184
:10465000FB028093AF0231C08FE30E94FB02D82E91
:104660008FE38D1538F128988FEF0E9487028E0115
:104670000F5F1F4F7801C02E06C080E00E948702A6
:10468000F70181937F018E2D8C198D15B0F3289A37
:1046900081E08093350105C0F80181918F010E946E
:1046A000E905802F8C198D15B8F30E942E068FEF27
:1046B0008093350181E080939703C05CDF4FE8E091
:1046C000E3C60F931F93CF93DF93EC0110E0812F8C
:1046D00090E063E070E079D6FC01EC58FF4F049164
:1046E000812F90E063E070E070D68B589F4FFC0103
:1046F00025913491002399F0209739F480E20E94AB
:10470000E905802F0E94E90508C08881801305C053
:10471000CE01F901099581E003C01F5FD8CF80E089
:10472000DF91CF911F910F910895CF93C0913501E3
:104730008093350134C08BED93E00E944208909144
:10474000B0028A3011F08D3001F5992341F1E92F43
:10475000F0E0EF54FD4F108281EB92E0B2DF811167
:1047600011C087E893E00E94210681EB92E00E944D
:1047700016068BE893E00E94210680E090E0A1DF1E
:104780000E942E061092B0020AC0903440F4E92F25
:10479000F0E0EF54FD4F80839F5F9093B0028091D3
:1047A000DD038111C8CFC0933501CF910895E4E6B0
:1047B000F0E080818B7F8083299A84B1876084B9FF
:1047C000239880E58CBD8DB581608DBD08952091C5
:1047D0002B0430912C042115310521F420912A015C
:1047E00030912B018091280190912901009741F48B
:1047F0008DB79EB740912C0150912D01841B950BD4
:104800002817390728F4AC01421B530B9A0102C048
:1048100020E030E0C901089582E40E94E90540E209
:1048200065E080912B0490912C040E9432060E9436
:104830002E0683E50E94E90540E265E080912A01A9
:1048400090912B010E9432060E942E0685E40E9460
:10485000E90540E265E080912801909129010E94DC
:1048600032060E942E0686E40E94E905B0DF40E28F
:1048700065E00E9432060C942E06982F2CC090936F
:10488000E900981739F07091EC002091ED005091FB
:10489000F00003C0242F762F50E021FD02C09F5F5F
:1048A0001AC03091EB003E7F3093EB003091ED0069
:1048B0003D7F3093ED003091EB0031603093EB00A1
:1048C0007093EC002093ED005093F0002091EE00E7
:1048D00027FDE5CF07C0953090F28F708093E900F7
:1048E00081E0089580E008950F931F93CF93DF93A5
:1048F000062FEC0110E02EC09881911103C01F5FBC
:10490000259628C02C81E981FA816B81892F8F70CF
:10491000853010F080E021C0223010F056E001C058
:1049200052E028E030E040E003C04F5F220F331F29
:104930002E173F07D0F34295407F452B991F9927AB
:10494000991F6295660F660F607C692B96DF811157
:10495000D6CFE0CF1013D0CF81E0DF91CF911F9160
:104960000F9108958091230487FD05C08091E80090
:1049700080FF0EC012C08091E80082FD05C08091CA
:1049800022048111F8CF08958091E8008B7708C048
:10499000809122048111EACF08958091E8008E77FA
:1049A0008093E80008958091E4009091E50045E649
:1049B0002091EC0020FD1FC023C02091220422235F
:1049C00091F0253091F02091EB0025FD10C0209151
:1049D000E4003091E5002817390751F34150C9012F
:1049E00039F784E0089582E0089583E0089581E036
:1049F000089580E008952091E80020FFDECFF9CFF0
:104A00002091E80022FFD9CFF4CF209129043091E2
:104A10002A042617370748F06115710539F42091EB
:104A2000E8002E772093E80001C0B9019C0180E0E6
:104A300034C090912204992309F445C0953009F4BB
:104A400044C09091E80093FD42C09091E80092FD2F
:104A500034C09091E80090FF20C08091F20090E077
:104A6000F901821B930B05C021912093F100615045
:104A700071099F01280F391F6115710519F0283040
:104A8000310590F381E02830310509F080E0909104
:104A9000E8009E779093E8009F016115710549F643
:104AA0008111C7CF0AC080912204882361F085302C
:104AB00061F08091E80083FD0AC08091E80082FFE8
:104AC000F2CF80E0089582E0089583E0089581E0C8
:104AD00008952091290430912A042617370748F0B9
:104AE0006115710539F42091E8002E772093E800D4
:104AF00001C0B9019C0180E035C090912204992346
:104B000009F446C0953009F445C09091E80093FD42
:104B100043C09091E80092FD35C09091E80090FF6D
:104B200021C08091F20090E0F901821B930B06C036
:104B300024912093F1003196615071099C012E0F50
:104B40003F1F6115710519F02830310588F381E0A8
:104B50002830310509F080E09091E8009E7790932D
:104B6000E8009F016115710541F68111C6CF0AC0A9
:104B700080912204882361F0853061F08091E80003
:104B800083FD0AC08091E80082FFF2CF80E00895A3
:104B900082E0089583E0089581E00895ACE2B0E0FA
:104BA000E3EDF5E25AC4E3E2F4E08091F100819391
:104BB00024E0EB32F207C9F70E9465058091E80016
:104BC00083FF32C18091230490912404953009F42D
:104BD00087C038F49130B1F170F0933009F024C1FE
:104BE00031C0983009F4F4C0993009F400C196300E
:104BF00009F01AC19BC0803821F0823809F014C135
:104C000008C080911F0490912004992389F082604C
:104C10000FC080912704909128048F70992780936A
:104C2000E9008091EB0085FB882780F91092E9006C
:104C30009091E800977F9093E8008093F1001092A4
:104C4000F100D1C0882319F0823009F0EDC08F71D6
:104C500021F0823009F0E8C00BC08091250481303A
:104C600009F0E2C0933009F080E0809320042FC067
:104C70008091250481112BC08091270490912804F4
:104C80008F709927009709F4CFC08093E900209195
:104C9000EB0020FF1CC020912404233021F48091DC
:104CA000EB00806212C09091EB0090619093EB005A
:104CB00021E030E001C0220F8A95EAF72093EA0054
:104CC0001092EA008091EB0088608093EB001092D4
:104CD000E9008091E800877F8093E80043DEA4C06C
:104CE0008111A2C080912504909126048F77992785
:104CF000182F9091E3009078982B9093E300809187
:104D0000E800877F8093E8002DDE8091E80080FF37
:104D1000FCCF8091E30080688093E300112311F0C1
:104D200083E001C082E0809322047EC080588230FC
:104D300008F07AC080912504909126048C3D23E0F0
:104D4000920771F583E08A838AE289834FB7F894EA
:104D5000DE01139620E03EE051E2E32FF0E05093B5
:104D60005700E49120FF03C0E295EF703F5FEF70C2
:104D70008E2F90E0EA3010F0C79601C0C0968D9358
:104D80009D932F5F243149F74FBF8091E800877FC3
:104D90008093E8006AE270E0CE01019636DE12C030
:104DA000AE01455D5F4F609127040E944F0200975E
:104DB000D9F12091E800277F2093E800BC018BA562
:104DC0009CA587DE8091E8008B778093E8002CC05B
:104DD000803851F58091E800877F8093E8008091CA
:104DE0001E048093F1008091E8008E7775CF8111C9
:104DF0001BC0909125049230B8F48091E800877F21
:104E00008093E80090931E04ADDD80911E04811113
:104E100004C08091E30087FF02C084E001C081E00C
:104E2000809322040E9461058091E80083FF0AC0FC
:104E30008091E800877F8093E8008091EB0080629A
:104E40008093EB00AC96E3E024C340D042D0809145
:104E5000D8008F778093D8008091D80080688093A5
:104E6000D8008091D8008F7D8093D80019BC82E053
:104E700089BD09B400FEFDCF1092220410921E04D9
:104E80001092200410921F0442E060E080E0F5DC04
:104E90008091E1008E7F8093E1008091E20081604B
:104EA0008093E2008091E20088608093E20080912C
:104EB000E0008E7F8093E0000895E3E6F0E08081DB
:104EC0008E7F808381E080932104BFCF1092E20027
:104ED00008951092E10008951F920F920FB60F925D
:104EE00011242F933F934F935F936F937F938F93EF
:104EF0009F93AF93BF93EF93FF938091E10082FF65
:104F00000AC08091E20082FF06C08091E1008B7FA1
:104F10008093E100CED08091E10080FF18C08091A5
:104F2000E20080FF14C08091E2008E7F8093E20057
:104F30008091E20080618093E2008091D8008062DD
:104F40008093D80019BC109222040E9460058091C1
:104F5000E10084FF2FC08091E20084FF2BC019BCC8
:104F600082E089BD09B400FEFDCF8091D8008F7D1D
:104F70008093D8008091E1008F7E8093E100809142
:104F8000E2008F7E8093E2008091E2008160809356
:104F9000E20080911E04882311F084E007C0809114
:104FA000E30087FF02C083E001C081E08093220418
:104FB0000E945F058091E10083FF27C08091E2009D
:104FC00083FF23C08091E100877F8093E10082E02E
:104FD0008093220410921E048091E1008E7F8093C2
:104FE000E1008091E2008E7F8093E2008091E200F8
:104FF00080618093E20042E060E080E03EDC8091EE
:10500000F00088608093F00054D0FF91EF91BF9141
:10501000AF919F918F917F916F915F914F913F9150
:105020002F910F900FBE0F901F9018951F920F9207
:105030000FB60F9211242F933F934F935F936F936B
:105040007F938F939F93AF93BF93CF93EF93FF93F0
:105050008091E9008F709091EC0090FF02C090E881
:1050600001C090E0C92FC82B1092E9008091F00098
:10507000877F8093F000789491DD1092E900809111
:10508000F00088608093F000CF70C093E900FF913A
:10509000EF91CF91BF91AF919F918F917F916F9140
:1050A0005F914F913F912F910F900FBE0F901F90E6
:1050B00018950895CF93809122048823A9F08091B8
:1050C000E9008F709091EC0090FF02C090E801C061
:1050D00090E0C92FC82B1092E9008091E80083FD71
:1050E0005DDDCF70C093E900CF910895CF93DF933A
:1050F000EC014096FC018BE0DF011D928A95E9F7F7
:1051000082E08C83898783E08E8761E0CE010196FF
:10511000EBDB811102C080E00AC061E0CE0106969F
:10512000E3DB8823C1F361E0CE010B96DDDBDF9189
:10513000CF910895CF93C62F209122042430F1F40B
:10514000FC014489558966897789452B462B472B75
:10515000A9F081818F708093E9008091E80085FF3C
:1051600004C0C093F10080E00AC08091E8008E770F
:105170008093E80018DC8823A1F301C082E0CF917E
:10518000089520912204243029F5FC014489558991
:1051900066897789452B462B472BE1F081818F70FB
:1051A0008093E9008091F200811102C080E00895AF
:1051B0009091E8008091E8008E778093E80095FD5B
:1051C000F5CFF1DB811107C09091E8009E779093B5
:1051D000E800089582E0089520912204243089F4A3
:1051E000FC014489558966897789452B462B472BD5
:1051F00041F021812F702093E9002091E80020FDEB
:10520000C0CF089520912204243019F02FEF3FEFF2
:1052100024C0FC014489558966897789452B462B32
:10522000472BA1F386818F708093E9008091E8007D
:1052300082FFECCF8091F200882321F02091F100D1
:1052400030E002C02FEF3FEF8091F200811105C0E6
:105250008091E8008B778093E800C9010895089554
:10526000CF93DF93EC018091E80083FFA2C0888197
:1052700090E020912704309128042817390709F07D
:1052800098C080912404813261F020F4803209F0CA
:1052900090C03CC0823209F46BC0833209F089C0EF
:1052A0007AC080912304813A09F083C08091E8009C
:1052B000877F8093E8008091E80080FFFCCF4C89D5
:1052C0005D896E897F894093F100BB27A72F962FB8
:1052D000852F8093F100CB01AA27BB278093F10093
:1052E000472F5527662777274093F100888D8093B5
:1052F000F100898D8093F1008A8D8093F100809177
:10530000E8008E778093E8002DDB53C08091230462
:10531000813209F04EC08091E800877F8093E800D9
:1053200005C080912204882309F443C08091E800DD
:1053300082FFF7CF3091F1002091F1009091F100C0
:105340008091F1003C8B2D8B9E8B8F8B8091F10097
:10535000888F8091F100898F8091F1008A8F8091F0
:10536000E8008B778093E800FDDACE0178DF21C07A
:10537000809123048132E9F48091E800877F809353
:10538000E800F0DA8091250490912604998B888BAF
:10539000CE0165DF0EC080912304813251F48091EB
:1053A000E800877F8093E800DDDA60912504CE0174
:1053B00056DFDF91CF910895002480FD060E660F21
:1053C00011F08695D1F7802D08955527002480FF90
:1053D00002C0060E571F660F771F6115710521F079
:1053E00096958795009799F7952F802D0895AA1B7C
:1053F000BB1B51E107C0AA1FBB1FA617B70710F0C0
:10540000A61BB70B881F991F5A95A9F780959095F1
:10541000BC01CD01089597FB072E16F4009406D029
:1054200077FD08D0E4DF07FC05D03EF49095819528
:105430009F4F0895709561957F4F08952F923F92E9
:105440004F925F926F927F928F929F92AF92BF9294
:10545000CF92DF92EF92FF920F931F93CF93DF9340
:10546000CDB7DEB7CA1BDB0B0FB6F894DEBF0FBE9D
:10547000CDBF09942A88398848885F846E847D84EA
:105480008C849B84AA84B984C884DF80EE80FD80EC
:105490000C811B81AA81B981CE0FD11D0FB6F89462
:1054A000DEBF0FBECDBFED0108950F931F93CF93C5
:1054B000DF938230910510F482E090E0E0912D04BA
:1054C000F0912E0420E030E0C0E0D0E023C0408125
:1054D000518148175907A8F04817590761F482818C
:1054E0009381209719F09B838A832EC090932E047A
:1054F00080932D0429C02115310529F04217530747
:1055000010F0A90102C0BE01DF0102811381EF0189
:105510009A01F8013097D9F62115310509F1281BB8
:10552000390B2430310590F412968D919C9113978C
:105530006115710521F0FB019383828304C0909370
:105540002E0480932D04FD01329644C0FD01E20F2C
:10555000F31F81939193225031092D933C933AC0CC
:1055600020912B0430912C04232B41F420912A010B
:1055700030912B0130932C0420932B04209128018F
:10558000309129012115310541F42DB73EB74091E5
:105590002C0150912D01241B350BE0912B04F0912F
:1055A0002C04E217F307A0F42E1B3F0B2817390732
:1055B00078F0AC014E5F5F4F2417350748F04E0F6F
:1055C0005F1F50932C0440932B048193919302C04E
:1055D000E0E0F0E0CF01DF91CF911F910F910895AE
:1055E000EF92FF920F931F93CF93DF93009709F4ED
:1055F0008FC0DC01129713961C921E921297E090B6
:105600002D04F0902E04E114F10489F42D913C91C5
:105610001197280F391F80912B0490912C04821729
:10562000930789F5B0932C04A0932B0471C0E70174
:1056300020E030E001C0EA01CA17DB0738F44A81F4
:105640005B819E0141155105B1F722C0BC0162503A
:105650007109FB01D383C28300811181AC01400F2A
:10566000511F4C175D0761F448815981400F511F4C
:105670004E5F5F4F518340834A815B8153834283F6
:105680002115310529F4B0932E04A0932D0440C0B8
:10569000F901B383A283E90169917991C60FD71FFC
:1056A000AC17BD0779F4DC015E914E91460F571F90
:1056B0004E5F5F4F5183408312968D919C9113975B
:1056C00093838283A0E0B0E002C0D7017C01F701A0
:1056D000828193810097C9F7C701029620813181A9
:1056E000820F931F20912B0430912C042817390727
:1056F00079F4109729F410922E0410922D0404C00E
:1057000013961C921E921297F0922C04E0922B0496
:10571000CDB7DEB7E6E0BACEF999FECF92BD81BD36
:10572000F89A992780B50895262FF999FECF1FBAC8
:1057300092BD81BD20BD0FB6F894FA9AF99A0FBEBA
:0857400001960895F894FFCFD3
:1057480000834000000104400000018208000001BD
:1057580000000000000000000000000210B0710608
:1057680000A4016C02D8040600002F042000323186
:0257780000002F
:00000001FF
