:1000000014C200002EC200002CC200000C94BD12CD
:1000100028C2000026C2000024C2000022C2000044
:1000200020C200001EC200001CC200000C948C2BD9
:1000300018C2000016C2000014C200000C94551231
:1000400010C200000EC200000CC2000028C5000053
:1000500008C2000006C2000004C2000002C2000084
:1000600000C20000FEC10000FCC10000FAC1000097
:10007000F8C10000CA28FC28E229FC28E229472907
:100080006E29E2298A29B22942DF0843DA0346E4CD
:100090000A693B1E4155185A961A47E70A4D1F0B2D
:1000A0004BA30B55220C595A20524F08547023561B
:1000B0004809578F0858960D6508096631276D7DE8
:1000C000284C35066CCE0874AF0575451578A1032C
:1000D0007A881D0000002A03430055004C003400BC
:1000E0003300330000002A03430055004C00380061
:1000F00036003800000016036200750073007700B8
:100100006100720065002E006400650000000403B9
:1001100009040902430002010080320904000001C1
:10012000020201000524000110052401030104243A
:1001300002060524060001070582030800FF0904E2
:100140000100020A00000007050402400000070544
:1001500083024000001201100102000008EB034B73
:1001600020000001020001202F2000203D20000778
:100170002E050DD391FF080500000C0021656A2DA6
:100180003B1322F862073F181D1CC700B0876BF8AD
:10019000B611EA2A001F41000D2E2D07D3913D0410
:1001A000320000060021656A55E43023B9000700DB
:1001B00018146C070090876BF85611E92A001F414C
:1001C0000000030F1E2627000000030F1E253638EF
:1001D0006700030F256740605000030F2751888395
:1001E0008100030F2750C8C3C20027000000000091
:1001F0000000670000000000000050000000000048
:1002000000008100000000000000C20000000000AB
:1002100000504C4C310D0A00504C4C300D0A005629
:1002200020312E36365F6E6F637265646974732099
:1002300043554C383638005620312E36365F6E6FB7
:10024000637265646974732043554C3433330043DF
:10025000554C5F563400202F2000203D2000424F97
:1002600056460D0A004552523A4343410D0A000BCF
:1002700008105B11F81547191D1A1C1BC71C001D1F
:10028000B221B623EA0007022E030D04E905CA07CE
:100290000C0B060D210E650F6A10C8119312031581
:1002A000341733181819161B432156250026112917
:1002B000592C812D353EC34C454E4552520D0A00F6
:1002C0004C454E4552520D0A000007024604C60531
:1002D000260B0610C81193120313221534173F186A
:1002E0002819161B432156250026110D210E650FD6
:1002F0006A070C160720F81E871F6B29592C812DC1
:10030000353EC3FF000001022E030104AA050F06BB
:10031000FF070008000B060D210E740FAD104B11E6
:10032000F8121613721541181819161B0323E92425
:100330002A2500261F3E500001022E030104AA05B3
:100340000F06FF070008000B060D210E660F661052
:10035000CA1193120613521535181819161B0323C8
:10036000E9242A2500261F3E500001022E03010425
:100370005505F006FF070008000B060D210E660F5D
:100380009910591183121E13521535181819161B7E
:100390000323E9242A2500261F3E500D2E2D07D3C6
:1003A000913D04320000060010B07155E43023B9CD
:1003B00000070018146C070090876BF85611E92AA3
:1003C000001F41000D2E2D07D3913D043200000681
:1003D0000010ABA5550A3023B900070018146C07AC
:1003E0000090876BF85611E92A001F41004E2F41FB
:1003F00000454F420D0A004E2F41004E2F41000094
:10040000535300547D7DFFFF4B4B7E7E002069736C
:1004100020756E6B6E6F776E2920557365206F6E39
:1004200065206F66003F2028000011241FBECFEF1B
:10043000D4E0DEBFCDBF11E0A0E0B1E0ECECFBE525
:1004400002C005900D92A032B107D9F724E0A0E2D6
:10045000B1E001C01D92AB36B207E1F70CD00C94AD
:10046000E42DCECDF89481E085BF82E085BFE0E049
:10047000F8E3099508959FE088E10FB6F894A895F0
:10048000809360000FBE9093600090E080E80FB60C
:10049000F89480936100909361000FBE2E9A2D9A7C
:1004A00004B603FE0AC083E390E0DFD5882329F079
:1004B00060E083E390E0D4D5D5DF89EF87BD84E0A9
:1004C00085BD82E084BD80936E00109280008AE03A
:1004D0008093810084B7877F84BF3D9A0E944B2818
:1004E000C4D60E94702B0E9429230E947B0D8AE0B3
:1004F00098E29093E5028093E4020E946B1489E0F5
:100500008093240145980E94222C0CD20E949C0FBB
:100510003CD30E9475270E94E7150E94E5160E94B1
:100520001E1A0E94571CEFCF292F33272230310586
:1005300059F02330310569F02130310539F582E178
:1005400090E025E531E026C083E490E022E131E04F
:1005500021C099278130910539F018F0029751F0A8
:1005600015C0EEE0F1E002C0E6EFF0E0849190E02B
:100570009F0110C01E9B03C026EE30E002C026ED96
:1005800030E0E6EEF0E0849190E004C080E090E09E
:1005900020E030E0FA013183208308958EBD0DB450
:1005A00007FEFDCF8EB50895EF92FF920F931F9334
:1005B000CF93C82F8A3008F0C8E00C2F10E083E0FA
:1005C000000F111F8A95E1F78BE290E00B521109A1
:1005D000FC01E00FF11FEF53FE4F64917C012FEF00
:1005E000E21AF20A3DD5C7018333910589F7C55058
:1005F000C53010F067E101C061E184E290E030D5E0
:10060000CF911F910F91FF90EF900895CF93DF93BB
:1006100082E090E0FC01EA56FE4F6491EC012196E5
:100620001FD5CE01AB97B1F787E390E0FC01E85C02
:10063000FE4F6491EC01219613D5CE01C036D10551
:10064000A9F71E9918C060E18FE090E009D560EB32
:1006500080E190E005D561E781E190E001D560E1BE
:1006600084E490E0FDD460EB85E490E0F9D461E7A8
:1006700086E490E0F5D488E097DFDF91CF9108958C
:100680002898806C8BDF80E089DF289A0895A1E0AC
:10069000B0E0EDE4F3E00C946F2C2898806469835B
:1006A0007DDF6981862F7ADF289A2196E2E00C941B
:1006B0008B2C289873DF289A0895EF92FF920F935E
:1006C0001F93CF93DF93EC011092D001EA98209A08
:1006D000289A8EE190E031D328988EE190E02DD3D6
:1006E000289A8DE290E029D380E3E3DF84E690E06E
:1006F00024D3289880E452DF8E01075D1F4F7E01CE
:100700008FEFE81AF80ACE01B0D448DFE701E0160F
:10071000F106A9F7289A28988EE740DF8BE290E04F
:10072000EC012196A2D43ADFCE01E397C9F7289ACB
:1007300083E3BFDF81E006D3CDB7DEB7E6E00C94FC
:10074000872CA1E0B0E0E7EAF3E00C946F2C22E004
:10075000298341E0BE016F5F7F4F019628D48981D4
:1007600023DF82E090E0A9DF2196E2E00C948B2C5D
:10077000CF93EA9886E39DDFCFEF85E39ADFC15000
:100780008077803229F08AE090E0D7D2C111F5CF8E
:10079000CF910895CF93CFEF84E38BDFC150807763
:1007A000803129F08AE090E0C8D2C111F5CFEA9AF1
:1007B000CF910895A2E0B0E0E0EEF3E00C946D2C50
:1007C0008C01FC0181818737E9F441E0BE016F5F54
:1007D0007F4FC8010296EBD3892BA1F041E0BE0107
:1007E0006E5F7F4FC8010496E2D3892B59F06A816E
:1007F00089814DDF83E35DDFCDDF8981D4D38A81B9
:10080000D2D32CC041E0BE016E5F7F4FC80101967C
:10081000CED3892B21F18A81893969F410E0812FA7
:100820002FDFC1D3812F8770873009F445D31F5F35
:100830001033A9F714C024DF182F83E4F0D28A8183
:10084000B2D38BE691E02BD3812FADD387E691E035
:1008500026D340E262E0812F90E032D32DD322965E
:10086000E4E00C94892C86E324DF1092E6021092D7
:10087000CE011092D001089582E090E01EDF81E069
:100880008093E6021092CE011092D00108950F934A
:100890001F93CF93DF93D82FC0E0062F10E085E39E
:1008A000EFDE8D1731F0C80148D2C150C1F781E0A9
:1008B00001C080E0DF91CF911F910F91089585E2F3
:1008C000DFDE8F3311F080E0089586E3F2DE809161
:1008D0002001811104C088E192E0E1D202C08DE3E1
:1008E000E8DE83E3E6DE64E081E0D1DF85E2C8DEB6
:1008F0008F3349F780912001811103C081E192E09B
:10090000CED281E0089585E3BBDE8D3051F485E2DF
:10091000B7DE8F3331F4D3DF84E3CBDE80778031F1
:10092000D9F7089580915E04843009F061C0809306
:10093000E90080912101811128C08091E80085FFA4
:1009400024C08091F200882331F06091F10087E1AA
:1009500094E0B3D4F6CF8091E800982F9B7F9093DA
:10096000E8008F778093E80081E08093210182E99D
:1009700094E09093E3028093E202E091E402F0912C
:10098000E50281E009951092210183E08093E9005E
:100990008091D603882361F18091E80085FF28C00B
:1009A000F8948091D603882351F08091F20080342E
:1009B00030F484ED93E097D48093F100F2CF7894F3
:1009C0009091F2008091E800282F2E7F2093E8007C
:1009D0008F778093E800903459F40E94362A8091F2
:1009E000E800982F9E7F9093E8008F778093E8002F
:1009F000089542E061EC82E00E94E82942E361E868
:100A000083E00E94E82942E360E884E00E94E8294C
:100A10001092000110920101109202011092030144
:100A2000089580915F0490916004913229F0923290
:100A300061F1903299F512C0813A81F58091E80018
:100A4000877F8093E80067E070E080E091E00E949B
:100A5000612A8091E800982F9B7F11C08132F1F4C8
:100A60008091E800877F8093E80067E070E080E095
:100A700091E00E94FC2A8091E800982F9E7F90933D
:100A8000E8008F778093E8000895813239F48091EF
:100A9000E800877F8093E8000C94122A08951F9243
:100AA0000F920FB60F9211248F939F93AF93BF9322
:100AB000EF93FF938091E8029091E902A091EA02FE
:100AC000B091EB020196A11DB11D8093E8029093B5
:100AD000E902A093EA02B093EB028091E7028F5FF4
:100AE0008093E702E5E9F3E0808191811816190609
:100AF0001CF4019791838083369683E0ED3AF807E2
:100B000099F78091AF039091B003009729F0019776
:100B10009093B0038093AF038091C2038F3F19F08D
:100B200081508093C203FF91EF91BF91AF919F914C
:100B30008F910F900FBE0F901F901895FC019FB7DB
:100B4000F8944091E8025091E9026091EA027091B4
:100B5000EB0240835183628373839FBF0895A4E0B7
:100B6000B0E0E5EBF5E00C946F2CCE010196E6DFEA
:100B70008C8119D28B8117D28A8115D2898113D2A7
:100B80009BD12496E2E00C948B2C0F931F93CF9370
:100B90008091E8029091E902A091EA02B091EB0203
:100BA00020912301281709F45CC08091E8029091FC
:100BB000E902A091EA02B091EB0280932301A8958B
:100BC00005E913E0C0E0F80180819181892B19F4D7
:100BD0008C2F0E94A525CF5F0A5F1F4FC43099F765
:100BE0008091AF039091B003892B11F40E940326EA
:100BF0008091C203811102C00E945C2680913B0358
:100C0000882339F0815080933B03811102C00E94F8
:100C10007C168091E7028D3720F11092E7028091D7
:100C2000070181FF04C098B180E2892788B984E870
:100C300093E09093ED028093EC02809122018F5F0C
:100C40008C3319F0809322010CC010922201809104
:100C500094038F5F8C3318F48093940302C0109236
:100C60009403CF911F910F910895AF92BF92DF929D
:100C7000EF92FF920F931F93CF93DF938C016EE05F
:100C800070E00E94C32D8D3009F04DC0459A8091CF
:100C9000D001882341F01092D0018CE191E046D739
:100CA000DD24D39401C0D12C8091E602811101C0D2
:100CB000E3DD5EDDC4E058018FEFA81AB80A035FD8
:100CC0001F4F5B9A88EE93E038D07501F701819150
:100CD0007F01D1E0813309F0D0E05B98D11103C0EE
:100CE00080ED97E002C088EE93E027D05B9AD111A7
:100CF00003C088EE93E002C080ED97E01ED0E016BE
:100D0000F10621F75B9883E21DD0C150D1F68091A6
:100D1000EF02882311F03EDD02C086E3CADCD11069
:100D20000E946E184598DF91CF911F910F91FF900F
:100D3000EF90DF90BF90AF900895880F991F0197B3
:100D4000F1F7089520ED37E0815020F0F901319757
:100D5000F1F7FACF0895CF93DF93EC018B818435BF
:100D600009F05AC0FE0133962881DE0150964DE00D
:100D7000421748F050E030E0C9010F974817590773
:100D800009F04AC005C08D918B33A1F34F5FF0CFBE
:100D9000D9011E97AE0FBF1F8C918435E9F59C8158
:100DA00011968C911197981337C09D8112968C9152
:100DB0001297981331C09E8113968C9113979813B4
:100DC0002BC09F8114968C911497981325C02151A4
:100DD0003109E20FF31F15968C91159780831696B3
:100DE0008C911697818319968C91199782831A9604
:100DF0008C911A9783831B968C911B9784831C96E6
:100E00008C911C9785831D968C91868398819A502E
:100E100098839A819A509A83DF91CF910895CF93C6
:100E2000C82F80915E04843081F48091240180FF7A
:100E30000CC08091D603803408F074DD6C2F84EDF3
:100E400093E03BD2CA3009F46DDD809146038823DC
:100E5000C9F08091240183FF15C0CA3099F0CD30CC
:100E600011F06C2F01C06BE386EF92E026D2CD30FB
:100E700019F486EF92E06FDF83E080933B0382E01A
:100E800080934103CF910895CF93DF93EC01899133
:100E9000882311F0C4DFFBCFDF91CF910895CF936A
:100EA000DF93EC01FE018491882319F0B8DF2196CD
:100EB000F9CFDF91CF9108958DE0B1DF8AE0AFCF18
:100EC000A6E0B0E0E6E6F7E00C946D2C362F1E822B
:100ED00025E0EAE0F0E0215001E010E00C0F1D1FDA
:100EE000020F111DBF010E94452C805DD8018C931B
:100EF000CB013150009769F02111EDCF0AC02223B8
:100F000059F02150E1E0F0E0EC0FFD1FE20FF11D80
:100F10004083315037FFF3CF81E090E08C0F9D1F6D
:100F2000820F911DB1DF2696E4E00C94892CA5E098
:100F3000B0E0EDE9F7E00C946D2CFC011D8294E02B
:100F40002E2F2F709150A92FB0E02A3010F4205D81
:100F500001C0295C01E010E00C0F1D1FA00FB11FA4
:100F60002C9384E0F695E7958A95E1F761503097E8
:100F700039F7615067FD0BC0992349F09150E1E0CA
:100F8000F0E0EC0FFD1FE90FF11D4083F2CF21E0EF
:100F900030E02C0F3D1F290F311DC90175DF25964B
:100FA000E4E00C94892C40E362E090E0C0CFDC01E7
:100FB000FB0130E020E09D919923B1F0913608F0DB
:100FC000905280ED890F8A3010F4982F05C08FEB76
:100FD000890F863028F49753922B332389F006C06B
:100FE000903249F39A3339F3CF0107C09F012F5F45
:100FF0003F4F9083415049F4C901861B970B0895D8
:10100000292F2295207F31E0D6CFF901D2CFDB0105
:10101000FC0180E090E02191222361F030ED320F5D
:101020003A30C8F76AE070E00E94342CC097820F13
:10103000911DF1CF8D939C930895982F92959F7059
:101040009A3010F4905D01C0995CFB0190838F7021
:101050008A3010F4805D01C0895CFB0181830895B2
:101060000E94D62DF999FECF08950C94CE2D0895A7
:101070000F931F93CF93CFEFC60FCF3F61F08C013B
:101080000F5F1F4FF2DF8FDFCC2311F08AE3C7DE43
:10109000C150C801F2CFCF911F910F910895A2E0E6
:1010A000B0E0E5E5F8E00C946C2CFC0121812D34D6
:1010B00021F466E08AEF93E005C0203529F460E171
:1010C0008AED93E0D5DF26C01A82198242E0BE0184
:1010D0006F5F7F4F01966BDF098110E0823021F452
:1010E000102F00278A81082BC801BFDFF82E82E568
:1010F00096DE40E364E0C8011ADF8AE592E0CFDEC5
:101100008F2D51DF86E592E0CADE40E262E08F2D4E
:1011100090E0D6DED1DE2296E5E00C94882CA6E0A5
:10112000B0E0E5E9F8E00C94692C8C0143E0BE01E5
:101130006F5F7F4F01963BDF7C01823058F1C980A1
:10114000D12C823021F0DC2CCC248A81C82AFF24C7
:10115000FE01EE0DFF1D6081C60182DFEE0CFF1C5B
:101160008FEFE81AF80A0E0D1F1DF8018081882301
:1011700089F041E0BE016F5F7F4FC80118DF892B06
:1011800049F0EFEFCE1ADE0A6981C60169DF0E5F12
:101190001F4FEBCF2696E8E00C94852C41E067E0EA
:1011A00071E0019604DF8091070180FF02C0459A3B
:1011B00001C045986091070184E390E051CFA1E020
:1011C000B0E0E5EEF8E00C946F2C1982009731F056
:1011D00041E0BE016F5F7F4F0196E9DE89818F3F5D
:1011E00009F4FFCF882321F061E083E390E038DF4A
:1011F0000E94762B10926E00F89498E088E10FB66A
:10120000F894A895809360000FBE90936000FFCF84
:10121000CF93DF93EC0161E080E090E021DF62E4B6
:1012200081E090E01DDFF2D960E080E690E018DF19
:1012300060E081E690E014DF60E083E390E010DF9F
:1012400062E084E390E00CDF60E080E690E008DF9D
:1012500060E081E690E004DF8981883719F080E062
:1012600090E0ADDFDF91CF91089580E090E0FDDE6A
:10127000813029F481E090E0F8DE823419F080E0DA
:1012800090E0C6DF84E390E0F0DE809307010895EC
:10129000FC018181883419F48FE492E007C01E9923
:1012A00003C087E392E002C08FE192E0F8DD04CE54
:1012B000FC011282108211820895FC019FB7F894FC
:1012C0008281803470F48F5F8283208181E0820F7D
:1012D0008083DF01A20FB11D13966C93803409F453
:1012E00010829FBF0895FC012FB7F894828181116D
:1012F00002C02FBF08959FEF980F9283918181E0E4
:10130000890F8183DF01A90FB11D13969C91803451
:1013100009F411822FBF892F0895FA019081882343
:1013200069F0DB01A90FB11DE1E0F0E0022E01C080
:10133000EE0F0A94EAF78C91E82BEC93222319F034
:101340008FEF820F0BC081E0890F8C3010F4FA010F
:101350008083FB01E80FF11D108287E090E0089583
:10136000CF93C82F5B9A882319F02091270102C0E0
:101370002091290130E0C90134E0880F991F3A9586
:10138000E1F7DBDC5B98CC2319F08091260102C0E9
:101390008091280190E024E0880F991F2A95E1F7B9
:1013A000CCDCCF910895A4E0B0E0E9EDF9E00C9435
:1013B0005F2C2C01162FC42EA22E459A8091D001AD
:1013C000882341F01092D0018CE191E0AFD3FF244B
:1013D000F39401C0F12C8091E602811101C04CDA36
:1013E000C7D9612E712CD12C88248394912CB12CD7
:1013F000312C832D032C000C990B8615970524F4B2
:1014000080E0AEDF3394F5CF112311F081E0A8DF47
:1014100090E0292F092E000C330B2C153D05F4F418
:1014200047E0242E312CA901440D551D5B834A83CE
:101430009401022C01C0220F0A94EAF7EA81FB8191
:101440008081822399838CDFF1E02F1A3108998102
:101450004FEF2416340661F79F5FDBCF87E0382E0D
:10146000240D351D832D032C000C990BA816B906ED
:1014700084F4C401032C01C0880F0A94EAF7F9012F
:101480009081892329833C836BDF3A943C812981B5
:10149000E9CF8E2D57DC015009F0AACF8091EF02E1
:1014A000882311F077D902C086E303D9F1100E9496
:1014B0006E1845982496E2E10C947B2CADE0B0E0E8
:1014C000E4E6FAE00C94642C7C01162F842F022FA2
:1014D0006701C60ED11C462FB7013DD3F6018083AC
:1014E00077247394710E1D86198227E010E0CC24B6
:1014F000C394D12C97E0A92EB12C4701810E911CE9
:10150000171560F5C6010A2C01C0880F0A94EAF786
:10151000F4019081AE01435F5F4FBE016F5F7F4F6B
:101520008923FBDE282FF1E0AF1AB10848F7F40158
:101530009081092E92959025092E96959695902545
:101540009F5F91FB882780F9AE01435F5F4FBE012B
:101550006F5F7F4FE2DE282F1F5FCCCF222311F079
:10156000215004C08D858F5F8D8727E089E18093AE
:1015700028018093290185E2809326018093270129
:101580008AE0E82E4D856CE0CE0101960CDF2D96A9
:10159000EDE00C94802CADE0B0E0E1EDFAE00C94CD
:1015A0006E2C162F242F4BE0BE016F5F7F4F0196EC
:1015B0002D87FDDC2D85412F682FCE0101967EDF22
:1015C0002D96E3E00C948A2C43E066E0E4CFEF92A2
:1015D0000F93CF93DF93CDB7DEB760970FB6F89434
:1015E000DEBF0FBECDBF40E1BE016F5F7F4F0196F2
:1015F000DEDC69814A810B818C81809329018D8198
:10160000809328018E81809327018F81809326010A
:10161000E02EE2948FE0E8220F70242F2F70429585
:101620004F70CE010896BFDE60960FB6F894DEBF0D
:101630000FBECDBFDF91CF910F91EF9008958F92A4
:101640009F92BF92CF92DF92EF92FF920F931F93E0
:10165000CF93DF93CDB7DEB769970FB6F894DEBFAF
:101660000FBECDBF4BE08E010F5F1F4FB80101963B
:101670009EDCF82E89E0F81254C099E1909328017D
:10168000909329019093270182E38093260169E0DA
:10169000C8016BD2F801EF0DF11D8083198E1D86F4
:1016A000780127E088248394912CC12CD12CBE2C66
:1016B000B01AF9E0FB1528F1C4010C2C01C0880F09
:1016C0000A94EAF7F7019081AE01475E5F4FBE01D1
:1016D000635F7F4F892321DE282FFFEFCF1ADF0AB8
:1016E00088E0C816D10429F7AE01475E5F4FBE01FE
:1016F000635F7F4F81E011DE282FEFEFEE1AFE0AC5
:10170000D4CF222311F0215004C0898D8F5F898F9F
:1017100027E08AE0E82E03E0498D6CE0CE010D96CB
:1017200042DE69960FB6F894DEBF0FBECDBFDF91E3
:10173000CF911F910F91FF90EF90DF90CF90BF90CE
:101740009F908F900895A9E1B0E0E9EAFBE00C9446
:10175000652C4BE09E012F5F3F4F6901B901019657
:1017600026DC182F85E38093290196E190932801C8
:101770009093270180932601612FC60102D2F601C2
:10178000E10FF11D8083FF24F394F10E198E1D8665
:10179000560127E088248394912C8A2D8C198F156B
:1017A00008F044C000E010E0C401002E01C0880F22
:1017B0000A94EAF7F5019081AE01475E5F4FBE01E2
:1017C000635F7F4F8923A9DD282F0F5F1F4F0430F0
:1017D000110551F7AE01475E5F4FBE01635F7F4F5A
:1017E00081E09BDD282FC401002E01C0880F0A94E0
:1017F000EAF7F5019081AE01475E5F4FBE01635F7E
:101800007F4F89238ADD282F0F5F1F4F0830110576
:1018100051F7AE01475E5F4FBE01635F7F4F81E0CE
:101820007CDD282FFFEFAF1ABF0AB7CF8AE0E82E82
:1018300003E0498D6AE0CE010D96B5DD6996ECE0D6
:101840000C94812CEF920F93CF93DF9300D000D0B4
:10185000CDB7DEB743E0BE016F5F7F4F0196A7DBD8
:101860008AE68093290194E29093280191E2909373
:1018700027018093260180E88C838FE0E82E03E027
:1018800026E043E060E0CE0101968DDD0F900F90E1
:101890000F900F90DF91CF910F91EF900895A0E0FE
:1018A000B0E0E5E5FCE00C94652CDC01109245010C
:1018B00010925A011196DC901197DD0CDD0CDD0CB5
:1018C00013968C911397D81A8D2D97E0B92EBD0CD5
:1018D0001092460190E040E028E0D22ED80E71E050
:1018E00087E057E0C12C37E0E32EF12C01E010E057
:1018F0007D1509F478C0FD01EC0DF11D248130E067
:10190000052E02C0359527950A94E2F721703327FA
:10191000552311F0515002C0C39457E06B3479F451
:10192000833009F079C0411108C0232B09F058C059
:101930001092450190935A016DC040E070C08F3FF6
:1019400039F56634B1F4E92FF0E0EA5BFE4FE0814F
:101950000E2EE295E0250E2EE695E695E025EF5F4A
:10196000E695E170CE2F812CD82DC217D30741F018
:1019700004C0653429F4232B19F440934501DACFD0
:101980009F5FE92FF0E0EA5BFE4F108287E029C0FD
:10199000232B21F1663469F4E92FF0E0EA5BFE4F76
:1019A000A0809801082E01C0220F0A94EAF72A2984
:1019B00014C0653499F4E92FF0E0EA5BFE4F97011B
:1019C000281B310987FD3395480102C0880C991CFA
:1019D0002A95E2F794013081232B2083815001C0A6
:1019E00041E07F5F85CF4093450190935A01B71640
:1019F00088F4653431F48F3F21F49F5F90935A014E
:101A000004C0809145018111F8CF81E090915A0185
:101A1000911108C080E006C08F3F09F4ACCF232BA2
:101A200051F6DCCFCDB7DEB7ECE00C94812C1092F0
:101A30006F0080915D0190E06CE170E00E94342CB9
:101A4000825A9E4FFC0110828091EE028D7F80931E
:101A5000EE020895FC018181843108F0E8CF938182
:101A6000662381F0DF01A80FB11D21E030E0092ECF
:101A700001C0220F0A94EAF714963C911497232B85
:101A800014962C93992319F091509383089597E01D
:101A900093838F5F8183E80FF11D14820895DC0129
:101AA000362F11962C911197E22FF0E050E09C9187
:101AB000BF01641B750B655F7F4F67317105C8F40B
:101AC000892F90E0632F70E09C01261B370B255F68
:101AD0003F4F2731310568F49F01280F391F640FEC
:101AE000751F261B370B255F3F4F81E027313105DE
:101AF00008F080E00895539A5B985298E9E6F0E088
:101B0000808180618083EEE5F1E0148E10AE10924A
:101B1000B2011092E60208958091EF02882321F02D
:101B20000E943C040C94CA030C943304FC012181F0
:101B300021110BC08091EF0236DA40E265E080911E
:101B4000EC029091ED02BCD9B7C941E06FEE72E0B2
:101B500001962DDAE1CF442339F04150FB01E40F27
:101B6000F11D9081890FF7CF08959C0180E06623D5
:101B700039F06150F901E60FF11D90818927F7CF07
:101B80000895FC017091450140E095E080E06623F6
:101B900099F06150DF01A60FB11D3C91532F529572
:101BA0005F708527950F772311F0442319F03F705C
:101BB0008327930F4F5FEBCF980F9295907F892BE0
:101BC0000895FC0182819381A081B181A80FB11D8C
:101BD0002C9130E0092E02C0359527950A94E2F742
:101BE000217033274FEF490F4383911104C08F5F5A
:101BF000828387E08383822F0895A1E0B0E0E3E051
:101C0000FEE00C94652C6C01062F10E0812C912CC9
:101C1000F12CEE24E394580181E0A81AB108801653
:101C20009106E1F0C6014983CCDF4981882391F018
:101C3000442349F0C501881999099E2D01C0990FC7
:101C40008A95EAF706C09E2D082C01C0990F0A94C8
:101C5000EAF7F92A8FEF881A980AE1CF8F2D21969B
:101C6000ECE00C94812CA4E0B0E0E9E3FEE00C94FD
:101C7000662C1B8227E02C839C012C5F3F4F3A830C
:101C8000298310925A01FC01218130E083E0220F68
:101C9000331F8A95E1F7438187E090E0841B910927
:101CA000820F931F853491050CF450C0912C009144
:101CB0005A01063070F5E02EF12C40E068E0CE01CC
:101CC00001969BDF9701A9014A5B5E4F7A01FA01F9
:101CD0008083182F012E12951025012E169516952A
:101CE0001025CE0101966DDF1F5F11FBAA24A0F81D
:101CF000B12C90E0A816B90649F5CE01019661DF36
:101D0000811124C0F701808198260F5F00935A014A
:101D1000CECF40E068E0CE0101966FDF082F182F8C
:101D2000012E12951025012E169516951025CE011F
:101D3000019647DF1F5F11FBCC24C0F8D12C282F60
:101D400030E0C216D30611F481E0901280E02496B0
:101D5000EBE00C94822CA4E0B0E0E1EBFEE00C940C
:101D6000682CFC011B8287E08C83CF0104969A8348
:101D700089838081853009F055C0218130E043E0BE
:101D8000220F331F4A95E1F7438187E090E0841BDF
:101D90009109820F931F8039910509F043C0109279
:101DA0005A013FE0C32E30EFD32E19E880915A013B
:101DB000E82EF12CBB24B394B80E41E068E08F30DC
:101DC00078F4CE01019619DFC80ED11CF701EA5B49
:101DD000FE4F1827108314E2180FB0925A01E6CF75
:101DE000CE0101960ADF8601080F111DB0925A013B
:101DF000F701EA5BFE4F8095808341E068E0CE0109
:101E00000196FBDE90E0982F8827081B190B41E014
:101E100068E0CE010196F1DE282F30E081E0021764
:101E2000130709F080E02496E9E00C94842CA4E0E8
:101E3000B0E0EDE1FFE00C946C2C1B8227E02C83DA
:101E40009C012C5F3F4F3A832983FC012181243080
:101E5000A1F58381813089F510925A0180915A0150
:101E6000082F10E0FF24F394F80E41E0843098F43A
:101E7000811106C067E0CE010196BFDE806804C014
:101E800068E0CE010196B9DEF801EA5BFE4F80837F
:101E9000F0925A01E3CF67E0CE010196AEDEF80181
:101EA000EA5BFE4F880F8083F0925A0190914601C1
:101EB00092959F7081E09A3009F080E02496E5E0E9
:101EC0000C94882CCF93DF93FC0181818330C1F483
:101ED00083818730A9F48081883091F490E0292FA4
:101EE00030E0D901AA5BBE4FEF01C20FD31F8C8136
:101EF0008C939F5F933099F790935A0181E001C0D2
:101F000080E0DF91CF910895FC0190818091EE02F5
:101F1000993611F0933751F4982F9370913011F452
:101F2000826006C080FF07C08B7F03C080FD03C0B6
:101F300084608093EE020895A1E0B0E0E2EAFFE061
:101F40000C94652C198280912A018823B9F1809123
:101F5000EF0287FF17C084E30E944003805880345B
:101F600058F0803C58F490E080559109E3E0959555
:101F70008795EA95E1F703C080E001C08FE08F59B3
:101F80000E940F078091EF0283FF16C082E70E9434
:101F90000F078091EF0284FF04C080912B010E9403
:101FA0000F0786E60E940F078091EF0284FF04C0AE
:101FB00080912A010E940F0710922A0180915B01F3
:101FC000882309F46EC2459A80915C0190E06CE12F
:101FD00070E00E94342C8C01025A1E4F89818111BD
:101FE00006C0C8016FDF882311F083E789838981E8
:101FF000811106C0C801AFDE882311F083E5898313
:102000008981811139C066E4C80149DC8823A1F1C6
:10201000F0905A01FA94F0925A014F2D66E471E063
:1020200086E099DDEF2DF0E0EA5BFE4FE0808E1157
:1020300005C093E09F1510F486E41BC0282F30E004
:102040002F5F3F4F4E2D50E02417350739F4A3E0A2
:10205000AF1520F496E4998380830EC04F2D66E47B
:1020600071E08CE078DD8E1106C0B3E0BF1518F486
:1020700084E5898301C019828981811116C065E4D4
:10208000C8010DDC882389F080915A01815080932A
:102090005A01893051F469E086E491E066DD90915F
:1020A0004F01891302C085E489838981811106C0AB
:1020B000C801D9DD882311F088E4898389818111E1
:1020C00006C0C801B4DE882311F084E789838981C2
:1020D000811139C0F801438D60912B01C8014A96E6
:1020E000DEDC682FC801B6DC6BE4C801D8DB8823CE
:1020F000C1F0E0915A01FF24FA94FE0EF0925A01C9
:102100006F2D86E491E03DDDEF2DF0E090914501EB
:10211000E91BF109EA5BFE4F9081891302C08BE451
:102120008983898181110FC0D80113968C911397EF
:10213000873021F08F5F13968C9305C0F8011382CE
:10214000818181508183F980F1102DC0D8011196D1
:102150008C911197843039F513968C91843019F550
:102160004EE16CE3C80148969ADC8823E1F04EE129
:1021700060912B01C8014A9692DC682FC8016ADC85
:102180008F2D90E0FC01EA5BFE4FD801A80FB91F2C
:1021900014968C918083F394B5E0FB12F1CFF0920A
:1021A0005A0182E589836981662309F4DBC0409185
:1021B000EF0240FFD7C08091EE028E7F8B7F80932D
:1021C000EE02942F927041FD64C0509144017091D1
:1021D0005A0157133EC080E08517C0F4282F30E025
:1021E000E1E0E80FD901A05DBE4F2A5B3E4FFC91B4
:1021F000D9012C91F21741F0809344012091EE0215
:102200002D7F2093EE0204C08E2FE6CF80934401F1
:1022100085131FC0C090E802D090E902E090EA0266
:10222000F090EB0280902C0190902D01A0902E0157
:10223000B0902F01C818D908EA08FB08B6E2CB16FF
:10224000D104E104F10428F48091EE0281608093CE
:10225000EE02971760F4292F30E0F901E05DFE4FA0
:10226000D901AA5BBE4F8C9180839F5FF2CF909380
:1022700044018091E8029091E902A091EA02B091B4
:10228000EB0280932C0190932D01A0932E01B0932B
:102290002F016435E9F446FD1BC080915A01853059
:1022A000B8F0809148018B3471F0893661F09DEA75
:1022B000980F923040F08D57823028F0809149017C
:1022C0008077803729F48091EE0281608093EE025E
:1022D000B801CE01019618DE8981843569F49091A8
:1022E0004603992349F090919303911105C0909171
:1022F000EE029B7F9093EE029091EE0292FF32C02D
:102300000E940F0780914501882329F080915A018E
:10231000815080935A01F12CE0915A01FE1648F445
:10232000EF2DF0E0EA5BFE4F80810E94D307F3942B
:10233000F3CF80914501882351F0F0E0EA5BFE4F36
:1023400080818F7040E361E090E00E949707809168
:10235000EF0285FF05C084E30E9440030E94D3077B
:102360000E945C078091EF0282FF82C080E70E949A
:102370000F07F801808140E262E090E00E94600770
:10238000D80158968C9190E040E265E024E0880FF7
:10239000991F2A95E1F70E946007F801818D90E06E
:1023A00040E265E034E0880F991F3A95E1F70E941A
:1023B0006007D8015A968C9190E040E265E054E0C5
:1023C000880F991F5A95E1F70E946007F801838DE5
:1023D00090E040E265E074E0880F991F7A95E1F79C
:1023E0000E946007D80112968C9140E263E090E071
:1023F0000E946007F801818140E263E090E00E9462
:102400006007D80113969C9140E262E027E030E03B
:10241000F901E91BF109CF010E94600780E20E94E7
:102420000F078091EF0285FF08C084E30E944003FC
:102430000E94D30780E20E940F07D80113968C9167
:102440001397873031F011968C9111978F5F119609
:102450008C93F12CF8018181F81640F4F801EF0D0E
:10246000F11D84810E94D307F394F4CF0E945C078E
:10247000D8011C9280915B01815080935B01809117
:102480005C018F5F843019F080935C0102C0109270
:102490005C0145988981843521F486E491E00E94AD
:1024A0006B262196ECE00C94812C1F920F920FB6B4
:1024B0000F9211242F933F934F935F936F937F93CA
:1024C0008F939F93AF93BF93EF93FF9310926F00FF
:1024D0008091EF0283FF03C08EE20E940F072091DC
:1024E0005D01E22FF0E0CF016CE170E00E94342C3E
:1024F000825A9E4FDC018C91833020F0FD01818156
:10250000823010F494DA18C080915B01833049F472
:102510008091EF0282FFF6CF8EE592E00E944F0796
:10252000F1CF8F5F80935B012F5F243019F02093F0
:102530005D0102C010925D01FF91EF91BF91AF91DB
:102540009F918F917F916F915F914F913F912F91CB
:102550000F900FBE0F901F9018959BED980F97311D
:1025600050F496EF960F9D3130F491E0681708F023
:1025700090E0892F089580E008951F920F920FB682
:102580000F921124FF920F931F932F933F934F931A
:102590005F936F937F938F939F93AF93BF93CF93EB
:1025A000DF93EF93FF938091D303882321F082E0A0
:1025B0008093D30364C180913C03823021F483E093
:1025C00080933C035CC10091840010918500F4E08D
:1025D00016950795FA95E1F780915D0190E06CE121
:1025E00070E00E94342CEC01C25ADE4F88818430A6
:1025F00031F40E3208F443C10F3448F0B6C08530D0
:1026000031F4073108F43BC1083208F0AEC04A99F2
:102610000DC08450823038F461E0CE011BDA109294
:1026200085001092840000932B0129C190912B0109
:10263000091B00932A011092850010928400888162
:10264000883071F42A8121110BC021E02A83988FF0
:102650009A8F098F0B3B10F4000F01C006950B8F6A
:102660008450823020F460E0CE01F4D908C182E0C9
:1026700086BB0881011111C090912B01953608F09D
:10268000FEC080912A01853608F0F9C0988F898FA5
:1026900081E08A8382E08883F2C010912A010230AF
:1026A00009F073C000912B01412F602FCE01489695
:1026B000F6D94A818823F9F0288D30E0C901880FC6
:1026C000991F280F391F200F311D359527953595F6
:1026D0002795288F898D90E09C01220F331F820F50
:1026E000931F810F911D9595879595958795898F56
:1026F0004F5F4A83C4C0443008F445C080EA9FE07D
:1027000090938900809388008A818C3050F0888D66
:10271000298D30E0280F311D2536310524F084E065
:1027200027C08A3088F0888D298D30E0280F311D30
:10273000253231054CF485E0888388EE93E0909350
:1027400089008093880015C08091F502882379F074
:10275000612F802F02DF882351F0688D898DFDDE87
:10276000882329F081E080933C0361D988C083E00D
:1027700088830A8F1B8F198287E08B831C8282E0FB
:1027800080936F007CC0188277CF083029F581E9EB
:10279000810F8D3178F460E0CE015CD9888D90E0B6
:1027A0009C01220F331F820F931F20912B01820F58
:1027B000911D4EC0173E08F462C061E0CE014AD9B7
:1027C0008A8D90E09C01220F331F820F931F20916E
:1027D0002B01820F911D15C0F0902B01412F6F2D01
:1027E000CE014A965CD9882301F161E0CE0132D94D
:1027F0008A8D90E09C01220F331F820F931F8F0D53
:10280000911D95958795959587958A8F8B8D90E0ED
:102810009C01220F331F820F931F810F911D9595ED
:102820008795959587958B8F2AC0412F6F2DCE0167
:10283000489635D9882301F160E0CE010BD9888D07
:1028400090E09C01220F331F820F931F8F0D911D6B
:102850009595879595958795888F898D90E09C01B2
:10286000220F331F820F931F810F911D959587951E
:1028700095958795898F03C0073009F076CFFF9132
:10288000EF91DF91CF91BF91AF919F918F917F9108
:102890006F915F914F913F912F911F910F91FF90F9
:1028A0000F900FBE0F901F90189580915D0190E0E2
:1028B0006CE170E00E94342C825A9E4FFC018081B2
:1028C000811107C081E09091C2039F3F19F480E01D
:1028D000089581E0089580E690E00E943508809395
:1028E000F50281E690E00E94350880934603882334
:1028F00021F081E28093EF020FC908955B9A0C9456
:102900009D065B980C949D06A7E0B0E0EAE8F4E130
:102910000C94692C9091FE02943559F420913F0358
:10292000309140032F5F3F4F3093400320933F038C
:102930003EC0963459F420913D0330913E032F5F01
:102940003F4F30933E0320933D0331C0953459F4FB
:102950002091F2023091F3022F5F3F4F3093F30248
:102960002093F20224C09B3459F420914203309109
:1029700043032F5F3F4F309343032093420317C01D
:10298000983459F420914403309145032F5F3F4F11
:1029900030934503209344030AC02091F002309104
:1029A000F1022F5F3F4F3093F1022093F00295E741
:1029B0009983882391F0BE016E5F7F4F809146031B
:1029C0000E941D08BE016C5F7F4F8091F5020E943E
:1029D0001D0885E58E8316E001C011E00E943C04CD
:1029E0000E94B80306E080E891E088DF80E093E091
:1029F00088DF0150C1F780E093E080DF80E891E05C
:102A000080DF80E891E07ADF5B9887E390E00E94C6
:102A10005D0383E00E94A20628988FE70E94CE0201
:102A20008091F802810F0E94CE02CE0101966C01C6
:102A30007C01F70181917F010E94CE028E2D8C19BD
:102A40008117B8F38091F802882339F086EF92E07D
:102A50000E9473090E94CE02F5CF289A0E94B80303
:102A600086EF92E00E94580915E18AE30E94400334
:102A70008F7731F0115021F081E00E94A206F5CF4E
:102A80004BD82796E8E00C94852CCF93DF93EC018C
:102A90008981811107C08091F5020E94D30780913E
:102AA000460313C08436A1F48091E8029091E902B4
:102AB000A091EA02B091EB0240E364E00E94970724
:102AC0008EE20E940F0780913B030E94D3074DC006
:102AD000833709F04DC040E361E080913F0390915E
:102AE00040030E9497078EE20E940F0740E361E0D7
:102AF00080913D0390913E030E9497078EE20E94D1
:102B00000F0740E361E08091F2029091F3020E948E
:102B100097078EE20E940F0740E361E08091420335
:102B2000909143030E9497078EE20E940F0740E3B3
:102B300061E080914403909145030E9497078EE2E3
:102B40000E940F0740E361E08091F0029091F10252
:102B50000E9497078EE20E940F0740E361E0809198
:102B6000390390913A030E9497070E945C072CC09A
:102B70008936D9F441E065EF72E0CE0102960E94F9
:102B8000D7076091F50280E690E00E94300841E0AE
:102B900066E473E0CE0104960E94D7076091460375
:102BA00081E690E00E9430080FC086EF92E00E941C
:102BB000580921966991662329F086EF92E00E94D8
:102BC0005D09F8CF80E0A0DEDF91CF910895A1E00C
:102BD000B0E0EDEEF5E10C94692C80913C03882384
:102BE00009F486C0C090E802D090E902E090EA02C1
:102BF000F090EB02833009F061C08FE30E94400344
:102C0000182F8630C8F087E194E00E945809289870
:102C10008FEF0E94CE0280E00E94CE02082F11505A
:102C200049F080E00E94CE02682F87E194E00E9484
:102C30005D09F5CF289A01C000E00E948C0D10922A
:102C40003C03053709F054C041E0BE016F5F7F4F80
:102C50008AE194E00E94D707019759F59981809104
:102C6000F502981326C080911E04853571F4809179
:102C70001904882339F087E194E00E9473090E94C7
:102C80000F07F5CF0E945C0733C080911904845070
:102C90008093190484E0809318046AE087E194E04B
:102CA0000E945D09E091E402F091E50288E0099557
:102CB0001FC087E194E00E9458091AC0823059F47D
:102CC0008091F4029C2D981B983090F00E948C0DFE
:102CD00010923C030DC0813059F487E390E00E94CC
:102CE0005D030E94CA0382E080933C03C092F40219
:102CF0002196E8E00C94852CD8DD882361F083E0F0
:102D0000809341038091390390913A030196909307
:102D10003A038093390380914103815080934103AA
:102D2000882321F083E080933B03089581E0ECCD7C
:102D3000CF93DF93EA98209A289A8EE190E00E9440
:102D40009D0628988EE190E00E949D06289A8DE2CB
:102D500090E00E949D0680E30E94590384E690E083
:102D60000E949D06C5E8D2E0FE0131966491FE0105
:102D700084910E9447032296F2E0C73BDF07A1F748
:102D80008091CF01811107C083E30E94590384E041
:102D90000E94A2060FC0CFE6D2E0FE0131966491F8
:102DA000FE0184910E9447032296F2E0C538DF07B6
:102DB000A1F7EACF84E30E94590385E30E94400310
:102DC0008D30C1F7DF91CF910895A2E3B0E0EBEE33
:102DD000F6E10C946D2C8091CE01882309F4A1C0FA
:102DE0004A9B8AC08FE30E9440038F778983823396
:102DF00068F08AE30E94590386E30E9459038DE339
:102E00000E94590384E30E9459038BC028988FEFD6
:102E10000E94CE0210E08981181760F480E00E94C1
:102E2000CE02E2E0F0E0EC0FFD1FE10FF11D808328
:102E30001F5FF1CF80E00E94CE02082F80E00E9449
:102E4000CE02289A84E30E94590385E30E9440033E
:102E50008D30C1F79A8126E729272A8322E08981CC
:102E6000E22FF0E0281768F441E050E04C0F5D1FBE
:102E7000E40FF51F80819452982790832F5F982F3D
:102E8000EECF81E090E08C0F9D1FE80FF91F80814D
:102E90009B81982790838091EF0284FF12C081E686
:102EA0000E940F0710E08981811730F1E1E0F0E026
:102EB000EC0FFD1FE10FF11D80810E940F071F5FC6
:102EC000F2CF81E40E940F0710E08981811758F04A
:102ED000E1E0F0E0EC0FFD1FE10FF11D80810E94A9
:102EE000D3071F5FF2CF8091EF0285FF03C0802FD1
:102EF0000E94D3070E945C0785E30E944003813053
:102F000029F0813161F48AE30E94590386E30E942B
:102F100059038DE30E94590384E30E9459030E94E0
:102F20008304E296E4E00C94892CAAE3B0E0EBE998
:102F3000F7E10C94652C41E38E010F5F1F4FB80140
:102F400001960E94D7077C019C013327215031094B
:102F5000898190E02817390709F0A3C08091CE013C
:102F6000811104C0E5DE83E00E94A206DB809A8125
:102F700086E789278A8382E09981282F30E0F8014B
:102F8000E20FF31F891750F4DE01A20FB31F9C91CB
:102F900094522081922790838F5FEECF80818D2580
:102FA0008083CE01C7960E949E0585E30E94590347
:102FB00085E30E944003833181F1CE01C3960E94D4
:102FC0009E054BA95CA96DA97EA98FA998ADA9AD55
:102FD000BAAD84179507A607B70760F44A015B01ED
:102FE000881A990AAA0ABB0A2DEB82169104A10439
:102FF000B10470F4481759076A077B0770F48454CA
:103000009F4FAF4FBF4F84179507A607B70728F408
:1030100085E692E00E944F0727C085E30E944003A7
:10302000833119F6D4FE08C088E70E94A20688E71B
:103030000E94A20688E701C08AE00E94A2062898A2
:103040008FE70E94CE0268018C2D801B8E1530F414
:10305000F60181916F010E94CE02F6CF289A85E396
:103060000E9440038331D9F385E30E9440038631F7
:1030700049F48BE30E94590386E30E9459038DE3D0
:103080000E9459038091CE01882349F084E30E9475
:10309000590385E30E9440038D30C1F702C00E94AE
:1030A0008C0DEA96ECE00C94812CFC019181923716
:1030B00031F0923559F481E08093CF0102C0109233
:1030C000CF0136DE81E08093CE010895933719F465
:1030D000CF0101962ACF1092CE010895CF93DF93AE
:1030E000EA98209A289A8EE190E00E949D062898FE
:1030F0008EE190E00E949D06289A8DE290E00E9469
:103100009D0680E30E94590384E690E00E949D069C
:10311000C9ECD2E0FE018491813440F083E30E9447
:10312000590384E00E94A206CFEF0DC0FE01319644
:103130006491FE0184910E9447032296F3E0C5301A
:10314000DF0741F7EBCF84E30E9459038AE090E068
:103150000E949D06C150B9F781E08093D001DF91B4
:10316000CF910895EF92FF920F931F93CF93DF9328
:103170008C01EB01FC01F0808091D001811101C034
:10318000ADDF85E30E9440038D3071F08AE50E9437
:103190000F0785E40E940F0782E50E940F0782E572
:1031A0000E940F0781E34BC08091D1019091D20121
:1031B000A091D301B091D401892B8A2B8B2B49F597
:1031C0000E94B80385E30E944003833109F442C0A2
:1031D0008AE50E940F0785E40E940F0782E50E949E
:1031E0000F0782E50E940F0782E329C04091E802A1
:1031F0005091E9026091EA027091EB020196A11DE3
:10320000B11D481759076A077B07D1F681E00E9474
:10321000A2064091E8025091E9026091EA027091A1
:10322000EB028091D1019091D201A091D301B09194
:10323000D401481759076A077B07C1F6E7CF0E94F8
:103240000F0785E30E9440030E94D3070E945C079A
:1032500045DF60C0CD2B49F428988FE70E94CE024D
:10326000E02EC02FD12FF39408C0CAE0D0E084E64E
:103270000E94A2062197D9F7EFCF8C2F8E198F15B8
:1032800020F489910E94CE02F8CF289AC8EC85E3F9
:103290000E9440038D30E9F485E30E9440038D30A5
:1032A00019F18AE50E940F0785E40E940F0782E565
:1032B0000E940F0782E50E940F0783E30E940F0719
:1032C00085E30E9440030E94D3070E945C0706DF4B
:1032D0000BC085E30E9440038331F1F681E00E9438
:1032E000A206C150A1F6D8CF8091D001811102C0B1
:1032F0000E948C0D8091E8029091E902A091EA026F
:10330000B091EB028093D1019093D201A093D301AD
:10331000B093D401CDB7DEB7E6E00C94872CACE0D7
:10332000B0E0E5E9F9E10C946E2CFC018BE08983B7
:1033300081818A831B8282E08C8387818D83808553
:103340008E8381858F838481888785818987868123
:103350008A871B861C8684E10E94A20660E070E0DA
:10336000CE010196FFDE8AE50E940F0710E0812F53
:1033700090E0298130E0281739075CF0E1E0F0E0C7
:10338000EC0FFD1FE80FF91F80810E94D3071F5F1C
:10339000EECF8091EF0285FF03C080E00E94D3074B
:1033A0000E945C072C96E3E00C948A2CCF93DF9369
:1033B000EC019091D801911108C08091D90181113F
:1033C00004C08091DA018823A9F08B81803319F041
:1033D0008F7E803479F48F8189130CC09885809119
:1033E000D901981307C099858091DA01981302C01A
:1033F000CE0195DF8091D501811108C09091D60151
:10340000911104C09091D7019923A9F098819B3024
:1034100091F49B81903479F49F8198130CC0988526
:103420008091D601981307C099858091D701981390
:1034300002C0CE0174DFDF91CF910895AEE1B0E01C
:10344000E4E2FAE10C946D2C8091D001882309F418
:1034500069C04A9B59C08FE30E9440038F778E3129
:1034600008F08DE1898328988FEF0E94CE0210E04A
:103470008981181760F480E00E94CE02E2E0F0E05B
:10348000EC0FFD1FE10FF11D80831F5FF1CF80E086
:103490000E94CE02082F80E00E94CE02289ACE0120
:1034A000019684DF8091EF0284FF12C08AE70E94B8
:1034B0000F0710E089818117A8F1E1E0F0E0EC0F3F
:1034C000FD1FE10FF11D80810E940F071F5FF2CFEA
:1034D0008AE50E940F0710E08981811758F0E1E02A
:1034E000F0E0EC0FFD1FE10FF11D80810E94D3077A
:1034F0001F5FF2CF8091EF0285FF03C0802F0E94F3
:10350000D3070E945C070EC085E30E94400381310F
:1035100049F48AE30E94590386E30E94590384E335
:103520000E9459036E96E4E00C94892CAEE1B0E061
:10353000ECE9FAE10C946D2C8C01FC01818182375D
:1035400011F4CCDD36C0833711F0863601F54DE13C
:10355000BE016F5F7F4FC80102960E94D70799276F
:103560000197298130E08217930729F087EB92E0D9
:103570000E944F071EC061E070E0F801818183372F
:1035800011F060E070E0CE010196ECDD12C08136F2
:1035900021F443E068ED71E005C0873741F443E072
:1035A00065ED71E0C80102960E94D70702C0109233
:1035B000D0016E96E4E00C94892C0E94CA03EA982C
:1035C0000895CF93DF93209A289A8EE190E00E948D
:1035D0009D0628988EE190E00E949D06289A8DE233
:1035E00090E00E949D0680E30E94590384E690E0EB
:1035F0000E949D06809188038933C1F4C9E6D3E017
:10360000FE0131966491FE0184910E944703229647
:10361000F3E0CB39DF07A1F783E30E94590384E08D
:103620000E94A206CADFDF91CF910895843379F416
:10363000C7E3D3E0FE0131966491FE0184910E94BC
:1036400047032296F3E0C936DF07A1F7E5CF8133C0
:1036500019F7C5E0D3E0FE0131966491FE01849133
:103660000E9447032296F3E0C733DF07A1F7D4CFC8
:10367000FC01908180918D03981317C091818091F6
:103680008E03981312C0928180918F0398130DC0FE
:10369000938180919003981308C090858091910345
:1036A000981729F081E09F3F19F080E0089581E0AC
:1036B00008959C018FEF662339F06150F901E60F00
:1036C000F11D90818927F7CF0895DC01FC018FE07F
:1036D0009DE170E09F012A1B3B0B2617370704F57D
:1036E0002191492F552742279A01329522952F7013
:1036F00023273F70232724273527582F4427422785
:103700005327C901982F88279295907F8427952762
:1037100045E0220F331F4A95E1F782279327DACF3E
:103720000895A0E0B0E0E7E9FBE10C946A2C8C017D
:10373000D62E459A80918803893339F464E182E179
:103740000E9447036D2D660F6D5E86E00E94470361
:103750000E94B80328988FE70E94CE0280918803C8
:10376000893321F0F02EC02FD12F4FC0CFE086E655
:103770000E94CE02C150D9F78AEA0E94CE0285E5A6
:103780000E94CE02D02F78018E2D8D1B8D15B0F5A5
:10379000F701C1917F01C7FD02C080E401C080E84C
:1037A000C6FD02C090E101C090E2890FC5FD02C0D4
:1037B00094E001C098E0980FC4FD02C081E001C010
:1037C00082E0890F0E94CE02C3FD02C080E401C0E6
:1037D00080E8C2FD02C090E101C090E2890FC1FD06
:1037E00002C094E001C098E0980FC0FD02C081E0E3
:1037F00001C082E0890F0E94CE02C6CF80E00E9405
:10380000CE0280E00E94CE0209C08C2F8F198D1548
:1038100028F4899180950E94CE02F7CF289A85E3FB
:103820000E9440038331D9F36FEF86E00E94470383
:1038300080918803893321F46EE182E10E9447037D
:10384000BCDE4598F801858186FF2CC08091E80296
:103850009091E902A091EA02B091EB020696A11DB7
:10386000B11D8093890390938A03A0938B03B09337
:103870008C038091DB018F5F8093DB01823060F0ED
:103880008AE70E940F0782E70E940F078091DB0101
:103890000E94D3070E945C078091DB01833010F007
:1038A0001092DB01CDB7DEB7E7E00C94862CA0E4E4
:1038B000B0E0EDE5FCE10C94622C8091DC01882302
:1038C00009F421C18091DB018823D9F04091E802FD
:1038D0005091E9026091EA027091EB0280918903B4
:1038E00090918A03A0918B03B0918C038417950764
:1038F000A607B70730F46091870387E493E011DFF0
:1039000002C14A9B00C1459A28988FEF0E94CE02BF
:103910008E010F5F1F4F7801B02EA12E902E68E010
:10392000D62ED00E80E00E94CE02F70180839091C7
:103930008803993311F080958083FFEFEF1AFF0A17
:10394000DE10F0CF289AF88487EF8F0D883310F0BF
:1039500038DED9C06F2D86E00E944703809188032E
:10396000813339F0843349F058E9C52E53E0D52E20
:1039700007C04AE5C42ED12C03C03CEDC32ED12C88
:1039800098E3592E28E0E22E6F2C712CC6010E947C
:103990009D068BE30E944003882E882329F190E046
:1039A0008E0D911D681679069CF228988FEF0E9463
:1039B000CE028E0CE81471F080E00E94CE0290914D
:1039C0008803993309F08095F801EE0DF11D80838D
:1039D000E394F0CF289AEF1438F080918803CF2C2D
:1039E000D12C813301F504C05A945110CFCFF5CFBB
:1039F000EFEFFFEFEC0FFD1FEC0DFD1D208130E020
:103A0000322F2227FE01EC0DFD1D80816901C80EB9
:103A1000D11C6EEF6F0DC80158DEEE24E3948C15B7
:103A20009D0561F40CC06FEF6F0DC80142DEFE0111
:103A3000EC0DFD1DEE24E39490818913E12C80911F
:103A4000DC01823701F5C80113DE81111CC0E12CB5
:103A50008091DC01823781F4EE2071F08E81982F05
:103A60009370933029F49091DB0191111092DB0156
:103A700086FF02C087FF18C06FEF86E00E944703F1
:103A80009CDD459840C0EE20B9F38AE70E940F07FD
:103A9000F80181918F010E94D307802F89198F151A
:103AA000B8F30E945C07D4CF8AE00E94A2068D8101
:103AB0008987809191038D8383E08E838091880331
:103AC000813351F48BE0888769E08B2D9A2DFDDDE1
:103AD0009A878B876BE008C08AE0888769E08B2D26
:103AE0009A2DE7DD8A876AE08B2D9A2D1ADE8AE708
:103AF0000E940F0781E60E940F0789850E94D30765
:103B00000E945C07BECFC05CDF4FEFE00C947E2CC0
:103B1000FC012181223711F02D3651F4FC01828104
:103B2000811101C084E3809388032093DC0149CD97
:103B3000233771F41092DB0140E467E473E00296EE
:103B40000E94D70780938703682F87E493E0E9CD2D
:103B5000293671F5FC012281222331F045E06DE820
:103B600073E002960C94D7078091DC010E940F0746
:103B7000809188030E940F0780E20E940F078091C6
:103B80008D030E94D30780918E030E94D3078091FA
:103B90008F030E94D307809190030E94D30780E295
:103BA0000E940F07809191030E94D3070C945C0739
:103BB0001092DC0108951F93CF93DF93EA98209A27
:103BC000289A8EE190E00E949D0628988EE190E070
:103BD0000E949D06289A8DE290E00E949D0680E357
:103BE0000E94590384E690E00E949D06289880E494
:103BF0000E94CE02CBE9D3E01C2F135FFE0184911B
:103C00000E94CE0221961C13F9CF809108010E94D8
:103C1000CE02809109010E94CE0280910A010E9489
:103C2000CE02C0E0D0E0FE01E555FC4F84910E9439
:103C3000CE022196C931D105B1F7289A28988EE78E
:103C40000E94CE028BE290E0EC0121960E943508A2
:103C50000E94CE02CE01E397B9F7289A83E30E942F
:103C6000590381E00E94A20681E08093E602DF9181
:103C7000CF911F910895AF92BF92CF92DF92FF92A2
:103C80000F931F93CF93DF93EC018981843769F4FD
:103C90006FE071E0CE0102960E94070840E260E00A
:103CA00080910F019091100112C0833709F084C1F7
:103CB0008A81823789F46BE071E0CE0103960E941D
:103CC000070840E260E080910B0190910C010E9496
:103CD00060070E945C07E4C1459A8091DF01811171
:103CE00016C08091CE01882329F081E08093DE0107
:103CF0001092CE018091D001882329F081E0809339
:103D0000DD011092D00157DF83E00E94A20686E316
:103D10000E9459038AE30E9459038BE30E945903CE
:103D20000E94B803FE0101900020E9F7EC1B8EEF22
:103D3000F82EFE0E10E06E01E2E0CE0ED11C2091B6
:103D40000B0130910C01812F012E000C990B821771
:103D5000930708F0F3C0F1E2FF1212C05B9A809162
:103D60000F01909110010E949D065B9880910D01BA
:103D700090910E016AE070E00E94342C0E949D0632
:103D8000560101E00F150CF0B1C0F50181915F0102
:103D9000803309F042C0F1E25B9AFF121CC08091AF
:103DA0000D0190910E010E949D065B9880910D017E
:103DB00090910E010E949D065B9A80910D01909159
:103DC0000E010E949D065B9880910D0190910E015D
:103DD00065E070E01FC080910F01909110010E947A
:103DE0009D065B9880910F019091100163E070E057
:103DF0000E94342C0E949D065B9A80910F01909145
:103E000010010E949D065B9880910F019091100116
:103E100063E070E00E94342C65C0813321F581E2BB
:103E20005B9AF81210C080910D0190910E010E94D2
:103E30009D065B9880910D0190910E0165E070E008
:103E40000E94342C1FC080910F019091100163E0FB
:103E500070E00E94342C0E949D065B9880910F01B7
:103E6000909110012DC0E1E25B9AFE121AC0809180
:103E70000D0190910E010E949D065B9880910D01AD
:103E800090910E010E949D065B9A80910D01909188
:103E90000E010E949D065B9880910D0190910E018C
:103EA00021C080910F01909110010E949D065B98A6
:103EB00080910F019091100163E070E00E94342C1A
:103EC0000E949D065B9A80910F019091100163E022
:103ED00070E00E94342C0E949D065B9880910F0137
:103EE000909110010E949D060F5F4CCFF1E25B9A0A
:103EF000FF1212C080910D0190910E010E949D064B
:103F00005B9880910D0190910E0168E270E00E9433
:103F1000342C0E949D0610C080910F0190911001D9
:103F20000E949D065B980FE180910F019091100116
:103F30000E949D060150C1F71F5F01CF8091DF01F4
:103F4000882341F08091EF0281110FC086E30E9427
:103F5000590318C08091DE01882351F01092DE01D0
:103F60000E94981681E08093CE010E94CA030AC085
:103F70008091DD01882321F01092DD01AFD802C0CD
:103F80000E948C0D459889E60E940F0783E70E94E6
:103F90000F0711E01F150CF09CCEFE01E10FF11D83
:103FA00017FDFA958181803319F0813309F086E499
:103FB0000E940F071F5FEECF8237B9F48091CE01C8
:103FC000882329F081E08093DE011092CE01809158
:103FD000D001882329F081E08093DD011092D00187
:103FE000EADD81E08093DF015BC0863651F58A818E
:103FF000803351F480E18093080180EB80930901C4
:1040000081E780930A0107C043E068E071E0CE01D8
:1040100002960E94D70789E60E940F0786E60E9453
:104020000F078AE30E940F07809108010E94D307BF
:10403000809109010E94D30780910A010E94D30751
:1040400048CE883729F58091DE01882341F010920F
:10405000DE010E94981681E08093CE0110C080910D
:10406000DD01882321F01092DD0138D80EC082E0F6
:1040700090E00E945D038091EF02882319F00E9476
:10408000CA0303C086E30E9459031092DF0108C0EF
:10409000833631F46FE071E0CE0101960E9407088B
:1040A000DF91CF911F910F91FF90DF90CF90BF9044
:1040B000AF900895A2E0B0E0E0E6F0E20C94612C4D
:1040C0007C01FC018181833709F0A0C1198287E05E
:1040D00090E00E94962C8C0141E0BE016F5F7F4F03
:1040E000C70102960E94D7078981F801808341E0C9
:1040F000BE016F5F7F4FC70104960E94D707898179
:10410000807FD82EF801818341E0BE016F5F7F4F31
:10411000C70106960E94D7078981F801828341E092
:10412000BE016F5F7F4FC70108960E94D707898144
:10413000F801838341E0BE016F5F7F4FC7010A969C
:104140000E94D7078981F801868341E0BE016F5F35
:104150007F4FC7010C960E94D7078981F80185839C
:1041600041E0BE016F5F7F4FC7010E960E94D707E7
:104170008981F80184835801F7E0AF0EB11CF80182
:1041800080E09191292F22952F7092278927EA1597
:10419000FB05B9F78F70D82AF801D18287E090E04B
:1041A0000E94962C6C0187E0F801D60101900D92D7
:1041B0008A95E1F7D801119698012A5F3F4FF801DF
:1041C00081919C9189278D93E217F307C9F7459A4E
:1041D0008091E20181115EC08091CE01882329F097
:1041E00081E08093E1011092CE018091D00188237B
:1041F00029F081E08093E0011092D001EA98209AA2
:10420000289A8EE190E00E949D0628988EE190E029
:104210000E949D06289A8DE290E00E949D0680E310
:104220000E94590384E690E00E949D06289880E44D
:104230000E94CE0264ECE62E63E0F62E79E2972E21
:104240009E0CF70184910E94CE02FFEFEF1AFF0A45
:104250009E10F7CF289A28988EE70E94CE028BE214
:1042600090E07C012FEFE21AF20A0E9435080E94CA
:10427000CE02C70183339105A1F7289A83E30E94F8
:10428000590381E00E94A20681E08093E60283E068
:104290000E94A20686E30E9459038AE30E94590302
:1042A0008BE30E9459030E94B8035B9A87EC94E267
:1042B0000E949D065B9889E50E94A20685E392E034
:1042C0000E949D06F12C8091150190E02F2D0F2C5E
:1042D000000C330B281739070CF056C0FF2011F0E3
:1042E00027E001C022E0E12C5B9A86EF99E02A8367
:1042F0000E949D065B9886EF99E00E949D06E394DC
:104300002A81E212F1CF5B9A8CEF92E10E949D0626
:104310005B9880911101909112010E949D064801C5
:10432000F40161904F0148E0E42E50E8452E512CF5
:10433000712CC20186219721892B49F45B9A8091C7
:104340001101909112010E949D065B9808C05B9834
:1043500080911101909112010E949D065B9A8091BB
:104360001101909112010E949D0656944794EA947F
:10437000E110DFCF8A149B0499F65B9880E090E00F
:104380000E949D06F3949FCF8091E201882341F023
:104390008091EF0281110FC086E30E94590319C07A
:1043A0008091E101882351F01092E1010E9498165A
:1043B00081E08093CE010E94CA030BC08091E0018E
:1043C000882329F01092E0010E946E1802C00E941A
:1043D0008C0D459889E50E940F0783E70E940F071F
:1043E00076015601F7E0AF0EB11CF70181917F0114
:1043F0000E94D307EA14FB04C1F70E945C07C601C0
:104400000E942B2DC8010E942B2D6FC08237A9F46A
:1044100065E171E0C70102960E94070889E50E94E4
:104420000F0782E70E940F078AE30E940F0780911F
:10443000150140E260E090E02CC0843779F5F70187
:104440008281803339F488ED94E090931401809355
:10445000130106C063E171E0C70102960E940708DC
:104460008091130190911401969587959093120174
:104470008093110189E50E940F0784E70E940F07CE
:104480008AE30E940F0740E266E080911301909159
:1044900014010E9460070E945C0727C0883729F535
:1044A0008091E101882341F01092E1010E94981669
:1044B00081E08093CE0111C08091E001882329F032
:1044C0001092E0010E946E180EC082E090E00E94FF
:1044D0005D038091EF02882319F00E94CA0303C094
:1044E00086E30E9459031092E2012296E0E10C94C7
:1044F0007D2C1092AD0310929E0283E08093E80120
:104500008FEF8093C2030895E9EEF1E0208121113D
:1045100005C0892BB1F080E090E00895B2E0E73962
:10452000FB07B8F7009751F04181DC013C91431340
:1045300005C0428111963C91431751F0E20FF11DE5
:10454000E5CF32E0E739F30719F010F0E7E9F2E0E0
:10455000CF010895E82FF0E0EE0FFF1FEE0FFF1FD1
:10456000ED53FC4F80818F3F91F08093E301818177
:104570008093E40182818093E50183818093E60149
:1045800021E04CE064E083EE91E00C945E0A089533
:1045900088E992E0B9DF009799F02091E801FC01E9
:1045A0003081231768F4E20FF11D808180939A0215
:1045B00089E780939B02818180939C0281E008952A
:1045C00080E008950F931F93CF93DF932091EF0224
:1045D00026FF16C08C0184E50E940F07E8010B5FDF
:1045E0001F4F89910E94D307C017D107D1F780913F
:1045F000EF0285FF03C08AEF0E94D3070E945C0789
:10460000DF91CF911F910F91089586E30E94590386
:1046100080919A02833511F08BE401C08BE90E94EE
:10462000A20621E04CE065E088E992E00E945E0A83
:104630000E94CA0388E992E0C5CFE7DF80919A0221
:10464000893631F081E08093970289E28093C2033A
:104650000895CF9385E390E00E94350880939303FB
:1046600086E390E00E9435088093C103E1EBF3E01C
:10467000CFEFC083C283C483C683C087C287C48789
:10468000C68737DF1092E90181E080939203A3ECA3
:10469000B3E0CC93E5E9F3E08FEF9FEF9183808364
:1046A00013821282158214821496CC9314979783E6
:1046B000868311861086138612861896CC931897D7
:1046C0009587848717861686118A108A1C96CC9344
:1046D000938B828B158A148A178A168ACF91089534
:1046E000AF92BF92CF92DF92FF920F931F93CF931F
:1046F000DF93CDB7DEB72C970FB6F894DEBF0FBEB1
:10470000CDBF8C015C018FEFA81AB80A45E0BE014D
:104710006F5F7F4FC5010E94D707843008F0F0C05B
:1047200099819130A9F4833061F46A8185E390E046
:104730000E9430086B8186E390E00E94300889DF98
:10474000F4C1809193030E94D3078091C10397C065
:10475000923009F055C0813049F091E080E02A8123
:10476000213009F090E0C92ED82E03C0CC24C39488
:10477000D12C8091E901811104C08DEE93E00E945B
:104780004F0709EE11E0F8018081882309F4B5C0D4
:10479000F2E007391F0708F0B0C0E1E0093E1E074C
:1047A00019F080E20E940F07F80181810E94D3076F
:1047B000F80182810E94D307C114D104E1F08AE399
:1047C0000E940F0793E0F80180819817A0F49430BD
:1047D00038F090FF05C08CE29C870E940F079C85F3
:1047E000FF24F394F90EF801E90FF11D80810E9476
:1047F000D3079F2DE8CFF8018081080F111DC3CF8B
:10480000933049F480E090E07FDE895E91409EEA3B
:10481000981B892F34C0903139F501EB13E0D12C6E
:10482000F12CF80180818F3FA1F0FF2019F080E288
:104830000E940F078D2D0E94D3078AE30E940F0765
:10484000F80180810E94D307F80181810E94D3077B
:10485000F3940E5F1F4FD394F8E0DF12E2CFF11014
:104860004CC08BEF93E047C0913161F48091AF036E
:104870009091B0036DE770E00E94452C862F0E9456
:10488000D3073BC09231C9F573ECA72E73E0B72E66
:1048900006EC13E0D12CF12CF50180818F3FF1F073
:1048A000FF2019F080E20E940F078D2D0E94D30790
:1048B0008AE30E940F07F50180810E94D307F80167
:1048C000329780810E94D307F801319780810E943E
:1048D000D307F80180810E94D307F394F4E0AF0E70
:1048E000B11CD3940C5F1F4F84E0D812D5CFF110C8
:1048F00004C087EF93E00E944F070E945C0715C138
:1049000044E0BE01695F7F4FC5010E94D7079F81C8
:10491000993608F474C07A858885698520E030E08E
:1049200040E050E07C3009F051C0F901ED53FC4FFC
:10493000708179131BC0A181A81318C0A281A6138E
:1049400015C08CE08383CA0163E070E08DD7FC0161
:10495000EE0FFF1FEB56FC4F11821082880F991F3C
:10496000FC01E956FC4F11821082C1C07F3FD1F497
:104970009083818362838CE08383CA0163E070E06B
:1049800073D7FC01EE0FFF1FEB56FC4F1182108214
:10499000880F991FFC01E956FC4F1182108210927A
:1049A0009203A5C04F5F5F4F2C5F3F4F2031310511
:1049B00009F0BBCFBAC0A181A81779F04F5F5F4F54
:1049C0002C5F3F4F2031310509F4AFC0F901ED53A1
:1049D000FC4FA081A913F2CFEECFA281A613EECF98
:1049E0007383CA0163E070E03FD7880F991FFC0111
:1049F000E956FC4F81E090E09183808396C0E98185
:104A000080919303E81758F190E0F0E09C01295F52
:104A10003F4F2E173F071CF13A812091C1033213FB
:104A20001EC02C812F3231F442E06CE0C8010E949C
:104A3000CB0A7BC03D812C3249F43093AE0381E038
:104A400090E09093B0038093AF036FC0E81BF90B25
:104A5000EE0FF0E0EF54FC4F2083318366C080E01E
:104A600090E052DD6C01F50101900020E9F73197EB
:104A7000EA19FB09F695E795FF24F394FE0EC601AB
:104A80008F0D911D895E91408F3A91050CF049C0C0
:104A9000F601F1925F0121E0822F880F81502F15DE
:104AA000E0F441E0B501F801E80FF11DCF012C87DA
:104AB0000E94D7072C85233058F020FD09C0F5014E
:104AC00031978081843621F4F501808180939403AD
:104AD0002F5FFFEFAF1ABF0ADFCF87E9C81682E06A
:104AE000D80618F5F601E20FF11D10821EC022E073
:104AF0004CE064E0CE0107960E945E0A8FE08A8750
:104B000022E04CE064E0CE0107960E945E0A82E05B
:104B10008A8722E04CE064E0CE0107960E945E0A9C
:104B200004C081EF93E00E944F072C960FB6F894D3
:104B3000DEBF0FBECDBFDF91CF911F910F91FF90D0
:104B4000DF90CF90BF90AF9008950F931F93CF93B6
:104B5000DF9390919203911151C0282FE82FF0E03C
:104B6000CF0163E070E080D6EC01DC01AA0FBB1F2F
:104B7000AB56BC4FEE0FFF1FEE0FFF1FED53FC4F68
:104B80009281977040E850E0BA01691B7109CB012E
:104B90006AEF70E069D695958795959587958D9381
:104BA0009C938E01000F111F07561C4FF801808146
:104BB0009181019691838083CC0FDD1FC956DC4F14
:104BC000488159814115510529F40497B9F4822F80
:104BD000C1DC11C04130510539F4822FBBDC82E0C9
:104BE00090E0998388830AC04230510539F4822FBE
:104BF000B1DC19821882F80111821082DF91CF9105
:104C00001F910F910895A6E0B0E0E8E0F6E263C6D8
:104C10008091C1038A831B829091AE03992341F056
:104C2000933019F08DE790E00CC087E791E009C060
:104C3000877090E08A519F4F6DE770E015D695958B
:104C400087959093B0038093AF0381EBE82E83E0C8
:104C5000F82E10E00CE2F70190819F3FC1F08091A7
:104C60009303810F89838091AE03882311F00C8315
:104C700003C09C83F70181818D8321E04CE065E0D6
:104C8000CE0101960E945E0ACE0101969BDC1F5F59
:104C9000F2E0EF0EF11C1830F1F68091AE0388239C
:104CA00041F0833019F41092AE0303C08250809318
:104CB000AE032696E6E02BC680919702882351F03A
:104CC000A4DC89E28093C203809197028150809393
:104CD000970208950ECCFF920F931F93CF93DF930B
:104CE000FC01F0800181C281D38114818FE5809322
:104CF000C2031092970280919303811105C08091A5
:104D0000C103882309F4A9C0809198028F1104C0BF
:104D100080919902801729F0ECDBF09298020093C1
:104D200099028091AD038F3F09F497C0C0939A0216
:104D3000D0939B0210939C02CC23F1F081111CC0F4
:104D400080919303181761F0143651F08DEA8C0F9F
:104D5000823010F0CD3739F48FEF8093AD037DC0F2
:104D6000C43509F47AC08D2F807F803609F075C074
:104D7000D067D0939B0257C00BDC811105C0809196
:104D8000AD03882309F469C080919E02811107C098
:104D9000E091AD03F0E0E150FC4FE49101C0E82F59
:104DA000E33541F4C43531F49091AD039E5F9093A7
:104DB000AD0304C0EC1711F09CDB4FC0882369F0F1
:104DC0008091E8018E5F8093E801E2DB81110EC0E3
:104DD0008091AD038E5F8093AD038091AD03E82F8A
:104DE000F0E0E050FC4FC491CF3F59F480919A021B
:104DF00080939E028436B9F48091940380939C0240
:104E000012C0C0939A0297E790939B0290919303EC
:104E100090939C028E5F8093AD0310929E028E3021
:104E200021F0CC23D1F009DC18C088E992E06CDBDA
:104E3000FC01892B81F0808190E027E932E0281B7A
:104E4000390BE217F30730F4DF01A80FB91F4C91BB
:104E50004193F7CF10824DDBE4CFCDB7DEB7E5E06D
:104E600057C5FF920F931F93CF93DF93EC01FC0183
:104E700001900020E9F731978F01081B190B8981F8
:104E8000823751F487E390E00E945D030E94CA03D9
:104E900081E08093D30325C0833709F5F02E28984D
:104EA0008FE70E94CE028EEF800F0E94CE022296E4
:104EB00012E01F1528F489910E94CE021F5FF9CFDE
:104EC000289A0E94B8038AE30E9440038F7721F05A
:104ED00081E00E94A206F7CF0E94CA0302C010928E
:104EE000D303CDB7DEB7E5E013C5A0E4B0E0EAE751
:104EF000F7E2EFC48091D303882309F455C08130D1
:104F000011F58091E8029091E902A091EA02B09136
:104F1000EB0220919F02281709F446C085E30E9406
:104F20004003813129F48AE30E9459030E94CA0395
:104F30008091E8029091E902A091EA02B091EB021F
:104F400080939F0231C08FE30E944003F82E8FE3CD
:104F50008F1538F128988FEF0E94CE028E010F5FD7
:104F60001F4F6801E02E8C2D801B8F1538F480E0D8
:104F70000E94CE02F60181936F01F5CF289A81E05D
:104F800080932401802F8E198F1530F4F8018191C0
:104F90008F010E940F07F6CF0E945C078FEF80936E
:104FA000240181E08093D303C05CDF4FE8E0ADC40F
:104FB0000F931F93CF93DF938C01D0E08D2F90E060
:104FC00063E070E051D4FC01E857FF4FC4919C01AD
:104FD00027573F4FF90145915491CC23A9F0011572
:104FE000110539F480E20E940F078C2F0E940F07F1
:104FF00009C0F80180818C1305C0C801FA01099528
:1050000081E003C0DF5FDACF80E0DF91CF911F91B5
:105010000F910895CF93C091240180932401809132
:1050200019048823A1F187E194E00E947309E091BB
:10503000A0028A3011F08D30F9F4EE2381F3F0E014
:10504000EF55FD4F108281EA92E0B2DF811111C06D
:1050500085E294E00E944F0781EA92E00E944407B3
:105060008DE094E00E944F0780E090E0A1DF0E9475
:105070005C071092A002D3CFE03488F691E09E0F37
:105080009093A002F0E0EF55FD4F8083C8CFC0930E
:105090002401CF910895E4E6F0E080818B7F808346
:1050A000299A84B1876084B9239880E58CBD8DB539
:1050B00081608DBD089520916704309168042115A9
:1050C000310521F4209118013091190180911601C8
:1050D00090911701009741F48DB79EB740911A0146
:1050E00050911B01841B950B2817390718F4821B5C
:1050F000930B089580E090E0089582E40E940F07EA
:1051000040E265E080916704909168040E94600726
:105110000E945C0783E50E940F0740E265E08091F2
:105120001801909119010E9460070E945C0785E4B4
:105130000E940F0740E265E08091160190911701EF
:105140000E9460070E945C0786E40E940F07B3DF9D
:1051500040E265E00E9460070C945C07A2E0B0E0CA
:10516000E3EBF8E2BCC3EFE5F4E088E08E0F90914A
:10517000F10091938E13FBCF80915F0490916004B6
:10518000492F50E04A30510508F01CC1FA01E65C95
:10519000FF4F8FC3803879F0823809F013C18091B6
:1051A00063048093E9008091EB0085FB882780F9F8
:1051B0001092E90006C080915A0490915B0491110D
:1051C00082609091E800977F9093E8008093F100CF
:1051D0001092F1008091E800982F9E7F9093E80054
:1051E0008F778093E8008091E80082FDB1C08091C4
:1051F0005E048111F8CFD7C0282F2D7F09F0E2C0BF
:10520000882319F0823061F036C0809161048130CA
:1052100009F0C9C0933009F080E080935B042BC093
:1052200080916104811127C080916304877009F423
:10523000BAC08093E9002091EB0020FF1CC09130A0
:10524000A9F49091EB0090619093EB0021E030E0A5
:10525000A90102C0440F551F8A95E2F74093EA0066
:105260001092EA008091EB00886003C08091EB000F
:1052700080628093EB001092E9008091E800877FC4
:105280008093E8008091E800982F9E7F65C081118F
:1052900099C0809161049091E800977F9093E80015
:1052A0009091E800292F2E7F2093E8009F7790931C
:1052B000E8009091E80090FD05C090915E04911186
:1052C000F8CF71C08F77982F90689093E300882370
:1052D00009F469C083E080935E0465C08058823021
:1052E00008F070C0AE014F5F5F4F60916304809122
:1052F0006104909162040E949402BC01892B09F41C
:1053000052C09091E800977F9093E80089819A813C
:1053100025D11EC0803809F055C08091E800877FF4
:105320008093E80080915C048093F1008091E80014
:10533000982F9E7F9093E8008F778093E80080916C
:10534000E80082FD05C080915E048111F8CF2BC07A
:105350008091E800982F9B7F9093E8008F7780934F
:10536000E80021C081112EC0909161049230D8F4E0
:105370008091E800877F8093E80090935C0480919F
:10538000E800982F9E7F9093E8008F778093E80045
:1053900080915C04882311F084E001C083E0809355
:1053A0005E040E94F9048091E80083FF0EC08091A2
:1053B000EB0080628093EB008091E800877F809310
:1053C000E80003C00E941105EECF2296E2E0A3C2DE
:1053D0008093E900EBEEF0E0808181608083EDEE68
:1053E000F0E010826093EC0040838091EE00881F13
:1053F0008827881F08951092F40080E08093E900C8
:105400001092F0001092E8009091ED009D7F909333
:10541000ED009091EB009E7F9093EB008F5F8530C5
:1054200069F7089580915F0487FF12C08091E800BA
:1054300082FD05C080915E048111F8CF16C0809175
:10544000E800982F9B7F0CC080915E04882369F050
:105450008091E80080FFF8CF8091E800982F9E7F30
:105460009093E8008F778093E800089595E6209167
:10547000EC00822F817020FF05C08091E80080FF42
:1054800005C019C02091E80022FD1AC080915E0479
:10549000882399F08091EB0085FD11C08091E10097
:1054A00082FFE5CF8091E1008B7F8093E1009150F6
:1054B000F1F683E0089580E0089582E0089581E0A8
:1054C000089540916504509166049B014617570763
:1054D00008F49A0150E02115310579F14091E80076
:1054E00043FD38C04091E80042FD2EC040915E046B
:1054F000442391F14091E80040FFEDCFFC01CF0142
:105500002115310551F04091F200483030F481917D
:105510008093F10021503109F2CF4091F20051E027
:10552000483009F050E04091E800642F6E7F6093AE
:10553000E8004F774093E800CECF5111CFCF04C0A1
:1055400080915E04882341F08091E80082FFF8CFCB
:1055500080E0089581E0089582E008954091650417
:10556000509166049B014617570708F49A0150E0D2
:105570002115310581F14091E80043FD39C040918A
:10558000E80042FD2FC040915E04442399F1409110
:10559000E80040FFEDCFFC01CF012115310559F0A6
:1055A0004091F200483038F484918093F10021500A
:1055B00031093196F1CF4091F20051E0483009F0C5
:1055C00050E04091E800642F6E7F6093E8004F77D1
:1055D0004093E800CDCF5111CECF04C080915E043E
:1055E000882341F08091E80082FFF8CF80E00895A1
:1055F00081E0089582E008959C016115710541F1F3
:105600008091E80083FD2AC080915E04882341F1E7
:105610008091E80082FFF1CF8091F200882351F061
:105620002F5F3F4F8091F100F901319780836150E6
:10563000710991F79091E800892F8B7F8093E800A2
:105640009F779093E800D9CF80915E04882341F042
:105650008091E80080FFF8CF80E0089581E0089510
:1056600082E0089553D055D010925E0410925C04ED
:1056700010925B0410925A0419BC89B5826089BDEE
:1056800009B400FEFDCF8091D800982F9F779093AA
:10569000D80080688093D800809163008E7F8093CB
:1056A00063008091D8008F7D8093D8008091E000C6
:1056B0008E7F8093E0008091E1008E7F8093E100F7
:1056C0008091E20081608093E2008091E100877F19
:1056D0008093E1008091E20088608093E200089569
:1056E000C1DF81E080935D0478940895BBDFE0EE34
:1056F000F0E0808181608083E8EDF0E080818F7749
:10570000808319BC10925D04089508951092E20000
:1057100008951092E10008951F920F920FB60F9214
:1057200011242F933F934F935F936F937F938F93A6
:105730009F93AF93BF93EF93FF938091E10080FF1E
:105740001CC08091E20080FF18C08091E1008E7F34
:105750008093E1008091E2008E7F8093E20080914F
:10576000E20080618093E2008091D80080628093A3
:10577000D80019BC10925E04C8DF8091E10084FF5C
:1057800029C08091E20084FF25C019BC89B58260E0
:1057900089BD09B400FEFDCF8091D8008F7D809334
:1057A000D8008091E1008F7E8093E1008091E2003B
:1057B0008F7E8093E2008091E20081608093E2001E
:1057C00080915C04811102C081E001C084E080937B
:1057D0005E049BDF8091E10083FF23C08091E200A3
:1057E00083FF1FC08091E100877F8093E10082E00A
:1057F00080935E0410925C048091E1008E7F809320
:10580000E1008091E2008E7F8093E2008091E200CF
:1058100080618093E200EFDD42E060E080E0D8DD6F
:1058200074DFFF91EF91BF91AF919F918F917F9125
:105830006F915F914F913F912F910F900FBE0F90FD
:105840001F901895CF9380915E04882359F0C091E2
:10585000E900C7701092E9008091E80083FD7EDCCA
:10586000C093E900CF9108950024552704C0080E85
:10587000591F880F991F009729F076956795B8F3FF
:105880007105B9F7802D952F0895AA1BBB1B51E117
:1058900007C0AA1FBB1FA617B70710F0A61BB70BA0
:1058A000881F991F5A95A9F780959095BC01CD0145
:1058B0000895EE0FFF1F0590F491E02D09942F92AB
:1058C0003F924F925F926F927F928F929F92AF9290
:1058D000BF92CF92DF92EF92FF920F931F93CF93DD
:1058E000DF93CDB7DEB7CA1BDB0B0FB6F894DEBF74
:1058F0000FBECDBF09942A88398848885F846E849A
:105900007D848C849B84AA84B984C884DF80EE80E3
:10591000FD800C811B81AA81B981CE0FD11D0FB6EC
:10592000F894DEBF0FBECDBFED010895CF93DF9396
:105930008230910510F482E090E0E0916904F091EA
:105940006A0420E030E0C0E0D0E0309711F14081FF
:10595000518148175907C0F04817590761F48281EF
:105960009381209719F09B838A832BC090936A04BC
:105970008093690426C02115310519F04217530799
:1059800018F49A01BE01DF01EF010280F381E02DDE
:10599000DCCF2115310509F1281B390B24303105E5
:1059A00090F412968D919C9113976115710521F0D9
:1059B000FB019383828304C090936A0480936904FB
:1059C000FD01329644C0FD01E20FF31F81939193D4
:1059D000225031092D933C933AC0209167043091B5
:1059E0006804232B41F42091180130911901309360
:1059F0006804209367042091160130911701211546
:105A0000310541F42DB73EB740911A0150911B0169
:105A1000241B350BE0916704F0916804E217F3074B
:105A2000A0F42E1B3F0B2817390778F0AC014E5F0E
:105A30005F4F2417350748F04E0F5F1F50936804DF
:105A4000409367048193919302C0E0E0F0E0CF01BE
:105A5000DF91CF9108950F931F93CF93DF9300971A
:105A600009F48CC0FC013297138212820091690400
:105A700010916A040115110581F420813181820F92
:105A8000931F20916704309168042817390779F52E
:105A9000F0936804E093670471C0D80140E050E0DF
:105AA000AE17BF0750F412962D913C911397AD019C
:105AB0002115310509F1D901F3CF9D01DA013383B5
:105AC000228360817181860F971F8217930769F483
:105AD000EC0128813981260F371F2E5F3F4F31831C
