:1000000030C200004AC2000048C200000C94C7126F
:1000100044C2000042C2000040C200003EC20000D4
:100020003CC200003AC200000C94C82B36C200004B
:1000300034C2000032C2000030C200002EC20000F4
:100040002CC200000C94641228C2000026C20000DA
:1000500024C2000045C5000020C200001EC20000EE
:100060001CC200001AC2000018C2000016C2000024
:1000700014C2000012C2000010C200000EC2000034
:100080000CC200000AC2000008C2000006C2000044
:1000900004C2000002C2000000C20000FEC1000055
:1000A000FCC10000FAC10000F8C10000DD280F29E2
:1000B000F5290F29F5295A298129F5299D29C529CD
:1000C00042030943F30346030B69411E415B185A7F
:1000D0009C1A47060B4D3E0B4BC20B55410C596DFC
:1000E00020527308548223566C0957B30858B30D35
:1000F000652C096644276D90284C56066CF20874EE
:10010000D005754B1578BA037A8E1D0000002A03BE
:10011000430055004C0034003300330000002A0334
:10012000430055004C00380036003800000016032C
:1001300062007500730077006100720065002E0098
:100140006400650000000403090409024300020181
:1001500000803209040000010202010005240001B0
:1001600010052401030104240206052406000107EA
:100170000582030800FF09040100020A00000007CD
:100180000504024000000705830240000012011030
:100190000102000008EB034B2000000102000120D7
:1001A0002F2000203D2000072E050DD391FF0805CC
:1001B00000000C0021656A2D3B1322F862073F18EE
:1001C0001D1CC700B0876BF8B611EA2A001F41005A
:1001D0000D2E2D07D3913D04320000060021656AE3
:1001E00055E43023B900070018146C070090876BA2
:1001F000F85611E92A001F410000030F1E262700B0
:100200000000030F1E2536386700030F2567406086
:100210005000030F275188838100030F2750C8C364
:10022000C20027000000000000006700000000007E
:1002300000005000000000000000810000000000ED
:100240000000C2000000000000504C4C310D0A00BC
:10025000504C4C300D0A005620312E36365F6E6FF2
:10026000637265646974732043554C3836380056A0
:1002700020312E36365F6E6F637265646974732049
:1002800043554C3433330043554C5F563300202FD5
:100290002000203D2000424F56460D0A0045525294
:1002A0003A4343410D0A000B08105B11F81547193A
:1002B0001D1A1C1BC71C001DB221B623EA00070231
:1002C0002E030D04E905CA070C0B060D210E650F60
:1002D0006A10C81193120315341733181819161B16
:1002E0004321562500261129592C812D353EC34C1A
:1002F000454E4552520D0A004C454E4552520D0A8C
:10030000000007024604C605260B0610C81193120A
:100310000313221534173F182819161B432156259D
:100320000026110D210E650F6A070C160720F81E16
:10033000871F6B29592C812D353EC3FF0000010218
:100340002E030104AA050F06FF070008000B060D87
:10035000210E740FAD104B11F812161372154118BF
:100360001819161B0323E9242A2500261F3E5000D6
:1003700001022E030104AA050F06FF070008000B67
:10038000060D210E660F6610CA1193120613521540
:1003900035181819161B0323E9242A2500261F3EA9
:1003A000500001022E0301045505F006FF07000866
:1003B000000B060D210E660F9910591183121E13A2
:1003C000521535181819161B0323E9242A2500266F
:1003D0001F3E500D2E2D07D3913D04320000060024
:1003E00010B07155E43023B900070018146C0700F1
:1003F00090876BF85611E92A001F41000D2E2D073A
:10040000D3913D04320000060010ABA5550A3023FD
:10041000B900070018146C070090876BF85611E9B3
:100420002A001F41004E2F4100454F420D0A004E49
:100430002F41004E2F410000535300547D7DFFFF9C
:100440004B4B7E7E0020697320756E6B6E6F776EEE
:100450002920557365206F6E65206F66003F202848
:10046000000011241FBECFEFDAE0DEBFCDBF11E0E8
:10047000A0E0B1E0E6E5FCE502C005900D92A032F7
:10048000B107D9F725E0A0E2B1E001C01D92AB367B
:10049000B207E1F70CD00C94292EB2CDF89481E08C
:1004A00085BF82E085BFE0E0F8E3099508959FE00D
:1004B00088E10FB6F894A895809360000FBE9093E2
:1004C000600090E080E80FB6F8948093610090930C
:1004D00061000FBE2E9A2D9A04B603FE0AC083E374
:1004E00090E0E7D5882329F060E083E390E0DCD555
:1004F000D5DF89EF87BD84E085BD82E084BD809330
:100500006E00109280008AE08093810084B7877F1C
:1005100084BF6E9A0E945E28CCD60E949D2B0E94BA
:100520003B230E94980D8DE198E2909325038093E0
:1005300024030E94711489E08093240176980E941C
:10054000782C09D20E94B50F41D30E9488270E94BF
:10055000ED150E94EB160E94241A0E945D1CEFCF3D
:10056000292F33272230310559F02330310569F026
:100570002130310539F582E190E02DE831E026C0E7
:1005800083E490E02AE431E021C09927813091058D
:1005900039F018F0029751F015C0E6E4F1E002C01E
:1005A000EEE2F1E0849190E09F0110C01E9B03C039
:1005B0002EE131E002C02EE031E0EEE1F1E0849185
:1005C00090E004C080E090E020E030E0FA01318368
:1005D000208308958EBD0DB407FEFDCF8EB508951E
:1005E000EF92FF920F931F93CF93C82F8A3008F09A
:1005F000C8E028E0C29F800111248BE290E00B52FA
:100600001109FC01E00FF11FE750FE4F64917C01DE
:100610002FEFE21AF20A48D5C7018333910589F713
:10062000C550C53010F067E101C061E184E290E09F
:100630003BD5CF911F910F91FF90EF900895CF93ED
:10064000DF9382E090E0FC01E253FE4F6491EC0105
:1006500021962AD5CE01AB97B1F787E390E0FC0154
:10066000E059FE4F6491EC0121961ED5CE01C036B3
:10067000D105A9F71E9918C060E18FE090E014D56C
:1006800060EB80E190E010D561E781E190E00CD56E
:1006900060E184E490E008D560EB85E490E004D567
:1006A00061E786E490E000D588E09ADFDF91CF91A2
:1006B00008952898806C8EDF80E08CDF289A08955A
:1006C000A1E0B0E0E6E6F3E00C94B42C2898806456
:1006D000698380DF6981862F7DDF289A2196E2E099
:1006E0000C94D02C289876DF289A0895EF92FF92E8
:1006F0000F931F93CF93DF93EC011092D001EA98F0
:10070000209A289A8EE190E039D328988EE190E0E3
:1007100035D3289A8DE290E031D380E3E3DF84E69D
:1007200090E02CD3289880E455DF8E01075D1F4FA1
:100730007E018FEFE81AF80ACE01BBD44BDFE70148
:10074000E016F106A9F7289A28988EE743DF8BE296
:1007500090E0EC012196ADD43DDFCE01E397C9F7DF
:10076000289A83E3BFDF81E00ED3CDB7DEB7E6E0A2
:100770000C94CC2CA1E0B0E0E0ECF3E00C94B42CB1
:1007800022E0298341E0BE016F5F7F4F01962FD4A5
:10079000898126DF82E090E0A9DF2196E2E00C94D7
:1007A000D02CCF93EA9886E39DDFCFEF85E39ADFE5
:1007B000C1508077803229F08AE090E0DFD2C11109
:1007C000F5CFCF910895CF93CFEF84E38BDFC15066
:1007D0008077803129F08AE090E0D0D2C111F5CF46
:1007E000EA9ACF910895A2E0B0E0E9EFF3E00C942B
:1007F000B22C8C01FC0181818737E9F441E0BE0114
:100800006F5F7F4FC8010296F2D3892BA1F041E0C0
:10081000BE016E5F7F4FC8010496E9D3892B59F062
:100820006A8189814DDF83E35DDFCDDF8981DBD3A1
:100830008A81D9D32CC041E0BE016E5F7F4FC801D1
:100840000196D5D3892B21F18A81893969F410E089
:10085000812F2FDFC8D3812F8770873009F44CD3C5
:100860001F5F1033A9F714C024DF182F83E4F8D2D8
:100870008A81B9D383EA91E032D3812FB4D38FE94F
:1008800091E02DD340E262E0812F90E039D334D360
:100890002296E4E00C94CE2C86E324DF109226030B
:1008A0001092CE011092D001089582E090E01EDFF8
:1008B00081E0809326031092CE011092D00108951A
:1008C0000F931F93CF93DF93D82FC0E0062F10E034
:1008D00085E3EFDE8D1731F0C80150D2C150C1F76A
:1008E00081E001C080E0DF91CF911F910F910895C9
:1008F00085E2DFDE8F3311F080E0089586E3F2DEDB
:1009000080912001811104C080E592E0E8D202C00C
:100910008DE3E8DE83E3E6DE64E081E0D1DF85E2BB
:10092000C8DE8F3349F780912001811103C089E42B
:1009300092E0D5D281E0089585E3BBDE8D3051F49D
:1009400085E2B7DE8F3331F4D3DF84E3CBDE80770B
:100950008031D9F7089580915E05843009F069C02F
:100960008093E9008091210181112AC08091E800E3
:1009700085FF26C08091F2009091F300892B31F021
:100980006091F10087ED94E0BCD4F4CF8091E80051
:10099000982F9B7F9093E8008F778093E80081E009
:1009A000809321018BEA94E09093230380932203A8
:1009B000E0912403F091250381E009951092210133
:1009C00083E08093E90080915604882391F180911F
:1009D000E80085FF2EC0F89480915604882369F0C2
:1009E0008091F2009091F3008034910530F484E519
:1009F00094E09DD48093F100EFCF78942091F200A1
:100A00003091F3008091E800982F9E7F9093E8004A
:100A10008F778093E8002034310559F40E94492AE9
:100A20008091E800982F9E7F9093E8008F778093C5
:100A3000E800089542E061EC82E00E94FB2942E375
:100A400061E883E00E94FB2942E360E884E00E94C1
:100A5000FB291092000110920101109202011092E4
:100A60000301089580915F0590916005913229F00E
:100A7000923261F1903299F512C0813A81F58091FC
:100A8000E800877F8093E80067E070E080E091E015
:100A90000E94742A8091E800982F9B7F11C08132B8
:100AA000F1F48091E800877F8093E80067E070E0D0
:100AB00080E091E00E941B2B8091E800982F9E7FA0
:100AC0009093E8008F778093E8000895813239F49D
:100AD0008091E800877F8093E8000C94252A089590
:100AE0001F920F920FB60F9211248F939F93AF9383
:100AF000BF93EF93FF938091280390912903A091D6
:100B00002A03B0912B030196A11DB11D80932803E8
:100B100090932903A0932A03B0932B03809127037A
:100B20008F5F80932703E5E1F4E0808191811816BF
:100B300019061CF4019791838083369684E0ED3288
:100B4000F80799F780912F0490913004009729F0CD
:100B500001979093300480932F04809142048F3F3B
:100B600019F0815080934204FF91EF91BF91AF91B2
:100B70009F918F910F900FBE0F901F901895FC01C1
:100B80009FB7F894409128035091290360912A035C
:100B900070912B0340835183628373839FBF0895B9
:100BA000A4E0B0E0E6EDF5E00C94B42CCE010196A3
:100BB000E6DF8C8118D28B8116D28A8114D289818A
:100BC00012D29AD12496E2E00C94D02C0F931F936A
:100BD000CF938091280390912903A0912A03B0918B
:100BE0002B0320912301281709F45CC0809128036E
:100BF00090912903A0912A03B0912B0380932301A4
:100C0000A89505E114E0C0E0F80180819181892B6D
:100C100019F48C2F0E94B725CF5F0A5F1F4FC43095
:100C200099F780912F0490913004892B11F40E9440
:100C3000122680914204811102C00E946F26809189
:100C4000BB03882339F081508093BB03811102C01C
:100C50000E948216809127038D3720F1109227037E
:100C60008091070181FF04C09EB180E489278EB97D
:100C700084E893E090932D0380932C0380912201CC
:100C80008F5F8C3319F0809322010CC010922201E7
:100C9000809114048F5F8C3318F48093140402C085
:100CA00010921404CF911F910F910895AF92BF92AB
:100CB000DF92EF92FF920F931F93CF93DF938C01FC
:100CC0006EE070E00E94082E8D3009F04DC0769ADB
:100CD0008091D001882341F01092D0018CE191E005
:100CE00042D7DD24D39401C0D12C809126038111F9
:100CF00001C0DBDD56DDC4E058018FEFA81AB80A49
:100D0000035F1F4F5B9A88EE93E038D07501F701BF
:100D100081917F01D1E0813309F0D0E05B98D1115E
:100D200003C080ED97E002C088EE93E027D05B9A85
:100D3000D11103C088EE93E002C080ED97E01ED091
:100D4000E016F10621F75B9883E21DD0C150D1F681
:100D500080912F03882311F036DD02C086E3C2DCC8
:100D6000D1100E9474187698DF91CF911F910F9146
:100D7000FF90EF90DF90BF90AF900895880F991F7C
:100D80000197F1F7089520ED37E0815020F0F90147
:100D90003197F1F7FACF0895CF93DF93EC018B8170
:100DA000843509F05AC0FE0133962881DE01509641
:100DB0004DE0421748F050E030E0C9010F97481766
:100DC000590709F04AC005C08D918B33A1F34F5FDD
:100DD000F0CFD9011E97AE0FBF1F8C918435E9F576
:100DE0009C8111968C911197981337C09D81129612
:100DF0008C911297981331C09E8113968C91139702
:100E000098132BC09F8114968C911497981325C02A
:100E100021513109E20FF31F15968C9115978083AC
:100E200016968C911697818319968C9119978283C7
:100E30001A968C911A9783831B968C911B978483A7
:100E40001C968C911C9785831D968C918683988126
:100E50009A5098839A819A509A83DF91CF910895FE
:100E6000CF93C82F80915E05843079F4809124015E
:100E700080FF0BC08091560487FD6DDD6C2F84E5EB
:100E800094E03FD2CA3009F466DD8091C60388231E
:100E9000C9F08091240183FF15C0CA3099F0CD308C
:100EA00011F06C2F01C06BE386E393E02AD2CD30C2
:100EB00019F486E393E070DF83E08093BB0382E064
:100EC0008093C103CF910895CF93DF93EC01899173
:100ED000882311F0C5DFFBCFDF91CF910895CF9329
:100EE000DF93EC01FE018491882319F0B9DF21968C
:100EF000F9CFDF91CF9108958DE0B2DF8AE0B0CFD6
:100F0000A6E0B0E0E6E8F7E00C94B22C362F1E82A3
:100F100025E0EAE0F0E0215001E010E00C0F1D1F99
:100F2000020F111DBF010E948A2C805DD8018C9395
:100F3000CB013150009769F02111EDCF0AC0222377
:100F400059F02150E1E0F0E0EC0FFD1FE20FF11D40
:100F50004083315037FFF3CF81E090E08C0F9D1F2D
:100F6000820F911DB1DF2696E4E00C94CE2CA5E013
:100F7000B0E0EDEBF7E00C94B22CFC011D8294E0A4
:100F80002E2F2F709150A92FB0E02A3010F4205D41
:100F900001C0295C01E010E00C0F1D1FA00FB11F64
:100FA0002C9384E0F695E7958A95E1F761503097A8
:100FB00039F7615067FD0BC0992349F09150E1E08A
:100FC000F0E0EC0FFD1FE90FF11D4083F2CF21E0AF
:100FD00030E02C0F3D1F290F311DC90175DF25960B
:100FE000E4E00C94CE2C40E362E090E0C0CFDC0162
:100FF000FB0130E020E09D919923B1F0913608F09B
:10100000905280ED890F8A3010F4982F05C08FEB35
:10101000890F863028F49753922B332389F006C02A
:10102000903249F39A3339F3CF0107C09F012F5F04
:101030003F4F9083415049F4C901861B970B089597
:10104000292F2295207F31E0D6CFF901D2CFFC01A4
:1010500020E030E08AE09191992379F040ED490F4A
:101060004A30C8F7829FA001839F500D11249A0136
:1010700020533109290F311DEECFFB01318320832D
:101080000895982F92959F709A3010F4905D01C04A
:10109000995CFB0190838F708A3010F4805D01C0F1
:1010A000895CFB01818308950E941B2EF999FECF74
:1010B00008950C94132E08950F931F93CF93CFEFA1
:1010C000C60FCF3F61F08C010F5F1F4FF2DF8BDF48
:1010D000CC2311F08AE3C4DEC150C801F2CFCF9116
:1010E0001F910F910895A2E0B0E0E9E7F8E00C94B9
:1010F000B12CFC0121812D3421F466E08AEF93E0CC
:1011000005C0203529F460E18AED93E0D5DF26C0E3
:101110001A82198242E0BE016F5F7F4F019667DF3E
:10112000098110E0823021F4102F00278A81082BDA
:10113000C801BFDFF82E82E593DE40E364E0C8011A
:1011400016DF82E992E0CBDE8F2D4DDF8EE892E054
:10115000C6DE40E262E08F2D90E0D2DECDDE229648
:10116000E5E00C94CD2CA6E0B0E0E9EBF8E00C94BF
:10117000AE2C8C0143E0BE016F5F7F4F019637DFDD
:101180007C01823058F1C980D12C823021F0DC2CD6
:10119000CC248A81C82AFF24FE01EE0DFF1D608148
:1011A000C60182DFEE0CFF1C8FEFE81AF80A0E0D65
:1011B0001F1DF8018081882389F041E0BE016F5F27
:1011C0007F4FC80114DF892B49F0EFEFCE1ADE0AFA
:1011D0006981C60169DF0E5F1F4FEBCF2696E8E0FD
:1011E0000C94CA2C41E067E071E0019600DF809129
:1011F000070180FF02C0769A01C0769860910701CE
:1012000084E390E051CFA1E0B0E0E9E0F9E00C9494
:10121000B42C1982009731F041E0BE016F5F7F4F1F
:101220000196E5DE89818F3F09F4FFCF882321F005
:1012300061E083E390E038DF0E94A82B10926E00FB
:10124000F89498E088E10FB6F894A8958093600030
:101250000FBE90936000FFCFCF93DF93EC0161E06E
:1012600080E090E021DF62E481E090E01DDFE7D9DB
:1012700060E080E690E018DF60E081E690E014DF57
:1012800060E083E390E010DF62E084E390E00CDF55
:1012900060E080E690E008DF60E081E690E004DF57
:1012A0008981883719F080E090E0ADDFDF91CF9140
:1012B000089580E090E0FDDE813029F481E090E047
:1012C000F8DE823419F080E090E0C6DF84E390E03D
:1012D000F0DE809307010895FC018181883419F4C0
:1012E00087E892E007C01E9903C08FE692E002C033
:1012F00087E592E0F4DD00CEFC01128210821182BB
:101300000895FC019FB7F894828187FD0EC08F5F1E
:101310008283208181E0820F8083DF01A20FB11DD3
:1013200013966C93803809F410829FBF0895FC01D6
:101330002FB7F8948281811102C02FBF08959FEFCB
:10134000980F9283918181E0890F8183DF01A90F3A
:10135000B11D13969C91803809F411822FBF892FFB
:101360000895FA019081882369F0DB01A90FB11D6E
:10137000E1E0F0E0022E01C0EE0F0A94EAF78C9152
:10138000E82BEC93222319F08FEF820F0BC081E042
:10139000890F8C3010F4FA018083FB01E80FF11DF6
:1013A000108287E090E00895CF93C82F5B9A88233E
:1013B00019F09091270102C09091290120E1929F9C
:1013C000C0011124DBDC5B98CC2319F0809126014D
:1013D00002C08091280120E1829FC0011124CEDC4F
:1013E000CF910895A4E0B0E0E8EFF9E00C94A42CCC
:1013F0002C01162FC42EA22E769A8091D00188231C
:1014000041F01092D0018CE191E0ADD3FF24F39430
:1014100001C0F12C80912603811101C046DAC1D9A7
:10142000612E712CD12C88248394912CB12C312CD9
:10143000832D032C000C990B8615970524F480E06E
:10144000B3DF3394F5CF112311F081E0ADDF90E0ED
:10145000292F092E000C330B2C153D05F4F447E021
:10146000242E312CA901440D551D5B834A83940120
:10147000022C01C0220F0A94EAF7EA81FB818081E5
:101480008223998391DFF1E02F1A310899814FEF80
:101490002416340661F79F5FDBCF87E0382E240DDA
:1014A000351D832D032C000C990BA816B90684F466
:1014B000C401032C01C0880F0A94EAF7F901908156
:1014C000892329833C8370DF3A943C812981E9CFC9
:1014D0008E2D59DC015009F0AACF80912F0388236B
:1014E00011F071D902C086E3FDD8F1100E94741882
:1014F00076982496E2E10C94C02CADE0B0E0E3E8ED
:10150000FAE00C94A92C7C01162F842F022F67017E
:10151000C60ED11C462FB7013BD3F601808377243A
:101520007394710E1D86198227E010E0CC24C394B9
:10153000D12C97E0A92EB12C4701810E911C1715D3
:1015400060F5C6010A2C01C0880F0A94EAF7F4017D
:101550009081AE01435F5F4FBE016F5F7F4F892374
:1015600000DF282FF1E0AF1AB10848F7F4019081AD
:10157000092E92959025092E9695969590259F5F18
:1015800091FB882780F9AE01435F5F4FBE016F5F1B
:101590007F4FE7DE282F1F5FCCCF222311F0215091
:1015A00004C08D858F5F8D8727E089E180932801B6
:1015B0008093290185E280932601809327018AE0A8
:1015C000E82E4D856CE0CE0101960CDF2D96EDE006
:1015D0000C94C52CADE0B0E0E0EFFAE00C94B32C35
:1015E000162F242F4BE0BE016F5F7F4F01962D8792
:1015F000FEDC2D85412F682FCE0101967EDF2D96D2
:10160000E3E00C94CF2C43E066E0E4CFEF920F933D
:10161000CF93DF93CDB7DEB760970FB6F894DEBFF8
:101620000FBECDBF40E1BE016F5F7F4F0196DFDC93
:1016300069814A810B818C81809329018D818093FE
:1016400028018E81809327018F8180932601E02ECF
:10165000E2948FE0E8220F70242F2F7042954F7094
:10166000CE010896BFDE60960FB6F894DEBF0FBEBF
:10167000CDBFDF91CF910F91EF9008958F929F9200
:10168000BF92CF92DF92EF92FF920F931F93CF936F
:10169000DF93CDB7DEB769970FB6F894DEBF0FBE04
:1016A000CDBF4BE08E010F5F1F4FB80101969FDC4D
:1016B000F82E89E0F81254C099E190932801909394
:1016C00029019093270182E38093260169E0C801F4
:1016D00069D2F801EF0DF11D8083198E1D86780106
:1016E00027E088248394912CC12CD12CBE2CB01AD5
:1016F000F9E0FB1528F1C4010C2C01C0880F0A94F5
:10170000EAF7F7019081AE01475E5F4FBE01635F6C
:101710007F4F892326DE282FFFEFCF1ADF0A88E0CC
:10172000C816D10429F7AE01475E5F4FBE01635F63
:101730007F4F81E016DE282FEFEFEE1AFE0AD4CF9E
:10174000222311F0215004C0898D8F5F898F27E0FB
:101750008AE0E82E03E0498D6CE0CE010D9642DE72
:1017600069960FB6F894DEBF0FBECDBFDF91CF9163
:101770001F910F91FF90EF90DF90CF90BF909F90BF
:101780008F900895A9E1B0E0E8ECFBE00C94AA2C5E
:101790004BE09E012F5F3F4F6901B901019627DCA5
:1017A000182F85E38093290196E190932801909367
:1017B000270180932601612FC60100D2F601E10FB7
:1017C000F11D8083FF24F394F10E198E1D865601BE
:1017D00027E088248394912C8A2D8C198F1508F08A
:1017E00044C000E010E0C401002E01C0880F0A943C
:1017F000EAF7F5019081AE01475E5F4FBE01635F7E
:101800007F4F8923AEDD282F0F5F1F4F0430110556
:1018100051F7AE01475E5F4FBE01635F7F4F81E0CE
:10182000A0DD282FC401002E01C0880F0A94EAF71A
:10183000F5019081AE01475E5F4FBE01635F7F4F50
:1018400089238FDD282F0F5F1F4F0830110551F7B7
:10185000AE01475E5F4FBE01635F7F4F81E081DD78
:10186000282FFFEFAF1ABF0AB7CF8AE0E82E03E0B8
:10187000498D6AE0CE010D96B5DD6996ECE00C94D9
:10188000C62CEF920F93CF93DF9300D000D0CDB74B
:10189000DEB743E0BE016F5F7F4F0196A8DB8AE6AB
:1018A0008093290194E29093280191E2909327017B
:1018B0008093260180E88C838FE0E82E03E026E009
:1018C00043E060E0CE0101968DDD0F900F900F9008
:1018D0000F90DF91CF910F91EF900895A0E0B0E0CD
:1018E000E4E7FCE00C94AA2CDC0110924501109274
:1018F0005A011196DC901197DD0CDD0CDD0C13966E
:101900008C911397D81A8D2D97E0B92EBD0C10929B
:10191000460190E040E028E0D22ED80E71E087E04A
:1019200057E0C12C37E0E32EF12C01E010E07D15EB
:1019300009F478C0FD01EC0DF11D248130E0052E85
:1019400002C0359527950A94E2F721703327552375
:1019500011F0515002C0C39457E06B3479F48330D6
:1019600009F079C0411108C0232B09F058C010922A
:10197000450190935A016DC040E070C08F3F39F52A
:101980006634B1F4E92FF0E0EA5BFE4FE0810E2E01
:10199000E295E0250E2EE695E695E025EF5FE695CB
:1019A000E170CE2F812CD82DC217D30741F004C08F
:1019B000653429F4232B19F440934501DACF9F5F56
:1019C000E92FF0E0EA5BFE4F108287E029C0232B6D
:1019D00021F1663469F4E92FF0E0EA5BFE4FA08064
:1019E0009801082E01C0220F0A94EAF72A2914C090
:1019F000653499F4E92FF0E0EA5BFE4F9701281B6C
:101A0000310987FD3395480102C0880C991C2A953D
:101A1000E2F794013081232B2083815001C041E003
:101A20007F5F85CF4093450190935A01B71688F4A4
:101A3000653431F48F3F21F49F5F90935A0104C0C5
:101A4000809145018111F8CF81E090915A01911167
:101A500008C080E006C08F3F09F4ACCF232B51F6BD
:101A6000DCCFCDB7DEB7ECE00C94C62C10926F0043
:101A7000E0915D018CE1E89FF0011124E25AFE4FF4
:101A8000108280912E038D7F80932E030895FC0198
:101A90008181843108F0EACF9381662381F0DF01F0
:101AA000A80FB11D21E030E0092E01C0220F0A94D9
:101AB000EAF714963C911497232B14962C939923B0
:101AC00019F091509383089597E093838F5F8183FA
:101AD000E80FF11D14820895DC01362F11962C9128
:101AE0001197E22FF0E050E09C91BF01641B750B51
:101AF000655F7F4F67317105C8F4892F90E0632FD0
:101B000070E09C01261B370B255F3F4F27313105C5
:101B100068F49F01280F391F640F751F261B370BB0
:101B2000255F3F4F81E02731310508F080E00895BF
:101B3000539A5B985298E9E6F0E080818061808357
:101B4000EEE5F1E0148E10AE1092B2011092260371
:101B5000089580912F03882321F00E9455040C944E
:101B6000E3030C944C04FC01218121110BC08091F2
:101B70002F0339DA40E265E080912C0390912D0328
:101B8000BFD9BAC941E06FE273E0019630DAE1CF24
:101B9000442339F04150FB01E40FF11D9081890F7E
:101BA000F7CF08959C0180E0662339F06150F90178
:101BB000E60FF11D90818927F7CF0895FC01709100
:101BC000450140E095E020E0662399F06150DF0197
:101BD000A60FB11D3C91532F52955F702527950F8D
:101BE000772311F0442319F03F702327930F4F5FA1
:101BF000EBCF920F30E1939FC0011124822B089507
:101C0000FC0182819381A081B181A80FB11D2C912B
:101C100030E0092E02C0359527950A94E2F721702D
:101C200033274FEF490F4383911104C08F5F8283A5
:101C300087E08383822F0895A1E0B0E0E2E2FEE036
:101C40000C94AA2C6C01062F10E0812C912CF12C05
:101C5000EE24E394580181E0A81AB1088016910699
:101C6000E1F0C6014983CCDF4981882391F0442308
:101C700049F0C501881999099E2D01C0990F8A95CF
:101C8000EAF706C09E2D082C01C0990F0A94EAF7C6
:101C9000F92A8FEF881A980AE1CF8F2D2196ECE070
:101CA0000C94C62CA4E0B0E0E8E5FEE00C94AB2C6C
:101CB0001B8227E02C839C012C5F3F4F3A832983B2
:101CC00010925A01FC012181338187E090E0831B4F
:101CD0009109F8E02F9F800D911D11248534910505
:101CE0000CF450C0912C00915A01063070F5E02E92
:101CF000F12C40E068E0CE0101969EDF9701A9013A
:101D00004A5B5E4F7A01FA018083182F012E1295EB
:101D10001025012E169516951025CE01019670DF1F
:101D20001F5F11FBAA24A0F8B12C90E0A816B906F9
:101D300049F5CE01019664DF811124C0F70180814D
:101D400098260F5F00935A01CECF40E068E0CE01A5
:101D5000019672DF082F182F012E12951025012EE3
:101D6000169516951025CE0101964ADF1F5F11FBCF
:101D7000CC24C0F8D12C282F30E0C216D30611F4A1
:101D800081E0901280E02496EBE00C94C72CA4E054
:101D9000B0E0EDECFEE00C94AD2CFC011B8287E082
:101DA0008C83CF0104969A8389838081853009F0E2
:101DB00052C02181338187E090E0831B910938E094
:101DC000239F800D911D11248039910509F043C096
:101DD00010925A013FE0C32E30EFD32E19E88091C4
:101DE0005A01E82EF12CBB24B394B80E41E068E010
:101DF0008F3078F4CE0101961FDFC80ED11CF70199
:101E0000EA5BFE4F1827108314E2180FB0925A01B4
:101E1000E6CFCE01019610DF8601080F111DB092AA
:101E20005A01F701EA5BFE4F8095808341E068E04C
:101E3000CE01019601DF90E0982F8827081B190B2F
:101E400041E068E0CE010196F7DE282F30E081E026
:101E50000217130709F080E02496E9E00C94C92CDE
:101E6000A4E0B0E0E6E3FFE00C94B12C1B8227E095
:101E70002C839C012C5F3F4F3A832983FC012181F5
:101E80002430A1F58381813089F510925A01809127
:101E90005A01082F10E0FF24F394F80E41E084303B
:101EA00098F4811106C067E0CE010196C5DE806816
:101EB00004C068E0CE010196BFDEF801EA5BFE4F88
:101EC0008083F0925A01E3CF67E0CE010196B4DE41
:101ED000F801EA5BFE4F880F8083F0925A019091DF
:101EE000460192959F7081E09A3009F080E0249637
:101EF000E5E00C94CD2CCF93DF93FC0181818330FE
:101F0000C1F483818730A9F48081883091F490E016
:101F1000292F30E0D901AA5BBE4FEF01C20FD31FBA
:101F20008C818C939F5F933099F790935A0181E055
:101F300001C080E0DF91CF910895FC0190818091F4
:101F40002E03993611F0933751F4982F93709130F6
:101F500011F4826006C080FF07C08B7F03C080FD44
:101F600003C0846080932E030895A1E0B0E0EBEB02
:101F7000FFE00C94AA2C198280912A018823B9F1E0
:101F800080912F0387FF17C084E30E945903805874
:101F9000803458F0803C58F490E08055910923E05B
:101FA000959587952A95E1F703C080E001C08FE001
:101FB0008F590E94300780912F0383FF16C082E75C
:101FC0000E94300780912F0384FF04C080912B0171
:101FD0000E94300786E60E94300780912F0384FF1D
:101FE00004C080912A010E94300710922A0180913A
:101FF0005B01882309F464C2769A00915C012CE1AC
:10200000029F80011124025A1E4F8981811106C04E
:10201000C80171DF882311F083E7898389818111E9
:1020200006C0C801B4DE882311F083E58983898165
:10203000811139C066E4C80151DC8823A1F1F09018
:102040005A01FA94F0925A014F2D66E471E086E04D
:102050009FDDEF2DF0E0EA5BFE4FE0808E1105C0C2
:1020600093E09F1510F486E41BC0282F30E02F5F0B
:102070003F4F4E2D50E02417350739F4A3E0AF153C
:1020800020F496E4998380830EC04F2D66E471E0BE
:102090008CE07EDD8E1106C0B3E0BF1518F484E538
:1020A000898301C019828981811116C065E4C80144
:1020B00015DC882389F080915A01815080935A0160
:1020C000893051F469E086E491E06CDD90914F0134
:1020D000891302C085E489838981811106C0C80102
:1020E000E1DD882311F088E489838981811106C0AC
:1020F000C801B6DE882311F084E7898389818111C4
:1021000039C0F801438D60912B01C8014A96E4DC87
:10211000682FC801BCDC6BE4C801E0DB8823C1F098
:10212000E0915A01FF24FA94FE0EF0925A016F2DAD
:1021300086E491E043DDEF2DF0E090914501E91B4D
:10214000F109EA5BFE4F9081891302C08BE4898319
:10215000898181110FC0D80113968C911397873014
:1021600021F08F5F13968C9305C0F8011382818153
:1021700081508183F980F1102DC0D80111968C9186
:102180001197843039F513968C91843019F54EE10E
:102190006CE3C8014896A0DC8823E1F04EE1609131
:1021A0002B01C8014A9698DC682FC80170DC8F2D7E
:1021B00090E0FC01EA5BFE4FD801A80FB91F14960E
:1021C0008C918083F394B5E0FB12F1CFF0925A0129
:1021D00082E589836981662309F4DBC040912F037E
:1021E00040FFD7C080912E038E7F8B7F80932E037C
:1021F000942F927041FD64C05091440170915A0136
:1022000057133EC080E08517C0F4282F30E0E1E08E
:10221000E80FD901A05DBE4F2A5B3E4FFC91D9016A
:102220002C91F21741F08093440120912E032D7FD1
:1022300020932E0304C08E2FE6CF80934401851394
:102240001FC0C0902803D0902903E0902A03F0908B
:102250002B0380902C0190902D01A0902E01B09026
:102260002F01C818D908EA08FB08B6E2CB16D1043A
:10227000E104F10428F480912E03816080932E0301
:10228000971760F4292F30E0F901E05DFE4FD90186
:10229000AA5BBE4F8C9180839F5FF2CF90934401E5
:1022A0008091280390912903A0912A03B0912B03D8
:1022B00080932C0190932D01A0932E01B0932F01B8
:1022C0006435E9F446FD1BC080915A018530B8F0B1
:1022D000809148018B3471F0893661F09DEA980F46
:1022E000923040F08D57823028F0809149018077FC
:1022F000803729F480912E03816080932E03B801EA
:10230000CE0101961ADE8981843569F49091C60365
:10231000992349F090911304911105C090912E03D7
:102320009B7F90932E0390912E0392FF32C00E94C8
:10233000300780914501882329F080915A0181500E
:1023400080935A01F12CE0915A01FE1648F4EF2DCA
:10235000F0E0EA5BFE4F80810E94F307F394F3CF35
:1023600080914501882351F0F0E0EA5BFE4F8081C7
:102370008F7040E361E090E00E94B70780912F03E7
:1023800085FF05C084E30E9459030E94F3070E9461
:102390007C0780912F0382FF7AC080E70E9430077C
:1023A000F801808140E262E090E00E948007D8015D
:1023B00058968C9140E265E0B0E18B9FC0011124FA
:1023C0000E948007F801818D40E265E0F0E18F9F77
:1023D000C00111240E948007D8015A968C9140E2D6
:1023E00065E0B0E18B9FC00111240E948007F801D5
:1023F000838D40E265E0F0E18F9FC00111240E94CF
:102400008007D80112968C9140E263E090E00E9430
:102410008007F801818140E263E090E00E9480073C
:10242000D80113969C9140E262E027E030E0F90188
:10243000E91BF109CF010E94800780E20E9430076A
:1024400080912F0385FF08C084E30E9459030E94F6
:10245000F30780E20E943007D80113968C911397FE
:10246000873031F011968C9111978F5F11968C9374
:10247000F12CF8018181F81640F4F801EF0DF11DFF
:1024800084810E94F307F394F4CF0E947C07D80163
:102490001C9280915B01815080935B0180915C0173
:1024A0008F5F843019F080935C0102C010925C0150
:1024B00076988981843521F486E491E00E947E2615
:1024C0002196ECE00C94C62C1F920F920FB60F923F
:1024D00011242F933F934F935F936F937F938F9329
:1024E0009F93AF93BF93EF93FF9310926F008091F0
:1024F0002F0383FF03C08EE20E94300780915D01AD
:102500009CE1899FF0011124E25AFE4F90819330A3
:1025100018F09181923010F4A9DA18C090915B0103
:10252000933049F480912F0382FFF6CF86E992E041
:102530000E946F07F1CF9F5F90935B018F5F8430A4
:1025400019F080935D0102C010925D01FF91EF913F
:10255000BF91AF919F918F917F916F915F914F91BB
:102560003F912F910F900FBE0F901F9018959BEDEC
:10257000980F973150F496EF960F9D3130F491E01B
:10258000681708F090E0892F089580E008951F9261
:102590000F920FB60F921124FF920F931F932F9358
:1025A0003F934F935F936F937F938F939F93AF93DB
:1025B000BF93CF93DF93EF93FF93809153048823CE
:1025C00021F082E08093530462C18091BC03823089
:1025D00021F483E08093BC035AC1009184001091E0
:1025E0008500F4E016950795FA95E1F7C0915D0135
:1025F0008CE1C89FE0011124C25ADE4F88818430EB
:1026000031F40E3208F443C10F3448F0B6C08530BF
:1026100031F4073108F43BC1083208F0AEC04A99E2
:102620000DC08450823038F461E0CE0130DA10926F
:1026300085001092840000932B0129C190912B01F9
:10264000091B00932A011092850010928400888152
:10265000883071F42A8121110BC021E02A83988FE0
:102660009A8F098F0B3B10F4000F01C006950B8F5A
:102670008450823020F460E0CE0109DA08C182E0A3
:1026800086BB0881011111C090912B01953608F08D
:10269000FEC080912A01853608F0F9C0988F898F95
:1026A00081E08A8382E08883F2C010912A0102309F
:1026B00009F073C000912B01412F602FCE01489685
:1026C0000BDA4A818823F9F0288D30E0C901880FA0
:1026D000991F280F391F200F311D359527953595E6
:1026E0002795288F898D90E09C01220F331F820F40
:1026F000931F810F911D9595879595958795898F46
:102700004F5F4A83C4C0443008F445C080EA9FE06C
:1027100090938900809388008A818C3050F0888D56
:10272000298D30E0280F311D2536310524F084E055
:1027300027C08A3088F0888D298D30E0280F311D20
:10274000253231054CF485E0888388EE93E0909340
:1027500089008093880015C080913503882379F023
:10276000612F802F04DF882351F0688D898DFFDE73
:10277000882329F081E08093BC0378D988C083E066
:1027800088830A8F1B8F198287E08B831C8282E0EB
:1027900080936F007CC0188277CF083029F581E9DB
:1027A000810F8D3178F460E0CE0171D9888D90E091
:1027B0009C01220F331F820F931F20912B01820F48
:1027C000911D4EC0173E08F462C061E0CE015FD992
:1027D0008A8D90E09C01220F331F820F931F20915E
:1027E0002B01820F911D15C0F0902B01412F6F2DF1
:1027F000CE014A9671D9882301F161E0CE0147D913
:102800008A8D90E09C01220F331F820F931F8F0D42
:10281000911D95958795959587958A8F8B8D90E0DD
:102820009C01220F331F820F931F810F911D9595DD
:102830008795959587958B8F2AC0412F6F2DCE0157
:1028400048964AD9882301F160E0CE0120D9888DCD
:1028500090E09C01220F331F820F931F8F0D911D5B
:102860009595879595958795888F898D90E09C01A2
:10287000220F331F820F931F810F911D959587950E
:1028800095958795898F03C0073009F076CFFF9122
:10289000EF91DF91CF91BF91AF919F918F917F91F8
:1028A0006F915F914F913F912F911F910F91FF90E9
:1028B0000F900FBE0F901F901895E0915D018CE175
:1028C000E89FF0011124E25AFE4F8081811107C078
:1028D00081E0909142049F3F19F480E0089581E0E7
:1028E000089580E690E00E9459088093350381E6C0
:1028F00090E00E9459088093C603882321F081E26A
:1029000080932F0326C908955B9A0C94BE065B98AA
:102910000C94BE06A7E0B0E0E0E9F4E10C94AE2C24
:1029200090913E03943559F42091BF033091C00338
:102930002F5F3F4F3093C0032093BF033EC09634B8
:1029400059F42091BD033091BE032F5F3F4F309368
:10295000BE032093BD0331C0953459F42091320356
:10296000309133032F5F3F4F309333032093320373
:1029700024C09B3459F42091C2033091C3032F5FCC
:102980003F4F3093C3032093C20317C0983459F4C8
:102990002091C4033091C5032F5F3F4F3093C5038F
:1029A0002093C4030AC020913003309131032F5F7C
:1029B0003F4F309331032093300395E79983882369
:1029C00091F0BE016E5F7F4F8091C6030E94410867
:1029D000BE016C5F7F4F809135030E94410885E501
:1029E0008E8316E001C011E00E9455040E94D103BD
:1029F00006E080E891E088DF80E093E088DF015026
:102A0000C1F780E093E080DF80E891E080DF80E83C
:102A100091E07ADF5B9887E390E00E94760383E0A1
:102A20000E94C30628988FE70E94EA02809138032B
:102A3000810F0E94EA02CE0101966C017C01F70130
:102A400081917F010E94EA028E2D8C198117B8F3C3
:102A500080913803882339F086E393E00E94970938
:102A60000E94EA02F5CF289A0E94D10386E393E000
:102A70000E947C0915E18AE30E9459038F7731F0A7
:102A8000115021F081E00E94C306F5CF62D827964D
:102A9000E8E00C94CA2CCF93DF93EC01898181117B
:102AA00007C0809135030E94F3078091C60313C0CD
:102AB0008436A1F48091280390912903A0912A03E0
:102AC000B0912B0340E364E00E94B7078EE20E94BE
:102AD00030078091BB030E94F3074DC0833709F094
:102AE0004DC040E361E08091BF039091C0030E941C
:102AF000B7078EE20E94300740E361E08091BD039A
:102B00009091BE030E94B7078EE20E94300740E317
:102B100061E080913203909133030E94B7078EE207
:102B20000E94300740E361E08091C2039091C303AB
:102B30000E94B7078EE20E94300740E361E0809177
:102B4000C4039091C5030E94B7078EE20E9430072C
:102B500040E361E080913003909131030E94B70718
:102B60008EE20E94300740E361E08091B9039091CA
:102B7000BA030E94B7070E947C072CC08936D9F49B
:102B800041E065E373E0CE0102960E94F707609191
:102B9000350380E690E00E94540841E066EC73E063
:102BA000CE0104960E94F7076091C60381E690E08B
:102BB0000E9454080FC086E393E00E947C0921968E
:102BC0006991662329F086E393E00E948109F8CF9A
:102BD00080E0A0DEDF91CF910895A1E0B0E0E3EFC7
:102BE000F5E10C94AE2C8091BC03882309F486C0D7
:102BF000C0902803D0902903E0902A03F0902B0383
:102C0000833009F061C08FE30E945903182F86308A
:102C1000C8F087ED94E00E947C0928988FEF0E940D
:102C2000EA0280E00E94EA02082F115049F080E099
:102C30000E94EA02682F87ED94E00E948109F5CF97
:102C4000289A01C000E00E94A90D1092BC0305372C
:102C500009F054C041E0BE016F5F7F4F8AED94E000
:102C60000E94F707019759F59981809135039813D0
:102C700026C08091DE04853571F48091D9048823C3
:102C800039F087ED94E00E9497090E943007F5CF54
:102C90000E947C0733C08091D90484508093D9046A
:102CA00084E08093D8046AE087ED94E00E94810973
:102CB000E0912403F091250388E009951FC087ED7A
:102CC00094E00E947C091AC0823059F48091340348
:102CD0009C2D981B983090F00E94A90D1092BC0377
:102CE0000DC0813059F487E390E00E9476030E9482
:102CF000E30382E08093BC03C09234032196E8E0B2
:102D00000C94CA2CDADD882361F083E08093C10340
:102D10008091B9039091BA0301969093BA0380937E
:102D2000B9038091C10381508093C103882321F0AE
:102D300083E08093BB03089581E0ECCDCF93DF93D4
:102D4000EA98209A289A8EE190E00E94BE06289880
:102D50008EE190E00E94BE06289A8DE290E00E94EB
:102D6000BE0680E30E94720384E690E00E94BE06E5
:102D7000CDEBD2E0FE0131966491FE0184910E9478
:102D800060032296F2E0CF3EDF07A1F78091CF01EA
:102D9000811107C083E30E94720384E00E94C3068E
:102DA0000FC0C7EAD2E0FE0131966491FE01849122
:102DB0000E9460032296F2E0CD3BDF07A1F7EACF45
:102DC00084E30E94720385E30E9459038D30C1F7AA
:102DD000DF91CF910895A2E3B0E0E1EFF6E10C942A
:102DE000B22C8091CE01882309F4A1C04A9B8AC0ED
:102DF0008FE30E9459038F778983823368F08AE3D7
:102E00000E94720386E30E9472038DE30E947203A4
:102E100084E30E9472038BC028988FEF0E94EA021D
:102E200010E08981181760F480E00E94EA02E2E075
:102E3000F0E0EC0FFD1FE10FF11D80831F5FF1CF6C
:102E400080E00E94EA02082F80E00E94EA02289AAD
:102E500084E30E94720385E30E9459038D30C1F719
:102E60009A8126E729272A8322E08981E22FF0E050
:102E7000281768F441E050E04C0F5D1FE40FF51F88
:102E800080819452982790832F5F982FEECF81E016
:102E900090E08C0F9D1FE80FF91F80819B81982780
:102EA000908380912F0384FF12C081E60E94300737
:102EB00010E08981811730F1E1E0F0E0EC0FFD1FB7
:102EC000E10FF11D80810E9430071F5FF2CF81E486
:102ED0000E94300710E08981811758F0E1E0F0E0AE
:102EE000EC0FFD1FE10FF11D80810E94F3071F5FB2
:102EF000F2CF80912F0385FF03C0802F0E94F3073C
:102F00000E947C0785E30E945903813029F08131BA
:102F100061F48AE30E94720386E30E9472038DE3E8
:102F20000E94720384E30E9472030E949C04E29652
:102F3000E4E00C94CE2CAAE3B0E0E1EAF7E10C94D3
:102F4000AA2C41E38E010F5F1F4FB80101960E942A
:102F5000F7077C019C01332721503109898190E0DA
:102F60002817390709F0A3C08091CE01811104C050
:102F7000E5DE83E00E94C306DB809A8186E789272D
:102F80008A8382E09981282F30E0F801E20FF31F55
:102F9000891750F4DE01A20FB31F9C919452208137
:102FA000922790838F5FEECF80818D258083CE0125
:102FB000C7960E94BF0585E30E94720385E30E94C5
:102FC0005903833181F1CE01C3960E94BF054BA9FD
:102FD0005CA96DA97EA98FA998ADA9ADBAAD8417DA
:102FE0009507A607B70760F44A015B01881A990A9A
:102FF000AA0ABB0A2DEB82169104A104B10470F455
:10300000481759076A077B0770F484549F4FAF4FE6
:10301000BF4F84179507A607B70728F48DE992E0FC
:103020000E946F0727C085E30E945903833119F678
:10303000D4FE08C088E70E94C30688E70E94C30642
:1030400088E701C08AE00E94C30628988FE70E94A3
:10305000EA0268018C2D801B8E1530F4F6018191F7
:103060006F010E94EA02F6CF289A85E30E94590375
:103070008331D9F385E30E945903863149F48BE308
:103080000E94720386E30E9472038DE30E94720322
:103090008091CE01882349F084E30E94720385E386
:1030A0000E9459038D30C1F702C00E94A90DEA9613
:1030B000ECE00C94C62CFC019181923731F09235F2
:1030C00059F481E08093CF0102C01092CF0136DE27
:1030D00081E08093CE010895933719F4CF010196D2
:1030E0002ACF1092CE010895CF93DF93EA98209AC9
:1030F000289A8EE190E00E94BE0628988EE190E02A
:103100000E94BE06289A8DE290E00E94BE0680E3EF
:103110000E94720384E690E00E94BE06C1E0D3E004
:10312000FE018491813440F083E30E94720384E0C5
:103130000E94C306CFEF0DC0FE0131966491FE01DF
:1031400084910E9460032296F3E0CD33DF0741F7BC
:10315000EBCF84E30E9472038AE090E00E94BE06F7
:10316000C150B9F781E08093D001DF91CF910895EC
:10317000EF92FF920F931F93CF93DF938C01EB019C
:10318000FC01F0808091D001811101C0ADDF85E3A9
:103190000E9459038D3071F08AE50E94300785E462
:1031A0000E94300782E50E94300782E50E943007C6
:1031B00081E34BC08091D1019091D201A091D301C4
:1031C000B091D401892B8A2B8B2B49F50E94D10316
:1031D00085E30E945903833109F442C08AE50E94C5
:1031E000300785E40E94300782E50E94300782E5BF
:1031F0000E94300782E329C040912803509129039F
:1032000060912A0370912B030196A11DB11D4817EF
:1032100059076A077B07D1F681E00E94C3064091F7
:1032200028035091290360912A0370912B03809108
:10323000D1019091D201A091D301B091D40148174E
:1032400059076A077B07C1F6E7CF0E94300785E37D
:103250000E9459030E94F3070E947C0745DF60C06B
:10326000CD2B49F428988FE70E94EA02E02EC02F68
:10327000D12FF39408C0CAE0D0E084E60E94C306D0
:103280002197D9F7EFCF8C2F8E198F1520F48991C4
:103290000E94EA02F8CF289AC8EC85E30E945903FD
:1032A0008D30E9F485E30E9459038D3019F18AE5E8
:1032B0000E94300785E40E94300782E50E943007B3
:1032C00082E50E94300783E30E94300785E30E9475
:1032D00059030E94F3070E947C0706DF0BC085E3B9
:1032E0000E9459038331F1F681E00E94C306C15068
:1032F000A1F6D8CF8091D001811102C00E94A90D02
:103300008091280390912903A0912A03B0912B0367
:103310008093D1019093D201A093D301B093D401B3
:10332000CDB7DEB7E6E00C94CC2CACE0B0E0EBE936
:10333000F9E10C94B32CFC018BE0898381818A83B1
:103340001B8282E08C8387818D8380858E8381853B
:103350008F83848188878581898786818A871B8678
:103360001C8684E10E94C30660E070E0CE010196F5
:10337000FFDE8AE50E94300710E0812F90E029816E
:1033800030E0281739075CF0E1E0F0E0EC0FFD1FBA
:10339000E80FF91F80810E94F3071F5FEECF809135
:1033A0002F0385FF03C080E00E94F3070E947C0783
:1033B0002C96E3E00C94CF2CCF93DF93EC0190910B
:1033C000D801911108C08091D901811104C0809168
:1033D000DA018823A9F08B81803319F08F7E803445
:1033E00079F48F8189130CC098858091D901981345
:1033F00007C099858091DA01981302C0CE0195DF4C
:103400008091D501811108C09091D601911104C01D
:103410009091D7019923A9F098819B3091F49B81D9
:10342000903479F49F8198130CC098858091D601CF
:10343000981307C099858091D701981302C0CE01D7
:1034400074DFDF91CF910895AEE1B0E0EAE2FAE1F6
:103450000C94B22C8091D001882309F469C04A9B56
:1034600059C08FE30E9459038F778E3108F08DE1A8
:10347000898328988FEF0E94EA0210E0898118174B
:1034800060F480E00E94EA02E2E0F0E0EC0FFD1F51
:10349000E10FF11D80831F5FF1CF80E00E94EA02FF
:1034A000082F80E00E94EA02289ACE01019684DF6C
:1034B00080912F0384FF12C08AE70E94300710E03A
:1034C00089818117A8F1E1E0F0E0EC0FFD1FE10F29
:1034D000F11D80810E9430071F5FF2CF8AE50E94B4
:1034E000300710E08981811758F0E1E0F0E0EC0F3F
:1034F000FD1FE10FF11D80810E94F3071F5FF2CFD6
:1035000080912F0385FF03C0802F0E94F3070E9444
:103510007C070EC085E30E945903813149F48AE398
:103520000E94720386E30E94720384E30E94720386
:103530006E96E4E00C94CE2CAEE1B0E0E2EAFAE163
:103540000C94B22C8C01FC018181823711F4CCDD0A
:1035500036C0833711F0863601F54DE1BE016F5F4D
:103560007F4FC80102960E94F7079927019729818A
:1035700030E08217930729F08FEE92E00E946F07E8
:103580001EC061E070E0F8018181833711F060E0D6
:1035900070E0CE010196ECDD12C0813621F443E0EB
:1035A00068ED71E005C0873741F443E065ED71E0F7
:1035B000C80102960E94F70702C01092D0016E96D1
:1035C000E4E00C94CE2C0E94E303EA980895CF9394
:1035D000DF93209A289A8EE190E00E94BE062898F8
:1035E0008EE190E00E94BE06289A8DE290E00E9453
:1035F000BE0680E30E94720384E690E00E94BE064D
:10360000809108048933C1F4C1EAD3E0FE01319608
:103610006491FE0184910E9460032296F3E0C33D11
:10362000DF07A1F783E30E94720384E00E94C306D0
:10363000CADFDF91CF910895843379F4CFE6D3E0E8
:10364000FE0131966491FE0184910E9460032296EE
:10365000F3E0C13ADF07A1F7E5CF813319F7CDE3F6
:10366000D3E0FE0131966491FE0184910E946003D3
:103670002296F3E0CF36DF07A1F7D4CFFC0190818B
:1036800080910D04981317C0918180910E049813B6
:1036900012C0928180910F0498130DC09381809184
:1036A0001004981308C0908580911104981729F090
:1036B00081E09F3F19F080E0089581E008959C012A
:1036C0008FEF662339F06150F901E60FF11D90810B
:1036D0008927F7CF0895DC01FC018FE09DE170E0C0
:1036E0009F012A1B3B0B2617370704F52191492F11
:1036F000552742279A01329522952F7023273F7034
:10370000232724273527582F442742275327C90129
:10371000982F88279295907F8427952745E0220F40
:10372000331F4A95E1F782279327DACF0895A0E067
:10373000B0E0EDE9FBE10C94AF2C8C01D62E769A2B
:1037400080910804893339F464E182E10E946003C6
:103750006D2D660F6D5E86E00E9460030E94D103AE
:1037600028988FE70E94EA0280910804893321F0AB
:10377000F02EC02FD12F4FC0CFE086E60E94EA0284
:10378000C150D9F78AEA0E94EA0285E50E94EA025E
:10379000D02F78018E2D8D1B8D15B0F5F701C191BD
:1037A0007F01C7FD02C080E401C080E8C6FD02C001
:1037B00090E101C090E2890FC5FD02C094E001C014
:1037C00098E0980FC4FD02C081E001C082E0890F3B
:1037D0000E94EA02C3FD02C080E401C080E8C2FD8D
:1037E00002C090E101C090E2890FC1FD02C094E0E7
:1037F00001C098E0980FC0FD02C081E001C082E0E6
:10380000890F0E94EA02C6CF80E00E94EA0280E0AF
:103810000E94EA0209C08C2F8F198D1528F4899116
:1038200080950E94EA02F7CF289A85E30E94590307
:103830008331D9F36FEF86E00E9460038091080422
:10384000893321F46EE182E10E946003BCDE769848
:10385000F801858186FF2CC080912803909129036F
:10386000A0912A03B0912B030696A11DB11D809350
:10387000090490930A04A0930B04B0930C04809164
:10388000DB018F5F8093DB01823060F08AE70E946A
:10389000300782E70E9430078091DB010E94F30726
:1038A0000E947C078091DB01833010F01092DB01D5
:1038B000CDB7DEB7E7E00C94CB2CA0E4B0E0E3E6B4
:1038C000FCE10C94A72C8091DC01882309F421C130
:1038D0008091DB018823D9F040912803509129037E
:1038E00060912A0370912B038091090490910A043E
:1038F000A0910B04B0910C0484179507A607B70795
:1039000030F46091070487EC93E011DF02C14A9B19
:1039100000C1769A28988FEF0E94EA028E010F5F0D
:103920001F4F7801B02EA12E902E68E0D62ED00E1B
:1039300080E00E94EA02F7018083909108049933A5
:1039400011F080958083FFEFEF1AFF0ADE10F0CFB1
:10395000289AF88487EF8F0D883310F038DED9C0AD
:103960006F2D86E00E94600380910804813339F056
:10397000843349F058E9C52E53E0D52E07C04AE5F7
:10398000C42ED12C03C03CEDC32ED12C98E3592E6C
:1039900028E0E22E6F2C712CC6010E94BE068BE33C
:1039A0000E945903882E882329F190E08E0D911DE5
:1039B000681679069CF228988FEF0E94EA028E0C16
:1039C000E81471F080E00E94EA02909108049933B3
:1039D00009F08095F801EE0DF11D8083E394F0CF9E
:1039E000289AEF1438F080910804CF2CD12C813321
:1039F00001F504C05A945110CFCFF5CFEFEFFFEF90
:103A0000EC0FFD1FEC0DFD1D208130E0322F222731
:103A1000FE01EC0DFD1D80816901C80ED11C6EEF09
:103A20006F0DC80158DEEE24E3948C159D0561F4FA
:103A30000CC06FEF6F0DC80142DEFE01EC0DFD1DE5
:103A4000EE24E39490818913E12C8091DC0182378C
:103A500001F5C80113DE81111CC0E12C8091DC014D
:103A6000823781F4EE2071F08E81982F937093301D
:103A700029F49091DB0191111092DB0186FF02C0C5
:103A800087FF18C06FEF86E00E9460039CDD769888
:103A900040C0EE20B9F38AE70E943007F801819117
:103AA0008F010E94F307802F89198F15B8F30E94A8
:103AB0007C07D4CF8AE00E94C3068D8189878091DC
:103AC00011048D8383E08E8380910804813351F447
:103AD0008BE0888769E08B2D9A2DFDDD9A878B8797
:103AE0006BE008C08AE0888769E08B2D9A2DE7DDBE
:103AF0008A876AE08B2D9A2D1ADE8AE70E943007AA
:103B000081E60E94300789850E94F3070E947C07A6
:103B1000BECFC05CDF4FEFE00C94C32CFC012181D1
:103B2000223711F02D3651F4FC018281811101C040
:103B300084E3809308042093DC0149CD233771F49A
:103B40001092DB0140E467EC73E002960E94F707F5
:103B500080930704682F87EC93E0E9CD293671F54F
:103B6000FC012281222331F045E06DE074E00296F1
:103B70000C94F7078091DC010E94300780910804C3
:103B80000E94300780E20E94300780910D040E945D
:103B9000F30780910E040E94F30780910F040E94A6
:103BA000F307809110040E94F30780E20E9430071F
:103BB000809111040E94F3070C947C071092DC01A1
:103BC00008951F93CF93DF93EA98209A289A8EE165
:103BD00090E00E94BE0628988EE190E00E94BE060A
:103BE000289A8DE290E00E94BE0680E30E94720354
:103BF00084E690E00E94BE06289880E40E94EA02D3
:103C0000C3EDD3E01C2F135FFE0184910E94EA02F2
:103C100021961C13F9CF809108010E94EA0280913D
:103C200009010E94EA0280910A010E94EA02C0E0B2
:103C3000D0E0FE01ED51FC4F84910E94EA022196F2
:103C4000C931D105B1F7289A28988EE70E94EA0277
:103C50008BE290E0EC0121960E9459080E94EA0252
:103C6000CE01E397B9F7289A83E30E94720381E0BB
:103C70000E94C30681E080932603DF91CF911F91BC
:103C80000895A0E0B0E0E7E4FEE10C94AA2CEC017A
:103C90008981843769F46FE071E0CE0102960E9459
:103CA000270840E260E080910F019091100112C05E
:103CB000833709F099C18A81823789F46BE071E01A
:103CC000CE0103960E94270840E260E080910B013C
:103CD00090910C010E9480070E947C07F9C1769A9E
:103CE0008091DF01811116C08091CE01882329F0D7
:103CF00081E08093DE011092CE018091D001882373
:103D000029F081E08093DD011092D0015ADF83E039
:103D10000E94C30686E30E9472038AE30E94720334
:103D20008BE30E9472030E94D103FE0101900020E8
:103D3000E9F7EC1BFEEFFF2EFE0E10E0AAE09A2E34
:103D40006E0132E0C30ED11CB5E0EB2E88E2882E66
:103D500020910B0130910C01812F012E000C990B49
:103D60008217930708F002C181E2F81214C05B9A2F
:103D700080910F01909110010E94BE065B98809186
:103D80000D0190910E01FC019E9EC0019F9E900D21
:103D900011240E94BE06560101E00F150CF0BCC0B4
:103DA000F50181915F01803309F048C0F1E25B9A2F
:103DB000FF1220C080910D0190910E010E94BE065D
:103DC0005B9880910D0190910E010E94BE065B9A56
:103DD00080910D0190910E010E94BE065B9880912A
:103DE0000D0190910E019C01E29EC001E39E900D99
:103DF00011248EC080910F01909110010E94BE0687
:103E00005B9880910F01909110019C01220F331F4C
:103E1000820F931F0E94BE065B9A80910F019091C2
:103E200010010E94BE065B9880910F0190911001D5
:103E30009C01220F331F820F931F6AC0813339F513
:103E400031E25B9AF31212C080910D0190910E0144
:103E50000E94BE065B9880910D0190910E01FC01BD
:103E6000EE9EC001EF9E900D112420C080910F01A5
:103E7000909110019C01220F331F820F931F0E940B
:103E8000BE065B9880910F01909110012EC0F1E267
:103E90005B9AFF121AC080910D0190910E010E9451
:103EA000BE065B9880910D0190910E010E94BE06A6
:103EB0005B9A80910D0190910E010E94BE065B9865
:103EC00080910D0190910E0123C080910F0190917E
:103ED00010010E94BE065B9880910F019091100125
:103EE0009C01220F331F820F931F0E94BE065B9A14
:103EF00080910F01909110019C01220F331F820FBE
:103F0000931F0E94BE065B9880910F019091100153
:103F10000E94BE060F5F41CF21E25B9AF21214C0ED
:103F200080910D0190910E010E94BE065B988091D8
:103F30000D0190910E01FC018E9EC0018F9E900D8F
:103F400011240E94BE0610C080910F0190911001B3
:103F50000E94BE065B980FE180910F0190911001C5
:103F60000E94BE060150C1F71F5FF2CE8091DF01B3
:103F7000882341F080912F0381110FC086E30E94B6
:103F8000720318C08091DE01882351F01092DE0187
:103F90000E949E1681E08093CE010E94E3030AC036
:103FA0008091DD01882321F01092DD019DD802C0AF
:103FB0000E94A90D769889E60E94300783E70E9447
:103FC000300711E01F150CF087CEFE01E10FF11D47
:103FD00017FDFA958181803319F0813309F086E469
:103FE0000E9430071F5FEECF8237B9F48091CE0177
:103FF000882329F081E08093DE011092CE01809128
:10400000D001882329F081E08093DD011092D00156
:10401000D8DD81E08093DF015BC0863651F58A816F
:10402000803351F480E18093080180EB8093090193
:1040300081E780930A0107C043E068E071E0CE01A8
:1040400002960E94F70789E60E94300786E60E94E2
:1040500030078AE30E943007809108010E94F3072D
:10406000809109010E94F30780910A010E94F307E1
:1040700033CE883729F58091DE01882341F01092F4
:10408000DE010E949E1681E08093CE0110C08091D7
:10409000DD01882321F01092DD0126D80EC082E0D8
:1040A00090E00E94760380912F03882319F00E94EC
:1040B000E30303C086E30E9472031092DF0108C08D
:1040C000833631F46FE071E0CE0101960E9427083B
:1040D000CDB7DEB7ECE00C94C62CA2E0B0E0E3E78D
:1040E000F0E20C94A62C7C01FC018181833709F05D
:1040F000A0C1198287E090E00E94DB2C8C0141E096
:10410000BE016F5F7F4FC70102960E94F70789814A
:10411000F801808341E0BE016F5F7F4FC7010496C5
:104120000E94F7078981807FD82EF801818341E0C2
:10413000BE016F5F7F4FC70106960E94F707898116
:10414000F801828341E0BE016F5F7F4FC70108968F
:104150000E94F7078981F801838341E0BE016F5F08
:104160007F4FC7010A960E94F7078981F80186836D
:1041700041E0BE016F5F7F4FC7010C960E94F707B9
:104180008981F801858341E0BE016F5F7F4FC701E0
:104190000E960E94F7078981F80184835801F7E0A1
:1041A000AF0EB11CF80180E09191292F22952F705C
:1041B00092278927EA15FB05B9F78F70D82AF801ED
:1041C000D18287E090E00E94DB2C6C0187E0F8014F
:1041D000D60101900D928A95E1F7D80111969801C8
:1041E0002A5F3F4FF80181919C9189278D93E217B7
:1041F000F307C9F7769A8091E20181115EC0809140
:10420000CE01882329F081E08093E1011092CE0154
:104210008091D001882329F081E08093E001109201
:10422000D001EA98209A289A8EE190E00E94BE067A
:1042300028988EE190E00E94BE06289A8DE290E0D8
:104240000E94BE0680E30E94720384E690E00E9412
:10425000BE06289880E40E94EA026CEFE62E63E036
:10426000F62E79E2972E9E0CF70184910E94EA02C5
:10427000FFEFEF1AFF0A9E10F7CF289A28988EE7D3
:104280000E94EA028BE290E07C012FEFE21AF20A30
:104290000E9459080E94EA02C70183339105A1F7E1
:1042A000289A83E30E94720381E00E94C30681E0A2
:1042B0008093260383E00E94C30686E30E94720374
:1042C0008AE30E9472038BE30E9472030E94D1036F
:1042D0005B9A87EC94E20E94BE065B9889E50E9497
:1042E000C30685E392E00E94BE06F12C8091150181
:1042F00090E02F2D0F2C000C330B281739070CF0F2
:1043000056C0FF2011F027E001C022E0E12C5B9AAB
:1043100086EF99E02A830E94BE065B9886EF99E0BB
:104320000E94BE06E3942A81E212F1CF5B9A8CEFE1
:1043300092E10E94BE065B9880911101909112015A
:104340000E94BE064801F40161904F0148E0E42E4E
:1043500050E8452E512C712CC20186219721892BC2
:1043600049F45B9A80911101909112010E94BE065E
:104370005B9808C05B9880911101909112010E9496
:10438000BE065B9A80911101909112010E94BE06B7
:1043900056944794EA94E110DFCF8A149B0499F66F
:1043A0005B9880E090E00E94BE06F3949FCF8091DE
:1043B000E201882341F080912F0381110FC086E331
:1043C0000E94720319C08091E101882351F010927C
:1043D000E1010E949E1681E08093CE010E94E303DA
:1043E0000BC08091E001882329F01092E0010E9427
:1043F000741802C00E94A90D769889E50E943007C2
:1044000083E70E94300776015601F7E0AF0EB11C3A
:10441000F70181917F010E94F307EA14FB04C1F7C1
:104420000E947C07C6010E94702DC8010E94702D59
:104430006FC08237A9F465E171E0C70102960E945E
:10444000270889E50E94300782E70E9430078AE347
:104450000E9430078091150140E260E090E02CC09E
:10446000843779F5F7018281803339F488ED94E05F
:10447000909314018093130106C063E171E0C701BA
:1044800002960E942708809113019091140196953D
:104490008795909312018093110189E50E9430075E
:1044A00084E70E9430078AE30E94300740E266E01A
:1044B00080911301909114010E9480070E947C0753
:1044C00027C0883729F58091E101882341F01092B7
:1044D000E1010E949E1681E08093CE0111C080917F
:1044E000E001882329F01092E0010E9474180EC0A8
:1044F00082E090E00E94760380912F03882319F0D8
:104500000E94E30303C086E30E9472031092E2015B
:104510002296E0E10C94C22C10922D0410929E027F
:1045200083E08093E8018FEF809342040895E9EEE1
:10453000F1E02081211105C0892BB1F080E090E0ED
:104540000895B2E0E739FB07B8F7009751F04181D1
:10455000DC013C91431305C0428111963C91431705
:1045600051F0E20FF11DE5CF32E0E739F30719F022
:1045700010F0E7E9F2E0CF01089524E0829FC00146
:104580001124FC01ED5BFB4F80818F3F91F0809304
:10459000E30181818093E40182818093E50183813D
:1045A0008093E60121E04CE064E083EE91E00C941E
:1045B0007D0A089588E992E0BADF009799F020918A
:1045C000E801FC013081231768F4E20FF11D8081BE
:1045D00080939A0289E780939B02818180939C0259
:1045E00081E0089580E008950F931F93CF93DF93A8
:1045F00020912F0326FF16C08C0184E50E9430070E
:10460000E8010B5F1F4F89910E94F307C017D10784
:10461000D1F780912F0385FF03C08AEF0E94F30733
:104620000E947C07DF91CF911F910F91089586E33F
:104630000E94720380919A02833511F08BE401C0CD
:104640008BE90E94C30621E04CE065E088E992E036
:104650000E947D0A0E94E30388E992E0C5CFE7DF6C
:1046600080919A02893631F081E08093970289E245
:10467000809342040895CF9385E390E00E94590807
:104680008093130486E390E00E94590880934104CC
:10469000E1E3F4E0CFEFC083C283C483C683C08765
:1046A000C287C487C68738DF1092E90181E0809312
:1046B0001204A3E4B4E0CC93E5E1F4E08FEF9FEFC4
:1046C0009183808313821282158214821496CC9374
:1046D0001497978386831186108613861286189600
:1046E000CC9318979587848717861686118A108A27
:1046F0001C96CC93938B828B158A148A178A168A00
:10470000CF910895AF92BF92CF92DF92FF920F9315
:104710001F93CF93DF93CDB7DEB72C970FB6F894E6
:10472000DEBF0FBECDBF8C015C018FEFA81AB80AA7
:1047300045E0BE016F5F7F4FC5010E94F7078430DF
:1047400008F0F0C099819130A9F4833061F46A8156
:1047500085E390E00E9454086B8186E390E00E941C
:10476000540889DFF4C1809113040E94F3078091FB
:10477000410497C0923009F055C0813049F091E072
:1047800080E02A81213009F090E0C92ED82E03C0A4
:10479000CC24C394D12C8091E901811104C085E21D
:1047A00094E00E946F0709EE11E0F80180818823F0
:1047B00009F4B5C0F2E007391F0708F0B0C0E1E026
:1047C000093E1E0719F080E20E943007F80181813E
:1047D0000E94F307F80182810E94F307C114D104FB
:1047E000E1F08AE30E94300793E0F8018081981796
:1047F000A0F4943038F090FF05C08CE29C870E94B2
:1048000030079C85FF24F394F90EF801E90FF11DA0
:1048100080810E94F3079F2DE8CFF8018081080F67
:10482000111DC3CF933049F480E090E080DE895EB3
:1048300091409EEA981B892F34C0903139F501E3ED
:1048400014E0D12CF12CF80180818F3FA1F0FF20E2
:1048500019F080E20E9430078D2D0E94F3078AE351
:104860000E943007F80180810E94F307F8018181DE
:104870000E94F307F3940E5F1F4FD394F8E0DF120A
:10488000E2CFF1104CC083E394E047C0913161F472
:1048900080912F04909130046DE770E00E948A2C83
:1048A000862F0E94F3073BC09231C9F513E4A12E75
:1048B00014E0B12E06E414E0D12CF12CF501808136
:1048C0008F3FF1F0FF2019F080E20E9430078D2D1C
:1048D0000E94F3078AE30E943007F50180810E945D
:1048E000F307F801329780810E94F307F8013197AE
:1048F00080810E94F307F80180810E94F307F394FE
:10490000F4E0AF0EB11CD3940C5F1F4F84E0D812BB
:10491000D5CFF11004C08FE294E00E946F070E948F
:104920007C0715C144E0BE01695F7F4FC5010E944D
:10493000F7074F81493608F474C07A855885698530
:1049400020E030E080E090E07C3009F051C0F901D7
:10495000ED5BFB4F708174131CC0A181A51319C0BE
:10496000A281A61316C02CE023839C01220F331FC3
:10497000820F931FFC01EE0FFF1FEB5EFB4F1182B6
:104980001082880F991FFC01E95EFB4F1182108293
:10499000C0C07F3FD9F44083518362832CE02383DE
:1049A0009C01220F331F820F931FFC01EE0FFF1F8C
:1049B000EB5EFB4F11821082880F991FFC01E95EAC
:1049C000FB4F1182108210921204A3C001962C5F3B
:1049D0003F4F2031310509F0BACFB9C0A181A517E9
:1049E00071F001962C5F3F4F2031310509F4AFC0C3
:1049F000F901ED5BFB4FA081A413F3CFEFCFA281B0
:104A0000A613EFCF7383FC01EE0FFF1FE80FF91F12
:104A1000EE0FFF1FE95EFB4F81E090E09183808302
:104A200096C0E98180911304E81758F190E0F0E016
:104A30009C01295F3F4F2E173F071CF13A812091BF
:104A4000410432131EC02C812F3231F442E06CE05D
:104A5000C8010E94EA0A7BC03D812C3249F43093A0
:104A60002E0481E090E09093300480932F046FC077
:104A7000E81BF90BEE0FF0E0EF5CFB4F2083318376
:104A800066C080E090E053DD6C01F50101900020EC
:104A9000E9F73197EA19FB09F695E795FF24F394B6
:104AA000FE0EC6018F0D911D895E91408F3A9105D2
:104AB0000CF049C0F601F1925F0121E0822F880FCE
:104AC00081502F15E0F441E0B501F801E80FF11D28
:104AD000CF012C870E94F7072C85233058F020FD4A
:104AE00009C0F50131978081843621F4F501808178
:104AF000809314042F5FFFEFAF1ABF0ADFCF87E95F
:104B0000C81682E0D80618F5F601E20FF11D1082F2
:104B10001EC022E04CE064E0CE0107960E947D0AB0
:104B20008FE08A8722E04CE064E0CE0107960E9485
:104B30007D0A82E08A8722E04CE064E0CE0107969D
:104B40000E947D0A04C089E294E00E946F072C96BF
:104B50000FB6F894DEBF0FBECDBFDF91CF911F918E
:104B60000F91FF90DF90CF90BF90AF9008950F937B
:104B70001F93CF93DF939091120491114EC093E055
:104B8000899FE0011124FE01EE0FFF1FEB5EFB4F3A
:104B900094E0899FD0011124AD5BBB4F12969C918C
:104BA000977040E850E0491B51099AEF949F90019B
:104BB000959F300D1124359527953595279531838F
:104BC00020838E01000F111F075E1B4FF80120810B
:104BD00031812F5F3F4F31832083CC0FDD1FC95EB2
:104BE000DB4F488159814115510529F424303105A5
:104BF000A1F4C3DC0FC04130510531F4BEDC82E0CA
:104C000090E09983888309C04230510531F4B5DCC6
:104C100019821882F80111821082DF91CF911F91C1
:104C20000F910895A6E0B0E0E7E1F6E299C6809121
:104C300041048A831B8290912E04992341F0933082
:104C400019F08DE790E010C087E791E00DC0877004
:104C500090E08A519F4F4DE7489F9001499F300D4A
:104C60001124C901959587959093300480932F0462
:104C700081E3E82E84E0F82E10E00CE2F701908149
:104C80009F3FC1F080911304810F898380912E048E
:104C9000882311F00C8303C09C83F70181818D83ED
:104CA00021E04CE065E0CE0101960E947D0ACE0134
:104CB00001969ADC1F5FF2E0EF0EF11C1830F1F65E
:104CC00080912E04882341F0833019F410922E0431
:104CD00003C0825080932E042696E6E05DC6809144
:104CE0009702882351F0A3DC89E2809342048091EB
:104CF000970281508093970208950ECCFF920F93F4
:104D00001F93CF93DF93FC01F0800181C281D38197
:104D100014818FE5809342041092970280911304CE
:104D2000811105C080914104882309F4A9C08091B4
:104D300098028F1104C080919902801729F0ECDB52
:104D4000F09298020093990280912D048F3F09F40C
:104D500097C0C0939A02D0939B0210939C02CC23DD
:104D6000F1F081111CC080911304181761F0143602
:104D700051F08DEA8C0F823010F0CD3739F48FEF7F
:104D800080932D047DC0C43509F47AC08D2F807FB7
:104D9000803609F075C0D067D0939B0257C00ADCFB
:104DA000811105C080912D04882309F469C0809188
:104DB0009E02811107C0E0912D04F0E0E95CFB4FF9
:104DC000E49101C0E82FE33541F4C43531F490910A
:104DD0002D049E5F90932D0404C0EC1711F09CDB12
:104DE0004FC0882369F08091E8018E5F8093E801CD
:104DF000E1DB81110EC080912D048E5F80932D0424
:104E000080912D04E82FF0E0E85CFB4FC491CF3F88
:104E100059F480919A0280939E028436B9F480916D
:104E2000140480939C0212C0C0939A0297E7909357
:104E30009B029091130490939C028E5F80932D04AB
:104E400010929E028E3021F0CC23D1F008DC18C0E5
:104E500088E992E06CDBFC01892B81F0808190E095
:104E600027E932E0281B390BE217F30730F4DF01A2
:104E7000A80FB91F4C914193F7CF10824DDBE4CFBF
:104E8000CDB7DEB7E5E089C5FF920F931F93CF93AF
:104E9000DF93EC01FC0101900020E9F731978F01CD
:104EA000081B190B8981823751F487E390E00E9437
:104EB00076030E94E30381E08093530425C0833787
:104EC00009F5F02E28988FE70E94EA028EEF800FF6
:104ED0000E94EA02229612E01F1528F489910E948E
:104EE000EA021F5FF9CF289A0E94D1038AE30E9449
:104EF00059038F7721F081E00E94C306F7CF0E940B
:104F0000E30302C010925304CDB7DEB7E5E045C518
:104F1000A0E8B0E0EDE8F7E221C5809153048823D2
:104F200009F454C0813011F5809128039091290330
:104F3000A0912A03B0912B0320919F02281709F416
:104F400045C085E30E945903813129F48AE30E9418
:104F500072030E94E3038091280390912903A0919A
:104F60002A03B0912B0380939F0230C08FE30E94ED
:104F70005903F82E87FD27C028988FEF0E94EA0278
:104F80008E010F5F1F4F6801E02E8C2D801B8F1547
:104F900038F480E00E94EA02F60181936F01F5CFB8
:104FA000289A81E080932401802F8E198F1530F488
:104FB000F80181918F010E943007F6CF0E947C0793
:104FC0008FEF8093240181E080935304C058DF4F1A
:104FD000E8E0E0C40F931F93CF93DF938C01D0E000
:104FE0002D2F30E0F901EE0FFF1F2E0F3F1FF901AB
:104FF000E054FF4FC4912F533F4FF9014591549115
:10500000CC23A9F00115110539F480E20E94300784
:105010008C2F0E94300709C0F80180818C1305C0D5
:10502000C801FA01099581E003C0DF5FD9CF80E0B4
:10503000DF91CF911F910F910895CF93C0912401DB
:10504000809324018091D9048823A1F187ED94E015
:105050000E949709E091A0028A3011F08D30F9F496
:10506000EE2381F3F0E0EF55FD4F108281EA92E0EC
:10507000B1DF811111C08DE594E00E946F0781EAD4
:1050800092E00E94640785E494E00E946F0780E04C
:1050900090E0A0DF0E947C071092A002D3CFE7FD32
:1050A000D1CF91E09E0F9093A002F0E0EF55FD4F1D
:1050B0008083C8CFC0932401CF910895E4E6F0E047
:1050C00080818B7F8083299A84B1876084B92398FB
:1050D00080E58CBD8DB581608DBD089520916705FB
:1050E000309168052115310521F420911801309186
:1050F00019018091160190911701009741F48DB725
:105100009EB740911A0150911B01841B950B2817E3
:10511000390718F4821B930B089580E090E00895FE
:1051200082E40E94300740E265E08091670590913B
:1051300068050E9480070E947C0783E50E94300773
:1051400040E265E080911801909119010E9480076A
:105150000E947C0785E40E94300740E265E0809170
:105160001601909117010E9480070E947C0786E437
:105170000E943007B3DF40E265E00E9480070C9494
:105180007C07A2E0B0E0E6ECF8E2EEC3EFE5F5E084
:1051900088E08E0F9091F10091938E13FBCF809158
:1051A0005F0590916005492F50E04A30510508F0A5
:1051B0001CC1FA01EA5AFF4FC1C3803879F0823826
:1051C00009F013C1809163058093E9008091EB00A1
:1051D00085FB882780F91092E90006C080915A0566
:1051E00090915B05911182609091E800977F909378
:1051F000E8008093F1001092F1008091E800982F70
:105200009E7F9093E8008F778093E8008091E8007C
:1052100082FDB1C080915E058111F8CFD7C0282FE3
:105220002D7F09F0E2C0882319F0823061F036C08A
:1052300080916105813009F0C9C0933009F080E0A8
:1052400080935B052BC080916105811127C08091FF
:105250006305877009F4BAC08093E9002091EB00E0
:1052600020FF1CC09130A9F49091EB0090619093C5
:10527000EB0021E030E0A90102C0440F551F8A95E0
:10528000E2F74093EA001092EA008091EB00886018
:1052900003C08091EB0080628093EB001092E900E4
:1052A0008091E800877F8093E8008091E800982F44
:1052B0009E7F65C0811199C0809161059091E80041
:1052C000977F9093E8009091E800292F2E7F2093FC
:1052D000E8009F779093E8009091E80090FD05C06A
:1052E00090915E059111F8CF71C08F77982F9068DB
:1052F0009093E300882309F469C083E080935E05FE
:1053000065C08058823008F070C0AE014F5F5F4FBB
:105310006091630580916105909162050E94B002E1
:10532000BC01892B09F452C09091E800977F9093BB
:10533000E80089819A812BD11EC0803809F055C0C0
:105340008091E800877F8093E80080915C058093DE
:10535000F1008091E800982F9E7F9093E8008F776E
:105360008093E8008091E80082FD05C080915E0591
:105370008111F8CF2BC08091E800982F9B7F9093EC
:10538000E8008F778093E80021C081112EC09091B2
:1053900061059230D8F48091E800877F8093E8001F
:1053A00090935C058091E800982F9E7F9093E80091
:1053B0008F778093E80080915C05882311F084E06A
:1053C00001C083E080935E050E941A058091E80089
:1053D00083FF0EC08091EB0080628093EB00809190
:1053E000E800877F8093E80003C00E943205EECF7B
:1053F0002296E2E0D5C28093E900EBEEF0E08081F6
:1054000081608083EDEEF0E010826093EC004083D9
:105410008091EE00881F8827881F08951092F4005D
:1054200080E08093E9001092F0001092E8009091E3
:10543000ED009D7F9093ED009091EB009E7F909307
:10544000EB008F5F873069F7089580915F0587FFD4
:1054500012C08091E80082FD05C080915E05811137
:10546000F8CF16C08091E800982F9B7F0CC08091E8
:105470005E05882369F08091E80080FFF8CF809175
:10548000E800982F9E7F9093E8008F778093E80044
:10549000089595E62091EC00822F817020FF05C0D1
:1054A0008091E80080FF05C019C02091E80022FD2E
:1054B0001AC080915E05882399F08091EB0085FDEC
:1054C00011C08091E10082FFE5CF8091E1008B7FE8
:1054D0008093E1009150F1F683E0089580E0089513
:1054E00082E0089581E00895409165055091660538
:1054F0009B014617570708F49A0150E02115310522
:10550000A9F14091E80043FD3EC04091E80042FD12
:1055100034C040915E054423C1F14091E80040FF52
:10552000EDCFFC01CF012115310569F04091F2006A
:105530005091F3004830510530F481918093F1008F
:1055400021503109EFCF6091F2007091F30051E0EA
:105550006830710509F050E04091E800642F6E7FDB
:105560006093E8004F774093E800C8CF5111C9CF4E
:1055700004C080915E05882341F08091E80082FF9D
:10558000F8CF80E0089581E0089582E00895409189
:105590006505509166059B014617570708F49A0167
:1055A00050E021153105B1F14091E80043FD3FC0C5
:1055B0004091E80042FD35C040915E054423C9F1A9
:1055C0004091E80040FFEDCFFC01CF0121153105EE
:1055D00071F04091F2005091F3004830510538F4D9
:1055E00084918093F100215031093196EECF609182
:1055F000F2007091F30051E06830710509F050E05D
:105600004091E800642F6E7F6093E8004F774093ED
:10561000E800C7CF5111C8CF04C080915E05882330
:1056200041F08091E80082FFF8CF80E0089581E0AA
:10563000089582E008959C016115710551F18091F2
:10564000E80083FD2CC080915E05882351F1809194
:10565000E80082FFF1CF8091F2009091F300892B56
:1056600051F02F5F3F4F8091F100F9013197808316
:105670006150710981F79091E800892F8B7F8093A9
:10568000E8009F779093E800D7CF80915E0588234C
:1056900041F08091E80080FFF8CF80E0089581E03C
:1056A000089582E0089567D06ED010925E05109242
:1056B0005C0510925B0510925A058AE482BF19BC02
:1056C00089B5826089BD09B400FEFDCF8091D80004
:1056D000982F9F779093D80080688093D80080910E
:1056E000D70081608093D7008091D8008F7D809310
:1056F000D8008091E0008B7F8093E0008091E000F3
:105700008E7F8093E0008091E1008E7F8093E100A6
:105710008091E20081608093E2008091E100877FC8
:105720008093E1008091E20088608093E2008091A4
:10573000D80081608093D8000895B5DFE8EDF0E0EF
:1057400080818061808381E080935D0578940895F5
:10575000AADFE0EEF0E0808181608083E8EDF0E098
:1057600080818F77808319BC80818F7E80831092A7
:105770005D0508950895E8EDF0E080818E7F8083D7
:105780001092E20008951092DA001092E10008955C
:105790001F920F920FB60F9211242F933F934F93A6
:1057A0005F936F937F938F939F93AF93BF93EF9389
:1057B000FF938091DA0080FF15C08091D80080FFB0
:1057C00011C08091DA008E7F8093DA008091D90039
:1057D00080FF05C081E080935E05CCDF03C010929E
:1057E0005E05C8DF8091E10080FF1DC08091E2006E
:1057F00080FF19C08091E1008E7F8093E10080914D
:10580000E2008E7F8093E2008091E20080618093CD
:10581000E2008091D80080628093D80019BC85E0B6
:1058200080935E05A7DF8091E10084FF29C080910D
:10583000E20084FF25C019BC89B5826089BD09B426
:1058400000FEFDCF8091D8008F7D8093D80080919D
:10585000E1008F7E8093E1008091E2008F7E809353
:10586000E2008091E20081608093E20080915C051B
:10587000811102C083E001C084E080935E057ADF7D
:105880008091E10083FF23C08091E20083FF1FC06D
:105890008091E100877F8093E10082E080935E0544
:1058A00010925C058091E1008E7F8093E1008091F1
:1058B000E2008E7F8093E2008091E200806180931D
:1058C000E200ACDD42E060E080E095DD53DFFF9177
:1058D000EF91BF91AF919F918F917F916F915F9168
:1058E0004F913F912F910F900FBE0F901F901895E1
:1058F000CF9380915E05882359F0C091E900C7706D
:105900001092E9008091E80083FD3BDCC093E90040
:10591000CF910895AA1BBB1B51E107C0AA1FBB1F53
:10592000A617B70710F0A61BB70B881F991F5A952B
:10593000A9F780959095BC01CD010895EE0FFF1F4A
:105940000590F491E02D09942F923F924F925F922F
:105950006F927F928F929F92AF92BF92CF92DF927F
:10596000EF92FF920F931F93CF93DF93CDB7DEB7E4
:10597000CA1BDB0B0FB6F894DEBF0FBECDBF099478
:105980002A88398848885F846E847D848C849B84CF
:10599000AA84B984C884DF80EE80FD800C811B81DD
:1059A000AA81B981CE0FD11D0FB6F894DEBF0FBE0C
:1059B000CDBFED010895CF93DF938230910510F4B0
:1059C00082E090E0E0916905F0916A0520E030E026
:1059D000C0E0D0E0309711F140815181481759075C
:1059E000C0F04817590761F482819381209719F01C
:1059F0009B838A832BC090936A058093690526C098
:105A00002115310519F04217530718F49A01BE0108
:105A1000DF01EF010280F381E02DDCCF211531059C
:105A200009F1281B390B2430310590F412968D9121
:105A30009C9113976115710521F0FB01938382837B
:105A400004C090936A0580936905FD01329644C0B5
:105A5000FD01E20FF31F81939193225031092D93A1
:105A60003C933AC02091670530916805232B41F49F
:105A70002091180130911901309368052093670532
:105A800020911601309117012115310541F42DB7F0
:105A90003EB740911A0150911B01241B350BE09138
:105AA0006705F0916805E217F307A0F42E1B3F0B82
:105AB0002817390778F0AC014E5F5F4F2417350780
:105AC00048F04E0F5F1F5093680540936705819320
:105AD000919302C0E0E0F0E0CF01DF91CF91089513
