:1000000043C200005DC200005BC200000C9483117B
:1000100057C2000055C2000053C2000051C2000088
:100020004FC200004DC200000C94C6270C949028CB
:1000300047C2000045C2000043C2000041C20000A8
:100040003FC200000C941D113BC2000039C20000E9
:1000500037C2000073C4000033C2000031C2000088
:100060002FC200002DC200002BC2000029C20000D8
:1000700027C2000025C2000023C2000021C20000E8
:100080001FC200001DC200001BC2000019C20000F8
:1000900017C2000015C2000013C2000011C2000008
:1000A0000FC200000DC200000BC200004227086210
:1000B000532C437303463B0A69E51A41AE165A1D99
:1000C0001945201A473E0A4D760A4BE50A556D0B35
:1000D00059171C52910754411F568C0857D3075883
:1000E000ED0C654C0866FE226D50246C160874FEFB
:1000F0000475CC13782A040000000E034300550059
:100100004C0034003300330000000E034300550060
:100110004C003800360038000000160362007500FD
:10012000730077006100720065002E0064006500B6
:1001300000000403090409023E00020100C0320964
:100140000400000102020100052400100104240241
:10015000060524060001070582030800FF090401C3
:1001600000020A000000070504024000050705839D
:10017000024000051201100102000008EB034420B8
:1001800001000102DC01072E050DD391FF080500D7
:10019000000C0021656A2D3B1322F862073F181DF1
:1001A0001CC700B0876BF8B611EA2A001F41000D8A
:1001B0002E2D07D3913D04320000060021656A55BB
:1001C000E43023B900070018146C070090876BF81F
:1001D0005611E92A001F410000030F1E26270000C8
:1001E00000030F1E2536386700030F256740605057
:1001F00000030F275188838100030F2750C8C3C213
:100200000027000000000000006700000000000060
:10021000005000000000000000810000000000000D
:1002200000C2000000000000203D2000202F200020
:10023000504C4C300D0A00504C4C310D0A00203D02
:100240002000202F200043554C5F563300562032AB
:100250002E30302043554C343333005620322E306C
:10026000302043554C383638004C4F56460D0A0066
:10027000424F56460D0A000B08105B11F81547193E
:100280001D1A1C1BC71C001DB221B623EA00070261
:100290002E030D04E905CA070C0B060D210E650F90
:1002A0006A10C81193120315341733181819161B46
:1002B0004321562500261129592C812D353EC30096
:1002C00007024604C605260B0610C8119312031335
:1002D000221534173F182819161B432156250026CE
:1002E000110D210E650F6A070C160720F81E871FD7
:1002F0006B29592C812D353EC3FF004C454E45528C
:10030000520D0A004C4F56460D0A004C454E4552C0
:10031000520D0A0000070246030D049A057D0642AD
:10032000070C0B060D210E650F6A10C811931203FE
:1003300015341700181819161B431C6825002611C0
:10034000FF000000000000000000000000000000AE
:100350000D2E2D07D3913D04320000060010B07120
:1003600055E43023B900070018146C070090876B20
:10037000F85611E92A001F41000D2E2D07D3913D9B
:1003800004320000060010ABA5550A3023B900075F
:100390000018146C070090876BF85611E92A001FAB
:1003A000410000535300547D7DFFFF4B4B7E7E0088
:1003B0004E2F41004E2F4100454F420D0A004E2F57
:1003C00041003F20280020697320756E6B6E6F77A7
:1003D0006E2920557365206F6E65206F6600047668
:1003E00005961700000602000B080C000D210E6593
:1003F0000F6A106A114A1206132214F80A001547F0
:1004000021B622101818192E1A6D1B041C091DB2D2
:1004100023EA242A2500261F29592C812D352E094F
:1004200007040800090006FF3EC2FF0454053D17FB
:1004300000000602000B080C000D210E6B0FD010FF
:100440005C11041206132214F80A00154421B62286
:10045000101818192E1ABF1B431C091DB523EA24B6
:100460002A2500261F29592C812D352E090704081D
:1004700000090006FF3EC2FF534D4F444500544D56
:100480004F4445004F46460011241FBECFEFDAE02F
:10049000DEBFCDBF11E0A0E0B1E0E6E1F0E602C0D2
:1004A00005900D92A23AB107D9F729E0A2EAB1E08E
:1004B00001C01D92A731B207E1F70CD00C940930AE
:1004C0009FCDF89481E085BF82E085BFE0E0F8E34E
:1004D000099508952FE088E190E00FB6F894A8956B
:1004E000809360000FBE2093600090E080E80FB61C
:1004F000F89480936100909361000FBE2E9A2D9A1C
:1005000004B603FE0AC083E390E0F2D4882329F006
:1005100060E083E390E0E7D4D4DF89EF87BD84E037
:1005200085BD82E084BD80936E00109280008AE0D9
:100530008093810084B7877F84BF6E9A0E941B24BA
:10054000D8D523D30E94E11E0E94C70C89ED93E207
:100550009093A6038093A5030E94EE1289E08093F6
:10056000A501769816D30E94C50E5ED20E94442340
:100570000E946E140E946F150E94A7180E949B197A
:100580000E94412BEFCF292F33272230310539F03C
:100590002330310549F021303105F9F023C02EE335
:1005A00030E0E6E3F1E022C099278130910541F087
:1005B0008230910541F0892BA9F4E2E3F1E00AC011
:1005C000EAE1F1E007C01E9903C0EAEFF0E002C0E3
:1005D000EAE0F1E0249130E009C022E130E0E4E714
:1005E000F1E004C020E030E0E0E0F0E0DA01ED937B
:1005F000FC93C90108958EBD0DB407FEFDCF8EB5E5
:100600000895A1E0B0E0E7E0F3E00C94912E482FCC
:100610008A3008F048E088E0489F70011124E8ED36
:10062000F1E0EE0EFF1E8BE290E0F70164918C0189
:100630000F5F1F4F498357D4FFEFEF1AFF0AC8011E
:1006400049810333110589F74550453010F461E1C4
:1006500001C067E184E290E046D42196E6E00C9484
:10066000AD2ECF93DF9382E090E0FC01E355FE4F87
:100670006491EC01219637D4CE01CB32D105A9F794
:1006800087E390E0FC01E15BFE4F6491EC01219671
:100690002AD4CE01C036D105A9F71E9918C060E151
:1006A0008FE090E020D460EB80E190E01CD461E723
:1006B00081E190E018D460E184E490E014D460EB30
:1006C00085E490E010D461E786E490E00CD488E003
:1006D00098DFDF91CF9108952898806C8CDF80E0BF
:1006E0008ADF289A0895A1E0B0E0E9E7F3E00C94EE
:1006F000942E41E0BE016F5F7F4F019698D3892B06
:1007000021F18981893969F410E0812FE5DF8BD3EC
:10071000812F8770873009F412D31F5F1033A9F738
:1007200014C0DADF182F83E4C5D289817CD388E234
:1007300092E0F8D2812F77D38CE292E0F3D240E2BC
:1007400062E0812F90E0FFD2FAD22196E3E00C9490
:10075000B02EA1E0B0E0EFEAF3E00C94952E2898DB
:100760008064698348DF6981862F45DF289A219656
:10077000E2E00C94B12E28983EDF289A0895CF939A
:10078000CFEF07C08AE090E015D2C11102C0EA9A0B
:1007900007C084E3F0DFC1508077803199F7F7CF4D
:1007A000CF910895CF93EA9886E3E5DFCFEF05C0B8
:1007B0008AE090E0FFD1CC2331F085E3DCDFC1504B
:1007C00080778032A9F7CF910895EF92FF920F932F
:1007D0001F93CF93DF93EC0110925102EA98209A75
:1007E000289A8EE190E0E6D128988EE190E0E2D15F
:1007F000289A8DE290E0DED180E3BDDF84E690E0D0
:10080000D9D1289880E4F7DE8E01075D1F4F7E0165
:100810008FEFE81AF80ACE016BD3EDDEE701E016A0
:10082000F106A9F7289A28988EE7E5DE8BE290E09A
:10083000EC0121965DD3DFDECE01C333D105C1F7D4
:10084000289A83E398DF81E0BAD1CDB7DEB7E6E03E
:100850000C94AD2EA1E0B0E0E0E3F4E00C94952E12
:1008600022E0298341E0BE016F5F7F4F0196DFD216
:100870008981C7DE82E090E0A8DF2196E2E00C9457
:10088000B12E86E378DF1092A70310924F021092E8
:100890005102089582E090E098DF81E08093A70301
:1008A00010924F021092510208951F93CF93DF933D
:1008B000D82F162FC0E085E30FDF8D1739F0812F79
:1008C00090E078D1C150B9F781E001C080E0DF91BC
:1008D000CF911F91089585E2FFDE8F3311F080E004
:1008E000089586E348DF8091A201811104C080E36E
:1008F00092E018D202C08DE33EDF83E33CDF64E088
:1009000081E0D3DF85E2E8DE8F3349F78091A201F1
:10091000811103C087E392E005D281E0089585E369
:10092000DBDE8D3051F485E2D7DE8F3331F4D3DF57
:1009300084E321DF80778031D9F708951F920F92E9
:100940000FB60F9211248F939F93AF93BF93EF93A2
:10095000FF938091A9039091AA03A091AB03B0915A
:10096000AC030196A11DB11D8093A9039093AA0326
:10097000A093AB03B093AC038091A8038F5F8093E7
:10098000A803EAE4F4E080819181181619061CF4AA
:10099000019791838083369684E0E236F80799F7D1
:1009A0008091640490916504009729F001979093D9
:1009B000650480936404809177048F3F19F081501F
:1009C00080937704FF91EF91BF91AF919F918F91A9
:1009D0000F900FBE0F901F9018952FB7F89440916D
:1009E000A9035091AA036091AB037091AC03FC0181
:1009F00040835183628373832FBF0895A4E0B0E0E6
:100A0000E4E0F5E00C94952ECE010196E6DF8C81B2
:100A10000AD28B8108D28A8106D2898104D28FD1F1
:100A20002496E2E00C94B12E1F93CF93DF93809134
:100A3000A9039091AA03A091AB03B091AC032091BC
:100A4000A301281709F45FC08091A9039091AA031C
:100A5000A091AB03B091AC038093A301A895CAE425
:100A6000D4E010E028813981232B19F4812F0E94D2
:100A700073211F5F26961430A9F78091640490912A
:100A80006504892B11F40E94CB2180917704811198
:100A900002C00E94262280913B04882339F08150B5
:100AA00080933B04811102C00E9402158091A8032B
:100AB0008D3748F11092A80380911B0181FF04C07B
:100AC0008EB190E489278EB98091AD039091AE03E9
:100AD000843823E0920728F401969093AE03809324
:100AE000AD038091A4018F5F8093A4018C3359F4EE
:100AF0001092A401809149048F5F809349048C3344
:100B000010F010924904DF91CF911F910895CF9377
:100B100020C080E091E00E94812997FF16C087E8FD
:100B200095E09093A4038093A303E091A503F09133
:100B3000A60381E00995809101018F708093E900FF
:100B400080918B0481110AC01EC0682F8CE095E053
:100B5000F8D280910E0587FFDCCFE1CF8091E800CD
:100B600080FD0AC010C089E894E001D3682F80E0BE
:100B700091E00E94142901C0C1E480918B04882374
:100B800011F0C15081F7CF9108950E94A927789460
:100B90000895BDDF80E091E00E946B290C94D42879
:100BA0000895089580E091E00C94F02880E091E0B1
:100BB0000C94B929880F991F0197F1F7089520ED3A
:100BC00037E003C0F9013197F1F78150D8F7089564
:100BD000CF93DF93FC018381843509F068C0808165
:100BE00020E030E0422F435F481750F050E090E0A3
:100BF0009C012F5031094217530709F058C00AC011
:100C00002F5F3F4FDF01A20FB31F1F969C919B33B5
:100C100049F7ECCFAC014E5051094E0F5F1FDA017E
:100C200013962C91243509F042C0DC011B97AE0FBE
:100C3000BF1F348111962C911197321338C0358122
:100C400012962C911297321332C0368113962C9142
:100C5000139732132CC0378114962C9114973213AA
:100C600026C0419715962C9115978E0F9F1FEC016A
:100C70002B8316968C911697EA01898319968C918D
:100C800019978A831A968C911A978B831B968C914D
:100C90001B978C831C968C911C978D831D968C9131
:100CA0008E8380818A50808382818A508283DF9103
:100CB000CF910895CF93C82F80919305843041F44C
:100CC0008091A50180FF04C06C2F89E894E039D29F
:100CD000809146048823C9F08091A50183FF15C047
:100CE000CA3099F0CD3011F46BE301C06C2F86EB64
:100CF00093E027D2CD3019F486EB93E069DF83E0EF
:100D000080933B0482E080934104CF910895CF9378
:100D1000DF93EC0101C0CEDF89918111FCCFDF911F
:100D2000CF910895CF93DF93EC0102C0C3DF2196EA
:100D3000FE0184918111FACFDF91CF9108958DE06A
:100D4000B9DF8AE0B7CFA6E0B0E0E9EAF6E00C94BC
:100D5000932E062F1E8215E02AE030E01150E1E0CC
:100D6000F0E0EC0FFD1FE10FF11DB9010E945E2EB6
:100D7000805D8083CB010150009759F01111EECFB7
:100D800008C01150E1E0F0E0EC0FFD1FE10FF11D94
:100D90004083015007FD02C01111F3CF81E090E0C4
:100DA0008C0F9D1F810F911DB2DF2696E4E00C94FD
:100DB000AF2EA5E0B0E0EFEDF6E00C94952E1D828D
:100DC00024E0382F3F702150E22FF0E03A3010F449
:100DD000305D01C0395CA1E0B0E0AC0FBD1FEA0F8F
:100DE000FB1F308334E0969587953A95E1F7615083
:100DF000009739F708C02150E1E0F0E0EC0FFD1F4B
:100E0000E20FF11D4083615067FD02C02111F3CF55
:100E100081E090E08C0F9D1F820F911D78DF259659
:100E2000E2E00C94B12E40E362E090E0C2CFFB011F
:100E300022C0213608F02052A22FA053AA3010F46D
:100E40002A2F05C0A22FA154A63018F42753232B14
:100E500005C0203291F02A3381F005C0552331F0CE
:100E60002193415041F4E61BF70B0DC0322F329510
:100E7000307F51E002C050E030E0DC012D91CD0127
:100E80002111D7CFF0CFCF01089520E030E05AE014
:100E90000EC0E42FE053EA3050F4F9015E9F900158
:100EA0005F9F300D112420533109240F311DFC01A7
:100EB0004191CF014111EDCFFB0131832083089592
:100EC000982F92959F709A3010F4905D01C0995CB4
:100ED000FB0190838F708A3010F4805D01C0895CC3
:100EE000FB01818308950E94FB2FF999FECF08959D
:100EF0000C94F32F08951F93CF93DF930AC0EC0156
:100F00002196F6DF90DF112311F08AE3D3DE612F03
:100F1000CE01162F11506111F2CFDF91CF911F91A9
:100F20000895A2E0B0E0E7E9F7E00C94922EFC010E
:100F300021812D3421F466E08AEF93E005C020354D
:100F400029F460E18AED93E0D6DF28C01A82198285
:100F500042E0BE016F5F7F4F019669DF9981823069
:100F600029F4192F00E08A81082B02C0092F10E014
:100F7000C801BEDFF82E82E59DDE40E364E0C801D3
:100F800018DF8EE392E0CEDE8F2D4DDF82E492E01B
:100F9000C9DE40E262E08F2D90E0D5DED0DE229601
:100FA000E5E00C94AE2EA6E0B0E0E9EDF7E00C949D
:100FB0008F2E6C0143E0BE016F5F7F4F019637DFDC
:100FC000823080F12981823019F4E22EF12C04C0A4
:100FD000F22EE12C2A81E22A8C011127FE01E00F7A
:100FE000F11F6081C7017FDF000F111F0F5F1F4FCF
:100FF0000C0D1D1D8FEFE81AF80A10C041E0BE016C
:101000006F5F7F4FC80113DF892B61F06981C701D2
:101010006ADF0E5F1F4FE2E0EE0EF11CF8018081E7
:101020008111ECCF2696E8E00C94AB2E41E06BE109
:1010300071E00196FCDE80911B0180FF02C0769A70
:1010400001C0769860911B0184E390E04CCFA1E051
:10105000B0E0EDE2F8E00C94952E1982009731F0A3
:1010600041E0BE016F5F7F4F0196E1DE89818823F9
:1010700021F061E083E390E036DF10926E00F89497
:1010800028E088E190E00FB6F894A895809360007E
:101090000FBE20936000FFCFCF93DF93EC0162E09F
:1010A00080E090E020DF60E081E090E01CDFD9DAB2
:1010B00060E080E690E017DF60E081E690E013DF1B
:1010C00060E083E390E00FDF62E084E390E00BDF19
:1010D00060E080E690E007DF60E081E690E003DF1B
:1010E0008981883719F080E090E0B1DFDF91CF91FE
:1010F000089580E090E0FCDE823029F481E090E009
:10110000F7DE882319F080E090E0C6DF84E390E00A
:10111000EFDE80931B010895FC018181883419F46E
:1011200086E492E007C01E9903C08DE492E002C0FD
:101130008BE592E0F7DD03CEFC0112821082118272
:101140000895FC018FB7F894928197FD0EC09F5FC0
:1011500092839081DF01A90FB11D13966C939F5F5D
:10116000903811F0908301C010828FBF0895FC0168
:101170009FB7F8948281811101C00EC08150828393
:101180002181DF01A20FB11D13968C912F5F2038B2
:1011900011F0218301C011829FBF0895FA013081AF
:1011A000882369F0DB01A30FB11DE1E0F0E0022E1E
:1011B00001C0EE0F0A94EAF79C919E2B9C93222388
:1011C00019F0822F81500BC0832F8F5F8C3010F469
:1011D000FA018083FB01E80FF11D108287E090E0A7
:1011E0000895CF93C82F5B9A882319F08091AA01A4
:1011F00002C08091A80120E1829FC0011124DADCA5
:101200005B98CC2319F08091A90102C08091A701BD
:1012100020E1829FC0011124CDDCCF910895A6E08A
:10122000B0E0E5E1F9E00C94852E6C016983942E21
:10123000A22EEA82842F90E09E838D832091AD03BD
:101240003091AE030296089F802D1124992787FDC7
:1012500090952817390720F489E692E063DD7EC077
:10126000281B390B3093AE032093AD03769A8091FF
:101270005102882339F0109251028EE991E0ADD3EA
:1012800011E001C010E08091A703811101C002DBD1
:1012900089DAF981EF2FF0E0FC83EB83EE24E3940D
:1012A000F12CB12CC601890D911D97FC9A954C012A
:1012B000612C712C05C080E094DF9FEF691A790AD8
:1012C000EB81FC816E167F06B4F3F981FF2311F0E8
:1012D00081E087DF412C512C17C097E0292E312C5B
:1012E0003601640C751CC701022C01C0880F0A94DA
:1012F000EAF7F3019081892374DFF1E02F1A3108B6
:1013000090F79FEF491A590AED81FE814E165F064C
:1013100024F387E0682E712C0DC0C701062C01C094
:10132000880F0A94EAF7F401908189235ADFF1E0EB
:101330006F1A7108A614B70484F38A8140DC015047
:1013400009F0B6CF8091AF03882311F018DA02C0FC
:1013500086E311DA11110E94C61676982696E2E10C
:101360000C94A12EADE0B0E0E8EBF9E00C94882EEF
:101370007C01162F842F022F6701C60ED11C462F29
:10138000B70140D3D6018C931F5F1D8619825E2C56
:10139000670127E088248394912C32C047E0A42E73
:1013A000B12C3701680E711CF4010A2C01C0EE0F3C
:1013B0000A94EAF7D3018C91AE01435F5F4FBE01FF
:1013C0006F5F7F4F8E23EADE282FB1E0AB1AB108A2
:1013D00058F7D601ED916D010E2EE295E0250E2E07
:1013E000E695E695E025F0E03196E1FB882780F967
:1013F000AE01435F5F4FBE016F5F7F4FCFDE282F8F
:101400008C2D8519811708F4C9CF222311F02150A2
:1014100004C08D858F5F8D8727E089E18093A701C8
:101420008093A80185E28093A9018093AA013AE004
:10143000E32E4D856CE0CE010196F1DE2D96EFE0B6
:101440000C94A42EADE0B0E0E8E2FAE00C94942E07
:10145000162F242F4BE0BE016F5F7F4F01962D8723
:10146000E6DC2D85412F682FCE0101967BDF2D967E
:10147000E3E00C94B02E43E066E0E4CFEF920F93EC
:10148000CF93DF93CDB7DEB760970FB6F894DEBF8A
:101490000FBECDBF40E1BE016F5F7F4F0196C7DC3D
:1014A00069814A810B818C818093A8018D81809311
:1014B000A7018E818093AA018F818093A901E02EDC
:1014C000E2947FE0E7220F70242F2F7042954F7037
:1014D000CE010896A4DE60960FB6F894DEBF0FBE6C
:1014E000CDBFDF91CF910F91EF900895A9E1B0E0CA
:1014F000ECE7FAE00C948D2E4BE0BE016F5F7F4F5E
:10150000019695DC182F893009F05BC099E1909322
:10151000A7019093A8019093AA0182E38093A90167
:1015200069E0CE01019678D2E1E0F0E0EC0FFD1F1A
:10153000E10FF11D8083198E1D868E010F5F1F4FF5
:101540006E018BE0C80ED11C27E0AA24A394B12C15
:1015500025C0E12CF12CF5010E2C01C0EE0F0A94F0
:10156000EAF7D8018C91AE01475E5F4FBE01635F21
:101570007F4F8E2313DE282FBFEFEB1AFB0A88E084
:10158000E816F10441F7AE01475E5F4FBE01635FAD
:101590007F4F81E003DE282F0F5F1F4F0C151D05C5
:1015A000C1F6222311F0215004C0898D8F5F898FED
:1015B00027E0EAE0EE2E03E0498D6CE0CE010D96C7
:1015C0002EDE6996EAE00C94A92EA9E1B0E0EBEEDC
:1015D000FAE00C94882E4BE08E010F5F1F4FB8018C
:1015E000019625DCF82E582E85E38093A80196E11C
:1015F0009093A7019093AA018093A9016F2DC80130
:1016000017D2F801EF0DF11D80835394198E1D86BA
:10161000780127E0AA24A394B12C48014DC0C12C25
:10162000D12C3401680E711CF5010C2C01C0EE0F99
:101630000A94EAF7D3018C91AE01475E5F4FBE0179
:10164000635F7F4F8E23AADD282FBFEFCB1ADB0A03
:1016500084E0C816D10441F7AE01475E5F4FBE017A
:10166000635F7F4F81E09ADD282FB4E0CB2ED12C31
:10167000F5010C2C01C0EE0F0A94EAF7D7018C910A
:10168000AE01475E5F4FBE01635F7F4F8E2386DDF5
:10169000282FBFEFCB1ADB0A88E0C816D10441F728
:1016A000AE01475E5F4FBE01635F7F4F81E076DD35
:1016B000282FAFEFEA1AFA0A8E2D801B851508F441
:1016C000AECFAAE0EA2E03E0498D6AE0CE010D9686
:1016D000A6DD6996EFE00C94A42EEF920F93CF93C2
:1016E000DF9300D000D0CDB7DEB743E0BE016F5F1F
:1016F0007F4F01969CDB8AE68093A80194E2909349
:10170000A70191E29093AA018093A90180E88C83BC
:101710009FE0E92E03E026E043E060E0CE01019681
:101720007EDD0F900F900F900F90DF91CF910F9172
:10173000EF9008956F927F928F929F92BF92CF9277
:10174000DF92FF920F931F93CF93DF93A62F1092F8
:101750001B0210921C02FC016181660F660F660F6E
:101760002381621B695F10921D02F12C70E047E03B
:10177000F7E0DF2EC12C20E007E010E0C1E0D0E070
:101780007DC0FC01EC0DF11D248130E00D2C02C068
:10179000359527950A94E2F721703327522FDD20E3
:1017A00011F0DA9403C0C394E7E0DE2EAB3491F479
:1017B000433009F081C0F11007C051115CC0109294
:1017C0001B0270931C0276C0F12C79C0AB3409F077
:1017D00050C03CC04F3F41F5A634B9F4E72FF0E0CC
:1017E000E35EFD4F4081042E42954025042E469530
:1017F0004695402550E04F5F5F4F41FB882480F8BD
:10180000912C8216930641F004C0A53429F451119D
:1018100003C0F0921B02D5CF7F5FE72FF0E0E35EBD
:10182000FD4F108247E029C0552319F1A63459F421
:10183000E72FF0E0E35EFD4F9E01042E01C0220F72
:101840000A94EAF713C0A53409F0C0CFE72FF0E0FF
:10185000E35EFD4F9801241B310947FD33953E019E
:1018600002C0660C771C2A95E2F793013081322B77
:101870003083415002C0FF24F3942B2DB22EB39439
:10188000261708F47ECFF0921B0270931C026B1592
:1018900088F4A53419F44F3F09F404C080911B0269
:1018A000882319F07F5F70931C0281E090911C02E5
:1018B000911108C080E006C04F3F09F4A8CF511134
:1018C000C5CFD7CFDF91CF911F910F91FF90DF90C0
:1018D000CF90BF909F908F907F906F9008951092BF
:1018E0006F00E0914E028CE1E89FF0011124E55574
:1018F000FE4F10820895FC01218130E050E070819C
:10190000C901841B950B0B964797C8F4872F90E06D
:1019100070E0FC01E61BF70BEC30F10584F4E53FC9
:10192000FF4F6CF0280F391F640F751F261B370BF4
:101930002C30310524F481E0253F3F4F0CF480E04A
:101940000895FC012181243108F0C9CF662389F074
:10195000DC01A20FB11D81E090E0038002C0880F7E
:10196000991F0A94E2F714969C911497982B149659
:101970009C938381882319F081508383089587E0A5
:1019800083832F5F2183E20FF11D14820895539A00
:101990005B985298E9E6F0E080818061808382EC78
:1019A00091E09093AE038093AD031092C701109223
:1019B000E3011092FF011092A70308958091A20302
:1019C00081110AC08091AF03882321F00E944A044C
:1019D0000C94BF030C9441040895FC012181211152
:1019E0000BC08091AF031FDA40E265E08091AD0348
:1019F0009091AE03A8D9A3C941E06FEA73E00196C4
:101A000016DADCCF06C04150FB01E40FF11D9081D6
:101A1000890F4111F8CF089520E006C06150FC0104
:101A2000E60FF11D308123276111F8CF822F089531
:101A3000A0911B0240E035E020E012C06150FC01A3
:101A4000E60FF11D5081752F72957F702727370F94
:101A5000AA2311F0442319F05F702527350F4F5F3B
:101A60006111ECCF320F40E1349FC0011124822B71
:101A70000895FC0132812381A081B181A30FB11DA2
:101A80008C9190E0022E02C0959587950A94E2F71A
:101A90008170922F91509383211104C03F5F328354
:101AA00097E0938308958F929F92BF92CF92DF9297
:101AB000EF92FF920F931F93CF93DF9300D0CDB798
:101AC000DEB76C01812C912CB12CEE24E394F12C27
:101AD000062F10E0015011091DC0C6014A83698319
:101AE000C8DF4A816981882391F0442349F0980135
:101AF000281939098E2D01C0880F2A95EAF706C0EA
:101B00008E2D082C01C0880F0A94EAF7B82A8FEFAF
:101B1000881A980A861608F38B2D0F900F90DF9184
:101B2000CF911F910F91FF90EF90DF90CF90BF90DA
:101B30009F908F900895A4E0B0E0E1EAFDE00C945E
:101B40008C2E1B8227E02C839C012C5F3F4F3A8315
:101B5000298310921C02FC012181338187E090E0EF
:101B6000831B9109F8E02F9F800D911D112485346E
:101B700091057CF554C00A2D10E040E068E0CE01EC
:101B8000019691DF035E1D4FF8018083982E092C8A
:101B900092949024092C969496949024CE010196C8
:101BA00068DF292D30E02F5F3F4F21FBCC24C0F8A8
:101BB000D12C90E0C816D90691F5CE01019659DFD7
:101BC00081112DC0F8018081B826A394A0921C0237
:101BD00001C0B12CA0901C02F5E0FA1560F640E0BF
:101BE00068E0CE0101965FDF082F182F012E1295B5
:101BF0001025012E169516951025CE01019639DF78
:101C0000212F30E02F5F3F4F21FBEE24E0F8F12C35
:101C1000282F30E0E216F30611F481E0B01280E0E4
:101C20002496EBE00C94A82EA5E0B0E0EAE1FEE0FB
:101C30000C94922EFC011B8287E08C83CF010496CA
:101C40009A83898310921C028081853009F04EC0EE
:101C50002181338187E090E0831B910938E0239F45
:101C6000800D911D11248039910509F03FC00FE0CE
:101C700010EF29E812C0CE0101962D8314DF080F62
:101C8000111DEF2DF0E0E35EFD4F2D81282720830D
:101C9000282F2C5DF394F0921C02F0901C028EE031
:101CA00041E068E08F1538F7CE010196FCDE080FA1
:101CB000111DEF2DF0E0E35EFD4F80958083F394DE
:101CC000F0921C0241E068E0CE010196ECDE382F74
:101CD00020E0021B130B41E068E0CE010196E3DE39
:101CE000282F30E081E00217130709F080E02596E5
:101CF000E5E00C94AE2EA4E0B0E0E1E8FEE00C9448
:101D0000942E1B8227E02C839C012C5F3F4F3A834B
:101D10002983FC012181243099F58381813081F56B
:101D200010921C0214C0111106C067E0CE0101968A
:101D3000BADE806804C068E0CE010196B4DEE12F0F
:101D4000F0E0E35EFD4F80831F5F10931C02109153
:101D50001C0241E0143038F367E0CE010196A3DEA7
:101D6000E12FF0E0E35EFD4F880F80831F5F10934B
:101D70001C0290911D0292959F7081E09A3009F0AB
:101D800080E02496E3E00C94B02EA0E0B0E0EBEC11
:101D9000FEE00C948F2E809131028823B9F180915E
:101DA000AF0387FF17C084E30E946C038058803420
:101DB00058F0803C58F490E080559109B3E0959537
:101DC0008795BA95E1F703C080E001C08FE08F5995
:101DD0000E945A068091AF0383FF16C082E70E94DB
:101DE0005A068091AF0384FF04C0809132020E94A2
:101DF0005A0686E60E945A068091AF0384FF04C00B
:101E0000809131020E945A06109231028091330271
:101E1000882309F40DC2769AC09134022CE1C29F46
:101E2000E0011124C555DE4FCE01FEDE8111C7C190
:101E3000C0C110911C02115010931C02412F6DE182
:101E400072E086E0DFDD612F70E0FB01E35EFD4FB5
:101E50000081801303C0143008F0B3C1282F30E094
:101E60002F5F3F4FE02FF0E02E173F0739F414307B
:101E700028F0FB01E35EFD4F8083A3C1412F6DE19C
:101E800072E08CE0BFDD801731F065E4CE0152DCFA
:101E9000811105C09AC1143008F095C1F6CF809128
:101EA0001C02815080931C02893009F08EC169E0C8
:101EB0008DE192E0B1DD90912602891386C18AC13D
:101EC000F0901C02FA94F0921C026F2D8DE192E0CA
:101ED000AFDDEF2DF0E090911B02E91BF109E35E0D
:101EE000FD4F9081891709F492C18B81873009F0E9
:101EF00090C11B828981815089838DC18B818430FF
:101F000009F0D4C04EE16CE3CE014896F4DC88239E
:101F100009F4CCC04EE16E2DC801EDDC682FCE0176
:101F200010DD20E0822F90E0FC01E35EFD4FDE013A
:101F3000A80FB91F14968C9180832F5F253090F3E2
:101F40006FC1A1FD5DC030913502B0911C023B1301
:101F500033C020E014C0822F90E0422F4F5FFC017D
:101F6000EA5CFD4F835E9D4F5081FC0180815817D4
:101F700029F02093350223131FC004C0242F2317F8
:101F800050F3F7CF4091A9035091AA036091AB039E
:101F90007091AC03C0904A02D0904B02E0904C028A
:101FA000F0904D024C195D096E097F0931E046320F
:101FB00051056105710508F030E020E00CC0822F6A
:101FC00090E0AC014A5C5D4F835E9D4FFC018081D7
:101FD000FA0180832F5F2B1790F3209335024091F5
:101FE000A9035091AA036091AB037091AC03409395
:101FF0004A0250934B0260934C0270934D0201C011
:1020000030E00435E9F4A6FD1BC080911C02853048
:10201000B8F080911F028B3409F449C0893609F465
:1020200046C0833509F443C0843509F440C08D3778
:10203000F1F18E37E1F18091200280778037B9F19C
:10204000311135C0802F0E945A0680911B028823CF
:1020500029F080911C02815080931C0210E008C07E
:10206000E12FF0E0E35EFD4F80810E9413071F5FC8
:10207000E0911C021E17A0F380911B02882351F0EF
:10208000F0E0E35EFD4F808140E361E08F7090E01F
:102090000E94D9068091AF0385FF05C084E30E94AA
:1020A0006C030E9413070E949F0601C000E080910C
:1020B000AF0382FF65C080E70E945A0640E262E0FB
:1020C000888190E00E94A306888D40E265E0F0E1FF
:1020D0008F9FC00111240E94A306898D40E265E014
:1020E00020E1829FC00111240E94A3068A8D40E254
:1020F00065E0E0E18E9FC00111240E94A3068B8D54
:1021000040E265E0F0E18F9FC00111240E94A30628
:1021100040E263E08A8190E00E94A30640E263E02F
:10212000898190E00E94A3062B8140E262E087E073
:1021300090E0821B91090E94A30680E20E945A0649
:102140008091AF0385FF08C084E30E946C030E9466
:10215000130780E20E945A068B81873019F089812B
:102160008F5F898310E007C0FE01E10FF11D8481BC
:102170000E9413071F5F89811817B0F30E949F0602
:10218000188280913302815080933302809134020F
:102190008F5F843019F08093340202C010923402B1
:1021A0007698043509F044C08DE192E00E94352212
:1021B0003FC066E4CE01BEDA81113BCE66CE03E5B8
:1021C00032C006E430C004E52EC0CE01B4DC81117B
:1021D00008C002C005E427C0CE018DDD811103C017
:1021E00004C008E420C004E71EC0E09032028E0163
:1021F000065E1F4F4B8D6E2DC8017DDB682FCE0113
:10220000A0DB6BE4CE0196DA81115ACE6ECE0BE4E0
:102210000AC08F5F8B838981843009F46FCE46CFEB
:1022200020931C0202E5A091AF03A0FD8ACE3FCF10
:10223000CDB7DEB7E8E00C94AB2E1F920F920FB62D
:102240000F9211242F933F934F935F936F937F933C
:102250008F939F93AF93BF93EF93FF9310926F0071
:102260008091AF0383FF03C08EE20E945A068091E3
:102270004E029CE1899FF0011124E555FE4F9081AB
:10228000933018F09181923010F429DB18C09091AE
:102290003302933049F48091AF0382FFF6CF80E799
:1022A00092E00E949206F1CF9F5F909333028F5F7E
:1022B000843019F080934E0202C010924E02FF91BA
:1022C000EF91BF91AF919F918F917F916F915F91AE
:1022D0004F913F912F910F900FBE0F901F90189527
:1022E000982F9552973160F46A3050F0673240F47D
:1022F00021E030E0681710F020E030E0C9010895D7
:1023000080E090E008951F920F920FB60F92112473
:102310000F931F932F933F934F935F936F937F93ED
:102320008F939F93AF93BF93CF93DF93EF93FF93DD
:1023300080918804882321F082E08093880422C160
:1023400080913C04823021F483E080933C041AC1E4
:102350008091840090918500E4E096958795EA95B8
:10236000E1F7182FC0914E028CE1C89FE0011124C3
:10237000C555DE4F8881843031F41E3208F402C125
:102380001F3448F0A3C0853031F4173108F4FAC087
:10239000183208F09BC04A990DC08450823038F43E
:1023A00061E0CE01CEDA1092850010928400109385
:1023B0003202E8C000913202101B109331021092D9
:1023C00085001092840088818450823020F460E07F
:1023D000CE01B7DAD7C082E086BB8881811111C0F7
:1023E00090913202953608F0CDC080913102853649
:1023F00008F0C8C0988F898F81E08A8382E0888343
:10240000C1C0412F602F823009F070C0CE014896C4
:1024100072DA882301F1888D90E09C01220F331F2E
:10242000280F391F200F311D359527953595279594
:10243000288F298D30E0C901880F991F820F931FC3
:10244000810F911D9595879595958795898F8A819F
:102450008F5F8A8397C08A81843008F445C080EA00
:102460009FE090938900809388008A818C3050F09F
:10247000888D298D30E0280F311D2536310524F057
:1024800084E027C08A3088F0888D298D30E0280FBD
:10249000311D253231054CF485E0888388EE93E0C8
:1024A000909389008093880015C08091B50388239C
:1024B00079F0612F802F14DF882351F0688D898D8A
:1024C0000FDF882329F081E080933C0408DA5AC0AA
:1024D00083E088830A8F1B8F198287E08B831C829D
:1024E00082E080936F004EC018827ACFCE014A9668
:1024F00002DA882301F161E0CE0123DA4A8D50E04F
:102500009A01220F331F240F351F200F311D3595DF
:102510002795359527952A8F2B8D30E0C901880F97
:10252000991F820F931F810F911D95958795959502
:1025300087958B8F27C0412F602FCE014896DBD91E
:10254000882309F4C3CF60E0CE01FBD9488D50E069
:102550009A01220F331F240F351F200F311D35958F
:10256000279535952795288F298D30E0C901880F4B
:10257000991F820F931F810F911D959587959595B2
:102580008795898FFF91EF91DF91CF91BF91AF91A7
:102590009F918F917F916F915F914F913F912F917B
:1025A0001F910F910F900FBE0F901F901895E09103
:1025B0004E028CE1E89FF0011124E555FE4F808129
:1025C000811109C081E090E0209177042F3F29F428
:1025D00080E090E0089581E090E0089580E690E04A
:1025E0000E9478078093B50381E690E00E94780707
:1025F00080934604882321F081E28093AF03DEC9F3
:1026000008955B9A0C94DA055B980C94DA05A7E0C0
:10261000B0E0EDE0F3E10C94902E9091BE03943580
:1026200059F420913F04309140042F5F3F4F309385
:10263000400420933F043EC0963459F420913D0459
:1026400030913E042F5F3F4F30933E0420933D0472
:1026500031C0953459F42091B2033091B3032F5F08
:102660003F4F3093B3032093B20324C09B3459F4FB
:1026700020914204309143042F5F3F4F3093430435
:102680002093420417C0983459F4209144043091A7
:1026900045042F5F3F4F30934504209344040AC004
:1026A0002091B0033091B1032F5F3F4F3093B103BE
:1026B0002093B00395E79983882399F0BE016E5F5C
:1026C0007F4F809146040E946007BE016C5F7F4F80
:1026D0008091B5030E94600785E58E8396E0D92E30
:1026E00002C0DD24D3940E944A040E94D20316E063
:1026F00080E891E086DF80E093E086DF1150C1F74B
:1027000080E093E07EDF80E891E07EDF80E891E08A
:1027100078DF5B9887E390E00E94E50383E00E9406
:10272000DF0528988FE70E94FB028091B8038D0D8A
:102730000E94FB02EE24E394F12CEC0EFD1E8701B7
:10274000F80181918F010E94FB02802F8E198D1557
:10275000B8F306C086EB93E00E94B7080E94FB0224
:102760008091B8038111F6CF289A0E94D20386EB9C
:1027700093E00E949C0815E103C081E00E94DF0500
:102780008AE30E946C038F7711F01150B1F716D9CC
:102790002796E7E00C94AC2ECF93DF93EC01898170
:1027A000811107C08091B5030E94130780914604F0
:1027B00013C08436A1F48091A9039091AA03A0913B
:1027C000AB03B091AC0340E364E00E94D9068EE213
:1027D0000E945A0680913B040E9413074DC0833724
:1027E00009F04DC040E361E080913F0490914004C6
:1027F0000E94D9068EE20E945A0640E361E0809171
:102800003D0490913E040E94D9068EE20E945A0631
:1028100040E361E08091B2039091B3030E94D90636
:102820008EE20E945A0640E361E08091420490915A
:1028300043040E94D9068EE20E945A0640E361E0FA
:1028400080914404909145040E94D9068EE20E9432
:102850005A0640E361E08091B0039091B1030E9479
:10286000D9068EE20E945A0640E361E08091390465
:1028700090913A040E94D9060E949F062CC0893686
:10288000D9F441E065EB73E0CE0102960E94170790
:102890006091B50380E690E00E94730741E066E432
:1028A00074E0CE0104960E9417076091460481E609
:1028B00090E00E9473070FC086EB93E00E949C0893
:1028C000219604C086EB93E00E94A10869916111F2
:1028D000F9CF80E09CDEDF91CF910895A1E0B0E0D8
:1028E000E4E7F4E10C948F2E80913C04882309F4F2
:1028F00085C0C090A903D090AA03E090AB03F090EC
:10290000AC03833009F060C08FE30E946C03182F82
:102910008630C8F08CE095E00E949C0828988FEFE4
:102920000E94FB0280E00E94FB02082F08C080E0AA
:102930000E94FB02682F8CE095E00E94A1081150D4
:10294000B1F7289A01C000E039D810923C0405374D
:1029500009F054C041E0BE016F5F7F4F8FE095E00A
:102960000E941707019759F599818091B503981333
:1029700026C080911305853571F406C08CE095E082
:102980000E94B7080E945A0680910E058111F6CF69
:102990000E949F0633C080910E05845080930E05DF
:1029A00084E080930D056AE08CE095E00E94A10828
:1029B000E091A503F091A60388E009951FC08CE083
:1029C00095E00E949C081AC0823059F49091B4039B
:1029D0008C2D891B883090F00E94DE0C10923C04F4
:1029E0000DC0813059F487E390E00E94E5030E9416
:1029F000BF0382E080933C04C092B4032196E8E0D8
:102A00000C94AB2ED4DD882361F083E080934104E5
:102A10008091390490913A04019690933A048093FE
:102A2000390480914104815080934104882321F02E
:102A300083E080933B04089581E0E9CDCF93DF9359
:102A4000EA98209A289A8EE190E00E94DA05289868
:102A50008EE190E00E94DA05289A8DE290E00E94D3
:102A6000DA0580E30E94BB0384E690E00E94DA0569
:102A7000C0E0D0E0FE01E257FD4F6491FE01E35754
:102A8000FD4F84910E94A9032296C233D10591F78C
:102A900080915002811107C083E30E94BB0384E050
:102AA0000E94DF0511C0C0E0D0E0FE01E858FD4FF4
:102AB0006491FE01E958FD4F84910E94A90322967A
:102AC000C631D10591F7E8CF84E30E94BB0385E3CB
:102AD0000E946C038D30C1F7DF91CF910895A2E37E
:102AE000B0E0E5E7F5E10C94932E80914F02882346
:102AF00009F4A2C04A9B8BC08FE30E946C038F77BE
:102B00008983823368F08AE30E94BB0386E30E94D4
:102B1000BB038DE30E94BB0384E30E94BB038CC014
:102B200028988FEF0E94FB0210E00BC080E00E940B
:102B3000FB02E2E0F0E0EC0FFD1FE10FF11D8083EE
:102B40001F5F8981181790F380E00E94FB02082F15
:102B500080E00E94FB02289A84E30E94BB0385E385
:102B60000E946C038D30C1F72A8196E792279A83E1
:102B700092E00CC041E050E04C0F5D1FE40FF51FE8
:102B800030812452232720839F5F232F8981E92FBF
:102B9000F0E0981778F381E090E08C0F9D1FE80F2C
:102BA000F91F90818B81982790838091AF0384FFD8
:102BB00013C081E60E945A0610E00AC0E1E0F0E08E
:102BC000EC0FFD1FE10FF11D80810E945A061F5F6F
:102BD0008981811798F71BC081E40E945A0610E092
:102BE0000AC0E1E0F0E0EC0FFD1FE10FF11D808174
:102BF0000E9413071F5F8981811798F78091AF03A7
:102C000085FF03C0802F0E9413070E949F0685E363
:102C10000E946C03813029F0813161F48AE30E94C3
:102C2000BB0386E30E94BB038DE30E94BB0384E3E6
:102C30000E94BB030E948F04E296E4E00C94AF2E46
:102C4000A2E3B0E0E6E2F6E10C948F2E41E3BE0190
:102C50006F5F7F4F01960E9417077C019C0133270D
:102C600021503109898190E02817390709F072C095
:102C700080914F02811104C0E1DE83E00E94DF05F4
:102C80001B818A8196E789278A8392E009C0DE0149
:102C9000A20FB31F8C9184522081822780839F5F73
:102CA0008981292F30E0E1E0F0E0EC0FFD1FE20F19
:102CB000F31F981760F380818127808385E30E944A
:102CC000BB0385E30E946C038331C1F714FF08C086
:102CD00088E70E94DF0588E70E94DF0588E701C0DA
:102CE0008AE00E94DF0528988FE70E94FB02CC242F
:102CF000C394D12CCC0EDD1E860105C0F801819154
:102D00008F010E94FB02802F8C198E15B8F3289A30
:102D100085E30E946C038331D9F385E30E946C0341
:102D2000863149F48BE30E94BB0386E30E94BB0318
:102D30008DE30E94BB0380914F02882349F084E316
:102D40000E94BB0385E30E946C038D30C1F702C073
:102D50000E94DE0CE296E8E00C94AB2EFC0121818F
:102D6000223731F0223559F481E08093500202C0BD
:102D70001092500263DE81E080934F020895233762
:102D800011F401965DCF10924F020895CF93DF9317
:102D9000EA98209A289A8EE190E00E94DA05289815
:102DA0008EE190E00E94DA05289A8DE290E00E9480
:102DB000DA0580E30E94BB0384E690E00E94DA0516
:102DC000C0E0D0E0FE01E154FD4F8491813440F039
:102DD00083E30E94BB0384E00E94DF05CFEF0BC0BA
:102DE000FE01E054FD4F64910E94A9032296CC336A
:102DF000D10541F7EDCF84E30E94BB038AE090E068
:102E00000E94DA05C150B9F781E080935102DF9149
:102E1000CF910895EF92FF920F931F93CF93DF937B
:102E2000EC018B01F880F3946115710519F0E4E66B
:102E3000F0E002C0E0E0F0E028E0F29EC0011124E2
:102E40006AE070E00E94722E9B012E0F3F1FC901A5
:102E5000AA2797FDA095BA2FE091AD03F091AE039C
:102E6000AF0160E070E0481759076A077B0728F454
:102E700084E093E00E949206D6C0E21BF30BF0932D
:102E8000AE03E093AD0380915102811101C07EDF5A
:102E900085E30E946C038D3071F08AE50E945A062A
:102EA00085E40E945A0682E50E945A0682E50E9445
:102EB0005A0681E34CC08091580290915902A0912A
:102EC0005A02B0915B02892B8A2B8B2B61F40E94F2
:102ED000D20385E30E946C03833109F443C02AC006
:102EE00081E00E94DF058091A9039091AA03A0913F
:102EF000AB03B091AC0340915802509159026091DC
:102F00005A0270915B0284179507A607B70741F331
:102F10008091A9039091AA03A091AB03B091AC0357
:102F20004F5F5F4F6F4F7F4F84179507A607B70717
:102F3000B9F2CDCF8AE50E945A0685E40E945A066E
:102F400082E50E945A0682E50E945A0682E30E94A8
:102F50005A0685E30E946C030E9413070E949F0695
:102F600015DF61C0012B41F428988FE70E94FB0216
:102F7000EC2E0C2F1D2F0EC00AE010E084E60E94FC
:102F8000DF0501501109D1F7EFCFF80181918F01D1
:102F90000E94FB02802F8E198F15B8F3289AC8EC77
:102FA00085E30E946C038D3031F485E30E946C034D
:102FB0008D3061F422C085E30E946C038331A9F750
:102FC00081E00E94DF05C15059F7EFCF8AE50E94EA
:102FD0005A0685E40E945A0682E50E945A0682E556
:102FE0000E945A0683E30E945A0685E30E946C03FE
:102FF0000E9413070E949F06C9DE80915102811131
:1030000002C00E94DE0C8091A9039091AA03A091B6
:10301000AB03B091AC038093580290935902A093F4
:103020005A02B0935B02CDB7DEB7E6E00C94AD2E4A
:10303000ACE0B0E0EEE1F8E10C94922EFC018BE004
:10304000898381818A831B8282E08C8387818D833F
:1030500080858E8381858F83848188878581898718
:1030600086818A871B861C8684E10E94DF0560E0DA
:1030700070E08E010F5F1F4FC801CCDE8AE50E9411
:103080005A06F12C07C0F801E80FF91F80810E9451
:103090001307F3948F2D90E0298130E0281739072A
:1030A00094F78091AF0385FF03C080E00E9413076F
:1030B0000E949F062C96E5E00C94AE2ECF93DF93F2
:1030C000EC0190915202911108C08091530281113C
:1030D00004C0809154028823B1F08B81803321F0A9
:1030E000803411F0803579F48F8189130CC0988574
:1030F00080915302981307C09985809154029813C8
:1031000002C0CE0195DF80915502811108C09091D7
:103110005602911104C0909157029923A9F0988109
:103120009B3091F49B81903479F49F8198130CC06B
:10313000988580915602981307C09985809157020F
:10314000981302C0CE0174DFDF91CF910895AEE1F4
:10315000B0E0EDEAF8E10C94912E809151028823C1
:1031600009F467C04A9B57C08FE30E946C038F77B6
:103170008E3108F401C08DE1898328988FEF0E9479
:10318000FB0210E00BC080E00E94FB02E2E0F0E0F6
:10319000EC0FFD1FE10FF11D80831F5F8981181760
:1031A00090F380E00E94FB02E82E80E00E94FB0288
:1031B000289A8E010F5F1F4FC80180DF8091AF03F7
:1031C00084FF10C08AE70E945A06F12C07C0F8015C
:1031D000EF0DF11D80810E945A06F39489818F15AD
:1031E000B0F727C08AE50E945A06F12C07C0F80103
:1031F000EF0DF11D80810E941307F39489818F15D3
:10320000B0F78091AF0385FF03C08E2D0E94130796
:103210000E949F060EC085E30E946C03813149F431
:103220008AE30E94BB0386E30E94BB0384E30E94FF
:10323000BB036E96E6E00C94AD2EAEE1B0E0E3E2A7
:10324000F9E10C94932E8C01FC018181823711F4F9
:103250009DDD36C0833711F0863601F54DE1BE01A4
:103260006F5F7F4FC80102960E9417079927019749
:10327000298130E08217930729F08BE093E00E94C8
:1032800092061EC061E070E0F8018181833711F081
:1032900060E070E0CE010196BDDD12C0813621F400
:1032A00043E062E572E005C0873741F443E065E53D
:1032B00072E0C80102960E94170702C010925102E4
:1032C0006E96E4E00C94AF2ECF93DF93EA98209AA9
:1032D000289A8EE190E00E94DA0528988EE190E02D
:1032E0000E94DA05289A8DE290E00E94DA0580E3D8
:1032F0000E94BB0384E690E00E94DA05C0E0D0E0C3
:10330000FE01EC5EFC4F8491813438F083E30E942F
:10331000BB0381E00E94DF050BC0FE01EB5EFC4FAA
:1033200064910E94A9032296CC33D10549F7EECFD0
:10333000DF91CF910895AEE1B0E0E1EAF9E10C94BC
:10334000932E80915C02882309F476C04A9B61C069
:103350008FE30E946C038F778E3108F401C08DE1FA
:10336000898328988FEF0E94FB0210E00BC080E059
:103370000E94FB02E2E0F0E0EC0FFD1FE10FF11D07
:1033800080831F5F8981181790F380E00E94FB0201
:10339000082F289A8AE30E94BB0386E30E94BB039E
:1033A0008DE30E94BB0384E30E94BB038091AF03C3
:1033B00084FF13C087E70E945A0610E00AC0E1E0CC
:1033C000F0E0EC0FFD1FE10FF11D80810E945A0615
:1033D0001F5F8981811798F72FC087E50E945A06E1
:1033E00010E00AC0E1E0F0E0EC0FFD1FE10FF11D7D
:1033F00080810E9413071F5F8981811798F7809150
:10340000AF0385FF03C0802F0E9413070E949F0611
:1034100013C085E30E946C03813011F0813161F4A7
:103420008AE30E94BB0386E30E94BB038DE30E94F4
:10343000BB0384E30E94BB036E96E4E00C94AF2EC2
:10344000FC018181823729F43FDF81E080935C02B7
:103450000895833711F010925C020895282F80910F
:103460002101909122015B9A213069F49C01220F85
:10347000331F820F931F0E94DA055B988091210110
:10348000909122012EC0211120C00E94DA055B9884
:1034900080912101909122019C01220F331F820F04
:1034A000931F0E94DA055B9A80912101909122017D
:1034B0000E94DA055B9880912101909122019C0184
:1034C000220F331F820F931F1FC00E94DA055B98E3
:1034D00080912101909122019C01220F331F820FC4
:1034E000931F0E94DA055B9A80912101909122013D
:1034F0009C01220F331F820F931F0E94DA055B98F5
:1035000080912101909122010C94DA05CF93DF93F1
:10351000EA98209A289A8EE190E00E94DA0528988D
:103520008EE190E00E94DA05289A8DE290E00E94F8
:10353000DA0580E30E94BB0384E690E00E94DA058E
:10354000289880E40E94FB02C0E5D3E0FE0184914C
:103550000E94FB022196F3E0CD35DF07B9F7809199
:103560001C010E94FB0280911D010E94FB028091C0
:103570001E010E94FB02C0E0D0E0FE01E05AFC4FB9
:1035800084910E94FB022196C931D105B1F7289A96
:1035900028988EE70E94FB028BE290E0EC012196D6
:1035A0000E9478070E94FB02CE01C333D105B1F718
:1035B000289A83E30E94BB0381E00E94DF0581E03B
:1035C0008093A703DF91CF910895A0E0B0E0EBEEE8
:1035D000FAE10C948E2EEC018981843769F461E262
:1035E00071E0CE0102960E94450740E260E08091C2
:1035F00021019091220112C0833709F0A9C08A816C
:10360000823789F46FE171E0CE0103960E9445078D
:1036100040E260E080911F01909120010E94A3068A
:103620000E949F06FFC0769A80915F02811116C0AA
:1036300080914F02882329F081E080935E021092EE
:103640004F0280915102882329F081E080935D022E
:10365000109251025BDF83E00E94DF0586E30E9447
:10366000BB038AE30E94BB038BE30E94BB030E945F
:10367000D20300E010E06E0182E0C80ED11C23C02E
:10368000F70181917F01803311F480E005C081331F
:1036900011F481E001C082E0E1DEBA9489F75B9A1F
:1036A00080912101909122010E94DA055B98AFE19F
:1036B000FA2E80912101909122010E94DA05FA945C
:1036C000C1F70F5F1F4F80911F01909120010817D4
:1036D000190720F47601FCE0BF2ED2CF80915F0263
:1036E000882341F08091AF0381110EC086E30E94D0
:1036F000BB0317C080915E02882349F010925E02DE
:103700009DD981E080934F020E94BF030AC080913F
:103710005D02882321F010925D0238DB02C00E9416
:10372000DE0C769889E60E945A0683E70E945A06C4
:10373000229611E08991803309F404C0813309F4A1
:1037400001C086E40E945A061F5F1D3099F768CFBA
:103750008237B9F480914F02882329F081E0809369
:103760005E0210924F0280915102882329F081E07D
:1037700080935D0210925102C9DE81E080935F0266
:1037800051C0863651F58A81803351F480E18093AF
:103790001C0180EB80931D0181E780931E0107C00F
:1037A00043E06CE171E0CE0102960E94170789E6C2
:1037B0000E945A0686E60E945A068AE30E945A062A
:1037C00080911C010E94130780911D010E94130724
:1037D00080911E010E94130723CF883719F580912D
:1037E0005E02882339F010925E0228D981E080932E
:1037F0004F0210C080915D02882321F010925D027B
:10380000C5DA0EC082E090E00E94E5038091AF032C
:10381000882319F00E94BF0303C086E30E94BB0304
:1038200010925F02CDB7DEB7E9E00C94AA2EA2E0B9
:10383000B0E0EDE1FCE10C94872E7C01FC0181817C
:10384000833709F094C1198287E090E00E94BC2E72
:103850008C0141E0BE016F5F7F4FC70102960E945D
:1038600017078981F801808341E0BE016F5F7F4FB8
:10387000C70104960E9417072981207FF801218340
:1038800041E0BE016F5F7F4FC70106962A830E9409
:1038900017078981F801828341E0BE016F5F7F4F86
:1038A000C70108960E9417078981F801838341E0C8
:1038B000BE016F5F7F4FC7010A960E94170789817B
:1038C000F801868341E0BE016F5F7F4FC7010C9610
:1038D0000E9417078981F801858341E0BE016F5F6F
:1038E0007F4FC7010E960E9417078981F8018483D4
:1038F00080E090E02A814191342F32953F70342747
:1039000083279F5F9730B9F78F70822BF8018183EF
:1039100087E090E00E94BC2E5C0187E0F801D501B1
:1039200001900D928A95E1F7D8011196C80106968B
:10393000F8013D91219123272083E817F907C9F762
:10394000769A8091620281115EC080914F02882335
:1039500029F081E08093610210924F028091510220
:10396000882329F081E08093600210925102EA9846
:10397000209A289A8EE190E00E94DA0528988EE13C
:1039800090E00E94DA05289A8DE290E00E94DA0524
:1039900080E30E94BB0384E690E00E94DA05289849
:1039A00080E40E94FB0279E7E72E73E0F72EF7012F
:1039B00084910E94FB02FFEFEF1AFF0A22EAE2164F
:1039C00023E0F206A1F7289A28988EE70E94FB02CE
:1039D0008BE290E07C01EFEFEE1AFE0A0E9478077E
:1039E0000E94FB02C70183339105A1F7289A83E364
:1039F0000E94BB0381E00E94DF0581E08093A70362
:103A000083E00E94DF0586E30E94BB038AE30E94F5
:103A1000BB038BE30E94BB030E94D2035B9A87EC3B
:103A200094E20E94DA055B9889E50E94DF0585E350
:103A300092E00E94DA05E12CF12C54C0EE2011F046
:103A400027E001C022E0D12C5B9A86EF99E02A831F
:103A50000E94DA055B9886EF99E00E94DA05D3941C
:103A60002A81D2168CF35B9A8CEF92E10E94DA05E0
:103A70005B9880912301909124010E94DA056801EE
:103A8000512CF60181906F0158E0452E60E8662EBA
:103A9000712C912C9301282139218091230190913F
:103AA0002401232B29F45B9A0E94DA055B9804C059
:103AB0005B980E94DA055B9A809123019091240122
:103AC0000E94DA05769467944A9421F75394F7E0BC
:103AD0005F12D7CF5B9880E090E00E94DA052FEF6D
:103AE000E21AF20A8091270190E0E816F9060CF438
:103AF000A5CF80916202882341F08091AF038111AC
:103B00000FC086E30E94BB0318C080916102882326
:103B100051F0109261020E941E1581E080934F02C5
:103B20000E94BF030AC080916002882321F0109296
:103B300060022CD902C00E94DE0C769889E50E94B2
:103B40005A0683E70E945A06750137E0D32EF70123
:103B500081917F010E941307DA94C9F70E949F06A2
:103B6000C5010E94572FC8010E94572F6EC082378F
:103B7000A9F467E271E0C70102960E94450789E552
:103B80000E945A0682E70E945A068AE30E945A0659
:103B900040E260E08091270190E02CC0843779F505
:103BA000F7018281803339F488ED94E09093260107
:103BB0008093250106C065E271E0C70102960E946C
:103BC00045078091250190912601969587959093C0
:103BD00024018093230189E50E945A0684E70E940C
:103BE0005A068AE30E945A0640E266E08091250167
:103BF000909126010E94A3060E949F0626C0883746
:103C000021F580916102882341F0109261020E94A7
:103C10001E1581E080934F0210C0809160028823BE
:103C200021F010926002B2D80EC082E090E00E94B3
:103C3000E5038091AF03882319F00E94BF0303C0FE
:103C400086E30E94BB03109262022296E0E10C948C
:103C5000A32E109262041092110383E0809312034A
:103C60008FEF809377040895E3E6F2E00EC00097AB
:103C700051F04181DC013C91431305C04281119612
:103C80003C914317B1F0E20FF11D2081211105C0D5
:103C9000892B41F0E0E0F0E00CC0B3E0E131FB073C
:103CA00030F3F6CF33E0E131F30719F010F0E1E142
:103CB000F3E0CF01089594E0899FF0011124E858C2
:103CC000FB4F80818F3F91F080931303818180931C
:103CD000140382818093150383818093160321E06E
:103CE0004CE064E083E193E00C94B209089589E12B
:103CF00093E0BADF009799F020911203FC01308124
:103D0000231768F4E20FF11D808180931B0389E77C
:103D100080931C03818180931D0381E0089580E0DE
:103D20000895EF92FF921F93CF93DF931F92CDB729
:103D3000DEB7182F8091AF0386FF18C084E5998302
:103D40000E945A06E12E9981F92E15E0F701819122
:103D50007F010E9413071150C9F78091AF0385FFBF
:103D600003C08AEF0E9413070E949F060F90DF9105
:103D7000CF911F91FF90EF90089586E30E94BB03BF
:103D800080911B03833511F48BE901C08BE40E9401
:103D9000DF0521E04CE065E089E193E00E94B20993
:103DA0000E94BF0389E193E0BCCFE7DF80911B0352
:103DB000893631F081E08093180389E2809377049B
:103DC0000895CF9385E390E00E947807809348049C
:103DD00086E390E00E94780780937604CFEFC0934B
:103DE0006604C0936804C0936A04C0936C04C093D3
:103DF0006E04C0937004C0937204C093740429DFEE
:103E00001092630281E080934704C09378048FEF9F
:103E10009FEF90934B0480934A0410924D041092AC
:103E20004C0410924F0410924E04C0937C04909363
:103E30005104809350041092530410925204109233
:103E4000550410925404C0938004909357048093B7
:103E50005604109259041092580410925B04109268
:103E60005A04C093840490935D0480935C04109280
:103E70005F0410925E041092610410926004CF916E
:103E80000895ACE0B0E0E7E4FFE10C948E2E6C0105
:103E90008C010F5F1F4F45E0BE016F5F7F4FC80170
:103EA0000E941707843008F0F4C099819130A9F47A
:103EB000833061F46A8185E390E00E9473076B812F
:103EC00086E390E00E9473077CDF09C2809148047A
:103ED0000E941307809176049BC0923009F052C073
:103EE000813041F081E090E02A81213029F080E0AA
:103EF00090E002C081E090E0E82E809163028111A1
:103F000004C08EEB93E00E94920603E612E030C0FC
:103F100032E00336130719F080E20E945A06F801D6
:103F200081810E941307F80182810E941307E1102A
:103F300005C0F8018081080F111D1AC08AE30E9494
:103F40005A0693E0F92E0FC0F3E0FF1528F4F0FEB7
:103F500003C08CE20E945A06F801EF0DF11DF394A4
:103F600080810E941307F8018081F81668F3E1CF81
:103F7000F8018081882309F489C0F3E001311F072B
:103F800038F284C0933049F480E090E06DDE8356CF
:103F900092409EEA981B892F3BC0903171F506E64E
:103FA00014E087E6E82E84E0F82EC12CD12CF8012D
:103FB00080818F3FA1F0DD2019F080E20E945A0637
:103FC0008C2D0E9413078AE30E945A06F801808113
:103FD0000E941307F70180810E941307D3940E5F9C
:103FE0001F4FC394F2E0EF0EF11C38E0C312DFCF95
:103FF000D1104CC080EB93E047C0913161F48091C7
:104000006404909165046DE770E00E945E2E862F37
:104010000E9413073BC09231C9F518E7E12E14E066
:10402000F12E0BE714E0C12CD12CF70180818F3FDA
:10403000F1F0DD2019F080E20E945A068C2D0E94DA
:1040400013078AE30E945A06F70180810E94130732
:10405000F801329780810E941307F801319780811F
:104060000E941307F80180810E941307D394F4E0A3
:10407000EF0EF11CC3940C5F1F4F34E0C312D5CF79
:10408000D11004C084EB93E00E9492060E949F0628
:1040900026C144E0BE01695F7F4FC8010E94170737
:1040A0004F81493608F479C05A85688579855C3036
:1040B00009F04DC020E030E080E090E0F901E858E0
:1040C000FB4F508154131CC0A181A61319C0A281BB
:1040D000A71316C02CE023839C01220F331F280F47
:1040E000391FF901EE0FFF1FE65BFB4F11821082B3
:1040F000F901EE0FFF1FE45BFB4F11821082D1C06C
:104100005F3FE9F4408328852183298522832CE0C1
:1041100023839C01220F331F280F391FF901EE0F53
:10412000FF1FE65BFB4F11821082F901EE0FFF1FAC
:10413000E45BFB4F1182108210924704B2C00196DB
:104140002C5F3F4F2031310509F0B8CFC8C080E067
:1041500090E020E030E0FC01E858FB4FA081A41380
:1041600015C0A181A61312C0A281A7130FC053834B
:10417000F901EE0FFF1FE20FF31FEE0FFF1FE45BCD
:10418000FB4F81E090E091838083A9C02F5F3F4F78
:10419000049680319105F9F6A2C0E9818091480426
:1041A000E817C8F190E0F0E09C01295F3F4F2E171F
:1041B0003F078CF13A812091760432132CC02C8178
:1041C0002F3231F442E06CE0C6010E94220A87C01F
:1041D0002C32B9F42D812093630481E090E0909318
:1041E0006504809364048091AD039091AE03E4E094
:1041F0002E9F800D911D11249093AE038093AD03EB
:104200006EC0E81BF90BEE0FF0E0EA59FB4F20837C
:104210008D81818364C080E090E026DD7C01F8011F
:1042200001900020E9F73197E01BF10BF695E79537
:10423000BE2EB394C7018B0D911D835692408F3AC9
:1042400091050CF048C0F701B1928F0121E01AC02E
:1042500041E0B801F601E80FF11DCF012C870E9463
:1042600017072C85233058F020FD09C0D80111977D
:104270008C91843621F4F8018081809349042F5F6A
:104280000F5F1F4F822F880F81502B1508F3F1E12C
:10429000EF16F3E0FF0618F5F701E20FF11D1082AB
:1042A0001EC022E04CE064E0CE0107960E94B209F5
:1042B0008FE08A8722E04CE064E0CE0107960E94FE
:1042C000B20982E08A8722E04CE064E0CE010796E2
:1042D0000E94B20904C088EB93E00E9492062C96DB
:1042E000E9E00C94AA2E0F931F93CF93DF93909144
:1042F000470491114BC093E0899F80011124F8017C
:10430000EE0FFF1FE65BFB4F94E0899FD001112465
:10431000A858BB4F12969C91977046E0949F9001CD
:10432000391B1124335835952795359527953183B9
:104330002083E801CC0FDD1FC25BDB4F2881398170
:104340002F5F3F4F39832883000F111F045B1B4FE2
:10435000F801408151814115510529F4243031057E
:10436000A9F4A9DC11C04130510539F4A4DC82E084
:1043700090E0F8019183808309C04230510531F407
:104380009ADCF8011182108219821882DF91CF9194
:104390001F910F910895A6E0B0E0E1EDF1E20C94D9
:1043A000912E809176048A831B82909163049923D5
:1043B00041F0933019F487E791E00CC08DE790E06D
:1043C00009C087702DE7829FC0011124825B9F483E
:1043D00095958795909365048093640407E614E0AF
:1043E000F12C7CE2E72EF801319790819F3FC1F0DC
:1043F000809148048F0D898380916304882311F094
:10440000EC8203C09C83F80180818D8321E04CE025
:1044100065E0CE0101960E94B209CE01019681DCD1
:10442000F3940E5F1F4FF8E0FF12DDCF809163041D
:10443000882341F0833019F41092630403C0825042
:10444000809363042696E6E00C94AD2E80911803C9
:10445000882351F092DC89E28093770480911803DD
:104460008150809318030895F4CBFF920F931F930C
:10447000CF93DF93FC01F0800181C281D38114814D
:104480008FE580937704109218038091480481117E
:1044900005C080917604882309F4ABC0809119038C
:1044A0008F1104C080911A03801729F0D2DBF0929B
:1044B000190300931A03809162048F3F09F499C095
:1044C000C0931B03D0931C0310931D03CC23F1F066
:1044D00081111CC080914804181761F0143651F006
:1044E0008C2F8355823010F0CD3739F48FEF8093C5
:1044F00062047FC0C43509F47CC08D2F807F803674
:1045000009F077C0D067D0931C0367C0F0DB81113E
:1045100005C080916204882309F46BC08091110367
:10452000811107C0E0916204F0E0EE55FC4FE49188
:1045300001C0E82FE33541F4C43531F490916204B1
:104540009E5F9093620404C0EC1711F082DB51C0AF
:10455000882309F444C0809112038E5F8093120374
:10456000C6DB811106C0809162048E5F8093620475
:1045700036C080911B0380931103843671F58091BE
:10458000490480931D0329C010931B0397E7909360
:104590001C039091480490931D038E5F80936204E6
:1045A000109211038E30B9F489E193E05DDBDC01F8
:1045B000009781F02C9130E081E193E0821B930B16
:1045C00005C0ED01C20FD31F48814D93A817B9074D
:1045D000C0F31C923EDB112361F0E7DB0AC080913F
:1045E0006204E82FF0E0ED55FC4F14911F3F61F697
:1045F000C0CFCDB7DEB7E5E00C94AE2E0F931F937E
:10460000CF93DF93EC01A82FBD2FFD010190002077
:10461000E9F73197EA1BFB0B8981823751F487E375
:1046200090E00E94E5030E94BF0381E0809388042C
:1046300026C0833711F50E2F28988FE70E94FB02C2
:10464000802F82500E94FB02229612E004C08991C2
:104650000E94FB021F5F1017D0F3289A0E94D2031A
:1046600004C084E690E00E94DA058AE30E946C03AD
:104670008F77B9F70E94BF0302C010928804DF91C0
:10468000CF911F910F910895A0E8B0E0EAE4F3E222
:104690000C948F2E80918804882309F454C08130B3
:1046A00011F58091A9039091AA03A091AB03B09159
:1046B000AC0320911F03281709F445C085E30E942D
:1046C0006C03813129F48AE30E94BB030E94BF037B
:1046D0008091A9039091AA03A091AB03B091AC0380
:1046E00080931F0330C08FE30E946C03D82E87FD98
:1046F00027C028988FEF0E94FB028E010F5F1F4F8B
:104700007801C02E06C080E00E94FB02F701819371
:104710007F018E2D8C198D15B0F3289A81E080933E
:10472000A50105C0F80181918F010E945A06802FD2
:104730008C198D15B8F30E949F068FEF8093A50109
:1047400081E080938804C058DF4FE8E00C94AB2EE2
:104750000F931F93CF93DF93EC0110E0812F90E034
:104760009C01220F331F280F391FF901E455FF4F19
:10477000049123553F4FF90125913491002399F07D
:10478000209739F480E20E945A06802F0E945A0630
:1047900008C08881801305C0CE01F901099581E028
:1047A00003C01F5FDBCF80E0DF91CF911F910F919E
:1047B0000895CF93C091A5018093A50134C08CE0EA
:1047C00095E00E94B708909120038A3011F08D3057
:1047D00001F5992341F1E92FF0E0EF5DFC4F1082E4
:1047E00081E293E0B5DF811111C082EC93E00E9479
:1047F000920681E293E00E94870686EC93E00E9495
:10480000920680E090E0A4DF0E949F0610922003B1
:104810000AC097FD08C0E92FF0E0EF5DFC4F8083F0
:104820009F5F9093200380910E058111C8CFC093A4
:10483000A501CF910895E4E6F0E080818B7F80832D
:10484000299A84B1876084B9239880E58CBD8DB5A1
:1048500081608DBD089520911309309114092115AF
:10486000310521F420912A0130912B0180912801FA
:1048700090912901009741F48DB79EB740912C018A
:1048800050912D01841B950B2817390728F4AC0192
:10489000421B530B9A0102C020E030E0C901089589
:1048A00082E40E945A0640E265E0809113099091EB
:1048B00014090E94A3060E949F0683E50E945A06DF
:1048C00040E265E080912A0190912B010E94A306AD
:1048D0000E949F0685E40E945A0640E265E08091AE
:1048E0002801909129010E94A3060E949F0686E458
:1048F0000E945A06B0DF40E265E00E94A3060C94D5
:104900009F06982F2CC09093E900981739F070916A
:10491000EC002091ED005091F00003C0242F762F81
:1049200050E021FD02C09F5F1AC03091EB003E7F36
:104930003093EB003091ED003D7F3093ED003091EE
:10494000EB0031603093EB007093EC002093ED00AE
:104950005093F0002091EE0027FDE5CF07C097307F
:1049600090F28F708093E90081E0089580E00895CF
:104970000F931F93CF93DF93062FEC0110E02FC00E
:104980009881911103C01F5F259629C02C81E98170
:10499000FA817B81892F8F70873010F080E022C0F0
:1049A000223010F056E001C052E028E030E040E054
:1049B00003C04F5F220F331F2E173F07D0F34295DE
:1049C000407F452B692F661F6627661F90E4799FFD
:1049D00090011124622B95DF8111D5CFDFCF101309
:1049E000CFCF81E0DF91CF911F910F9108958091FA
:1049F000940587FD05C08091E80080FF0EC012C0BD
:104A00008091E80082FD05C0809193058111F8CF67
:104A100008958091E8008B7708C0809193058111FB
:104A2000EACF08958091E8008E778093E80008959A
:104A30008091E4009091E50045E62091EC0020FD96
:104A40001FC023C020919305222391F0253091F0BF
:104A50002091EB0025FD10C02091E4003091E5008D
:104A60002817390751F34150C90139F784E00895F7
:104A700082E0089583E0089581E0089580E008953C
:104A80002091E80020FFDECFF9CF2091E80022FF3F
:104A9000D9CFF4CF40919A0550919B0546175707FF
:104AA00048F06115710539F44091E8004E77409364
:104AB000E80001C0BA01FC0140E033C080919305D9
:104AC000882309F444C0853009F443C08091E8008C
:104AD00083FD41C08091E80082FD33C08091E800F1
:104AE00080FF1FC09091F3008091F200392F20E0E9
:104AF000A901482BCA0106C041914093F1006150C1
:104B0000710901966115710519F088309105A0F3BE
:104B100041E0089709F040E08091E8008E778093AB
:104B2000E8006115710551F64111C8CF0AC08091A6
:104B30009305882361F0853061F08091E80083FD62
:104B40000AC08091E80082FFF2CF80E0089582E001
:104B5000089583E0089581E0089540919A05509169
:104B60009B054617570748F06115710539F44091C8
:104B7000E8004E774093E80001C0BA01FC0140E034
:104B800034C080919305882309F445C0853009F429
:104B900044C08091E80083FD42C08091E80082FD1E
:104BA00034C08091E80080FF20C09091F300809194
:104BB000F200392F20E0A901482BCA0107C0449117
:104BC0004093F100319661507109019661157105AC
:104BD00019F08830910598F341E0089709F040E01A
:104BE0008091E8008E778093E8006115710549F6A1
:104BF0004111C7CF0AC080919305882361F08530A9
:104C000061F08091E80083FD0AC08091E80082FF96
:104C1000F2CF80E0089582E0089583E0089581E076
:104C20000895ACE2B0E0E7E1F6E20C94942EE4E9FA
:104C3000F5E08091F100819325E0EC39F207C9F7A6
:104C40000E94D6058091E80083FF32C180919405CF
:104C500090919505953009F487C038F49130B1F101
:104C600070F0933009F024C131C0983009F4F4C0D9
:104C7000993009F400C1963009F01AC19BC0803800
:104C800021F0823809F014C108C0809190059091FC
:104C90009105992389F082600FC0809198059091C9
:104CA00099058F7099278093E9008091EB0085FB2F
:104CB000882780F91092E9009091E800977F9093FF
:104CC000E8008093F1001092F100D1C0882319F020
:104CD000823009F0EDC08F7121F0823009F0E8C018
:104CE0000BC080919605813009F0E2C0933009F045
:104CF00080E0809391052FC08091960581112BC093
:104D000080919805909199058F709927009709F4E3
:104D1000CFC08093E9002091EB0020FF1CC02091C0
:104D20009505233021F48091EB00806212C09091B0
:104D3000EB0090619093EB0021E030E001C0220F86
:104D40008A95EAF72093EA001092EA008091EB003E
:104D500088608093EB001092E9008091E800877FE3
:104D60008093E80044DEA4C08111A2C08091960522
:104D7000909197058F779927182F9091E30090785D
:104D8000982B9093E3008091E800877F8093E80060
:104D90002EDE8091E80080FFFCCF8091E3008068E8
:104DA0008093E300112311F083E001C082E080933F
:104DB00093057EC08058823008F07AC080919605B5
:104DC000909197058C3D23E0920771F583E08A83EB
:104DD0008AE289834FB7F894DE01139620E03EE023
:104DE00051E2E32FF0E050935700E49120FF03C01D
:104DF000E295EF703F5FEF708E2F90E0EA3010F099
:104E0000C79601C0C0968D939D932F5F243149F7BB
:104E10004FBF8091E800877F8093E8006AE270E0EE
:104E2000CE01019637DE12C0AE01455D5F4F609145
:104E300098050E94C3020097D9F12091E800277FCE
:104E40002093E800BC018BA59CA587DE8091E8003B
:104E50008B778093E8002CC0803851F58091E80072
:104E6000877F8093E80080918F058093F100809187
:104E7000E8008E7775CF81111BC090919605923016
:104E8000B8F48091E800877F8093E80090938F05C5
:104E9000AEDD80918F05811104C08091E30087FF12
:104EA00002C084E001C081E0809393050E94D20596
:104EB0008091E80083FF0AC08091E800877F80939B
:104EC000E8008091EB0080628093EB00AC96E3E019
:104ED00047C70F931F93CF93DF934BD052D0C8EDAA
:104EE000D0E088818F7788838881806888838881F3
:104EF0008F7D888319BC1092930510928F051092B4
:104F000091051092900500EE10E0F80180818B7FF2
:104F1000808388818160888342E060E080E0F1DC0A
:104F2000E1EEF0E080818E7F8083E2EEF0E0808130
:104F300081608083808188608083F80180818E7F9A
:104F40008083888180618883DF91CF911F910F9149
:104F50000895E8EDF0E080818F7E8083E7EDF0E05A
:104F600080818160808384E082BF81E080939205AC
:104F7000B0CFE8EDF0E080818E7F80831092E20078
:104F800008951092DA001092E10008951F920F9296
:104F90000FB60F9211242F933F934F935F936F930C
:104FA0007F938F939F93AF93BF93EF93FF938091E2
:104FB000E10082FF0AC08091E20082FF06C080917A
:104FC000E1008B7F8093E100EED08091DA0080FFDA
:104FD0001DC08091D80080FF19C08091DA008E7FBB
:104FE0008093DA008091D90019BC80FF0BC082E069
:104FF00089BD09B400FEFDCF81E0809393050E9436
:10500000D00504C0109293050E94D1058091E10063
:1050100080FF18C08091E20080FF14C08091E20000
:105020008E7F8093E2008091E20080618093E200B5
:105030008091D80080628093D80019BC85E080936D
:105040009305B1D08091E10084FF2EC08091E200F1
:1050500084FF2AC019BC82E089BD09B400FEFDCFDF
:105060008091D8008F7D8093D8008091E1008F7E61
:105070008093E1008091E2008F7E8093E200809136
:10508000E20081608093E20080918F05882311F017
:1050900084E007C08091E30087FF02C083E001C085
:1050A00081E0809393057FD08091E10083FF27C04A
:1050B0008091E20083FF23C08091E100877F80938D
:1050C000E10082E08093930510928F058091E100CA
:1050D0008E7F8093E1008091E2008E7F8093E200DA
:1050E0008091E20080618093E20042E060E080E035
:1050F00008DC8091F00088608093F00054D0FF912C
:10510000EF91BF91AF919F918F917F916F915F913F
:105110004F913F912F910F900FBE0F901F901895B8
:105120001F920F920FB60F9211242F933F934F931C
:105130005F936F937F938F939F93AF93BF93CF931F
:10514000EF93FF938091E9008F709091EC0090FFB6
:1051500002C090E801C090E0C92FC82B1092E9006E
:105160008091F000877F8093F00078945ADD109250
:10517000E9008091F00088608093F000CF70C093C8
:10518000E900FF91EF91CF91BF91AF919F918F91E6
:105190007F916F915F914F913F912F910F900FBE33
:1051A0000F901F9018950895CF93809193058823B1
:1051B000A9F08091E9008F709091EC0090FF02C0FF
:1051C00090E801C090E0C92FC82B1092E9008091AF
:1051D000E80083FD26DDCF70C093E900CF910895EC
:1051E000CF93DF93EC014096FC018BE0DF011D9231
:1051F0008A95E9F782E08C83898783E08E8761E076
:10520000CE010196B5DB811102C080E00AC061E0E9
:10521000CE010696ADDB8823C1F361E0CE010B968B
:10522000A7DBDF91CF910895CF93C62F20919305EF
:105230002430F1F4FC014489558966897789452B2E
:10524000462B472BA9F081818F708093E9008091D4
:10525000E80085FF04C0C093F10080E00AC080919F
:10526000E8008E778093E800E3DB8823A1F301C098
:1052700082E0CF91089520919305243051F5FC01EF
:105280004489558966897789452B462B472B09F137
:1052900081818F708093E9003091F3002091F200BA
:1052A000932F80E0822B892B11F480E00895909158
:1052B000E8008091E8008E778093E80095FDF5CFB7
:1052C000B7DB811107C09091E8009E779093E800CA
:1052D000089582E0089520919305243089F4FC011B
:1052E0004489558966897789452B462B472B41F0A0
:1052F00021812F702093E9002091E80020FDBBCF91
:10530000089520919305243019F02FEF3FEF2EC020
:10531000FC014489558966897789452B462B472BA3
:10532000A1F386818F708093E9008091E80082FF6D
:10533000ECCF3091F3002091F200932F80E0822B8C
:10534000892B21F02091F10030E002C02FEF3FEFD8
:105350005091F3004091F200952F80E0842B892B2F
:1053600029F48091E8008B778093E800C9010895C3
:105370000895CF93DF93EC018091E80083FFA2C0F2
:10538000888190E020919805309199052817390778
:1053900009F098C080919505813261F020F4803247
:1053A00009F090C03CC0823209F46BC0833209F02E
:1053B00089C07AC080919405813A09F083C08091B8
:1053C000E800877F8093E8008091E80080FFFCCFB1
:1053D0004C895D896E897F894093F100BB27A72F97
:1053E000962F852F8093F100CB01AA27BB278093AE
:1053F000F100472F5527662777274093F100888DC6
:105400008093F100898D8093F1008A8D8093F10063
:105410008091E8008E778093E800E9DA53C08091AC
:105420009405813209F04EC08091E800877F809317
:10543000E80005C080919305882309F443C080915A
:10544000E80082FFF7CF3091F1002091F1009091B8
:10545000F1008091F1003C8B2D8B9E8B8F8B809186
:10546000F100888F8091F100898F8091F1008A8FFF
:105470008091E8008B778093E800B9DACE0178DF7D
:1054800021C0809194058132E9F48091E800877F02
:105490008093E800ACDA8091960590919705998BFE
:1054A000888BCE0165DF0EC080919405813251F466
:1054B0008091E800877F8093E80099DA60919605F3
:1054C000CE0156DFDF91CF9108951F93CF93DF93E5
:1054D000182F539852981092A203EA98209A289A6B
:1054E0008EE190E00E94DA0528988EE190E00E941B
:1054F000DA05289A8DE290E00E94DA0580E30E94A6
:10550000BB0384E690E00E94DA05113021F01230EE
:1055100009F037C023C0C0E0D0E0FE01E252FC4FEA
:105520008491813480F01093A20383E30E94BB0333
:105530008CE0EFEBF6E0DF011D928A95E9F784E05D
:105540000E94DF051EC0FE01E152FC4F64910E94E3
:10555000A9032296C83CD10501F7E5CFC0E0D0E011
:10556000FE01E55DFB4F84918134E8F6FE01E45DC8
:10557000FB4F64910E94A9032296C83CD10581F794
:10558000D2CFDF91CF911F910895A1E0B0E0EAEC76
:10559000FAE2C3C3D82EC62E7A01890128988FEF6C
:1055A00099830E94FB02AD2C9981B92E06C080E040
:1055B0000E94FB02F50181935F018A2D8D198C15E4
:1055C000B0F3E114F10469F080E00E94FB02F701FE
:1055D00080830115110529F080E00E94FB02F8018B
:1055E0008083289A2196EAE0B4C3CF93882331F0D0
:1055F0001092CA0686E30E94BB0306C085E30E94A0
:105600006C038D30A9F73AC085E30E946C03C82F64
:105610008130D1F78BE30E94BB038AE30E94BB0376
:105620001092BF061092C1061092C0061092C306D7
:105630001092C2062BEC36E03093C5062093C406C8
:105640001092C606C093C7061092C8068091A203A6
:105650008093C90660E083E00E94A90362E088E0CD
:105660000E94A90384E30E94BB0385E30E946C03AC
:105670008D30D9F781E08093CA0601C080E0CF91D8
:105680000895A4E0B0E0E6E4FBE24EC38091A203FB
:10569000882309F405C18091CA06813049F030F0B1
:1056A000823061F0833009F0A4C072C081E0F7C09D
:1056B0004A9B9FC082E08093CA069BC04B9B99C0C7
:1056C00020E030E040E050E063E08091C40690913B
:1056D000C5065BDF2091C9068091C4069091C5067E
:1056E000213071F4BE016F5F7F4F05D18111D3C0AE
:1056F00089818093BF069FD1AC0160E081E00EC03C
:1057000040E0BE016F5F7F4F3BD18111C4C08981F2
:105710008093BF0690D1AC0160E080E0A4D190936B
:10572000C1068093C0066091C0067091C1066934BD
:1057300082E0780708F0AFC086E06F3F710509F09E
:1057400050F40E94A90360E088E00E94A90381E070
:105750008093C60602C00E94A9038091C40690915E
:10576000C50603969093C5068093C4068091C00633
:105770009091C10603979093C3068093C20610923E
:10578000C70683E08093CA0667E00E94A90331C080
:105790004B9B2FC08091C2069091C3068F3F91050D
:1057A00009F058F48091C606811107C060E088E0D6
:1057B0000E94A90381E08093C60620E030E040E02B
:1057C00050E06FE18091C4069091C506DEDE8091C5
:1057D000C2069091C3064F979093C3068093C2066A
:1057E0008091C4069091C5064F969093C50680930C
:1057F000C4064A9953C08091CA06823008F44EC04C
:105800001C821B829E012D5F3F4FAE014C5F5F4F9C
:105810006091C2068091C4069091C506B6DE81E013
:105820008093C8068091C906813051F48091BF06EB
:1058300002D1AC016CE975E08BEC96E02CD109C08B
:105840008091BF06F8D0AC016CE975E08BEC96E076
:105850009BD1892B01F582E60E945A0610E007C011
:10586000F901E456FA4F80810E9413071F5F80916F
:105870009C05E1D0212F30E02817390788F380916B
:10588000AF0385FF06C08B810E9413078C810E94A5
:1058900013070E949F061092CA0602C080E0A5DE90
:1058A0002496E3E05DC2FC012181223771F48281FC
:1058B000882369F0833711F481E003C0843719F439
:1058C00082E003DE04C080E0FCCF233799F08091B2
:1058D000A203813019F0823039F403C088E794E0E4
:1058E00005C08EE794E002C084E894E00E9492062E
:1058F0000C949F060895CF93DF93EC01A881E98172
:10590000CA2FC295CF70D0E0C25CDE4F4881AF7025
:10591000B0E0A25CBE4F2C91AE2FA295AF70B0E06C
:10592000A25CBE4F8C91EF70F0E0E25CFE4F908184
:1059300051E02F3F09F050E031E04F3F09F030E0F7
:10594000532B31E08F3F09F030E0352BA9F49F3F16
:1059500099F0D0E44D9FA0011124E0E12E9F900129
:105960001124242B292BF4E08F9FC0011124282B14
:10597000EB01288380E001C081E0DF91CF910895A1
:10598000DC0141111AC012968C911297E82FEF7327
:10599000F0E0E25AFE4F50811196EC911197EF70B2
:1059A00024E0E29FF001112482958695869583700C
:1059B000E82BE25AFE4F808102C080E050E02C913B
:1059C000E22FE37090E1E99FF001112411969C9180
:1059D00092959F70E92BE25AFE4F9081269526956D
:1059E000E22FF0E0E25AFE4F2081E1E09F3F09F014
:1059F000E0E031E02F3F09F030E0E32B31E05F3FA2
:105A000009F030E03E2B99F48F3F89F0E0E12E9FC2
:105A100090011124292BFB01208341110AC0F0E1E0
:105A20008F9FC0011124852BFB01818302C081E07F
:105A3000089580E008958A3158F0482F50E04A5187
:105A4000510994E0559547959A95E1F74D5F01C04E
:105A500042E0282F30E02F5F3F4F240F311D240FED
:105A6000311DC90108959A01882339F0662311F088
:105A70002F5F3F4F220F331F0CC0220F331F240F05
:105A8000351F36952795611102C040FF02C02F5F78
:105A90003F4FC9010895A0E0B0E0E0E5FDE237C165
:105AA0004C018B01EA01C12CD12CA12CB12C612C11
:105AB000712CE12CF12C62E1462E512C4FC0B80123
:105AC000C40119DF811150C0C230D10509F452C0A0
:105AD0008AE0E816F10458F0C7010A97B201EED047
