:1000000024C200003EC200003CC200000C944F110C
:1000100038C2000036C2000034C2000032C2000004
:1000200030C200002EC200000C94BC250C94862621
:1000300028C2000026C2000024C2000022C2000024
:1000400020C200000C94E9101CC200001AC200007B
:1000500018C200004BC4000014C2000012C200000D
:1000600010C200000EC200000CC200000AC2000054
:1000700008C2000006C2000004C2000002C2000064
:1000800000C20000FEC10000FCC10000FAC1000077
:10009000F8C10000F6C10000F4C10000F2C1000088
:1000A000F0C10000EEC10000ECC1000042F10762A7
:1000B000AA2B434A0346070A69A715410A205A8119
:1000C00022470A0A4D420A4BB10A55390B59DD162F
:1000D000525B07540A1A565608579D0758B90C65C3
:1000E000160866C71D6D60236CE00774D604759D05
:1000F00013780204000000072E050DD391FF0805B8
:1001000000000C0021656A2D3B1322F862073F189E
:100110001D1CC700B0876BF8B611EA2A001F41000A
:100120000D2E2D07D3913D04320000060021656A93
:1001300055E43023B900070018146C070090876B52
:10014000F85611E92A001F410000030F1E26270060
:100150000000030F1E2536386700030F2567406037
:100160005000030F275188838100030F2750C8C315
:10017000C20027000000000000006700000000002F
:10018000000050000000000000008100000000009E
:100190000000C2000000000000203D2000202F20B1
:1001A00000504C4C300D0A00504C4C310D0A0020D0
:1001B0003D2000202F200043554C5F563300562031
:1001C000322E30302043554C343333005620322EFB
:1001D00030302043554C383638004C4F56460D0AC7
:1001E00000424F56460D0A000D2E2D07D3913D04B7
:1001F000320000060010B07155E43023B90007004A
:1002000018146C070090876BF85611E92A001F41FB
:10021000000D2E2D07D3913D04320000060010ABD7
:10022000A5550A3023B900070018146C0700908701
:100230006BF85611E92A001F410000535300547D0A
:100240007DFFFF4B4B7E7E004E2F41004E2F410025
:10025000454F420D0A004E2F41000B08105B11F86C
:100260001547191D1A1C1BC71C001DB221B623EA15
:100270000007022E030D04E905CA070C0B060D2129
:100280000E650F6A10C8119312031534173318182E
:1002900019161B4321562500261129592C812D356D
:1002A0003EC30007024604C605260B0610C811937C
:1002B000120313221534173F182819161B43215611
:1002C000250026110D210E650F6A070C160720F870
:1002D0001E871F6B29592C812D353EC3FF004C45CD
:1002E0004E4552520D0A004C4F56460D0A004C45E1
:1002F0004E4552520D0A003F202800206973207598
:100300006E6B6E6F776E2920557365206F6E65205A
:100310006F66000E03430055004C00340033003379
:100320000000000E03430055004C00380036003832
:100330000000001603620075007300770061007210
:100340000065002E00640065000000040309040934
:10035000023E00020100C032090400000102020155
:1003600000052400100104240206052406000107EC
:100370000582030800FF09040100020A00000007CB
:100380000504024000050705830240000512011024
:100390000102000008EB03442001000102DC01041B
:1003A0007605961700000602000B080C000D210EC2
:1003B000650F6A106A114A1206132214F80A001512
:1003C0004721B622101818192E1A6D1B041C091D7E
:1003D000B223EA242A2500261F29592C812D352EE7
:1003E0000907040800090006FF3EC2FF0454053D4A
:1003F0001700000602000B080C000D210E6B0FD039
:10040000105C11041206132214F80A00154421B6D8
:1004100022101818192E1ABF1B431C091DB523EAF8
:10042000242A2500261F29592C812D352E09070441
:100430000800090006FF3EC2FF534D4F44450054DB
:100440004D4F4445004F4646000011241FBECFEFDC
:10045000DAE0DEBFCDBF11E0A0E0B1E0E4ECFEE504
:1004600002C005900D92A23AB107D9F729E0A2EA9D
:10047000B1E001C01D92A631B207E1F771D00C9432
:10048000602FBECD2FE088E190E00FB6F894A895DC
:10049000809360000FBE2093600090E080E80FB66C
:1004A000F89480936100909361000FBE0895F894D2
:1004B00081E085BF82E085BFE0E0F8E3099508951B
:1004C00004B603FE0AC083E390E0DCD4882329F05D
:1004D00060E083E390E0D1D4EACF08952E9A2D9A7C
:1004E000089583B186FB882780F991E089270895D4
:1004F00089EF87BD84E085BD82E084BD80936E0076
:10050000109280008AE0809381000895E4E6F0E094
:1005100080818B7F8083299A84B1876084B92398F6
:1005200080E58CBD8DB581608DBD08958EBD0DB407
:1005300007FEFDCF8EB5089589B18870089589B101
:1005400084700895880F991F0197F1F7089520EDA1
:1005500037E003C0F9013197F1F70197D8F7089513
:1005600091DFBCDFADDFC4DF6E9AD0DF8CD5E5D282
:100570000E94AA190E94930C89EF92E29093A5031E
:100580008093A4030E94BD1289E08093A501769810
:10059000D8D20E94910E20D20E940D1E0E943F14BC
:1005A0000E94C31E0E9408220E948E2AF1CFA1E061
:1005B000B0E0EDEDF2E00C94E82D482F8A3008F021
:1005C00048E088E0489F70011124E9E4F1E0EE0E74
:1005D000FF1E8BE290E0F70164918C010F5F1F4FCB
:1005E00049834BD4FFEFEF1AFF0AC8014981033357
:1005F000110589F74550453010F461E101C067E10C
:1006000084E290E03AD42196E6E00C94042ECF9355
:10061000DF9382E090E0FC01E25EFE4F6491EC012A
:1006200021962BD4CE01CB32D105A9F787E390E0F8
:10063000FC01E054FF4F6491EC0121961ED4CE01E1
:10064000C036D105A9F74DDF8823C1F060E18FE006
:1006500090E013D460EB80E190E00FD461E781E19A
:1006600090E00BD460E184E490E007D460EB85E493
:1006700090E003D461E786E490E0FFD388E097DF61
:10068000DF91CF9108952898806C50DF80E04EDF95
:10069000289A0895A1E0B0E0E0E5F3E00C94EB2D9A
:1006A00041E0BE016F5F7F4F01968BD3892B21F113
:1006B0008981893969F410E0812FE5DF7ED3812FAC
:1006C0008770873009F405D31F5F1033A9F714C072
:1006D000DADF182F83E4B8D289816FD389E991E0FA
:1006E000EBD2812F6AD38DE991E0E6D240E262E05D
:1006F000812F90E0F2D2EDD22196E3E00C94072E08
:10070000A1E0B0E0E6E8F3E00C94EC2D28988064DA
:1007100069830CDF6981862F09DF289A2196E2E040
:100720000C94082E289802DF289A0895CF93CFEFD3
:1007300007C08AE090E006DFC11102C0EA9A07C054
:1007400084E3F0DFC1508077803199F7F7CFCF9104
:100750000895CF93EA9886E3E5DFCFEF05C08AE0FE
:1007600090E0F0DECC2331F085E3DCDFC150807710
:100770008032A9F7CF910895EF92FF920F931F93C4
:10078000CF93DF93EC0110921403209AEA98289AF1
:100790008EE190E0D7DE28988EE190E0D3DE289AB3
:1007A0008DE290E0CFDE80E3BDDF84E690E0CFDE37
:1007B000289880E4BBDE8E01075D1F4F7E018FEF1E
:1007C000E81AF80ACE015ED3B1DEE701E016F106C1
:1007D000A9F7289A28988EE7A9DE8BE290E0EC0131
:1007E000219650D3A3DECE01C333D105C1F7289A99
:1007F00083E398DF81E090E0AADECDB7DEB7E6E0E4
:100800000C94042EA1E0B0E0E8E0F4E00C94EC2DB0
:1008100022E0298341E0BE016F5F7F4F0196D1D274
:100820008981C5DE82E090E0A7DF2196E2E00C94AA
:10083000082E86E377DF1092A6031092120310921F
:100840001403089582E090E097DF81E08093A6038F
:10085000109212031092140308951F93CF93DF9305
:10086000D82F162FC0E085E30EDF8D1739F0812FCA
:1008700090E068DEC150B9F781E001C080E0DF910F
:10088000CF911F91089585E2FEDE8F3311F080E055
:10089000089586E347DF8091A201811104C081EAB7
:1008A00091E00AD202C08DE33DDF83E33BDF64E0E9
:1008B00081E0D3DF85E2E7DE8F3349F78091A20143
:1008C000811103C088EA91E0F7D181E0089585E3C2
:1008D000DADE8D3051F485E2D6DE8F3331F4D3DFAA
:1008E00084E320DF80778031D9F708951F920F923B
:1008F0000FB60F9211248F939F93AF93BF93EF93F3
:10090000FF938091A8039091A903A091AA03B091AD
:10091000AB030196A11DB11D8093A8039093A90379
:10092000A093AA03B093AB038091A7038F5F80933A
:10093000A703E9E4F4E080819181181619061CF4FC
:10094000019791838083369684E0E136F80799F722
:100950008091630490916404009729F0019790932B
:10096000640480936304809176048F3F19F0815072
:1009700080937604FF91EF91BF91AF919F918F91FA
:100980000F900FBE0F901F9018952FB7F8944091BD
:10099000A8035091A9036091AA037091AB03FC01D5
:1009A00040835183628373832FBF0895A4E0B0E036
:1009B000ECEDF4E00C94EC2DCE010196E6DF8C8199
:1009C000FCD18B81FAD18A81F8D18981F6D181D18C
:1009D0002496E2E00C94082E1F93CF93DF9380912E
:1009E000A8039091A903A091AA03B091AB03209111
:1009F000A301281709F45FC08091A8039091A9036F
:100A0000A091AA03B091AB038093A301A895C9E478
:100A1000D4E010E028813981232B19F4812F0E9422
:100A20003C1C1F5F26961430A9F7809163049091B7
:100A30006404892B11F40E94941C80917604811126
:100A400002C00E94EF1C80913A04882339F0815043
:100A500080933A04811102C00E94D3148091A703AD
:100A60008D3748F11092A70380911B0181FF04C0CC
:100A70008EB190E489278EB98091AC039091AD033B
:100A8000843823E0920728F401969093AD03809375
:100A9000AC038091A4018F5F8093A4018C3359F43F
:100AA0001092A401809148048F5F809348048C3396
:100AB00010F010924804DF91CF911F910895CF93C9
:100AC00020C080E091E00E94CD2897FF16C08FE5FE
:100AD00095E09093A3038093A203E091A403F09187
:100AE000A50381E00995809101018F708093E90051
:100AF00080918A0481110AC01EC0682F8BE095E0A6
:100B0000EBD280910D0587FFDCCFE1CF8091E8002B
:100B100080FD0AC010C088E894E0F4D2682F80E01D
:100B200091E00E94602801C0C1E480918A0488237A
:100B300011F0C15081F7CF9108950E949F257894BC
:100B40000895BDDF80E091E00E94B7280C94202832
:100B50000895089580E091E00C943C2880E091E0B5
:100B60000C940529CF93DF93FC018381843509F030
:100B700068C0808120E030E0422F435F481750F08A
:100B800050E090E09C012F5031094217530709F0C3
:100B900058C00AC02F5F3F4FDF01A20FB31F1F963F
:100BA0009C919B3349F7ECCFAC014E5051094E0F4D
:100BB0005F1FDA0113962C91243509F042C0DC0145
:100BC0001B97AE0FBF1F348111962C9111973213D2
:100BD00038C0358112962C911297321332C036816B
:100BE00013962C91139732132CC0378114962C91A5
:100BF0001497321326C0419715962C9115978E0F96
:100C00009F1FEC012B8316968C911697EA0189831E
:100C100019968C9119978A831A968C911A978B83BF
:100C20001B968C911B978C831C968C911C978D83A3
:100C30001D968C918E8380818A50808382818A5018
:100C40008283DF91CF910895CF93C82F8091920531
:100C5000843041F48091A50180FF04C06C2F88E8A6
:100C600094E03AD2809145048823C9F08091A5018F
:100C700083FF15C0CA3099F0CD3011F46BE301C089
:100C80006C2F85EB93E028D2CD3019F485EB93E0FF
:100C900069DF83E080933A0482E080934004CF913F
:100CA0000895CF93DF93EC0101C0CEDF89918111CC
:100CB000FCCFDF91CF910895CF93DF93EC0102C079
:100CC000C3DF2196FE0184918111FACFDF91CF918C
:100CD00008958DE0B9DF8AE0B7CFA6E0B0E0E3E7A2
:100CE000F6E00C94EA2D062F1E8215E02AE030E093
:100CF0001150E1E0F0E0EC0FFD1FE10FF11DB90133
:100D00000E94B52D805D8083CB010150009759F082
:100D10001111EECF08C01150E1E0F0E0EC0FFD1F23
:100D2000E10FF11D4083015007FD02C01111F3CF07
:100D300081E090E08C0F9D1F810F911DB2DF269600
:100D4000E4E00C94062EA5E0B0E0E9EAF6E00C94AD
:100D5000EC2D1D8224E0382F3F702150E22FF0E06F
:100D60003A3010F4305D01C0395CA1E0B0E0AC0F66
:100D7000BD1FEA0FFB1F308334E0969587953A95A7
:100D8000E1F76150009739F708C02150E1E0F0E049
:100D9000EC0FFD1FE20FF11D4083615067FD02C0A3
:100DA0002111F3CF81E090E08C0F9D1F820F911DE8
:100DB00078DF2596E2E00C94082E40E362E090E0B4
:100DC000C2CFFB0122C0213608F02052A22FA0532F
:100DD000AA3010F42A2F05C0A22FA154A63018F46F
:100DE0002753232B05C0203291F02A3381F005C010
:100DF000552331F02193415041F4E61BF70B0DC010
:100E0000322F3295307F51E002C050E030E0DC01FB
:100E10002D91CD012111D7CFF0CFCF01089520E042
:100E200030E05AE00EC0E42FE053EA3050F4F9010C
:100E30005E9F90015F9F300D112420533109240FD4
:100E4000311DFC014191CF014111EDCFFB013183F7
:100E500020830895982F92959F709A3010F4905D9A
:100E600001C0995CFB0190838F708A3010F4805D23
:100E700001C0895CFB01818308950E94522FF9997A
:100E8000FECF08950C944A2F08951F93CF93DF93BC
:100E90000AC0EC012196F6DF90DF112311F08AE3FE
:100EA000D3DE612FCE01162F11506111F2CFDF91E9
:100EB000CF911F910895A2E0B0E0E1E6F7E00C9435
:100EC000E92DFC0121812D3421F466E08AEF93E0C5
:100ED00005C0203529F460E18AED93E0D6DF28C013
:100EE0001A82198242E0BE016F5F7F4F019669DF6F
:100EF0009981823029F4192F00E08A81082B02C0E1
:100F0000092F10E0C801BEDFF82E82E59DDE40E328
:100F100064E0C80118DF8FEA91E0CEDE8F2D4DDF4F
:100F200083EB91E0C9DE40E262E08F2D90E0D5DEF8
:100F3000D0DE2296E5E00C94052EA6E0B0E0E3EAD0
:100F4000F7E00C94E62D6C0143E0BE016F5F7F4F2C
:100F5000019637DF823080F12981823019F4E22E48
:100F6000F12C04C0F22EE12C2A81E22A8C011127F7
:100F7000FE01E00FF11F6081C7017FDF000F111F2D
:100F80000F5F1F4F0C0D1D1D8FEFE81AF80A10C0E0
:100F900041E0BE016F5F7F4FC80113DF892B61F015
:100FA0006981C7016ADF0E5F1F4FE2E0EE0EF11CA0
:100FB000F80180818111ECCF2696E8E00C94022E96
:100FC00041E06BE171E00196FCDE80911B0180FF46
:100FD00002C0769A01C0769860911B0184E390E08C
:100FE0004CCFA1E0B0E0E7EFF7E00C94EC2D1982D4
:100FF000009731F041E0BE016F5F7F4F0196E1DE67
:101000008981882321F061E083E390E036DF10924C
:101010006E00F89428E088E190E00FB6F894A89567
:10102000809360000FBE20936000FFCFCF93DF93CB
:10103000EC0162E080E090E020DF60E081E090E0A1
:101040001CDFE5DA60E080E690E017DF60E081E633
:1010500090E013DF60E083E390E00FDF62E084E381
:1010600090E00BDF60E080E690E007DF60E081E683
:1010700090E003DF8981883719F080E090E0B1DFEC
:10108000DF91CF91089580E090E0FCDE823029F47A
:1010900081E090E0F7DE882319F080E090E0C6DF81
:1010A00084E390E0EFDE80931B010895FC018181D1
:1010B000883419F487EB91E008C013DA882319F01B
:1010C0008EEB91E002C08CEC91E0F6DD02CEFC01EB
:1010D0001282108211820895FC018FB7F8949281D8
:1010E00097FD0EC09F5F92839081DF01A90FB11D14
:1010F00013966C939F5F903811F0908301C010821B
:101100008FBF0895FC019FB7F8948281811101C0BF
:101110000EC0815082832181DF01A20FB11D139681
:101120008C912F5F203811F0218301C011829FBF65
:101130000895FA013081882369F0DB01A30FB11D06
:10114000E1E0F0E0022E01C0EE0F0A94EAF79C9174
:101150009E2B9C93222319F0822F81500BC0832F4A
:101160008F5F8C3010F4FA018083FB01E80FF11DD2
:10117000108287E090E00895CF93C82F5B9A882370
:1011800019F08091AA0102C08091A80120E1829FFC
:10119000C0011124D7D95B98CC2319F08091A90103
:1011A00002C08091A70120E1829FC0011124CAD909
:1011B000CF910895A6E0B0E0E0EEF8E00C94DC2DCD
:1011C0006C016983942EA22EEA82842F90E09E8384
:1011D0008D832091AC033091AD030296089F802D42
:1011E0001124992787FD90952817390720F48AED57
:1011F00091E062DD7FC0281B390B3093AD03209353
:10120000AC03769A80911403882339F0109214036A
:101210008EE991E0AED311E001C010E08091A60309
:10122000811101C00FDB95DAF981EF2FF0E0FC832B
:10123000EB83EE24E394F12CB12CC601890D911DB2
:1012400097FC9A954C01612C712C05C080E094DFCD
:101250009FEF691A790AEB81FC816E167F06B4F361
:10126000F981FF2311F081E087DF412C512C17C059
:1012700097E0292E312C3601640C751CC701022C15
:1012800001C0880F0A94EAF7F3019081892374DF83
:10129000F1E02F1A310890F79FEF491A590AED81B2
:1012A000FE814E165F0624F387E0682E712C0DC078
:1012B000C701062C01C0880F0A94EAF7F401908157
:1012C00089235ADFF1E06F1A7108A614B70484F37A
:1012D0008A8190E03CD9015009F0B5CF8091AE03EE
:1012E000882311F023DA02C086E31CDA11110E9470
:1012F000222076982696E2E10C94F82DADE0B0E03D
:10130000E4E8F9E00C94DF2D7C01162F842F022FE6
:101310006701C60ED11C462FB70140D3D6018C936E
:101320001F5F1D8619825E2C670127E08824839445
:10133000912C32C047E0A42EB12C3701680E711CED
:10134000F4010A2C01C0EE0F0A94EAF7D3018C9144
:10135000AE01435F5F4FBE016F5F7F4F8E23E9DEBB
:10136000282FB1E0AB1AB10858F7D601ED916D0105
:101370000E2EE295E0250E2EE695E695E025F0E0AE
:101380003196E1FB882780F9AE01435F5F4FBE01D4
:101390006F5F7F4FCEDE282F8C2D8519811708F4C3
:1013A000C9CF222311F0215004C08D858F5F8D8716
:1013B00027E089E18093A7018093A80185E28093CB
:1013C000A9018093AA013AE0E32E4D856CE0CE019D
:1013D0000196F0DE2D96EFE00C94FB2DADE0B0E031
:1013E000E4EFF9E00C94EB2D162F242F4BE0BE0117
:1013F0006F5F7F4F01962D87E4DC2D85412F682F8D
:10140000CE0101967BDF2D96E3E00C94072E43E09E
:1014100066E0E4CFEF920F93CF93DF93CDB7DEB7C3
:1014200060970FB6F894DEBF0FBECDBF40E1BE019E
:101430006F5F7F4F0196C5DC69814A810B818C818A
:101440008093A8018D818093A7018E818093AA014A
:101450008F818093A901E02EE2947FE0E7220F7054
:10146000242F2F7042954F70CE010896A3DE609610
:101470000FB6F894DEBF0FBECDBFDF91CF910F91B5
:10148000EF900895A9E1B0E0E8E4FAE00C94E42DCF
:101490004BE0BE016F5F7F4F019693DC182F8930C0
:1014A00009F05BC099E19093A7019093A8019093F4
:1014B000AA0182E38093A90169E0CE01019678D266
:1014C000E1E0F0E0EC0FFD1FE10FF11D8083198ECC
:1014D0001D868E010F5F1F4F6E018BE0C80ED11C61
:1014E00027E0AA24A394B12C25C0E12CF12CF5010E
:1014F0000E2C01C0EE0F0A94EAF7D8018C91AE01D0
:10150000475E5F4FBE01635F7F4F8E2312DE282F41
:10151000BFEFEB1AFB0A88E0E816F10441F7AE01D1
:10152000475E5F4FBE01635F7F4F81E002DE282F81
:101530000F5F1F4F0C151D05C1F6222311F021501E
:1015400004C0898D8F5F898F27E0EAE0EE2E03E0EB
:10155000498D6CE0CE010D962DDE6996EAE00C9483
:10156000002EA9E1B0E0E7EBFAE00C94DF2D4BE0B0
:101570008E010F5F1F4FB801019623DCF82E582E05
:1015800085E38093A80196E19093A7019093AA0127
:101590008093A9016F2DC80117D2F801EF0DF11D3D
:1015A00080835394198E1D86780127E0AA24A39482
:1015B000B12C48014DC0C12CD12C3401680E711CD6
:1015C000F5010C2C01C0EE0F0A94EAF7D3018C91BF
:1015D000AE01475E5F4FBE01635F7F4F8E23A9DD83
:1015E000282FBFEFCB1ADB0A84E0C816D10441F7DD
:1015F000AE01475E5F4FBE01635F7F4F81E099DDC3
:10160000282FB4E0CB2ED12CF5010C2C01C0EE0F0D
:101610000A94EAF7D7018C91AE01475E5F4FBE0195
:10162000635F7F4F8E2385DD282FBFEFCB1ADB0A48
:1016300088E0C816D10441F7AE01475E5F4FBE0196
:10164000635F7F4F81E075DD282FAFEFEA1AFA0A5A
:101650008E2D801B851508F4AECFAAE0EA2E03E09C
:10166000498D6AE0CE010D96A5DD6996EFE00C94F8
:10167000FB2DEF920F93CF93DF9300D000D0CDB727
:10168000DEB743E0BE016F5F7F4F01969ADB8AE6CB
:101690008093A80194E29093A70191E29093AA010C
:1016A0008093A90180E88C839FE0E92E03E026E087
:1016B00043E060E0CE0101967DDD0F900F900F902A
:1016C0000F90DF91CF910F91EF9008956F927F92DD
:1016D0008F929F92BF92CF92DF92FF920F931F93B0
:1016E000CF93DF93A62F10921B0210921C02FC01D5
:1016F0006181660F660F660F2381621B695F10921E
:101700001D02F12C70E047E0F7E0DF2EC12C20E055
:1017100007E010E0C1E0D0E07DC0FC01EC0DF11D60
:10172000248130E00D2C02C0359527950A94E2F70C
:1017300021703327522FDD2011F0DA9403C0C394B7
:10174000E7E0DE2EAB3491F4433009F081C0F110B4
:1017500007C051115CC010921B0270931C0276C02E
:10176000F12C79C0AB3409F050C03CC04F3F41F57B
:10177000A634B9F4E72FF0E0E35EFD4F4081042E7C
:1017800042954025042E46954695402550E04F5FF2
:101790005F4F41FB882480F8912C8216930641F01C
:1017A00004C0A53429F4511103C0F0921B02D5CF17
:1017B0007F5FE72FF0E0E35EFD4F108247E029C036
:1017C000552319F1A63459F4E72FF0E0E35EFD4FFD
:1017D0009E01042E01C0220F0A94EAF713C0A5341B
:1017E00009F0C0CFE72FF0E0E35EFD4F9801241B26
:1017F000310947FD33953E0102C0660C771C2A95DE
:10180000E2F793013081322B3083415002C0FF2434
:10181000F3942B2DB22EB394261708F47ECFF092BA
:101820001B0270931C026B1588F4A53419F44F3F0A
:1018300009F404C080911B02882319F07F5F709324
:101840001C0281E090911C02911108C080E006C04A
:101850004F3F09F4A8CF5111C5CFD7CFDF91CF911A
:101860001F910F91FF90DF90CF90BF909F908F902E
:101870007F906F90089510926F00E0914E028CE17E
:10188000E89FF0011124E555FE4F10820895FC01F8
:10189000218130E050E07081C901841B950B0B96CB
:1018A0004797C8F4872F90E070E0FC01E61BF70B28
:1018B000EC30F10584F4E53FFF4F6CF0280F391F41
:1018C000640F751F261B370B2C30310524F481E083
:1018D000253F3F4F0CF480E00895FC012181243125
:1018E00008F0C9CF662389F0DC01A20FB11D81E0A9
:1018F00090E0038002C0880F991F0A94E2F71496C3
:101900009C911497982B14969C938381882319F0AB
:1019100081508383089587E083832F5F2183E20FC3
:10192000F11D14820895539A5B985298E9E6F0E00D
:1019300080818061808382EC91E09093AD038093FD
:10194000AC031092C7011092E3011092FF011092B4
:10195000A60308958091A10381110AC08091AE036E
:10196000882321F00E9422040C9496030C941904FD
:101970000895FC01218121110BC08091AE031DDA75
:1019800040E265E08091AC039091AD03A6D9A1C976
:1019900041E06EEA73E0019614DADCCF06C04150F4
:1019A000FB01E40FF11D9081890F4111F8CF0895DB
:1019B00020E006C06150FC01E60FF11D30812327B5
:1019C0006111F8CF822F0895A0911B0240E035E00D
:1019D00020E012C06150FC01E60FF11D5081752F0F
:1019E00072957F702727370FAA2311F0442319F02F
:1019F0005F702527350F4F5F6111ECCF320F40E14B
:101A0000349FC0011124822B0895FC01328123816F
:101A1000A081B181A30FB11D8C9190E0022E02C074
:101A2000959587950A94E2F78170922F9150938350
:101A3000211104C03F5F328397E0938308958F9212
:101A40009F92BF92CF92DF92EF92FF920F931F93DC
:101A5000CF93DF9300D0CDB7DEB76C01812C912CF2
:101A6000B12CEE24E394F12C062F10E00150110963
:101A70001DC0C6014A836983C8DF4A816981882302
:101A800091F0442349F09801281939098E2D01C09D
:101A9000880F2A95EAF706C08E2D082C01C0880F02
:101AA0000A94EAF7B82A8FEF881A980A861608F37C
:101AB0008B2D0F900F90DF91CF911F910F91FF9081
:101AC000EF90DF90CF90BF909F908F900895A4E00B
:101AD000B0E0EDE6FDE00C94E32D1B8227E02C83C3
:101AE0009C012C5F3F4F3A83298310921C02FC011A
:101AF0002181338187E090E0831B9109F8E02F9FDB
:101B0000800D911D1124853491057CF554C00A2D5A
:101B100010E040E068E0CE01019691DF035E1D4FCA
:101B2000F8018083982E092C92949024092C969485
:101B300096949024CE01019668DF292D30E02F5F26
:101B40003F4F21FBCC24C0F8D12C90E0C816D90619
:101B500091F5CE01019659DF81112DC0F8018081E8
:101B6000B826A394A0921C0201C0B12CA0901C0224
:101B7000F5E0FA1560F640E068E0CE0101965FDF1F
:101B8000082F182F012E12951025012E1695169547
:101B90001025CE01019639DF212F30E02F5F3F4F16
:101BA00021FBEE24E0F8F12C282F30E0E216F306BA
:101BB00011F481E0B01280E02496EBE00C94FF2D4C
:101BC000A5E0B0E0E6EEFDE00C94E92DFC011B82FF
:101BD00087E08C83CF0104969A83898310921C023C
:101BE0008081853009F04EC02181338187E090E00B
:101BF000831B910938E0239F800D911D11248039AA
:101C0000910509F03FC00FE010EF29E812C0CE01A6
:101C100001962D8314DF080F111DEF2DF0E0E35E18
:101C2000FD4F2D8128272083282F2C5DF394F092DF
:101C30001C02F0901C028EE041E068E08F1538F73E
:101C4000CE010196FCDE080F111DEF2DF0E0E35EE2
:101C5000FD4F80958083F394F0921C0241E068E090
:101C6000CE010196ECDE382F20E0021B130B41E081
:101C700068E0CE010196E3DE282F30E081E0021714
:101C8000130709F080E02596E5E00C94052EA4E00A
:101C9000B0E0EDE4FEE00C94EB2D1B8227E02C83FA
:101CA0009C012C5F3F4F3A832983FC012181243022
:101CB00099F58381813081F510921C0214C01111B5
:101CC00006C067E0CE010196BADE806804C068E015
:101CD000CE010196B4DEE12FF0E0E35EFD4F80839C
:101CE0001F5F10931C0210911C0241E0143038F366
:101CF00067E0CE010196A3DEE12FF0E0E35EFD4F49
:101D0000880F80831F5F10931C0290911D02929593
:101D10009F7081E09A3009F080E02496E3E00C9413
:101D2000072EA0E0B0E0E7E9FEE00C94E62D8091FC
:101D300031028823B9F18091AE0387FF17C084E395
:101D40000E9443038058803458F0803C58F490E05F
:101D500080559109B3E095958795BA95E1F703C051
:101D600080E001C08FE08F590E9424068091AE036D
:101D700083FF16C082E70E9424068091AE0384FF91
:101D800004C0809132020E94240686E60E94240646
:101D90008091AE0384FF04C0809131020E9424062A
:101DA0001092310280913302882309F40DC2769A91
:101DB000C09134022CE1C29FE0011124C555DE4FD1
:101DC000CE01FEDE8111C7C1C0C110911C021150AD
:101DD00010931C02412F6DE172E086E0DFDD612F80
:101DE00070E0FB01E35EFD4F0081801303C01430FF
:101DF00008F0B3C1282F30E02F5F3F4FE02FF0E015
:101E00002E173F0739F4143028F0FB01E35EFD4F35
:101E10008083A3C1412F6DE172E08CE0BFDD8017AC
:101E200031F065E4CE0152DC811105C09AC1143055
:101E300008F095C1F6CF80911C02815080931C025E
:101E4000893009F08EC169E08DE192E0B1DD9091B9
:101E50002602891386C18AC1F0901C02FA94F0927E
:101E60001C026F2D8DE192E0AFDDEF2DF0E090913F
:101E70001B02E91BF109E35EFD4F9081891709F40C
:101E800092C18B81873009F090C11B82898181507A
:101E900089838DC18B81843009F0D4C04EE16CE31D
:101EA000CE014896F4DC882309F4CCC04EE16E2DB7
:101EB000C801EDDC682FCE0110DD20E0822F90E01C
:101EC000FC01E35EFD4FDE01A80FB91F14968C9153
:101ED00080832F5F253090F36FC1A1FD5DC03091ED
:101EE0003502B0911C023B1333C020E014C0822F96
:101EF00090E0422F4F5FFC01EA5CFD4F835E9D4FF7
:101F00005081FC018081581729F02093350223135A
:101F10001FC004C0242F231750F3F7CF4091A8030C
:101F20005091A9036091AA037091AB03C0904A023B
:101F3000D0904B02E0904C02F0904D024C195D099C
:101F40006E097F0931E0463251056105710508F0DF
:101F500030E020E00CC0822F90E0AC014A5C5D4F85
:101F6000835E9D4FFC018081FA0180832F5F2B17D8
:101F700090F3209335024091A8035091A9036091FA
:101F8000AA037091AB0340934A0250934B026093B3
:101F90004C0270934D0201C030E00435E9F4A6FD17
:101FA0001BC080911C028530B8F080911F028B34D9
:101FB00009F449C0893609F446C0833509F443C0A1
:101FC000843509F440C08D37F1F18E37E1F180910D
:101FD000200280778037B9F1311135C0802F0E94FF
:101FE000240680911B02882329F080911C028150D5
:101FF00080931C0210E008C0E12FF0E0E35EFD4F8B
:1020000080810E94DD061F5FE0911C021E17A0F375
:1020100080911B02882351F0F0E0E35EFD4F808148
:1020200040E361E08F7090E00E94A3068091AE03D0
:1020300085FF05C084E30E9443030E94DD060E94E1
:10204000690601C000E08091AE0382FF65C080E7B1
:102050000E94240640E262E0888190E00E946D06C2
:10206000888D40E265E0F0E18F9FC00111240E945D
:102070006D06898D40E265E020E1829FC001112458
:102080000E946D068A8D40E265E0E0E18E9FC0010E
:1020900011240E946D068B8D40E265E0F0E18F9F78
:1020A000C00111240E946D0640E263E08A8190E045
:1020B0000E946D0640E263E0898190E00E946D0617
:1020C0002B8140E262E087E090E0821B91090E9450
:1020D0006D0680E20E9424068091AE0385FF08C051
:1020E00084E30E9443030E94DD0680E20E942406EE
:1020F0008B81873019F089818F5F898310E007C059
:10210000FE01E10FF11D84810E94DD061F5F8981C0
:102110001817B0F30E94690618828091330281502B
:1021200080933302809134028F5F843019F0809362
:10213000340202C0109234027698043509F044C08B
:102140008DE192E00E94FE1C3FC066E4CE01BEDA43
:1021500081113BCE66CE03E532C006E430C004E513
:102160002EC0CE01B4DC811108C002C005E427C036
:10217000CE018DDD811103C004C008E420C004E756
:102180001EC0E09032028E01065E1F4F4B8D6E2DF9
:10219000C8017DDB682FCE01A0DB6BE4CE0196DAAF
:1021A00081115ACE6ECE0BE40AC08F5F8B8389817A
:1021B000843009F46FCE46CF20931C0202E5A09133
:1021C000AE03A0FD8ACE3FCFCDB7DEB7E8E00C94DA
:1021D000022E1F920F920FB60F9211242F933F934E
:1021E0004F935F936F937F938F939F93AF93BF931F
:1021F000EF93FF9310926F008091AE0383FF03C0B3
:102200008EE20E94240680914E029CE1899FF0019B
:102210001124E555FE4F9081933018F09181923052
:1022200010F429DB18C090913302933049F4809167
:10223000AE0382FFF6CF81EE91E00E945C06F1CF03
:102240009F5F909333028F5F843019F080934E022A
:1022500002C010924E02FF91EF91BF91AF919F91FA
:102260008F917F916F915F914F913F912F910F903F
:102270000FBE0F901F901895982F9552973160F4CC
:102280006A3050F0673240F421E030E0681710F017
:1022900020E030E0C901089580E090E008951F92A9
:1022A0000F920FB60F9211240F931F932F933F930A
:1022B0004F935F936F937F938F939F93AF93BF934E
:1022C000CF93DF93EF93FF9380918704882321F0CE
:1022D00082E08093870425C180913B04823021F401
:1022E00083E080933B041DC1809184009091850020
:1022F000E4E096958795EA95E1F7182FC0914E0294
:102300008CE1C89FE0011124C555DE4F88818430DF
:1023100031F41E3208F405C11F3448F0A6C08530E0
:1023200031F4173108F4FDC0183208F09EC00E9445
:102330009F0281110EC088818450823038F461E0A0
:10234000CE01CBDA109285001092840010933202F5
:10235000E8C000913202101B1093310210928500E8
:102360001092840088818450823020F460E0CE0195
:10237000B4DAD7C082E086BB8881811111C0909108
:102380003202953608F0CDC080913102853608F0D2
:10239000C8C0988F898F81E08A8382E08883C1C01A
:1023A000412F602F823009F070C0CE0148966FDA5D
:1023B000882301F1888D90E09C01220F331F280FA4
:1023C000391F200F311D3595279535952795288F75
:1023D000298D30E0C901880F991F820F931F810F4B
:1023E000911D9595879595958795898F8A818F5FA2
:1023F0008A8397C08A81843008F445C080EA9FE0D0
:1024000090938900809388008A818C3050F0888D69
:10241000298D30E0280F311D2536310524F084E068
:1024200027C08A3088F0888D298D30E0280F311D33
:10243000253231054CF485E0888388EE93E0909353
:1024400089008093880015C08091B403882379F0B7
:10245000612F802F11DF882351F0688D898D0CDF6B
:10246000882329F081E080933B0405DA5AC083E099
:1024700088830A8F1B8F198287E08B831C8282E0FE
:1024800080936F004EC018827ACFCE014A96FFD952
:10249000882301F161E0CE0120DA4A8D50E09A01F3
:1024A000220F331F240F351F200F311D359527951F
:1024B000359527952A8F2B8D30E0C901880F991FFC
:1024C000820F931F810F911D9595879595958795FF
:1024D0008B8F27C0412F602FCE014896D8D98823F3
:1024E00009F4C3CF60E0CE01F8D9488D50E09A01DD
:1024F000220F331F240F351F200F311D35952795CF
:1025000035952795288F298D30E0C901880F991FAF
:10251000820F931F810F911D9595879595958795AE
:10252000898FFF91EF91DF91CF91BF91AF919F91F3
:102530008F917F916F915F914F913F912F911F915B
:102540000F910F900FBE0F901F901895E0914E02C3
:102550008CE1E89FF0011124E555FE4F8081811147
:1025600009C081E090E0209176042F3F29F480E0BB
:1025700090E0089581E090E0089580E690E00E9468
:1025800042078093B40381E690E00E944207809363
:102590004504882321F081E28093AE03DBC90895CE
:1025A0005B9A0C94A2025B980C94A202A7E0B0E0A4
:1025B000ECEDF2E10C94E72D9091BD03943559F4C4
:1025C00020913E0430913F042F5F3F4F30933F04F2
:1025D00020933E043EC0963459F420913C0430913F
:1025E0003D042F5F3F4F30933D0420933C0431C0A6
:1025F000953459F42091B1033091B2032F5F3F4FCE
:102600003093B2032093B10324C09B3459F420913A
:102610004104309142042F5F3F4F30934204209396
:10262000410417C0983459F4209143043091440474
:102630002F5F3F4F30934404209343040AC02091FE
:10264000AF033091B0032F5F3F4F3093B00320931F
:10265000AF0395E79983882399F0BE016E5F7F4FA2
:10266000809145040E942A07BE016C5F7F4F8091D4
:10267000B4030E942A0785E58E8396E0D92E02C016
:10268000DD24D3940E9422040E94A90316E080E86E
:1026900091E086DF80E093E086DF1150C1F780E0B3
:1026A00093E07EDF80E891E07EDF80E891E078DFF4
:1026B0005B9887E390E00E94BC0383E090E00E9477
:1026C000A70228988FE70E9496028091B7038D0D8C
:1026D0000E949602EE24E394F12CEC0EFD1E87017D
:1026E000F80181918F010E949602802F8E198D151D
:1026F000B8F306C085EB93E00E9482080E94960220
:102700008091B7038111F6CF289A0E94A90385EB27
:1027100093E00E94670815E104C081E090E00E9408
:10272000A7028AE30E9443038F7711F01150A9F7A3
:1027300011D92796E7E00C94032ECF93DF93EC0199
:102740008981811107C08091B4030E94DD068091C8
:10275000450413C08436A1F48091A8039091A90385
:10276000A091AA03B091AB0340E364E00E94A306EA
:102770008EE20E94240680913A040E94DD064DC03C
:10278000833709F04DC040E361E080913E049091B1
:102790003F040E94A3068EE20E94240640E361E00B
:1027A00080913C0490913D040E94A3068EE20E9419
:1027B000240640E361E08091B1039091B2030E944E
:1027C000A3068EE20E94240640E361E0809141046A
:1027D000909142040E94A3068EE20E94240640E3E8
:1027E00061E080914304909144040E94A3068EE22C
:1027F0000E94240640E361E08091AF039091B00312
:102800000E94A3068EE20E94240640E361E08091CC
:102810003804909139040E94A3060E9469062CC0D6
:102820008936D9F441E064EB73E0CE0102960E9450
:10283000E1066091B40380E690E00E943D0741E02C
:1028400065E474E0CE0104960E94E10660914504BF
:1028500081E690E00E943D070FC085EB93E00E9467
:102860006708219604C085EB93E00E946C0869918B
:102870006111F9CF80E09ADEDF91CF910895A1E058
:10288000B0E0E5E4F4E10C94E62D80913B0488236C
:1028900009F485C0C090A803D090A903E090AA03D2
:1028A000F090AB03833009F060C08FE30E944303D4
:1028B000182F8630C8F08BE095E00E9467082898B2
:1028C0008FEF0E94960280E00E949602082F08C0B7
:1028D00080E00E949602682F8BE095E00E946C08D1
:1028E0001150B1F7289A01C000E034D810923B048F
:1028F000053709F054C041E0BE016F5F7F4F8EE0A5
:1029000095E00E94E106019759F599818091B40301
:10291000981326C080911205853571F406C08BE0AE
:1029200095E00E9482080E94240680910D05811185
:10293000F6CF0E94690633C080910D0584508093C4
:102940000D0584E080930C056AE08BE095E00E9421
:102950006C08E091A403F091A50388E009951FC0DD
:102960008BE095E00E9467081AC0823059F490917C
:10297000B3038C2D891B883090F00E94AA0C109212
:102980003B040DC0813059F487E390E00E94BC0302
:102990000E94960382E080933B04C092B303219689
:1029A000E8E00C94022ED2DD882361F083E080936E
:1029B0004004809138049091390401969093390431
:1029C0008093380480914004815080934004882390
:1029D00021F083E080933A04089581E0E7CD282F29
:1029E00080912101909122015B9A213069F49C0130
:1029F000220F331F820F931F0E94A2025B988091C7
:102A00002101909122012EC0211120C00E94A2021A
:102A10005B9880912101909122019C01220F331F2C
:102A2000820F931F0E94A2025B9A809121019091D4
:102A300022010E94A2025B988091210190912201C3
:102A40009C01220F331F820F931F1FC00E94A202FE
:102A50005B9880912101909122019C01220F331FEC
:102A6000820F931F0E94A2025B9A80912101909194
:102A700022019C01220F331F820F931F0E94A2028A
:102A80005B9880912101909122010C94A202CF9336
:102A9000DF93EA98209A289A8EE190E00E94A202A1
:102AA00028988EE190E00E94A202289A8DE290E0A0
:102AB0000E94A20280E30E94920384E690E00E94BA
:102AC000A202289880E40E949602C8EED1E0FE019E
:102AD00084910E9496022196F1E0C53FDF07B9F785
:102AE00080911C010E94960280911D010E94960215
:102AF00080911E010E949602C0E0D0E0FE01E850E5
:102B0000FE4F84910E9496022196C931D105B1F7FA
:102B1000289A28988EE70E9496028BE290E0EC01BA
:102B200021960E9442070E949602CE01C333D1052E
:102B3000B1F7289A83E30E94920381E090E00E941B
:102B4000A70281E08093A603DF91CF910895A0E0D2
:102B5000B0E0EDEAF5E10C94E52DEC0189818437D4
:102B600069F461E271E0CE0102960E940F0740E233
:102B700060E0809121019091220112C0833709F019
:102B8000ACC08A81823789F46FE171E0CE0103968F
:102B90000E940F0740E260E080911F0190912001A8
:102BA0000E946D060E94690603C1769A80915102C7
:102BB000811117C080911203882329F081E080934E
:102BC00050021092120380911403882329F081E0AF
:102BD00080934F02109214035ADF83E090E00E942A
:102BE000A70286E30E9492038AE30E9492038BE38A
:102BF0000E9492030E94A90300E010E06E0182E0AF
:102C0000C80ED11C23C0F70181917F01803311F4DC
:102C100080E005C0813311F481E001C082E0DFDE95
:102C2000BA9489F75B9A80912101909122010E94C8
:102C3000A2025B98AFE1FA2E8091210190912201CE
:102C40000E94A202FA94C1F70F5F1F4F80911F01EB
:102C5000909120010817190720F47601FCE0BF2E9F
:102C6000D2CF80915102882341F08091AE0381112F
:102C70000FC086E30E94920319C0809150028823FE
:102C800051F0109250020E94711E81E08093120355
:102C90000E9496030BC080914F02882329F0109266
:102CA0004F020E94222002C00E94AA0C769889E658
:102CB0000E94240683E70E942406229611E089914F
:102CC000803309F404C0813309F401C086E40E9412
:102CD00024061F5F1D3099F765CF8237B9F48091C4
:102CE0001203882329F081E080935002109212038E
:102CF00080911403882329F081E080934F02109281
:102D00001403C5DE81E08093510252C0863651F52E
:102D10008A81803351F480E180931C0180EB8093A1
:102D20001D0181E780931E0107C043E06CE171E063
:102D3000CE0102960E94E10689E60E94240686E6FC
:102D40000E9424068AE30E94240680911C010E94AE
:102D5000DD0680911D010E94DD0680911E010E940A
:102D6000DD0620CF883721F580915002882339F085
:102D700010925002B6D781E08093120311C0809167
:102D80004F02882329F010924F020E9422200EC089
:102D900082E090E00E94BC038091AE03882319F08A
:102DA0000E94960303C086E30E9492031092510290
:102DB000CDB7DEB7E9E00C94012EA2E0B0E0E3EE7F
:102DC000F6E10C94DE2D7C01FC018181833709F052
:102DD00096C1198287E090E00E94132E8C0141E099
:102DE000BE016F5F7F4FC70102960E94E106898195
:102DF000F801808341E0BE016F5F7F4FC7010496F9
:102E00000E94E1062981207FF801218341E0BE0173
:102E10006F5F7F4FC70106962A830E94E106898172
:102E2000F801828341E0BE016F5F7F4FC7010896C2
:102E30000E94E1068981F801838341E0BE016F5F52
:102E40007F4FC7010A960E94E1068981F8018683B7
:102E500041E0BE016F5F7F4FC7010C960E94E10603
:102E60008981F801858341E0BE016F5F7F4FC70113
:102E70000E960E94E1068981F801848380E090E04B
:102E80002A814191342F32953F70342783279F5FE9
:102E90009730B9F78F70822BF801818387E090E03B
:102EA0000E94132E5C0187E0F801D50101900D927C
:102EB0008A95E1F7D8011196C8010696F8013D916F
:102EC000219123272083E817F907C9F7769A809183
:102ED0005402811160C080911203882329F081E09F
:102EE000809353021092120380911403882329F0D7
:102EF00081E08093520210921403EA98209A289A53
:102F00008EE190E00E94A20228988EE190E00E945B
:102F1000A202289A8DE290E00E94A20280E30E9421
:102F2000920384E690E00E94A202289880E40E9426
:102F3000960271E1E72E72E0F72EF70184910E946C
:102F40009602FFEFEF1AFF0A2AE3E21622E0F206EA
:102F5000A1F7289A28988EE70E9496028BE290E0CB
:102F60007C01EFEFEE1AFE0A0E9442070E949602D1
:102F7000C70183339105A1F7289A83E30E94920346
:102F800081E090E00E94A70281E08093A60383E0A5
:102F900090E00E94A70286E30E9492038AE30E94C7
:102FA00092038BE30E9492030E94A9035B9A87EC31
:102FB00094E20E94A2025B9889E590E00E94A70239
:102FC00085E392E00E94A202E12CF12C54C0EE2095
:102FD00011F027E001C022E0D12C5B9A86EF99E046
:102FE0002A830E94A2025B9886EF99E00E94A202C7
:102FF000D3942A81D2168CF35B9A8CEF92E10E94D3
:10300000A2025B9880912301909124010E94A20268
:103010006801512CF60181906F0158E0452E60E85F
:10302000662E712C912C9301282139218091230146
:1030300090912401232B29F45B9A0E94A2025B98B1
:1030400004C05B980E94A2025B9A80912301909138
:1030500024010E94A202769467944A9421F7539423
:10306000F7E05F12D7CF5B9880E090E00E94A20269
:103070002FEFE21AF20A8091270190E0E816F90694
:103080000CF4A5CF80915402882341F08091AE03C7
:1030900081110EC086E30E94920317C080915302F3
:1030A000882349F0109253021CD681E080931203CA
:1030B0000E9496030AC080915202882321F0109248
:1030C0005202C0D702C00E94AA0C769889E50E94DD
:1030D000240683E70E942406750137E0D32EF7010A
:1030E00081917F010E94DD06DA94C9F70E9469068A
:1030F000C5010E94AE2EC8010E94AE2E6DC082375F
:10310000A9F467E271E0C70102960E940F0789E502
:103110000E94240682E70E9424068AE30E94240675
:1031200040E260E08091270190E02CC0843779F57F
:10313000F7018281803339F488ED94E09093260181
:103140008093250106C065E271E0C70102960E94E6
:103150000F07809125019091260196958795909370
:1031600024018093230189E50E94240684E70E94BC
:1031700024068AE30E94240640E266E0809125014D
:10318000909126010E946D060E94690625C088372D
:1031900019F580915302882339F010925302A1D57A
:1031A00081E08093120310C080915202882321F0A5
:1031B0001092520247D70EC082E090E00E94BC03FA
:1031C0008091AE03882319F00E94960303C086E322
:1031D0000E949203109254022296E0E10C94FA2D80
:1031E000109261041092030383E0809304038FEF35
:1031F000809376040895E5E5F2E00EC0009751F063
:103200004181DC013C91431305C0428111963C9100
:103210004317B1F0E20FF11D2081211105C0892B68
:1032200041F0E0E0F0E00CC0B3E0E330FB0730F346
:10323000F6CF33E0E330F30719F010F0E3E0F3E00A
:10324000CF01089594E0899FF0011124E958FB4FC4
:1032500080818F3F91F080930503818180930603E5
:1032600082818093070383818093080321E04CE0EF
:1032700064E085E093E00C947E0908958BE093E090
:10328000BADF009799F020910403FC0130812317E5
:1032900068F4E20FF11D808180930D0389E780932C
:1032A0000E03818180930F0381E0089580E00895EB
:1032B000EF92FF921F93CF93DF931F92CDB7DEB7AC
:1032C000182F8091AE0386FF18C084E599830E9471
:1032D0002406E12E9981F92E15E0F70181917F01F5
:1032E0000E94DD061150C9F78091AE0385FF03C02F
:1032F0008AEF0E94DD060E9469060F90DF91CF9150
:103300001F91FF90EF90089586E30E9492038091B1
:103310000D03833519F48BE990E002C08BE490E053
:103320000E94A70221E04CE065E08BE093E00E9460
:103330007E090E9496038BE093E0BACFE5DF80918F
:103340000D03893631F081E080930A0389E280938E
:1033500076040895CF9385E390E00E94420780931E
:10336000470486E390E00E94420780937504CFEF04
:10337000C0936504C0936704C0936904C0936B0451
:10338000C0936D04C0936F04C0937104C093730421
:1033900027DF1092550281E080934604C0937704A2
:1033A0008FEF9FEF90934A048093490410924C044E
:1033B00010924B0410924E0410924D04C0937B0463
:1033C0009093500480934F04109252041092510431
:1033D0001092540410925304C0937F0490935604A7
:1033E00080935504109258041092570410925A0476
:1033F00010925904C093830490935C0480935B04FF
:1034000010925E0410925D041092600410925F04AA
:10341000CF910895ACE0B0E0E0E1FAE10C94E52D45
:103420006C018C010F5F1F4F45E0BE016F5F7F4F46
:10343000C8010E94E106843008F0F4C099819130FF
:10344000A9F4833061F46A8185E390E00E943D072E
:103450006B8186E390E00E943D077CDF09C280918A
:1034600047040E94DD06809175049BC0923009F0EC
:1034700052C0813041F081E090E02A81213029F072
:1034800080E090E002C081E090E0E82E809155025B
:10349000811104C086E592E00E945C0605E512E019
:1034A00030C032E00535130719F080E20E9424068F
:1034B000F80181810E94DD06F80182810E94DD060B
:1034C000E11005C0F8018081080F111D1AC08AE3C0
:1034D0000E94240693E0F92E0FC0F3E0FF1528F4B4
:1034E000F0FE03C08CE20E942406F801EF0DF11DEE
:1034F000F39480810E94DD06F8018081F81668F35C
:10350000E1CFF8018081882309F489C0F3E003301A
:103510001F0738F284C0933049F480E090E06BDEFE
:10352000855592409EEA981B892F3BC0903171F5DA
:1035300005E614E086E6E82E84E0F82EC12CD12CB6
:10354000F80180818F3FA1F0DD2019F080E20E9418
:1035500024068C2D0E94DD068AE30E942406F801D1
:1035600080810E94DD06F70180810E94DD06D394F0
:103570000E5F1F4FC394F2E0EF0EF11C38E0C31250
:10358000DFCFD1104CC088E492E047C0913161F4A4
:1035900080916304909164046DE770E00E94B52D02
:1035A000862F0E94DD063BC09231C9F517E7E12E58
:1035B00014E0F12E0AE714E0C12CD12CF701808130
:1035C0008F3FF1F0DD2019F080E20E9424068C2D5F
:1035D0000E94DD068AE30E942406F70180810E9492
:1035E000DD06F801329780810E94DD06F8013197EF
:1035F00080810E94DD06F80180810E94DD06D3945F
:10360000F4E0EF0EF11CC3940C5F1F4F34E0C312C3
:10361000D5CFD11004C08CE492E00E945C060E94D9
:10362000690626C144E0BE01695F7F4FC8010E9460
:10363000E1064F81493608F479C05A856885798555
:103640005C3009F04DC020E030E080E090E0F9010E
:10365000E958FB4F508154131CC0A181A61319C017
:10366000A281A71316C02CE023839C01220F331FD5
:10367000280F391FF901EE0FFF1FE75BFB4F118287
:103680001082F901EE0FFF1FE55BFB4F11821082E4
:10369000D1C05F3FE9F440832885218329852283B7
:1036A0002CE023839C01220F331F280F391FF901BF
:1036B000EE0FFF1FE75BFB4F11821082F901EE0F47
:1036C000FF1FE55BFB4F1182108210924604B2C0CF
:1036D00001962C5F3F4F2031310509F0B8CFC8C0AB
:1036E00080E090E020E030E0FC01E958FB4FA08151
:1036F000A41315C0A181A61312C0A281A7130FC0E5
:103700005383F901EE0FFF1FE20FF31FEE0FFF1FB0
:10371000E55BFB4F81E090E091838083A9C02F5F40
:103720003F4F049680319105F9F6A2C0E98180915E
:103730004704E817C8F190E0F0E09C01295F3F4F93
:103740002E173F078CF13A812091750432132CC05B
:103750002C812F3231F442E06CE0C6010E94EE0968
:1037600087C02C32B9F42D812093620481E090E06F
:1037700090936404809363048091AC039091AD03B3
:10378000E4E02E9F800D911D11249093AD03809352
:10379000AC036EC0E81BF90BEE0FF0E0EB59FB4FEA
:1037A00020838D81818364C080E090E024DD7C01F2
:1037B000F80101900020E9F73197E01BF10BF69535
:1037C000E795BE2EB394C7018B0D911D8555924090
:1037D0008F3A91050CF048C0F701B1928F0121E0BA
:1037E0001AC041E0B801F601E80FF11DCF012C87A6
:1037F0000E94E1062C85233058F020FD09C0D80135
:1038000011978C91843621F4F801808180934804CB
:103810002F5F0F5F1F4F822F880F81502B1508F3EA
:10382000F3E0EF16F3E0FF0618F5F701E20FF11DE4
:1038300010821EC022E04CE064E0CE0107960E9498
:103840007E098FE08A8722E04CE064E0CE01079693
:103850000E947E0982E08A8722E04CE064E0CE018B
:1038600007960E947E0904C080E592E00E945C06F3
:103870002C96E9E00C94012E0F931F93CF93DF93C6
:103880009091460491114BC093E0899F80011124CF
:10389000F801EE0FFF1FE75BFB4F94E0899FD0011B
:1038A0001124A958BB4F12969C91977046E0949FA3
:1038B0009001391B11243358359527953595279557
:1038C00031832083E801CC0FDD1FC35BDB4F2881F0
:1038D00039812F5F3F4F39832883000F111F055B0C
:1038E0001B4FF801408151814115510529F42430C5
:1038F0003105A9F4A7DC11C04130510539F4A2DC2F
:1039000082E090E0F8019183808309C04230510544
:1039100031F498DCF8011182108219821882DF914B
:10392000CF911F910F910895A6E0B0E0EAE9FCE184
:103930000C94E82D809175048A831B829091620417
:10394000992341F0933019F487E791E00CC08DE79B
:1039500090E009C087702DE7829FC0011124825B2F
:103960009F4895958795909364048093630406E639
:1039700014E0F12C7CE2E72EF801319790819F3F13
:10398000C1F0809147048F0D898380916204882360
:1039900011F0EC8203C09C83F80180818D8321E0CB
:1039A0004CE065E0CE0101960E947E09CE010196B1
:1039B0007FDCF3940E5F1F4FF8E0FF12DDCF8091A4
:1039C0006204882341F0833019F41092620403C02A
:1039D0008250809362042696E6E00C94042E809137
:1039E0000A03882351F090DC89E280937604809169
:1039F0000A03815080930A030895F2CBFF920F933C
:103A00001F93CF93DF93FC01F0800181C281D381AA
:103A100014818FE58093760410920A038091470405
:103A2000811105C080917504882309F4ABC0809191
:103A30000B038F1104C080910C03801729F0D0DB99
:103A4000F0920B0300930C03809161048F3F09F403
:103A500099C0C0930D03D0930E0310930F03CC2392
:103A6000F1F081111CC080914704181761F01436E1
:103A700051F08C2F8355823010F0CD3739F48FEF11
:103A8000809361047FC0C43509F47CC08D2F807F92
:103A9000803609F077C0D067D0930E0367C0EEDBA5
:103AA000811105C080916104882309F46BC0809165
:103AB0000303811107C0E0916104F0E0E65CFD4F73
:103AC000E49101C0E82FE33541F4C43531F490911D
:103AD00061049E5F9093610404C0EC1711F080DBD9
:103AE00051C0882309F444C0809104038E5F809301
:103AF0000403C4DB811106C0809161048E5F809352
:103B0000610436C080910D0380930303843671F500
:103B10008091480480930F0329C010930D0397E709
:103B200090930E039091470490930F038E5F8093C0
:103B30006104109203038E30B9F48BE093E05BDBF9
:103B4000DC01009781F02C9130E083E093E0821B50
:103B5000930B05C0ED01C20FD31F48814D93A817E9
:103B6000B907C0F31C923CDB112361F0E7DB0AC00C
:103B700080916104E82FF0E0E55CFD4F14911F3F58
:103B800061F6C0CFCDB7DEB7E5E00C94052E0F93FC
:103B90001F93CF93DF93EC01A82FBD2FFD01019060
:103BA0000020E9F73197EA1BFB0B8981823751F43A
:103BB00087E390E00E94BC030E94960381E080931B
:103BC000870426C0833711F50E2F28988FE70E94AF
:103BD0009602802F82500E949602229612E004C024
:103BE00089910E9496021F5F1017D0F3289A0E94B5
:103BF000A90304C084E690E00E94A2028AE30E9426
:103C000043038F77B9F70E94960302C0109287048E
:103C1000DF91CF911F910F910895A0E8B0E0E3E10B
:103C2000FEE10C94E62D80918704882309F454C0AA
:103C3000813011F58091A8039091A903A091AA0366
:103C4000B091AB0320911103281709F445C085E317
:103C50000E944303813129F48AE30E9492030E9467
:103C600096038091A8039091A903A091AA03B09113
:103C7000AB038093110330C08FE30E944303D82E1F
:103C800087FD27C028988FEF0E9496028E010F5F54
:103C90001F4F7801C02E06C080E00E949602F701F7
:103CA00081937F018E2D8C198D15B0F3289A81E0B8
:103CB0008093A50105C0F80181918F010E9424061F
:103CC000802F8C198D15B8F30E9469068FEF8093B1
:103CD000A50181E080938704C058DF4FE8E00C9491
:103CE000022ECF93DF93EA98209A289A8EE190E0F3
:103CF0000E94A20228988EE190E00E94A202289AD7
:103D00008DE290E00E94A20280E30E94920384E68A
:103D100090E00E94A202C0E0D0E0FE01EF58FD4F0B
:103D20006491FE01E059FD4F84910E948003229628
:103D3000C233D10591F780911303811108C083E349
:103D40000E94920384E090E00E94A70211C0C0E0AC
:103D5000D0E0FE01E55AFD4F6491FE01E65AFD4FA9
:103D600084910E9480032296C631D10591F7E7CF56
:103D700084E30E94920385E30E9443038D30C1F7E0
:103D8000DF91CF910895A2E3B0E0E9ECFEE10C945D
:103D9000EA2D80911203882309F4A5C00E949F0296
:103DA000882309F48BC08FE30E9443038F778983B4
:103DB000823368F08AE30E94920386E30E949203B2
:103DC0008DE30E94920384E30E9492038CC02898A2
:103DD0008FEF0E94960210E00BC080E00E949602D6
:103DE000E2E0F0E0EC0FFD1FE10FF11D80831F5FAB
:103DF0008981181790F380E00E949602082F80E0D6
:103E00000E949602289A84E30E94920385E30E940E
:103E100043038D30C1F72A8196E792279A8392E077
:103E20000CC041E050E04C0F5D1FE40FF51F3081E6
:103E30002452232720839F5F232F8981E92FF0E0DD
:103E4000981778F381E090E08C0F9D1FE80FF91F21
:103E500090818B81982790838091AE0384FF13C05B
:103E600081E60E94240610E00AC0E1E0F0E0EC0FD9
:103E7000FD1FE10FF11D80810E9424061F5F8981D3
:103E8000811798F71BC081E40E94240610E00AC045
:103E9000E1E0F0E0EC0FFD1FE10FF11D80810E94D9
:103EA000DD061F5F8981811798F78091AE0385FF3A
:103EB00003C0802F0E94DD060E94690685E30E94F0
:103EC0004303813029F0813161F48AE30E94920337
:103ED00086E30E9492038DE30E94920384E30E9492
:103EE00092030E946704E296E4E00C94062EA2E39B
:103EF000B0E0EDE7FFE10C94E62D41E3BE016F5F1A
:103F00007F4F01960E94E1067C019C0133272150DE
:103F10003109898190E02817390709F077C080912D
:103F20001203811105C0DDDE83E090E00E94A7024C
:103F30001B818A8196E789278A8392E009C0DE0186
:103F4000A20FB31F8C9184522081822780839F5FB0
:103F50008981292F30E0E1E0F0E0EC0FFD1FE20F56
:103F6000F31F981760F380818127808385E30E9487
:103F7000920385E30E9443038331C1F714FF0BC012
:103F800088E790E00E94A70288E790E00E94A702DD
:103F900088E790E002C08AE090E00E94A70228989B
:103FA0008FE70E949602CC24C394D12CCC0EDD1E48
:103FB000860105C0F80181918F010E949602802F31
:103FC0008C198E15B8F3289A85E30E944303833138
:103FD000D9F385E30E944303863149F48BE30E94C1
:103FE000920386E30E9492038DE30E9492038091E4
:103FF0001203882349F084E30E94920385E30E9420
:1040000043038D30C1F702C00E94AA0CE296E8E09B
:104010000C94022EFC012181223731F0223559F413
:1040200081E08093130302C0109213035ADE81E0F3
:10403000809312030895233711F4019658CF1092FC
:1040400012030895CF93DF93EA98209A289A8EE17D
:1040500090E00E94A20228988EE190E00E94A202C5
:10406000289A8DE290E00E94A20280E30E949203CF
:1040700084E690E00E94A702C0E0D0E0FE01EE5589
:10408000FD4F8491813448F083E30E94920384E0E1
:1040900090E00E94A702CFEF0BC0FE01ED55FD4F4F
:1040A00064910E9480032296CC33D10539F7ECCF7E
:1040B00084E30E9492038AE090E00E94A202C15031
:1040C000B9F781E080931403DF91CF910895EF92C7
:1040D000FF920F931F93CF93DF93EC018B01F88036
:1040E000F3946115710519F0E4E6F0E002C0E0E038
:1040F000F0E028E0F29EC00111246AE070E00E9426
:10410000C92D9B012E0F3F1FC901AA2797FDA0951E
:10411000BA2FE091AC03F091AD03AF0160E070E025
:10412000481759076A077B0728F487EE92E00E9438
:104130005C06D9C0E21BF30BF093AD03E093AC0334
:1041400080911403811101C07DDF85E30E94430348
:104150008D3071F08AE50E94240685E40E942406D1
:1041600082E50E94240682E50E94240681E34DC078
:1041700080911B0390911C03A0911D03B0911E031D
:10418000892B8A2B8B2B69F40E94A90385E30E945B
:104190004303833109F444C02BC081E090E00E94C6
:1041A000A7028091A8039091A903A091AA03B091BE
:1041B000AB0340911B0350911C0360911D03709150
:1041C0001E0384179507A607B70739F38091A80344
:1041D0009091A903A091AA03B091AB034F5F5F4FE9
:1041E0006F4F7F4F84179507A607B707B1F2CCCF63
:1041F0008AE50E94240685E40E94240682E50E9446
:10420000240682E50E94240682E30E94240685E3B8
:104210000E9443030E94DD060E94690613DF63C00B
:10422000012B41F428988FE70E949602EC2E0C2F68
:104230001D2F0FC00AE010E084E690E00E94A70264
:1042400001501109C9F7EECFF80181918F010E9449
:104250009602802F8E198F15B8F3289AC8EC85E343
:104260000E9443038D3031F485E30E9443038D3077
:1042700069F423C085E30E9443038331A9F781E0F9
:1042800090E00E94A702C15051F7EECF8AE50E944C
:10429000240685E40E94240682E50E94240682E525
:1042A0000E94240683E30E94240685E30E944303C0
:1042B0000E94DD060E946906C5DE8091140381110B
:1042C00002C00E94AA0C8091A8039091A903A0911A
:1042D000AA03B091AB0380931B0390931C03A0939C
:1042E0001D03B0931E03CDB7DEB7E6E00C94042E99
:1042F000ACE0B0E0EEE7F1E20C94E92DFC018BE0DC
:10430000898381818A831B8282E08C8387818D836C
:1043100080858E8381858F83848188878581898745
:1043200086818A871B861C8684E190E00E94A70212
:1043300060E070E08E010F5F1F4FC801C8DE8AE5A4
:104340000E942406F12C07C0F801E80FF91F8081B4
:104350000E94DD06F3948F2D90E0298130E028172C
:10436000390794F78091AE0385FF03C080E00E9477
:10437000DD060E9469062C96E5E00C94052ECF938D
:10438000DF93EC0190911503911108C08091160301
:10439000811104C0809117038823B1F08B81803391
:1043A00021F0803411F0803579F48F8189130CC0AD
:1043B000988580911603981307C0998580911703FB
:1043C000981302C0CE0194DF80911803811108C0B8
:1043D00090911903911104C090911A039923A9F0A7
:1043E00098819B3091F49B81903479F49F8198134C
:1043F0000CC0988580911903981307C09985809106
:104400001A03981302C0CE0173DFDF91CF91089594
:10441000AEE1B0E0EEE0F2E20C94E82D80911403FE
:10442000882309F46AC00E949F02882309F457C0B8
:104430008FE30E9443038F778E3108F401C08DE132
:10444000898328988FEF0E94960210E00BC080E0CD
:104450000E949602E2E0F0E0EC0FFD1FE10FF11D7B
:1044600080831F5F8981181790F380E00E94960275
:10447000E82E80E00E949602289A8E010F5F1F4F5F
:10448000C8017DDF8091AE0384FF10C08AE70E94DF
:104490002406F12C07C0F801EF0DF11D80810E9468
:1044A0002406F39489818F15B0F727C08AE50E940E
:1044B0002406F12C07C0F801EF0DF11D80810E9448
:1044C000DD06F39489818F15B0F78091AE0385FFE7
:1044D00003C08E2D0E94DD060E9469060EC085E392
:1044E0000E944303813149F48AE30E94920386E3E8
:1044F0000E94920384E30E9492036E96E6E00C947D
:10450000042EAEE1B0E0E7E8F2E20C94EA2D8C0173
:10451000FC018181823711F495DD36C0833711F0BB
:10452000863601F54DE1BE016F5F7F4FC8010296EF
:104530000E94E10699270197298130E082179307AD
:1045400029F08EEE92E00E945C061EC061E070E0F1
:10455000F8018181833711F060E070E0CE010196AF
:10456000B6DD12C0813621F443E065E173E005C099
:10457000873741F443E068E173E0C80102960E9486
:10458000E10602C0109214036E96E4E00C94062E2D
:104590000F931F93CF93DF93EC0110E0812F90E0F6
:1045A0009C01220F331F280F391FF901E455FF4FDB
:1045B000049123553F4FF90125913491002399F03F
:1045C000209739F480E20E942406802F0E9424065E
:1045D00008C08881801305C0CE01F901099581E0EA
:1045E00003C01F5FDBCF80E0DF91CF911F910F9160
:1045F0000895CF93C091A5018093A50134C08BE0AD
:1046000095E00E94820890911F038A3011F08D304E
:1046100001F5992341F1E92FF0E0E05EFC4F1082B3
:1046200080E293E0B5DF811111C087EF92E00E9434
:104630005C0680E293E00E9451068BEF92E00E94BC
:104640005C0680E090E0A4DF0E94690610921F03E0
:104650000AC097FD08C0E92FF0E0E05EFC4F8083C0
:104660009F5F90931F0380910D058111C8CFC09368
:10467000A501CF91089520911209309113092115B8
:10468000310521F420912A0130912B0180912801DC
:1046900090912901009741F48DB79EB740912C016C
:1046A00050912D01841B950B2817390728F4AC0174
:1046B000421B530B9A0102C020E030E0C90108956B
:1046C00082E40E94240640E265E080911209909104
:1046D00013090E946D060E94690683E50E94240664
:1046E00040E265E080912A0190912B010E946D06C5
:1046F0000E94690685E40E94240640E265E08091FC
:104700002801909129010E946D060E94690686E4A5
:104710000E942406B0DF40E265E00E946D060C9422
:104720006906CF93DF93EA01292F33272230310521
:1047300039F02330310549F02130310509F125C028
:104740002EE330E0EFE4F3E024C0992781309105B7
:1047500041F08230910541F0892BB9F4EBE4F3E0AC
:104760000CC0E3E3F3E009C00E947102882319F052
:10477000E3E1F3E002C0E3E2F3E0249130E009C0BA
:1047800022E130E0EDE8F3E004C020E030E0E0E0DA
:10479000F0E0F983E883C901DF91CF91089540915A
:1047A000990550919A054617570748F0611571050C
:1047B00039F44091E8004E774093E80001C0BA0117
:1047C000FC0140E033C080919205882309F444C085
:1047D000853009F443C08091E80083FD41C0809199
:1047E000E80082FD33C08091E80080FF1FC09091F7
:1047F000F3008091F200392F20E0A901482BCA0173
:1048000006C041914093F100615071090196611514
:10481000710519F088309105A0F341E0089709F07F
:1048200040E08091E8008E778093E8006115710583
:1048300051F64111C8CF0AC080919205882361F0DA
:10484000853061F08091E80083FD0AC08091E80026
:1048500082FFF2CF80E0089582E0089583E008951A
:1048600081E008954091990550919A0546175707A0
:1048700048F06115710539F44091E8004E77409396
:10488000E80001C0BA01FC0140E034C0809192050B
:10489000882309F445C0853009F444C08091E800BC
:1048A00083FD42C08091E80082FD34C08091E80021
:1048B00080FF20C09091F3008091F200392F20E01A
:1048C000A901482BCA0107C044914093F1003196D9
:1048D0006150710901966115710519F088309105D3
:1048E00098F341E0089709F040E08091E8008E7766
:1048F0008093E8006115710549F64111C7CF0AC0E0
:1049000080919205882361F0853061F08091E80004
:1049100083FD0AC08091E80082FFF2CF80E0089515
:1049200082E0089583E0089581E00895982F2CC0D7
:104930009093E900981739F07091EC002091ED0008
:104940005091F00003C0242F762F50E021FD02C0CB
:104950009F5F1AC03091EB003E7F3093EB003091A7
:10496000ED003D7F3093ED003091EB0031603093EE
:10497000EB007093EC002093ED005093F000209139
:10498000EE0027FDE5CF07C0973090F28F7080933F
:10499000E90081E0089580E008950F931F93CF937D
:1049A000DF93062FEC0110E02FC09881911103C016
:1049B0001F5F259629C02C81E981FA817B81892F8F
:1049C0008F70873010F080E022C0223010F056E067
:1049D00001C052E028E030E040E003C04F5F220F0A
:1049E000331F2E173F07D0F34295407F452B692F89
:1049F000661F6627661F90E4799F90011124622B41
:104A000095DF8111D5CFDFCF1013CFCF81E0DF91BC
:104A1000CF911F910F9108958091930587FD05C057
:104A20008091E80080FF0EC012C08091E80082FDF6
:104A300005C0809192058111F8CF08958091E8001A
:104A40008B7708C0809192058111EACF08958091FB
:104A5000E8008E778093E80008958091E4009091BB
:104A6000E50045E62091EC0020FD1FC023C0209109
:104A70009205222391F0253091F02091EB0025FD45
:104A800010C02091E4003091E5002817390751F358
:104A90004150C90139F784E0089582E0089583E028
:104AA000089581E0089580E008952091E80020FFB6
:104AB000DECFF9CF2091E80022FFD9CFF4CF0F93BA
:104AC0001F93CF93DF934BD052D0C8EDD0E08881B5
:104AD0008F77888388818068888388818F7D8883A9
:104AE00019BC1092920510928E05109290051092AA
:104AF0008F0500EE10E0F80180818B7F8083888134
:104B00008160888342E060E080E010DFE1EEF0E069
:104B100080818E7F8083E2EEF0E0808181608083FF
:104B2000808188608083F80180818E7F8083888186
:104B300080618883DF91CF911F910F910895E8EDF7
:104B4000F0E080818F7E8083E7EDF0E080818160FE
:104B5000808384E082BF81E080939105B0CFE8ED4F
:104B6000F0E080818E7F80831092E20008951092A1
:104B7000DA001092E10008951F920F920FB60F9283
:104B800011242F933F934F935F936F937F938F9352
:104B90009F93AF93BF93EF93FF938091E10082FFC8
:104BA0000AC08091E20082FF06C08091E1008B7F05
:104BB0008093E10044D28091DA0080FF1DC0809193
:104BC000D80080FF19C08091DA008E7F8093DA00D0
:104BD0008091D90019BC80FF0BC082E089BD09B467
:104BE00000FEFDCF81E0809392050E94A80504C0DD
:104BF000109292050E94A9058091E10080FF18C0E3
:104C00008091E20080FF14C08091E2008E7F80934B
:104C1000E2008091E20080618093E2008091D80000
:104C200080628093D80019BC85E08093920507D2FA
:104C30008091E10084FF2EC08091E20084FF2AC0B1
:104C400019BC82E089BD09B400FEFDCF8091D80077
:104C50008F7D8093D8008091E1008F7E8093E1006A
:104C60008091E2008F7E8093E2008091E20081607B
:104C70008093E20080918E05882311F084E007C0C4
:104C80008091E30087FF02C083E001C081E0809350
:104C90009205D5D18091E10083FF27C08091E20089
:104CA00083FF23C08091E100877F8093E10082E051
:104CB0008093920510928E058091E1008E7F809303
:104CC000E1008091E2008E7F8093E2008091E2001B
:104CD00080618093E20042E060E080E027DE809126
:104CE000F00088608093F000AAD1FF91EF91BF910E
:104CF000AF919F918F917F916F915F914F913F9174
:104D00002F910F900FBE0F901F9018951F920F922A
:104D10000FB60F9211242F933F934F935F936F938E
:104D20007F938F939F93AF93BF93CF93EF93FF9313
:104D30008091E9008F709091EC0090FF02C090E8A4
:104D400001C090E0C92FC82B1092E9008091F000BB
:104D5000877F8093F00078941CD01092E9008091B6
:104D6000F00088608093F000CF70C093E900FF915D
:104D7000EF91CF91BF91AF919F918F917F916F9163
:104D80005F914F913F912F910F900FBE0F901F9009
:104D90001895ACE2B0E0EEECF6E21DC7E3E9F5E011
:104DA0008091F100819325E0EB39F207C9F70E9469
:104DB000AE058091E80083FF31C180919305909109
:104DC0009405953009F487C038F49130B1F170F052
:104DD000933009F023C131C0983009F4F3C0993001
:104DE00009F4FFC0963009F019C19BC0803821F04A
:104DF000823809F013C108C080918F059091900509
:104E0000992389F082600FC0809197059091980551
:104E10008F7099278093E9008091EB0085FB8827AC
:104E200080F91092E9009091E800977F9093E80054
:104E30008093F1001092F100D0C0882319F08230E5
:104E400009F0ECC08F7121F0823009F0E7C00BC08F
:104E500080919505813009F0E1C0933009F080E040
:104E6000809390052FC08091950581112BC0809172
:104E70009705909198058F709927009709F4CEC0F7
:104E80008093E9002091EB0020FF1CC02091940545
:104E9000233021F48091EB00806212C09091EB00EE
:104EA00090619093EB0021E030E001C0220F8A95E1
:104EB000EAF72093EA001092EA008091EB00886004
:104EC0008093EB001092E9008091E800877F809347
:104ED000E800A2DDA3C08111A1C080919505909149
:104EE00096058F779927182F9091E3009078982B4B
:104EF0009093E3008091E800877F8093E8008CDD49
:104F00008091E80080FFFCCF8091E300806880936F
:104F1000E300112311F083E001C082E08093920549
:104F20007DC08058823008F079C0809195059091BD
:104F300096058C3D23E0920771F583E08A838AE22F
:104F400089834FB7F894DE01139620E03EE051E2EA
:104F5000E32FF0E050935700E49120FF03C0E29567
:104F6000EF703F5FEF708E2F90E0EA3010F0C79641
:104F700001C0C0968D939D932F5F243149F74FBF99
:104F80008091E800877F8093E8006AE270E0CE01BC
:104F9000019605DC11C0AE01455D5F4F609197053C
:104FA000C0DB0097D9F12091E800277F2093E8002B
:104FB000BC018BA59CA556DC8091E8008B77809383
:104FC000E8002CC0803851F58091E800877F8093FD
:104FD000E80080918E058093F1008091E8008E7743
:104FE00076CF81111BC0909195059230B8F48091D5
:104FF000E800877F8093E80090938E050DDD809117
:105000008E05811104C08091E30087FF02C084E017
:1050100001C081E0809392050E94AA058091E8007A
:1050200083FF0AC08091E800877F8093E800809129
:10503000EB0080628093EB00AC96E3E0E8C5089556
:10504000CF93809192058823A9F08091E9008F7019
:105050009091EC0090FF02C090E801C090E0C92F51
:10506000C82B1092E9008091E80083FD92DECF709A
:10507000C093E900CF910895CF93DF93EC01409660
:10508000FC018BE0DF011D928A95E9F782E08C83B9
:10509000898783E08E8761E0CE0101967EDC8111F5
:1050A00002C080E00AC061E0CE01069676DC88236B
:1050B000C1F361E0CE010B9670DCDF91CF910895D2
:1050C000CF93C62F209192052430F1F4FC0144893E
:1050D000558966897789452B462B472BA9F0818115
:1050E0008F708093E9008091E80085FF04C0C09331
:1050F000F10080E00AC08091E8008E778093E8009C
:10510000ACDC8823A1F301C082E0CF910895209107
:105110009205243051F5FC014489558966897789C7
:10512000452B462B472B09F181818F708093E90035
:105130003091F3002091F200932F80E0822B892B95
:1051400011F480E008959091E8008091E8008E7756
:105150008093E80095FDF5CF80DC811107C0909128
:10516000E8009E779093E800089582E008952091EA
:105170009205243089F4FC01448955896689778930
:10518000452B462B472B41F021812F702093E900BE
:105190002091E80020FDBBCF089520919205243096
:1051A00019F02FEF3FEF2EC0FC0144895589668925
:1051B0007789452B462B472BA1F386818F708093EF
:1051C000E9008091E80082FFECCF3091F30020915C
:1051D000F200932F80E0822B892B21F02091F100A7
:1051E00030E002C02FEF3FEF5091F3004091F2000A
:1051F000952F80E0842B892B29F48091E8008B7710
:105200008093E800C90108950895CF93DF93EC01DE
:105210008091E80083FFA2C0888190E020919705EB
:10522000309198052817390709F098C080919405A6
:10523000813261F020F4803209F090C03CC08232AB
:1052400009F46BC0833209F089C07AC0809193055C
:10525000813A09F083C08091E800877F8093E8005D
:105260008091E80080FFFCCF4C895D896E897F8941
:105270004093F100BB27A72F962F852F8093F10035
:10528000CB01AA27BB278093F100472F552766271C
:1052900077274093F100888D8093F100898D80936A
:1052A000F1008A8D8093F1008091E8008E778093E1
:1052B000E800B2DB53C080919305813209F04EC003
:1052C0008091E800877F8093E80005C08091920577
:1052D000882309F443C08091E80082FFF7CF309122
:1052E000F1002091F1009091F1008091F1003C8B50
:1052F0002D8B9E8B8F8B8091F100888F8091F10098
:10530000898F8091F1008A8F8091E8008B7780935C
:10531000E80082DBCE0178DF21C0809193058132E5
:10532000E9F48091E800877F8093E80075DB809145
:10533000950590919605998B888BCE0165DF0EC0FF
:1053400080919305813251F48091E800877F8093AA
:10535000E80062DB60919505CE0156DFDF91CF91C9
:1053600008951F93CF93DF93182F1092A1035398A2
:105370005298EA98209A289A8EE190E00E94A20220
:1053800028988EE190E00E94A202289A8DE290E097
:105390000E94A20280E30E94920384E690E00E94B1
:1053A000A202113021F0123009F038C024C0C0E050
:1053B000D0E0FE01E156FC4F8491813488F01093D7
:1053C000A10383E30E9492038CE0EEEBF6E0DF01A1
:1053D0001D928A95E9F784E090E00E94A7021EC022
:1053E000FE01E056FC4F64910E9480032296C83C67
:1053F000D105F9F6E4CFC0E0D0E0FE01E451FC4F66
:1054000084918134E0F6FE01E351FC4F64910E94E7
:1054100080032296C83CD10581F7D1CFDF91CF918F
:105420001F910895A1E0B0E0E7E1FAE2CDC3D82EE4
:10543000C62E7A01890128988FEF99830E949602DF
:10544000AD2C9981B92E06C080E00E949602F5012C
:1054500081935F018A2D8D198C15B0F3E114F1044D
:1054600069F080E00E949602F70180830115110522
:1054700029F080E00E949602F8018083289A219604
:10548000EAE0BEC3CF93882331F01092C90686E3C9
:105490000E94920306C085E30E9443038D30A9F762
:1054A0003AC085E30E944303C82F8130D1F78BE3D4
:1054B0000E9492038AE30E9492031092BE06109209
:1054C000C0061092BF061092C2061092C1062AECC6
:1054D00036E03093C4062093C3061092C506C093ED
:1054E000C6061092C7068091A1038093C80660E0AB
:1054F00083E00E94800362E088E00E94800384E3EE
:105500000E94920385E30E9443038D30D9F781E026
:105510008093C90601C080E0CF910895A4E0B0E077
:10552000E3E9FAE258C38091A103882309F40FC18B
:105530008091C906813049F030F0823079F08330B3
:1055400009F0ACC078C081E001C10E949F028823AD
:1055500009F4A4C082E08093C906A0C00E949C0206
:10556000882309F49BC020E030E040E050E063E095
:105570008091C3069091C40655DF2091C8068091A2
:10558000C3069091C406213071F4BE016F5F7F4F56
:1055900009D18111D7C089818093BE06A3D1AC0106
:1055A00060E081E00EC040E0BE016F5F7F4F3FD101
:1055B0008111C8C089818093BE0694D1AC0160E09E
:1055C00080E0A8D19093C0068093BF066091BF068B
:1055D0007091C006693482E0780708F0B3C086E0B5
:1055E0006F3F710509F050F40E94800360E088E08D
:1055F0000E94800381E08093C50602C00E94800360
:105600008091C3069091C40603969093C40680933C
:10561000C3068091BF069091C00603979093C2067F
:105620008093C1061092C60683E08093C90667E0A6
:105630000E94800333C00E949C02882379F18091EC
:10564000C1069091C2068F3F910509F058F48091F0
:10565000C506811107C060E088E00E94800381E0F8
:105660008093C50620E030E040E050E06FE180919B
:10567000C3069091C406D6DE8091C1069091C20601
:105680004F979093C2068093C1068091C306909174
:10569000C4064F969093C4068093C3060E949F024F
:1056A000811153C08091C906823008F44EC01C821B
:1056B0001B829E012D5F3F4FAE014C5F5F4F60919B
:1056C000C1068091C3069091C406ACDE81E0809350
:1056D000C7068091C806813051F48091BE0602D180
:1056E000AC016BE975E08AEC96E02CD109C08091A1
:1056F000BE06F8D0AC016BE975E08AEC96E09BD170
:10570000892B01F582E60E94240610E007C0F9010A
:10571000E556FA4F80810E94DD061F5F80919B0550
:10572000E1D0212F30E02817390788F38091AE03AC
:1057300085FF06C08B810E94DD068C810E94DD06FC
:105740000E9469061092C90602C080E09BDE249682
:10575000E3E05DC2FC012181223771F4828188235C
:1057600069F0833711F481E003C0843719F482E0D3
:10577000F8DD04C080E0FCCF233799F08091A103CD
:10578000813019F0823039F403C089E394E005C018
:105790008FE394E002C085E494E00E945C060C94E0
:1057A00069060895CF93DF93EC01A881E981CA2FA0
:1057B000C295CF70D0E0C25CDE4F4881AF70B0E0E0
:1057C000A25CBE4F2C91AE2FA295AF70B0E0A25C50
:1057D000BE4F8C91EF70F0E0E25CFE4F908151E0A3
:1057E0002F3F09F050E031E04F3F09F030E0532BFC
:1057F00031E08F3F09F030E0352BA9F49F3F99F05D
:10580000D0E44D9FA0011124E0E12E9F90011124CE
:10581000242B292BF4E08F9FC0011124282BEB01AE
:10582000288380E001C081E0DF91CF910895DC0101
:1058300041111AC012968C911297E82FEF73F0E085
:10584000E25AFE4F50811196EC911197EF7024E0CF
:10585000E29FF00111248295869586958370E82B4E
:10586000E25AFE4F808102C080E050E02C91E22F8E
:10587000E37090E1E99FF001112411969C919295BB
:105880009F70E92BE25AFE4F908126952695E22FD4
:10589000F0E0E25AFE4F2081E1E09F3F09F0E0E0B6
:1058A00031E02F3F09F030E0E32B31E05F3F09F0BA
:1058B00030E03E2B99F48F3F89F0E0E12E9F90017C
:1058C0001124292BFB01208341110AC0F0E18F9F95
:1058D000C0011124852BFB01818302C081E0089562
:1058E00080E008958A3158F0482F50E04A5151091C
:1058F00094E0559547959A95E1F74D5F01C042E0D8
:10590000282F30E02F5F3F4F240F311D240F311D12
:10591000C90108959A01882339F0662311F02F5F99
:105920003F4F220F331F0CC0220F331F240F351F90
:1059300036952795611102C040FF02C02F5F3F4F8F
:10594000C9010895A0E0B0E0E7EAFCE237C14C01EC
:105950008B01EA01C12CD12CA12CB12C612C712C12
:10596000E12CF12C62E1462E512C4FC0B801C4014C
:1059700019DF811150C0C230D10509F452C08AE04C
:10598000E816F10458F0C7010A97B201EED021E001
:1059900030E0892B11F020E030E05901C114D1042E
:1059A00091F003C0AA24A394B12C6094709477243E
:1059B000F801808190E06816790681F5C12CD12C20
:1059C000612C712C19C0A114B10489F093012095A8
:1059D0003095232F3327F801808190E0281739076D
:1059E000E9F4CC24C394D12CA12CB12C05C0F8012E
:1059F0006081C301A2D03C012197FFEFEF1AFF0A9B
:105A000082E0880E911C0F5F1F4F209709F0AECFE8
:105A100020E030E00BC021E030E008C022E030E0C0
:105A200005C0C114D10409F0BDCFD0CFC901CDB795
:105A3000DEB7E0E1DFC0A0E0B0E0E0E2FDE2C0C040
:105A40007C01EB018A01612C712CC12CD12CF2E17B
:105A50008F2E912C67C001301105D1F441E0BE01B9
:105A6000C701E5DE882319F021E030E061C056016E
:105A70008FEFA81AB80AC3018095909599272881BD
:105A800030E08217930709F44AC022E030E050C0AA
:105A900040E0BE01C701CBDE8111E6CF0250110903
:105AA000560182E0A80EB11C0115110551F08BE0E2
:105AB000A816B104C8F0C6010A97B40156D0892BC4
:105AC00099F46094709493013327898190E02817AA
:105AD0003907D9F6672C7724888190E06816790613
