:10000000B4C100000C94A310CEC10000CCC100000C
:10001000CAC10000C8C10000C6C10000C4C10000C0
:10002000C2C10000C0C10000BEC10000BCC10000D0
:10003000BAC100000C943C10B6C10000B4C100006D
:10004000C3C30000B0C10000AEC10000ACC10000DD
:100050000C941D280C94E527A6C10000A4C1000043
:10006000A2C10000A0C100009EC100009CC1000010
:100070009AC1000098C1000096C1000094C1000020
:1000800092C1000090C100008EC100006D6030621E
:10009000D019432C0346330969BF1F4162165A1811
:1000A0001F4F252F4736094D6E094BDC0962D019C9
:1000B000528B0654082356820757CB0658AE0B6561
:1000C000420766C7266C090774480475301378F335
:1000D00002000000202F2000203D2000072E050DEB
:1000E000D391FF080500000C0021656A2D3B132207
:1000F000F862073F181D1CC700B0876BF8B611EAFD
:100100002A001F41000D2E2D07D3913D043200001F
:10011000060021656A55E43023B900070018146C05
:10012000070090876BF85611E92A001F4100000371
:100130000F1E2627000000030F1E25363867000318
:100140000F256740605000030F275188838100030B
:100150000F2750C8C3C2002700000000000000673E
:1001600000000000000000500000000000000081BE
:1001700000000000000000C2000000000000504C21
:100180004C310D0A00504C4C300D0A005620312ED7
:1001900036362043534D38363800202F2000203D7E
:1001A00020004C4F56460D0A00424F56460D0A009D
:1001B0004552523A4343410D0A000B08105B11F8B7
:1001C0001547191D1A1C1BC71C001DB221B623EAB6
:1001D0000007022E030D04E905CA070C0B060D21CA
:1001E0000E650F6A10C811931203153417331818CF
:1001F00019161B4321562500261129592C812D350E
:100200003EC34F4646004F464600544D4F444500BE
:10021000534D4F4445000454053D170000060200AD
:100220000B080C000D210E6B0FD0105C1104120690
:10023000132214F80A00154421B622101818192E9A
:100240001ABF1B431C091DB523EA242A2500261FBB
:1002500029592C812D352E0907040800090006FFB5
:100260003EC2FF047605961700000602000B080C3C
:10027000000D210E650F6A106A114A12061322142E
:10028000F80A00154721B622101818192E1A6D1BEE
:10029000041C091DB223EA242A2500261F29592CF3
:1002A000812D352E0907040800090006FF3EC2FF14
:1002B0004C454E4552520D0A004C4F56460D0A0011
:1002C0004C454E4552520D0A000007024604C60531
:1002D000260B0610C81193120313221534173F186A
:1002E0002819161B432156250026110D210E650FD6
:1002F0006A070C160720F81E871F6B29592C812DC1
:10030000353EC3FF000D2E2D07D3913D0432000072
:10031000060010B07155E43023B900070018146CC2
:10032000070090876BF85611E92A001F41004E2FF5
:100330004100454F420D0A004E2F41004E2F410013
:1003400000535300547D7DFFFF4B4B7E7E002069A0
:100350007320756E6B6E6F776E2920557365206FF5
:100360006E65206F66003F20280011241FBECFEF6E
:10037000D0E4DEBFCDBF12E0A0E0B1E0E8E0F7E6F8
:1003800000E00BBF02C007900D92A438B107D9F767
:1003900028E1A4E8B2E001C01D92A436B207E1F75B
:1003A00003D00C9482332CCE88E10FB6F89480935E
:1003B0006000109260000FBE90E080E80FB6F894E5
:1003C00080936100909361000FBE3E9A469A0E940E
:1003D000792885D50E9489280E94B12C0E94092C79
:1003E00089EF87BD84E085BD82E084BD80936E0087
:1003F000109280008AE08093810084B7877F84BF59
:100400002FE088E190E00FB6F894A8958093600003
:100410000FBE2093600089E190E80E9451280E945D
:10042000A8220E94880B82EA97E2909305088093A5
:10043000040881E0809387020E9452128091870213
:10044000886080938702469878940E9472280E9460
:10045000AF0D34D20E940D270E94D2130E94D914EE
:100460000E94A01E0E94D117F0CF8EBD0DB407FED2
:10047000FDCF8EB50895A1E0B0E0E1E4F2E00C9488
:10048000C430482F8A3008F048E088E0489F700167
:100490001124F701E25DFE4F7F018BE290E0F7014E
:1004A00064918C010F5F1F4F498317D4FFEFEF1A40
:1004B000FF0A49810333110511F0C801F0CF4550FF
:1004C000453010F461E101C067E184E290E005D4B9
:1004D0002196E6E00C94E030CF93DF9382E090E049
:1004E000FC01ED5FFE4F6491EC012196F6D3CB3217
:1004F000D10511F0CE01F4CF87E390E0FC01EB557C
:10050000FF4F6491EC012196E8D3C036D10511F07C
:10051000CE01F4CF88E0AFDFDF91CF9108952C9822
:10052000806CA3DF80E0A1DF2C9A0895A1E0B0E009
:10053000ECE9F2E00C94C8302C988064698395DF74
:100540006981862F92DF2C9A2196E2E00C94E430A8
:100550002C988BDF2C9A0895EF92FF920F931F93A4
:10056000CF93DF93EC0110923503E898249A2C9AEC
:100570008EE190E01AD22C988EE190E016D22C9A5F
:100580008DE290E012D280E3E3DF84E690E00DD2CA
:100590002C9880E46ADF7E0189E2E80EF11C8E016E
:1005A0000F5F1F4FCE019ED360DF0E151F0511F0A8
:1005B000E801F5CF2C9A2C988EE757DF8BE290E07C
:1005C000EC0121968FD351DFC333D10511F0CE0159
:1005D000F7CF2C9A83E3BCDF81E0ECD1CDB7DEB757
:1005E000E6E00C94E030A1E0B0E0E9EFF2E00C943A
:1005F000C83022E0298341E0BE016F5F7F4F019642
:1006000011D3898138DF82E090E0A6DF2196E2E015
:100610000C94E430CF93E89886E39ADFCFEF85E33C
:1006200097DFC1508077803229F08AE090E0BDD119
:10063000C111F5CFCF910895CF93CFEF84E388DF39
:10064000C1508077803129F08AE090E0AED1C111AD
:10065000F5CFE89ACF910895A2E0B0E0E2E3F3E0AD
:100660000C94C6308C01FC0181818737E9F441E0AC
:10067000BE016F5F7F4FC8010296D4D2892BA1F0D3
:1006800041E0BE016E5F7F4FC8010496CBD2892B3B
:1006900059F06A8189814ADF83E35ADFCDDF89819E
:1006A000BDD28A81BBD22CC041E0BE016E5F7F4FBC
:1006B000C8010196B7D2892B21F18A81893969F461
:1006C00010E0812F2CDFAAD2812F8770873009F4A8
:1006D00031D21F5F1033A9F714C021DF182F83E434
:1006E000D9D18A819BD288ED90E017D2812F96D202
:1006F00084ED90E012D240E262E0812F90E01ED2C1
:1007000019D22296E4E00C94E23086E321DF1092C5
:1007100006081092310310923503089582E090E0AC
:100720001BDF81E08093060810923103109235039D
:1007300008950F931F93CF93DF93082F10E0C62FD8
:10074000D0E085E3ECDE801731F0CE012ED11150E0
:10075000C1F781E001C080E0DF91CF911F910F913F
:10076000089585E2DCDE8F3311F080E0089586E3A2
:10077000EFDE80918402811104C085E891E0CDD143
:1007800002C08DE3E5DE83E3E3DE64E081E0D1DFF8
:1007900085E2C5DE8F3349F780918402811103C061
:1007A0008EE791E0BAD181E0089585E3B8DE8D301F
:1007B00051F485E2B4DE8F3331F4D3DF84E3C8DE55
:1007C00080778031D9F708951F920F920FB60F925C
:1007D00011240BB60F928F939F93AF93BF93EF9318
:1007E000FF938091080890910908A0910A08B091A0
:1007F0000B080196A11DB11D80930808909309086C
:10080000A0930A08B0930B08809107088F5F80932C
:100810000708EAEAFFE080819181181619061CF4A6
:1008200001979183808336968FE0E23CF80799F731
:100830008091C40F9091C50F009729F00197909374
:10084000C50F8093C40F8091D70F8F3F19F081504F
:100850008093D70FFF91EF91BF91AF919F918F91AF
:100860000F900BBE0F900FBE0F901F9018952FB7D3
:10087000F894409108085091090860910A08709115
:100880000B08FC0140835183628373832FBF08955B
:10089000A4E0B0E0EEE4F4E00C94C830CE010196A0
:1008A000E6DF8C81BBD18B81B9D18A81B7D18981B7
:1008B000B5D140D12496E2E00C94E4301F93CF935D
:1008C000DF938091080890910908A0910A08B091DF
:1008D0000B0820918602281709F463C0809108084C
:1008E00090910908A0910A08B0910B0880938602A4
:1008F000A895CAEADFE010E028813981232B19F49A
:10090000812F0E9437251F5F26961430A9F780910A
:10091000C40F9091C50F892B11F40E9493258091EB
:10092000D70F811102C00E94F12580911E0C8823EF
:1009300039F0815080931E0C811102C00E94701406
:100940000E94F92C809107088D3758F11092070802
:100950008091000181FF04C088B190E4892788B9A3
:1009600080910C0890910D08843823E0920728F4B8
:10097000019690930D0880930C080E941329809192
:1009800085028F5F809385028C3359F41092850223
:100990008091A90F8F5F8093A90F8C3310F0109274
:1009A000A90FDF91CF911F910895880F991F01978B
:1009B000F1F7089520ED37E0815020F0F9013197EB
:1009C000F1F7FACF0895CF93DF93DC0116968C915F
:1009D0001697843509F05BC0CD010696CD91DC9168
:1009E00011974DE0242F30E02C173D0740F0AE0169
:1009F0004F5051092417350709F049C008C0FC01C0
:100A0000E20FF31F50815B3391F34F5FEBCFFE0199
:100A10003E97E80FF91F20812435C9F517963C91C0
:100A200017972181321333C018963C911897228171
:100A300032132DC019963C9119972381321327C088
:100A40001A963C911A972481321321C06197C80FDE
:100A5000D91F858188838681898381858A83828560
:100A60008B8383858C8384858D8385858E838D910F
:100A70009C9111970A9711969C938E9314968D9141
:100A80009C9115970A9715969C938E931497DF91D6
:100A9000CF910895CF93C82F8091870280FF13C014
:100AA0002091ED0F3091EE0F2E3F83E0380738F0A4
:100AB0002115344040F4CD3011F0CA3021F46C2FB0
:100AC00089EE9FE02BD28091290C8823C9F0809178
:100AD000870283FF15C0CA3099F0CD3011F46BE363
:100AE00001C06C2F86E198E019D2CD3019F486E16F
:100AF00098E069DF83E080931E0C82E08093240CF1
:100B0000CF910895CF93DF93EC018991882311F061
:100B1000C1DFFBCFDF91CF910895CF93DF93EC013D
:100B2000FE018491882319F0B5DF2196F9CFDF917A
:100B3000CF9108958DE0AEDF8AE0ACCFA6E0B0E0C3
:100B4000E4EAF5E00C94C630062F1E8215E02AE098
:100B500030E01150E1E0F0E0EC0FFD1FE10FF11D7E
:100B6000B9010E949130805D8083CB0101500097D4
:100B700069F01111EECF0AC0112359F01150E1E0D4
:100B8000F0E0EC0FFD1FE10FF11D4083015007FF66
:100B9000F3CF81E090E08C0F9D1F810F911DB2DF9C
:100BA0002696E4E00C94E230A5E0B0E0EAEDF5E052
:100BB0000C94C8301D8224E0382F3F702150E22F62
:100BC000F0E03A3010F4305D01C0395CA1E0B0E0F3
:100BD000AC0FBD1FEA0FFB1F308334E0969587955D
:100BE0003A95E1F76150009739F7615067FD0BC006
:100BF000222349F02150E1E0F0E0EC0FFD1FE20F6D
:100C0000F11D4083F2CF81E090E08C0F9D1F820F99
:100C1000911D78DF2596E2E00C94E43040E362E039
:100C200090E0C2CFDC01FB0130E090E08D918823A1
:100C3000A9F0813608F0805220ED280F2A3030F0DC
:100C40002FEB280F263030F429EC280F292B3323E3
:100C500079F006C0803251F38A3341F3CF0105C0E9
:100C6000CF0101962083415041F4861B970B0895D4
:100C7000922F9295907F31E0D9CFFC01D5CF20E023
:100C800030E05AE0FC014191CF01442379F0E0EDDE
:100C9000E40FEA30B8F7F9015E9F90015F9F300DD5
:100CA000112420533109240F311DECCFFB01318376
:100CB00020830895982F92959F709A3010F4905D3C
:100CC00001C0995CFB0190838F708A3010F4805DC5
:100CD00001C0895CFB01818308950E947433F999F6
:100CE000FECF08950C946C3308951F93CF93DF9338
:100CF000162F11501F3F59F0EC012196F3DF8EDFC4
:100D0000112311F08AE3C6DE1150CE01F3CFDF913B
:100D1000CF911F910895A2E0B0E0E1E9F6E00C94D4
:100D2000C530FC0121812D3421F466E08AEF9FE07B
:100D300005C0203529F460E18AED9FE0D6DF26C0AA
:100D40001A82198242E0BE016F5F7F4F01966ADF0F
:100D5000098110E0823021F4102F00278A81082BAE
:100D6000C801C0DFF82E82E595DE40E364E0C801EB
:100D70001BDF8EE991E0D1DE8F2D50DF8AE991E013
:100D8000CCDE40E262E08F2D90E0D8DED3DE22960A
:100D9000E5E00C94E130A6E0B0E0E1EDF6E00C9483
:100DA000C2306C0143E0BE016F5F7F4F01963ADFB6
:100DB000823058F1E980F12C823021F0FE2CEE24B3
:100DC0002A81E22A8C011127FE01E00FF11F6081C8
:100DD000C70183DF000F111F0F5F1F4F0C0D1D1D7B
:100DE000F8018081882389F041E0BE016F5F7F4F69
:100DF000C80118DF892B49F08FEFE81AF80A6981DA
:100E0000C7016BDF0E5F1F4FEBCF2696E8E00C9417
:100E1000DE3041E060E071E0019604DF8091000186
:100E200080FF02C0469A01C046986091000184E3A9
:100E300090E053CFA1E0B0E0E0E2F7E00C94C830DE
:100E40001982009731F041E0BE016F5F7F4F01963C
:100E5000E9DE89818F3F09F4FFCF882321F061E02B
:100E600083E390E03ADF10926E00F89428E088E186
:100E700090E00FB6F894A895809360000FBE209381
:100E80006000FFCFCF93DF93EC0161E080E090E062
:100E900024DF62E481E090E020DF1EDB60E080E69A
:100EA00090E01BDF60E081E690E017DF60E083E325
:100EB00090E013DF62E084E390E00FDF60E080E623
:100EC00090E00BDF60E081E690E007DF8981883702
:100ED00019F080E090E0AEDFDF91CF91089580E0DF
:100EE00090E000DF813029F481E090E0FBDE823485
:100EF00019F080E090E0C6DF84E390E0F3DE8093B9
:100F0000000108958CE891E008DE14CEFC01158202
:100F1000148211821082138212820895FC014FB74D
:100F2000F89484819581811524E0920798F40196C4
:100F30009583848320813181C901019691838083C7
:100F4000DF01A20FB31F16966C938115944011F424
:100F5000118210824FBF0895FC014FB7F89484812D
:100F60009581009719F44FBF80E00895019795830C
:100F70008483828193819C012F5F3F4F338322833F
:100F8000DF01A80FB91F16968C912115344011F47A
:100F9000138212824FBF0895FA013081882369F0CD
:100FA000E1E0F0E0022E01C0EE0F0A94EAF7DB0167
:100FB000A30FB11D9C919E2B9C93222319F08FEFC0
:100FC000820F0BC081E0830F8C3010F4FA01808314
:100FD000FB01E80FF11D108287E090E00895CF93A8
:100FE000C82F299A882319F080918A0202C0809123
:100FF0008C0220E1829FC0011124D7DC2998CC23E8
:1010000019F08091890202C080918B0220E1829FB9
:10101000C0011124CADCCF910895A3E0B0E0E3E160
:10102000F8E00C94B8305C01162F622E842F90E00B
:101030009B838A8320910C0830910D080296089FAB
:10104000802D1124992787FD90952817390720F4C2
:1010500082EA91E062DD7DC0281B390B30930D08D8
:1010600020930C08469A80913503882341F0109212
:10107000350380E892E072D3FF24F39401C0F12C91
:1010800080910608811101C049DBC4DA812E912CC0
:10109000CC24C394D12C712C512C852D992787FDFC
:1010A00090958815990524F480E099DF5394F5CF45
:1010B000112311F081E093DF20E0422E552447FCFC
:1010C0005094EA81FB814E165F062CF097E0392E92
:1010D0004A0C5B1C1AC087E0282E312C4A0C5B1C82
:1010E000C601022C01C0880F0A94EAF7F201908130
:1010F0008923298374DFF1E02F1A310829818FEFCA
:101100002816380669F72F5FD8CF832D992787FDDA
:1011100090956816790664F4C601032C01C0880F07
:101120000A94EAF7F2019081892359DF3A94EDCFCE
:101130008E2D40DC015009F0AFCF80910F0888233D
:1011400011F07ADA02C086E303DAF1100E94BC1CC7
:1011500046982396E2E10C94D430ADE0B0E0E3EBA6
:10116000F8E00C94BB307C01162F842F022F67010E
:10117000C60ED11C462FB70106D3D6018C931F5F34
:101180001D8619825E2C670127E066246394712C0A
:101190008C2D8519811788F547E0A42EB12C4701C5
:1011A000880E911CF3010A2C01C0EE0F0A94EAF795
:1011B000D4018C91AE01435F5F4FBE016F5F7F4FE3
:1011C0008E23EADE282FB1E0AB1AB10858F7D6011A
:1011D0008D916D01082E82958025082E8695869525
:1011E00080258F5F86958170AE01435F5F4FBE01A2
:1011F0006F5F7F4FD1DE282FCBCF222311F02150FC
:1012000004C08D858F5F8D8727E089E180938B02F5
:1012100080938C0285E28093890280938A023AE06F
:10122000E32E4D856CE0CE010196F7DE2D96EFE0C2
:101230000C94D730ADE0B0E0E0E2F9E00C94C730B8
:10124000162F242F4BE0BE016F5F7F4F01962D8735
:10125000E9DC2D85412F682FCE0101967EDF2D968A
:10126000E3E00C94E33043E066E0E4CFEF920F93C9
:10127000CF93DF93CDB7DEB760970FB6F894DEBF9C
:101280000FBECDBF40E1BE016F5F7F4F0196CADC4C
:1012900069814A810B818C8180938C028D8180933E
:1012A0008B028E8180938A028F8180938902E02E47
:1012B000E2947FE0E7220F70242F2F7042954F7049
:1012C000CE010896AADE60960FB6F894DEBF0FBE78
:1012D000CDBFDF91CF910F91EF900895A9E1B0E0DC
:1012E000E4E7F9E00C94C0304BE0BE016F5F7F4F44
:1012F000019698DC182F893009F05AC099E1909333
:101300008B0290938C0290938A0282E380938902ED
:1013100069E0CE01019641D2E1E0F0E0EC0FFD1F63
:10132000E10FF11D8083198E1D86CE0101967C018F
:101330006E019BE0C90ED11C27E0AA24A394B12C16
:10134000EC14FD0429F100E010E0F501002E01C0CD
:10135000EE0F0A94EAF7D7018C91AE01475E5F4F1A
:10136000BE01635F7F4F8E2317DE282F0F5F1F4F55
:101370000830110551F7AE01475E5F4FBE01635F54
:101380007F4F81E009DE282FBFEFEB1AFB0AD8CF91
:10139000222311F0215004C0898D8F5F898F27E0AF
:1013A000EAE0EE2E03E0498D6CE0CE010D9635DECD
:1013B0006996EAE00C94DC30A9E1B0E0E2EEF9E0F5
:1013C0000C94BF304BE09E012F5F3F4F7901B90174
:1013D000019628DC182F85E380938C0296E1909388
:1013E0008B0290938A0280938902612FC701E1D119
:1013F000F701E10FF11D808399249394910E198ECA
:101400001D86870127E0AA24A394B12C802F8E1972
:10141000891508F04AC0C12CD12CF5010C2C01C053
:10142000EE0F0A94EAF7D8018C91AE01475E5F4F48
:10143000BE01635F7F4F8E23AFDD282FBFEFCB1A36
:10144000DB0A34E0C316D10441F7AE01475E5F4FBB
:10145000BE01635F7F4F81E09FDD282FB4E0CB2E7C
:10146000D12CF5010C2C01C0EE0F0A94EAF7D8013B
:101470008C91AE01475E5F4FBE01635F7F4F8E234D
:101480008BDD282FBFEFCB1ADB0A38E0C316D1045F
:1014900041F7AE01475E5F4FBE01635F7F4F81E062
:1014A0007BDD282F0F5F1F4FB1CFAAE0EA2E03E0AC
:1014B000498D6AE0CE010D96B0DD6996EBE00C94A3
:1014C000DB308F929F92AF92BF92DF92EF92FF92AA
:1014D0000F931F93CF93DF931092A8021092BD0237
:1014E000FC012181220F220F220F3381231B57E0A1
:1014F000520F1092A90210E070E038E0D32ED20E05
:10150000FF24F39447E007E0E12CC7E0D0E0A1E03E
:10151000B0E0FD1409F47FC0FC01EE0DF11D248143
:1015200030E0002E02C0359527950A94E2F721702D
:101530003327E22F002311F0015002C0E39407E0AB
:101540006B3471F4433009F04AC0111107C0E11146
:101550005FC01092A8027093BD0274C010E041C039
:101560004F3F31F56634A9F4E72FF0E0E755FD4F22
:10157000E0810E2EE295E0250E2EE695E695E0251B
:10158000EF5FE1FB882480F8912C8216930641F0EE
:1015900004C0653429F4E11103C01093A802DBCF25
:1015A0007F5FE72FF0E0E755FD4F108247E031C045
:1015B000EE2361F1663471F4E72FF0E0E755FD4F5B
:1015C000A0809D01042E01C0220F0A94EAF7A22AEE
:1015D000A0821CC0653439F06B34C1F404C04F3FA5
:1015E000D1F2EE2399F0E72FF0E0E755FD4F9E0191
:1015F000241B310947FD33955D0102C0AA0CBB1CB9
:101600002A95E2F795013081322B3083415001C099
:1016100011E0F3947ECF1093A8027093BD025F1582
:1016200088F4653431F44F3F21F47F5F7093BD023D
:1016300004C08091A8028111F8CF81E09091BD0291
:10164000911101C080E0DF91CF911F910F91FF9028
:10165000EF90DF90BF90AF909F908F900895109281
:101660006F00E091C0028CE1E89FF0011124EF537C
:10167000FD4F108280910E088D7F80930E08089593
:10168000FC012181243108F0EACF3381662381F007
:1016900081E090E0032E01C0880F0A94EAF7DF0191
:1016A000A20FB11D14969C911497982B14969C939D
:1016B000332319F031503383089587E083832F5FFC
:1016C0002183E20FF11D14820895DC011196EC9143
:1016D0001197F0E050E02C91CF01841B950B0B96F5
:1016E0004797A0F430E070E0C901861B970B0B967A
:1016F000479760F42E0F3F1F640F751F261B370B93
:10170000255F3F4F81E02731310508F080E00895E3
:10171000219A29985298E9E6F0E0808181608083DF
:1017200082EC91E090930D0880930C081092DD02FA
:101730001092F902109215031092060808958091F4
:10174000330381110AC080910F08882321F00E9481
:101750008E030C941C030C9485030895FC012181D5
:1017600021110BC080910F0859DA40E265E08091A9
:101770000C0890910D08E2D9DDC941E06FE078E0F6
:10178000019650DADCCF442339F04150FB01E40FDD
:10179000F11D9081890FF7CF089520E0662339F07D
:1017A0006150FC01E60FF11D30812327F7CF822F16
:1017B0000895A091A80240E035E020E0662399F06A
:1017C0006150FC01E60FF11D5081752F72957F70FD
:1017D0002727370FAA2311F0442319F05F7025271C
:1017E000350F4F5FEBCF320F40E1349FC001112422
:1017F000822B0895FC0132812381A081B181A30F46
:10180000B11D8C9190E0022E02C0959587950A94A7
:10181000E2F7817099274FEF420F4383211104C0F3
:101820003F5F328327E023830895A2E0B0E0EBE13D
:10183000FCE00C94C0307C01A12CB12CD12CCC2428
:10184000C394062F10E001501109A616F0F4C70149
:101850004A836983CFDF4A816981882391F04423D9
:1018600049F098012A193B098C2D01C0880F2A954F
:10187000EAF706C08C2D0A2C01C0880F0A94EAF7FB
:10188000D82A8FEFA81AB80AE0CF8D2D2296EAE069
:101890000C94DC30A4E0B0E0E0E5FCE00C94BF3058
:1018A0001B8227E02C839C012C5F3F4F3A832983C6
:1018B0001092BD02FC012181338187E090E0831BFF
:1018C0009109F8E02F9F800D911D11248534910519
:1018D0000CF44EC0B12CA090BD02F5E0FA1558F101
:1018E0000A2D10E040E068E0CE0101969EDF07552A
:1018F0001D4FF8018083982E092C92949024092C76
:10190000969496949024CE01019674DF939491FA64
:10191000CC24C0F8D12C90E0C816D90649F5CE01E8
:10192000019668DF811124C0F8018081B826A39454
:10193000A092BD02D0CF40E068E0CE01019675DFF5
:10194000082F182F012E12951025012E1695169589
:101950001025CE0101964EDF1F5F11FBEE24E0F84B
:10196000F12C282F30E0E216F30611F481E0B012DA
:1019700080E02496EBE00C94DB30A5E0B0E0E3ECF3
:10198000FCE00C94C330FC011B8287E08C83CF0108
:1019900004969A8389838081853009F051C0218122
:1019A000338187E090E0831B910938E0239F800D0D
:1019B000911D11248039910509F042C01092BD0299
:1019C0000FE010EF29E88091BD02E82EF12CDD2414
:1019D000D394D80E41E068E08F3088F4CE010196B0
:1019E0002D8323DF080F111DF701E755FD4F2D81D2
:1019F0002827208324E2280FD092BD02E4CFCE0115
:101A0000019613DF080F111DD092BD02F701E755B3
:101A1000FD4F8095808341E068E0CE01019605DFAF
:101A200090E0982F8827081B190B41E068E0CE0151
:101A30000196FBDE282F30E081E00217130709F042
:101A400080E02596E7E00C94DF30A4E0B0E0EBE224
:101A5000FDE00C94C5301B8227E02C839C012C5F99
:101A60003F4F3A832983FC0121812430A1F58381F2
:101A7000813089F51092BD028091BD02082F10E0DF
:101A8000FF24F394F80E41E0843098F4811106C0ED
:101A900067E0CE010196C9DE806804C068E0CE012F
:101AA0000196C3DEF801E755FD4F8083F092BD0239
:101AB000E3CF67E0CE010196B8DEF801E755FD4FB0
:101AC000880F8083F092BD029091A90292959F7039
:101AD00081E09A3009F080E02496E5E00C94E13052
:101AE000CF93DF93FC0181818330E9F483818730D8
:101AF000D1F480818830B9F41092BD0220E0822FA9
:101B000090E0DC01A755BD4FEF01C80FD91F8C81B4
:101B10008C9381E0820F833010F4282FF0CF8093D4
:101B2000BD0281E001C080E0DF91CF910895FC010A
:101B3000908180910E08993611F0933751F4982FC7
:101B40009370913011F4826006C080FF07C08B7FD4
:101B500003C080FD03C0846080930E080895A1E057
:101B6000B0E0E5EBFDE00C94C430198280918D0269
:101B70008823B9F180910F0887FF17C084E30E9482
:101B80008F028058803458F0803C58F490E08055A3
:101B9000910953E0959587955A95E1F703C080E048
:101BA00001C08FE08F590E944A0580910F0883FF82
:101BB00016C082E70E944A0580910F0884FF04C086
:101BC00080918E020E944A0586E60E944A05809115
:101BD0000F0884FF04C080918D020E944A05109274
:101BE0008D028091BE02882309F442C2469A009178
:101BF000BF022CE1029F800111240F531D4F8981E8
:101C0000811106C0C8016CDF882311F083E7898346
:101C10008981811106C0C801B0DE882311F083E5F7
:101C200089838981811139C066E4C8014ADC88232F
:101C3000A1F1F090BD02FA94F092BD024F2D69EA35
:101C400072E086E0A0DDEF2DF0E0E755FD4FE0808B
:101C50008E1105C093E09F1510F486E41BC0282F59
:101C600030E02F5F3F4F6E2D70E02617370739F4B5
:101C700023E02F1520F496E4998380830EC04F2D26
:101C800069EA72E08CE07FDD8E1106C083E08F157B
:101C900018F484E5898301C019828981811116C0F5
:101CA00065E4C8010EDC882389F08091BD02815073
:101CB0008093BD02893051F469E089EA92E06DDDDC
:101CC0009091B202891302C085E4898389818111D0
:101CD00006C0C801DFDD882311F088E4898389818B
:101CE000811106C0C801B1DE882311F084E7898321
:101CF0008981811133C0F801438D60918E02C80142
:101D00004A96E3DC682FC801BBDC6BE4C801D9DB71
:101D10008823B1F0F090BD02FA94F092BD026F2DCD
:101D200089EA92E046DDEF2DF0E09091A802E91BF0
:101D3000F109E755FD4F9081891302C08BE4898337
:101D4000898181110BC0F801838191E0980F938301
:101D5000873021F4138281818150818389818111AF
:101D60002DC0F8018181843049F58381843031F5BB
:101D70004EE16CE3C8014896A8DC8823F9F04EE1F7
:101D800060918E02C8014A96A0DC682FC80178DCF9
:101D900020E0822F90E0FC01E755FD4FD801A80F0D
:101DA000B91F14968C91808381E0820F853010F4E6
:101DB000282FEFCF8093BD0282E5898339813323B9
:101DC00009F4CAC020910F0820FFC6C080910E08F8
:101DD0008E7F8B7F80930E0821FD64C05091A702F7
:101DE000F090BD025F113DC040E04517C0F4842F64
:101DF00090E061E0640FFC01ED56FD4FDC01A7555A
:101E0000BD4F70818C91781741F04093A70280916B
:101E10000E088D7F80930E0804C0462FE6CF4093B6
:101E2000A70245131EC0409108085091090860910F
:101E30000A0870910B0880918F0290919002A091F6
:101E40009102B0919202481B590B6A0B7B0B4632F0
:101E500051056105710528F480910E088160809319
:101E60000E0840E04F1560F4842F90E0FC01ED5621
:101E7000FD4FDC01A755BD4F8C9180834F5FF2CFA2
:101E80004093A7028091080890910908A0910A0840
:101E9000B0910B0880938F0290939002A0939102CF
:101EA000B09392023435E9F426FD1BC08091BD0247
:101EB0008530B8F08091AB028B3471F0893661F0D7
:101EC0009DEA980F923040F08D57823028F0809133
:101ED000AC028077803729F480910E08816080936E
:101EE0000E08B801CE01019622DE80910E0882FF15
:101EF00033C089810E944A058091A802882329F075
:101F00008091BD0281508093BD02F12CE091BD0211
:101F1000FE1648F4EF2DF0E0E755FD4F80810E945A
:101F20000E06F394F3CF8091A802882351F0F0E0DD
:101F3000E755FD4F80818F7040E361E090E00E94A3
:101F4000D40580910F0885FF05C084E30E948F02AD
:101F50000E940E060E949A0580910F0882FF6FC0B2
:101F600080E70E944A05F801808140E262E090E04B
:101F70000E949E05F801808D40E265E0F0E18F9FB0
:101F8000C00111240E949E05F801818D40E265E0A8
:101F9000F0E18F9FC00111240E949E05F801828DFF
:101FA00040E265E0F0E18F9FC00111240E949E0590
:101FB000F801838D40E265E0F0E18F9FC0011124BC
:101FC0000E949E05F801828140E263E090E00E9459
:101FD0009E05F801818140E263E090E00E949E0549
:101FE000F801238140E262E087E090E0821B9109E2
:101FF0000E949E0580E20E944A0580910F0885FF9D
:1020000008C084E30E948F020E940E0680E20E94B4
:102010004A05F8018381873019F081818F5F8183C0
:10202000F12CF8018181F81640F4F801EF0DF11D53
:1020300084810E940E06F394F4CF0E949A05F80161
:1020400010828091BE0281508093BE028091BF02B7
:102050008F5F843019F08093BF0202C01092BF02DC
:1020600046988981843521F489EA92E00E9400260D
:102070002196E6E00C94E0301F920F920FB60F927B
:1020800011240BB60F922F933F934F935F936F934F
:102090007F938F939F93AF93BF93EF93FF93109290
:1020A0006F0080910F0883FF03C08EE20E944A05F3
:1020B0008091C0029CE1899FF0011124EF53FD4FF4
:1020C0009081933018F09181923010F4C8DA18C0E2
:1020D0009091BE02933049F480910F0882FFF6CFB1
:1020E00089EA91E00E948D05F1CF9F5F9093BE0237
:1020F0008F5F843019F08093C00202C01092C0023A
:10210000FF91EF91BF91AF919F918F917F916F91CF
:102110005F914F913F912F910F900BBE0F900FBE8B
:102120000F901F9018959BED980F973150F496EFF4
:10213000960F9D3130F491E0681708F090E0892FF8
:10214000089580E008951F920F920FB60F92112408
:102150000BB60F92FF920F931F932F933F934F93C2
:102160005F936F937F938F939F93AF93BF93CF931F
:10217000DF93EF93FF938091E80F882321F082E0B3
:102180008093E80F63C180911F0C823021F483E0BB
:1021900080931F0C5BC1009184001091850064E066
:1021A000169507956A95E1F7C091C0029CE1C99F19
:1021B000E0011124CF53DD4F9881943031F40E3279
:1021C00008F444C10F3448F0B6C0953031F40731FB
:1021D00008F43CC1083208F0AEC04A990DC09450D2
:1021E000923038F461E0CE014BDA10928500109203
:1021F000840000938E022AC180918E02081B0093F6
:102200008D0210928500109284009881983071F4AC
:102210002A8121110BC021E02A83888F8A8F098FA0
:102220000B3B10F4000F01C006950B8F94509230B9
:1022300020F460E0CE0124DA09C182E086BBF88098
:10224000F11011C090918E02953608F0FFC0809178
:102250008D02853608F0FAC0988F898F81E08A83D5
:1022600082E08883F3C010918D0282E0F81273C07F
:1022700000918E02412F602FCE01489626DA6A81A6
:102280008823F9F0488D50E09A01220F331F240F64
:10229000351F200F311D3595279535952795288FAA
:1022A000298D30E0C901880F991F820F931F810F7C
:1022B000911D9595879595958795898F6F5F6A8311
:1022C000C5C0643008F445C020EA3FE0309389007F
:1022D000209388008A818C3050F0888D298D30E0E1
:1022E000280F311D2536310524F084E027C08A30BF
:1022F00088F0888D298D30E0280F311D2532310579
:102300004CF485E0888328EE33E0309389002093F5
:10231000880015C080911508882379F0612F802FDF
:1023200002DF882351F0688D898DFDDE882329F036
:1023300081E080931F0C93D989C083E088830A8F42
:102340001B8F198287E08B831C8282E080936F0051
:102350007DC0188277CF98E0F91225C081E9810FFE
:102360008D3178F460E0CE018BD9288D30E0C90141
:10237000880F991F820F931F20918E02820F911D4B
:102380004EC0173E08F462C061E0CE0179D92A8DB3
:1023900030E0C901880F991F820F931F20918E0290
:1023A000820F911D15C000918E02412F602FCE012A
:1023B0004A968BD9882301F161E0CE0161D92A8D3B
:1023C00030E0C901880F991F820F931F800F911D64
:1023D00095958795959587958A8F2B8D30E0C901C6
:1023E000880F991F820F931F810F911D95958795D7
:1023F000959587958B8F2AC0412F602FCE014896E7
:1024000064D9882301F160E0CE013AD9288D30E00B
:10241000C901880F991F820F931F800F911D9595F9
:10242000879595958795888F298D30E0C901880F0C
:10243000991F820F931F810F911D959587959595F3
:102440008795898F03C087E0F81275CFFF91EF91D0
:10245000DF91CF91BF91AF919F918F917F916F91BC
:102460005F914F913F912F911F910F91FF900F908E
:102470000BBE0F900FBE0F901F901895E091C002F9
:102480008CE1E89FF0011124EF53FD4F8081811111
:1024900007C081E09091D70F9F3F19F480E0089525
:1024A00081E0089580E690E00E947206809315080E
:1024B00081E690E00E9472068093290C882321F027
:1024C00081E280930F083BC90895299A0C94D504A2
:1024D00029980C94D504A7E0B0E0E1E7F2E10C9470
:1024E000C33090912108943559F42091220C3091F9
:1024F000230C2F5F3F4F3093230C2093220C3EC0C0
:10250000963459F42091200C3091210C2F5F3F4FCD
:102510003093210C2093200C31C0953459F4209134
:102520001208309113082F5F3F4F30931308209308
:10253000120824C09B3459F42091250C3091260CAC
:102540002F5F3F4F3093260C2093250C17C09834F3
:1025500059F42091270C3091280C2F5F3F4F309376
:10256000280C2093270C0AC02091100830911108E4
:102570002F5F3F4F309311082093100895E7998300
:10258000882399F0BE016E5F7F4F8091290C0E94D5
:102590005A06BE016C5F7F4F809115080E945A0653
:1025A00085E58E8386E0D82E02C0DD24D3940E9478
:1025B0008E030E940A0316E080E891E086DF80E047
:1025C00093E086DF1150C1F780E093E07EDF80E882
:1025D00091E07EDF80E891E078DF299887E390E062
:1025E0000E94AC0283E00E94DA042C988FE70E94DC
:1025F000350280911A088D0D0E943502CE01019698
:102600007C018C01F80181918F010E943502802F9D
:102610008E198D15B8F380911A0890911B08892B9B
:1026200039F086E198E00E94AC070E943502F3CFB2
:102630002C9A0E940A0386E198E00E94860715E121
:102640008AE30E948F028F7731F0115021F081E0F0
:102650000E94DA04F5CF73D82796E7E00C94DF30B8
:10266000CF93DF93EC018981811107C08091150818
:102670000E940E068091290C13C08436A1F480912B
:10268000080890910908A0910A08B0910B0840E34E
:1026900064E00E94D4058EE20E944A0580911E0CDF
:1026A0000E940E064DC0833709F04DC040E361E043
:1026B0008091220C9091230C0E94D4058EE20E94FE
:1026C0004A0540E361E08091200C9091210C0E942A
:1026D000D4058EE20E944A0540E361E08091120831
:1026E000909113080E94D4058EE20E944A0540E3AF
:1026F00061E08091250C9091260C0E94D4058EE219
:102700000E944A0540E361E08091270C9091280CDB
:102710000E94D4058EE20E944A0540E361E0809168
:102720001008909111080E94D4058EE20E944A057B
:1027300040E361E080911C0C90911D0C0E94D40537
:102740000E949A052CC08936D9F441E065E178E011
:10275000CE0102960E9412066091150880E690E074
:102760000E946D0641E069E27CE0CE0104960E9481
:1027700012066091290C81E690E00E946D060FC060
:1027800086E198E00E94860721966991662329F0E8
:1027900086E198E00E948E07F8CF80E09CDEDF9112
:1027A000CF910895A1E0B0E0E8EDF3E10C94C230E0
:1027B00080911F0C882309F48FC0C0900808D09026
:1027C0000908E0900A08F0900B08833009F06AC00D
:1027D0008FE30E948F02182F8630C8F08FEE93E1AE
:1027E0000E9486072C988FEF0E94350280E00E949D
:1027F0003502082F115049F080E00E943502682F01
:102800008FEE93E10E948E07F5CF2C9A01C000E075
:102810000E949F0B10921F0C053709F05DC041E02C
:10282000BE016F5F7F4F85EF93E10E941206019713
:10283000A1F599818091150898132FC08091F91303
:10284000853581F48091F3139091F413892B39F03D
:102850008FEE93E10E94AC070E944A05F3CF0E94DD
:102860009A053AC08091F3139091F41304979093D2
:10287000F4138093F31384E090E09093F213809329
:10288000F1136AE08FEE93E10E948E07E091040855
:10289000F091050888E009951FC08FEE93E10E9432
:1028A00086071AC0823059F4809114089C2D981B19
:1028B000983090F00E949F0B10921F0C0DC0813039
:1028C00059F487E390E00E94AC020E941C0382E06E
:1028D00080931F0CC09214082196E8E00C94DE301F
:1028E000CDDD882361F083E08093240C80911C0C63
:1028F00090911D0C019690931D0C80931C0C80915F
:10290000240C81508093240C882321F083E0809351
:102910001E0C089581E0DFCDCF93DF93E898249AD1
:102920002C9A8EE190E00E94D5042C988EE190E0E4
:102930000E94D5042C9A8DE290E00E94D50480E399
:102940000E94A80284E690E00E94D504C0EDD1E088
:10295000FE0131966491FE0184910E9496022296B6
:10296000F2E0C230DF07A1F780913203811107C086
:1029700083E30E94A80284E00E94DA040FC0CAEB3D
:10298000D1E0FE0131966491FE0184910E9496028D
:102990002296F1E0C03DDF07A1F7EACF84E30E9471
:1029A000A80285E30E948F028D30C1F7DF91CF919D
:1029B0000895A2E3B0E0EFEDF4E10C94C63080910D
:1029C0003103882309F4A1C04A9B8AC08FE30E9487
:1029D0008F028F778983823368F08AE30E94A8028E
:1029E00086E30E94A8028DE30E94A80284E30E946D
:1029F000A8028BC02C988FEF0E94350210E08981CD
:102A0000181760F480E00E943502E2E0F0E0EC0F7D
:102A1000FD1FE10FF11D80831F5FF1CF80E00E9459
:102A20003502082F80E00E9435022C9A84E30E9430
:102A3000A80285E30E948F028D30C1F72A8196E7B4
:102A400092279A8392E08981E92FF0E0981768F441
:102A500041E050E04C0F5D1FE40FF51F3081245220
:102A6000232720839F5F232FEECF81E090E08C0F00
:102A70009D1FE80FF91F90818B819827908380918B
:102A80000F0884FF12C081E60E944A0510E0898188
:102A9000811730F1E1E0F0E0EC0FFD1FE10FF11DD7
:102AA00080810E944A051F5FF2CF81E40E944A059F
:102AB00010E08981811758F0E1E0F0E0EC0FFD1F94
:102AC000E10FF11D80810E940E061F5FF2CF809101
:102AD0000F0885FF03C0802F0E940E060E949A05F2
:102AE00085E30E948F02813029F0813161F48AE30D
:102AF0000E94A80286E30E94A8028DE30E94A80219
:102B000084E30E94A8020E94D503E296E4E00C94BC
:102B1000E2308F929F92AF92BF92DF92EF92FF923C
:102B20000F931F93CF93DF93CDB7DEB7EA970FB61E
:102B3000F894DEBF0FBECDBF41E38E010F5F1F4F84
:102B4000B80101960E9412067C01992701972981FC
:102B500030E08217930709F0A3C0809131038111FF
:102B600004C0DADE83E00E94DA04DB808A8196E723
:102B700089278A8322E03981822F90E0F801E80FCB
:102B8000F91F231750F4DE01A80FB91F8C9184524E
:102B90009081892780832F5FEECF80818D25808370
:102BA000CE01C7960E94370485E30E94A80285E300
:102BB0000E948F02833181F1CE01C3960E943704B7
:102BC0004BA95CA96DA97EA98FA998ADA9ADBAAD95
:102BD00084179507A607B70760F44A015B01881AB6
:102BE000990AAA0ABB0A2DEB82169104A104B1042A
:102BF00070F4481759076A077B0770F484549F4F95
:102C0000AF4FBF4F84179507A607B70728F480EB8F
:102C100091E00E948D0527C085E30E948F028331D9
:102C200019F6D4FE08C088E70E94DA0488E70E94FB
:102C3000DA0488E701C08AE00E94DA042C988FE762
:102C40000E94350258018A2D801B8E1530F4F50143
:102C500081915F010E943502F6CF2C9A85E30E9494
:102C60008F028331D9F385E30E948F02863149F4C4
:102C70008BE30E94A80286E30E94A8028DE30E94D3
:102C8000A80280913103882349F084E30E94A802BE
:102C900085E30E948F028D30C1F702C00E949F0B16
:102CA000EA960FB6F894DEBF0FBECDBFDF91CF918D
:102CB0001F910F91FF90EF90DF90BF90AF909F908A
:102CC0008F900895FC012181223731F0223559F48B
:102CD00081E08093320302C0109232031DDE81E056
:102CE000809331030895233711F4019612CF109287
:102CF000310308958F929F92BF92CF92DF92EF920D
:102D0000FF920F931F93CF93DF931F92CDB7DEB740
:102D1000D82EC62E7A0189012C988FEF99830E94B4
:102D20003502BD2C8D2C9981992E882D8B198C15EF
:102D300038F480E00E943502F40181934F01F5CF11
:102D4000E114F10469F080E00E943502F70180830C
:102D50000115110529F080E00E943502F8018083F9
:102D60002C9A0F90DF91CF911F910F91FF90EF90D0
:102D7000DF90CF90BF909F908F900895CF9388233E
:102D800031F01092350C86E30E94A80207C085E35B
:102D90000E948F028D30A9F780E039C085E30E9440
:102DA0008F02C82F8130D1F78BE30E94A8028AE3FB
:102DB0000E94A80210922A0C10922C0C10922B0C3C
:102DC00010922E0C10922D0C29E53DE03093300C22
:102DD00020932F0C1092310CC093320C1092330CB4
:102DE000809133038093340C60E083E00E9496026C
:102DF00062E088E00E94960284E30E94A80285E3D4
:102E00000E948F028D30D9F781E08093350CCF91ED
:102E100008950F931F93CF93DF93182F062F2198B8
:102E200052981092330310923403E898249A2C9A03
:102E30008EE190E00E94D5042C988EE190E00E94F3
:102E4000D5042C9A8DE290E00E94D50480E30E9484
:102E5000A80284E690E00E94D504113031F01230CF
:102E600009F06DC0C6E1D2E022C0C3E6D2E0FE01A7
:102E70008491813420F0013009F049C01DC0FE0169
:102E800031966491FE0184910E9496022296F3E0AD
:102E9000CB32DF0761F7EFCF31966491FE01849169
:102EA0000E9496022296F2E0CE3DDF0721F3FE015A
:102EB0008491813488F3DFCF60E087E10E9496023D
:102EC00067E083E00E94960264E584E0113029F413
:102ED0000E94960266E785E010C00E9496026DE3AC
:102EE00085E00E94960260E585E10E9496026BE50E
:102EF00080E10E94960268EF81E10E94960262E002
:102F000082E00E9496026EE280E00E949602109398
:102F100033030093340383E30E94A8028CE0EAE2C7
:102F2000FCE0DF011D928A95E9F786E0E1EAFFE027
:102F3000DF011D928A95E9F784E00E94DA04DF91AF
:102F4000CF911F910F910895CF92DF92FF920F932F
:102F50001F93CF93DF931F92CDB7DEB7182F062FA5
:102F60002C988FE799830E943502F12EC12E99810A
:102F7000D92E8C2D8F19801730F4F60181916F01B5
:102F80000E943502F6CF2C9A81E00F90DF91CF910D
:102F90001F910F91FF90DF90CF9008958DE30C94D7
:102FA000A802A4E0B0E0E7EDF7E10C94C7309091FF
:102FB0003403923009F009C180913303882309F466
:102FC00004C18091350C813049F030F0823059F0E5
:102FD000833009F472C0A2C081E0F6C04A9B9EC053
:102FE0009093350C9BC0199B99C020E030E040E0E5
:102FF00050E063E080912F0C9091300C7BDE2091AB
:10300000340C80912F0C9091300C213071F4BE0162
:103010006F5F7F4F38D28111D3C0898180932A0C92
:1030200013D3AC0160E081E00EC040E0BE016F5FF1
:103030007F4FB0D28111C4C0898180932A0C04D300
:10304000AC0160E080E016D390932C0C80932B0CA5
:1030500060912B0C70912C0C693482E0780708F099
:10306000AFC086E06F3F710509F050F40E949602F0
:1030700060E088E00E94960281E08093310C02C0FB
:103080000E94960280912F0C9091300C03969093A1
:10309000300C80932F0C80912B0C90912C0C03976B
:1030A00090932E0C80932D0C1092320C83E0809321
:1030B000350C67E00E94960231C0199B2FC08091A9
:1030C0002D0C90912E0C8F3F910509F058F48091B2
:1030D000310C811107C060E088E00E94960281E017
:1030E0008093310C20E030E040E050E06FE18091CF
:1030F0002F0C9091300CFEDD80912D0C90912E0CB8
:103100004F9790932E0C80932D0C80912F0C9091C3
:10311000300C4F969093300C80932F0C4A9953C0EB
:103120008091350C823008F44EC01C821B829E01B7
:103130002D5F3F4FAE014C5F5F4F60912D0C809132
:103140002F0C9091300CD6DD81E08093330C809170
:10315000340C813051F480912A0C76D2AC0166E3B4
:103160007CE089E59DE0F4D209C080912A0C6CD204
:10317000AC0166E37CE089E59DE060D3892B01F535
:1031800082E60E944A0510E08091360C5DD2212F24
:1031900030E02817390740F4F901EA5CF34F8081E9
:1031A0000E940E061F5FF0CF80910F0885FF06C0BA
:1031B0008B810E940E068C810E940E060E949A0549
:1031C0001092350C02C080E0D9DD2496E3E00C9427
:1031D000E330A0E0B0E0EFEEF8E10C94C2307C0107
:1031E0008B01C42EFC0180812FD2EC019C01215067
:1031F00031092232314008F0C9C080913403823055
:1032000019F4D090330301C0D12C61E08C2D01DE84
:1032100081E0AE01B701C81206C0C8013FD2AE01BD
:1032200061E081E005C0C80161D2AE0161E080E0EB
:1032300021D29093A20F8093A10FB0DE807711F07E
:1032400086E361C08BE30E94A8021093A40F009351
:10325000A30F1092A60F6091A10F7091A20F6F3F64
:10326000710509F058F486E00E94960260E088E05B
:103270000E94960281E08093A50F0AC0772786E01E
:103280000E94960262E088E00E9496021092A50FCA
:10329000C091A10FD091A20FC134D10510F0C0E4AC
:1032A000D0E06C2F8091A30F9091A40F4DDE809100
:1032B000A30F9091A40F8C0F9D1F9093A40F809348
:1032C000A30F2091A10F3091A20F2C1B3D0B309327
:1032D000A20F2093A10F232B19F481E08093A60F56
:1032E00085E30E94A80211E003C0203C3105C0F133
:1032F0008091A60F81113FC019990AC04FDE8077D7
:103300008037B1F78BE30E94A80282E090E043C0CF
:10331000C091A10FD091A20FC132D10510F0C0E22F
:10332000D0E06C2F8091A30F9091A40F0DDE20911F
:10333000A30F3091A40F2C0F3D1F3093A40F2093A7
:10334000A30F2091A10F3091A20F2C1B3D0B3093A6
:10335000A20F2093A10F2115310539F61093A60F66
:103360008091A50F8111C4CF60E088E00E94960291
:103370001093A50FBDCF85E30E948F028130D9F74E
:10338000DD2039F062E08D2D44DD03C081E090E066
:1033900002C080E090E0CDB7DEB7E8E00C94DE300C
:1033A0001F93CF93DF93EC018981823789F48A815F
:1033B0008823C9F1833719F462E081E004C08437BF
:1033C00021F462E082E025DD2EC060E080E0FBCFEA
:1033D000833749F510E0612F70E09B01220F331F06
:1033E000C90103968C0F9D1FFC014081442369F0A5
:1033F000FE01E20FF31F2481222339F06A5C734F30
:1034000041E00E9412061F5FE6CF8A81833711F4E4
:1034100041E003C0843701F542E069E57DE086E3E1
:103420009CE0D7DE19C080913403823079F480911A
:103430003303813029F0823031F48AE092E008C011
:1034400080E192E005C086E092E002C082E092E076
:103450000E948D050E949A05DF91CF911F910895DA
:10346000DC01EC91AE2FA295AF70B0E0A05EBE4F34
:103470008C91DB018C93EF70F0E0E05EFE4F808179
:1034800011968C930895CF93DF93EC01A881E98185
:10349000CA2FC295CF70D0E0C05FDE4F4881AF70B9
:1034A000B0E0A05FBE4F2C91AE2FA295AF70B0E000
:1034B000A05FBE4F8C91EF70F0E0E05FFE4F908117
:1034C00051E02F3F09F050E031E04F3F09F030E08C
:1034D000532B31E08F3F09F030E0352BA9F49F3FAB
:1034E00099F0D0E44D9FA0011124E0E12E9F9001BE
:1034F0001124242B292BF4E08F9FC0011124282BA9
:10350000EB01288380E001C081E0DF91CF91089535
:103510001F93CF93DF93FB0141110FC0EC01A981F1
:10352000CA2FCF70D0E0C059DE4F1881A295AF707E
:10353000B0E0A059BE4F5C9101C054E1EC01A881FC
:10354000CA2FCF70D0E0C059DE4F2881A295AF704E
:10355000B0E0A059BE4F6C91D4E06D9FB001112432
:10356000922F92959F70962B9083952F9695969576
:1035700080E1289F90011124922B9183411106C074
:10358000C0E45C9FC0011124812B8283DF91CF9125
:103590001F910895DC0111969C911197411118C05B
:1035A00012968C911297E82FEF73F0E0E05DFE4FDA
:1035B0005081E92FEF7024E0E29FF0011124829501
:1035C000869586958370E82BE05DFE4F808102C072
:1035D00080E050E02C91E22FE37030E1E39FF001B6
:1035E000112492959F70E92BE05DFE4F9081269506
:1035F0002695E22FF0E0E05DFE4F2081E1E09F3F65
:1036000009F0E0E031E02F3F09F030E0E32B31E05A
:103610005F3F09F030E03E2B99F48F3F89F0E0E105
:103620002E9F90011124292BFB01208341110AC0F8
:10363000F0E18F9FC0011124852BFB01818302C023
:1036400081E0089580E00895482F50E08A3150F0DD
:103650009A012A51310984E0359527958A95E1F739
:103660002D5F01C022E0CA010196820F911D820FD9
:10367000911D0895882331F0CA0161110196880FC8
:10368000991F0895CA01880F991F840F951F969559
:103690008795611101C040FD01960895A0E0B0E05A
:1036A000E4E5FBE10C94C0306A018C0186E9F80185
:1036B00081938F01EB017F015B01A40EB51ECA153A
:1036C000DB0541F0B701CE01CBDE2196F2E0EF0E33
:1036D000F11CF5CFF601EE0FFF1FE00FF11F85E59E
:1036E0008083CDB7DEB7EAE00C94DC30A0E0B0E038
:1036F000ECE7FBE10C94C130EC017B018A0175E53C
:10370000B72E01151105F9F00130110529F441E03A
:10371000BE01C701FDDE0CC0CE0103966C0140E086
:10372000BE01C7010230110531F4F2DEBB82E601B1
:1037300000E010E0E6CFECDEE60192E0E90EF11CDD
:1037400002501109DECFCDB7DEB7E9E00C94DD30D1
:10375000A0E0B0E0EEEAFBE10C94BA304C01EB01E2
:103760006A01A12CB12C00E010E0612C712CE12C3D
:10377000F12CA2E14A2E512CC114D10409F451C0FC
:10378000BE01C40180DE81114FC082E0C816D104A1
:10379000A1F08AE0E816F10460F0C7010A97B201CF
:1037A0000E94913031E020E0892B09F030E0032FB6
:1037B000122FA114B10499F005C0A114B10491F025
:1037C00001E010E0609470947724888190E068169E
:1037D000790669F5A12CB12C612C712C17C001154B
:1037E000110581F0930120953095232F332788818F
:1037F00090E028173907D9F4AA24A394B12C00E04B
:1038000010E004C06881C301A1D03C0181E0C81A66
:10381000D1088FEFE81AF80A82E0880E911C2196F1
:10382000ABCF80E090E005C081E090E002C082E094
:1038300090E0CDB7DEB7E0E10C94D630A0E0B0E088
:10384000E4E2FCE10C94BC307C01EB013A0100E0C5
:1038500010E0C12CD12C92E1892E912C61147104BD
:1038600009F46DC081E068167104D1F441E0BE0135
:10387000C70190DE882319F081E090E062C0560114
:103880008FEFA81AB80AC8018095909599272881CA
:1038900030E08217930709F44EC082E090E051C0F7
:1038A00040E0BE01C70176DE8111E6CF82E0681AF2
:1038B0007108560182E0A80EB11C6114710459F020
:1038C0008BE0A816B104D0F0C6010A97B4010E949B
:1038D0009130892B99F400951095980133278981AF
:1038E00090E028173907C9F6012F1127888190E049
:1038F0000817190791F600E010E018C0688181E010
:103900006816710471F4C80121D08C019C012095C6
:103910003095232F3327898190E02817390731F01C
:10392000BCCFC80113D0698111D08C0183E0E80EAF
:10393000F11C229602C0612C712C65018FCF80E0B2
:1039400090E0CDB7DEB7EEE00C94D83078E0AC0173
:1039500044275078452F5527262F207830E0880FB0
:10396000991F4217530721F025E682272DE392275E
:10397000660F715061F70895CF93DF93E898249A0A
:103980002C9A8EE190E00E94D5042C988EE190E074
:103990000E94D5042C9A8DE290E00E94D50480E329
:1039A0000E94A80284E690E00E94D504C9ECD2E00F
:1039B000FE018491813440F083E30E94A80284E0F8
:1039C0000E94DA04CFEF0DC0FE0131966491FE0132
:1039D00084910E9496022296F3E0C530DF0741F7FA
:1039E000EBCF84E30E94A8028AE090E00E94D50415
:1039F000C150B9F781E080933503DF91CF910895ED
:103A0000EF92FF920F931F93CF93DF93EC018B0103
:103A1000F880F3946115710519F0E4E6F0E002C056
:103A2000E0E0F0E028E0F29EC00111246AE070E0DE
:103A30000E94A5309B012E0F3F1FC901AA2797FDA9
:103A4000A095BA2FE0910C08F0910D08AF0160E04D
:103A500070E0481759076A077B0728F489EB92E062
:103A60000E948D05D9C0E21BF30BF0930D08E09383
:103A70000C0880913503811101C07EDF85E30E942F
:103A80008F028D3071F08AE50E944A0585E40E941C
:103A90004A0582E50E944A0582E50E944A0581E3C3
:103AA0004CC08091360390913703A0913803B091B8
:103AB0003903892B8A2B8B2B51F50E940A0385E34E
:103AC0000E948F02833109F443C08AE50E944A05AF
:103AD00085E40E944A0582E50E944A0582E50E942B
:103AE0004A0582E32AC08091080890910908A091B4
:103AF0000A08B0910B084F5F5F4F6F4F7F4F8417DD
:103B00009507A607B707C9F681E00E94DA048091FD
:103B1000080890910908A0910A08B0910B084091FB
:103B2000360350913703609138037091390384173D
:103B30009507A607B707B9F6E7CF0E944A0585E3C0
:103B40000E948F020E940E060E949A0515DF64C033
:103B5000012B41F42C988FE70E943502EC2E0C2F9C
:103B60001D2F0BC00AE010E084E60E94DA04015029
:103B7000110901151105C1F7EDCF802F8E198F1591
:103B800030F4F80181918F010E943502F6CF2C9A12
:103B9000C8EC85E30E948F028D30E9F485E30E9432
:103BA0008F028D3019F18AE50E944A0585E40E9452
:103BB0004A0582E50E944A0582E50E944A0583E3A0
:103BC0000E944A0585E30E948F020E940E060E9411
:103BD0009A05D2DE0BC085E30E948F028331F1F695
:103BE00081E00E94DA04C150A1F6D8CF809135035C
:103BF000811102C00E949F0B8091080890910908D2
:103C0000A0910A08B0910B08809336039093370374
:103C1000A0933803B0933903CDB7DEB7E6E00C9438
:103C2000E030ACE0B0E0E7E1FEE10C94C730FC012D
:103C30008BE0898381818A831B8282E08C838781E8
:103C40008D8380858E8381858F838481888785811C
:103C5000898786818A871B861C8684E10E94DA0414
:103C600060E070E0CE010196CBDE8AE50E944A0555
:103C700010E0812F90E0298130E0281739075CF0AF
:103C8000E1E0F0E0EC0FFD1FE80FF91F80810E94DA
:103C90000E061F5FEECF80910F0885FF03C080E006
:103CA0000E940E060E949A052C96E3E00C94E330E5
:103CB000CF93DF93EC0180913D03811108C0909177
:103CC0003E03911104C090913F039923A9F09B8179
:103CD000903319F09F7E903479F49F8198130CC033
:103CE000988580913E03981307C0998580913F0382
:103CF000981302C0CE0195DF80913A03811108C06C
:103D000090913B03911104C090913C039923A9F039
:103D100098819B3091F49B81903479F49F81981322
:103D20000CC0988580913B03981307C099858091BA
:103D30003C03981302C0CE0174DFDF91CF91089548
:103D4000AEE1B0E0E6EAFEE10C94C63080913503C6
:103D5000882309F469C04A9B59C08FE30E948F02EF
:103D60008F778E3108F08DE189832C988FEF0E9438
:103D7000350210E08981181760F480E00E94350256
:103D8000E2E0F0E0EC0FFD1FE10FF11D80831F5F0B
:103D9000F1CF80E00E943502082F80E00E943502BA
:103DA0002C9ACE01019684DF80910F0884FF12C007
:103DB0008AE70E944A0510E089818117A8F1E1E0B5
:103DC000F0E0EC0FFD1FE10FF11D80810E944A051C
:103DD0001F5FF2CF8AE50E944A0510E089818117B2
:103DE00058F0E1E0F0E0EC0FFD1FE10FF11D8081E4
:103DF0000E940E061F5FF2CF80910F0885FF03C05F
:103E0000802F0E940E060E949A050EC085E30E9434
:103E10008F02813149F48AE30E94A80286E30E945E
:103E2000A80284E30E94A8026E96E4E00C94E230BB
:103E3000AEE1B0E0EEE1FFE10C94C6308C01FC0194
:103E40008181823711F498DD36C0833711F08636D0
:103E500001F54DE1BE016F5F7F4FC80102960E94E0
:103E6000120699270197298130E08217930729F0DC
:103E700080EB92E00E948D051EC061E070E0F801C9
:103E80008181833711F060E070E0CE010196B8DDEA
:103E900012C0813621F443E06DE373E005C087373B
:103EA00041F443E06AE373E0C80102960E941206FF
:103EB00002C0109235036E96E4E00C94E230CF938A
:103EC000DF93E898249A2C9A8EE190E00E94D50422
:103ED0002C988EE190E00E94D5042C9A8DE290E01F
:103EE0000E94D50480E30E94A80284E690E00E942C
:103EF000D5042C9880E40E943502C5E0D3E0FE0191
:103F000084910E9435022196F3E0C231DF07B9F7B0
:103F1000809101010E943502809102010E943502C8
:103F2000809103010E943502C0E0D0E0FE01EB5E0B
:103F3000FC4F84910E9435022196C931D105B1F719
:103F40002C9A2C988EE70E9435028BE290E0EC01CF
:103F500021960E9472060E943502C333D10511F0EA
:103F6000CE01F5CF2C9A83E30E94A80281E00E9443
:103F7000DA0481E080930608DF91CF9108956F9273
:103F80007F928F929F92AF92CF92EF92FF920F9378
:103F90001F93CF93DF93EC018981843769F468E044
:103FA00071E0CE0102960E943F0640E260E08091FF
:103FB00008019091090112C0833709F091C18A81EB
:103FC000823789F464E071E0CE0103960E943F06D7
:103FD00040E260E080910401909105010E949E05FD
:103FE0000E949A05F1C1469A80914203811116C040
:103FF00080913103882329F081E08093410310925E
:10400000310380913503882329F081E080934003B8
:104010001092350354DF83E00E94DA0486E30E94A5
:10402000A8028AE30E94A8028BE30E94A8020E94D1
:104030000A03FE0101900020E9F70E2F0C1B02502D
:10404000C12CFAE09F2E7E0132E0E30EF11CA5E0C8
:10405000AA2EB8E28B2E80910401909105012C2D9F
:10406000332727FD30952817390708F0FBC00132A8
:10407000A1F4299A80910801909109010E94D50428
:1040800029988091060190910701FC019E9EC00134
:104090009F9E900D11240E94D504370111E0101746
:1040A0000CF0B7C0F30181913F01299A803309F0E8
:1040B00046C0013201F580910601909107010E94EE
:1040C000D504299880910601909107010E94D5049A
:1040D000299A80910601909107010E94D5042998A0
:1040E00080910601909107019C01A29EC001A39EB0
:1040F000900D11248AC080910801909109010E94BD
:10410000D504299880910801909109019C01220F02
:10411000331F820F931F0E94D504299A80910801B2
:10412000909109010E94D5042998809108019091ED
:1041300009019C01220F331F820F931F66C0813338
:1041400029F5013291F480910601909107010E94B6
:10415000D50429988091060190910701FC01AE9E3B
:10416000C001AF9E900D11241EC080910801909156
:1041700009019C01220F331F820F931F0E94D50457
:10418000299880910801909109012CC00132D1F445
:1041900080910601909107010E94D5042998809191
:1041A0000601909107010E94D504299A8091060189
:1041B000909107010E94D504299880910601909161
:1041C000070123C080910801909109010E94D50444
:1041D000299880910801909109019C01220F331FB9
:1041E000820F931F0E94D504299A80910801909113
:1041F00009019C01220F331F820F931F0E94D504D7
:10420000299880910801909109010E94D5041F5FAF
:1042100046CF299A0132A1F48091060190910701BD
:104220000E94D504299880910601909107019C0174
:10423000829EC001839E900D11240E94D50410C05F
:1042400080910801909109010E94D50429981FE1ED
:1042500080910801909109010E94D5041150C1F785
:10426000C394F9CE80914203882341F080910F08D6
:1042700081110FC086E30E94A80218C080914103FB
:10428000882351F0109241030E948C1481E08093A6
:1042900031030E941C030AC080914003882321F04F
:1042A0001092400369DB02C00E949F0B469889E68A
:1042B0000E944A0583E70E944A0511E010170CF09E
:1042C0008FCEFE01E10FF11D17FDFA95818180333C
:1042D00019F0813309F086E40E944A051F5FEECF92
:1042E0008237B9F480913103882329F081E08093EB
:1042F00041031092310380913503882329F081E036
:104300008093400310923503DADD81E0809342030D
:104310005BC0863651F58A81803351F480E1809309
:10432000010180EB8093020181E78093030107C0C4
:1043300043E061E071E0CE0102960E94120689E638
:104340000E944A0586E60E944A058AE30E944A05C1
:10435000809101010E940E06809102010E940E06CA
:10436000809103010E940E063BCE883729F580918B
:104370004103882341F0109241030E948C1481E094
:104380008093310310C080914003882321F0109264
:104390004003F2DA0EC082E090E00E94AC0280910D
:1043A0000F08882319F00E941C0303C086E30E94B3
:1043B000A8021092420308C0833631F468E071E02D
:1043C000CE0101960E943F06DF91CF911F910F9180
:1043D000FF90EF90CF90AF909F908F907F906F90D5
:1043E00008951092C20F1092FE0383E08093480359
:1043F0008FEF8093D70F0895E9E4F3E02081211136
:1044000005C0892BB1F080E090E00895B3E0E73F6C
:10441000FB07B8F7009751F04181DC013C91431351
:1044200005C0428111963C91431751F0E20FF11DF6
:10443000E5CF33E0E73FF30719F010F0E7EFF3E0E3
:10444000CF01089594E0899FF0011124E852F04FC4
:1044500080818F3F91F08093430381818093440357
:1044600082818093450383818093460321E04CE061
:1044700064E083E493E00C94AD08089588EF93E042
:10448000BBDF009799F020914803FC01308123178E
:1044900068F4E20FF11D80818093FA0389E780932D
:1044A000FB0381818093FC0381E0089580E00895FF
:1044B000EF92FF921F93CF93DF931F92CDB7DEB79A
:1044C000182F80910F0886FF18C084E599830E94F9
:1044D0004A05E12E9981F92E15E0F70181917F01BE
:1044E0000E940E061150C9F780910F0885FF03C086
:1044F0008AEF0E940E060E949A050F90DF91CF91DD
:104500001F91FF90EF90089586E30E94A80280918A
:10451000FA03833511F48BE901C08BE40E94DA04BD
:1045200021E04CE065E088EF93E00E94AD080E9436
:104530001C0388EF93E0BCCFE7DF8091FA03893654
:1045400031F081E08093F70389E28093D70F0895DB
:10455000CF9385E390E00E9472068093A80F86E3D4
:1045600090E00E9472068093D60FCFEFC093C60FE3
:10457000C093C80FC093CA0FC093CC0FC093CE0F87
:10458000C093D00FC093D20FC093D40F2ADF1092E4
:10459000490381E08093A70FC093D80F8FEF9FEF5F
:1045A0009093AB0F8093AA0F1092AD0F1092AC0FA7
:1045B0001092AF0F1092AE0FC093DC0F9093B10F1B
:1045C0008093B00F1092B30F1092B20F1092B50FEC
:1045D0001092B40FC093E00F9093B70F8093B60F73
:1045E0001092B90F1092B80F1092BB0F1092BA0F21
:1045F000C093E40F9093BD0F8093BC0F1092BF0F38
:104600001092BE0F1092C10F1092C00FCF9108955B
:10461000ACE0B0E0EEE0F3E20C94C1306C018C0150
:104620000F5F1F4F45E0BE016F5F7F4FC8010E94C3
:104630001206843008F0F3C099819130A9F48330D8
:1046400061F46A8185E390E00E946D066B8186E3E8
:1046500090E00E946D067CDF06C28091A80F0E9448
:104660000E068091D60F9AC0923009F051C0813069
:1046700039F081E09A81913009F080E0F82E02C093
:10468000FF24F39480914903811104C08EE293E0EA
:104690000E948D0509E413E0F8018081882309F464
:1046A000BBC0F3E0073F1F0708F0B6C033E0093492
:1046B000130719F080E20E944A05F80181810E94E7
:1046C0000E06F80182810E940E06FF20E1F08AE3C7
:1046D0000E944A0593E0F80180819817A0F4943075
:1046E00038F090FF05C08CE29C870E944A059C85AB
:1046F000EE24E394E90EF801E90FF11D80810E9498
:104700000E069E2DE8CFF8018081080F111DC4CF41
:10471000933049F480E090E06FDE895493409EEA44
:10472000981B892F3BC0903171F506EC1FE087EC98
:10473000E82E8FE0F82EC12CD12CF80180818F3F1C
:10474000A1F0DD2019F080E20E944A058C2D0E9424
:104750000E068AE30E944A05F80180810E940E0637
:10476000F70180810E940E06D3940E5F1F4FC39401
:10477000F2E0EF0EF11C38E0C312DFCFD1104CC0D5
:104780008CE393E047C0913161F48091C40F909124
:10479000C50F6DE770E00E949130862F0E940E06D3
:1047A0003BC09231C9F518EDE12E1FE0F12E0BED63
:1047B0001FE0C12CD12CF70180818F3FF1F0DD206B
:1047C00019F080E20E944A058C2D0E940E068AE3B1
:1047D0000E944A05F70180810E940E06F801329777
:1047E00080810E940E06F801319780810E940E069A
:1047F000F80180810E940E06D394F4E0EF0EF11CC4
:10480000C3940C5F1F4F34E0C312D5CFD11004C046
:1048100088E393E00E948D050E949A0524C144E03C
:10482000BE01695F7F4FC8010E9412064F81493661
:1048300008F477C07A85588569857C3009F04BC0CB
:1048400020E030E080E090E0F901E852F04F708124
:1048500074131CC0A181A51319C0A281A61316C090
:104860002CE023839C01220F331F280F391FF901ED
:10487000EE0FFF1FE655F04F11821082F901EE0F87
:10488000FF1FE455F04F11821082CFC07F3FD9F453
:104890004083518362832CE023839C01220F331FCA
:1048A000280F391FF901EE0FFF1FE655F04F118257
:1048B0001082F901EE0FFF1FE455F04F11821082B4
:1048C0001092A70FB2C001962C5F3F4F20313105E7
:1048D00009F0BACFC8C080E090E020E030E0FC01F1
:1048E000E852F04FA081A41315C0A181A51312C0F6
:1048F000A281A6130FC07383F901EE0FFF1FE20F11
:10490000F31FEE0FFF1FE455F04F81E090E091831D
:104910008083A9C02F5F3F4F049680319105F9F63F
:10492000A2C0E9818091A80FE817C0F190E0F0E003
:104930009C01295F3F4F2E173F0784F13A81209158
:10494000D60F32132BC03C813F3231F442E06CE091
:10495000C6010E941A0987C02D813C32B1F4209310
:10496000C30F81E090E09093C50F8093C40F8091B6
:104970000C0890910D08E4E02E9F800D911D1124EC
:1049800090930D0880930C086EC0E81BF90BEE0F96
:10499000F0E0EA53F04F3083218365C080E090E07F
:1049A0002BDD7C01F80101900020E9F73197E01B35
:1049B000F10BF695E795BB24B394BE0EC7018B0DA2
:1049C000911D895493408F3A91050CF048C0F7012E
:1049D000B1928F0121E0822F880F81502B15D8F4DE
:1049E00041E0B801F601E80FF11DCF012C870E94CC
:1049F00012062C85233058F020FD09C0D8011197EC
:104A00008C91843621F4F80180818093A90F2F5F67
:104A10000F5F1F4FE0CFF7EFEF16F3E0FF0618F53B
:104A2000F701E20FF11D10821EC022E04CE064E0AD
:104A3000CE0107960E94AD088FE08A8722E04CE005
:104A400064E0CE0107960E94AD0882E08A8722E0EA
:104A50004CE064E0CE0107960E94AD0804C082E3FA
:104A600093E00E948D052C96E9E00C94DD300F93C5
:104A70001F93CF93DF939091A70F91114FC093E0B5
:104A8000899F80011124F801EE0FFF1FE655F04FBA
:104A900094E0899FD0011124A852B04F12969C91A6
:104AA000977040E850E0491B51099AEF949F90019C
:104AB000959F300D11243595279535952795318390
:104AC0002083E801CC0FDD1FC255D04F28813981EA
:104AD0002F5F3F4F39832883000F111F0455104F5C
:104AE000F801408151814115510529F424303105E7
:104AF000A9F4A8DC11C04130510539F4A3DC82E0EF
:104B000090E0F8019183808309C04230510531F46F
:104B100099DCF8011182108219821882DF91CF91FD
:104B20001F910F910895A6E0B0E0E9E9F5E20C9439
:104B3000C4302091D60F2A831B828091C30F882313
:104B400041F0833019F487E791E00FC08DE790E0E2
:104B50000CC0277030E02A513F4F4DE7429FC00103
:104B6000439F900D1124959587959093C50F809341
:104B7000C40F07EC1FE0F12C7CE2E72EF80131971F
:104B800090819F3FC1F08091A80F8F0D8983809104
:104B9000C30F882311F0EC8203C09C83F80180814D
:104BA0008D8321E04CE065E0CE0101960E94AD08C6
:104BB000CE0101967DDCF3940E5F1F4FF8E0FF12EB
:104BC000DDCF8091C30F882341F0833019F4109218
:104BD000C30F03C082508093C30F2696E6E00C9467
:104BE000E0308091F703882351F08EDC89E28093D6
:104BF000D70F8091F70381508093F7030895F1CB8D
:104C0000FF920F931F93CF93DF93FC01F0800181FC
:104C1000C281D38114818FE58093D70F1092F7035F
:104C20008091A80F811105C08091D60F882309F4C7
:104C3000A9C08091F8038F1104C08091F9038017F7
:104C400029F0CFDBF092F8030093F9038091C20FB3
:104C50008F3F09F497C0C093FA03D093FB031093DE
:104C6000FC03CC23F1F081111CC08091A80F181710
:104C700061F0143651F08DEA8C0F823010F0CD3790
:104C800039F48FEF8093C20F7DC0C43509F47AC028
:104C90008D2F807F803609F075C0D067D093FB03DD
:104CA00057C0ECDB811105C08091C20F882309F445
:104CB00069C08091FE03811107C0E091C20FF0E04E
:104CC000E05CFC4FE49101C0E82FE33541F4C435CA
:104CD00031F49091C20F9E5F9093C20F04C0EC1705
:104CE00011F07FDB4FC0882369F0809148038E5F0D
:104CF00080934803C3DB81110EC08091C20F8E5F89
:104D00008093C20F8091C20FE82FF0E0EF5BFC4F61
:104D100014911F3F59F48091FA038093FE03843667
:104D2000B9F48091A90F8093FC0312C01093FA0389
:104D300097E79093FB039091A80F9093FC038E5FED
:104D40008093C20F1092FE038E3021F01123D1F018
:104D5000F3DB18C088EF93E04FDBDC01009781F0B4
:104D60002C9130E087EF93E0821B930BA817B907D3
:104D700030F4ED01C20FD31F48814D93F7CF1C9241
:104D800030DBE4CFCDB7DEB7E5E00C94E130FF9245
:104D90000F931F93CF93DF938C01EC0109900020B8
:104DA000E9F72197C81BD90BFC018181823751F4A7
:104DB00087E390E00E94AC020E941C0381E0809394
:104DC000E80F26C0833711F5FC2E2C988FE70E9440
:104DD00035028C2F82500E943502E801229612E0A3
:104DE0001F1528F489910E9435021F5FF9CF2C9A74
:104DF0000E940A038AE30E948F028F7721F081E0EC
:104E00000E94DA04F7CF0E941C0302C01092E80F40
:104E1000CDB7DEB7E5E00C94E130A0E0B4E0E3E12B
:104E2000F7E20C94C2308091E80F882309F452C055
:104E3000813011F58091080890910908A0910A0825
:104E4000B0910B082091FF03281709F443C085E3B4
:104E50000E948F02813129F48AE30E94A8020E94F5
:104E60001C038091080890910908A0910A08B0914C
:104E70000B088093FF032EC08FE30E948F02D82E71
:104E80002C988FEF0E9435028E010F5F1F4F780123
:104E9000C02E8E2D801B8D1538F480E00E943502C7
:104EA000F70181937F01F5CF2C9A81E080938702EF
:104EB000802F8C198D1530F4F80181918F010E949B
:104EC0004A05F6CF0E949A058FEF8093870281E012
:104ED0008093E80FDC5FE8E00C94DE300F931F93C3
:104EE000CF93DF93EC0110E0212F30E0F901EE0FBA
:104EF000FF1FE20FF31FE457FF4F0491F901EE0F7C
:104F0000FF1FE20FF31FE357FF4F2591349100235A
:104F100099F0209739F480E20E944A05802F0E9480
:104F20004A0508C08881801305C0CE01F9010995A2
:104F300081E003C01F5FD8CF80E0DF91CF911F9148
:104F40000F910895CF93C09187028093870280913B
:104F5000F3139091F413892BA1F18FEE93E10E944A
:104F6000AC078F3FA1F3E09100048A3011F08D303F
:104F7000F9F4EE2361F3F0E0EF5FFB4F108281E084
:104F800094E0ACDF811111C086E693E00E948D05AC
:104F900081E094E00E9482058EE493E00E948D05FA
:104FA00080E090E09BDF0E949A0510920004CFCF32
:104FB00091E09E0F90930004F0E0EF5FFB4F808341
:104FC000C6CFC0938702CF9108951F920F920FB65C
:104FD0000F9211240BB60F922F933F934F935F9331
:104FE0006F937F938F939F93AF93BF93EF93FF93B1
:104FF0008091ED0F9091EE0F892B39F089EE9FE0B3
:105000000E94AC078093C60005C08091C1008F7DCF
:105010008093C100FF91EF91BF91AF919F918F91CC
:105020007F916F915F914F913F912F910F900BBEA8
:105030000F900FBE0F901F9018951F920F920FB6F2
:105040000F9211240BB60F922F933F934F935F93C0
:105050006F937F938F939F93AF93BF93EF93FF9340
:1050600088B190E4892788B96091C6008091C0001A
:10507000887121F48FEE93E10E948E07FF91EF91EA
:10508000BF91AF919F918F917F916F915F914F9160
:105090003F912F910F900BBE0F900FBE0F901F905E
:1050A000189597FF04C022E02093C0009F7790934B
:1050B000C5008093C40088E98093C10086E0809396
:1050C000C20008958091C10085FD0BC08091ED0F55
:1050D0009091EE0F892B29F08091C100806280931E
:1050E000C1000895E0910408F091050881E0099558
:1050F000E9CFE4E6F0E080818B7F80832F9A84B152
:10510000806B84B9269880E58CBD8DB581608DBD9E
:1051100008951092B90080E28093B800089594EA4F
:105120009093BC009091BC0097FFFCCF9091B90088
:10513000987F983021F0903111F081E008958093AC
:10514000BB0084E88093BC008091BC0087FFFCCF4B
:105150008091B900887F883111F0803471F780E048
:10516000089584E98093BC008091BC0084FDFCCF4D
:1051700008958093BB0084E88093BC008091BC00BC
:1051800087FFFCCF9091B900987F81E0983209F4B5
:1051900080E0089584EC8093BC008091BC0087FF80
:1051A000FCCF8091BB00089584E88093BC0080917F
:1051B000BC0087FFFCCF8091BB0008958F929F9227
:1051C000AF92BF92CF92DF92EF92FF9220E030E059
:1051D00040E251E40E94E5324B015C010E943D3205
:1051E0006B017C019B01AC01C501B401F8D72FE331
:1051F00035E34EE05FE30E94E13287FD06C0C50162
:10520000B4010E9454316B017C01C701B6010E94B8
:10521000CF31CB01FF90EF90DF90CF90BF90AF9058
:105220009F908F90089580915A1890915B18892BC8
:1052300059F08091F7179091F817009729F001978E
:105240009093F8178093F717089581E090E02091EC
:10525000F5173091F617232B11F480E090E00895B4
:1052600081E090E02091FB173091FC17232B11F483
:1052700080E090E0089510925918109258181092FA
:1052800053181092521810925118109250181092F0
:10529000FA171092F91710925F1810925E18EEEF3D
:1052A000F7E1119288E1EE34F807D9F70895E0911B
:1052B000FD17E827F0E0E058FE4F80818093FD174E
:1052C0000895EF92FF920F931F93CF93DF938EEF8A
:1052D000E82E87E1F82EC0E0D0E080915E18909132
:1052E0005F18C817D907E4F4219640E260E0CE01C8
:1052F0000E949E058AE30E944A0508E010E00150E2
:105300001109F701E00FF11F80810E940E060115BF
:105310001105A9F70E949A0588E0E80EF11CDDCF7F
:10532000CDB7DEB7E6E04CC780E3F9DE882321F095
:1053300018DF80E090E0089514DF81E090E00895A8
:10534000EF92FF921F93CF93DF9300D0CDB7DEB7DC
:10535000162F49835A83E3DEF82E49815A81811141
:1053600002C07A0123C0FDDE86E40E944A0581E680
:105370000E944A0589E60E944A058CE60E944A0579
:1053800085E60E944A0584E60E944A0580E20E9462
:105390004A0589E40E944A0582E30E944A0583E4A3
:1053A0000E944A050E949A058F2D0AC0112331F0F0
:1053B000F70181917F01DDDE1150F8CFD2DE80E070
:1053C0000F900F90DF91CF911F91FF90EF90089574
:1053D000EF92FF921F93CF93DF9300D01F92CDB730
:1053E000DEB78F5F4A835B83698399DE182F4A811A
:1053F0005B816981811104C07A01162F140F23C0CB
:10540000B0DE86E40E944A0581E60E944A0589E6EC
:105410000E944A058CE60E944A0585E60E944A05DC
:1054200084E60E944A0580E20E944A0589E40E94BF
:105430004A0582E30E944A0583E40E944A050E94CD
:105440009A05812F0EC0812F8E19823028F0A2DE9E
:10545000F70181937F01F7CFA7DEF701808381DE1B
:1054600080E00F900F900F90DF91CF911F91FF90F0
:10547000EF900895A2E0B0E0EFE3FAE289C68A83F4
:10548000AE014E5F5F4F61E080E35ADF813011F57E
:1054900089E40E944A0582E30E944A0583E40E944F
:1054A0004A0580E20E944A0586E40E944A0581E698
:1054B0000E944A0589E60E944A058CE60E944A0538
:1054C00085E60E944A0584E60E944A050E949A05E4
:1054D00081E007C0AE014F5F5F4F61E080E378DF9E
:1054E00080E02296E2E070C6A2E0B0E0E9E7FAE2EE
:1054F0004FC689836A83AE014F5F5F4F62E080E3EE
:105500001FDF813011F589E40E944A0582E30E9481
:105510004A0583E40E944A0580E20E944A0586E427
:105520000E944A0581E60E944A0589E60E944A05D2
:105530008CE60E944A0585E60E944A0584E60E94A0
:105540004A050E949A0581E007C0AE014F5F5F4F98
:1055500061E080E33DDF80E02296E2E035C680EF47
:1055600089DF811109C064E082EDBEDF21E090E0B7
:10557000811120E0822F089580E090E00895A1E05D
:10558000B0E0E4ECFAE204C660EF81EEADDFAE011C
:105590004F5F5F4F61E080E31BDF898180FDF7CFC4
:1055A0002196E2E011C61092F6171092F51784EBDF
:1055B00061DFE5DF82FD03C08695817001C082E076
:1055C00090E00895CF93C82FDADFCC2311F060E884
:1055D00001C060E087E888DFD2DFCF91089581E0E5
:1055E000F1DFCDDF85FB882780F90895A1E0B0E0E9
:1055F000EBEFFAE2CDC58983C2DF698185EA74DF0A
:10560000BEDF2196E2E0E0C5CF93DF93EC01CBDF74
:1056100085E5ECDF8F81EADF8E81E8DF8D81E6DFD3
:105620008C81E4DF8B81E2DF8A81E0DF8981DEDF4C
:105630008881DCDFDF91CF910895AF92BF92DF9236
:10564000EF92FF920F931F93CF93DF931F92CDB7EB
:10565000DEB71092FD178091521890915318892B44
:1056600009F0ADC0A0DF009769F4109259181092AC
:1056700058181092531810925218109251181092F4
:105680005018BCC080EFB2DFDD24D39400E010E0FE
:10569000E12CF12CAA24A394B12CA1DF89839FDFF4
:1056A0002091F9173091FA179981913019F48130CE
:1056B00041F565C0981336C08091581890915918DB
:1056C000A816B90694F41216130694F4F90131974A
:1056D00053E0EE0FFF1F5A95E1F7E00FF11FE25084
:1056E000F84E80818D2169F403C0A816B90649F0EF
:1056F00089E0A816B104A4F4B0925118A0925018F1
:105700000FC0F90143E0EE0FFF1F4A95E1F7E00FEC
:10571000F11FE250F84E80818D29808391E011C005
:10572000750190E0F90133E0EE0FFF1F3A95E1F7C4
:10573000E00FF11FE250F84E80812D2D209582233D
:105740008083892F3FDFEFEFAE1ABE0ADD0C99F49C
:10575000E091F917F091FA1723E0EE0FFF1F2A9559
:10576000E1F7E00FF11FE250F84E8081A0DD0F5FFE
:105770001F4FDD24D394083011050CF48ECFF1E4D3
:10578000AF16B104E4F08091FD17811118C0F092BA
:105790005918E0925818E114F10431F481E090E0D6
:1057A00090935318809352188091501890915118EB
:1057B0008E159F0521F41092511810925018E09107
:1057C000F917F091FA1793E0EE0FFF1F9A95E1F7A2
:1057D000E250F84E808181110FC01092591810923A
:1057E0005818109253181092521810925118109283
:1057F000501880E090E002C081E090E00F90DF91CF
:10580000CF911F910F91FF90EF90DF90BF90AF90DD
:10581000089531DD12DF892BF1F48091F917909111
:10582000FA1790935F1880935E1884E40E944A05EB
:105830008AE30E944A0540E262E080915E189091FE
:105840005F180E949E050C949A058091F91790911B
:10585000FA170A9714F782E50E944A058AE30E9424
:105860004A05E091F917F091FA1773E0EE0FFF1F68
:105870007A95E1F7E250F84E87810E940E06E0919A
:10588000F917F091FA17A3E0EE0FFF1FAA95E1F7C1
:10589000E250F84E86810E940E06E091F917F091D1
:1058A000FA17B3E0EE0FFF1FBA95E1F7E250F84E9A
:1058B00085810E940E06E091F917F091FA1783E0B6
:1058C000EE0FFF1F8A95E1F7E250F84E84810E94A7
:1058D0000E06E091F917F091FA1793E0EE0FFF1F13
:1058E0009A95E1F7E250F84E83810E940E06E0910E
:1058F000F917F091FA1723E0EE0FFF1F2A95E1F751
:10590000E250F84E82810E940E06E091F917F09164
:10591000FA1733E0EE0FFF1F3A95E1F7E250F84E29
:1059200081810E940E06E091F917F091FA1743E089
:10593000EE0FFF1F4A95E1F7E250F84E80810E947A
:105940000E068091F9179091FA1701969093FA1725
:105950008093F9170E949A0570DE892B09F075CFA4
:105960005CCF88E790E0909355188093541810927C
:105970005B1810925A181092FC171092FB17109295
:105980005D1810925C181092F6171092F51710928D
:105990004F1810924E189093F8178093F7176BDCFE
:1059A000C3DC892B21F0FFDD019709F432CF089584
:1059B000E6DD84E41BDEE3DD81E090E09093F61702
:1059C0008093F5170895A1E0B0E0E8EEFCE2E0C3B3
:1059D000D6DD86E94FDDD3DD61EE81EE85DDAE01FA
:1059E0004F5F5F4F61E080E3F3DC89812196E2E065
:1059F000EBC3AAE0B0E0EEEFFCE2C0C38091F51784
:105A00009091F617892B39F0DEDF87FF04C01092E2
:105A1000F6171092F5178091FB179091FC17892BC0
:105A200079F080915C1890915D18019790935D18C2
:105A300080935C18892B21F41092FC171092FB17AD
:105A400080915A1890915B18892B09F4AEC180910E
:105A5000F7179091F817892B09F0A7C180914E187C
:105A600090914F180097B9F49EDD8CECBFDD84E473
:105A7000BDDD85DD81E090E09093FC178093FB17FE
:105A800027E030E030935D1820935C1890934F1816
:105A900080934E18A7C08130910509F0A8C080916D
:105AA000FB179091FC17892B09F07FC18091561844
:105AB0009091571820915E1830915F1882179307C4
:105AC0000CF084C0FC01A3E0EE0FFF1FAA95E1F7E4
:105AD000E250F84E2081283229F0223219F020318C
